{
  "contractName": "DataStructs",
  "abi": [
    {
      "inputs": [
        {
          "internalType": "string",
          "name": "version",
          "type": "string"
        },
        {
          "internalType": "string",
          "name": "provider",
          "type": "string"
        },
        {
          "internalType": "uint8",
          "name": "stype",
          "type": "uint8"
        },
        {
          "internalType": "uint256",
          "name": "assetId",
          "type": "uint256"
        }
      ],
      "name": "insertSoftware",
      "outputs": [],
      "stateMutability": "nonpayable",
      "type": "function"
    },
    {
      "inputs": [
        {
          "internalType": "string",
          "name": "model",
          "type": "string"
        },
        {
          "internalType": "string",
          "name": "provider",
          "type": "string"
        },
        {
          "internalType": "string",
          "name": "serialNumber",
          "type": "string"
        },
        {
          "internalType": "uint8",
          "name": "htype",
          "type": "uint8"
        },
        {
          "internalType": "uint256",
          "name": "assetId",
          "type": "uint256"
        }
      ],
      "name": "insertHardware",
      "outputs": [],
      "stateMutability": "nonpayable",
      "type": "function"
    },
    {
      "inputs": [
        {
          "internalType": "string",
          "name": "description",
          "type": "string"
        },
        {
          "internalType": "string",
          "name": "location",
          "type": "string"
        },
        {
          "internalType": "uint8",
          "name": "doctype",
          "type": "uint8"
        },
        {
          "internalType": "uint256",
          "name": "assetId",
          "type": "uint256"
        }
      ],
      "name": "insertDocument",
      "outputs": [],
      "stateMutability": "nonpayable",
      "type": "function"
    },
    {
      "inputs": [
        {
          "internalType": "string",
          "name": "location",
          "type": "string"
        },
        {
          "internalType": "bool",
          "name": "local",
          "type": "bool"
        },
        {
          "internalType": "uint256",
          "name": "assetId",
          "type": "uint256"
        }
      ],
      "name": "insertData",
      "outputs": [],
      "stateMutability": "nonpayable",
      "type": "function"
    },
    {
      "inputs": [
        {
          "internalType": "string",
          "name": "cidrblock",
          "type": "string"
        },
        {
          "internalType": "bool",
          "name": "nat",
          "type": "bool"
        },
        {
          "internalType": "uint256",
          "name": "assetId",
          "type": "uint256"
        }
      ],
      "name": "insertNetwork",
      "outputs": [],
      "stateMutability": "nonpayable",
      "type": "function"
    },
    {
      "inputs": [
        {
          "internalType": "string",
          "name": "url",
          "type": "string"
        },
        {
          "internalType": "string",
          "name": "domain",
          "type": "string"
        },
        {
          "internalType": "uint256",
          "name": "assetId",
          "type": "uint256"
        }
      ],
      "name": "insertCloud",
      "outputs": [],
      "stateMutability": "nonpayable",
      "type": "function"
    },
    {
      "inputs": [
        {
          "internalType": "string",
          "name": "description",
          "type": "string"
        },
        {
          "internalType": "uint256",
          "name": "assetId",
          "type": "uint256"
        }
      ],
      "name": "insertOther",
      "outputs": [],
      "stateMutability": "nonpayable",
      "type": "function"
    },
    {
      "inputs": [
        {
          "internalType": "uint256",
          "name": "assetId",
          "type": "uint256"
        }
      ],
      "name": "getSoftwareAsset",
      "outputs": [
        {
          "components": [
            {
              "internalType": "string",
              "name": "version",
              "type": "string"
            },
            {
              "internalType": "string",
              "name": "provider",
              "type": "string"
            },
            {
              "internalType": "uint8",
              "name": "stype",
              "type": "uint8"
            }
          ],
          "internalType": "struct DataStructs.Software",
          "name": "",
          "type": "tuple"
        }
      ],
      "stateMutability": "view",
      "type": "function",
      "constant": true
    },
    {
      "inputs": [
        {
          "internalType": "uint256",
          "name": "assetId",
          "type": "uint256"
        }
      ],
      "name": "getHardwareAsset",
      "outputs": [
        {
          "components": [
            {
              "internalType": "string",
              "name": "model",
              "type": "string"
            },
            {
              "internalType": "string",
              "name": "provider",
              "type": "string"
            },
            {
              "internalType": "string",
              "name": "serialNumber",
              "type": "string"
            },
            {
              "internalType": "uint8",
              "name": "htype",
              "type": "uint8"
            }
          ],
          "internalType": "struct DataStructs.Hardware",
          "name": "",
          "type": "tuple"
        }
      ],
      "stateMutability": "view",
      "type": "function",
      "constant": true
    },
    {
      "inputs": [
        {
          "internalType": "uint256",
          "name": "assetId",
          "type": "uint256"
        }
      ],
      "name": "getDocAsset",
      "outputs": [
        {
          "components": [
            {
              "internalType": "string",
              "name": "description",
              "type": "string"
            },
            {
              "internalType": "string",
              "name": "location",
              "type": "string"
            },
            {
              "internalType": "uint8",
              "name": "doctype",
              "type": "uint8"
            }
          ],
          "internalType": "struct DataStructs.Document",
          "name": "",
          "type": "tuple"
        }
      ],
      "stateMutability": "view",
      "type": "function",
      "constant": true
    },
    {
      "inputs": [
        {
          "internalType": "uint256",
          "name": "assetId",
          "type": "uint256"
        }
      ],
      "name": "getDataAsset",
      "outputs": [
        {
          "components": [
            {
              "internalType": "string",
              "name": "location",
              "type": "string"
            },
            {
              "internalType": "bool",
              "name": "local",
              "type": "bool"
            }
          ],
          "internalType": "struct DataStructs.Data",
          "name": "",
          "type": "tuple"
        }
      ],
      "stateMutability": "view",
      "type": "function",
      "constant": true
    },
    {
      "inputs": [
        {
          "internalType": "uint256",
          "name": "assetId",
          "type": "uint256"
        }
      ],
      "name": "getNetworkAsset",
      "outputs": [
        {
          "components": [
            {
              "internalType": "string",
              "name": "cidrblock",
              "type": "string"
            },
            {
              "internalType": "bool",
              "name": "nat",
              "type": "bool"
            }
          ],
          "internalType": "struct DataStructs.Network",
          "name": "",
          "type": "tuple"
        }
      ],
      "stateMutability": "view",
      "type": "function",
      "constant": true
    },
    {
      "inputs": [
        {
          "internalType": "uint256",
          "name": "assetId",
          "type": "uint256"
        }
      ],
      "name": "getCloudAsset",
      "outputs": [
        {
          "components": [
            {
              "internalType": "string",
              "name": "url",
              "type": "string"
            },
            {
              "internalType": "string",
              "name": "domain",
              "type": "string"
            }
          ],
          "internalType": "struct DataStructs.Cloud",
          "name": "",
          "type": "tuple"
        }
      ],
      "stateMutability": "view",
      "type": "function",
      "constant": true
    },
    {
      "inputs": [
        {
          "internalType": "uint256",
          "name": "assetId",
          "type": "uint256"
        }
      ],
      "name": "getOtherAsset",
      "outputs": [
        {
          "components": [
            {
              "internalType": "string",
              "name": "description",
              "type": "string"
            }
          ],
          "internalType": "struct DataStructs.Other",
          "name": "",
          "type": "tuple"
        }
      ],
      "stateMutability": "view",
      "type": "function",
      "constant": true
    },
    {
      "inputs": [
        {
          "internalType": "string",
          "name": "version",
          "type": "string"
        },
        {
          "internalType": "string",
          "name": "provider",
          "type": "string"
        },
        {
          "internalType": "uint8",
          "name": "stype",
          "type": "uint8"
        },
        {
          "internalType": "uint256",
          "name": "assetId",
          "type": "uint256"
        }
      ],
      "name": "updateSoftwareAsset",
      "outputs": [],
      "stateMutability": "nonpayable",
      "type": "function"
    },
    {
      "inputs": [
        {
          "internalType": "string",
          "name": "model",
          "type": "string"
        },
        {
          "internalType": "string",
          "name": "provider",
          "type": "string"
        },
        {
          "internalType": "string",
          "name": "serialNumber",
          "type": "string"
        },
        {
          "internalType": "uint8",
          "name": "htype",
          "type": "uint8"
        },
        {
          "internalType": "uint256",
          "name": "assetId",
          "type": "uint256"
        }
      ],
      "name": "updateHardwareAsset",
      "outputs": [],
      "stateMutability": "nonpayable",
      "type": "function"
    },
    {
      "inputs": [
        {
          "internalType": "string",
          "name": "description",
          "type": "string"
        },
        {
          "internalType": "string",
          "name": "location",
          "type": "string"
        },
        {
          "internalType": "uint8",
          "name": "doctype",
          "type": "uint8"
        },
        {
          "internalType": "uint256",
          "name": "assetId",
          "type": "uint256"
        }
      ],
      "name": "updateDocAsset",
      "outputs": [],
      "stateMutability": "nonpayable",
      "type": "function"
    },
    {
      "inputs": [
        {
          "internalType": "string",
          "name": "location",
          "type": "string"
        },
        {
          "internalType": "bool",
          "name": "local",
          "type": "bool"
        },
        {
          "internalType": "uint256",
          "name": "assetId",
          "type": "uint256"
        }
      ],
      "name": "updateDataAsset",
      "outputs": [],
      "stateMutability": "nonpayable",
      "type": "function"
    },
    {
      "inputs": [
        {
          "internalType": "string",
          "name": "cidrblock",
          "type": "string"
        },
        {
          "internalType": "bool",
          "name": "nat",
          "type": "bool"
        },
        {
          "internalType": "uint256",
          "name": "assetId",
          "type": "uint256"
        }
      ],
      "name": "updateNetworkAsset",
      "outputs": [],
      "stateMutability": "nonpayable",
      "type": "function"
    },
    {
      "inputs": [
        {
          "internalType": "string",
          "name": "url",
          "type": "string"
        },
        {
          "internalType": "string",
          "name": "domain",
          "type": "string"
        },
        {
          "internalType": "uint256",
          "name": "assetId",
          "type": "uint256"
        }
      ],
      "name": "updateCloudAsset",
      "outputs": [],
      "stateMutability": "nonpayable",
      "type": "function"
    },
    {
      "inputs": [
        {
          "internalType": "string",
          "name": "description",
          "type": "string"
        },
        {
          "internalType": "uint256",
          "name": "assetId",
          "type": "uint256"
        }
      ],
      "name": "updateOtherAsset",
      "outputs": [],
      "stateMutability": "nonpayable",
      "type": "function"
    },
    {
      "inputs": [
        {
          "internalType": "string",
          "name": "name",
          "type": "string"
        },
        {
          "internalType": "string",
          "name": "key",
          "type": "string"
        },
        {
          "internalType": "uint256",
          "name": "adquireDate",
          "type": "uint256"
        },
        {
          "internalType": "uint256",
          "name": "expirationDate",
          "type": "uint256"
        },
        {
          "internalType": "uint8",
          "name": "licenseType",
          "type": "uint8"
        },
        {
          "internalType": "uint256",
          "name": "assetId",
          "type": "uint256"
        }
      ],
      "name": "insertLicenseToSoft",
      "outputs": [],
      "stateMutability": "nonpayable",
      "type": "function"
    },
    {
      "inputs": [
        {
          "internalType": "uint256",
          "name": "assetId",
          "type": "uint256"
        }
      ],
      "name": "getLicenseByAsset",
      "outputs": [
        {
          "components": [
            {
              "internalType": "string",
              "name": "name",
              "type": "string"
            },
            {
              "internalType": "string",
              "name": "key",
              "type": "string"
            },
            {
              "internalType": "uint256",
              "name": "adquireDate",
              "type": "uint256"
            },
            {
              "internalType": "uint256",
              "name": "expirationDate",
              "type": "uint256"
            },
            {
              "internalType": "uint8",
              "name": "licenseType",
              "type": "uint8"
            }
          ],
          "internalType": "struct DataStructs.License[]",
          "name": "",
          "type": "tuple[]"
        }
      ],
      "stateMutability": "view",
      "type": "function",
      "constant": true
    }
  ],
  "bytecode": "0x608060405234801561001057600080fd5b50612891806100206000396000f3fe608060405234801561001057600080fd5b506004361061014d5760003560e01c8063a0fca66b116100c3578063d00bab361161007c578063d00bab36146103a6578063d84be50a146103c2578063e4c17a37146103de578063fb4b13a5146103fa578063fe90927e14610416578063fff2c0d4146104465761014d565b8063a0fca66b146102d6578063ab2bbb9c14610306578063ae4fd28b14610322578063b31d2e3b1461033e578063bfb8c6a31461035a578063c36fef8b146103765761014d565b80634f320390116101155780634f320390146102065780634f45a92c146102225780636a04a946146102525780637b52bd841461028257806382f2e6411461029e578063869c2081146102ba5761014d565b8063076d7a811461015257806327eeb8251461018257806330da24ed1461019e578063402e25e9146101ba5780634294e77a146101d6575b600080fd5b61016c60048036038101906101679190611ca7565b610476565b6040516101799190611dfa565b60405180910390f35b61019c60048036038101906101979190611f89565b61069e565b005b6101b860048036038101906101b39190611f89565b610718565b005b6101d460048036038101906101cf9190611ff8565b610792565b005b6101f060048036038101906101eb9190611ca7565b610809565b6040516101fd91906120da565b60405180910390f35b610220600480360381019061021b9190612128565b61099f565b005b61023c60048036038101906102379190611ca7565b610ab8565b604051610249919061233b565b60405180910390f35b61026c60048036038101906102679190611ca7565b610d5d565b60405161027991906123a9565b60405180910390f35b61029c600480360381019061029791906123cb565b610e5f565b005b6102b860048036038101906102b3919061249a565b610f0e565b005b6102d460048036038101906102cf919061249a565b610fe3565b005b6102f060048036038101906102eb9190611ca7565b6110b8565b6040516102fd9190612563565b60405180910390f35b610320600480360381019061031b919061249a565b61119b565b005b61033c60048036038101906103379190611ff8565b61122f565b005b610358600480360381019061035391906123cb565b6112d9565b005b610374600480360381019061036f9190612585565b6113d1565b005b610390600480360381019061038b9190611ca7565b61142a565b60405161039d9190612638565b60405180910390f35b6103c060048036038101906103bb9190612585565b6115c0565b005b6103dc60048036038101906103d79190611f89565b611642565b005b6103f860048036038101906103f39190611f89565b6116f1565b005b610414600480360381019061040f919061249a565b6117a0565b005b610430600480360381019061042b9190611ca7565b611835565b60405161043d9190612697565b60405180910390f35b610460600480360381019061045b9190611ca7565b611937565b60405161046d91906126fd565b60405180910390f35b61047e611ab0565b600060086000848152602001908152602001600020549050600181815481106104aa576104a961271f565b5b90600052602060002090600402016040518060800160405290816000820180546104d39061277d565b80601f01602080910402602001604051908101604052809291908181526020018280546104ff9061277d565b801561054c5780601f106105215761010080835404028352916020019161054c565b820191906000526020600020905b81548152906001019060200180831161052f57829003601f168201915b505050505081526020016001820180546105659061277d565b80601f01602080910402602001604051908101604052809291908181526020018280546105919061277d565b80156105de5780601f106105b3576101008083540402835291602001916105de565b820191906000526020600020905b8154815290600101906020018083116105c157829003601f168201915b505050505081526020016002820180546105f79061277d565b80601f01602080910402602001604051908101604052809291908181526020018280546106239061277d565b80156106705780601f1061064557610100808354040283529160200191610670565b820191906000526020600020905b81548152906001019060200180831161065357829003601f168201915b505050505081526020016003820160009054906101000a900460ff1660ff1660ff1681525050915050919050565b6000600b60008381526020019081526020016000205490506000600482815481106106cc576106cb61271f565b5b90600052602060002090600202019050848160000190805190602001906106f4929190611adb565b50838160010160006101000a81548160ff0219169083151502179055505050505050565b6000600a60008381526020019081526020016000205490506000600382815481106107465761074561271f565b5b906000526020600020906002020190508481600001908051906020019061076e929190611adb565b50838160010160006101000a81548160ff0219169083151502179055505050505050565b6000600c60008381526020019081526020016000205490506000600582815481106107c0576107bf61271f565b5b90600052602060002090600202019050848160000190805190602001906107e8929190611adb565b5083816001019080519060200190610801929190611adb565b505050505050565b610811611b61565b6000600960008481526020019081526020016000205490506002818154811061083d5761083c61271f565b5b90600052602060002090600302016040518060600160405290816000820180546108669061277d565b80601f01602080910402602001604051908101604052809291908181526020018280546108929061277d565b80156108df5780601f106108b4576101008083540402835291602001916108df565b820191906000526020600020905b8154815290600101906020018083116108c257829003601f168201915b505050505081526020016001820180546108f89061277d565b80601f01602080910402602001604051908101604052809291908181526020018280546109249061277d565b80156109715780601f1061094657610100808354040283529160200191610971565b820191906000526020600020905b81548152906001019060200180831161095457829003601f168201915b505050505081526020016002820160009054906101000a900460ff1660ff1660ff1681525050915050919050565b600e6040518060a001604052808881526020018781526020018681526020018581526020018460ff1681525090806001815401808255809150506001900390600052602060002090600502016000909190919091506000820151816000019080519060200190610a10929190611adb565b506020820151816001019080519060200190610a2d929190611adb565b50604082015181600201556060820151816003015560808201518160040160006101000a81548160ff021916908360ff1602179055505050600f60008281526020019081526020016000206001600e80549050610a8a91906127de565b9080600181540180825580915050600190039060005260206000200160009091909190915055505050505050565b60606000600f6000848152602001908152602001600020805480602002602001604051908101604052809291908181526020018280548015610b1957602002820191906000526020600020905b815481526020019060010190808311610b05575b505050505090506000815167ffffffffffffffff811115610b3d57610b3c611e26565b5b604051908082528060200260200182016040528015610b7657816020015b610b63611b85565b815260200190600190039081610b5b5790505b50905060005b8251811015610d5257600e838281518110610b9a57610b9961271f565b5b602002602001015181548110610bb357610bb261271f565b5b90600052602060002090600502016040518060a0016040529081600082018054610bdc9061277d565b80601f0160208091040260200160405190810160405280929190818152602001828054610c089061277d565b8015610c555780601f10610c2a57610100808354040283529160200191610c55565b820191906000526020600020905b815481529060010190602001808311610c3857829003601f168201915b50505050508152602001600182018054610c6e9061277d565b80601f0160208091040260200160405190810160405280929190818152602001828054610c9a9061277d565b8015610ce75780601f10610cbc57610100808354040283529160200191610ce7565b820191906000526020600020905b815481529060010190602001808311610cca57829003601f168201915b5050505050815260200160028201548152602001600382015481526020016004820160009054906101000a900460ff1660ff1660ff1681525050828281518110610d3457610d3361271f565b5b60200260200101819052508080610d4a90612812565b915050610b7c565b508092505050919050565b610d65611bb7565b6000600b600084815260200190815260200160002054905060048181548110610d9157610d9061271f565b5b9060005260206000209060020201604051806040016040529081600082018054610dba9061277d565b80601f0160208091040260200160405190810160405280929190818152602001828054610de69061277d565b8015610e335780601f10610e0857610100808354040283529160200191610e33565b820191906000526020600020905b815481529060010190602001808311610e1657829003601f168201915b505050505081526020016001820160009054906101000a900460ff161515151581525050915050919050565b600060086000838152602001908152602001600020549050600060018281548110610e8d57610e8c61271f565b5b9060005260206000209060040201905086816000019080519060200190610eb5929190611adb565b5085816001019080519060200190610ece929190611adb565b5084816002019080519060200190610ee7929190611adb565b50838160030160006101000a81548160ff021916908360ff16021790555050505050505050565b600260405180606001604052808681526020018581526020018460ff1681525090806001815401808255809150506001900390600052602060002090600302016000909190919091506000820151816000019080519060200190610f73929190611adb565b506020820151816001019080519060200190610f90929190611adb565b5060408201518160020160006101000a81548160ff021916908360ff16021790555050506001600280549050610fc691906127de565b600960008381526020019081526020016000208190555050505050565b600060405180606001604052808681526020018581526020018460ff1681525090806001815401808255809150506001900390600052602060002090600302016000909190919091506000820151816000019080519060200190611048929190611adb565b506020820151816001019080519060200190611065929190611adb565b5060408201518160020160006101000a81548160ff021916908360ff1602179055505050600160008054905061109b91906127de565b600760008381526020019081526020016000208190555050505050565b6110c0611bd3565b6000600d6000848152602001908152602001600020549050600681815481106110ec576110eb61271f565b5b906000526020600020016040518060200160405290816000820180546111119061277d565b80601f016020809104026020016040519081016040528092919081815260200182805461113d9061277d565b801561118a5780601f1061115f5761010080835404028352916020019161118a565b820191906000526020600020905b81548152906001019060200180831161116d57829003601f168201915b505050505081525050915050919050565b60006007600083815260200190815260200160002054905060008082815481106111c8576111c761271f565b5b90600052602060002090600302019050858160000190805190602001906111f0929190611adb565b5084816001019080519060200190611209929190611adb565b50838160020160006101000a81548160ff021916908360ff160217905550505050505050565b60056040518060400160405280858152602001848152509080600181540180825580915050600190039060005260206000209060020201600090919091909150600082015181600001908051906020019061128b929190611adb565b5060208201518160010190805190602001906112a8929190611adb565b50505060016005805490506112bd91906127de565b600c600083815260200190815260200160002081905550505050565b600160405180608001604052808781526020018681526020018581526020018460ff1681525090806001815401808255809150506001900390600052602060002090600402016000909190919091506000820151816000019080519060200190611344929190611adb565b506020820151816001019080519060200190611361929190611adb565b50604082015181600201908051906020019061137e929190611adb565b5060608201518160030160006101000a81548160ff021916908360ff1602179055505050600180805490506113b391906127de565b60086000838152602001908152602001600020819055505050505050565b6000600d60008381526020019081526020016000205490506000600682815481106113ff576113fe61271f565b5b90600052602060002001905083816000019080519060200190611423929190611adb565b5050505050565b611432611be6565b6000600760008481526020019081526020016000205490506000818154811061145e5761145d61271f565b5b90600052602060002090600302016040518060600160405290816000820180546114879061277d565b80601f01602080910402602001604051908101604052809291908181526020018280546114b39061277d565b80156115005780601f106114d557610100808354040283529160200191611500565b820191906000526020600020905b8154815290600101906020018083116114e357829003601f168201915b505050505081526020016001820180546115199061277d565b80601f01602080910402602001604051908101604052809291908181526020018280546115459061277d565b80156115925780601f1061156757610100808354040283529160200191611592565b820191906000526020600020905b81548152906001019060200180831161157557829003601f168201915b505050505081526020016002820160009054906101000a900460ff1660ff1660ff1681525050915050919050565b6006604051806020016040528084815250908060018154018082558091505060019003906000526020600020016000909190919091506000820151816000019080519060200190611612929190611adb565b505050600160068054905061162791906127de565b600d6000838152602001908152602001600020819055505050565b60046040518060400160405280858152602001841515815250908060018154018082558091505060019003906000526020600020906002020160009091909190915060008201518160000190805190602001906116a0929190611adb565b5060208201518160010160006101000a81548160ff021916908315150217905550505060016004805490506116d591906127de565b600b600083815260200190815260200160002081905550505050565b600360405180604001604052808581526020018415158152509080600181540180825580915050600190039060005260206000209060020201600090919091909150600082015181600001908051906020019061174f929190611adb565b5060208201518160010160006101000a81548160ff0219169083151502179055505050600160038054905061178491906127de565b600a600083815260200190815260200160002081905550505050565b6000600960008381526020019081526020016000205490506000600282815481106117ce576117cd61271f565b5b90600052602060002090600302019050858160000190805190602001906117f6929190611adb565b508481600101908051906020019061180f929190611adb565b50838160020160006101000a81548160ff021916908360ff160217905550505050505050565b61183d611c0a565b6000600a6000848152602001908152602001600020549050600381815481106118695761186861271f565b5b90600052602060002090600202016040518060400160405290816000820180546118929061277d565b80601f01602080910402602001604051908101604052809291908181526020018280546118be9061277d565b801561190b5780601f106118e05761010080835404028352916020019161190b565b820191906000526020600020905b8154815290600101906020018083116118ee57829003601f168201915b505050505081526020016001820160009054906101000a900460ff161515151581525050915050919050565b61193f611c26565b6000600c60008481526020019081526020016000205490506005818154811061196b5761196a61271f565b5b90600052602060002090600202016040518060400160405290816000820180546119949061277d565b80601f01602080910402602001604051908101604052809291908181526020018280546119c09061277d565b8015611a0d5780601f106119e257610100808354040283529160200191611a0d565b820191906000526020600020905b8154815290600101906020018083116119f057829003601f168201915b50505050508152602001600182018054611a269061277d565b80601f0160208091040260200160405190810160405280929190818152602001828054611a529061277d565b8015611a9f5780601f10611a7457610100808354040283529160200191611a9f565b820191906000526020600020905b815481529060010190602001808311611a8257829003601f168201915b505050505081525050915050919050565b6040518060800160405280606081526020016060815260200160608152602001600060ff1681525090565b828054611ae79061277d565b90600052602060002090601f016020900481019282611b095760008555611b50565b82601f10611b2257805160ff1916838001178555611b50565b82800160010185558215611b50579182015b82811115611b4f578251825591602001919060010190611b34565b5b509050611b5d9190611c40565b5090565b60405180606001604052806060815260200160608152602001600060ff1681525090565b6040518060a0016040528060608152602001606081526020016000815260200160008152602001600060ff1681525090565b6040518060400160405280606081526020016000151581525090565b6040518060200160405280606081525090565b60405180606001604052806060815260200160608152602001600060ff1681525090565b6040518060400160405280606081526020016000151581525090565b604051806040016040528060608152602001606081525090565b5b80821115611c59576000816000905550600101611c41565b5090565b6000604051905090565b600080fd5b600080fd5b6000819050919050565b611c8481611c71565b8114611c8f57600080fd5b50565b600081359050611ca181611c7b565b92915050565b600060208284031215611cbd57611cbc611c67565b5b6000611ccb84828501611c92565b91505092915050565b600081519050919050565b600082825260208201905092915050565b60005b83811015611d0e578082015181840152602081019050611cf3565b83811115611d1d576000848401525b50505050565b6000601f19601f8301169050919050565b6000611d3f82611cd4565b611d498185611cdf565b9350611d59818560208601611cf0565b611d6281611d23565b840191505092915050565b600060ff82169050919050565b611d8381611d6d565b82525050565b60006080830160008301518482036000860152611da68282611d34565b91505060208301518482036020860152611dc08282611d34565b91505060408301518482036040860152611dda8282611d34565b9150506060830151611def6060860182611d7a565b508091505092915050565b60006020820190508181036000830152611e148184611d89565b905092915050565b600080fd5b600080fd5b7f4e487b7100000000000000000000000000000000000000000000000000000000600052604160045260246000fd5b611e5e82611d23565b810181811067ffffffffffffffff82111715611e7d57611e7c611e26565b5b80604052505050565b6000611e90611c5d565b9050611e9c8282611e55565b919050565b600067ffffffffffffffff821115611ebc57611ebb611e26565b5b611ec582611d23565b9050602081019050919050565b82818337600083830152505050565b6000611ef4611eef84611ea1565b611e86565b905082815260208101848484011115611f1057611f0f611e21565b5b611f1b848285611ed2565b509392505050565b600082601f830112611f3857611f37611e1c565b5b8135611f48848260208601611ee1565b91505092915050565b60008115159050919050565b611f6681611f51565b8114611f7157600080fd5b50565b600081359050611f8381611f5d565b92915050565b600080600060608486031215611fa257611fa1611c67565b5b600084013567ffffffffffffffff811115611fc057611fbf611c6c565b5b611fcc86828701611f23565b9350506020611fdd86828701611f74565b9250506040611fee86828701611c92565b9150509250925092565b60008060006060848603121561201157612010611c67565b5b600084013567ffffffffffffffff81111561202f5761202e611c6c565b5b61203b86828701611f23565b935050602084013567ffffffffffffffff81111561205c5761205b611c6c565b5b61206886828701611f23565b925050604061207986828701611c92565b9150509250925092565b600060608301600083015184820360008601526120a08282611d34565b915050602083015184820360208601526120ba8282611d34565b91505060408301516120cf6040860182611d7a565b508091505092915050565b600060208201905081810360008301526120f48184612083565b905092915050565b61210581611d6d565b811461211057600080fd5b50565b600081359050612122816120fc565b92915050565b60008060008060008060c0878903121561214557612144611c67565b5b600087013567ffffffffffffffff81111561216357612162611c6c565b5b61216f89828a01611f23565b965050602087013567ffffffffffffffff8111156121905761218f611c6c565b5b61219c89828a01611f23565b95505060406121ad89828a01611c92565b94505060606121be89828a01611c92565b93505060806121cf89828a01612113565b92505060a06121e089828a01611c92565b9150509295509295509295565b600081519050919050565b600082825260208201905092915050565b6000819050602082019050919050565b61222281611c71565b82525050565b600060a08301600083015184820360008601526122458282611d34565b9150506020830151848203602086015261225f8282611d34565b91505060408301516122746040860182612219565b5060608301516122876060860182612219565b50608083015161229a6080860182611d7a565b508091505092915050565b60006122b18383612228565b905092915050565b6000602082019050919050565b60006122d1826121ed565b6122db81856121f8565b9350836020820285016122ed85612209565b8060005b85811015612329578484038952815161230a85826122a5565b9450612315836122b9565b925060208a019950506001810190506122f1565b50829750879550505050505092915050565b6000602082019050818103600083015261235581846122c6565b905092915050565b61236681611f51565b82525050565b600060408301600083015184820360008601526123898282611d34565b915050602083015161239e602086018261235d565b508091505092915050565b600060208201905081810360008301526123c3818461236c565b905092915050565b600080600080600060a086880312156123e7576123e6611c67565b5b600086013567ffffffffffffffff81111561240557612404611c6c565b5b61241188828901611f23565b955050602086013567ffffffffffffffff81111561243257612431611c6c565b5b61243e88828901611f23565b945050604086013567ffffffffffffffff81111561245f5761245e611c6c565b5b61246b88828901611f23565b935050606061247c88828901612113565b925050608061248d88828901611c92565b9150509295509295909350565b600080600080608085870312156124b4576124b3611c67565b5b600085013567ffffffffffffffff8111156124d2576124d1611c6c565b5b6124de87828801611f23565b945050602085013567ffffffffffffffff8111156124ff576124fe611c6c565b5b61250b87828801611f23565b935050604061251c87828801612113565b925050606061252d87828801611c92565b91505092959194509250565b600060208301600083015184820360008601526125568282611d34565b9150508091505092915050565b6000602082019050818103600083015261257d8184612539565b905092915050565b6000806040838503121561259c5761259b611c67565b5b600083013567ffffffffffffffff8111156125ba576125b9611c6c565b5b6125c685828601611f23565b92505060206125d785828601611c92565b9150509250929050565b600060608301600083015184820360008601526125fe8282611d34565b915050602083015184820360208601526126188282611d34565b915050604083015161262d6040860182611d7a565b508091505092915050565b6000602082019050818103600083015261265281846125e1565b905092915050565b600060408301600083015184820360008601526126778282611d34565b915050602083015161268c602086018261235d565b508091505092915050565b600060208201905081810360008301526126b1818461265a565b905092915050565b600060408301600083015184820360008601526126d68282611d34565b915050602083015184820360208601526126f08282611d34565b9150508091505092915050565b6000602082019050818103600083015261271781846126b9565b905092915050565b7f4e487b7100000000000000000000000000000000000000000000000000000000600052603260045260246000fd5b7f4e487b7100000000000000000000000000000000000000000000000000000000600052602260045260246000fd5b6000600282049050600182168061279557607f821691505b602082108114156127a9576127a861274e565b5b50919050565b7f4e487b7100000000000000000000000000000000000000000000000000000000600052601160045260246000fd5b60006127e982611c71565b91506127f483611c71565b925082821015612807576128066127af565b5b828203905092915050565b600061281d82611c71565b91507fffffffffffffffffffffffffffffffffffffffffffffffffffffffffffffffff8214156128505761284f6127af565b5b60018201905091905056fea26469706673582212203143300e0e9cb5efca199fa20095f5590f9a668accc544e878e774ff4c88c98464736f6c634300080c0033",
  "immutableReferences": {},
  "source": "// SPDX-License-Identifier: MIT\r\npragma solidity >=0.7.0 <0.9.10;\r\nimport './Main.sol';\r\n\r\n\r\n\r\ncontract DataStructs {\r\n    //Create a struct for each type with its own data\r\n\r\n    struct Software {\r\n        string version;\r\n        string provider;\r\n        uint8 stype;\r\n    }\r\n    \r\n\r\n    struct Hardware {\r\n        string model;\r\n        string provider;\r\n        string serialNumber;\r\n        uint8 htype;\r\n    }\r\n    \r\n    struct Document {\r\n        string description;\r\n        string location;\r\n        uint8 doctype;\r\n    }\r\n\r\n    struct Data {\r\n        string location;\r\n        bool local;\r\n    }\r\n\r\n    struct Network {\r\n        string cidrblock;\r\n        bool nat;\r\n    }\r\n\r\n    struct Cloud {\r\n        string url;\r\n        string domain;\r\n    }\r\n\r\n    struct Other {\r\n        string description;\r\n    }\r\n\r\n    Software[] private softwareList;\r\n    Hardware[] private hardwareList;\r\n    Document[] private documentList;\r\n    Data[] private dataList;\r\n    Network[] private networkList;\r\n    Cloud[] private cloudList;\r\n    Other[] private otherList;\r\n    \r\n    mapping(uint => uint256) assetSoftware;\r\n\r\n    //TODO\r\n    //Mapping for software & license relation;\r\n    //mapping(uint => uint[]) softAssetToLicense;\r\n\r\n    mapping(uint => uint256) assetHardware;\r\n    mapping(uint => uint256) assetDocument;\r\n    mapping(uint => uint256) assetData;\r\n    mapping(uint => uint256) assetNetwork;\r\n    mapping(uint => uint256) assetCloud;\r\n    mapping(uint => uint256) assetOther;\r\n\r\n\r\n\r\n    function insertSoftware(string memory version, string memory provider, uint8 stype, uint assetId) public {\r\n        softwareList.push(Software(version, provider, stype));\r\n        assetSoftware[assetId] = (softwareList.length-1);\r\n    }\r\n\r\n    function insertHardware(string memory model, string memory provider, string memory serialNumber, uint8 htype, uint assetId) public {\r\n        hardwareList.push(Hardware(model, provider, serialNumber, htype));\r\n        assetHardware[assetId] = (hardwareList.length-1);\r\n\r\n    }\r\n\r\n    function insertDocument(string memory description, string memory location, uint8 doctype, uint assetId) public {\r\n        documentList.push(Document(description, location, doctype));\r\n        assetDocument[assetId] = (documentList.length-1);\r\n\r\n    }\r\n\r\n    function insertData(string memory location, bool local, uint assetId) public {\r\n            dataList.push(Data(location, local));\r\n            assetData[assetId] = (dataList.length-1);\r\n    }\r\n\r\n    function insertNetwork(string memory cidrblock, bool nat, uint assetId) public {\r\n        networkList.push(Network(cidrblock, nat));\r\n        assetNetwork[assetId] = (networkList.length-1);\r\n    }\r\n\r\n    function insertCloud(string memory url, string memory domain, uint assetId) public {\r\n        cloudList.push(Cloud(url, domain));\r\n        assetCloud[assetId] = (cloudList.length-1);\r\n    }\r\n\r\n    function insertOther(string memory description, uint assetId) public {\r\n        otherList.push(Other(description));\r\n        assetOther[assetId] = (otherList.length-1);\r\n    }\r\n\r\n    //GETTERS\r\n    function getSoftwareAsset(uint assetId) public view returns(Software memory){\r\n        uint softId = assetSoftware[assetId];\r\n        return softwareList[softId];\r\n    }\r\n\r\n    function getHardwareAsset(uint assetId) public view returns(Hardware memory){\r\n        uint hardId = assetHardware[assetId];\r\n        return hardwareList[hardId];\r\n    }\r\n\r\n    function getDocAsset(uint assetId) public view returns(Document memory){\r\n        uint docId = assetDocument[assetId];\r\n        return documentList[docId];\r\n    }\r\n\r\n    function getDataAsset(uint assetId) public view returns(Data memory){\r\n        uint dataId = assetData[assetId];\r\n        return dataList[dataId];\r\n    }\r\n\r\n    function getNetworkAsset(uint assetId) public view returns(Network memory){\r\n        uint networkId = assetNetwork[assetId];\r\n        return networkList[networkId];\r\n    }\r\n\r\n    function getCloudAsset(uint assetId) public view returns(Cloud memory){\r\n        uint cloudId = assetCloud[assetId];\r\n        return cloudList[cloudId];\r\n    }\r\n\r\n    function getOtherAsset(uint assetId) public view returns(Other memory){\r\n        uint otherId = assetOther[assetId];\r\n        return otherList[otherId];\r\n    }\r\n\r\n\r\n    //Function to update a specific asset\r\n    function updateSoftwareAsset(string memory version, string memory provider, uint8 stype, uint assetId) public {\r\n        uint softId = assetSoftware[assetId];\r\n        Software storage _software = softwareList[softId];\r\n        _software.version = version;\r\n        _software.provider = provider;\r\n        _software.stype = stype;\r\n    }\r\n\r\n    function updateHardwareAsset(string memory model, string memory provider, string memory serialNumber, uint8 htype, uint assetId) public {\r\n        uint hardId = assetHardware[assetId];\r\n        Hardware storage _hardware = hardwareList[hardId];\r\n        _hardware.model = model;\r\n        _hardware.provider = provider;\r\n        _hardware.serialNumber = serialNumber;\r\n        _hardware.htype = htype;       \r\n    }\r\n\r\n    function updateDocAsset(string memory description, string memory location, uint8 doctype, uint assetId) public{\r\n        uint docId = assetDocument[assetId];\r\n        Document storage _document = documentList[docId];\r\n        _document.description = description;\r\n        _document.location = location;\r\n        _document.doctype = doctype;\r\n    }\r\n\r\n    function updateDataAsset(string memory location, bool local, uint assetId) public{\r\n        uint dataId = assetData[assetId];\r\n        Data storage _data = dataList[dataId];\r\n        _data.location = location;\r\n        _data.local = local;\r\n    }\r\n\r\n    function updateNetworkAsset(string memory cidrblock, bool nat, uint assetId) public{\r\n        uint networkId = assetNetwork[assetId];\r\n        Network storage _network = networkList[networkId];\r\n        _network.cidrblock = cidrblock;\r\n        _network.nat = nat;\r\n    }\r\n\r\n    function updateCloudAsset(string memory url, string memory domain , uint assetId) public{\r\n        uint cloduId = assetCloud[assetId];\r\n        Cloud storage _cloud = cloudList[cloduId];\r\n        _cloud.url = url;\r\n        _cloud.domain = domain;\r\n    }\r\n\r\n    function updateOtherAsset(string memory description, uint assetId) public{\r\n        uint otherId = assetOther[assetId];\r\n        Other storage _other = otherList[otherId];\r\n        _other.description = description;\r\n    }\r\n\r\n\r\n    struct License {\r\n        string name;\r\n        string key;\r\n        uint adquireDate;\r\n        uint expirationDate;\r\n        uint8 licenseType;\r\n    }\r\n\r\n    License[] licenseList;\r\n    mapping(uint => uint[]) softAssetToLicense;\r\n\r\n    function insertLicenseToSoft(string memory name,\r\n        string memory key,\r\n        uint adquireDate,\r\n        uint expirationDate,\r\n        uint8 licenseType,\r\n        uint assetId) public {\r\n        licenseList.push(License(name, key, adquireDate, expirationDate, licenseType));\r\n        softAssetToLicense[assetId].push(licenseList.length-1);\r\n    }\r\n\r\n    function getLicenseByAsset(uint assetId) public view returns(License[] memory) {\r\n        uint[] memory ids = softAssetToLicense[assetId];\r\n        License[] memory container = new License[](ids.length);\r\n        for (uint256 i = 0; i < ids.length; i++) {\r\n            container[i] = licenseList[ids[i]];\r\n        }\r\n        return container;\r\n    }\r\n}",
  "sourcePath": "D:\\GIT\\inventory-blockchain\\blockchain\\contracts\\DataStruct.sol",
  "compiler": {
    "name": "solc",
    "version": "0.8.12+commit.f00d7308.Emscripten.clang"
  },
  "schemaVersion": "3.4.6",
  "updatedAt": "2022-05-15T16:20:56.228Z",
  "networkType": "ethereum",
  "devdoc": {
    "kind": "dev",
    "methods": {},
    "version": 1
  },
  "userdoc": {
    "kind": "user",
    "methods": {},
    "version": 1
  }
}