{
  "contractName": "DataStructs",
  "abi": [
    {
      "inputs": [
        {
          "internalType": "string",
          "name": "version",
          "type": "string"
        },
        {
          "internalType": "string",
          "name": "provider",
          "type": "string"
        },
        {
          "internalType": "uint8",
          "name": "stype",
          "type": "uint8"
        },
        {
          "internalType": "uint256",
          "name": "assetId",
          "type": "uint256"
        }
      ],
      "name": "insertSoftware",
      "outputs": [],
      "stateMutability": "nonpayable",
      "type": "function"
    },
    {
      "inputs": [
        {
          "internalType": "string",
          "name": "model",
          "type": "string"
        },
        {
          "internalType": "string",
          "name": "provider",
          "type": "string"
        },
        {
          "internalType": "string",
          "name": "serialNumber",
          "type": "string"
        },
        {
          "internalType": "uint8",
          "name": "htype",
          "type": "uint8"
        },
        {
          "internalType": "uint256",
          "name": "assetId",
          "type": "uint256"
        }
      ],
      "name": "insertHardware",
      "outputs": [],
      "stateMutability": "nonpayable",
      "type": "function"
    },
    {
      "inputs": [
        {
          "internalType": "string",
          "name": "description",
          "type": "string"
        },
        {
          "internalType": "string",
          "name": "location",
          "type": "string"
        },
        {
          "internalType": "uint8",
          "name": "doctype",
          "type": "uint8"
        },
        {
          "internalType": "uint256",
          "name": "assetId",
          "type": "uint256"
        }
      ],
      "name": "insertDocument",
      "outputs": [],
      "stateMutability": "nonpayable",
      "type": "function"
    },
    {
      "inputs": [
        {
          "internalType": "string",
          "name": "location",
          "type": "string"
        },
        {
          "internalType": "bool",
          "name": "local",
          "type": "bool"
        },
        {
          "internalType": "uint256",
          "name": "assetId",
          "type": "uint256"
        }
      ],
      "name": "insertData",
      "outputs": [],
      "stateMutability": "nonpayable",
      "type": "function"
    },
    {
      "inputs": [
        {
          "internalType": "string",
          "name": "cidrblock",
          "type": "string"
        },
        {
          "internalType": "bool",
          "name": "nat",
          "type": "bool"
        },
        {
          "internalType": "uint256",
          "name": "assetId",
          "type": "uint256"
        }
      ],
      "name": "insertNetwork",
      "outputs": [],
      "stateMutability": "nonpayable",
      "type": "function"
    },
    {
      "inputs": [
        {
          "internalType": "string",
          "name": "url",
          "type": "string"
        },
        {
          "internalType": "string",
          "name": "domain",
          "type": "string"
        },
        {
          "internalType": "uint256",
          "name": "assetId",
          "type": "uint256"
        }
      ],
      "name": "insertCloud",
      "outputs": [],
      "stateMutability": "nonpayable",
      "type": "function"
    },
    {
      "inputs": [
        {
          "internalType": "string",
          "name": "description",
          "type": "string"
        },
        {
          "internalType": "uint256",
          "name": "assetId",
          "type": "uint256"
        }
      ],
      "name": "insertOther",
      "outputs": [],
      "stateMutability": "nonpayable",
      "type": "function"
    },
    {
      "inputs": [
        {
          "internalType": "uint256",
          "name": "assetId",
          "type": "uint256"
        }
      ],
      "name": "getSoftwareAsset",
      "outputs": [
        {
          "components": [
            {
              "internalType": "string",
              "name": "version",
              "type": "string"
            },
            {
              "internalType": "string",
              "name": "provider",
              "type": "string"
            },
            {
              "internalType": "uint8",
              "name": "stype",
              "type": "uint8"
            }
          ],
          "internalType": "struct DataStructs.Software",
          "name": "",
          "type": "tuple"
        }
      ],
      "stateMutability": "view",
      "type": "function",
      "constant": true
    },
    {
      "inputs": [
        {
          "internalType": "uint256",
          "name": "assetId",
          "type": "uint256"
        }
      ],
      "name": "getHardwareAsset",
      "outputs": [
        {
          "components": [
            {
              "internalType": "string",
              "name": "model",
              "type": "string"
            },
            {
              "internalType": "string",
              "name": "provider",
              "type": "string"
            },
            {
              "internalType": "string",
              "name": "serialNumber",
              "type": "string"
            },
            {
              "internalType": "uint8",
              "name": "htype",
              "type": "uint8"
            }
          ],
          "internalType": "struct DataStructs.Hardware",
          "name": "",
          "type": "tuple"
        }
      ],
      "stateMutability": "view",
      "type": "function",
      "constant": true
    },
    {
      "inputs": [
        {
          "internalType": "uint256",
          "name": "assetId",
          "type": "uint256"
        }
      ],
      "name": "getDocAsset",
      "outputs": [
        {
          "components": [
            {
              "internalType": "string",
              "name": "description",
              "type": "string"
            },
            {
              "internalType": "string",
              "name": "location",
              "type": "string"
            },
            {
              "internalType": "uint8",
              "name": "doctype",
              "type": "uint8"
            }
          ],
          "internalType": "struct DataStructs.Document",
          "name": "",
          "type": "tuple"
        }
      ],
      "stateMutability": "view",
      "type": "function",
      "constant": true
    },
    {
      "inputs": [
        {
          "internalType": "uint256",
          "name": "assetId",
          "type": "uint256"
        }
      ],
      "name": "getDataAsset",
      "outputs": [
        {
          "components": [
            {
              "internalType": "string",
              "name": "location",
              "type": "string"
            },
            {
              "internalType": "bool",
              "name": "local",
              "type": "bool"
            }
          ],
          "internalType": "struct DataStructs.Data",
          "name": "",
          "type": "tuple"
        }
      ],
      "stateMutability": "view",
      "type": "function",
      "constant": true
    },
    {
      "inputs": [
        {
          "internalType": "uint256",
          "name": "assetId",
          "type": "uint256"
        }
      ],
      "name": "getNetworkAsset",
      "outputs": [
        {
          "components": [
            {
              "internalType": "string",
              "name": "cidrblock",
              "type": "string"
            },
            {
              "internalType": "bool",
              "name": "nat",
              "type": "bool"
            }
          ],
          "internalType": "struct DataStructs.Network",
          "name": "",
          "type": "tuple"
        }
      ],
      "stateMutability": "view",
      "type": "function",
      "constant": true
    },
    {
      "inputs": [
        {
          "internalType": "uint256",
          "name": "assetId",
          "type": "uint256"
        }
      ],
      "name": "getCloudAsset",
      "outputs": [
        {
          "components": [
            {
              "internalType": "string",
              "name": "url",
              "type": "string"
            },
            {
              "internalType": "string",
              "name": "domain",
              "type": "string"
            }
          ],
          "internalType": "struct DataStructs.Cloud",
          "name": "",
          "type": "tuple"
        }
      ],
      "stateMutability": "view",
      "type": "function",
      "constant": true
    },
    {
      "inputs": [
        {
          "internalType": "uint256",
          "name": "assetId",
          "type": "uint256"
        }
      ],
      "name": "getOtherAsset",
      "outputs": [
        {
          "components": [
            {
              "internalType": "string",
              "name": "description",
              "type": "string"
            }
          ],
          "internalType": "struct DataStructs.Other",
          "name": "",
          "type": "tuple"
        }
      ],
      "stateMutability": "view",
      "type": "function",
      "constant": true
    },
    {
      "inputs": [
        {
          "internalType": "string",
          "name": "version",
          "type": "string"
        },
        {
          "internalType": "string",
          "name": "provider",
          "type": "string"
        },
        {
          "internalType": "uint8",
          "name": "stype",
          "type": "uint8"
        },
        {
          "internalType": "uint256",
          "name": "assetId",
          "type": "uint256"
        }
      ],
      "name": "updateSoftwareAsset",
      "outputs": [],
      "stateMutability": "nonpayable",
      "type": "function"
    },
    {
      "inputs": [
        {
          "internalType": "string",
          "name": "model",
          "type": "string"
        },
        {
          "internalType": "string",
          "name": "provider",
          "type": "string"
        },
        {
          "internalType": "string",
          "name": "serialNumber",
          "type": "string"
        },
        {
          "internalType": "uint8",
          "name": "htype",
          "type": "uint8"
        },
        {
          "internalType": "uint256",
          "name": "assetId",
          "type": "uint256"
        }
      ],
      "name": "updateHardwareAsset",
      "outputs": [],
      "stateMutability": "nonpayable",
      "type": "function"
    },
    {
      "inputs": [
        {
          "internalType": "string",
          "name": "description",
          "type": "string"
        },
        {
          "internalType": "string",
          "name": "location",
          "type": "string"
        },
        {
          "internalType": "uint8",
          "name": "doctype",
          "type": "uint8"
        },
        {
          "internalType": "uint256",
          "name": "assetId",
          "type": "uint256"
        }
      ],
      "name": "updateDocAsset",
      "outputs": [],
      "stateMutability": "nonpayable",
      "type": "function"
    },
    {
      "inputs": [
        {
          "internalType": "string",
          "name": "location",
          "type": "string"
        },
        {
          "internalType": "bool",
          "name": "local",
          "type": "bool"
        },
        {
          "internalType": "uint256",
          "name": "assetId",
          "type": "uint256"
        }
      ],
      "name": "updateDataAsset",
      "outputs": [],
      "stateMutability": "nonpayable",
      "type": "function"
    },
    {
      "inputs": [
        {
          "internalType": "string",
          "name": "cidrblock",
          "type": "string"
        },
        {
          "internalType": "bool",
          "name": "nat",
          "type": "bool"
        },
        {
          "internalType": "uint256",
          "name": "assetId",
          "type": "uint256"
        }
      ],
      "name": "updateNetworkAsset",
      "outputs": [],
      "stateMutability": "nonpayable",
      "type": "function"
    },
    {
      "inputs": [
        {
          "internalType": "string",
          "name": "url",
          "type": "string"
        },
        {
          "internalType": "string",
          "name": "domain",
          "type": "string"
        },
        {
          "internalType": "uint256",
          "name": "assetId",
          "type": "uint256"
        }
      ],
      "name": "updateCloudAsset",
      "outputs": [],
      "stateMutability": "nonpayable",
      "type": "function"
    },
    {
      "inputs": [
        {
          "internalType": "string",
          "name": "description",
          "type": "string"
        },
        {
          "internalType": "uint256",
          "name": "assetId",
          "type": "uint256"
        }
      ],
      "name": "updateOtherAsset",
      "outputs": [],
      "stateMutability": "nonpayable",
      "type": "function"
    }
  ],
  "bytecode": "0x608060405234801561001057600080fd5b506121c1806100206000396000f3fe608060405234801561001057600080fd5b50600436106101375760003560e01c8063ab2bbb9c116100b8578063d00bab361161007c578063d00bab3614610344578063d84be50a14610360578063e4c17a371461037c578063fb4b13a514610398578063fe90927e146103b4578063fff2c0d4146103e457610137565b8063ab2bbb9c146102a4578063ae4fd28b146102c0578063b31d2e3b146102dc578063bfb8c6a3146102f8578063c36fef8b1461031457610137565b80636a04a946116100ff5780636a04a946146101f05780637b52bd841461022057806382f2e6411461023c578063869c208114610258578063a0fca66b1461027457610137565b8063076d7a811461013c57806327eeb8251461016c57806330da24ed14610188578063402e25e9146101a45780634294e77a146101c0575b600080fd5b61015660048036038101906101519190611855565b610414565b60405161016391906119a8565b60405180910390f35b61018660048036038101906101819190611b37565b61063c565b005b6101a2600480360381019061019d9190611b37565b6106b6565b005b6101be60048036038101906101b99190611ba6565b610730565b005b6101da60048036038101906101d59190611855565b6107a7565b6040516101e79190611c88565b60405180910390f35b61020a60048036038101906102059190611855565b61093d565b6040516102179190611cf6565b60405180910390f35b61023a60048036038101906102359190611d44565b610a3f565b005b61025660048036038101906102519190611e13565b610aee565b005b610272600480360381019061026d9190611e13565b610bc3565b005b61028e60048036038101906102899190611855565b610c98565b60405161029b9190611edc565b60405180910390f35b6102be60048036038101906102b99190611e13565b610d7b565b005b6102da60048036038101906102d59190611ba6565b610e0f565b005b6102f660048036038101906102f19190611d44565b610eb9565b005b610312600480360381019061030d9190611efe565b610fb1565b005b61032e60048036038101906103299190611855565b61100a565b60405161033b9190611fb1565b60405180910390f35b61035e60048036038101906103599190611efe565b6111a0565b005b61037a60048036038101906103759190611b37565b611222565b005b61039660048036038101906103919190611b37565b6112d1565b005b6103b260048036038101906103ad9190611e13565b611380565b005b6103ce60048036038101906103c99190611855565b611415565b6040516103db9190612010565b60405180910390f35b6103fe60048036038101906103f99190611855565b611517565b60405161040b9190612076565b60405180910390f35b61041c611690565b6000600860008481526020019081526020016000205490506001818154811061044857610447612098565b5b9060005260206000209060040201604051806080016040529081600082018054610471906120f6565b80601f016020809104026020016040519081016040528092919081815260200182805461049d906120f6565b80156104ea5780601f106104bf576101008083540402835291602001916104ea565b820191906000526020600020905b8154815290600101906020018083116104cd57829003601f168201915b50505050508152602001600182018054610503906120f6565b80601f016020809104026020016040519081016040528092919081815260200182805461052f906120f6565b801561057c5780601f106105515761010080835404028352916020019161057c565b820191906000526020600020905b81548152906001019060200180831161055f57829003601f168201915b50505050508152602001600282018054610595906120f6565b80601f01602080910402602001604051908101604052809291908181526020018280546105c1906120f6565b801561060e5780601f106105e35761010080835404028352916020019161060e565b820191906000526020600020905b8154815290600101906020018083116105f157829003601f168201915b505050505081526020016003820160009054906101000a900460ff1660ff1660ff1681525050915050919050565b6000600b600083815260200190815260200160002054905060006004828154811061066a57610669612098565b5b90600052602060002090600202019050848160000190805190602001906106929291906116bb565b50838160010160006101000a81548160ff0219169083151502179055505050505050565b6000600a60008381526020019081526020016000205490506000600382815481106106e4576106e3612098565b5b906000526020600020906002020190508481600001908051906020019061070c9291906116bb565b50838160010160006101000a81548160ff0219169083151502179055505050505050565b6000600c600083815260200190815260200160002054905060006005828154811061075e5761075d612098565b5b90600052602060002090600202019050848160000190805190602001906107869291906116bb565b508381600101908051906020019061079f9291906116bb565b505050505050565b6107af611741565b600060096000848152602001908152602001600020549050600281815481106107db576107da612098565b5b9060005260206000209060030201604051806060016040529081600082018054610804906120f6565b80601f0160208091040260200160405190810160405280929190818152602001828054610830906120f6565b801561087d5780601f106108525761010080835404028352916020019161087d565b820191906000526020600020905b81548152906001019060200180831161086057829003601f168201915b50505050508152602001600182018054610896906120f6565b80601f01602080910402602001604051908101604052809291908181526020018280546108c2906120f6565b801561090f5780601f106108e45761010080835404028352916020019161090f565b820191906000526020600020905b8154815290600101906020018083116108f257829003601f168201915b505050505081526020016002820160009054906101000a900460ff1660ff1660ff1681525050915050919050565b610945611765565b6000600b60008481526020019081526020016000205490506004818154811061097157610970612098565b5b906000526020600020906002020160405180604001604052908160008201805461099a906120f6565b80601f01602080910402602001604051908101604052809291908181526020018280546109c6906120f6565b8015610a135780601f106109e857610100808354040283529160200191610a13565b820191906000526020600020905b8154815290600101906020018083116109f657829003601f168201915b505050505081526020016001820160009054906101000a900460ff161515151581525050915050919050565b600060086000838152602001908152602001600020549050600060018281548110610a6d57610a6c612098565b5b9060005260206000209060040201905086816000019080519060200190610a959291906116bb565b5085816001019080519060200190610aae9291906116bb565b5084816002019080519060200190610ac79291906116bb565b50838160030160006101000a81548160ff021916908360ff16021790555050505050505050565b600260405180606001604052808681526020018581526020018460ff1681525090806001815401808255809150506001900390600052602060002090600302016000909190919091506000820151816000019080519060200190610b539291906116bb565b506020820151816001019080519060200190610b709291906116bb565b5060408201518160020160006101000a81548160ff021916908360ff16021790555050506001600280549050610ba69190612157565b600960008381526020019081526020016000208190555050505050565b600060405180606001604052808681526020018581526020018460ff1681525090806001815401808255809150506001900390600052602060002090600302016000909190919091506000820151816000019080519060200190610c289291906116bb565b506020820151816001019080519060200190610c459291906116bb565b5060408201518160020160006101000a81548160ff021916908360ff16021790555050506001600080549050610c7b9190612157565b600760008381526020019081526020016000208190555050505050565b610ca0611781565b6000600d600084815260200190815260200160002054905060068181548110610ccc57610ccb612098565b5b90600052602060002001604051806020016040529081600082018054610cf1906120f6565b80601f0160208091040260200160405190810160405280929190818152602001828054610d1d906120f6565b8015610d6a5780601f10610d3f57610100808354040283529160200191610d6a565b820191906000526020600020905b815481529060010190602001808311610d4d57829003601f168201915b505050505081525050915050919050565b6000600760008381526020019081526020016000205490506000808281548110610da857610da7612098565b5b9060005260206000209060030201905085816000019080519060200190610dd09291906116bb565b5084816001019080519060200190610de99291906116bb565b50838160020160006101000a81548160ff021916908360ff160217905550505050505050565b600560405180604001604052808581526020018481525090806001815401808255809150506001900390600052602060002090600202016000909190919091506000820151816000019080519060200190610e6b9291906116bb565b506020820151816001019080519060200190610e889291906116bb565b5050506001600580549050610e9d9190612157565b600b600083815260200190815260200160002081905550505050565b600160405180608001604052808781526020018681526020018581526020018460ff1681525090806001815401808255809150506001900390600052602060002090600402016000909190919091506000820151816000019080519060200190610f249291906116bb565b506020820151816001019080519060200190610f419291906116bb565b506040820151816002019080519060200190610f5e9291906116bb565b5060608201518160030160006101000a81548160ff021916908360ff160217905550505060018080549050610f939190612157565b60086000838152602001908152602001600020819055505050505050565b6000600d6000838152602001908152602001600020549050600060068281548110610fdf57610fde612098565b5b906000526020600020019050838160000190805190602001906110039291906116bb565b5050505050565b611012611794565b6000600760008481526020019081526020016000205490506000818154811061103e5761103d612098565b5b9060005260206000209060030201604051806060016040529081600082018054611067906120f6565b80601f0160208091040260200160405190810160405280929190818152602001828054611093906120f6565b80156110e05780601f106110b5576101008083540402835291602001916110e0565b820191906000526020600020905b8154815290600101906020018083116110c357829003601f168201915b505050505081526020016001820180546110f9906120f6565b80601f0160208091040260200160405190810160405280929190818152602001828054611125906120f6565b80156111725780601f1061114757610100808354040283529160200191611172565b820191906000526020600020905b81548152906001019060200180831161115557829003601f168201915b505050505081526020016002820160009054906101000a900460ff1660ff1660ff1681525050915050919050565b60066040518060200160405280848152509080600181540180825580915050600190039060005260206000200160009091909190915060008201518160000190805190602001906111f29291906116bb565b50505060016006805490506112079190612157565b600d6000838152602001908152602001600020819055505050565b60046040518060400160405280858152602001841515815250908060018154018082558091505060019003906000526020600020906002020160009091909190915060008201518160000190805190602001906112809291906116bb565b5060208201518160010160006101000a81548160ff021916908315150217905550505060016004805490506112b59190612157565b600b600083815260200190815260200160002081905550505050565b600360405180604001604052808581526020018415158152509080600181540180825580915050600190039060005260206000209060020201600090919091909150600082015181600001908051906020019061132f9291906116bb565b5060208201518160010160006101000a81548160ff021916908315150217905550505060016003805490506113649190612157565b600a600083815260200190815260200160002081905550505050565b6000600960008381526020019081526020016000205490506000600282815481106113ae576113ad612098565b5b90600052602060002090600302019050858160000190805190602001906113d69291906116bb565b50848160010190805190602001906113ef9291906116bb565b50838160020160006101000a81548160ff021916908360ff160217905550505050505050565b61141d6117b8565b6000600a60008481526020019081526020016000205490506003818154811061144957611448612098565b5b9060005260206000209060020201604051806040016040529081600082018054611472906120f6565b80601f016020809104026020016040519081016040528092919081815260200182805461149e906120f6565b80156114eb5780601f106114c0576101008083540402835291602001916114eb565b820191906000526020600020905b8154815290600101906020018083116114ce57829003601f168201915b505050505081526020016001820160009054906101000a900460ff161515151581525050915050919050565b61151f6117d4565b6000600c60008481526020019081526020016000205490506005818154811061154b5761154a612098565b5b9060005260206000209060020201604051806040016040529081600082018054611574906120f6565b80601f01602080910402602001604051908101604052809291908181526020018280546115a0906120f6565b80156115ed5780601f106115c2576101008083540402835291602001916115ed565b820191906000526020600020905b8154815290600101906020018083116115d057829003601f168201915b50505050508152602001600182018054611606906120f6565b80601f0160208091040260200160405190810160405280929190818152602001828054611632906120f6565b801561167f5780601f106116545761010080835404028352916020019161167f565b820191906000526020600020905b81548152906001019060200180831161166257829003601f168201915b505050505081525050915050919050565b6040518060800160405280606081526020016060815260200160608152602001600060ff1681525090565b8280546116c7906120f6565b90600052602060002090601f0160209004810192826116e95760008555611730565b82601f1061170257805160ff1916838001178555611730565b82800160010185558215611730579182015b8281111561172f578251825591602001919060010190611714565b5b50905061173d91906117ee565b5090565b60405180606001604052806060815260200160608152602001600060ff1681525090565b6040518060400160405280606081526020016000151581525090565b6040518060200160405280606081525090565b60405180606001604052806060815260200160608152602001600060ff1681525090565b6040518060400160405280606081526020016000151581525090565b604051806040016040528060608152602001606081525090565b5b808211156118075760008160009055506001016117ef565b5090565b6000604051905090565b600080fd5b600080fd5b6000819050919050565b6118328161181f565b811461183d57600080fd5b50565b60008135905061184f81611829565b92915050565b60006020828403121561186b5761186a611815565b5b600061187984828501611840565b91505092915050565b600081519050919050565b600082825260208201905092915050565b60005b838110156118bc5780820151818401526020810190506118a1565b838111156118cb576000848401525b50505050565b6000601f19601f8301169050919050565b60006118ed82611882565b6118f7818561188d565b935061190781856020860161189e565b611910816118d1565b840191505092915050565b600060ff82169050919050565b6119318161191b565b82525050565b6000608083016000830151848203600086015261195482826118e2565b9150506020830151848203602086015261196e82826118e2565b9150506040830151848203604086015261198882826118e2565b915050606083015161199d6060860182611928565b508091505092915050565b600060208201905081810360008301526119c28184611937565b905092915050565b600080fd5b600080fd5b7f4e487b7100000000000000000000000000000000000000000000000000000000600052604160045260246000fd5b611a0c826118d1565b810181811067ffffffffffffffff82111715611a2b57611a2a6119d4565b5b80604052505050565b6000611a3e61180b565b9050611a4a8282611a03565b919050565b600067ffffffffffffffff821115611a6a57611a696119d4565b5b611a73826118d1565b9050602081019050919050565b82818337600083830152505050565b6000611aa2611a9d84611a4f565b611a34565b905082815260208101848484011115611abe57611abd6119cf565b5b611ac9848285611a80565b509392505050565b600082601f830112611ae657611ae56119ca565b5b8135611af6848260208601611a8f565b91505092915050565b60008115159050919050565b611b1481611aff565b8114611b1f57600080fd5b50565b600081359050611b3181611b0b565b92915050565b600080600060608486031215611b5057611b4f611815565b5b600084013567ffffffffffffffff811115611b6e57611b6d61181a565b5b611b7a86828701611ad1565b9350506020611b8b86828701611b22565b9250506040611b9c86828701611840565b9150509250925092565b600080600060608486031215611bbf57611bbe611815565b5b600084013567ffffffffffffffff811115611bdd57611bdc61181a565b5b611be986828701611ad1565b935050602084013567ffffffffffffffff811115611c0a57611c0961181a565b5b611c1686828701611ad1565b9250506040611c2786828701611840565b9150509250925092565b60006060830160008301518482036000860152611c4e82826118e2565b91505060208301518482036020860152611c6882826118e2565b9150506040830151611c7d6040860182611928565b508091505092915050565b60006020820190508181036000830152611ca28184611c31565b905092915050565b611cb381611aff565b82525050565b60006040830160008301518482036000860152611cd682826118e2565b9150506020830151611ceb6020860182611caa565b508091505092915050565b60006020820190508181036000830152611d108184611cb9565b905092915050565b611d218161191b565b8114611d2c57600080fd5b50565b600081359050611d3e81611d18565b92915050565b600080600080600060a08688031215611d6057611d5f611815565b5b600086013567ffffffffffffffff811115611d7e57611d7d61181a565b5b611d8a88828901611ad1565b955050602086013567ffffffffffffffff811115611dab57611daa61181a565b5b611db788828901611ad1565b945050604086013567ffffffffffffffff811115611dd857611dd761181a565b5b611de488828901611ad1565b9350506060611df588828901611d2f565b9250506080611e0688828901611840565b9150509295509295909350565b60008060008060808587031215611e2d57611e2c611815565b5b600085013567ffffffffffffffff811115611e4b57611e4a61181a565b5b611e5787828801611ad1565b945050602085013567ffffffffffffffff811115611e7857611e7761181a565b5b611e8487828801611ad1565b9350506040611e9587828801611d2f565b9250506060611ea687828801611840565b91505092959194509250565b60006020830160008301518482036000860152611ecf82826118e2565b9150508091505092915050565b60006020820190508181036000830152611ef68184611eb2565b905092915050565b60008060408385031215611f1557611f14611815565b5b600083013567ffffffffffffffff811115611f3357611f3261181a565b5b611f3f85828601611ad1565b9250506020611f5085828601611840565b9150509250929050565b60006060830160008301518482036000860152611f7782826118e2565b91505060208301518482036020860152611f9182826118e2565b9150506040830151611fa66040860182611928565b508091505092915050565b60006020820190508181036000830152611fcb8184611f5a565b905092915050565b60006040830160008301518482036000860152611ff082826118e2565b91505060208301516120056020860182611caa565b508091505092915050565b6000602082019050818103600083015261202a8184611fd3565b905092915050565b6000604083016000830151848203600086015261204f82826118e2565b9150506020830151848203602086015261206982826118e2565b9150508091505092915050565b600060208201905081810360008301526120908184612032565b905092915050565b7f4e487b7100000000000000000000000000000000000000000000000000000000600052603260045260246000fd5b7f4e487b7100000000000000000000000000000000000000000000000000000000600052602260045260246000fd5b6000600282049050600182168061210e57607f821691505b60208210811415612122576121216120c7565b5b50919050565b7f4e487b7100000000000000000000000000000000000000000000000000000000600052601160045260246000fd5b60006121628261181f565b915061216d8361181f565b9250828210156121805761217f612128565b5b82820390509291505056fea264697066735822122088875c28f04cc664709a4d555d8082b6c085185c65eb4f9711288f799ecadee364736f6c634300080c0033",
  "immutableReferences": {},
  "source": "// SPDX-License-Identifier: MIT\r\npragma solidity >=0.7.0 <0.9.10;\r\nimport './Main.sol';\r\n\r\n\r\n\r\ncontract DataStructs {\r\n    //Create a struct for each type with its own data\r\n\r\n    struct Software {\r\n        string version;\r\n        string provider;\r\n        uint8 stype;\r\n    }\r\n    \r\n    /* //TODO\r\n    struct License {\r\n        string name;\r\n        string key;\r\n        uint adquireDate;\r\n        uint expirationDate;\r\n        uint8 licenseType;\r\n    } */\r\n\r\n    struct Hardware {\r\n        string model;\r\n        string provider;\r\n        string serialNumber;\r\n        uint8 htype;\r\n    }\r\n    \r\n    struct Document {\r\n        string description;\r\n        string location;\r\n        uint8 doctype;\r\n    }\r\n\r\n    struct Data {\r\n        string location;\r\n        bool local;\r\n    }\r\n\r\n    struct Network {\r\n        string cidrblock;\r\n        bool nat;\r\n    }\r\n\r\n    struct Cloud {\r\n        string url;\r\n        string domain;\r\n    }\r\n\r\n    struct Other {\r\n        string description;\r\n    }\r\n\r\n    Software[] private softwareList;\r\n    Hardware[] private hardwareList;\r\n    Document[] private documentList;\r\n    Data[] private dataList;\r\n    Network[] private networkList;\r\n    Cloud[] private cloudList;\r\n    Other[] private otherList;\r\n    \r\n    mapping(uint => uint256) assetSoftware;\r\n\r\n    //TODO\r\n    //Mapping for software & license relation;\r\n    //mapping(uint => uint[]) softAssetToLicense;\r\n\r\n    mapping(uint => uint256) assetHardware;\r\n    mapping(uint => uint256) assetDocument;\r\n    mapping(uint => uint256) assetData;\r\n    mapping(uint => uint256) assetNetwork;\r\n    mapping(uint => uint256) assetCloud;\r\n    mapping(uint => uint256) assetOther;\r\n\r\n\r\n\r\n    function insertSoftware(string memory version, string memory provider, uint8 stype, uint assetId) public {\r\n        softwareList.push(Software(version, provider, stype));\r\n        assetSoftware[assetId] = (softwareList.length-1);\r\n    }\r\n\r\n    function insertHardware(string memory model, string memory provider, string memory serialNumber, uint8 htype, uint assetId) public {\r\n        hardwareList.push(Hardware(model, provider, serialNumber, htype));\r\n        assetHardware[assetId] = (hardwareList.length-1);\r\n\r\n    }\r\n\r\n    function insertDocument(string memory description, string memory location, uint8 doctype, uint assetId) public {\r\n        documentList.push(Document(description, location, doctype));\r\n        assetDocument[assetId] = (documentList.length-1);\r\n\r\n    }\r\n\r\n    function insertData(string memory location, bool local, uint assetId) public {\r\n            dataList.push(Data(location, local));\r\n            assetData[assetId] = (dataList.length-1);\r\n    }\r\n\r\n    function insertNetwork(string memory cidrblock, bool nat, uint assetId) public {\r\n        networkList.push(Network(cidrblock, nat));\r\n        assetNetwork[assetId] = (networkList.length-1);\r\n    }\r\n\r\n    function insertCloud(string memory url, string memory domain, uint assetId) public {\r\n        cloudList.push(Cloud(url, domain));\r\n        assetNetwork[assetId] = (cloudList.length-1);\r\n    }\r\n\r\n    function insertOther(string memory description, uint assetId) public {\r\n        otherList.push(Other(description));\r\n        assetOther[assetId] = (otherList.length-1);\r\n    }\r\n\r\n    //GETTERS\r\n    function getSoftwareAsset(uint assetId) public view returns(Software memory){\r\n        uint softId = assetSoftware[assetId];\r\n        return softwareList[softId];\r\n    }\r\n\r\n    function getHardwareAsset(uint assetId) public view returns(Hardware memory){\r\n        uint hardId = assetHardware[assetId];\r\n        return hardwareList[hardId];\r\n    }\r\n\r\n    function getDocAsset(uint assetId) public view returns(Document memory){\r\n        uint docId = assetDocument[assetId];\r\n        return documentList[docId];\r\n    }\r\n\r\n    function getDataAsset(uint assetId) public view returns(Data memory){\r\n        uint dataId = assetData[assetId];\r\n        return dataList[dataId];\r\n    }\r\n\r\n    function getNetworkAsset(uint assetId) public view returns(Network memory){\r\n        uint networkId = assetNetwork[assetId];\r\n        return networkList[networkId];\r\n    }\r\n\r\n    function getCloudAsset(uint assetId) public view returns(Cloud memory){\r\n        uint cloudId = assetCloud[assetId];\r\n        return cloudList[cloudId];\r\n    }\r\n\r\n    function getOtherAsset(uint assetId) public view returns(Other memory){\r\n        uint otherId = assetOther[assetId];\r\n        return otherList[otherId];\r\n    }\r\n\r\n\r\n    //Function to update a specific asset\r\n    function updateSoftwareAsset(string memory version, string memory provider, uint8 stype, uint assetId) public {\r\n        uint softId = assetSoftware[assetId];\r\n        Software storage _software = softwareList[softId];\r\n        _software.version = version;\r\n        _software.provider = provider;\r\n        _software.stype = stype;\r\n    }\r\n\r\n    function updateHardwareAsset(string memory model, string memory provider, string memory serialNumber, uint8 htype, uint assetId) public {\r\n        uint hardId = assetHardware[assetId];\r\n        Hardware storage _hardware = hardwareList[hardId];\r\n        _hardware.model = model;\r\n        _hardware.provider = provider;\r\n        _hardware.serialNumber = serialNumber;\r\n        _hardware.htype = htype;       \r\n    }\r\n\r\n    function updateDocAsset(string memory description, string memory location, uint8 doctype, uint assetId) public{\r\n        uint docId = assetDocument[assetId];\r\n        Document storage _document = documentList[docId];\r\n        _document.description = description;\r\n        _document.location = location;\r\n        _document.doctype = doctype;\r\n    }\r\n\r\n    function updateDataAsset(string memory location, bool local, uint assetId) public{\r\n        uint dataId = assetData[assetId];\r\n        Data storage _data = dataList[dataId];\r\n        _data.location = location;\r\n        _data.local = local;\r\n    }\r\n\r\n    function updateNetworkAsset(string memory cidrblock, bool nat, uint assetId) public{\r\n        uint networkId = assetNetwork[assetId];\r\n        Network storage _network = networkList[networkId];\r\n        _network.cidrblock = cidrblock;\r\n        _network.nat = nat;\r\n    }\r\n\r\n    function updateCloudAsset(string memory url, string memory domain , uint assetId) public{\r\n        uint cloduId = assetCloud[assetId];\r\n        Cloud storage _cloud = cloudList[cloduId];\r\n        _cloud.url = url;\r\n        _cloud.domain = domain;\r\n    }\r\n\r\n    function updateOtherAsset(string memory description, uint assetId) public{\r\n        uint otherId = assetOther[assetId];\r\n        Other storage _other = otherList[otherId];\r\n        _other.description = description;\r\n    }\r\n}",
  "sourcePath": "D:\\GIT\\inventory-blockchain\\blockchain\\contracts\\DataStruct.sol",
  "compiler": {
    "name": "solc",
    "version": "0.8.12+commit.f00d7308.Emscripten.clang"
  },
  "schemaVersion": "3.4.6",
  "updatedAt": "2022-05-02T10:33:06.309Z",
  "networkType": "ethereum",
  "devdoc": {
    "kind": "dev",
    "methods": {},
    "version": 1
  },
  "userdoc": {
    "kind": "user",
    "methods": {},
    "version": 1
  }
}