{
  "contractName": "Main",
  "abi": [
    {
      "inputs": [
        {
          "internalType": "address",
          "name": "_dataSAdd",
          "type": "address"
        }
      ],
      "stateMutability": "nonpayable",
      "type": "constructor"
    },
    {
      "anonymous": false,
      "inputs": [
        {
          "indexed": true,
          "internalType": "address",
          "name": "userAddress",
          "type": "address"
        },
        {
          "indexed": false,
          "internalType": "uint256",
          "name": "index",
          "type": "uint256"
        },
        {
          "indexed": false,
          "internalType": "bytes32",
          "name": "userEmail",
          "type": "bytes32"
        },
        {
          "indexed": false,
          "internalType": "uint256",
          "name": "userAge",
          "type": "uint256"
        }
      ],
      "name": "LogNewUser",
      "type": "event"
    },
    {
      "anonymous": false,
      "inputs": [
        {
          "indexed": false,
          "internalType": "address",
          "name": "user",
          "type": "address"
        },
        {
          "indexed": false,
          "internalType": "string",
          "name": "name",
          "type": "string"
        }
      ],
      "name": "NewOrganization",
      "type": "event"
    },
    {
      "inputs": [
        {
          "internalType": "address",
          "name": "",
          "type": "address"
        }
      ],
      "name": "addressToOrganizationIndex",
      "outputs": [
        {
          "internalType": "uint256",
          "name": "",
          "type": "uint256"
        }
      ],
      "stateMutability": "view",
      "type": "function",
      "constant": true
    },
    {
      "inputs": [],
      "name": "dataStructsAdd",
      "outputs": [
        {
          "internalType": "address",
          "name": "",
          "type": "address"
        }
      ],
      "stateMutability": "view",
      "type": "function",
      "constant": true
    },
    {
      "inputs": [
        {
          "internalType": "address",
          "name": "admin",
          "type": "address"
        },
        {
          "internalType": "string",
          "name": "name",
          "type": "string"
        },
        {
          "internalType": "string",
          "name": "lastname",
          "type": "string"
        },
        {
          "internalType": "string",
          "name": "email",
          "type": "string"
        },
        {
          "internalType": "uint32",
          "name": "adTelephone",
          "type": "uint32"
        },
        {
          "internalType": "string",
          "name": "orgName",
          "type": "string"
        },
        {
          "internalType": "string",
          "name": "orgAddress",
          "type": "string"
        },
        {
          "internalType": "uint32",
          "name": "orgTelephone",
          "type": "uint32"
        }
      ],
      "name": "insertOrgAndAdmin",
      "outputs": [],
      "stateMutability": "nonpayable",
      "type": "function"
    },
    {
      "inputs": [
        {
          "internalType": "address",
          "name": "userAddress",
          "type": "address"
        }
      ],
      "name": "isAdministrator",
      "outputs": [
        {
          "internalType": "bool",
          "name": "isIndeed",
          "type": "bool"
        }
      ],
      "stateMutability": "view",
      "type": "function",
      "constant": true
    },
    {
      "inputs": [
        {
          "internalType": "uint256",
          "name": "_orgId",
          "type": "uint256"
        }
      ],
      "name": "getOrg",
      "outputs": [
        {
          "components": [
            {
              "internalType": "address",
              "name": "admin",
              "type": "address"
            },
            {
              "internalType": "string",
              "name": "name",
              "type": "string"
            },
            {
              "internalType": "string",
              "name": "addressO",
              "type": "string"
            },
            {
              "internalType": "uint32",
              "name": "telephone",
              "type": "uint32"
            },
            {
              "internalType": "uint256",
              "name": "index",
              "type": "uint256"
            }
          ],
          "internalType": "struct Main.Organization",
          "name": "",
          "type": "tuple"
        }
      ],
      "stateMutability": "view",
      "type": "function",
      "constant": true
    },
    {
      "inputs": [
        {
          "internalType": "address",
          "name": "userAddress",
          "type": "address"
        }
      ],
      "name": "getAdminToOrg",
      "outputs": [
        {
          "internalType": "uint256",
          "name": "userid",
          "type": "uint256"
        }
      ],
      "stateMutability": "view",
      "type": "function",
      "constant": true
    },
    {
      "inputs": [
        {
          "internalType": "address",
          "name": "userAddress",
          "type": "address"
        }
      ],
      "name": "getOrgFromAddress",
      "outputs": [
        {
          "components": [
            {
              "internalType": "address",
              "name": "admin",
              "type": "address"
            },
            {
              "internalType": "string",
              "name": "name",
              "type": "string"
            },
            {
              "internalType": "string",
              "name": "addressO",
              "type": "string"
            },
            {
              "internalType": "uint32",
              "name": "telephone",
              "type": "uint32"
            },
            {
              "internalType": "uint256",
              "name": "index",
              "type": "uint256"
            }
          ],
          "internalType": "struct Main.Organization",
          "name": "org",
          "type": "tuple"
        }
      ],
      "stateMutability": "view",
      "type": "function",
      "constant": true
    },
    {
      "inputs": [
        {
          "internalType": "string",
          "name": "name",
          "type": "string"
        },
        {
          "internalType": "uint256",
          "name": "organizationId",
          "type": "uint256"
        },
        {
          "internalType": "uint256",
          "name": "adquireDate",
          "type": "uint256"
        },
        {
          "internalType": "uint256",
          "name": "creationDate",
          "type": "uint256"
        },
        {
          "internalType": "uint8",
          "name": "assetType",
          "type": "uint8"
        }
      ],
      "name": "insertAsset",
      "outputs": [],
      "stateMutability": "nonpayable",
      "type": "function"
    },
    {
      "inputs": [
        {
          "internalType": "string",
          "name": "name",
          "type": "string"
        },
        {
          "internalType": "uint256",
          "name": "organizationId",
          "type": "uint256"
        },
        {
          "internalType": "uint256",
          "name": "adquireDate",
          "type": "uint256"
        },
        {
          "internalType": "uint256",
          "name": "creationDate",
          "type": "uint256"
        },
        {
          "internalType": "uint8",
          "name": "assetType",
          "type": "uint8"
        },
        {
          "internalType": "string",
          "name": "version",
          "type": "string"
        },
        {
          "internalType": "string",
          "name": "provider",
          "type": "string"
        },
        {
          "internalType": "uint8",
          "name": "stype",
          "type": "uint8"
        }
      ],
      "name": "insertNewSoftAsset",
      "outputs": [],
      "stateMutability": "nonpayable",
      "type": "function"
    },
    {
      "inputs": [
        {
          "internalType": "string",
          "name": "name",
          "type": "string"
        },
        {
          "internalType": "uint256",
          "name": "organizationId",
          "type": "uint256"
        },
        {
          "internalType": "uint256",
          "name": "adquireDate",
          "type": "uint256"
        },
        {
          "internalType": "uint256",
          "name": "creationDate",
          "type": "uint256"
        },
        {
          "internalType": "uint8",
          "name": "assetType",
          "type": "uint8"
        },
        {
          "internalType": "string",
          "name": "model",
          "type": "string"
        },
        {
          "internalType": "string",
          "name": "provider",
          "type": "string"
        },
        {
          "internalType": "string",
          "name": "serialNumber",
          "type": "string"
        },
        {
          "internalType": "uint8",
          "name": "htype",
          "type": "uint8"
        }
      ],
      "name": "insertNewHardAsset",
      "outputs": [],
      "stateMutability": "nonpayable",
      "type": "function"
    },
    {
      "inputs": [
        {
          "internalType": "string",
          "name": "name",
          "type": "string"
        },
        {
          "internalType": "uint256",
          "name": "organizationId",
          "type": "uint256"
        },
        {
          "internalType": "uint256",
          "name": "adquireDate",
          "type": "uint256"
        },
        {
          "internalType": "uint256",
          "name": "creationDate",
          "type": "uint256"
        },
        {
          "internalType": "uint8",
          "name": "assetType",
          "type": "uint8"
        },
        {
          "internalType": "string",
          "name": "description",
          "type": "string"
        },
        {
          "internalType": "string",
          "name": "location",
          "type": "string"
        },
        {
          "internalType": "uint8",
          "name": "doctype",
          "type": "uint8"
        }
      ],
      "name": "insertNewDocAsset",
      "outputs": [],
      "stateMutability": "nonpayable",
      "type": "function"
    },
    {
      "inputs": [
        {
          "internalType": "string",
          "name": "name",
          "type": "string"
        },
        {
          "internalType": "uint256",
          "name": "organizationId",
          "type": "uint256"
        },
        {
          "internalType": "uint256",
          "name": "adquireDate",
          "type": "uint256"
        },
        {
          "internalType": "uint256",
          "name": "creationDate",
          "type": "uint256"
        },
        {
          "internalType": "uint8",
          "name": "assetType",
          "type": "uint8"
        },
        {
          "internalType": "string",
          "name": "location",
          "type": "string"
        },
        {
          "internalType": "bool",
          "name": "local",
          "type": "bool"
        }
      ],
      "name": "insertNewDataAsset",
      "outputs": [],
      "stateMutability": "nonpayable",
      "type": "function"
    },
    {
      "inputs": [
        {
          "internalType": "string",
          "name": "name",
          "type": "string"
        },
        {
          "internalType": "uint256",
          "name": "organizationId",
          "type": "uint256"
        },
        {
          "internalType": "uint256",
          "name": "adquireDate",
          "type": "uint256"
        },
        {
          "internalType": "uint256",
          "name": "creationDate",
          "type": "uint256"
        },
        {
          "internalType": "uint8",
          "name": "assetType",
          "type": "uint8"
        },
        {
          "internalType": "string",
          "name": "cidrblock",
          "type": "string"
        },
        {
          "internalType": "bool",
          "name": "nat",
          "type": "bool"
        }
      ],
      "name": "insertNewNetworkAsset",
      "outputs": [],
      "stateMutability": "nonpayable",
      "type": "function"
    },
    {
      "inputs": [
        {
          "internalType": "string",
          "name": "name",
          "type": "string"
        },
        {
          "internalType": "uint256",
          "name": "organizationId",
          "type": "uint256"
        },
        {
          "internalType": "uint256",
          "name": "adquireDate",
          "type": "uint256"
        },
        {
          "internalType": "uint256",
          "name": "creationDate",
          "type": "uint256"
        },
        {
          "internalType": "uint8",
          "name": "assetType",
          "type": "uint8"
        },
        {
          "internalType": "string",
          "name": "url",
          "type": "string"
        },
        {
          "internalType": "string",
          "name": "domain",
          "type": "string"
        }
      ],
      "name": "insertNewCloudAsset",
      "outputs": [],
      "stateMutability": "nonpayable",
      "type": "function"
    },
    {
      "inputs": [
        {
          "internalType": "string",
          "name": "name",
          "type": "string"
        },
        {
          "internalType": "uint256",
          "name": "organizationId",
          "type": "uint256"
        },
        {
          "internalType": "uint256",
          "name": "adquireDate",
          "type": "uint256"
        },
        {
          "internalType": "uint256",
          "name": "creationDate",
          "type": "uint256"
        },
        {
          "internalType": "uint8",
          "name": "assetType",
          "type": "uint8"
        },
        {
          "internalType": "string",
          "name": "description",
          "type": "string"
        }
      ],
      "name": "insertNewOtherAsset",
      "outputs": [],
      "stateMutability": "nonpayable",
      "type": "function"
    },
    {
      "inputs": [
        {
          "internalType": "uint256",
          "name": "id",
          "type": "uint256"
        }
      ],
      "name": "getLastAssetEdited",
      "outputs": [
        {
          "components": [
            {
              "internalType": "uint256",
              "name": "originalAssetId",
              "type": "uint256"
            },
            {
              "internalType": "string",
              "name": "name",
              "type": "string"
            },
            {
              "internalType": "uint256",
              "name": "organizationId",
              "type": "uint256"
            },
            {
              "internalType": "uint256",
              "name": "adquireDate",
              "type": "uint256"
            },
            {
              "internalType": "uint256",
              "name": "creationDate",
              "type": "uint256"
            },
            {
              "internalType": "uint8",
              "name": "assetType",
              "type": "uint8"
            },
            {
              "internalType": "bool",
              "name": "deleted",
              "type": "bool"
            },
            {
              "internalType": "uint256",
              "name": "index",
              "type": "uint256"
            }
          ],
          "internalType": "struct Main.AssetEdited",
          "name": "",
          "type": "tuple"
        }
      ],
      "stateMutability": "view",
      "type": "function",
      "constant": true
    },
    {
      "inputs": [
        {
          "internalType": "uint256",
          "name": "id",
          "type": "uint256"
        }
      ],
      "name": "getAsset",
      "outputs": [
        {
          "components": [
            {
              "internalType": "string",
              "name": "name",
              "type": "string"
            },
            {
              "internalType": "uint256",
              "name": "organizationId",
              "type": "uint256"
            },
            {
              "internalType": "uint256",
              "name": "adquireDate",
              "type": "uint256"
            },
            {
              "internalType": "uint256",
              "name": "creationDate",
              "type": "uint256"
            },
            {
              "internalType": "uint8",
              "name": "assetType",
              "type": "uint8"
            },
            {
              "internalType": "uint256",
              "name": "index",
              "type": "uint256"
            }
          ],
          "internalType": "struct Main.Asset",
          "name": "",
          "type": "tuple"
        }
      ],
      "stateMutability": "view",
      "type": "function",
      "constant": true
    },
    {
      "inputs": [
        {
          "internalType": "uint256",
          "name": "_adminId",
          "type": "uint256"
        }
      ],
      "name": "getAdmin",
      "outputs": [
        {
          "components": [
            {
              "internalType": "address",
              "name": "admin",
              "type": "address"
            },
            {
              "internalType": "string",
              "name": "name",
              "type": "string"
            },
            {
              "internalType": "string",
              "name": "lastname",
              "type": "string"
            },
            {
              "internalType": "string",
              "name": "email",
              "type": "string"
            },
            {
              "internalType": "uint32",
              "name": "telephone",
              "type": "uint32"
            },
            {
              "internalType": "uint256",
              "name": "index",
              "type": "uint256"
            }
          ],
          "internalType": "struct Main.Admin",
          "name": "",
          "type": "tuple"
        }
      ],
      "stateMutability": "view",
      "type": "function",
      "constant": true
    },
    {
      "inputs": [
        {
          "internalType": "uint256",
          "name": "_orgId",
          "type": "uint256"
        }
      ],
      "name": "getAllAssetsFromOrg",
      "outputs": [
        {
          "components": [
            {
              "internalType": "string",
              "name": "name",
              "type": "string"
            },
            {
              "internalType": "uint256",
              "name": "organizationId",
              "type": "uint256"
            },
            {
              "internalType": "uint256",
              "name": "adquireDate",
              "type": "uint256"
            },
            {
              "internalType": "uint256",
              "name": "creationDate",
              "type": "uint256"
            },
            {
              "internalType": "uint8",
              "name": "assetType",
              "type": "uint8"
            },
            {
              "internalType": "uint256",
              "name": "index",
              "type": "uint256"
            }
          ],
          "internalType": "struct Main.Asset[]",
          "name": "",
          "type": "tuple[]"
        },
        {
          "components": [
            {
              "internalType": "uint256",
              "name": "originalAssetId",
              "type": "uint256"
            },
            {
              "internalType": "string",
              "name": "name",
              "type": "string"
            },
            {
              "internalType": "uint256",
              "name": "organizationId",
              "type": "uint256"
            },
            {
              "internalType": "uint256",
              "name": "adquireDate",
              "type": "uint256"
            },
            {
              "internalType": "uint256",
              "name": "creationDate",
              "type": "uint256"
            },
            {
              "internalType": "uint8",
              "name": "assetType",
              "type": "uint8"
            },
            {
              "internalType": "bool",
              "name": "deleted",
              "type": "bool"
            },
            {
              "internalType": "uint256",
              "name": "index",
              "type": "uint256"
            }
          ],
          "internalType": "struct Main.AssetEdited[]",
          "name": "",
          "type": "tuple[]"
        }
      ],
      "stateMutability": "view",
      "type": "function",
      "constant": true
    },
    {
      "inputs": [
        {
          "internalType": "uint256",
          "name": "originalAssetId",
          "type": "uint256"
        },
        {
          "internalType": "string",
          "name": "name",
          "type": "string"
        },
        {
          "internalType": "uint256",
          "name": "organizationId",
          "type": "uint256"
        },
        {
          "internalType": "uint256",
          "name": "adquireDate",
          "type": "uint256"
        },
        {
          "internalType": "uint256",
          "name": "creationDate",
          "type": "uint256"
        },
        {
          "internalType": "bool",
          "name": "deleted",
          "type": "bool"
        },
        {
          "internalType": "uint8",
          "name": "assetType",
          "type": "uint8"
        }
      ],
      "name": "insertEditedAsset",
      "outputs": [],
      "stateMutability": "nonpayable",
      "type": "function"
    },
    {
      "inputs": [
        {
          "internalType": "uint256",
          "name": "assetId",
          "type": "uint256"
        }
      ],
      "name": "getRecordList",
      "outputs": [
        {
          "components": [
            {
              "internalType": "string",
              "name": "name",
              "type": "string"
            },
            {
              "internalType": "uint256",
              "name": "organizationId",
              "type": "uint256"
            },
            {
              "internalType": "uint256",
              "name": "adquireDate",
              "type": "uint256"
            },
            {
              "internalType": "uint256",
              "name": "creationDate",
              "type": "uint256"
            },
            {
              "internalType": "uint8",
              "name": "assetType",
              "type": "uint8"
            },
            {
              "internalType": "uint256",
              "name": "index",
              "type": "uint256"
            }
          ],
          "internalType": "struct Main.Asset",
          "name": "",
          "type": "tuple"
        },
        {
          "components": [
            {
              "internalType": "uint256",
              "name": "originalAssetId",
              "type": "uint256"
            },
            {
              "internalType": "string",
              "name": "name",
              "type": "string"
            },
            {
              "internalType": "uint256",
              "name": "organizationId",
              "type": "uint256"
            },
            {
              "internalType": "uint256",
              "name": "adquireDate",
              "type": "uint256"
            },
            {
              "internalType": "uint256",
              "name": "creationDate",
              "type": "uint256"
            },
            {
              "internalType": "uint8",
              "name": "assetType",
              "type": "uint8"
            },
            {
              "internalType": "bool",
              "name": "deleted",
              "type": "bool"
            },
            {
              "internalType": "uint256",
              "name": "index",
              "type": "uint256"
            }
          ],
          "internalType": "struct Main.AssetEdited[]",
          "name": "",
          "type": "tuple[]"
        }
      ],
      "stateMutability": "view",
      "type": "function",
      "constant": true
    },
    {
      "inputs": [
        {
          "internalType": "uint256",
          "name": "id",
          "type": "uint256"
        }
      ],
      "name": "getAssetEdited",
      "outputs": [
        {
          "components": [
            {
              "internalType": "uint256",
              "name": "originalAssetId",
              "type": "uint256"
            },
            {
              "internalType": "string",
              "name": "name",
              "type": "string"
            },
            {
              "internalType": "uint256",
              "name": "organizationId",
              "type": "uint256"
            },
            {
              "internalType": "uint256",
              "name": "adquireDate",
              "type": "uint256"
            },
            {
              "internalType": "uint256",
              "name": "creationDate",
              "type": "uint256"
            },
            {
              "internalType": "uint8",
              "name": "assetType",
              "type": "uint8"
            },
            {
              "internalType": "bool",
              "name": "deleted",
              "type": "bool"
            },
            {
              "internalType": "uint256",
              "name": "index",
              "type": "uint256"
            }
          ],
          "internalType": "struct Main.AssetEdited",
          "name": "",
          "type": "tuple"
        }
      ],
      "stateMutability": "view",
      "type": "function",
      "constant": true
    },
    {
      "inputs": [
        {
          "internalType": "uint256",
          "name": "orgId",
          "type": "uint256"
        }
      ],
      "name": "getAssetsDeleted",
      "outputs": [
        {
          "components": [
            {
              "internalType": "uint256",
              "name": "originalAssetId",
              "type": "uint256"
            },
            {
              "internalType": "string",
              "name": "name",
              "type": "string"
            },
            {
              "internalType": "uint256",
              "name": "organizationId",
              "type": "uint256"
            },
            {
              "internalType": "uint256",
              "name": "adquireDate",
              "type": "uint256"
            },
            {
              "internalType": "uint256",
              "name": "creationDate",
              "type": "uint256"
            },
            {
              "internalType": "uint8",
              "name": "assetType",
              "type": "uint8"
            },
            {
              "internalType": "bool",
              "name": "deleted",
              "type": "bool"
            },
            {
              "internalType": "uint256",
              "name": "index",
              "type": "uint256"
            }
          ],
          "internalType": "struct Main.AssetEdited[]",
          "name": "",
          "type": "tuple[]"
        }
      ],
      "stateMutability": "view",
      "type": "function",
      "constant": true
    },
    {
      "inputs": [
        {
          "internalType": "uint256",
          "name": "idAsset",
          "type": "uint256"
        }
      ],
      "name": "getIsAssetEdited",
      "outputs": [
        {
          "internalType": "bool",
          "name": "result",
          "type": "bool"
        }
      ],
      "stateMutability": "view",
      "type": "function",
      "constant": true
    },
    {
      "inputs": [
        {
          "internalType": "uint256",
          "name": "idAsset",
          "type": "uint256"
        }
      ],
      "name": "getIsAssetDeleted",
      "outputs": [
        {
          "internalType": "bool",
          "name": "result",
          "type": "bool"
        }
      ],
      "stateMutability": "view",
      "type": "function",
      "constant": true
    },
    {
      "inputs": [
        {
          "internalType": "uint256",
          "name": "orgId",
          "type": "uint256"
        }
      ],
      "name": "getOrgNumEdited",
      "outputs": [
        {
          "internalType": "uint256",
          "name": "numEdited",
          "type": "uint256"
        }
      ],
      "stateMutability": "view",
      "type": "function",
      "constant": true
    },
    {
      "inputs": [
        {
          "internalType": "uint256",
          "name": "orgId",
          "type": "uint256"
        }
      ],
      "name": "getOrgNumDeleted",
      "outputs": [
        {
          "internalType": "uint256",
          "name": "numDeleted",
          "type": "uint256"
        }
      ],
      "stateMutability": "view",
      "type": "function",
      "constant": true
    },
    {
      "inputs": [
        {
          "internalType": "uint256",
          "name": "assetId",
          "type": "uint256"
        }
      ],
      "name": "getEdDeList",
      "outputs": [
        {
          "internalType": "uint256[]",
          "name": "listEdited",
          "type": "uint256[]"
        }
      ],
      "stateMutability": "view",
      "type": "function",
      "constant": true
    }
  ],
  "bytecode": "0x60806040523480156200001157600080fd5b5060405162004598380380620045988339818101604052810190620000379190620000e8565b806000806101000a81548173ffffffffffffffffffffffffffffffffffffffff021916908373ffffffffffffffffffffffffffffffffffffffff160217905550506200011a565b600080fd5b600073ffffffffffffffffffffffffffffffffffffffff82169050919050565b6000620000b08262000083565b9050919050565b620000c281620000a3565b8114620000ce57600080fd5b50565b600081519050620000e281620000b7565b92915050565b6000602082840312156200010157620001006200007e565b5b60006200011184828501620000d1565b91505092915050565b61446e806200012a6000396000f3fe608060405234801561001057600080fd5b50600436106101c45760003560e01c80638ab95a33116100f9578063c92bc12d11610097578063de93f53911610071578063de93f53914610570578063e81ef319146105a0578063eac8f5b8146105d0578063ef193b2214610600576101c4565b8063c92bc12d146104f3578063dc0973cd14610523578063de7946fc1461053f576101c4565b8063aea4d81a116100d3578063aea4d81a1461045b578063b5e8097214610477578063bbd4060e146104a7578063c70abaf4146104c3576101c4565b80638ab95a33146104055780639c40fd3514610421578063a1cc9c261461043f576101c4565b806331fe8bcd116101665780634e4369c4116101405780634e4369c41461036d5780635fa099831461039d5780635fd8b45d146103b9578063653e69ff146103d5576101c4565b806331fe8bcd146102dd5780633fc072901461030d578063415de94c1461033d576101c4565b806317400c43116101a257806317400c43146102595780631ec824f8146102755780632360c27f146102915780632c48ed8b146102c1576101c4565b80630a2eb301146101c9578063111fd88b146101f9578063151c3f4414610229575b600080fd5b6101e360048036038101906101de9190612e63565b610631565b6040516101f09190612eab565b60405180910390f35b610213600480360381019061020e9190612efc565b6106fd565b6040516102209190613096565b60405180910390f35b610243600480360381019061023e9190612efc565b610975565b6040516102509190612eab565b60405180910390f35b610273600480360381019061026e9190613252565b6109c4565b005b61028f600480360381019061028a9190613252565b610a7b565b005b6102ab60048036038101906102a69190612efc565b610b32565b6040516102b891906133a9565b60405180910390f35b6102db60048036038101906102d691906133cb565b610d18565b005b6102f760048036038101906102f29190612efc565b610dcf565b6040516103049190613570565b60405180910390f35b61032760048036038101906103229190612e63565b610e3a565b60405161033491906133a9565b60405180910390f35b61035760048036038101906103529190612e63565b610e79565b60405161036491906135a1565b60405180910390f35b61038760048036038101906103829190612e63565b610e91565b60405161039491906135a1565b60405180910390f35b6103b760048036038101906103b291906135bc565b610eda565b005b6103d360048036038101906103ce91906136f6565b610f97565b005b6103ef60048036038101906103ea9190612efc565b61105d565b6040516103fc91906135a1565b60405180910390f35b61041f600480360381019061041a919061382c565b6110b8565b005b610429611151565b604051610436919061397d565b60405180910390f35b61045960048036038101906104549190613998565b611175565b005b61047560048036038101906104709190613a56565b611584565b005b610491600480360381019061048c9190612efc565b611638565b60405161049e9190613be9565b60405180910390f35b6104c160048036038101906104bc9190613c0b565b6117ce565b005b6104dd60048036038101906104d89190612efc565b6119db565b6040516104ea9190613be9565b60405180910390f35b61050d60048036038101906105089190612efc565b611b14565b60405161051a91906135a1565b60405180910390f35b61053d600480360381019061053891906136f6565b611b6f565b005b61055960048036038101906105549190612efc565b611c29565b604051610567929190613f5f565b60405180910390f35b61058a60048036038101906105859190612efc565b6121ba565b6040516105979190613f96565b60405180910390f35b6105ba60048036038101906105b59190612efc565b6123d5565b6040516105c79190612eab565b60405180910390f35b6105ea60048036038101906105e59190612efc565b612424565b6040516105f79190614041565b60405180910390f35b61061a60048036038101906106159190612efc565b612537565b604051610628929190614063565b60405180910390f35b600080600580549050141561064957600090506106f8565b8173ffffffffffffffffffffffffffffffffffffffff166005600660008573ffffffffffffffffffffffffffffffffffffffff1673ffffffffffffffffffffffffffffffffffffffff16815260200190815260200160002054815481106106b3576106b261409a565b5b9060005260206000200160009054906101000a900473ffffffffffffffffffffffffffffffffffffffff1673ffffffffffffffffffffffffffffffffffffffff161490505b919050565b610705612c2e565b600382815481106107195761071861409a565b5b90600052602060002090600602016040518060c00160405290816000820160009054906101000a900473ffffffffffffffffffffffffffffffffffffffff1673ffffffffffffffffffffffffffffffffffffffff1673ffffffffffffffffffffffffffffffffffffffff168152602001600182018054610798906140f8565b80601f01602080910402602001604051908101604052809291908181526020018280546107c4906140f8565b80156108115780601f106107e657610100808354040283529160200191610811565b820191906000526020600020905b8154815290600101906020018083116107f457829003601f168201915b5050505050815260200160028201805461082a906140f8565b80601f0160208091040260200160405190810160405280929190818152602001828054610856906140f8565b80156108a35780601f10610878576101008083540402835291602001916108a3565b820191906000526020600020905b81548152906001019060200180831161088657829003601f168201915b505050505081526020016003820180546108bc906140f8565b80601f01602080910402602001604051908101604052809291908181526020018280546108e8906140f8565b80156109355780601f1061090a57610100808354040283529160200191610935565b820191906000526020600020905b81548152906001019060200180831161091857829003601f168201915b505050505081526020016004820160009054906101000a900463ffffffff1663ffffffff1663ffffffff1681526020016005820154815250509050919050565b6000600c600083815260200190815260200160002060008154811061099d5761099c61409a565b5b90600052602060002090602091828204019190069054906101000a900460ff169050919050565b600060078054905090506109db88888888886117ce565b60008060009054906101000a900473ffffffffffffffffffffffffffffffffffffffff1690508073ffffffffffffffffffffffffffffffffffffffff1663d84be50a8585856040518463ffffffff1660e01b8152600401610a3e93929190614174565b600060405180830381600087803b158015610a5857600080fd5b505af1158015610a6c573d6000803e3d6000fd5b50505050505050505050505050565b60006007805490509050610a9288888888886117ce565b60008060009054906101000a900473ffffffffffffffffffffffffffffffffffffffff1690508073ffffffffffffffffffffffffffffffffffffffff1663e4c17a378585856040518463ffffffff1660e01b8152600401610af593929190614174565b600060405180830381600087803b158015610b0f57600080fd5b505af1158015610b23573d6000803e3d6000fd5b50505050505050505050505050565b610b3a612c80565b60018281548110610b4e57610b4d61409a565b5b90600052602060002090600502016040518060a00160405290816000820160009054906101000a900473ffffffffffffffffffffffffffffffffffffffff1673ffffffffffffffffffffffffffffffffffffffff1673ffffffffffffffffffffffffffffffffffffffff168152602001600182018054610bcd906140f8565b80601f0160208091040260200160405190810160405280929190818152602001828054610bf9906140f8565b8015610c465780601f10610c1b57610100808354040283529160200191610c46565b820191906000526020600020905b815481529060010190602001808311610c2957829003601f168201915b50505050508152602001600282018054610c5f906140f8565b80601f0160208091040260200160405190810160405280929190818152602001828054610c8b906140f8565b8015610cd85780601f10610cad57610100808354040283529160200191610cd8565b820191906000526020600020905b815481529060010190602001808311610cbb57829003601f168201915b505050505081526020016003820160009054906101000a900463ffffffff1663ffffffff1663ffffffff1681526020016004820154815250509050919050565b60006007805490509050610d2f88888888886117ce565b60008060009054906101000a900473ffffffffffffffffffffffffffffffffffffffff1690508073ffffffffffffffffffffffffffffffffffffffff1663ae4fd28b8585856040518463ffffffff1660e01b8152600401610d92939291906141b2565b600060405180830381600087803b158015610dac57600080fd5b505af1158015610dc0573d6000803e3d6000fd5b50505050505050505050505050565b6060600a6000838152602001908152602001600020805480602002602001604051908101604052809291908181526020018280548015610e2e57602002820191906000526020600020905b815481526020019060010190808311610e1a575b50505050509050919050565b610e42612c80565b610e4b82610631565b15610e5557600080fd5b6000610e6083610e91565b90506000610e6d82610b32565b90508092505050919050565b60066020528060005260406000206000915090505481565b6000600660008373ffffffffffffffffffffffffffffffffffffffff1673ffffffffffffffffffffffffffffffffffffffff168152602001908152602001600020549050919050565b60006007805490509050610ef18a8a8a8a8a6117ce565b60008060009054906101000a900473ffffffffffffffffffffffffffffffffffffffff1690508073ffffffffffffffffffffffffffffffffffffffff1663b31d2e3b87878787876040518663ffffffff1660e01b8152600401610f58959493929190614206565b600060405180830381600087803b158015610f7257600080fd5b505af1158015610f86573d6000803e3d6000fd5b505050505050505050505050505050565b610fa488888888886117ce565b60006001600780549050610fb8919061429d565b905060008060009054906101000a900473ffffffffffffffffffffffffffffffffffffffff1690508073ffffffffffffffffffffffffffffffffffffffff1663869c2081868686866040518563ffffffff1660e01b815260040161101f94939291906142d1565b600060405180830381600087803b15801561103957600080fd5b505af115801561104d573d6000803e3d6000fd5b5050505050505050505050505050565b6000600b60008381526020019081526020016000206001815481106110855761108461409a565b5b90600052602060002090600891828204019190066004029054906101000a900463ffffffff1663ffffffff169050919050565b6110c188610631565b156110cb57600080fd5b6110d88888888888612866565b6110e4888484846129cf565b6005889080600181540180825580915050600190039060005260206000200160009091909190916101000a81548173ffffffffffffffffffffffffffffffffffffffff021916908373ffffffffffffffffffffffffffffffffffffffff1602179055505050505050505050565b60008054906101000a900473ffffffffffffffffffffffffffffffffffffffff1681565b60096040518061010001604052808981526020018881526020018781526020018681526020018581526020018360ff1681526020018415158152602001600980549050815250908060018154018082558091505060019003906000526020600020906007020160009091909190915060008201518160000155602082015181600101908051906020019061120a929190612ccb565b5060408201518160020155606082015181600301556080820151816004015560a08201518160050160006101000a81548160ff021916908360ff16021790555060c08201518160050160016101000a81548160ff02191690831515021790555060e0820151816006015550506000600160098054905061128a919061429d565b9050600c60008981526020019081526020016000206000815481106112b2576112b161409a565b5b90600052602060002090602091828204019190069054906101000a900460ff166113df576001600c60008a81526020019081526020016000206000815481106112fe576112fd61409a565b5b90600052602060002090602091828204019190066101000a81548160ff02191690831515021790555060006001600b60008981526020019081526020016000206000815481106113515761135061409a565b5b90600052602060002090600891828204019190066004029054906101000a900463ffffffff166113819190614324565b905080600b60008981526020019081526020016000206000815481106113aa576113a961409a565b5b90600052602060002090600891828204019190066004026101000a81548163ffffffff021916908363ffffffff160217905550505b600a600089815260200190815260200160002081908060018154018082558091505060019003906000526020600020016000909190919091505560011515831515141561157a57600d6000878152602001908152602001600020600160098054905061144b919061429d565b90806001815401808255809150506001900390600052602060002001600090919091909150556001600c60008a81526020019081526020016000206001815481106114995761149861409a565b5b90600052602060002090602091828204019190066101000a81548160ff02191690831515021790555060006001600b60008981526020019081526020016000206001815481106114ec576114eb61409a565b5b90600052602060002090600891828204019190066004029054906101000a900463ffffffff1661151c9190614324565b905080600b60008981526020019081526020016000206001815481106115455761154461409a565b5b90600052602060002090600891828204019190066004026101000a81548163ffffffff021916908363ffffffff160217905550505b5050505050505050565b6000600780549050905061159b87878787876117ce565b60008060009054906101000a900473ffffffffffffffffffffffffffffffffffffffff1690508073ffffffffffffffffffffffffffffffffffffffff1663d00bab3684846040518363ffffffff1660e01b81526004016115fc92919061435e565b600060405180830381600087803b15801561161657600080fd5b505af115801561162a573d6000803e3d6000fd5b505050505050505050505050565b611640612d51565b60006001600a600085815260200190815260200160002080549050611665919061429d565b90506000600a6000858152602001908152602001600020828154811061168e5761168d61409a565b5b90600052602060002001549050600981815481106116af576116ae61409a565b5b906000526020600020906007020160405180610100016040529081600082015481526020016001820180546116e3906140f8565b80601f016020809104026020016040519081016040528092919081815260200182805461170f906140f8565b801561175c5780601f106117315761010080835404028352916020019161175c565b820191906000526020600020905b81548152906001019060200180831161173f57829003601f168201915b505050505081526020016002820154815260200160038201548152602001600482015481526020016005820160009054906101000a900460ff1660ff1660ff1681526020016005820160019054906101000a900460ff1615151515815260200160068201548152505092505050919050565b60076040518060c001604052808781526020018681526020018581526020018481526020018360ff1681526020016007805490508152509080600181540180825580915050600190039060005260206000209060060201600090919091909150600082015181600001908051906020019061184a929190612ccb565b5060208201518160010155604082015181600201556060820151816003015560808201518160040160006101000a81548160ff021916908360ff16021790555060a0820151816005015550506008600085815260200190815260200160002060016007805490506118bb919061429d565b9080600181540180825580915050600190039060005260206000200160009091909190915055600c600060016007805490506118f7919061429d565b8152602001908152602001600020600090806001815401808255809150506001900390600052602060002090602091828204019190069091909190916101000a81548160ff021916908315150217905550600c6000600160078054905061195e919061429d565b8152602001908152602001600020600090806001815401808255809150506001900390600052602060002090602091828204019190069091909190916101000a81548160ff021916908315150217905550600a600060016007805490506119c5919061429d565b8152602001908152602001600020505050505050565b6119e3612d51565b600982815481106119f7576119f661409a565b5b90600052602060002090600702016040518061010001604052908160008201548152602001600182018054611a2b906140f8565b80601f0160208091040260200160405190810160405280929190818152602001828054611a57906140f8565b8015611aa45780601f10611a7957610100808354040283529160200191611aa4565b820191906000526020600020905b815481529060010190602001808311611a8757829003601f168201915b505050505081526020016002820154815260200160038201548152602001600482015481526020016005820160009054906101000a900460ff1660ff1660ff1681526020016005820160019054906101000a900460ff161515151581526020016006820154815250509050919050565b6000600b6000838152602001908152602001600020600081548110611b3c57611b3b61409a565b5b90600052602060002090600891828204019190066004029054906101000a900463ffffffff1663ffffffff169050919050565b60006007805490509050611b8689898989896117ce565b60008060009054906101000a900473ffffffffffffffffffffffffffffffffffffffff1690508073ffffffffffffffffffffffffffffffffffffffff166382f2e641868686866040518563ffffffff1660e01b8152600401611beb94939291906142d1565b600060405180830381600087803b158015611c0557600080fd5b505af1158015611c19573d6000803e3d6000fd5b5050505050505050505050505050565b6060806000600b6000858152602001908152602001600020600081548110611c5457611c5361409a565b5b90600052602060002090600891828204019190066004029054906101000a900463ffffffff1690506000600b6000868152602001908152602001600020600181548110611ca457611ca361409a565b5b90600052602060002090600891828204019190066004029054906101000a900463ffffffff16905060008183611cda919061438e565b905060006008600088815260200190815260200160002080549050905060008463ffffffff1682611d0b919061429d565b67ffffffffffffffff811115611d2457611d236130c2565b5b604051908082528060200260200182016040528015611d5d57816020015b611d4a612d9b565b815260200190600190039081611d425790505b50905060008363ffffffff1667ffffffffffffffff811115611d8257611d816130c2565b5b604051908082528060200260200182016040528015611dbb57816020015b611da8612d51565b815260200190600190039081611da05790505b50905060008060005b858110156121a657600c6000828152602001908152602001600020600181548110611df257611df161409a565b5b90600052602060002090602091828204019190069054906101000a900460ff1615611e1c57612193565b60011515600c6000838152602001908152602001600020600081548110611e4657611e4561409a565b5b90600052602060002090602091828204019190069054906101000a900460ff161515141561202c5760006001600a600084815260200190815260200160002080549050611e93919061429d565b90506000600a60008481526020019081526020016000208281548110611ebc57611ebb61409a565b5b9060005260206000200154905060098181548110611edd57611edc61409a565b5b90600052602060002090600702016040518061010001604052908160008201548152602001600182018054611f11906140f8565b80601f0160208091040260200160405190810160405280929190818152602001828054611f3d906140f8565b8015611f8a5780601f10611f5f57610100808354040283529160200191611f8a565b820191906000526020600020905b815481529060010190602001808311611f6d57829003601f168201915b505050505081526020016002820154815260200160038201548152602001600482015481526020016005820160009054906101000a900460ff1660ff1660ff1681526020016005820160019054906101000a900460ff16151515158152602001600682015481525050868663ffffffff168151811061200c5761200b61409a565b5b60200260200101819052508480612022906143c2565b9550505050612192565b6000600860008e815260200190815260200160002082815481106120535761205261409a565b5b90600052602060002001549050600781815481106120745761207361409a565b5b90600052602060002090600602016040518060c001604052908160008201805461209d906140f8565b80601f01602080910402602001604051908101604052809291908181526020018280546120c9906140f8565b80156121165780601f106120eb57610100808354040283529160200191612116565b820191906000526020600020905b8154815290600101906020018083116120f957829003601f168201915b505050505081526020016001820154815260200160028201548152602001600382015481526020016004820160009054906101000a900460ff1660ff1660ff1681526020016005820154815250508684815181106121775761217661409a565b5b6020026020010181905250828061218d906143ef565b935050505b5b808061219e906143ef565b915050611dc4565b508383995099505050505050505050915091565b60606000600d600084815260200190815260200160002080549050905060008167ffffffffffffffff8111156121f3576121f26130c2565b5b60405190808252806020026020018201604052801561222c57816020015b612219612d51565b8152602001906001900390816122115790505b50905060005b828110156123ca576000600d600087815260200190815260200160002082815481106122615761226061409a565b5b90600052602060002001549050600981815481106122825761228161409a565b5b906000526020600020906007020160405180610100016040529081600082015481526020016001820180546122b6906140f8565b80601f01602080910402602001604051908101604052809291908181526020018280546122e2906140f8565b801561232f5780601f106123045761010080835404028352916020019161232f565b820191906000526020600020905b81548152906001019060200180831161231257829003601f168201915b505050505081526020016002820154815260200160038201548152602001600482015481526020016005820160009054906101000a900460ff1660ff1660ff1681526020016005820160019054906101000a900460ff161515151581526020016006820154815250508383815181106123ab576123aa61409a565b5b60200260200101819052505080806123c2906143ef565b915050612232565b508092505050919050565b6000600c60008381526020019081526020016000206001815481106123fd576123fc61409a565b5b90600052602060002090602091828204019190069054906101000a900460ff169050919050565b61242c612d9b565b600782815481106124405761243f61409a565b5b90600052602060002090600602016040518060c0016040529081600082018054612469906140f8565b80601f0160208091040260200160405190810160405280929190818152602001828054612495906140f8565b80156124e25780601f106124b7576101008083540402835291602001916124e2565b820191906000526020600020905b8154815290600101906020018083116124c557829003601f168201915b505050505081526020016001820154815260200160028201548152602001600382015481526020016004820160009054906101000a900460ff1660ff1660ff1681526020016005820154815250509050919050565b61253f612d9b565b60606000600784815481106125575761255661409a565b5b90600052602060002090600602016040518060c0016040529081600082018054612580906140f8565b80601f01602080910402602001604051908101604052809291908181526020018280546125ac906140f8565b80156125f95780601f106125ce576101008083540402835291602001916125f9565b820191906000526020600020905b8154815290600101906020018083116125dc57829003601f168201915b505050505081526020016001820154815260200160028201548152602001600382015481526020016004820160009054906101000a900460ff1660ff1660ff16815260200160058201548152505090506000600a600086815260200190815260200160002080549050905060008167ffffffffffffffff8111156126805761267f6130c2565b5b6040519080825280602002602001820160405280156126b957816020015b6126a6612d51565b81526020019060019003908161269e5790505b50905060005b82811015612857576000600a600089815260200190815260200160002082815481106126ee576126ed61409a565b5b906000526020600020015490506009818154811061270f5761270e61409a565b5b90600052602060002090600702016040518061010001604052908160008201548152602001600182018054612743906140f8565b80601f016020809104026020016040519081016040528092919081815260200182805461276f906140f8565b80156127bc5780601f10612791576101008083540402835291602001916127bc565b820191906000526020600020905b81548152906001019060200180831161279f57829003601f168201915b505050505081526020016002820154815260200160038201548152602001600482015481526020016005820160009054906101000a900460ff1660ff1660ff1681526020016005820160019054906101000a900460ff161515151581526020016006820154815250508383815181106128385761283761409a565b5b602002602001018190525050808061284f906143ef565b9150506126bf565b50828194509450505050915091565b60036040518060c001604052808773ffffffffffffffffffffffffffffffffffffffff1681526020018681526020018581526020018481526020018363ffffffff168152602001600380549050815250908060018154018082558091505060019003906000526020600020906006020160009091909190915060008201518160000160006101000a81548173ffffffffffffffffffffffffffffffffffffffff021916908373ffffffffffffffffffffffffffffffffffffffff1602179055506020820151816001019080519060200190612942929190612ccb565b50604082015181600201908051906020019061295f929190612ccb565b50606082015181600301908051906020019061297c929190612ccb565b5060808201518160040160006101000a81548163ffffffff021916908363ffffffff16021790555060a082015181600501555050600460008154809291906129c3906143ef565b91905055505050505050565b60016040518060a001604052808673ffffffffffffffffffffffffffffffffffffffff1681526020018581526020018481526020018363ffffffff168152602001600180549050815250908060018154018082558091505060019003906000526020600020906005020160009091909190915060008201518160000160006101000a81548173ffffffffffffffffffffffffffffffffffffffff021916908373ffffffffffffffffffffffffffffffffffffffff1602179055506020820151816001019080519060200190612aa5929190612ccb565b506040820151816002019080519060200190612ac2929190612ccb565b5060608201518160030160006101000a81548163ffffffff021916908363ffffffff16021790555060808201518160040155505060026000815480929190612b09906143ef565b9190505550600060018080549050612b21919061429d565b905080600660008773ffffffffffffffffffffffffffffffffffffffff1673ffffffffffffffffffffffffffffffffffffffff16815260200190815260200160002081905550600b6000828152602001908152602001600020600090806001815401808255809150506001900390600052602060002090600891828204019190066004029091909190916101000a81548163ffffffff021916908363ffffffff160217905550600b6000828152602001908152602001600020600090806001815401808255809150506001900390600052602060002090600891828204019190066004029091909190916101000a81548163ffffffff021916908363ffffffff1602179055505050505050565b6040518060c00160405280600073ffffffffffffffffffffffffffffffffffffffff168152602001606081526020016060815260200160608152602001600063ffffffff168152602001600081525090565b6040518060a00160405280600073ffffffffffffffffffffffffffffffffffffffff1681526020016060815260200160608152602001600063ffffffff168152602001600081525090565b828054612cd7906140f8565b90600052602060002090601f016020900481019282612cf95760008555612d40565b82601f10612d1257805160ff1916838001178555612d40565b82800160010185558215612d40579182015b82811115612d3f578251825591602001919060010190612d24565b5b509050612d4d9190612dd4565b5090565b6040518061010001604052806000815260200160608152602001600081526020016000815260200160008152602001600060ff168152602001600015158152602001600081525090565b6040518060c0016040528060608152602001600081526020016000815260200160008152602001600060ff168152602001600081525090565b5b80821115612ded576000816000905550600101612dd5565b5090565b6000604051905090565b600080fd5b600080fd5b600073ffffffffffffffffffffffffffffffffffffffff82169050919050565b6000612e3082612e05565b9050919050565b612e4081612e25565b8114612e4b57600080fd5b50565b600081359050612e5d81612e37565b92915050565b600060208284031215612e7957612e78612dfb565b5b6000612e8784828501612e4e565b91505092915050565b60008115159050919050565b612ea581612e90565b82525050565b6000602082019050612ec06000830184612e9c565b92915050565b6000819050919050565b612ed981612ec6565b8114612ee457600080fd5b50565b600081359050612ef681612ed0565b92915050565b600060208284031215612f1257612f11612dfb565b5b6000612f2084828501612ee7565b91505092915050565b612f3281612e25565b82525050565b600081519050919050565b600082825260208201905092915050565b60005b83811015612f72578082015181840152602081019050612f57565b83811115612f81576000848401525b50505050565b6000601f19601f8301169050919050565b6000612fa382612f38565b612fad8185612f43565b9350612fbd818560208601612f54565b612fc681612f87565b840191505092915050565b600063ffffffff82169050919050565b612fea81612fd1565b82525050565b612ff981612ec6565b82525050565b600060c0830160008301516130176000860182612f29565b506020830151848203602086015261302f8282612f98565b915050604083015184820360408601526130498282612f98565b915050606083015184820360608601526130638282612f98565b91505060808301516130786080860182612fe1565b5060a083015161308b60a0860182612ff0565b508091505092915050565b600060208201905081810360008301526130b08184612fff565b905092915050565b600080fd5b600080fd5b7f4e487b7100000000000000000000000000000000000000000000000000000000600052604160045260246000fd5b6130fa82612f87565b810181811067ffffffffffffffff82111715613119576131186130c2565b5b80604052505050565b600061312c612df1565b905061313882826130f1565b919050565b600067ffffffffffffffff821115613158576131576130c2565b5b61316182612f87565b9050602081019050919050565b82818337600083830152505050565b600061319061318b8461313d565b613122565b9050828152602081018484840111156131ac576131ab6130bd565b5b6131b784828561316e565b509392505050565b600082601f8301126131d4576131d36130b8565b5b81356131e484826020860161317d565b91505092915050565b600060ff82169050919050565b613203816131ed565b811461320e57600080fd5b50565b600081359050613220816131fa565b92915050565b61322f81612e90565b811461323a57600080fd5b50565b60008135905061324c81613226565b92915050565b600080600080600080600060e0888a03121561327157613270612dfb565b5b600088013567ffffffffffffffff81111561328f5761328e612e00565b5b61329b8a828b016131bf565b97505060206132ac8a828b01612ee7565b96505060406132bd8a828b01612ee7565b95505060606132ce8a828b01612ee7565b94505060806132df8a828b01613211565b93505060a088013567ffffffffffffffff811115613300576132ff612e00565b5b61330c8a828b016131bf565b92505060c061331d8a828b0161323d565b91505092959891949750929550565b600060a0830160008301516133446000860182612f29565b506020830151848203602086015261335c8282612f98565b915050604083015184820360408601526133768282612f98565b915050606083015161338b6060860182612fe1565b50608083015161339e6080860182612ff0565b508091505092915050565b600060208201905081810360008301526133c3818461332c565b905092915050565b600080600080600080600060e0888a0312156133ea576133e9612dfb565b5b600088013567ffffffffffffffff81111561340857613407612e00565b5b6134148a828b016131bf565b97505060206134258a828b01612ee7565b96505060406134368a828b01612ee7565b95505060606134478a828b01612ee7565b94505060806134588a828b01613211565b93505060a088013567ffffffffffffffff81111561347957613478612e00565b5b6134858a828b016131bf565b92505060c088013567ffffffffffffffff8111156134a6576134a5612e00565b5b6134b28a828b016131bf565b91505092959891949750929550565b600081519050919050565b600082825260208201905092915050565b6000819050602082019050919050565b60006134f98383612ff0565b60208301905092915050565b6000602082019050919050565b600061351d826134c1565b61352781856134cc565b9350613532836134dd565b8060005b8381101561356357815161354a88826134ed565b975061355583613505565b925050600181019050613536565b5085935050505092915050565b6000602082019050818103600083015261358a8184613512565b905092915050565b61359b81612ec6565b82525050565b60006020820190506135b66000830184613592565b92915050565b60008060008060008060008060006101208a8c0312156135df576135de612dfb565b5b60008a013567ffffffffffffffff8111156135fd576135fc612e00565b5b6136098c828d016131bf565b995050602061361a8c828d01612ee7565b985050604061362b8c828d01612ee7565b975050606061363c8c828d01612ee7565b965050608061364d8c828d01613211565b95505060a08a013567ffffffffffffffff81111561366e5761366d612e00565b5b61367a8c828d016131bf565b94505060c08a013567ffffffffffffffff81111561369b5761369a612e00565b5b6136a78c828d016131bf565b93505060e08a013567ffffffffffffffff8111156136c8576136c7612e00565b5b6136d48c828d016131bf565b9250506101006136e68c828d01613211565b9150509295985092959850929598565b600080600080600080600080610100898b03121561371757613716612dfb565b5b600089013567ffffffffffffffff81111561373557613734612e00565b5b6137418b828c016131bf565b98505060206137528b828c01612ee7565b97505060406137638b828c01612ee7565b96505060606137748b828c01612ee7565b95505060806137858b828c01613211565b94505060a089013567ffffffffffffffff8111156137a6576137a5612e00565b5b6137b28b828c016131bf565b93505060c089013567ffffffffffffffff8111156137d3576137d2612e00565b5b6137df8b828c016131bf565b92505060e06137f08b828c01613211565b9150509295985092959890939650565b61380981612fd1565b811461381457600080fd5b50565b60008135905061382681613800565b92915050565b600080600080600080600080610100898b03121561384d5761384c612dfb565b5b600061385b8b828c01612e4e565b985050602089013567ffffffffffffffff81111561387c5761387b612e00565b5b6138888b828c016131bf565b975050604089013567ffffffffffffffff8111156138a9576138a8612e00565b5b6138b58b828c016131bf565b965050606089013567ffffffffffffffff8111156138d6576138d5612e00565b5b6138e28b828c016131bf565b95505060806138f38b828c01613817565b94505060a089013567ffffffffffffffff81111561391457613913612e00565b5b6139208b828c016131bf565b93505060c089013567ffffffffffffffff81111561394157613940612e00565b5b61394d8b828c016131bf565b92505060e061395e8b828c01613817565b9150509295985092959890939650565b61397781612e25565b82525050565b6000602082019050613992600083018461396e565b92915050565b600080600080600080600060e0888a0312156139b7576139b6612dfb565b5b60006139c58a828b01612ee7565b975050602088013567ffffffffffffffff8111156139e6576139e5612e00565b5b6139f28a828b016131bf565b9650506040613a038a828b01612ee7565b9550506060613a148a828b01612ee7565b9450506080613a258a828b01612ee7565b93505060a0613a368a828b0161323d565b92505060c0613a478a828b01613211565b91505092959891949750929550565b60008060008060008060c08789031215613a7357613a72612dfb565b5b600087013567ffffffffffffffff811115613a9157613a90612e00565b5b613a9d89828a016131bf565b9650506020613aae89828a01612ee7565b9550506040613abf89828a01612ee7565b9450506060613ad089828a01612ee7565b9350506080613ae189828a01613211565b92505060a087013567ffffffffffffffff811115613b0257613b01612e00565b5b613b0e89828a016131bf565b9150509295509295509295565b613b24816131ed565b82525050565b613b3381612e90565b82525050565b600061010083016000830151613b526000860182612ff0565b5060208301518482036020860152613b6a8282612f98565b9150506040830151613b7f6040860182612ff0565b506060830151613b926060860182612ff0565b506080830151613ba56080860182612ff0565b5060a0830151613bb860a0860182613b1b565b5060c0830151613bcb60c0860182613b2a565b5060e0830151613bde60e0860182612ff0565b508091505092915050565b60006020820190508181036000830152613c038184613b39565b905092915050565b600080600080600060a08688031215613c2757613c26612dfb565b5b600086013567ffffffffffffffff811115613c4557613c44612e00565b5b613c51888289016131bf565b9550506020613c6288828901612ee7565b9450506040613c7388828901612ee7565b9350506060613c8488828901612ee7565b9250506080613c9588828901613211565b9150509295509295909350565b600081519050919050565b600082825260208201905092915050565b6000819050602082019050919050565b600060c0830160008301518482036000860152613ceb8282612f98565b9150506020830151613d006020860182612ff0565b506040830151613d136040860182612ff0565b506060830151613d266060860182612ff0565b506080830151613d396080860182613b1b565b5060a0830151613d4c60a0860182612ff0565b508091505092915050565b6000613d638383613cce565b905092915050565b6000602082019050919050565b6000613d8382613ca2565b613d8d8185613cad565b935083602082028501613d9f85613cbe565b8060005b85811015613ddb5784840389528151613dbc8582613d57565b9450613dc783613d6b565b925060208a01995050600181019050613da3565b50829750879550505050505092915050565b600081519050919050565b600082825260208201905092915050565b6000819050602082019050919050565b600061010083016000830151613e326000860182612ff0565b5060208301518482036020860152613e4a8282612f98565b9150506040830151613e5f6040860182612ff0565b506060830151613e726060860182612ff0565b506080830151613e856080860182612ff0565b5060a0830151613e9860a0860182613b1b565b5060c0830151613eab60c0860182613b2a565b5060e0830151613ebe60e0860182612ff0565b508091505092915050565b6000613ed58383613e19565b905092915050565b6000602082019050919050565b6000613ef582613ded565b613eff8185613df8565b935083602082028501613f1185613e09565b8060005b85811015613f4d5784840389528151613f2e8582613ec9565b9450613f3983613edd565b925060208a01995050600181019050613f15565b50829750879550505050505092915050565b60006040820190508181036000830152613f798185613d78565b90508181036020830152613f8d8184613eea565b90509392505050565b60006020820190508181036000830152613fb08184613eea565b905092915050565b600060c0830160008301518482036000860152613fd58282612f98565b9150506020830151613fea6020860182612ff0565b506040830151613ffd6040860182612ff0565b5060608301516140106060860182612ff0565b5060808301516140236080860182613b1b565b5060a083015161403660a0860182612ff0565b508091505092915050565b6000602082019050818103600083015261405b8184613fb8565b905092915050565b6000604082019050818103600083015261407d8185613fb8565b905081810360208301526140918184613eea565b90509392505050565b7f4e487b7100000000000000000000000000000000000000000000000000000000600052603260045260246000fd5b7f4e487b7100000000000000000000000000000000000000000000000000000000600052602260045260246000fd5b6000600282049050600182168061411057607f821691505b60208210811415614124576141236140c9565b5b50919050565b600082825260208201905092915050565b600061414682612f38565b614150818561412a565b9350614160818560208601612f54565b61416981612f87565b840191505092915050565b6000606082019050818103600083015261418e818661413b565b905061419d6020830185612e9c565b6141aa6040830184613592565b949350505050565b600060608201905081810360008301526141cc818661413b565b905081810360208301526141e0818561413b565b90506141ef6040830184613592565b949350505050565b614200816131ed565b82525050565b600060a0820190508181036000830152614220818861413b565b90508181036020830152614234818761413b565b90508181036040830152614248818661413b565b905061425760608301856141f7565b6142646080830184613592565b9695505050505050565b7f4e487b7100000000000000000000000000000000000000000000000000000000600052601160045260246000fd5b60006142a882612ec6565b91506142b383612ec6565b9250828210156142c6576142c561426e565b5b828203905092915050565b600060808201905081810360008301526142eb818761413b565b905081810360208301526142ff818661413b565b905061430e60408301856141f7565b61431b6060830184613592565b95945050505050565b600061432f82612fd1565b915061433a83612fd1565b92508263ffffffff038211156143535761435261426e565b5b828201905092915050565b60006040820190508181036000830152614378818561413b565b90506143876020830184613592565b9392505050565b600061439982612fd1565b91506143a483612fd1565b9250828210156143b7576143b661426e565b5b828203905092915050565b60006143cd82612fd1565b915063ffffffff8214156143e4576143e361426e565b5b600182019050919050565b60006143fa82612ec6565b91507fffffffffffffffffffffffffffffffffffffffffffffffffffffffffffffffff82141561442d5761442c61426e565b5b60018201905091905056fea2646970667358221220deb6b6c884d0e9fd52236ec862cf3bf8e3bc176d22d5209a5eb3a83205880bd264736f6c634300080c0033",
  "immutableReferences": {},
  "source": "// SPDX-License-Identifier: MIT\r\npragma solidity >=0.7.0 <0.9.10;\r\nimport \"./DataStruct.sol\";\r\n\r\ncontract Main {\r\n    address public dataStructsAdd;\r\n\r\n    constructor (address _dataSAdd){\r\n        dataStructsAdd = _dataSAdd;\r\n    }\r\n\r\n    //EVENTS\r\n    event NewOrganization(address user, string name);\r\n    event LogNewUser(\r\n        address indexed userAddress,\r\n        uint256 index,\r\n        bytes32 userEmail,\r\n        uint256 userAge\r\n    );\r\n\r\n    //STRUCTS\r\n    struct Organization {\r\n        address admin;\r\n        string name;\r\n        string addressO;\r\n        uint32 telephone;\r\n        uint256 index;\r\n    }\r\n\r\n    struct Admin {\r\n        address admin;\r\n        string name;\r\n        string lastname;\r\n        string email;\r\n        uint32 telephone;\r\n        uint256 index;\r\n    }\r\n\r\n    //DATA\r\n    Organization[] private organizations;\r\n    uint256 orgCount;\r\n\r\n    Admin[] private admins;\r\n    uint256 adminsCount;\r\n\r\n    //List of users with a org created (administrators)\r\n    address[] private administrators;\r\n\r\n    mapping(address => uint256) public addressToOrganizationIndex;\r\n\r\n    //FUNCTIONS\r\n\r\n    //data created with organization\r\n    function insertOrgAndAdmin(\r\n        address admin,\r\n        string memory name,\r\n        string memory lastname,\r\n        string memory email,\r\n        uint32 adTelephone,\r\n        string memory orgName,\r\n        string memory orgAddress,\r\n        uint32 orgTelephone\r\n    ) public {\r\n        if (isAdministrator(admin)) revert();\r\n        insertAdmin(admin, name, lastname, email, adTelephone);\r\n        insertOrganization(admin, orgName, orgAddress, orgTelephone);\r\n        administrators.push(admin);\r\n    }\r\n\r\n    function insertAdmin(\r\n        address admin,\r\n        string memory name,\r\n        string memory lastname,\r\n        string memory email,\r\n        uint32 telephone\r\n    ) private {\r\n        admins.push(\r\n            (Admin(admin, name, lastname, email, telephone, admins.length))\r\n        );\r\n        adminsCount++;\r\n    }\r\n\r\n    function insertOrganization(\r\n        address userAddress,\r\n        string memory name,\r\n        string memory addressO,\r\n        uint32 telephone\r\n    ) private {\r\n        organizations.push(\r\n            Organization(\r\n                userAddress,\r\n                name,\r\n                addressO,\r\n                telephone,\r\n                organizations.length\r\n            )\r\n        );\r\n        orgCount++;\r\n        uint256 id = organizations.length - 1;\r\n        addressToOrganizationIndex[userAddress] = id;\r\n        //Create the mapping with 0 assets edited and 0 deleted\r\n        organizationNumberOfAssetsED[id].push(0);\r\n        organizationNumberOfAssetsED[id].push(0);\r\n    }\r\n\r\n    // Check if the address has created a org, == is an administrator.\r\n    function isAdministrator(address userAddress)\r\n        public\r\n        view\r\n        returns (bool isIndeed)\r\n    {\r\n        if (administrators.length == 0) return false;\r\n        return (administrators[addressToOrganizationIndex[userAddress]] ==\r\n            userAddress);\r\n    }\r\n\r\n    function getOrg(uint256 _orgId) public view returns (Organization memory) {\r\n        return organizations[_orgId];\r\n    }\r\n\r\n    function getAdminToOrg(address userAddress)\r\n        public\r\n        view\r\n        returns (uint256 userid)\r\n    {\r\n        return addressToOrganizationIndex[userAddress];\r\n    }\r\n\r\n    //Get the organization if there is an address that created it\r\n    function getOrgFromAddress(address userAddress)\r\n        public\r\n        view\r\n        returns (Organization memory org)\r\n    {\r\n        if (isAdministrator(userAddress)) revert();\r\n        uint256 orgId = getAdminToOrg(userAddress);\r\n        Organization memory organ = getOrg(orgId);\r\n        return organ;\r\n    }\r\n\r\n    //ASSETS TYPE AND FUNCTIONS\r\n    struct Asset {\r\n        string name;\r\n        uint256 organizationId;\r\n        uint256 adquireDate;\r\n        uint256 creationDate;\r\n        uint8 assetType;\r\n        uint256 index;\r\n    }\r\n\r\n    struct datasoft {\r\n        string name;\r\n    }\r\n\r\n    Asset[] private assetsList;\r\n    //uint256 orgCount;\r\n\r\n    //UNNECESARY MAPPING\r\n    //mapping(uint256 => uint256) private assetToOrg;\r\n\r\n    //CREAR UN MAPPING DE ORGANIZACIN (ID) A LISTA DE ASSETS (ID)?\r\n    mapping(uint256 => uint256[]) private assetsFromOrg;\r\n\r\n    \r\n\r\n    //ASSET EDITED INTRODUCES A BOOL DELETED\r\n    struct AssetEdited {\r\n        uint256 originalAssetId;\r\n        string name;\r\n        uint256 organizationId;\r\n        uint256 adquireDate;\r\n        uint256 creationDate;\r\n        uint8 assetType;\r\n        bool deleted;\r\n        uint256 index;\r\n\r\n        //uint fechafin;\r\n\r\n    }\r\n\r\n    AssetEdited[] private assetsEditedList;\r\n    //ASSETS ORIGINAL TO LIST OF ASSETS EDITED\r\n    mapping(uint256 => uint256[]) private originalAssetsToEditedList;\r\n\r\n    function insertAsset(\r\n        string memory name,\r\n        uint256 organizationId,\r\n        uint256 adquireDate,\r\n        uint256 creationDate,\r\n        uint8 assetType\r\n    ) public {\r\n        assetsList.push(\r\n            (\r\n                Asset(\r\n                    name,\r\n                    organizationId,\r\n                    adquireDate,\r\n                    creationDate,\r\n                    assetType,\r\n                    assetsList.length\r\n                )\r\n            )\r\n        );\r\n        //adminsCount++;\r\n        assetsFromOrg[organizationId].push(assetsList.length - 1);\r\n        assetBoolEditedAndDeleted[assetsList.length - 1].push(false);\r\n        assetBoolEditedAndDeleted[assetsList.length - 1].push(false);\r\n        originalAssetsToEditedList[assetsList.length - 1];\r\n    }\r\n\r\n    //CREATE A FUNCTION FOR EACH INSERTED ASSET TYPE\r\n    function insertNewSoftAsset(string memory name,\r\n        uint256 organizationId,\r\n        uint256 adquireDate,\r\n        uint256 creationDate,\r\n        uint8 assetType,\r\n        string memory version, \r\n        string memory provider, \r\n        uint8 stype) public {\r\n            \r\n        insertAsset(name, organizationId, adquireDate, creationDate, assetType);\r\n        uint assetId = assetsList.length - 1; \r\n        DataStructs DS = DataStructs(dataStructsAdd);\r\n        DS.insertSoftware(version, provider, stype, assetId);\r\n    }\r\n\r\n    function insertNewHardAsset(string memory name,\r\n        uint256 organizationId,\r\n        uint256 adquireDate,\r\n        uint256 creationDate,\r\n        uint8 assetType,\r\n        string memory model, \r\n        string memory provider, \r\n        string memory serialNumber, \r\n        uint8 htype) public {\r\n        \r\n        uint assetId = assetsList.length; \r\n        insertAsset(name, organizationId, adquireDate, creationDate, assetType);\r\n        \r\n        DataStructs DS = DataStructs(dataStructsAdd);\r\n        DS.insertHardware(model, provider, serialNumber, htype, assetId);\r\n    }\r\n\r\n    function insertNewDocAsset(string memory name,\r\n        uint256 organizationId,\r\n        uint256 adquireDate,\r\n        uint256 creationDate,\r\n        uint8 assetType,\r\n        string memory description,\r\n        string memory location,\r\n        uint8 doctype) public {\r\n        \r\n        uint assetId = assetsList.length; \r\n        insertAsset(name, organizationId, adquireDate, creationDate, assetType);\r\n        \r\n        DataStructs DS = DataStructs(dataStructsAdd);\r\n        DS.insertDocument(description, location, doctype, assetId);\r\n    }\r\n\r\n    function insertNewDataAsset(string memory name,\r\n        uint256 organizationId,\r\n        uint256 adquireDate,\r\n        uint256 creationDate,\r\n        uint8 assetType,\r\n        string memory location, \r\n        bool local) public {\r\n        \r\n        uint assetId = assetsList.length; \r\n        insertAsset(name, organizationId, adquireDate, creationDate, assetType);\r\n        \r\n        DataStructs DS = DataStructs(dataStructsAdd);\r\n        DS.insertData(location, local, assetId);\r\n    }\r\n\r\n    function insertNewNetworkAsset(string memory name,\r\n        uint256 organizationId,\r\n        uint256 adquireDate,\r\n        uint256 creationDate,\r\n        uint8 assetType,\r\n        string memory cidrblock, \r\n        bool nat) public {\r\n        \r\n        uint assetId = assetsList.length; \r\n        insertAsset(name, organizationId, adquireDate, creationDate, assetType);\r\n        \r\n        DataStructs DS = DataStructs(dataStructsAdd);\r\n        DS.insertNetwork(cidrblock, nat, assetId);\r\n    }\r\n\r\n    function insertNewCloudAsset(string memory name,\r\n        uint256 organizationId,\r\n        uint256 adquireDate,\r\n        uint256 creationDate,\r\n        uint8 assetType,\r\n        string memory url, \r\n        string memory domain) public {\r\n        \r\n        uint assetId = assetsList.length; \r\n        insertAsset(name, organizationId, adquireDate, creationDate, assetType);\r\n        DataStructs DS = DataStructs(dataStructsAdd);\r\n        DS.insertCloud(url, domain, assetId);\r\n    }\r\n\r\n    function insertNewOtherAsset(string memory name,\r\n        uint256 organizationId,\r\n        uint256 adquireDate,\r\n        uint256 creationDate,\r\n        uint8 assetType,\r\n        string memory description) public {\r\n        \r\n        uint assetId = assetsList.length; \r\n        insertAsset(name, organizationId, adquireDate, creationDate, assetType);\r\n        DataStructs DS = DataStructs(dataStructsAdd);\r\n        DS.insertOther(description, assetId);\r\n    }\r\n\r\n    function getLastAssetEdited(uint256 id) public view returns (AssetEdited memory) {\r\n        uint256 lastItem = originalAssetsToEditedList[id].length - 1;\r\n        uint256 assetEditedId = originalAssetsToEditedList[id][lastItem];\r\n        return assetsEditedList[assetEditedId];\r\n    }\r\n\r\n    function getAsset(uint256 id) public view returns (Asset memory) {\r\n        return assetsList[id];\r\n    }\r\n\r\n    function getAdmin(uint256 _adminId) public view returns (Admin memory) {\r\n        return admins[_adminId];\r\n    }\r\n\r\n    function getAllAssetsFromOrg(uint256 _orgId)\r\n        public\r\n        view\r\n        returns (Asset[] memory, AssetEdited[] memory)\r\n    {\r\n        uint32 contEdited = organizationNumberOfAssetsED[_orgId][0];\r\n        uint32 contDeleted = organizationNumberOfAssetsED[_orgId][1];\r\n        uint32 edList = uint32(uint32(contEdited) - uint32(contDeleted));\r\n        uint256 cont = assetsFromOrg[_orgId].length;\r\n        Asset[] memory listOrgAssets = new Asset[](cont-contEdited);\r\n        AssetEdited[] memory listOrgAssetsEdited = new AssetEdited[](edList);\r\n        uint32 bucleEdited = 0;\r\n        uint bucleOriginal = 0;\r\n        for (uint256 i = 0; i < cont; i++) {\r\n            //First check if that asset has been deleted\r\n            //so we don't retrieve it\r\n            if (assetBoolEditedAndDeleted[i][1]) {\r\n                continue;\r\n            }\r\n            //Check if asset has been edited in order\r\n            //to retrieve last edited asset\r\n            if (assetBoolEditedAndDeleted[i][0] == true) {\r\n                uint256 lastItem = originalAssetsToEditedList[i].length - 1;\r\n                uint256 assetEditedId = originalAssetsToEditedList[i][lastItem];\r\n                listOrgAssetsEdited[bucleEdited] = assetsEditedList[assetEditedId];\r\n                bucleEdited++;\r\n                //Last case the asset hasn't been edited\r\n            } else {\r\n                uint256 assetId = assetsFromOrg[_orgId][i];\r\n                listOrgAssets[bucleOriginal] = assetsList[assetId];\r\n                bucleOriginal++;\r\n            }\r\n        }\r\n        return (listOrgAssets, listOrgAssetsEdited);\r\n    }\r\n\r\n\r\n    //MAPPING ID OF WITH THE LIST OF NUMBER OF ASSETS EDITED AND DELETED\r\n    mapping(uint256 => uint32[]) private organizationNumberOfAssetsED;\r\n\r\n\r\n    //CREAR MAPPING DE ID ORIGINAL A LIST OF BOOLEAN\r\n    // QUE INDICA SI EL ID EST EDITADO EN EL PRIMER VALOR\r\n    // EN EL SEGUNDO VALOR INDICA SI EST ELIMINADO\r\n    mapping(uint256 => bool[]) private assetBoolEditedAndDeleted;\r\n    //DE ESTA MANERA PODEMOS VER EN CADA CASO EL ID SI EST EDITADO O ELIMINADO\r\n\r\n    //mapping que relaciona la org con los assets que tiene eliminados\r\n    mapping(uint256 => uint256[]) private assetsFromOrgDeleted;\r\n\r\n    function insertEditedAsset(\r\n        uint256 originalAssetId,\r\n        string memory name,\r\n        uint256 organizationId,\r\n        uint256 adquireDate,\r\n        uint256 creationDate,\r\n        bool deleted,\r\n        uint8 assetType\r\n    ) public {\r\n        //CHECK IF THE ASSET IS ALREADY IN ASSETS EDITED LIST\r\n        \r\n        assetsEditedList.push(\r\n            (\r\n                AssetEdited(\r\n                    originalAssetId,\r\n                    name,\r\n                    organizationId,\r\n                    adquireDate,\r\n                    creationDate,\r\n                    assetType,\r\n                    deleted,\r\n                    assetsEditedList.length\r\n                )\r\n            )\r\n        );\r\n        uint256 id = assetsEditedList.length - 1;\r\n        if (!assetBoolEditedAndDeleted[originalAssetId][0]) {\r\n            assetBoolEditedAndDeleted[originalAssetId][0] = true;\r\n            uint32 ed = organizationNumberOfAssetsED[organizationId][0]+1;\r\n            organizationNumberOfAssetsED[organizationId][0] = ed;\r\n        }\r\n        originalAssetsToEditedList[originalAssetId].push(id);\r\n        \r\n        if (deleted == true) {\r\n            assetsFromOrgDeleted[organizationId].push(\r\n                assetsEditedList.length - 1\r\n            );\r\n            assetBoolEditedAndDeleted[originalAssetId][1] = true;\r\n            uint32 de = organizationNumberOfAssetsED[organizationId][1]+1;\r\n            organizationNumberOfAssetsED[organizationId][1] = de;\r\n        }\r\n    }\r\n\r\n    function getRecordList(uint assetId) public view returns (Asset memory, AssetEdited[] memory) {\r\n        Asset memory original = assetsList[assetId];\r\n        uint len = originalAssetsToEditedList[assetId].length;\r\n        AssetEdited[] memory listEdited = new AssetEdited[](len);\r\n        for (uint256 i = 0; i < len; i++) {\r\n            uint num = originalAssetsToEditedList[assetId][i];\r\n            listEdited[i] = assetsEditedList[num];\r\n        }\r\n        return (original, listEdited);\r\n     }\r\n\r\n    function getAssetEdited(uint256 id) public view returns (AssetEdited memory) {\r\n        return assetsEditedList[id];\r\n    }\r\n\r\n    function getAssetsDeleted(uint256 orgId)\r\n        public\r\n        view\r\n        returns (AssetEdited[] memory)\r\n    {\r\n        uint256 cont = assetsFromOrgDeleted[orgId].length;\r\n        AssetEdited[] memory listAssetsDeleted = new AssetEdited[](cont);\r\n        for (uint256 i = 0; i < cont; i++) {\r\n            uint256 id = assetsFromOrgDeleted[orgId][i];\r\n            listAssetsDeleted[i] = assetsEditedList[id];\r\n        }\r\n        return listAssetsDeleted;\r\n    }\r\n\r\n    function getIsAssetEdited(uint256 idAsset)\r\n        public\r\n        view\r\n        returns (bool result)\r\n    {\r\n        return assetBoolEditedAndDeleted[idAsset][0];\r\n    }\r\n\r\n    function getIsAssetDeleted(uint256 idAsset)\r\n        public\r\n        view\r\n        returns (bool result)\r\n    {\r\n        return assetBoolEditedAndDeleted[idAsset][1];\r\n    }\r\n\r\n    function getOrgNumEdited(uint orgId) public view returns (uint numEdited) {\r\n        return organizationNumberOfAssetsED[orgId][0];\r\n    }\r\n\r\n    function getOrgNumDeleted(uint orgId) public view returns (uint numDeleted) {\r\n        return organizationNumberOfAssetsED[orgId][1];\r\n    }\r\n\r\n    function getEdDeList(uint assetId) public view returns (uint[] memory listEdited) {\r\n        return originalAssetsToEditedList[assetId];\r\n    }\r\n}\r\n",
  "sourcePath": "D:\\GIT\\inventory-blockchain\\blockchain\\contracts\\Main.sol",
  "compiler": {
    "name": "solc",
    "version": "0.8.12+commit.f00d7308.Emscripten.clang"
  },
  "schemaVersion": "3.4.6",
  "updatedAt": "2022-04-30T23:33:12.237Z",
  "networkType": "ethereum",
  "devdoc": {
    "kind": "dev",
    "methods": {},
    "version": 1
  },
  "userdoc": {
    "kind": "user",
    "methods": {},
    "version": 1
  }
}