{
  "contractName": "Main",
  "abi": [
    {
      "inputs": [
        {
          "internalType": "address",
          "name": "_dataSAdd",
          "type": "address"
        }
      ],
      "stateMutability": "nonpayable",
      "type": "constructor"
    },
    {
      "anonymous": false,
      "inputs": [
        {
          "indexed": true,
          "internalType": "address",
          "name": "userAddress",
          "type": "address"
        },
        {
          "indexed": false,
          "internalType": "uint256",
          "name": "index",
          "type": "uint256"
        },
        {
          "indexed": false,
          "internalType": "bytes32",
          "name": "userEmail",
          "type": "bytes32"
        },
        {
          "indexed": false,
          "internalType": "uint256",
          "name": "userAge",
          "type": "uint256"
        }
      ],
      "name": "LogNewUser",
      "type": "event"
    },
    {
      "anonymous": false,
      "inputs": [
        {
          "indexed": false,
          "internalType": "address",
          "name": "user",
          "type": "address"
        },
        {
          "indexed": false,
          "internalType": "string",
          "name": "orgName",
          "type": "string"
        }
      ],
      "name": "NewOrg",
      "type": "event"
    },
    {
      "inputs": [
        {
          "internalType": "address",
          "name": "",
          "type": "address"
        }
      ],
      "name": "addressToOrganizationIndex",
      "outputs": [
        {
          "internalType": "uint256",
          "name": "",
          "type": "uint256"
        }
      ],
      "stateMutability": "view",
      "type": "function",
      "constant": true
    },
    {
      "inputs": [
        {
          "internalType": "uint256",
          "name": "",
          "type": "uint256"
        }
      ],
      "name": "administrators",
      "outputs": [
        {
          "internalType": "address",
          "name": "",
          "type": "address"
        }
      ],
      "stateMutability": "view",
      "type": "function",
      "constant": true
    },
    {
      "inputs": [
        {
          "internalType": "uint256",
          "name": "",
          "type": "uint256"
        }
      ],
      "name": "assetsList",
      "outputs": [
        {
          "internalType": "string",
          "name": "name",
          "type": "string"
        },
        {
          "internalType": "uint256",
          "name": "organizationId",
          "type": "uint256"
        },
        {
          "internalType": "uint256",
          "name": "adquireDate",
          "type": "uint256"
        },
        {
          "internalType": "uint256",
          "name": "creationDate",
          "type": "uint256"
        },
        {
          "internalType": "uint8",
          "name": "assetType",
          "type": "uint8"
        },
        {
          "internalType": "uint256",
          "name": "assetDepart",
          "type": "uint256"
        },
        {
          "internalType": "uint256",
          "name": "index",
          "type": "uint256"
        }
      ],
      "stateMutability": "view",
      "type": "function",
      "constant": true
    },
    {
      "inputs": [],
      "name": "dataStructsAdd",
      "outputs": [
        {
          "internalType": "address",
          "name": "",
          "type": "address"
        }
      ],
      "stateMutability": "view",
      "type": "function",
      "constant": true
    },
    {
      "inputs": [],
      "name": "orgCount",
      "outputs": [
        {
          "internalType": "uint256",
          "name": "",
          "type": "uint256"
        }
      ],
      "stateMutability": "view",
      "type": "function",
      "constant": true
    },
    {
      "inputs": [
        {
          "internalType": "address",
          "name": "admin",
          "type": "address"
        },
        {
          "internalType": "string",
          "name": "name",
          "type": "string"
        },
        {
          "internalType": "string",
          "name": "lastname",
          "type": "string"
        },
        {
          "internalType": "string",
          "name": "email",
          "type": "string"
        },
        {
          "internalType": "uint32",
          "name": "adTelephone",
          "type": "uint32"
        },
        {
          "internalType": "string",
          "name": "orgName",
          "type": "string"
        },
        {
          "internalType": "string",
          "name": "orgAddress",
          "type": "string"
        },
        {
          "internalType": "uint32",
          "name": "orgTelephone",
          "type": "uint32"
        }
      ],
      "name": "insertOrgAndAdmin",
      "outputs": [],
      "stateMutability": "nonpayable",
      "type": "function"
    },
    {
      "inputs": [
        {
          "internalType": "address",
          "name": "userAddress",
          "type": "address"
        }
      ],
      "name": "isAdministrator",
      "outputs": [
        {
          "internalType": "bool",
          "name": "isIndeed",
          "type": "bool"
        }
      ],
      "stateMutability": "view",
      "type": "function",
      "constant": true
    },
    {
      "inputs": [
        {
          "internalType": "address",
          "name": "addr",
          "type": "address"
        },
        {
          "internalType": "uint256",
          "name": "orgId",
          "type": "uint256"
        }
      ],
      "name": "isAdminFromOrg",
      "outputs": [
        {
          "internalType": "bool",
          "name": "",
          "type": "bool"
        }
      ],
      "stateMutability": "view",
      "type": "function",
      "constant": true
    },
    {
      "inputs": [
        {
          "internalType": "uint256",
          "name": "_orgId",
          "type": "uint256"
        }
      ],
      "name": "getOrg",
      "outputs": [
        {
          "components": [
            {
              "internalType": "address",
              "name": "admin",
              "type": "address"
            },
            {
              "internalType": "string",
              "name": "name",
              "type": "string"
            },
            {
              "internalType": "string",
              "name": "addressO",
              "type": "string"
            },
            {
              "internalType": "uint32",
              "name": "telephone",
              "type": "uint32"
            },
            {
              "internalType": "uint256",
              "name": "index",
              "type": "uint256"
            }
          ],
          "internalType": "struct Main.Organization",
          "name": "",
          "type": "tuple"
        }
      ],
      "stateMutability": "view",
      "type": "function",
      "constant": true
    },
    {
      "inputs": [],
      "name": "getIdAsset",
      "outputs": [
        {
          "internalType": "uint256",
          "name": "id",
          "type": "uint256"
        }
      ],
      "stateMutability": "view",
      "type": "function",
      "constant": true
    },
    {
      "inputs": [
        {
          "internalType": "address",
          "name": "userAddress",
          "type": "address"
        }
      ],
      "name": "getAdminToOrg",
      "outputs": [
        {
          "internalType": "uint256",
          "name": "userid",
          "type": "uint256"
        }
      ],
      "stateMutability": "view",
      "type": "function",
      "constant": true
    },
    {
      "inputs": [
        {
          "internalType": "address",
          "name": "userAddress",
          "type": "address"
        }
      ],
      "name": "getOrgFromAddress",
      "outputs": [
        {
          "components": [
            {
              "internalType": "address",
              "name": "admin",
              "type": "address"
            },
            {
              "internalType": "string",
              "name": "name",
              "type": "string"
            },
            {
              "internalType": "string",
              "name": "addressO",
              "type": "string"
            },
            {
              "internalType": "uint32",
              "name": "telephone",
              "type": "uint32"
            },
            {
              "internalType": "uint256",
              "name": "index",
              "type": "uint256"
            }
          ],
          "internalType": "struct Main.Organization",
          "name": "org",
          "type": "tuple"
        }
      ],
      "stateMutability": "view",
      "type": "function",
      "constant": true
    },
    {
      "inputs": [
        {
          "internalType": "string",
          "name": "name",
          "type": "string"
        },
        {
          "internalType": "uint256",
          "name": "organizationId",
          "type": "uint256"
        },
        {
          "internalType": "uint256",
          "name": "adquireDate",
          "type": "uint256"
        },
        {
          "internalType": "uint256",
          "name": "creationDate",
          "type": "uint256"
        },
        {
          "internalType": "uint8",
          "name": "assetType",
          "type": "uint8"
        },
        {
          "internalType": "uint256",
          "name": "assetDepart",
          "type": "uint256"
        }
      ],
      "name": "insertAsset",
      "outputs": [],
      "stateMutability": "nonpayable",
      "type": "function"
    },
    {
      "inputs": [
        {
          "internalType": "uint256",
          "name": "index",
          "type": "uint256"
        },
        {
          "internalType": "uint256",
          "name": "assetDepartId",
          "type": "uint256"
        }
      ],
      "name": "insertAssetToDepartment",
      "outputs": [],
      "stateMutability": "nonpayable",
      "type": "function"
    },
    {
      "inputs": [
        {
          "internalType": "string",
          "name": "name",
          "type": "string"
        },
        {
          "internalType": "uint256",
          "name": "organizationId",
          "type": "uint256"
        },
        {
          "internalType": "uint256",
          "name": "adquireDate",
          "type": "uint256"
        },
        {
          "internalType": "uint256",
          "name": "creationDate",
          "type": "uint256"
        },
        {
          "internalType": "uint8",
          "name": "assetType",
          "type": "uint8"
        },
        {
          "internalType": "uint256",
          "name": "assetDepart",
          "type": "uint256"
        },
        {
          "internalType": "string",
          "name": "version",
          "type": "string"
        },
        {
          "internalType": "string",
          "name": "provider",
          "type": "string"
        },
        {
          "internalType": "uint8",
          "name": "stype",
          "type": "uint8"
        }
      ],
      "name": "insertNewSoftAsset",
      "outputs": [],
      "stateMutability": "nonpayable",
      "type": "function"
    },
    {
      "inputs": [
        {
          "internalType": "string",
          "name": "name",
          "type": "string"
        },
        {
          "internalType": "uint256",
          "name": "organizationId",
          "type": "uint256"
        },
        {
          "internalType": "uint256",
          "name": "adquireDate",
          "type": "uint256"
        },
        {
          "internalType": "uint256",
          "name": "creationDate",
          "type": "uint256"
        },
        {
          "internalType": "uint8",
          "name": "assetType",
          "type": "uint8"
        },
        {
          "internalType": "uint256",
          "name": "assetDepart",
          "type": "uint256"
        },
        {
          "internalType": "string",
          "name": "model",
          "type": "string"
        },
        {
          "internalType": "string",
          "name": "provider",
          "type": "string"
        },
        {
          "internalType": "string",
          "name": "serialNumber",
          "type": "string"
        },
        {
          "internalType": "uint8",
          "name": "htype",
          "type": "uint8"
        }
      ],
      "name": "insertNewHardAsset",
      "outputs": [],
      "stateMutability": "nonpayable",
      "type": "function"
    },
    {
      "inputs": [
        {
          "internalType": "string",
          "name": "name",
          "type": "string"
        },
        {
          "internalType": "uint256",
          "name": "organizationId",
          "type": "uint256"
        },
        {
          "internalType": "uint256",
          "name": "adquireDate",
          "type": "uint256"
        },
        {
          "internalType": "uint256",
          "name": "creationDate",
          "type": "uint256"
        },
        {
          "internalType": "uint8",
          "name": "assetType",
          "type": "uint8"
        },
        {
          "internalType": "uint256",
          "name": "assetDepart",
          "type": "uint256"
        },
        {
          "internalType": "string",
          "name": "description",
          "type": "string"
        },
        {
          "internalType": "string",
          "name": "location",
          "type": "string"
        },
        {
          "internalType": "uint8",
          "name": "doctype",
          "type": "uint8"
        }
      ],
      "name": "insertNewDocAsset",
      "outputs": [],
      "stateMutability": "nonpayable",
      "type": "function"
    },
    {
      "inputs": [
        {
          "internalType": "string",
          "name": "name",
          "type": "string"
        },
        {
          "internalType": "uint256",
          "name": "organizationId",
          "type": "uint256"
        },
        {
          "internalType": "uint256",
          "name": "adquireDate",
          "type": "uint256"
        },
        {
          "internalType": "uint256",
          "name": "creationDate",
          "type": "uint256"
        },
        {
          "internalType": "uint8",
          "name": "assetType",
          "type": "uint8"
        },
        {
          "internalType": "uint256",
          "name": "assetDepart",
          "type": "uint256"
        },
        {
          "internalType": "string",
          "name": "location",
          "type": "string"
        },
        {
          "internalType": "bool",
          "name": "local",
          "type": "bool"
        }
      ],
      "name": "insertNewDataAsset",
      "outputs": [],
      "stateMutability": "nonpayable",
      "type": "function"
    },
    {
      "inputs": [
        {
          "internalType": "string",
          "name": "name",
          "type": "string"
        },
        {
          "internalType": "uint256",
          "name": "organizationId",
          "type": "uint256"
        },
        {
          "internalType": "uint256",
          "name": "adquireDate",
          "type": "uint256"
        },
        {
          "internalType": "uint256",
          "name": "creationDate",
          "type": "uint256"
        },
        {
          "internalType": "uint8",
          "name": "assetType",
          "type": "uint8"
        },
        {
          "internalType": "uint256",
          "name": "assetDepart",
          "type": "uint256"
        },
        {
          "internalType": "string",
          "name": "cidrblock",
          "type": "string"
        },
        {
          "internalType": "bool",
          "name": "nat",
          "type": "bool"
        }
      ],
      "name": "insertNewNetworkAsset",
      "outputs": [],
      "stateMutability": "nonpayable",
      "type": "function"
    },
    {
      "inputs": [
        {
          "internalType": "string",
          "name": "name",
          "type": "string"
        },
        {
          "internalType": "uint256",
          "name": "organizationId",
          "type": "uint256"
        },
        {
          "internalType": "uint256",
          "name": "adquireDate",
          "type": "uint256"
        },
        {
          "internalType": "uint256",
          "name": "creationDate",
          "type": "uint256"
        },
        {
          "internalType": "uint8",
          "name": "assetType",
          "type": "uint8"
        },
        {
          "internalType": "uint256",
          "name": "assetDepart",
          "type": "uint256"
        },
        {
          "internalType": "string",
          "name": "url",
          "type": "string"
        },
        {
          "internalType": "string",
          "name": "domain",
          "type": "string"
        }
      ],
      "name": "insertNewCloudAsset",
      "outputs": [],
      "stateMutability": "nonpayable",
      "type": "function"
    },
    {
      "inputs": [
        {
          "internalType": "string",
          "name": "name",
          "type": "string"
        },
        {
          "internalType": "uint256",
          "name": "organizationId",
          "type": "uint256"
        },
        {
          "internalType": "uint256",
          "name": "adquireDate",
          "type": "uint256"
        },
        {
          "internalType": "uint256",
          "name": "creationDate",
          "type": "uint256"
        },
        {
          "internalType": "uint8",
          "name": "assetType",
          "type": "uint8"
        },
        {
          "internalType": "uint256",
          "name": "assetDepart",
          "type": "uint256"
        },
        {
          "internalType": "string",
          "name": "description",
          "type": "string"
        }
      ],
      "name": "insertNewOtherAsset",
      "outputs": [],
      "stateMutability": "nonpayable",
      "type": "function"
    },
    {
      "inputs": [
        {
          "internalType": "uint256",
          "name": "id",
          "type": "uint256"
        }
      ],
      "name": "getLastAssetEdited",
      "outputs": [
        {
          "components": [
            {
              "internalType": "uint256",
              "name": "originalAssetId",
              "type": "uint256"
            },
            {
              "internalType": "string",
              "name": "name",
              "type": "string"
            },
            {
              "internalType": "uint256",
              "name": "organizationId",
              "type": "uint256"
            },
            {
              "internalType": "uint256",
              "name": "adquireDate",
              "type": "uint256"
            },
            {
              "internalType": "uint256",
              "name": "creationDate",
              "type": "uint256"
            },
            {
              "internalType": "uint8",
              "name": "assetType",
              "type": "uint8"
            },
            {
              "internalType": "uint256",
              "name": "assetDepart",
              "type": "uint256"
            },
            {
              "internalType": "bool",
              "name": "deleted",
              "type": "bool"
            },
            {
              "internalType": "uint256",
              "name": "index",
              "type": "uint256"
            }
          ],
          "internalType": "struct Main.AssetEdited",
          "name": "",
          "type": "tuple"
        }
      ],
      "stateMutability": "view",
      "type": "function",
      "constant": true
    },
    {
      "inputs": [
        {
          "internalType": "uint256",
          "name": "id",
          "type": "uint256"
        }
      ],
      "name": "getAsset",
      "outputs": [
        {
          "components": [
            {
              "internalType": "string",
              "name": "name",
              "type": "string"
            },
            {
              "internalType": "uint256",
              "name": "organizationId",
              "type": "uint256"
            },
            {
              "internalType": "uint256",
              "name": "adquireDate",
              "type": "uint256"
            },
            {
              "internalType": "uint256",
              "name": "creationDate",
              "type": "uint256"
            },
            {
              "internalType": "uint8",
              "name": "assetType",
              "type": "uint8"
            },
            {
              "internalType": "uint256",
              "name": "assetDepart",
              "type": "uint256"
            },
            {
              "internalType": "uint256",
              "name": "index",
              "type": "uint256"
            }
          ],
          "internalType": "struct Main.Asset",
          "name": "",
          "type": "tuple"
        }
      ],
      "stateMutability": "view",
      "type": "function",
      "constant": true
    },
    {
      "inputs": [
        {
          "internalType": "uint256",
          "name": "_adminId",
          "type": "uint256"
        }
      ],
      "name": "getAdmin",
      "outputs": [
        {
          "components": [
            {
              "internalType": "address",
              "name": "admin",
              "type": "address"
            },
            {
              "internalType": "string",
              "name": "name",
              "type": "string"
            },
            {
              "internalType": "string",
              "name": "lastname",
              "type": "string"
            },
            {
              "internalType": "string",
              "name": "email",
              "type": "string"
            },
            {
              "internalType": "uint32",
              "name": "telephone",
              "type": "uint32"
            },
            {
              "internalType": "uint256",
              "name": "index",
              "type": "uint256"
            }
          ],
          "internalType": "struct Main.Admin",
          "name": "",
          "type": "tuple"
        }
      ],
      "stateMutability": "view",
      "type": "function",
      "constant": true
    },
    {
      "inputs": [
        {
          "internalType": "uint256",
          "name": "_orgId",
          "type": "uint256"
        }
      ],
      "name": "getAllAssetsFromOrg",
      "outputs": [
        {
          "components": [
            {
              "internalType": "string",
              "name": "name",
              "type": "string"
            },
            {
              "internalType": "uint256",
              "name": "organizationId",
              "type": "uint256"
            },
            {
              "internalType": "uint256",
              "name": "adquireDate",
              "type": "uint256"
            },
            {
              "internalType": "uint256",
              "name": "creationDate",
              "type": "uint256"
            },
            {
              "internalType": "uint8",
              "name": "assetType",
              "type": "uint8"
            },
            {
              "internalType": "uint256",
              "name": "assetDepart",
              "type": "uint256"
            },
            {
              "internalType": "uint256",
              "name": "index",
              "type": "uint256"
            }
          ],
          "internalType": "struct Main.Asset[]",
          "name": "",
          "type": "tuple[]"
        },
        {
          "components": [
            {
              "internalType": "uint256",
              "name": "originalAssetId",
              "type": "uint256"
            },
            {
              "internalType": "string",
              "name": "name",
              "type": "string"
            },
            {
              "internalType": "uint256",
              "name": "organizationId",
              "type": "uint256"
            },
            {
              "internalType": "uint256",
              "name": "adquireDate",
              "type": "uint256"
            },
            {
              "internalType": "uint256",
              "name": "creationDate",
              "type": "uint256"
            },
            {
              "internalType": "uint8",
              "name": "assetType",
              "type": "uint8"
            },
            {
              "internalType": "uint256",
              "name": "assetDepart",
              "type": "uint256"
            },
            {
              "internalType": "bool",
              "name": "deleted",
              "type": "bool"
            },
            {
              "internalType": "uint256",
              "name": "index",
              "type": "uint256"
            }
          ],
          "internalType": "struct Main.AssetEdited[]",
          "name": "",
          "type": "tuple[]"
        }
      ],
      "stateMutability": "view",
      "type": "function",
      "constant": true
    },
    {
      "inputs": [
        {
          "internalType": "uint256",
          "name": "originalAssetId",
          "type": "uint256"
        },
        {
          "internalType": "string",
          "name": "name",
          "type": "string"
        },
        {
          "internalType": "uint256",
          "name": "organizationId",
          "type": "uint256"
        },
        {
          "internalType": "uint256",
          "name": "adquireDate",
          "type": "uint256"
        },
        {
          "internalType": "uint256",
          "name": "creationDate",
          "type": "uint256"
        },
        {
          "internalType": "bool",
          "name": "deleted",
          "type": "bool"
        },
        {
          "internalType": "uint8",
          "name": "assetType",
          "type": "uint8"
        },
        {
          "internalType": "uint256",
          "name": "assetDepart",
          "type": "uint256"
        }
      ],
      "name": "insertEditedAsset",
      "outputs": [],
      "stateMutability": "nonpayable",
      "type": "function"
    },
    {
      "inputs": [
        {
          "internalType": "uint256",
          "name": "assetId",
          "type": "uint256"
        }
      ],
      "name": "getRecordList",
      "outputs": [
        {
          "components": [
            {
              "internalType": "string",
              "name": "name",
              "type": "string"
            },
            {
              "internalType": "uint256",
              "name": "organizationId",
              "type": "uint256"
            },
            {
              "internalType": "uint256",
              "name": "adquireDate",
              "type": "uint256"
            },
            {
              "internalType": "uint256",
              "name": "creationDate",
              "type": "uint256"
            },
            {
              "internalType": "uint8",
              "name": "assetType",
              "type": "uint8"
            },
            {
              "internalType": "uint256",
              "name": "assetDepart",
              "type": "uint256"
            },
            {
              "internalType": "uint256",
              "name": "index",
              "type": "uint256"
            }
          ],
          "internalType": "struct Main.Asset",
          "name": "",
          "type": "tuple"
        },
        {
          "components": [
            {
              "internalType": "uint256",
              "name": "originalAssetId",
              "type": "uint256"
            },
            {
              "internalType": "string",
              "name": "name",
              "type": "string"
            },
            {
              "internalType": "uint256",
              "name": "organizationId",
              "type": "uint256"
            },
            {
              "internalType": "uint256",
              "name": "adquireDate",
              "type": "uint256"
            },
            {
              "internalType": "uint256",
              "name": "creationDate",
              "type": "uint256"
            },
            {
              "internalType": "uint8",
              "name": "assetType",
              "type": "uint8"
            },
            {
              "internalType": "uint256",
              "name": "assetDepart",
              "type": "uint256"
            },
            {
              "internalType": "bool",
              "name": "deleted",
              "type": "bool"
            },
            {
              "internalType": "uint256",
              "name": "index",
              "type": "uint256"
            }
          ],
          "internalType": "struct Main.AssetEdited[]",
          "name": "",
          "type": "tuple[]"
        }
      ],
      "stateMutability": "view",
      "type": "function",
      "constant": true
    },
    {
      "inputs": [
        {
          "internalType": "uint256",
          "name": "id",
          "type": "uint256"
        }
      ],
      "name": "getAssetEdited",
      "outputs": [
        {
          "components": [
            {
              "internalType": "uint256",
              "name": "originalAssetId",
              "type": "uint256"
            },
            {
              "internalType": "string",
              "name": "name",
              "type": "string"
            },
            {
              "internalType": "uint256",
              "name": "organizationId",
              "type": "uint256"
            },
            {
              "internalType": "uint256",
              "name": "adquireDate",
              "type": "uint256"
            },
            {
              "internalType": "uint256",
              "name": "creationDate",
              "type": "uint256"
            },
            {
              "internalType": "uint8",
              "name": "assetType",
              "type": "uint8"
            },
            {
              "internalType": "uint256",
              "name": "assetDepart",
              "type": "uint256"
            },
            {
              "internalType": "bool",
              "name": "deleted",
              "type": "bool"
            },
            {
              "internalType": "uint256",
              "name": "index",
              "type": "uint256"
            }
          ],
          "internalType": "struct Main.AssetEdited",
          "name": "",
          "type": "tuple"
        }
      ],
      "stateMutability": "view",
      "type": "function",
      "constant": true
    },
    {
      "inputs": [
        {
          "internalType": "uint256",
          "name": "orgId",
          "type": "uint256"
        }
      ],
      "name": "getAssetsDeleted",
      "outputs": [
        {
          "components": [
            {
              "internalType": "uint256",
              "name": "originalAssetId",
              "type": "uint256"
            },
            {
              "internalType": "string",
              "name": "name",
              "type": "string"
            },
            {
              "internalType": "uint256",
              "name": "organizationId",
              "type": "uint256"
            },
            {
              "internalType": "uint256",
              "name": "adquireDate",
              "type": "uint256"
            },
            {
              "internalType": "uint256",
              "name": "creationDate",
              "type": "uint256"
            },
            {
              "internalType": "uint8",
              "name": "assetType",
              "type": "uint8"
            },
            {
              "internalType": "uint256",
              "name": "assetDepart",
              "type": "uint256"
            },
            {
              "internalType": "bool",
              "name": "deleted",
              "type": "bool"
            },
            {
              "internalType": "uint256",
              "name": "index",
              "type": "uint256"
            }
          ],
          "internalType": "struct Main.AssetEdited[]",
          "name": "",
          "type": "tuple[]"
        }
      ],
      "stateMutability": "view",
      "type": "function",
      "constant": true
    },
    {
      "inputs": [
        {
          "internalType": "uint256",
          "name": "idAsset",
          "type": "uint256"
        }
      ],
      "name": "getIsAssetEdited",
      "outputs": [
        {
          "internalType": "bool",
          "name": "result",
          "type": "bool"
        }
      ],
      "stateMutability": "view",
      "type": "function",
      "constant": true
    },
    {
      "inputs": [
        {
          "internalType": "uint256",
          "name": "idAsset",
          "type": "uint256"
        }
      ],
      "name": "getIsAssetDeleted",
      "outputs": [
        {
          "internalType": "bool",
          "name": "result",
          "type": "bool"
        }
      ],
      "stateMutability": "view",
      "type": "function",
      "constant": true
    },
    {
      "inputs": [
        {
          "internalType": "uint256",
          "name": "orgId",
          "type": "uint256"
        }
      ],
      "name": "getOrgNumEdited",
      "outputs": [
        {
          "internalType": "uint256",
          "name": "numEdited",
          "type": "uint256"
        }
      ],
      "stateMutability": "view",
      "type": "function",
      "constant": true
    },
    {
      "inputs": [
        {
          "internalType": "uint256",
          "name": "orgId",
          "type": "uint256"
        }
      ],
      "name": "getOrgNumDeleted",
      "outputs": [
        {
          "internalType": "uint256",
          "name": "numDeleted",
          "type": "uint256"
        }
      ],
      "stateMutability": "view",
      "type": "function",
      "constant": true
    },
    {
      "inputs": [
        {
          "internalType": "uint256",
          "name": "assetId",
          "type": "uint256"
        }
      ],
      "name": "getEdDeList",
      "outputs": [
        {
          "internalType": "uint256[]",
          "name": "listEdited",
          "type": "uint256[]"
        }
      ],
      "stateMutability": "view",
      "type": "function",
      "constant": true
    },
    {
      "inputs": [
        {
          "internalType": "uint256[]",
          "name": "ids",
          "type": "uint256[]"
        }
      ],
      "name": "retrieveListOfAsset",
      "outputs": [
        {
          "components": [
            {
              "internalType": "string",
              "name": "name",
              "type": "string"
            },
            {
              "internalType": "uint256",
              "name": "organizationId",
              "type": "uint256"
            },
            {
              "internalType": "uint256",
              "name": "adquireDate",
              "type": "uint256"
            },
            {
              "internalType": "uint256",
              "name": "creationDate",
              "type": "uint256"
            },
            {
              "internalType": "uint8",
              "name": "assetType",
              "type": "uint8"
            },
            {
              "internalType": "uint256",
              "name": "assetDepart",
              "type": "uint256"
            },
            {
              "internalType": "uint256",
              "name": "index",
              "type": "uint256"
            }
          ],
          "internalType": "struct Main.Asset[]",
          "name": "",
          "type": "tuple[]"
        },
        {
          "components": [
            {
              "internalType": "uint256",
              "name": "originalAssetId",
              "type": "uint256"
            },
            {
              "internalType": "string",
              "name": "name",
              "type": "string"
            },
            {
              "internalType": "uint256",
              "name": "organizationId",
              "type": "uint256"
            },
            {
              "internalType": "uint256",
              "name": "adquireDate",
              "type": "uint256"
            },
            {
              "internalType": "uint256",
              "name": "creationDate",
              "type": "uint256"
            },
            {
              "internalType": "uint8",
              "name": "assetType",
              "type": "uint8"
            },
            {
              "internalType": "uint256",
              "name": "assetDepart",
              "type": "uint256"
            },
            {
              "internalType": "bool",
              "name": "deleted",
              "type": "bool"
            },
            {
              "internalType": "uint256",
              "name": "index",
              "type": "uint256"
            }
          ],
          "internalType": "struct Main.AssetEdited[]",
          "name": "",
          "type": "tuple[]"
        }
      ],
      "stateMutability": "view",
      "type": "function",
      "constant": true
    },
    {
      "inputs": [
        {
          "internalType": "uint256",
          "name": "orgId",
          "type": "uint256"
        }
      ],
      "name": "retrieveOrgData",
      "outputs": [
        {
          "internalType": "uint256[]",
          "name": "",
          "type": "uint256[]"
        }
      ],
      "stateMutability": "view",
      "type": "function",
      "constant": true
    }
  ],
  "bytecode": "0x60806040523480156200001157600080fd5b50604051620054e9380380620054e98339818101604052810190620000379190620000e8565b806000806101000a81548173ffffffffffffffffffffffffffffffffffffffff021916908373ffffffffffffffffffffffffffffffffffffffff160217905550506200011a565b600080fd5b600073ffffffffffffffffffffffffffffffffffffffff82169050919050565b6000620000b08262000083565b9050919050565b620000c281620000a3565b8114620000ce57600080fd5b50565b600081519050620000e281620000b7565b92915050565b6000602082840312156200010157620001006200007e565b5b60006200011184828501620000d1565b91505092915050565b6153bf806200012a6000396000f3fe608060405234801561001057600080fd5b506004361061021c5760003560e01c80638558b84411610125578063d758fe6d116100ad578063de93f5391161007c578063de93f539146106fb578063e81ef3191461072b578063eac8f5b81461075b578063ece901331461078b578063ef193b22146107a75761021c565b8063d758fe6d14610660578063d81066901461067c578063d89d15101461069a578063de7946fc146106ca5761021c565b8063a1c6d0d0116100f4578063a1c6d0d014610584578063b5e80972146105a0578063c70abaf4146105d0578063c92bc12d14610600578063d05a8870146106305761021c565b80638558b844146104fd5780638ab95a33146105195780639a06ff7f146105355780639c40fd35146105665761021c565b80633dd03539116101a85780634e4369c4116101775780634e4369c41461042f5780635583071b1461045f5780636139e9f41461047b578063653e69ff1461049757806371e85c41146104c75761021c565b80633dd03539146103815780633e4e3b55146103b15780633fc07290146103cf578063415de94c146103ff5761021c565b80632124b4fe116101ef5780632124b4fe146102cd5780632360c27f146102e95780632c98cfa81461031957806331fe8bcd14610335578063329cf967146103655761021c565b80630a2eb301146102215780630b7338a114610251578063111fd88b1461026d578063151c3f441461029d575b600080fd5b61023b60048036038101906102369190613a4b565b6107d8565b6040516102489190613a93565b60405180910390f35b61026b60048036038101906102669190613c63565b6108a4565b005b61028760048036038101906102829190613d81565b610960565b6040516102949190613f0a565b60405180910390f35b6102b760048036038101906102b29190613d81565b610bd8565b6040516102c49190613a93565b60405180910390f35b6102e760048036038101906102e29190613c63565b610c27565b005b61030360048036038101906102fe9190613d81565b610cef565b6040516103109190613fa9565b60405180910390f35b610333600480360381019061032e9190613fcb565b610ed5565b005b61034f600480360381019061034a9190613d81565b610f8b565b60405161035c9190614154565b60405180910390f35b61037f600480360381019061037a9190614176565b610ff6565b005b61039b60048036038101906103969190613d81565b611214565b6040516103a89190614154565b60405180910390f35b6103b9611388565b6040516103c6919061422e565b60405180910390f35b6103e960048036038101906103e49190613a4b565b611395565b6040516103f69190613fa9565b60405180910390f35b61041960048036038101906104149190613a4b565b6113d4565b604051610426919061422e565b60405180910390f35b61044960048036038101906104449190613a4b565b6113ec565b604051610456919061422e565b60405180910390f35b61047960048036038101906104749190614249565b611435565b005b61049560048036038101906104909190614289565b611463565b005b6104b160048036038101906104ac9190613d81565b61151c565b6040516104be919061422e565b60405180910390f35b6104e160048036038101906104dc9190613d81565b611577565b6040516104f497969594939291906143ec565b60405180910390f35b6105176004803603810190610512919061448e565b61165e565b005b610533600480360381019061052e91906145a8565b611717565b005b61054f600480360381019061054a91906147b2565b6117b0565b60405161055d929190614afe565b60405180910390f35b61056e611dd5565b60405161057b9190614b44565b60405180910390f35b61059e6004803603810190610599919061448e565b611df9565b005b6105ba60048036038101906105b59190613d81565b611eb2565b6040516105c79190614c24565b60405180910390f35b6105ea60048036038101906105e59190613d81565b612052565b6040516105f79190614c24565b60405180910390f35b61061a60048036038101906106159190613d81565b612195565b604051610627919061422e565b60405180910390f35b61064a60048036038101906106459190614c46565b6121f0565b6040516106579190613a93565b60405180910390f35b61067a60048036038101906106759190614c86565b612269565b005b61068461268a565b604051610691919061422e565b60405180910390f35b6106b460048036038101906106af9190613d81565b612690565b6040516106c19190614b44565b60405180910390f35b6106e460048036038101906106df9190613d81565b6126cf565b6040516106f2929190614afe565b60405180910390f35b61071560048036038101906107109190613d81565b612c74565b6040516107229190614d58565b60405180910390f35b61074560048036038101906107409190613d81565b612e99565b6040516107529190613a93565b60405180910390f35b61077560048036038101906107709190613d81565b612ee8565b6040516107829190614e16565b60405180910390f35b6107a560048036038101906107a09190614e38565b613005565b005b6107c160048036038101906107bc9190613d81565b6130c4565b6040516107cf929190614f87565b60405180910390f35b60008060058054905014156107f0576000905061089f565b8173ffffffffffffffffffffffffffffffffffffffff166005600660008573ffffffffffffffffffffffffffffffffffffffff1673ffffffffffffffffffffffffffffffffffffffff168152602001908152602001600020548154811061085a57610859614fbe565b5b9060005260206000200160009054906101000a900473ffffffffffffffffffffffffffffffffffffffff1673ffffffffffffffffffffffffffffffffffffffff161490505b919050565b600060078054905090506108bc8a8a8a8a8a8a610ff6565b60008060009054906101000a900473ffffffffffffffffffffffffffffffffffffffff1690508073ffffffffffffffffffffffffffffffffffffffff166382f2e641868686866040518563ffffffff1660e01b81526004016109219493929190614fed565b600060405180830381600087803b15801561093b57600080fd5b505af115801561094f573d6000803e3d6000fd5b505050505050505050505050505050565b610968613808565b6003828154811061097c5761097b614fbe565b5b90600052602060002090600602016040518060c00160405290816000820160009054906101000a900473ffffffffffffffffffffffffffffffffffffffff1673ffffffffffffffffffffffffffffffffffffffff1673ffffffffffffffffffffffffffffffffffffffff1681526020016001820180546109fb9061506f565b80601f0160208091040260200160405190810160405280929190818152602001828054610a279061506f565b8015610a745780601f10610a4957610100808354040283529160200191610a74565b820191906000526020600020905b815481529060010190602001808311610a5757829003601f168201915b50505050508152602001600282018054610a8d9061506f565b80601f0160208091040260200160405190810160405280929190818152602001828054610ab99061506f565b8015610b065780601f10610adb57610100808354040283529160200191610b06565b820191906000526020600020905b815481529060010190602001808311610ae957829003601f168201915b50505050508152602001600382018054610b1f9061506f565b80601f0160208091040260200160405190810160405280929190818152602001828054610b4b9061506f565b8015610b985780601f10610b6d57610100808354040283529160200191610b98565b820191906000526020600020905b815481529060010190602001808311610b7b57829003601f168201915b505050505081526020016004820160009054906101000a900463ffffffff1663ffffffff1663ffffffff1681526020016005820154815250509050919050565b6000600c6000838152602001908152602001600020600081548110610c0057610bff614fbe565b5b90600052602060002090602091828204019190069054906101000a900460ff169050919050565b610c35898989898989610ff6565b60006001600780549050610c4991906150d0565b905060008060009054906101000a900473ffffffffffffffffffffffffffffffffffffffff1690508073ffffffffffffffffffffffffffffffffffffffff1663869c2081868686866040518563ffffffff1660e01b8152600401610cb09493929190614fed565b600060405180830381600087803b158015610cca57600080fd5b505af1158015610cde573d6000803e3d6000fd5b505050505050505050505050505050565b610cf761385a565b60018281548110610d0b57610d0a614fbe565b5b90600052602060002090600502016040518060a00160405290816000820160009054906101000a900473ffffffffffffffffffffffffffffffffffffffff1673ffffffffffffffffffffffffffffffffffffffff1673ffffffffffffffffffffffffffffffffffffffff168152602001600182018054610d8a9061506f565b80601f0160208091040260200160405190810160405280929190818152602001828054610db69061506f565b8015610e035780601f10610dd857610100808354040283529160200191610e03565b820191906000526020600020905b815481529060010190602001808311610de657829003601f168201915b50505050508152602001600282018054610e1c9061506f565b80601f0160208091040260200160405190810160405280929190818152602001828054610e489061506f565b8015610e955780601f10610e6a57610100808354040283529160200191610e95565b820191906000526020600020905b815481529060010190602001808311610e7857829003601f168201915b505050505081526020016003820160009054906101000a900463ffffffff1663ffffffff1663ffffffff1681526020016004820154815250509050919050565b60006007805490509050610eed888888888888610ff6565b60008060009054906101000a900473ffffffffffffffffffffffffffffffffffffffff1690508073ffffffffffffffffffffffffffffffffffffffff1663d00bab3684846040518363ffffffff1660e01b8152600401610f4e929190615104565b600060405180830381600087803b158015610f6857600080fd5b505af1158015610f7c573d6000803e3d6000fd5b50505050505050505050505050565b6060600a6000838152602001908152602001600020805480602002602001604051908101604052809291908181526020018280548015610fea57602002820191906000526020600020905b815481526020019060010190808311610fd6575b50505050509050919050565b60076040518060e001604052808881526020018781526020018681526020018581526020018460ff168152602001838152602001600780549050815250908060018154018082558091505060019003906000526020600020906007020160009091909190915060008201518160000190805190602001906110789291906138a5565b5060208201518160010155604082015181600201556060820151816003015560808201518160040160006101000a81548160ff021916908360ff16021790555060a0820151816005015560c0820151816006015550506008600086815260200190815260200160002060016007805490506110f391906150d0565b9080600181540180825580915050600190039060005260206000200160009091909190915055600c6000600160078054905061112f91906150d0565b8152602001908152602001600020600090806001815401808255809150506001900390600052602060002090602091828204019190069091909190916101000a81548160ff021916908315150217905550600c6000600160078054905061119691906150d0565b8152602001908152602001600020600090806001815401808255809150506001900390600052602060002090602091828204019190069091909190916101000a81548160ff021916908315150217905550600a600060016007805490506111fd91906150d0565b815260200190815260200160002050505050505050565b60606000600367ffffffffffffffff81111561123357611232613ac9565b5b6040519080825280602002602001820160405280156112615781602001602082028036833780820191505090505b50905060086000848152602001908152602001600020805490508160008151811061128f5761128e614fbe565b5b602002602001018181525050600b60008481526020019081526020016000206000815481106112c1576112c0614fbe565b5b90600052602060002090600891828204019190066004029054906101000a900463ffffffff1663ffffffff168160018151811061130157611300614fbe565b5b602002602001018181525050600b600084815260200190815260200160002060018154811061133357611332614fbe565b5b90600052602060002090600891828204019190066004029054906101000a900463ffffffff1663ffffffff168160028151811061137357611372614fbe565b5b60200260200101818152505080915050919050565b6000600780549050905090565b61139d61385a565b6113a6826107d8565b156113b057600080fd5b60006113bb836113ec565b905060006113c882610cef565b90508092505050919050565b60066020528060005260406000206000915090505481565b6000600660008373ffffffffffffffffffffffffffffffffffffffff1673ffffffffffffffffffffffffffffffffffffffff168152602001908152602001600020549050919050565b806007838154811061144a57611449614fbe565b5b9060005260206000209060070201600501819055505050565b6000600780549050905061147b898989898989610ff6565b60008060009054906101000a900473ffffffffffffffffffffffffffffffffffffffff1690508073ffffffffffffffffffffffffffffffffffffffff1663ae4fd28b8585856040518463ffffffff1660e01b81526004016114de93929190615134565b600060405180830381600087803b1580156114f857600080fd5b505af115801561150c573d6000803e3d6000fd5b5050505050505050505050505050565b6000600b600083815260200190815260200160002060018154811061154457611543614fbe565b5b90600052602060002090600891828204019190066004029054906101000a900463ffffffff1663ffffffff169050919050565b6007818154811061158757600080fd5b90600052602060002090600702016000915090508060000180546115aa9061506f565b80601f01602080910402602001604051908101604052809291908181526020018280546115d69061506f565b80156116235780601f106115f857610100808354040283529160200191611623565b820191906000526020600020905b81548152906001019060200180831161160657829003601f168201915b5050505050908060010154908060020154908060030154908060040160009054906101000a900460ff16908060050154908060060154905087565b60006007805490509050611676898989898989610ff6565b60008060009054906101000a900473ffffffffffffffffffffffffffffffffffffffff1690508073ffffffffffffffffffffffffffffffffffffffff1663d84be50a8585856040518463ffffffff1660e01b81526004016116d993929190615179565b600060405180830381600087803b1580156116f357600080fd5b505af1158015611707573d6000803e3d6000fd5b5050505050505050505050505050565b611720886107d8565b1561172a57600080fd5b6117378888888888613407565b61174388848484613570565b6005889080600181540180825580915050600190039060005260206000200160009091909190916101000a81548173ffffffffffffffffffffffffffffffffffffffff021916908373ffffffffffffffffffffffffffffffffffffffff1602179055505050505050505050565b60608060008060005b85518110156118c957600c60008783815181106117d9576117d8614fbe565b5b6020026020010151815260200190815260200160002060008154811061180257611801614fbe565b5b90600052602060002090602091828204019190069054906101000a900460ff16156118a557600c600087838151811061183e5761183d614fbe565b5b6020026020010151815260200190815260200160002060018154811061186757611866614fbe565b5b90600052602060002090602091828204019190069054906101000a900460ff1615611891576118b6565b60018361189e91906151b7565b92506118b5565b6001826118b291906151b7565b91505b5b80806118c19061520d565b9150506117b9565b5060008167ffffffffffffffff8111156118e6576118e5613ac9565b5b60405190808252806020026020018201604052801561191f57816020015b61190c61392b565b8152602001906001900390816119045790505b50905060008367ffffffffffffffff81111561193e5761193d613ac9565b5b60405190808252806020026020018201604052801561197757816020015b61196461396b565b81526020019060019003908161195c5790505b50905060008060005b8951811015611dc357600c60008b83815181106119a05761199f614fbe565b5b602002602001015181526020019081526020016000206001815481106119c9576119c8614fbe565b5b90600052602060002090602091828204019190069054906101000a900460ff16156119f357611db0565b600c60008b8381518110611a0a57611a09614fbe565b5b60200260200101518152602001908152602001600020600081548110611a3357611a32614fbe565b5b90600052602060002090602091828204019190069054906101000a900460ff1615611c545760006001600a60008d8581518110611a7357611a72614fbe565b5b6020026020010151815260200190815260200160002080549050611a9791906150d0565b90506000600a60008d8581518110611ab257611ab1614fbe565b5b602002602001015181526020019081526020016000208281548110611ada57611ad9614fbe565b5b9060005260206000200154905060098181548110611afb57611afa614fbe565b5b90600052602060002090600902016040518061012001604052908160008201548152602001600182018054611b2f9061506f565b80601f0160208091040260200160405190810160405280929190818152602001828054611b5b9061506f565b8015611ba85780601f10611b7d57610100808354040283529160200191611ba8565b820191906000526020600020905b815481529060010190602001808311611b8b57829003601f168201915b505050505081526020016002820154815260200160038201548152602001600482015481526020016005820160009054906101000a900460ff1660ff1660ff168152602001600682015481526020016007820160009054906101000a900460ff16151515158152602001600882015481525050868663ffffffff1681518110611c3457611c33614fbe565b5b60200260200101819052508480611c4a90615256565b9550505050611daf565b60008a8281518110611c6957611c68614fbe565b5b6020026020010151905060078181548110611c8757611c86614fbe565b5b90600052602060002090600702016040518060e0016040529081600082018054611cb09061506f565b80601f0160208091040260200160405190810160405280929190818152602001828054611cdc9061506f565b8015611d295780601f10611cfe57610100808354040283529160200191611d29565b820191906000526020600020905b815481529060010190602001808311611d0c57829003601f168201915b505050505081526020016001820154815260200160028201548152602001600382015481526020016004820160009054906101000a900460ff1660ff1660ff16815260200160058201548152602001600682015481525050868481518110611d9457611d93614fbe565b5b60200260200101819052508280611daa9061520d565b935050505b5b8080611dbb9061520d565b915050611980565b50838397509750505050505050915091565b60008054906101000a900473ffffffffffffffffffffffffffffffffffffffff1681565b60006007805490509050611e11898989898989610ff6565b60008060009054906101000a900473ffffffffffffffffffffffffffffffffffffffff1690508073ffffffffffffffffffffffffffffffffffffffff1663e4c17a378585856040518463ffffffff1660e01b8152600401611e7493929190615179565b600060405180830381600087803b158015611e8e57600080fd5b505af1158015611ea2573d6000803e3d6000fd5b5050505050505050505050505050565b611eba61396b565b60006001600a600085815260200190815260200160002080549050611edf91906150d0565b90506000600a60008581526020019081526020016000208281548110611f0857611f07614fbe565b5b9060005260206000200154905060098181548110611f2957611f28614fbe565b5b90600052602060002090600902016040518061012001604052908160008201548152602001600182018054611f5d9061506f565b80601f0160208091040260200160405190810160405280929190818152602001828054611f899061506f565b8015611fd65780601f10611fab57610100808354040283529160200191611fd6565b820191906000526020600020905b815481529060010190602001808311611fb957829003601f168201915b505050505081526020016002820154815260200160038201548152602001600482015481526020016005820160009054906101000a900460ff1660ff1660ff168152602001600682015481526020016007820160009054906101000a900460ff1615151515815260200160088201548152505092505050919050565b61205a61396b565b6009828154811061206e5761206d614fbe565b5b906000526020600020906009020160405180610120016040529081600082015481526020016001820180546120a29061506f565b80601f01602080910402602001604051908101604052809291908181526020018280546120ce9061506f565b801561211b5780601f106120f05761010080835404028352916020019161211b565b820191906000526020600020905b8154815290600101906020018083116120fe57829003601f168201915b505050505081526020016002820154815260200160038201548152602001600482015481526020016005820160009054906101000a900460ff1660ff1660ff168152602001600682015481526020016007820160009054906101000a900460ff161515151581526020016008820154815250509050919050565b6000600b60008381526020019081526020016000206000815481106121bd576121bc614fbe565b5b90600052602060002090600891828204019190066004029054906101000a900463ffffffff1663ffffffff169050919050565b60008060038054905014156122085760009050612263565b612211836107d8565b61221e5760009050612263565b81600660008573ffffffffffffffffffffffffffffffffffffffff1673ffffffffffffffffffffffffffffffffffffffff168152602001908152602001600020541490505b92915050565b60096040518061012001604052808a81526020018981526020018881526020018781526020018681526020018460ff168152602001838152602001851515815260200160098054905081525090806001815401808255809150506001900390600052602060002090600902016000909190919091506000820151816000015560208201518160010190805190602001906123049291906138a5565b5060408201518160020155606082015181600301556080820151816004015560a08201518160050160006101000a81548160ff021916908360ff16021790555060c0820151816006015560e08201518160070160006101000a81548160ff021916908315150217905550610100820151816008015550506000600160098054905061238f91906150d0565b9050600c60008a81526020019081526020016000206000815481106123b7576123b6614fbe565b5b90600052602060002090602091828204019190069054906101000a900460ff166124e4576001600c60008b815260200190815260200160002060008154811061240357612402614fbe565b5b90600052602060002090602091828204019190066101000a81548160ff02191690831515021790555060006001600b60008a815260200190815260200160002060008154811061245657612455614fbe565b5b90600052602060002090600891828204019190066004029054906101000a900463ffffffff166124869190615283565b905080600b60008a81526020019081526020016000206000815481106124af576124ae614fbe565b5b90600052602060002090600891828204019190066004026101000a81548163ffffffff021916908363ffffffff160217905550505b600a60008a815260200190815260200160002081908060018154018082558091505060019003906000526020600020016000909190919091505560011515841515141561267f57600d6000888152602001908152602001600020600160098054905061255091906150d0565b90806001815401808255809150506001900390600052602060002001600090919091909150556001600c60008b815260200190815260200160002060018154811061259e5761259d614fbe565b5b90600052602060002090602091828204019190066101000a81548160ff02191690831515021790555060006001600b60008a81526020019081526020016000206001815481106125f1576125f0614fbe565b5b90600052602060002090600891828204019190066004029054906101000a900463ffffffff166126219190615283565b905080600b60008a815260200190815260200160002060018154811061264a57612649614fbe565b5b90600052602060002090600891828204019190066004026101000a81548163ffffffff021916908363ffffffff160217905550505b505050505050505050565b60025481565b600581815481106126a057600080fd5b906000526020600020016000915054906101000a900473ffffffffffffffffffffffffffffffffffffffff1681565b6060806000600b60008581526020019081526020016000206000815481106126fa576126f9614fbe565b5b90600052602060002090600891828204019190066004029054906101000a900463ffffffff1690506000600b600086815260200190815260200160002060018154811061274a57612749614fbe565b5b90600052602060002090600891828204019190066004029054906101000a900463ffffffff1690506000818361278091906152bd565b905060006008600088815260200190815260200160002080549050905060008463ffffffff16826127b191906150d0565b67ffffffffffffffff8111156127ca576127c9613ac9565b5b60405190808252806020026020018201604052801561280357816020015b6127f061392b565b8152602001906001900390816127e85790505b50905060008363ffffffff1667ffffffffffffffff81111561282857612827613ac9565b5b60405190808252806020026020018201604052801561286157816020015b61284e61396b565b8152602001906001900390816128465790505b50905060008060005b85811015612c6057600c600082815260200190815260200160002060018154811061289857612897614fbe565b5b90600052602060002090602091828204019190069054906101000a900460ff16156128c257612c4d565b60011515600c60008381526020019081526020016000206000815481106128ec576128eb614fbe565b5b90600052602060002090602091828204019190069054906101000a900460ff1615151415612adc5760006001600a60008481526020019081526020016000208054905061293991906150d0565b90506000600a6000848152602001908152602001600020828154811061296257612961614fbe565b5b906000526020600020015490506009818154811061298357612982614fbe565b5b906000526020600020906009020160405180610120016040529081600082015481526020016001820180546129b79061506f565b80601f01602080910402602001604051908101604052809291908181526020018280546129e39061506f565b8015612a305780601f10612a0557610100808354040283529160200191612a30565b820191906000526020600020905b815481529060010190602001808311612a1357829003601f168201915b505050505081526020016002820154815260200160038201548152602001600482015481526020016005820160009054906101000a900460ff1660ff1660ff168152602001600682015481526020016007820160009054906101000a900460ff16151515158152602001600882015481525050868663ffffffff1681518110612abc57612abb614fbe565b5b60200260200101819052508480612ad290615256565b9550505050612c4c565b6000600860008e81526020019081526020016000208281548110612b0357612b02614fbe565b5b9060005260206000200154905060078181548110612b2457612b23614fbe565b5b90600052602060002090600702016040518060e0016040529081600082018054612b4d9061506f565b80601f0160208091040260200160405190810160405280929190818152602001828054612b799061506f565b8015612bc65780601f10612b9b57610100808354040283529160200191612bc6565b820191906000526020600020905b815481529060010190602001808311612ba957829003601f168201915b505050505081526020016001820154815260200160028201548152602001600382015481526020016004820160009054906101000a900460ff1660ff1660ff16815260200160058201548152602001600682015481525050868481518110612c3157612c30614fbe565b5b60200260200101819052508280612c479061520d565b935050505b5b8080612c589061520d565b91505061286a565b508383995099505050505050505050915091565b60606000600d600084815260200190815260200160002080549050905060008167ffffffffffffffff811115612cad57612cac613ac9565b5b604051908082528060200260200182016040528015612ce657816020015b612cd361396b565b815260200190600190039081612ccb5790505b50905060005b82811015612e8e576000600d60008781526020019081526020016000208281548110612d1b57612d1a614fbe565b5b9060005260206000200154905060098181548110612d3c57612d3b614fbe565b5b90600052602060002090600902016040518061012001604052908160008201548152602001600182018054612d709061506f565b80601f0160208091040260200160405190810160405280929190818152602001828054612d9c9061506f565b8015612de95780601f10612dbe57610100808354040283529160200191612de9565b820191906000526020600020905b815481529060010190602001808311612dcc57829003601f168201915b505050505081526020016002820154815260200160038201548152602001600482015481526020016005820160009054906101000a900460ff1660ff1660ff168152602001600682015481526020016007820160009054906101000a900460ff16151515158152602001600882015481525050838381518110612e6f57612e6e614fbe565b5b6020026020010181905250508080612e869061520d565b915050612cec565b508092505050919050565b6000600c6000838152602001908152602001600020600181548110612ec157612ec0614fbe565b5b90600052602060002090602091828204019190069054906101000a900460ff169050919050565b612ef061392b565b60078281548110612f0457612f03614fbe565b5b90600052602060002090600702016040518060e0016040529081600082018054612f2d9061506f565b80601f0160208091040260200160405190810160405280929190818152602001828054612f599061506f565b8015612fa65780601f10612f7b57610100808354040283529160200191612fa6565b820191906000526020600020905b815481529060010190602001808311612f8957829003601f168201915b505050505081526020016001820154815260200160028201548152602001600382015481526020016004820160009054906101000a900460ff1660ff1660ff168152602001600582015481526020016006820154815250509050919050565b6000600780549050905061301d8b8b8b8b8b8b610ff6565b60008060009054906101000a900473ffffffffffffffffffffffffffffffffffffffff1690508073ffffffffffffffffffffffffffffffffffffffff1663b31d2e3b87878787876040518663ffffffff1660e01b81526004016130849594939291906152f1565b600060405180830381600087803b15801561309e57600080fd5b505af11580156130b2573d6000803e3d6000fd5b50505050505050505050505050505050565b6130cc61392b565b60606000600784815481106130e4576130e3614fbe565b5b90600052602060002090600702016040518060e001604052908160008201805461310d9061506f565b80601f01602080910402602001604051908101604052809291908181526020018280546131399061506f565b80156131865780601f1061315b57610100808354040283529160200191613186565b820191906000526020600020905b81548152906001019060200180831161316957829003601f168201915b505050505081526020016001820154815260200160028201548152602001600382015481526020016004820160009054906101000a900460ff1660ff1660ff1681526020016005820154815260200160068201548152505090506000600a600086815260200190815260200160002080549050905060008167ffffffffffffffff81111561321757613216613ac9565b5b60405190808252806020026020018201604052801561325057816020015b61323d61396b565b8152602001906001900390816132355790505b50905060005b828110156133f8576000600a6000898152602001908152602001600020828154811061328557613284614fbe565b5b90600052602060002001549050600981815481106132a6576132a5614fbe565b5b906000526020600020906009020160405180610120016040529081600082015481526020016001820180546132da9061506f565b80601f01602080910402602001604051908101604052809291908181526020018280546133069061506f565b80156133535780601f1061332857610100808354040283529160200191613353565b820191906000526020600020905b81548152906001019060200180831161333657829003601f168201915b505050505081526020016002820154815260200160038201548152602001600482015481526020016005820160009054906101000a900460ff1660ff1660ff168152602001600682015481526020016007820160009054906101000a900460ff161515151581526020016008820154815250508383815181106133d9576133d8614fbe565b5b60200260200101819052505080806133f09061520d565b915050613256565b50828194509450505050915091565b60036040518060c001604052808773ffffffffffffffffffffffffffffffffffffffff1681526020018681526020018581526020018481526020018363ffffffff168152602001600380549050815250908060018154018082558091505060019003906000526020600020906006020160009091909190915060008201518160000160006101000a81548173ffffffffffffffffffffffffffffffffffffffff021916908373ffffffffffffffffffffffffffffffffffffffff16021790555060208201518160010190805190602001906134e39291906138a5565b5060408201518160020190805190602001906135009291906138a5565b50606082015181600301908051906020019061351d9291906138a5565b5060808201518160040160006101000a81548163ffffffff021916908363ffffffff16021790555060a082015181600501555050600460008154809291906135649061520d565b91905055505050505050565b60016040518060a001604052808673ffffffffffffffffffffffffffffffffffffffff1681526020018581526020018481526020018363ffffffff168152602001600180549050815250908060018154018082558091505060019003906000526020600020906005020160009091909190915060008201518160000160006101000a81548173ffffffffffffffffffffffffffffffffffffffff021916908373ffffffffffffffffffffffffffffffffffffffff16021790555060208201518160010190805190602001906136469291906138a5565b5060408201518160020190805190602001906136639291906138a5565b5060608201518160030160006101000a81548163ffffffff021916908363ffffffff160217905550608082015181600401555050600260008154809291906136aa9061520d565b91905055506000600180805490506136c291906150d0565b905080600660008773ffffffffffffffffffffffffffffffffffffffff1673ffffffffffffffffffffffffffffffffffffffff16815260200190815260200160002081905550600b6000828152602001908152602001600020600090806001815401808255809150506001900390600052602060002090600891828204019190066004029091909190916101000a81548163ffffffff021916908363ffffffff160217905550600b6000828152602001908152602001600020600090806001815401808255809150506001900390600052602060002090600891828204019190066004029091909190916101000a81548163ffffffff021916908363ffffffff1602179055507fc07c5ff5bb34875e0643d771eedd24fe9f65d5fd7bd7e1414863658facc7045285856040516137f9929190615359565b60405180910390a15050505050565b6040518060c00160405280600073ffffffffffffffffffffffffffffffffffffffff168152602001606081526020016060815260200160608152602001600063ffffffff168152602001600081525090565b6040518060a00160405280600073ffffffffffffffffffffffffffffffffffffffff1681526020016060815260200160608152602001600063ffffffff168152602001600081525090565b8280546138b19061506f565b90600052602060002090601f0160209004810192826138d3576000855561391a565b82601f106138ec57805160ff191683800117855561391a565b8280016001018555821561391a579182015b828111156139195782518255916020019190600101906138fe565b5b50905061392791906139bc565b5090565b6040518060e0016040528060608152602001600081526020016000815260200160008152602001600060ff16815260200160008152602001600081525090565b6040518061012001604052806000815260200160608152602001600081526020016000815260200160008152602001600060ff16815260200160008152602001600015158152602001600081525090565b5b808211156139d55760008160009055506001016139bd565b5090565b6000604051905090565b600080fd5b600080fd5b600073ffffffffffffffffffffffffffffffffffffffff82169050919050565b6000613a18826139ed565b9050919050565b613a2881613a0d565b8114613a3357600080fd5b50565b600081359050613a4581613a1f565b92915050565b600060208284031215613a6157613a606139e3565b5b6000613a6f84828501613a36565b91505092915050565b60008115159050919050565b613a8d81613a78565b82525050565b6000602082019050613aa86000830184613a84565b92915050565b600080fd5b600080fd5b6000601f19601f8301169050919050565b7f4e487b7100000000000000000000000000000000000000000000000000000000600052604160045260246000fd5b613b0182613ab8565b810181811067ffffffffffffffff82111715613b2057613b1f613ac9565b5b80604052505050565b6000613b336139d9565b9050613b3f8282613af8565b919050565b600067ffffffffffffffff821115613b5f57613b5e613ac9565b5b613b6882613ab8565b9050602081019050919050565b82818337600083830152505050565b6000613b97613b9284613b44565b613b29565b905082815260208101848484011115613bb357613bb2613ab3565b5b613bbe848285613b75565b509392505050565b600082601f830112613bdb57613bda613aae565b5b8135613beb848260208601613b84565b91505092915050565b6000819050919050565b613c0781613bf4565b8114613c1257600080fd5b50565b600081359050613c2481613bfe565b92915050565b600060ff82169050919050565b613c4081613c2a565b8114613c4b57600080fd5b50565b600081359050613c5d81613c37565b92915050565b60008060008060008060008060006101208a8c031215613c8657613c856139e3565b5b60008a013567ffffffffffffffff811115613ca457613ca36139e8565b5b613cb08c828d01613bc6565b9950506020613cc18c828d01613c15565b9850506040613cd28c828d01613c15565b9750506060613ce38c828d01613c15565b9650506080613cf48c828d01613c4e565b95505060a0613d058c828d01613c15565b94505060c08a013567ffffffffffffffff811115613d2657613d256139e8565b5b613d328c828d01613bc6565b93505060e08a013567ffffffffffffffff811115613d5357613d526139e8565b5b613d5f8c828d01613bc6565b925050610100613d718c828d01613c4e565b9150509295985092959850929598565b600060208284031215613d9757613d966139e3565b5b6000613da584828501613c15565b91505092915050565b613db781613a0d565b82525050565b600081519050919050565b600082825260208201905092915050565b60005b83811015613df7578082015181840152602081019050613ddc565b83811115613e06576000848401525b50505050565b6000613e1782613dbd565b613e218185613dc8565b9350613e31818560208601613dd9565b613e3a81613ab8565b840191505092915050565b600063ffffffff82169050919050565b613e5e81613e45565b82525050565b613e6d81613bf4565b82525050565b600060c083016000830151613e8b6000860182613dae565b5060208301518482036020860152613ea38282613e0c565b91505060408301518482036040860152613ebd8282613e0c565b91505060608301518482036060860152613ed78282613e0c565b9150506080830151613eec6080860182613e55565b5060a0830151613eff60a0860182613e64565b508091505092915050565b60006020820190508181036000830152613f248184613e73565b905092915050565b600060a083016000830151613f446000860182613dae565b5060208301518482036020860152613f5c8282613e0c565b91505060408301518482036040860152613f768282613e0c565b9150506060830151613f8b6060860182613e55565b506080830151613f9e6080860182613e64565b508091505092915050565b60006020820190508181036000830152613fc38184613f2c565b905092915050565b600080600080600080600060e0888a031215613fea57613fe96139e3565b5b600088013567ffffffffffffffff811115614008576140076139e8565b5b6140148a828b01613bc6565b97505060206140258a828b01613c15565b96505060406140368a828b01613c15565b95505060606140478a828b01613c15565b94505060806140588a828b01613c4e565b93505060a06140698a828b01613c15565b92505060c088013567ffffffffffffffff81111561408a576140896139e8565b5b6140968a828b01613bc6565b91505092959891949750929550565b600081519050919050565b600082825260208201905092915050565b6000819050602082019050919050565b60006140dd8383613e64565b60208301905092915050565b6000602082019050919050565b6000614101826140a5565b61410b81856140b0565b9350614116836140c1565b8060005b8381101561414757815161412e88826140d1565b9750614139836140e9565b92505060018101905061411a565b5085935050505092915050565b6000602082019050818103600083015261416e81846140f6565b905092915050565b60008060008060008060c08789031215614193576141926139e3565b5b600087013567ffffffffffffffff8111156141b1576141b06139e8565b5b6141bd89828a01613bc6565b96505060206141ce89828a01613c15565b95505060406141df89828a01613c15565b94505060606141f089828a01613c15565b935050608061420189828a01613c4e565b92505060a061421289828a01613c15565b9150509295509295509295565b61422881613bf4565b82525050565b6000602082019050614243600083018461421f565b92915050565b600080604083850312156142605761425f6139e3565b5b600061426e85828601613c15565b925050602061427f85828601613c15565b9150509250929050565b600080600080600080600080610100898b0312156142aa576142a96139e3565b5b600089013567ffffffffffffffff8111156142c8576142c76139e8565b5b6142d48b828c01613bc6565b98505060206142e58b828c01613c15565b97505060406142f68b828c01613c15565b96505060606143078b828c01613c15565b95505060806143188b828c01613c4e565b94505060a06143298b828c01613c15565b93505060c089013567ffffffffffffffff81111561434a576143496139e8565b5b6143568b828c01613bc6565b92505060e089013567ffffffffffffffff811115614377576143766139e8565b5b6143838b828c01613bc6565b9150509295985092959890939650565b600082825260208201905092915050565b60006143af82613dbd565b6143b98185614393565b93506143c9818560208601613dd9565b6143d281613ab8565b840191505092915050565b6143e681613c2a565b82525050565b600060e0820190508181036000830152614406818a6143a4565b9050614415602083018961421f565b614422604083018861421f565b61442f606083018761421f565b61443c60808301866143dd565b61444960a083018561421f565b61445660c083018461421f565b98975050505050505050565b61446b81613a78565b811461447657600080fd5b50565b60008135905061448881614462565b92915050565b600080600080600080600080610100898b0312156144af576144ae6139e3565b5b600089013567ffffffffffffffff8111156144cd576144cc6139e8565b5b6144d98b828c01613bc6565b98505060206144ea8b828c01613c15565b97505060406144fb8b828c01613c15565b965050606061450c8b828c01613c15565b955050608061451d8b828c01613c4e565b94505060a061452e8b828c01613c15565b93505060c089013567ffffffffffffffff81111561454f5761454e6139e8565b5b61455b8b828c01613bc6565b92505060e061456c8b828c01614479565b9150509295985092959890939650565b61458581613e45565b811461459057600080fd5b50565b6000813590506145a28161457c565b92915050565b600080600080600080600080610100898b0312156145c9576145c86139e3565b5b60006145d78b828c01613a36565b985050602089013567ffffffffffffffff8111156145f8576145f76139e8565b5b6146048b828c01613bc6565b975050604089013567ffffffffffffffff811115614625576146246139e8565b5b6146318b828c01613bc6565b965050606089013567ffffffffffffffff811115614652576146516139e8565b5b61465e8b828c01613bc6565b955050608061466f8b828c01614593565b94505060a089013567ffffffffffffffff8111156146905761468f6139e8565b5b61469c8b828c01613bc6565b93505060c089013567ffffffffffffffff8111156146bd576146bc6139e8565b5b6146c98b828c01613bc6565b92505060e06146da8b828c01614593565b9150509295985092959890939650565b600067ffffffffffffffff82111561470557614704613ac9565b5b602082029050602081019050919050565b600080fd5b600061472e614729846146ea565b613b29565b9050808382526020820190506020840283018581111561475157614750614716565b5b835b8181101561477a57806147668882613c15565b845260208401935050602081019050614753565b5050509392505050565b600082601f83011261479957614798613aae565b5b81356147a984826020860161471b565b91505092915050565b6000602082840312156147c8576147c76139e3565b5b600082013567ffffffffffffffff8111156147e6576147e56139e8565b5b6147f284828501614784565b91505092915050565b600081519050919050565b600082825260208201905092915050565b6000819050602082019050919050565b61483081613c2a565b82525050565b600060e08301600083015184820360008601526148538282613e0c565b91505060208301516148686020860182613e64565b50604083015161487b6040860182613e64565b50606083015161488e6060860182613e64565b5060808301516148a16080860182614827565b5060a08301516148b460a0860182613e64565b5060c08301516148c760c0860182613e64565b508091505092915050565b60006148de8383614836565b905092915050565b6000602082019050919050565b60006148fe826147fb565b6149088185614806565b93508360208202850161491a85614817565b8060005b85811015614956578484038952815161493785826148d2565b9450614942836148e6565b925060208a0199505060018101905061491e565b50829750879550505050505092915050565b600081519050919050565b600082825260208201905092915050565b6000819050602082019050919050565b61499d81613a78565b82525050565b6000610120830160008301516149bc6000860182613e64565b50602083015184820360208601526149d48282613e0c565b91505060408301516149e96040860182613e64565b5060608301516149fc6060860182613e64565b506080830151614a0f6080860182613e64565b5060a0830151614a2260a0860182614827565b5060c0830151614a3560c0860182613e64565b5060e0830151614a4860e0860182614994565b50610100830151614a5d610100860182613e64565b508091505092915050565b6000614a7483836149a3565b905092915050565b6000602082019050919050565b6000614a9482614968565b614a9e8185614973565b935083602082028501614ab085614984565b8060005b85811015614aec5784840389528151614acd8582614a68565b9450614ad883614a7c565b925060208a01995050600181019050614ab4565b50829750879550505050505092915050565b60006040820190508181036000830152614b1881856148f3565b90508181036020830152614b2c8184614a89565b90509392505050565b614b3e81613a0d565b82525050565b6000602082019050614b596000830184614b35565b92915050565b600061012083016000830151614b786000860182613e64565b5060208301518482036020860152614b908282613e0c565b9150506040830151614ba56040860182613e64565b506060830151614bb86060860182613e64565b506080830151614bcb6080860182613e64565b5060a0830151614bde60a0860182614827565b5060c0830151614bf160c0860182613e64565b5060e0830151614c0460e0860182614994565b50610100830151614c19610100860182613e64565b508091505092915050565b60006020820190508181036000830152614c3e8184614b5f565b905092915050565b60008060408385031215614c5d57614c5c6139e3565b5b6000614c6b85828601613a36565b9250506020614c7c85828601613c15565b9150509250929050565b600080600080600080600080610100898b031215614ca757614ca66139e3565b5b6000614cb58b828c01613c15565b985050602089013567ffffffffffffffff811115614cd657614cd56139e8565b5b614ce28b828c01613bc6565b9750506040614cf38b828c01613c15565b9650506060614d048b828c01613c15565b9550506080614d158b828c01613c15565b94505060a0614d268b828c01614479565b93505060c0614d378b828c01613c4e565b92505060e0614d488b828c01613c15565b9150509295985092959890939650565b60006020820190508181036000830152614d728184614a89565b905092915050565b600060e0830160008301518482036000860152614d978282613e0c565b9150506020830151614dac6020860182613e64565b506040830151614dbf6040860182613e64565b506060830151614dd26060860182613e64565b506080830151614de56080860182614827565b5060a0830151614df860a0860182613e64565b5060c0830151614e0b60c0860182613e64565b508091505092915050565b60006020820190508181036000830152614e308184614d7a565b905092915050565b6000806000806000806000806000806101408b8d031215614e5c57614e5b6139e3565b5b60008b013567ffffffffffffffff811115614e7a57614e796139e8565b5b614e868d828e01613bc6565b9a50506020614e978d828e01613c15565b9950506040614ea88d828e01613c15565b9850506060614eb98d828e01613c15565b9750506080614eca8d828e01613c4e565b96505060a0614edb8d828e01613c15565b95505060c08b013567ffffffffffffffff811115614efc57614efb6139e8565b5b614f088d828e01613bc6565b94505060e08b013567ffffffffffffffff811115614f2957614f286139e8565b5b614f358d828e01613bc6565b9350506101008b013567ffffffffffffffff811115614f5757614f566139e8565b5b614f638d828e01613bc6565b925050610120614f758d828e01613c4e565b9150509295989b9194979a5092959850565b60006040820190508181036000830152614fa18185614d7a565b90508181036020830152614fb58184614a89565b90509392505050565b7f4e487b7100000000000000000000000000000000000000000000000000000000600052603260045260246000fd5b6000608082019050818103600083015261500781876143a4565b9050818103602083015261501b81866143a4565b905061502a60408301856143dd565b615037606083018461421f565b95945050505050565b7f4e487b7100000000000000000000000000000000000000000000000000000000600052602260045260246000fd5b6000600282049050600182168061508757607f821691505b6020821081141561509b5761509a615040565b5b50919050565b7f4e487b7100000000000000000000000000000000000000000000000000000000600052601160045260246000fd5b60006150db82613bf4565b91506150e683613bf4565b9250828210156150f9576150f86150a1565b5b828203905092915050565b6000604082019050818103600083015261511e81856143a4565b905061512d602083018461421f565b9392505050565b6000606082019050818103600083015261514e81866143a4565b9050818103602083015261516281856143a4565b9050615171604083018461421f565b949350505050565b6000606082019050818103600083015261519381866143a4565b90506151a26020830185613a84565b6151af604083018461421f565b949350505050565b60006151c282613bf4565b91506151cd83613bf4565b9250827fffffffffffffffffffffffffffffffffffffffffffffffffffffffffffffffff03821115615202576152016150a1565b5b828201905092915050565b600061521882613bf4565b91507fffffffffffffffffffffffffffffffffffffffffffffffffffffffffffffffff82141561524b5761524a6150a1565b5b600182019050919050565b600061526182613e45565b915063ffffffff821415615278576152776150a1565b5b600182019050919050565b600061528e82613e45565b915061529983613e45565b92508263ffffffff038211156152b2576152b16150a1565b5b828201905092915050565b60006152c882613e45565b91506152d383613e45565b9250828210156152e6576152e56150a1565b5b828203905092915050565b600060a082019050818103600083015261530b81886143a4565b9050818103602083015261531f81876143a4565b9050818103604083015261533381866143a4565b905061534260608301856143dd565b61534f608083018461421f565b9695505050505050565b600060408201905061536e6000830185614b35565b818103602083015261538081846143a4565b9050939250505056fea26469706673582212206471570b9d2937abcf3947abe129b24fc79f54e616e2429b266a20bc9f36fc4b64736f6c634300080c0033",
  "immutableReferences": {},
  "source": "// SPDX-License-Identifier: MIT\r\npragma solidity >=0.7.0 <0.9.10;\r\nimport \"./DataStruct.sol\";\r\n\r\ncontract Main {\r\n    address public dataStructsAdd;\r\n\r\n    constructor (address _dataSAdd){\r\n        dataStructsAdd = _dataSAdd;\r\n    }\r\n\r\n    //EVENTS\r\n    event NewOrg(address user, string orgName);\r\n\r\n    event LogNewUser(\r\n        address indexed userAddress,\r\n        uint256 index,\r\n        bytes32 userEmail,\r\n        uint256 userAge\r\n    );\r\n\r\n    //STRUCTS\r\n    struct Organization {\r\n        address admin;\r\n        string name;\r\n        string addressO;\r\n        uint32 telephone;\r\n        uint256 index;\r\n    }\r\n\r\n    struct Admin {\r\n        address admin;\r\n        string name;\r\n        string lastname;\r\n        string email;\r\n        uint32 telephone;\r\n        uint256 index;\r\n    }\r\n\r\n    //DATA\r\n    Organization[] private organizations;\r\n    uint256 public orgCount;\r\n\r\n    Admin[] private admins;\r\n    uint256 adminsCount;\r\n\r\n    //List of users with a org created (administrators)\r\n    address[] public administrators;\r\n\r\n    mapping(address => uint256) public addressToOrganizationIndex;\r\n\r\n    //FUNCTIONS\r\n    //TODO CHECK IS ADMINISTRATOR IF WORKING PROPERLY\r\n    //data created with organization\r\n    function insertOrgAndAdmin(\r\n        address admin,\r\n        string memory name,\r\n        string memory lastname,\r\n        string memory email,\r\n        uint32 adTelephone,\r\n        string memory orgName,\r\n        string memory orgAddress,\r\n        uint32 orgTelephone\r\n    ) public {\r\n        if (isAdministrator(admin)) revert();\r\n        insertAdmin(admin, name, lastname, email, adTelephone);\r\n        insertOrganization(admin, orgName, orgAddress, orgTelephone);\r\n        administrators.push(admin);\r\n    }\r\n\r\n    function insertAdmin(\r\n        address admin,\r\n        string memory name,\r\n        string memory lastname,\r\n        string memory email,\r\n        uint32 telephone\r\n    ) private {\r\n        admins.push(\r\n            (Admin(admin, name, lastname, email, telephone, admins.length))\r\n        );\r\n        adminsCount++;\r\n    }\r\n\r\n    function insertOrganization(\r\n        address userAddress,\r\n        string memory name,\r\n        string memory addressO,\r\n        uint32 telephone\r\n    ) private {\r\n        organizations.push(\r\n            Organization(\r\n                userAddress,\r\n                name,\r\n                addressO,\r\n                telephone,\r\n                organizations.length\r\n            )\r\n        );\r\n        orgCount++;\r\n        uint256 id = organizations.length - 1;\r\n        addressToOrganizationIndex[userAddress] = id;\r\n        //Create the mapping with 0 assets edited and 0 deleted\r\n        organizationNumberOfAssetsED[id].push(0);\r\n        organizationNumberOfAssetsED[id].push(0);\r\n        emit NewOrg(userAddress, name);\r\n    }\r\n\r\n    // Check if the address has created a org, == is an administrator.\r\n    function isAdministrator(address userAddress)\r\n        public\r\n        view\r\n        returns (bool isIndeed)\r\n    {\r\n        if (administrators.length == 0) return false;\r\n        return (administrators[addressToOrganizationIndex[userAddress]] ==\r\n            userAddress);\r\n    }\r\n\r\n    function isAdminFromOrg(address addr, uint orgId) public view returns(bool){\r\n        if (admins.length == 0) return false;\r\n        if (!isAdministrator(addr)) return false;\r\n        return(addressToOrganizationIndex[addr] == orgId);\r\n    }\r\n\r\n    function getOrg(uint256 _orgId) public view returns (Organization memory) {\r\n        return organizations[_orgId];\r\n    }\r\n\r\n    function getIdAsset() public view returns (uint id) {\r\n        return assetsList.length;\r\n    }\r\n\r\n    function getAdminToOrg(address userAddress)\r\n        public\r\n        view\r\n        returns (uint256 userid)\r\n    {\r\n        return addressToOrganizationIndex[userAddress];\r\n    }\r\n\r\n    //Get the organization if there is an address that created it\r\n    function getOrgFromAddress(address userAddress)\r\n        public\r\n        view\r\n        returns (Organization memory org)\r\n    {\r\n        if (isAdministrator(userAddress)) revert();\r\n        uint256 orgId = getAdminToOrg(userAddress);\r\n        Organization memory organ = getOrg(orgId);\r\n        return organ;\r\n    }\r\n\r\n    //ASSETS TYPE AND FUNCTIONS\r\n    struct Asset {\r\n        string name;\r\n        uint256 organizationId;\r\n        uint256 adquireDate;\r\n        uint256 creationDate;\r\n        uint8 assetType;\r\n        uint256 assetDepart;\r\n        uint256 index;\r\n    }\r\n\r\n\r\n    Asset[] public assetsList;\r\n    //uint256 orgCount;\r\n\r\n    //UNNECESARY MAPPING\r\n    //mapping(uint256 => uint256) private assetToOrg;\r\n\r\n    //CREAR UN MAPPING DE ORGANIZACIN (ID) A LISTA DE ASSETS (ID)?\r\n    mapping(uint256 => uint256[]) private assetsFromOrg;\r\n\r\n    \r\n\r\n    //ASSET EDITED INTRODUCES A BOOL DELETED\r\n    struct AssetEdited {\r\n        uint256 originalAssetId;\r\n        string name;\r\n        uint256 organizationId;\r\n        uint256 adquireDate;\r\n        uint256 creationDate;\r\n        uint8 assetType;\r\n        uint256 assetDepart;\r\n        bool deleted;\r\n        uint256 index;\r\n\r\n        //uint fechafin;\r\n\r\n    }\r\n\r\n    AssetEdited[] private assetsEditedList;\r\n    //ASSETS ORIGINAL TO LIST OF ASSETS EDITED\r\n    mapping(uint256 => uint256[]) private originalAssetsToEditedList;\r\n\r\n    function insertAsset(\r\n        string memory name,\r\n        uint256 organizationId,\r\n        uint256 adquireDate,\r\n        uint256 creationDate,\r\n        uint8 assetType,\r\n        uint256 assetDepart\r\n    ) public {\r\n        assetsList.push(\r\n            (\r\n                Asset(\r\n                    name,\r\n                    organizationId,\r\n                    adquireDate,\r\n                    creationDate,\r\n                    assetType,\r\n                    assetDepart,\r\n                    assetsList.length\r\n                )\r\n            )\r\n        );\r\n        assetsFromOrg[organizationId].push(assetsList.length - 1);\r\n        assetBoolEditedAndDeleted[assetsList.length - 1].push(false);\r\n        assetBoolEditedAndDeleted[assetsList.length - 1].push(false);\r\n        originalAssetsToEditedList[assetsList.length - 1];\r\n    }\r\n\r\n    function insertAssetToDepartment(uint256 index, uint256 assetDepartId) public {\r\n        assetsList[index].assetDepart = assetDepartId;\r\n    }\r\n\r\n    //CREATE A FUNCTION FOR EACH INSERTED ASSET TYPE\r\n    function insertNewSoftAsset(string memory name,\r\n        uint256 organizationId,\r\n        uint256 adquireDate,\r\n        uint256 creationDate,\r\n        uint8 assetType,\r\n        uint256 assetDepart,\r\n        string memory version, \r\n        string memory provider, \r\n        uint8 stype) public {\r\n            \r\n        insertAsset(name, organizationId, adquireDate, creationDate, assetType, assetDepart);\r\n        uint assetId = assetsList.length - 1; \r\n        DataStructs DS = DataStructs(dataStructsAdd);\r\n        DS.insertSoftware(version, provider, stype, assetId);\r\n    }\r\n\r\n    function insertNewHardAsset(string memory name,\r\n        uint256 organizationId,\r\n        uint256 adquireDate,\r\n        uint256 creationDate,\r\n        uint8 assetType,\r\n        uint256 assetDepart,\r\n        string memory model, \r\n        string memory provider, \r\n        string memory serialNumber, \r\n        uint8 htype) public {\r\n        \r\n        uint assetId = assetsList.length; \r\n        insertAsset(name, organizationId, adquireDate, creationDate, assetType, assetDepart);\r\n        \r\n        DataStructs DS = DataStructs(dataStructsAdd);\r\n        DS.insertHardware(model, provider, serialNumber, htype, assetId);\r\n    }\r\n\r\n    function insertNewDocAsset(string memory name,\r\n        uint256 organizationId,\r\n        uint256 adquireDate,\r\n        uint256 creationDate,\r\n        uint8 assetType,\r\n        uint256 assetDepart,\r\n        string memory description,\r\n        string memory location,\r\n        uint8 doctype) public {\r\n        \r\n        uint assetId = assetsList.length; \r\n        insertAsset(name, organizationId, adquireDate, creationDate, assetType, assetDepart);\r\n        \r\n        DataStructs DS = DataStructs(dataStructsAdd);\r\n        DS.insertDocument(description, location, doctype, assetId);\r\n    }\r\n\r\n    function insertNewDataAsset(string memory name,\r\n        uint256 organizationId,\r\n        uint256 adquireDate,\r\n        uint256 creationDate,\r\n        uint8 assetType,\r\n        uint256 assetDepart,\r\n        string memory location, \r\n        bool local) public {\r\n        \r\n        uint assetId = assetsList.length; \r\n        insertAsset(name, organizationId, adquireDate, creationDate, assetType, assetDepart);\r\n        \r\n        DataStructs DS = DataStructs(dataStructsAdd);\r\n        DS.insertData(location, local, assetId);\r\n    }\r\n\r\n    function insertNewNetworkAsset(string memory name,\r\n        uint256 organizationId,\r\n        uint256 adquireDate,\r\n        uint256 creationDate,\r\n        uint8 assetType,\r\n        uint256 assetDepart,\r\n        string memory cidrblock, \r\n        bool nat) public {\r\n        \r\n        uint assetId = assetsList.length; \r\n        insertAsset(name, organizationId, adquireDate, creationDate, assetType, assetDepart);\r\n        \r\n        DataStructs DS = DataStructs(dataStructsAdd);\r\n        DS.insertNetwork(cidrblock, nat, assetId);\r\n    }\r\n\r\n    function insertNewCloudAsset(string memory name,\r\n        uint256 organizationId,\r\n        uint256 adquireDate,\r\n        uint256 creationDate,\r\n        uint8 assetType,\r\n        uint256 assetDepart,\r\n        string memory url, \r\n        string memory domain) public {\r\n        \r\n        uint assetId = assetsList.length; \r\n        insertAsset(name, organizationId, adquireDate, creationDate, assetType, assetDepart);\r\n        DataStructs DS = DataStructs(dataStructsAdd);\r\n        DS.insertCloud(url, domain, assetId);\r\n    }\r\n\r\n    function insertNewOtherAsset(string memory name,\r\n        uint256 organizationId,\r\n        uint256 adquireDate,\r\n        uint256 creationDate,\r\n        uint8 assetType,\r\n        uint256 assetDepart,\r\n        string memory description) public {\r\n        \r\n        uint assetId = assetsList.length; \r\n        insertAsset(name, organizationId, adquireDate, creationDate, assetType, assetDepart);\r\n        DataStructs DS = DataStructs(dataStructsAdd);\r\n        DS.insertOther(description, assetId);\r\n    }\r\n\r\n    function getLastAssetEdited(uint256 id) public view returns (AssetEdited memory) {\r\n        uint256 lastItem = originalAssetsToEditedList[id].length - 1;\r\n        uint256 assetEditedId = originalAssetsToEditedList[id][lastItem];\r\n        return assetsEditedList[assetEditedId];\r\n    }\r\n\r\n    function getAsset(uint256 id) public view returns (Asset memory) {\r\n        return assetsList[id];\r\n    }\r\n\r\n    function getAdmin(uint256 _adminId) public view returns (Admin memory) {\r\n        return admins[_adminId];\r\n    }\r\n\r\n    function getAllAssetsFromOrg(uint256 _orgId)\r\n        public\r\n        view\r\n        returns (Asset[] memory, AssetEdited[] memory)\r\n    {\r\n        uint32 contEdited = organizationNumberOfAssetsED[_orgId][0];\r\n        uint32 contDeleted = organizationNumberOfAssetsED[_orgId][1];\r\n        uint32 edList = uint32(uint32(contEdited) - uint32(contDeleted));\r\n        uint256 cont = assetsFromOrg[_orgId].length;\r\n        Asset[] memory listOrgAssets = new Asset[](cont-contEdited);\r\n        AssetEdited[] memory listOrgAssetsEdited = new AssetEdited[](edList);\r\n        uint32 bucleEdited = 0;\r\n        uint bucleOriginal = 0;\r\n        for (uint256 i = 0; i < cont; i++) {\r\n            //First check if that asset has been deleted\r\n            //so we don't retrieve it\r\n            if (assetBoolEditedAndDeleted[i][1]) {\r\n                continue;\r\n            }\r\n            //Check if asset has been edited in order\r\n            //to retrieve last edited asset\r\n            if (assetBoolEditedAndDeleted[i][0] == true) {\r\n                uint256 lastItem = originalAssetsToEditedList[i].length - 1;\r\n                uint256 assetEditedId = originalAssetsToEditedList[i][lastItem];\r\n                listOrgAssetsEdited[bucleEdited] = assetsEditedList[assetEditedId];\r\n                bucleEdited++;\r\n                //Last case the asset hasn't been edited\r\n            } else {\r\n                uint256 assetId = assetsFromOrg[_orgId][i];\r\n                listOrgAssets[bucleOriginal] = assetsList[assetId];\r\n                bucleOriginal++;\r\n            }\r\n        }\r\n        return (listOrgAssets, listOrgAssetsEdited);\r\n    }\r\n\r\n\r\n    //MAPPING ID OF WITH THE LIST OF NUMBER OF ASSETS EDITED AND DELETED\r\n    mapping(uint256 => uint32[]) private organizationNumberOfAssetsED;\r\n\r\n\r\n    //CREAR MAPPING DE ID ORIGINAL A LIST OF BOOLEAN\r\n    // QUE INDICA SI EL ID EST EDITADO EN EL PRIMER VALOR\r\n    // EN EL SEGUNDO VALOR INDICA SI EST ELIMINADO\r\n    mapping(uint256 => bool[]) private assetBoolEditedAndDeleted;\r\n    //DE ESTA MANERA PODEMOS VER EN CADA CASO EL ID SI EST EDITADO O ELIMINADO\r\n\r\n    //mapping que relaciona la org con los assets que tiene eliminados\r\n    mapping(uint256 => uint256[]) private assetsFromOrgDeleted;\r\n\r\n    function insertEditedAsset(\r\n        uint256 originalAssetId,\r\n        string memory name,\r\n        uint256 organizationId,\r\n        uint256 adquireDate,\r\n        uint256 creationDate,\r\n        bool deleted,\r\n        uint8 assetType,\r\n        uint256 assetDepart\r\n    ) public {\r\n        //CHECK IF THE ASSET IS ALREADY IN ASSETS EDITED LIST\r\n        \r\n        assetsEditedList.push(\r\n            (\r\n                AssetEdited(\r\n                    originalAssetId,\r\n                    name,\r\n                    organizationId,\r\n                    adquireDate,\r\n                    creationDate,\r\n                    assetType,\r\n                    assetDepart,\r\n                    deleted,\r\n                    assetsEditedList.length\r\n                )\r\n            )\r\n        );\r\n        uint256 id = assetsEditedList.length - 1;\r\n        if (!assetBoolEditedAndDeleted[originalAssetId][0]) {\r\n            assetBoolEditedAndDeleted[originalAssetId][0] = true;\r\n            uint32 ed = organizationNumberOfAssetsED[organizationId][0]+1;\r\n            organizationNumberOfAssetsED[organizationId][0] = ed;\r\n        }\r\n        originalAssetsToEditedList[originalAssetId].push(id);\r\n        \r\n        if (deleted == true) {\r\n            assetsFromOrgDeleted[organizationId].push(\r\n                assetsEditedList.length - 1\r\n            );\r\n            assetBoolEditedAndDeleted[originalAssetId][1] = true;\r\n            uint32 de = organizationNumberOfAssetsED[organizationId][1]+1;\r\n            organizationNumberOfAssetsED[organizationId][1] = de;\r\n        }\r\n    }\r\n\r\n    function getRecordList(uint assetId) public view returns (Asset memory, AssetEdited[] memory) {\r\n        Asset memory original = assetsList[assetId];\r\n        uint len = originalAssetsToEditedList[assetId].length;\r\n        AssetEdited[] memory listEdited = new AssetEdited[](len);\r\n        for (uint256 i = 0; i < len; i++) {\r\n            uint num = originalAssetsToEditedList[assetId][i];\r\n            listEdited[i] = assetsEditedList[num];\r\n        }\r\n        return (original, listEdited);\r\n     }\r\n\r\n    function getAssetEdited(uint256 id) public view returns (AssetEdited memory) {\r\n        return assetsEditedList[id];\r\n    }\r\n\r\n    function getAssetsDeleted(uint256 orgId)\r\n        public\r\n        view\r\n        returns (AssetEdited[] memory)\r\n    {\r\n        uint256 cont = assetsFromOrgDeleted[orgId].length;\r\n        AssetEdited[] memory listAssetsDeleted = new AssetEdited[](cont);\r\n        for (uint256 i = 0; i < cont; i++) {\r\n            uint256 id = assetsFromOrgDeleted[orgId][i];\r\n            listAssetsDeleted[i] = assetsEditedList[id];\r\n        }\r\n        return listAssetsDeleted;\r\n    }\r\n\r\n    function getIsAssetEdited(uint256 idAsset)\r\n        public\r\n        view\r\n        returns (bool result)\r\n    {\r\n        return assetBoolEditedAndDeleted[idAsset][0];\r\n    }\r\n\r\n    function getIsAssetDeleted(uint256 idAsset)\r\n        public\r\n        view\r\n        returns (bool result)\r\n    {\r\n        return assetBoolEditedAndDeleted[idAsset][1];\r\n    }\r\n\r\n    function getOrgNumEdited(uint orgId) public view returns (uint numEdited) {\r\n        return organizationNumberOfAssetsED[orgId][0];\r\n    }\r\n\r\n    function getOrgNumDeleted(uint orgId) public view returns (uint numDeleted) {\r\n        return organizationNumberOfAssetsED[orgId][1];\r\n    }\r\n\r\n    function getEdDeList(uint assetId) public view returns (uint[] memory listEdited) {\r\n        return originalAssetsToEditedList[assetId];\r\n    }\r\n\r\n    function retrieveListOfAsset(uint256[] memory ids) public view returns (Asset[] memory, AssetEdited[] memory) {\r\n        uint cont = 0;\r\n        uint contOr = 0;\r\n        for (uint256 i = 0; i < ids.length; i++) {\r\n           if(assetBoolEditedAndDeleted[ids[i]][0]) {\r\n               if(assetBoolEditedAndDeleted[ids[i]][1]) {\r\n                   continue;\r\n                } else {\r\n                    cont = cont +1;\r\n                } \r\n            } else {\r\n                contOr = contOr+1;\r\n            }\r\n        }\r\n        Asset[] memory listAssets = new Asset[](contOr);\r\n        AssetEdited[] memory listEdited = new AssetEdited[](cont);\r\n        uint32 bucleEdited = 0;\r\n        uint bucleOriginal = 0;\r\n        for (uint256 i = 0; i < ids.length; i++) {\r\n            if(assetBoolEditedAndDeleted[ids[i]][1]) {\r\n               continue;\r\n            } if (assetBoolEditedAndDeleted[ids[i]][0]) {\r\n                uint256 lastItem = originalAssetsToEditedList[ids[i]].length - 1;\r\n                uint256 assetEditedId = originalAssetsToEditedList[ids[i]][lastItem];\r\n                listEdited[bucleEdited] = assetsEditedList[assetEditedId];\r\n                bucleEdited++;\r\n                //Last case the asset hasn't been edited\r\n            } else {\r\n                uint256 assetId = ids[i];\r\n                listAssets[bucleOriginal] = assetsList[assetId];\r\n                bucleOriginal++;\r\n            }\r\n        }\r\n        return (listAssets, listEdited);\r\n    }\r\n    \r\n\r\n    function retrieveOrgData(uint orgId) public view returns(uint[] memory){\r\n        uint[] memory result = new uint[](3);\r\n        result[0] = assetsFromOrg[orgId].length;\r\n        result[1] = (organizationNumberOfAssetsED[orgId][0]);\r\n        result[2] = (organizationNumberOfAssetsED[orgId][1]);\r\n        return result;\r\n    }\r\n\r\n\r\n}\r\n",
  "sourcePath": "D:\\GIT\\inventory-blockchain\\blockchain\\contracts\\Main.sol",
  "compiler": {
    "name": "solc",
    "version": "0.8.12+commit.f00d7308.Emscripten.clang"
  },
  "schemaVersion": "3.4.6",
  "updatedAt": "2022-05-15T16:20:56.178Z",
  "networkType": "ethereum",
  "devdoc": {
    "kind": "dev",
    "methods": {},
    "version": 1
  },
  "userdoc": {
    "kind": "user",
    "methods": {},
    "version": 1
  }
}