{
  "contractName": "Main",
  "abi": [
    {
      "anonymous": false,
      "inputs": [
        {
          "indexed": true,
          "internalType": "address",
          "name": "userAddress",
          "type": "address"
        },
        {
          "indexed": false,
          "internalType": "uint256",
          "name": "index",
          "type": "uint256"
        },
        {
          "indexed": false,
          "internalType": "bytes32",
          "name": "userEmail",
          "type": "bytes32"
        },
        {
          "indexed": false,
          "internalType": "uint256",
          "name": "userAge",
          "type": "uint256"
        }
      ],
      "name": "LogNewUser",
      "type": "event"
    },
    {
      "anonymous": false,
      "inputs": [
        {
          "indexed": false,
          "internalType": "address",
          "name": "user",
          "type": "address"
        },
        {
          "indexed": false,
          "internalType": "string",
          "name": "name",
          "type": "string"
        }
      ],
      "name": "NewOrganization",
      "type": "event"
    },
    {
      "inputs": [
        {
          "internalType": "address",
          "name": "",
          "type": "address"
        }
      ],
      "name": "addressToOrganizationIndex",
      "outputs": [
        {
          "internalType": "uint256",
          "name": "",
          "type": "uint256"
        }
      ],
      "stateMutability": "view",
      "type": "function"
    },
    {
      "inputs": [
        {
          "internalType": "address",
          "name": "admin",
          "type": "address"
        },
        {
          "internalType": "string",
          "name": "name",
          "type": "string"
        },
        {
          "internalType": "string",
          "name": "lastname",
          "type": "string"
        },
        {
          "internalType": "string",
          "name": "email",
          "type": "string"
        },
        {
          "internalType": "uint32",
          "name": "adTelephone",
          "type": "uint32"
        },
        {
          "internalType": "string",
          "name": "orgName",
          "type": "string"
        },
        {
          "internalType": "string",
          "name": "orgAddress",
          "type": "string"
        },
        {
          "internalType": "uint32",
          "name": "orgTelephone",
          "type": "uint32"
        }
      ],
      "name": "insertOrgAndAdmin",
      "outputs": [],
      "stateMutability": "nonpayable",
      "type": "function"
    },
    {
      "inputs": [
        {
          "internalType": "address",
          "name": "userAddress",
          "type": "address"
        }
      ],
      "name": "isAdministrator",
      "outputs": [
        {
          "internalType": "bool",
          "name": "isIndeed",
          "type": "bool"
        }
      ],
      "stateMutability": "view",
      "type": "function"
    },
    {
      "inputs": [
        {
          "internalType": "uint256",
          "name": "_orgId",
          "type": "uint256"
        }
      ],
      "name": "getOrg",
      "outputs": [
        {
          "components": [
            {
              "internalType": "address",
              "name": "admin",
              "type": "address"
            },
            {
              "internalType": "string",
              "name": "name",
              "type": "string"
            },
            {
              "internalType": "string",
              "name": "addressO",
              "type": "string"
            },
            {
              "internalType": "uint32",
              "name": "telephone",
              "type": "uint32"
            },
            {
              "internalType": "uint256",
              "name": "index",
              "type": "uint256"
            }
          ],
          "internalType": "struct Main.Organization",
          "name": "",
          "type": "tuple"
        }
      ],
      "stateMutability": "view",
      "type": "function"
    },
    {
      "inputs": [
        {
          "internalType": "address",
          "name": "userAddress",
          "type": "address"
        }
      ],
      "name": "getAdminToOrg",
      "outputs": [
        {
          "internalType": "uint256",
          "name": "userid",
          "type": "uint256"
        }
      ],
      "stateMutability": "view",
      "type": "function"
    },
    {
      "inputs": [
        {
          "internalType": "address",
          "name": "userAddress",
          "type": "address"
        }
      ],
      "name": "getOrgFromAddress",
      "outputs": [
        {
          "components": [
            {
              "internalType": "address",
              "name": "admin",
              "type": "address"
            },
            {
              "internalType": "string",
              "name": "name",
              "type": "string"
            },
            {
              "internalType": "string",
              "name": "addressO",
              "type": "string"
            },
            {
              "internalType": "uint32",
              "name": "telephone",
              "type": "uint32"
            },
            {
              "internalType": "uint256",
              "name": "index",
              "type": "uint256"
            }
          ],
          "internalType": "struct Main.Organization",
          "name": "org",
          "type": "tuple"
        }
      ],
      "stateMutability": "view",
      "type": "function"
    },
    {
      "inputs": [
        {
          "internalType": "string",
          "name": "name",
          "type": "string"
        },
        {
          "internalType": "uint256",
          "name": "organizationId",
          "type": "uint256"
        },
        {
          "internalType": "uint256",
          "name": "adquireDate",
          "type": "uint256"
        },
        {
          "internalType": "uint256",
          "name": "creationDate",
          "type": "uint256"
        },
        {
          "internalType": "string",
          "name": "assetType",
          "type": "string"
        }
      ],
      "name": "insertAsset",
      "outputs": [],
      "stateMutability": "nonpayable",
      "type": "function"
    },
    {
      "inputs": [
        {
          "internalType": "uint256",
          "name": "id",
          "type": "uint256"
        }
      ],
      "name": "getAsset",
      "outputs": [
        {
          "components": [
            {
              "internalType": "string",
              "name": "name",
              "type": "string"
            },
            {
              "internalType": "uint256",
              "name": "organziationId",
              "type": "uint256"
            },
            {
              "internalType": "uint256",
              "name": "adquireDate",
              "type": "uint256"
            },
            {
              "internalType": "uint256",
              "name": "creationDate",
              "type": "uint256"
            },
            {
              "internalType": "string",
              "name": "assetType",
              "type": "string"
            },
            {
              "internalType": "uint256",
              "name": "index",
              "type": "uint256"
            }
          ],
          "internalType": "struct Main.Asset",
          "name": "",
          "type": "tuple"
        }
      ],
      "stateMutability": "view",
      "type": "function"
    },
    {
      "inputs": [
        {
          "internalType": "uint256",
          "name": "_adminId",
          "type": "uint256"
        }
      ],
      "name": "getAdmin",
      "outputs": [
        {
          "components": [
            {
              "internalType": "address",
              "name": "admin",
              "type": "address"
            },
            {
              "internalType": "string",
              "name": "name",
              "type": "string"
            },
            {
              "internalType": "string",
              "name": "lastname",
              "type": "string"
            },
            {
              "internalType": "string",
              "name": "email",
              "type": "string"
            },
            {
              "internalType": "uint32",
              "name": "telephone",
              "type": "uint32"
            },
            {
              "internalType": "uint256",
              "name": "index",
              "type": "uint256"
            }
          ],
          "internalType": "struct Main.Admin",
          "name": "",
          "type": "tuple"
        }
      ],
      "stateMutability": "view",
      "type": "function"
    },
    {
      "inputs": [
        {
          "internalType": "uint256",
          "name": "_orgId",
          "type": "uint256"
        }
      ],
      "name": "getAllAssetsFromOrg",
      "outputs": [
        {
          "components": [
            {
              "internalType": "string",
              "name": "name",
              "type": "string"
            },
            {
              "internalType": "uint256",
              "name": "organziationId",
              "type": "uint256"
            },
            {
              "internalType": "uint256",
              "name": "adquireDate",
              "type": "uint256"
            },
            {
              "internalType": "uint256",
              "name": "creationDate",
              "type": "uint256"
            },
            {
              "internalType": "string",
              "name": "assetType",
              "type": "string"
            },
            {
              "internalType": "uint256",
              "name": "index",
              "type": "uint256"
            }
          ],
          "internalType": "struct Main.Asset[]",
          "name": "",
          "type": "tuple[]"
        },
        {
          "components": [
            {
              "internalType": "string",
              "name": "name",
              "type": "string"
            },
            {
              "internalType": "uint256",
              "name": "organziationId",
              "type": "uint256"
            },
            {
              "internalType": "uint256",
              "name": "adquireDate",
              "type": "uint256"
            },
            {
              "internalType": "uint256",
              "name": "creationDate",
              "type": "uint256"
            },
            {
              "internalType": "string",
              "name": "assetType",
              "type": "string"
            },
            {
              "internalType": "bool",
              "name": "deleted",
              "type": "bool"
            },
            {
              "internalType": "uint256",
              "name": "index",
              "type": "uint256"
            }
          ],
          "internalType": "struct Main.AssetEdited[]",
          "name": "",
          "type": "tuple[]"
        }
      ],
      "stateMutability": "view",
      "type": "function"
    },
    {
      "inputs": [
        {
          "internalType": "uint256",
          "name": "originalAssetId",
          "type": "uint256"
        },
        {
          "internalType": "string",
          "name": "name",
          "type": "string"
        },
        {
          "internalType": "uint256",
          "name": "organizationId",
          "type": "uint256"
        },
        {
          "internalType": "uint256",
          "name": "adquireDate",
          "type": "uint256"
        },
        {
          "internalType": "uint256",
          "name": "creationDate",
          "type": "uint256"
        },
        {
          "internalType": "bool",
          "name": "deleted",
          "type": "bool"
        },
        {
          "internalType": "string",
          "name": "assetType",
          "type": "string"
        }
      ],
      "name": "insertEditedAsset",
      "outputs": [],
      "stateMutability": "nonpayable",
      "type": "function"
    },
    {
      "inputs": [
        {
          "internalType": "uint256",
          "name": "orgId",
          "type": "uint256"
        }
      ],
      "name": "getAssetsDeleted",
      "outputs": [
        {
          "components": [
            {
              "internalType": "string",
              "name": "name",
              "type": "string"
            },
            {
              "internalType": "uint256",
              "name": "organziationId",
              "type": "uint256"
            },
            {
              "internalType": "uint256",
              "name": "adquireDate",
              "type": "uint256"
            },
            {
              "internalType": "uint256",
              "name": "creationDate",
              "type": "uint256"
            },
            {
              "internalType": "string",
              "name": "assetType",
              "type": "string"
            },
            {
              "internalType": "bool",
              "name": "deleted",
              "type": "bool"
            },
            {
              "internalType": "uint256",
              "name": "index",
              "type": "uint256"
            }
          ],
          "internalType": "struct Main.AssetEdited[]",
          "name": "",
          "type": "tuple[]"
        }
      ],
      "stateMutability": "view",
      "type": "function"
    },
    {
      "inputs": [
        {
          "internalType": "uint256",
          "name": "idAsset",
          "type": "uint256"
        }
      ],
      "name": "getIsAssetEdited",
      "outputs": [
        {
          "internalType": "bool",
          "name": "result",
          "type": "bool"
        }
      ],
      "stateMutability": "view",
      "type": "function"
    },
    {
      "inputs": [
        {
          "internalType": "uint256",
          "name": "idAsset",
          "type": "uint256"
        }
      ],
      "name": "getIsAssetDeleted",
      "outputs": [
        {
          "internalType": "bool",
          "name": "result",
          "type": "bool"
        }
      ],
      "stateMutability": "view",
      "type": "function"
    },
    {
      "inputs": [
        {
          "internalType": "uint256",
          "name": "orgId",
          "type": "uint256"
        }
      ],
      "name": "getOrgNumEdited",
      "outputs": [
        {
          "internalType": "uint256",
          "name": "numEdited",
          "type": "uint256"
        }
      ],
      "stateMutability": "view",
      "type": "function"
    },
    {
      "inputs": [
        {
          "internalType": "uint256",
          "name": "orgId",
          "type": "uint256"
        }
      ],
      "name": "getOrgNumDeleted",
      "outputs": [
        {
          "internalType": "uint256",
          "name": "numDeleted",
          "type": "uint256"
        }
      ],
      "stateMutability": "view",
      "type": "function"
    },
    {
      "inputs": [
        {
          "internalType": "uint256",
          "name": "assetId",
          "type": "uint256"
        }
      ],
      "name": "getEdDeList",
      "outputs": [
        {
          "internalType": "uint256[]",
          "name": "listEdited",
          "type": "uint256[]"
        }
      ],
      "stateMutability": "view",
      "type": "function"
    }
  ],
  "bytecode": "0x608060405234801561001057600080fd5b506130ba806100206000396000f3fe608060405234801561001057600080fd5b506004361061010b5760003560e01c80634e4369c4116100a2578063de7946fc11610071578063de7946fc14610328578063de93f53914610359578063e6419ee614610389578063e81ef319146103a5578063eac8f5b8146103d55761010b565b80634e4369c41461027c578063653e69ff146102ac5780638ab95a33146102dc578063c92bc12d146102f85761010b565b80632360c27f116100de5780632360c27f146101bc57806331fe8bcd146101ec5780633fc072901461021c578063415de94c1461024c5761010b565b80630a2eb30114610110578063111fd88b14610140578063151c3f44146101705780631744c800146101a0575b600080fd5b61012a60048036038101906101259190612291565b610405565b60405161013791906122d9565b60405180910390f35b61015a6004803603810190610155919061232a565b6104d1565b60405161016791906124c4565b60405180910390f35b61018a6004803603810190610185919061232a565b610749565b60405161019791906122d9565b60405180910390f35b6101ba60048036038101906101b5919061261b565b610798565b005b6101d660048036038101906101d1919061232a565b61099e565b6040516101e3919061274b565b60405180910390f35b6102066004803603810190610201919061232a565b610b84565b604051610213919061281c565b60405180910390f35b61023660048036038101906102319190612291565b610bef565b604051610243919061274b565b60405180910390f35b61026660048036038101906102619190612291565b610c2e565b604051610273919061284d565b60405180910390f35b61029660048036038101906102919190612291565b610c46565b6040516102a3919061284d565b60405180910390f35b6102c660048036038101906102c1919061232a565b610c8f565b6040516102d3919061284d565b60405180910390f35b6102f660048036038101906102f19190612894565b610cea565b005b610312600480360381019061030d919061232a565b610d83565b60405161031f919061284d565b60405180910390f35b610342600480360381019061033d919061232a565b610dde565b604051610350929190612c9c565b60405180910390f35b610373600480360381019061036e919061232a565b61144e565b6040516103809190612cd3565b60405180910390f35b6103a3600480360381019061039e9190612d21565b6116d3565b005b6103bf60048036038101906103ba919061232a565b611aca565b6040516103cc91906122d9565b60405180910390f35b6103ef60048036038101906103ea919061232a565b611b19565b6040516103fc9190612e8b565b60405180910390f35b600080600480549050141561041d57600090506104cc565b8173ffffffffffffffffffffffffffffffffffffffff166004600560008573ffffffffffffffffffffffffffffffffffffffff1673ffffffffffffffffffffffffffffffffffffffff168152602001908152602001600020548154811061048757610486612ead565b5b9060005260206000200160009054906101000a900473ffffffffffffffffffffffffffffffffffffffff1673ffffffffffffffffffffffffffffffffffffffff161490505b919050565b6104d961206a565b600282815481106104ed576104ec612ead565b5b90600052602060002090600602016040518060c00160405290816000820160009054906101000a900473ffffffffffffffffffffffffffffffffffffffff1673ffffffffffffffffffffffffffffffffffffffff1673ffffffffffffffffffffffffffffffffffffffff16815260200160018201805461056c90612f0b565b80601f016020809104026020016040519081016040528092919081815260200182805461059890612f0b565b80156105e55780601f106105ba576101008083540402835291602001916105e5565b820191906000526020600020905b8154815290600101906020018083116105c857829003601f168201915b505050505081526020016002820180546105fe90612f0b565b80601f016020809104026020016040519081016040528092919081815260200182805461062a90612f0b565b80156106775780601f1061064c57610100808354040283529160200191610677565b820191906000526020600020905b81548152906001019060200180831161065a57829003601f168201915b5050505050815260200160038201805461069090612f0b565b80601f01602080910402602001604051908101604052809291908181526020018280546106bc90612f0b565b80156107095780601f106106de57610100808354040283529160200191610709565b820191906000526020600020905b8154815290600101906020018083116106ec57829003601f168201915b505050505081526020016004820160009054906101000a900463ffffffff1663ffffffff1663ffffffff1681526020016005820154815250509050919050565b6000600c600083815260200190815260200160002060008154811061077157610770612ead565b5b90600052602060002090602091828204019190069054906101000a900460ff169050919050565b60066040518060c00160405280878152602001868152602001858152602001848152602001838152602001600680549050815250908060018154018082558091505060019003906000526020600020906006020160009091909190915060008201518160000190805190602001906108119291906120bc565b50602082015181600101556040820151816002015560608201518160030155608082015181600401908051906020019061084c9291906120bc565b5060a08201518160050155505060076000858152602001908152602001600020600160068054905061087e9190612f6c565b9080600181540180825580915050600190039060005260206000200160009091909190915055600c600060016006805490506108ba9190612f6c565b8152602001908152602001600020600090806001815401808255809150506001900390600052602060002090602091828204019190069091909190916101000a81548160ff021916908315150217905550600c600060016006805490506109219190612f6c565b8152602001908152602001600020600090806001815401808255809150506001900390600052602060002090602091828204019190069091909190916101000a81548160ff021916908315150217905550600a600060016006805490506109889190612f6c565b8152602001908152602001600020505050505050565b6109a6612142565b600082815481106109ba576109b9612ead565b5b90600052602060002090600502016040518060a00160405290816000820160009054906101000a900473ffffffffffffffffffffffffffffffffffffffff1673ffffffffffffffffffffffffffffffffffffffff1673ffffffffffffffffffffffffffffffffffffffff168152602001600182018054610a3990612f0b565b80601f0160208091040260200160405190810160405280929190818152602001828054610a6590612f0b565b8015610ab25780601f10610a8757610100808354040283529160200191610ab2565b820191906000526020600020905b815481529060010190602001808311610a9557829003601f168201915b50505050508152602001600282018054610acb90612f0b565b80601f0160208091040260200160405190810160405280929190818152602001828054610af790612f0b565b8015610b445780601f10610b1957610100808354040283529160200191610b44565b820191906000526020600020905b815481529060010190602001808311610b2757829003601f168201915b505050505081526020016003820160009054906101000a900463ffffffff1663ffffffff1663ffffffff1681526020016004820154815250509050919050565b6060600a6000838152602001908152602001600020805480602002602001604051908101604052809291908181526020018280548015610be357602002820191906000526020600020905b815481526020019060010190808311610bcf575b50505050509050919050565b610bf7612142565b610c0082610405565b15610c0a57600080fd5b6000610c1583610c46565b90506000610c228261099e565b90508092505050919050565b60056020528060005260406000206000915090505481565b6000600560008373ffffffffffffffffffffffffffffffffffffffff1673ffffffffffffffffffffffffffffffffffffffff168152602001908152602001600020549050919050565b6000600b6000838152602001908152602001600020600181548110610cb757610cb6612ead565b5b90600052602060002090600891828204019190066004029054906101000a900463ffffffff1663ffffffff169050919050565b610cf388610405565b15610cfd57600080fd5b610d0a8888888888611ca1565b610d1688848484611e0a565b6004889080600181540180825580915050600190039060005260206000200160009091909190916101000a81548173ffffffffffffffffffffffffffffffffffffffff021916908373ffffffffffffffffffffffffffffffffffffffff1602179055505050505050505050565b6000600b6000838152602001908152602001600020600081548110610dab57610daa612ead565b5b90600052602060002090600891828204019190066004029054906101000a900463ffffffff1663ffffffff169050919050565b6060806000600b6000858152602001908152602001600020600081548110610e0957610e08612ead565b5b90600052602060002090600891828204019190066004029054906101000a900463ffffffff1690506000600b6000868152602001908152602001600020600181548110610e5957610e58612ead565b5b90600052602060002090600891828204019190066004029054906101000a900463ffffffff16905060008183610e8f9190612fa0565b905060006007600088815260200190815260200160002080549050905060008263ffffffff1682610ec09190612f6c565b67ffffffffffffffff811115610ed957610ed86124f0565b5b604051908082528060200260200182016040528015610f1257816020015b610eff61218d565b815260200190600190039081610ef75790505b50905060008363ffffffff1667ffffffffffffffff811115610f3757610f366124f0565b5b604051908082528060200260200182016040528015610f7057816020015b610f5d6121c3565b815260200190600190039081610f555790505b50905060008060005b8581101561143a57600c6000828152602001908152602001600020600181548110610fa757610fa6612ead565b5b90600052602060002090602091828204019190069054906101000a900460ff1615610fd157611427565b60011515600c6000838152602001908152602001600020600081548110610ffb57610ffa612ead565b5b90600052602060002090602091828204019190069054906101000a900460ff161515141561124b5760006001600a6000848152602001908152602001600020805490506110489190612f6c565b90506000600a6000848152602001908152602001600020828154811061107157611070612ead565b5b906000526020600020015490506008818154811061109257611091612ead565b5b90600052602060002090600702016040518060e00160405290816000820180546110bb90612f0b565b80601f01602080910402602001604051908101604052809291908181526020018280546110e790612f0b565b80156111345780601f1061110957610100808354040283529160200191611134565b820191906000526020600020905b81548152906001019060200180831161111757829003601f168201915b5050505050815260200160018201548152602001600282015481526020016003820154815260200160048201805461116b90612f0b565b80601f016020809104026020016040519081016040528092919081815260200182805461119790612f0b565b80156111e45780601f106111b9576101008083540402835291602001916111e4565b820191906000526020600020905b8154815290600101906020018083116111c757829003601f168201915b505050505081526020016005820160009054906101000a900460ff16151515158152602001600682015481525050868663ffffffff168151811061122b5761122a612ead565b5b6020026020010181905250848061124190612fd4565b9550505050611426565b6000600760008e8152602001908152602001600020828154811061127257611271612ead565b5b906000526020600020015490506006818154811061129357611292612ead565b5b90600052602060002090600602016040518060c00160405290816000820180546112bc90612f0b565b80601f01602080910402602001604051908101604052809291908181526020018280546112e890612f0b565b80156113355780601f1061130a57610100808354040283529160200191611335565b820191906000526020600020905b81548152906001019060200180831161131857829003601f168201915b5050505050815260200160018201548152602001600282015481526020016003820154815260200160048201805461136c90612f0b565b80601f016020809104026020016040519081016040528092919081815260200182805461139890612f0b565b80156113e55780601f106113ba576101008083540402835291602001916113e5565b820191906000526020600020905b8154815290600101906020018083116113c857829003601f168201915b5050505050815260200160058201548152505086848151811061140b5761140a612ead565b5b6020026020010181905250828061142190613001565b935050505b5b808061143290613001565b915050610f79565b508383995099505050505050505050915091565b60606000600d600084815260200190815260200160002080549050905060008167ffffffffffffffff811115611487576114866124f0565b5b6040519080825280602002602001820160405280156114c057816020015b6114ad6121c3565b8152602001906001900390816114a55790505b50905060005b828110156116c8576000600d600087815260200190815260200160002082815481106114f5576114f4612ead565b5b906000526020600020015490506008818154811061151657611515612ead565b5b90600052602060002090600702016040518060e001604052908160008201805461153f90612f0b565b80601f016020809104026020016040519081016040528092919081815260200182805461156b90612f0b565b80156115b85780601f1061158d576101008083540402835291602001916115b8565b820191906000526020600020905b81548152906001019060200180831161159b57829003601f168201915b505050505081526020016001820154815260200160028201548152602001600382015481526020016004820180546115ef90612f0b565b80601f016020809104026020016040519081016040528092919081815260200182805461161b90612f0b565b80156116685780601f1061163d57610100808354040283529160200191611668565b820191906000526020600020905b81548152906001019060200180831161164b57829003601f168201915b505050505081526020016005820160009054906101000a900460ff161515151581526020016006820154815250508383815181106116a9576116a8612ead565b5b60200260200101819052505080806116c090613001565b9150506114c6565b508092505050919050565b60086040518060e001604052808881526020018781526020018681526020018581526020018381526020018415158152602001600880549050815250908060018154018082558091505060019003906000526020600020906007020160009091909190915060008201518160000190805190602001906117549291906120bc565b50602082015181600101556040820151816002015560608201518160030155608082015181600401908051906020019061178f9291906120bc565b5060a08201518160050160006101000a81548160ff02191690831515021790555060c082015181600601555050600060016008805490506117d09190612f6c565b9050600c60008981526020019081526020016000206000815481106117f8576117f7612ead565b5b90600052602060002090602091828204019190069054906101000a900460ff16611925576001600c60008a815260200190815260200160002060008154811061184457611843612ead565b5b90600052602060002090602091828204019190066101000a81548160ff02191690831515021790555060006001600b600089815260200190815260200160002060008154811061189757611896612ead565b5b90600052602060002090600891828204019190066004029054906101000a900463ffffffff166118c7919061304a565b905080600b60008981526020019081526020016000206000815481106118f0576118ef612ead565b5b90600052602060002090600891828204019190066004026101000a81548163ffffffff021916908363ffffffff160217905550505b600a6000898152602001908152602001600020819080600181540180825580915050600190039060005260206000200160009091909190915055600115158315151415611ac057600d600087815260200190815260200160002060016008805490506119919190612f6c565b90806001815401808255809150506001900390600052602060002001600090919091909150556001600c60008a81526020019081526020016000206001815481106119df576119de612ead565b5b90600052602060002090602091828204019190066101000a81548160ff02191690831515021790555060006001600b6000898152602001908152602001600020600181548110611a3257611a31612ead565b5b90600052602060002090600891828204019190066004029054906101000a900463ffffffff16611a62919061304a565b905080600b6000898152602001908152602001600020600181548110611a8b57611a8a612ead565b5b90600052602060002090600891828204019190066004026101000a81548163ffffffff021916908363ffffffff160217905550505b5050505050505050565b6000600c6000838152602001908152602001600020600181548110611af257611af1612ead565b5b90600052602060002090602091828204019190069054906101000a900460ff169050919050565b611b2161218d565b60068281548110611b3557611b34612ead565b5b90600052602060002090600602016040518060c0016040529081600082018054611b5e90612f0b565b80601f0160208091040260200160405190810160405280929190818152602001828054611b8a90612f0b565b8015611bd75780601f10611bac57610100808354040283529160200191611bd7565b820191906000526020600020905b815481529060010190602001808311611bba57829003601f168201915b50505050508152602001600182015481526020016002820154815260200160038201548152602001600482018054611c0e90612f0b565b80601f0160208091040260200160405190810160405280929190818152602001828054611c3a90612f0b565b8015611c875780601f10611c5c57610100808354040283529160200191611c87565b820191906000526020600020905b815481529060010190602001808311611c6a57829003601f168201915b505050505081526020016005820154815250509050919050565b60026040518060c001604052808773ffffffffffffffffffffffffffffffffffffffff1681526020018681526020018581526020018481526020018363ffffffff168152602001600280549050815250908060018154018082558091505060019003906000526020600020906006020160009091909190915060008201518160000160006101000a81548173ffffffffffffffffffffffffffffffffffffffff021916908373ffffffffffffffffffffffffffffffffffffffff1602179055506020820151816001019080519060200190611d7d9291906120bc565b506040820151816002019080519060200190611d9a9291906120bc565b506060820151816003019080519060200190611db79291906120bc565b5060808201518160040160006101000a81548163ffffffff021916908363ffffffff16021790555060a08201518160050155505060036000815480929190611dfe90613001565b91905055505050505050565b60006040518060a001604052808673ffffffffffffffffffffffffffffffffffffffff1681526020018581526020018481526020018363ffffffff168152602001600080549050815250908060018154018082558091505060019003906000526020600020906005020160009091909190915060008201518160000160006101000a81548173ffffffffffffffffffffffffffffffffffffffff021916908373ffffffffffffffffffffffffffffffffffffffff1602179055506020820151816001019080519060200190611ee09291906120bc565b506040820151816002019080519060200190611efd9291906120bc565b5060608201518160030160006101000a81548163ffffffff021916908363ffffffff16021790555060808201518160040155505060016000815480929190611f4490613001565b919050555060006001600080549050611f5d9190612f6c565b905080600560008773ffffffffffffffffffffffffffffffffffffffff1673ffffffffffffffffffffffffffffffffffffffff16815260200190815260200160002081905550600b6000828152602001908152602001600020600090806001815401808255809150506001900390600052602060002090600891828204019190066004029091909190916101000a81548163ffffffff021916908363ffffffff160217905550600b6000828152602001908152602001600020600090806001815401808255809150506001900390600052602060002090600891828204019190066004029091909190916101000a81548163ffffffff021916908363ffffffff1602179055505050505050565b6040518060c00160405280600073ffffffffffffffffffffffffffffffffffffffff168152602001606081526020016060815260200160608152602001600063ffffffff168152602001600081525090565b8280546120c890612f0b565b90600052602060002090601f0160209004810192826120ea5760008555612131565b82601f1061210357805160ff1916838001178555612131565b82800160010185558215612131579182015b82811115612130578251825591602001919060010190612115565b5b50905061213e9190612202565b5090565b6040518060a00160405280600073ffffffffffffffffffffffffffffffffffffffff1681526020016060815260200160608152602001600063ffffffff168152602001600081525090565b6040518060c001604052806060815260200160008152602001600081526020016000815260200160608152602001600081525090565b6040518060e001604052806060815260200160008152602001600081526020016000815260200160608152602001600015158152602001600081525090565b5b8082111561221b576000816000905550600101612203565b5090565b6000604051905090565b600080fd5b600080fd5b600073ffffffffffffffffffffffffffffffffffffffff82169050919050565b600061225e82612233565b9050919050565b61226e81612253565b811461227957600080fd5b50565b60008135905061228b81612265565b92915050565b6000602082840312156122a7576122a6612229565b5b60006122b58482850161227c565b91505092915050565b60008115159050919050565b6122d3816122be565b82525050565b60006020820190506122ee60008301846122ca565b92915050565b6000819050919050565b612307816122f4565b811461231257600080fd5b50565b600081359050612324816122fe565b92915050565b6000602082840312156123405761233f612229565b5b600061234e84828501612315565b91505092915050565b61236081612253565b82525050565b600081519050919050565b600082825260208201905092915050565b60005b838110156123a0578082015181840152602081019050612385565b838111156123af576000848401525b50505050565b6000601f19601f8301169050919050565b60006123d182612366565b6123db8185612371565b93506123eb818560208601612382565b6123f4816123b5565b840191505092915050565b600063ffffffff82169050919050565b612418816123ff565b82525050565b612427816122f4565b82525050565b600060c0830160008301516124456000860182612357565b506020830151848203602086015261245d82826123c6565b9150506040830151848203604086015261247782826123c6565b9150506060830151848203606086015261249182826123c6565b91505060808301516124a6608086018261240f565b5060a08301516124b960a086018261241e565b508091505092915050565b600060208201905081810360008301526124de818461242d565b905092915050565b600080fd5b600080fd5b7f4e487b7100000000000000000000000000000000000000000000000000000000600052604160045260246000fd5b612528826123b5565b810181811067ffffffffffffffff82111715612547576125466124f0565b5b80604052505050565b600061255a61221f565b9050612566828261251f565b919050565b600067ffffffffffffffff821115612586576125856124f0565b5b61258f826123b5565b9050602081019050919050565b82818337600083830152505050565b60006125be6125b98461256b565b612550565b9050828152602081018484840111156125da576125d96124eb565b5b6125e584828561259c565b509392505050565b600082601f830112612602576126016124e6565b5b81356126128482602086016125ab565b91505092915050565b600080600080600060a0868803121561263757612636612229565b5b600086013567ffffffffffffffff8111156126555761265461222e565b5b612661888289016125ed565b955050602061267288828901612315565b945050604061268388828901612315565b935050606061269488828901612315565b925050608086013567ffffffffffffffff8111156126b5576126b461222e565b5b6126c1888289016125ed565b9150509295509295909350565b600060a0830160008301516126e66000860182612357565b50602083015184820360208601526126fe82826123c6565b9150506040830151848203604086015261271882826123c6565b915050606083015161272d606086018261240f565b506080830151612740608086018261241e565b508091505092915050565b6000602082019050818103600083015261276581846126ce565b905092915050565b600081519050919050565b600082825260208201905092915050565b6000819050602082019050919050565b60006127a5838361241e565b60208301905092915050565b6000602082019050919050565b60006127c98261276d565b6127d38185612778565b93506127de83612789565b8060005b8381101561280f5781516127f68882612799565b9750612801836127b1565b9250506001810190506127e2565b5085935050505092915050565b6000602082019050818103600083015261283681846127be565b905092915050565b612847816122f4565b82525050565b6000602082019050612862600083018461283e565b92915050565b612871816123ff565b811461287c57600080fd5b50565b60008135905061288e81612868565b92915050565b600080600080600080600080610100898b0312156128b5576128b4612229565b5b60006128c38b828c0161227c565b985050602089013567ffffffffffffffff8111156128e4576128e361222e565b5b6128f08b828c016125ed565b975050604089013567ffffffffffffffff8111156129115761291061222e565b5b61291d8b828c016125ed565b965050606089013567ffffffffffffffff81111561293e5761293d61222e565b5b61294a8b828c016125ed565b955050608061295b8b828c0161287f565b94505060a089013567ffffffffffffffff81111561297c5761297b61222e565b5b6129888b828c016125ed565b93505060c089013567ffffffffffffffff8111156129a9576129a861222e565b5b6129b58b828c016125ed565b92505060e06129c68b828c0161287f565b9150509295985092959890939650565b600081519050919050565b600082825260208201905092915050565b6000819050602082019050919050565b600060c0830160008301518482036000860152612a1f82826123c6565b9150506020830151612a34602086018261241e565b506040830151612a47604086018261241e565b506060830151612a5a606086018261241e565b5060808301518482036080860152612a7282826123c6565b91505060a0830151612a8760a086018261241e565b508091505092915050565b6000612a9e8383612a02565b905092915050565b6000602082019050919050565b6000612abe826129d6565b612ac881856129e1565b935083602082028501612ada856129f2565b8060005b85811015612b165784840389528151612af78582612a92565b9450612b0283612aa6565b925060208a01995050600181019050612ade565b50829750879550505050505092915050565b600081519050919050565b600082825260208201905092915050565b6000819050602082019050919050565b612b5d816122be565b82525050565b600060e0830160008301518482036000860152612b8082826123c6565b9150506020830151612b95602086018261241e565b506040830151612ba8604086018261241e565b506060830151612bbb606086018261241e565b5060808301518482036080860152612bd382826123c6565b91505060a0830151612be860a0860182612b54565b5060c0830151612bfb60c086018261241e565b508091505092915050565b6000612c128383612b63565b905092915050565b6000602082019050919050565b6000612c3282612b28565b612c3c8185612b33565b935083602082028501612c4e85612b44565b8060005b85811015612c8a5784840389528151612c6b8582612c06565b9450612c7683612c1a565b925060208a01995050600181019050612c52565b50829750879550505050505092915050565b60006040820190508181036000830152612cb68185612ab3565b90508181036020830152612cca8184612c27565b90509392505050565b60006020820190508181036000830152612ced8184612c27565b905092915050565b612cfe816122be565b8114612d0957600080fd5b50565b600081359050612d1b81612cf5565b92915050565b600080600080600080600060e0888a031215612d4057612d3f612229565b5b6000612d4e8a828b01612315565b975050602088013567ffffffffffffffff811115612d6f57612d6e61222e565b5b612d7b8a828b016125ed565b9650506040612d8c8a828b01612315565b9550506060612d9d8a828b01612315565b9450506080612dae8a828b01612315565b93505060a0612dbf8a828b01612d0c565b92505060c088013567ffffffffffffffff811115612de057612ddf61222e565b5b612dec8a828b016125ed565b91505092959891949750929550565b600060c0830160008301518482036000860152612e1882826123c6565b9150506020830151612e2d602086018261241e565b506040830151612e40604086018261241e565b506060830151612e53606086018261241e565b5060808301518482036080860152612e6b82826123c6565b91505060a0830151612e8060a086018261241e565b508091505092915050565b60006020820190508181036000830152612ea58184612dfb565b905092915050565b7f4e487b7100000000000000000000000000000000000000000000000000000000600052603260045260246000fd5b7f4e487b7100000000000000000000000000000000000000000000000000000000600052602260045260246000fd5b60006002820490506001821680612f2357607f821691505b60208210811415612f3757612f36612edc565b5b50919050565b7f4e487b7100000000000000000000000000000000000000000000000000000000600052601160045260246000fd5b6000612f77826122f4565b9150612f82836122f4565b925082821015612f9557612f94612f3d565b5b828203905092915050565b6000612fab826123ff565b9150612fb6836123ff565b925082821015612fc957612fc8612f3d565b5b828203905092915050565b6000612fdf826123ff565b915063ffffffff821415612ff657612ff5612f3d565b5b600182019050919050565b600061300c826122f4565b91507fffffffffffffffffffffffffffffffffffffffffffffffffffffffffffffffff82141561303f5761303e612f3d565b5b600182019050919050565b6000613055826123ff565b9150613060836123ff565b92508263ffffffff0382111561307957613078612f3d565b5b82820190509291505056fea2646970667358221220ab34bd461f548cf3deb82da333839f0658a14200aea59ad228c5fe73524534fb64736f6c634300080c0033",
  "immutableReferences": {},
  "source": "// SPDX-License-Identifier: MIT\r\npragma solidity >=0.7.0 <0.9.10;\r\n\r\ncontract Main {\r\n    //EVENTS\r\n    event NewOrganization(address user, string name);\r\n    event LogNewUser(\r\n        address indexed userAddress,\r\n        uint256 index,\r\n        bytes32 userEmail,\r\n        uint256 userAge\r\n    );\r\n\r\n    //STRUCTS\r\n    struct Organization {\r\n        address admin;\r\n        string name;\r\n        string addressO;\r\n        uint32 telephone;\r\n        uint256 index;\r\n    }\r\n\r\n    struct Admin {\r\n        address admin;\r\n        string name;\r\n        string lastname;\r\n        string email;\r\n        uint32 telephone;\r\n        uint256 index;\r\n    }\r\n\r\n    //DATA\r\n    Organization[] private organizations;\r\n    uint256 orgCount;\r\n\r\n    Admin[] private admins;\r\n    uint256 adminsCount;\r\n\r\n    //List of users with a org created (administrators)\r\n    address[] private administrators;\r\n\r\n    mapping(address => uint256) public addressToOrganizationIndex;\r\n\r\n    //FUNCTIONS\r\n\r\n    //data created with organization\r\n    function insertOrgAndAdmin(\r\n        address admin,\r\n        string memory name,\r\n        string memory lastname,\r\n        string memory email,\r\n        uint32 adTelephone,\r\n        string memory orgName,\r\n        string memory orgAddress,\r\n        uint32 orgTelephone\r\n    ) public {\r\n        if (isAdministrator(admin)) revert();\r\n        insertAdmin(admin, name, lastname, email, adTelephone);\r\n        insertOrganization(admin, orgName, orgAddress, orgTelephone);\r\n        administrators.push(admin);\r\n    }\r\n\r\n    function insertAdmin(\r\n        address admin,\r\n        string memory name,\r\n        string memory lastname,\r\n        string memory email,\r\n        uint32 telephone\r\n    ) private {\r\n        admins.push(\r\n            (Admin(admin, name, lastname, email, telephone, admins.length))\r\n        );\r\n        adminsCount++;\r\n    }\r\n\r\n    function insertOrganization(\r\n        address userAddress,\r\n        string memory name,\r\n        string memory addressO,\r\n        uint32 telephone\r\n    ) private {\r\n        organizations.push(\r\n            Organization(\r\n                userAddress,\r\n                name,\r\n                addressO,\r\n                telephone,\r\n                organizations.length\r\n            )\r\n        );\r\n        orgCount++;\r\n        uint256 id = organizations.length - 1;\r\n        addressToOrganizationIndex[userAddress] = id;\r\n        //Create the mapping with 0 assets edited and 0 deleted\r\n        organizationNumberOfAssetsED[id].push(0);\r\n        organizationNumberOfAssetsED[id].push(0);\r\n    }\r\n\r\n    // Check if the address has created a org, == is an administrator.\r\n    function isAdministrator(address userAddress)\r\n        public\r\n        view\r\n        returns (bool isIndeed)\r\n    {\r\n        if (administrators.length == 0) return false;\r\n        return (administrators[addressToOrganizationIndex[userAddress]] ==\r\n            userAddress);\r\n    }\r\n\r\n    function getOrg(uint256 _orgId) public view returns (Organization memory) {\r\n        return organizations[_orgId];\r\n    }\r\n\r\n    function getAdminToOrg(address userAddress)\r\n        public\r\n        view\r\n        returns (uint256 userid)\r\n    {\r\n        return addressToOrganizationIndex[userAddress];\r\n    }\r\n\r\n    //Get the organization if there is an address that created it\r\n    function getOrgFromAddress(address userAddress)\r\n        public\r\n        view\r\n        returns (Organization memory org)\r\n    {\r\n        if (isAdministrator(userAddress)) revert();\r\n        uint256 orgId = getAdminToOrg(userAddress);\r\n        Organization memory organ = getOrg(orgId);\r\n        return organ;\r\n    }\r\n\r\n    //ASSETS TYPE AND FUNCTIONS\r\n    struct Asset {\r\n        string name;\r\n        uint256 organziationId;\r\n        uint256 adquireDate;\r\n        uint256 creationDate;\r\n        string assetType;\r\n        uint256 index;\r\n    }\r\n\r\n    Asset[] private assetsList;\r\n    //uint256 orgCount;\r\n\r\n    //UNNECESARY MAPPING\r\n    //mapping(uint256 => uint256) private assetToOrg;\r\n\r\n    //CREAR UN MAPPING DE ORGANIZACIN (ID) A LISTA DE ASSETS (ID)?\r\n    mapping(uint256 => uint256[]) private assetsFromOrg;\r\n\r\n    //ASSET EDITED INTRODUCES A BOOL DELETED\r\n    struct AssetEdited {\r\n        string name;\r\n        uint256 organziationId;\r\n        uint256 adquireDate;\r\n        uint256 creationDate;\r\n        string assetType;\r\n        bool deleted;\r\n        uint256 index;\r\n    }\r\n\r\n    AssetEdited[] private assetsEditedList;\r\n    //uint256 orgCount;\r\n    mapping(uint256 => uint256) private assetEditedToAsset;\r\n\r\n    //ASSETS ORIGINAL TO LIST OF ASSETS EDITED\r\n    mapping(uint256 => uint256[]) private originalAssetsToEditedList;\r\n\r\n    function insertAsset(\r\n        string memory name,\r\n        uint256 organizationId,\r\n        uint256 adquireDate,\r\n        uint256 creationDate,\r\n        string memory assetType\r\n    ) public {\r\n        assetsList.push(\r\n            (\r\n                Asset(\r\n                    name,\r\n                    organizationId,\r\n                    adquireDate,\r\n                    creationDate,\r\n                    assetType,\r\n                    assetsList.length\r\n                )\r\n            )\r\n        );\r\n        //adminsCount++;\r\n        assetsFromOrg[organizationId].push(assetsList.length - 1);\r\n        assetBoolEditedAndDeleted[assetsList.length - 1].push(false);\r\n        assetBoolEditedAndDeleted[assetsList.length - 1].push(false);\r\n        originalAssetsToEditedList[assetsList.length - 1];\r\n    }\r\n\r\n    function getAsset(uint256 id) public view returns (Asset memory) {\r\n        return assetsList[id];\r\n    }\r\n\r\n    function getAdmin(uint256 _adminId) public view returns (Admin memory) {\r\n        return admins[_adminId];\r\n    }\r\n\r\n    function getAllAssetsFromOrg(uint256 _orgId)\r\n        public\r\n        view\r\n        returns (Asset[] memory, AssetEdited[] memory)\r\n    {\r\n        uint32 contEdited = organizationNumberOfAssetsED[_orgId][0];\r\n        uint32 contDeleted = organizationNumberOfAssetsED[_orgId][1];\r\n        uint32 edList = uint32(uint32(contEdited) - uint32(contDeleted));\r\n        uint256 cont = assetsFromOrg[_orgId].length;\r\n        Asset[] memory listOrgAssets = new Asset[](cont-edList);\r\n        AssetEdited[] memory listOrgAssetsEdited = new AssetEdited[](edList);\r\n        uint32 bucleEdited = 0;\r\n        uint bucleOriginal = 0;\r\n        for (uint256 i = 0; i < cont; i++) {\r\n            //First check if that asset has been deleted\r\n            //so we don't retrieve it\r\n            if (assetBoolEditedAndDeleted[i][1]) {\r\n                continue;\r\n            }\r\n            //Check if asset has been edited in order\r\n            //to retrieve last edited asset\r\n            if (assetBoolEditedAndDeleted[i][0] == true) {\r\n                uint256 lastItem = originalAssetsToEditedList[i].length - 1;\r\n                uint256 assetEditedId = originalAssetsToEditedList[i][lastItem];\r\n                listOrgAssetsEdited[bucleEdited] = assetsEditedList[assetEditedId];\r\n                bucleEdited++;\r\n                //Last case the asset hasn't been edited\r\n            } else {\r\n                uint256 assetId = assetsFromOrg[_orgId][i];\r\n                listOrgAssets[bucleOriginal] = assetsList[assetId];\r\n                bucleOriginal++;\r\n            }\r\n        }\r\n        return (listOrgAssets, listOrgAssetsEdited);\r\n    }\r\n\r\n\r\n    //MAPPING ID OF WITH THE LIST OF NUMBER OF ASSETS EDITED AND DELETED\r\n    mapping(uint256 => uint32[]) private organizationNumberOfAssetsED;\r\n\r\n    //CREAMOS UNA LISTA QUE RECOGE LOS id de los ASSETS ORIGINALES QUE TIENEN ALGUNA EDICIN\r\n    //uint256[] private assetsOriginalEdited;\r\n\r\n    //CREAR MAPPING DE ID ORIGINAL A LIST OF BOOLEAN\r\n    // QUE INDICA SI EL ID EST EDITADO EN EL PRIMER VALOR\r\n    // EN EL SEGUNDO VALOR INDICA SI EST ELIMINADO\r\n    mapping(uint256 => bool[]) private assetBoolEditedAndDeleted;\r\n    //DE ESTA MANERA PODEMOS VER EN CADA CASO EL ID SI EST EDITADO O ELIMINADO\r\n\r\n    //mapping que relaciona la org con los assets que tiene eliminados\r\n    mapping(uint256 => uint256[]) private assetsFromOrgDeleted;\r\n\r\n    function insertEditedAsset(\r\n        uint256 originalAssetId,\r\n        string memory name,\r\n        uint256 organizationId,\r\n        uint256 adquireDate,\r\n        uint256 creationDate,\r\n        bool deleted,\r\n        string memory assetType\r\n    ) public {\r\n        //CHECK IF THE ASSET IS ALREADY IN ASSETS EDITED LIST\r\n        \r\n        assetsEditedList.push(\r\n            (\r\n                AssetEdited(\r\n                    name,\r\n                    organizationId,\r\n                    adquireDate,\r\n                    creationDate,\r\n                    assetType,\r\n                    deleted,\r\n                    assetsEditedList.length\r\n                )\r\n            )\r\n        );\r\n        uint256 id = assetsEditedList.length - 1;\r\n        if (!assetBoolEditedAndDeleted[originalAssetId][0]) {\r\n            assetBoolEditedAndDeleted[originalAssetId][0] = true;\r\n            uint32 ed = organizationNumberOfAssetsED[organizationId][0]+1;\r\n            organizationNumberOfAssetsED[organizationId][0] = ed;\r\n        }\r\n        originalAssetsToEditedList[originalAssetId].push(id);\r\n        \r\n        if (deleted == true) {\r\n            assetsFromOrgDeleted[organizationId].push(\r\n                assetsEditedList.length - 1\r\n            );\r\n            assetBoolEditedAndDeleted[originalAssetId][1] = true;\r\n            uint32 de = organizationNumberOfAssetsED[organizationId][1]+1;\r\n            organizationNumberOfAssetsED[organizationId][1] = de;\r\n        }\r\n    }\r\n\r\n    function getAssetsDeleted(uint256 orgId)\r\n        public\r\n        view\r\n        returns (AssetEdited[] memory)\r\n    {\r\n        uint256 cont = assetsFromOrgDeleted[orgId].length;\r\n        AssetEdited[] memory listAssetsDeleted = new AssetEdited[](cont);\r\n        for (uint256 i = 0; i < cont; i++) {\r\n            uint256 id = assetsFromOrgDeleted[orgId][i];\r\n            listAssetsDeleted[i] = assetsEditedList[id];\r\n        }\r\n        return listAssetsDeleted;\r\n    }\r\n\r\n    function getIsAssetEdited(uint256 idAsset)\r\n        public\r\n        view\r\n        returns (bool result)\r\n    {\r\n        return assetBoolEditedAndDeleted[idAsset][0];\r\n    }\r\n\r\n    function getIsAssetDeleted(uint256 idAsset)\r\n        public\r\n        view\r\n        returns (bool result)\r\n    {\r\n        return assetBoolEditedAndDeleted[idAsset][1];\r\n    }\r\n\r\n    function getOrgNumEdited(uint orgId) public view returns (uint numEdited) {\r\n        return organizationNumberOfAssetsED[orgId][0];\r\n    }\r\n\r\n    function getOrgNumDeleted(uint orgId) public view returns (uint numDeleted) {\r\n        return organizationNumberOfAssetsED[orgId][1];\r\n    }\r\n\r\n    function getEdDeList(uint assetId) public view returns (uint[] memory listEdited) {\r\n        return originalAssetsToEditedList[assetId];\r\n    }\r\n\r\n    /* \r\n    //asset\r\n    [1,2,3]\r\n    //editados\r\n    [1,2]\r\n\r\n    //lista de assets eliminados []\r\n    //\r\n\r\n    /* /editado {\r\nnombre, tipo, skjdalksjd, booldeleted\r\n    listaborrados.push() cuando se elimine\r\n    } */\r\n\r\n    //mapping(editado=>asset)\r\n    //mapping(asset=> []editado) para sacar el ultimo que se ha editado\r\n\r\n    //assets editados (asset 1)\r\n    //[]\r\n\r\n    //boolean editar\r\n    //marca eliminar\r\n}\r\n",
  "sourcePath": "D:\\GIT\\inventory-blockchain\\blockchain\\contracts\\Main.sol",
  "compiler": {
    "name": "solc",
    "version": "0.8.12+commit.f00d7308.Emscripten.clang"
  },
  "schemaVersion": "3.4.6",
  "updatedAt": "2022-04-21T12:15:32.575Z",
  "devdoc": {
    "kind": "dev",
    "methods": {},
    "version": 1
  },
  "userdoc": {
    "kind": "user",
    "methods": {},
    "version": 1
  }
}