{
  "contractName": "Main",
  "abi": [
    {
      "inputs": [
        {
          "internalType": "address",
          "name": "_dataSAdd",
          "type": "address"
        }
      ],
      "stateMutability": "nonpayable",
      "type": "constructor"
    },
    {
      "anonymous": false,
      "inputs": [
        {
          "indexed": true,
          "internalType": "address",
          "name": "userAddress",
          "type": "address"
        },
        {
          "indexed": false,
          "internalType": "uint256",
          "name": "index",
          "type": "uint256"
        },
        {
          "indexed": false,
          "internalType": "bytes32",
          "name": "userEmail",
          "type": "bytes32"
        },
        {
          "indexed": false,
          "internalType": "uint256",
          "name": "userAge",
          "type": "uint256"
        }
      ],
      "name": "LogNewUser",
      "type": "event"
    },
    {
      "anonymous": false,
      "inputs": [
        {
          "indexed": false,
          "internalType": "address",
          "name": "user",
          "type": "address"
        },
        {
          "indexed": false,
          "internalType": "string",
          "name": "name",
          "type": "string"
        }
      ],
      "name": "NewOrganization",
      "type": "event"
    },
    {
      "inputs": [
        {
          "internalType": "address",
          "name": "",
          "type": "address"
        }
      ],
      "name": "addressToOrganizationIndex",
      "outputs": [
        {
          "internalType": "uint256",
          "name": "",
          "type": "uint256"
        }
      ],
      "stateMutability": "view",
      "type": "function",
      "constant": true
    },
    {
      "inputs": [
        {
          "internalType": "uint256",
          "name": "",
          "type": "uint256"
        }
      ],
      "name": "administrators",
      "outputs": [
        {
          "internalType": "address",
          "name": "",
          "type": "address"
        }
      ],
      "stateMutability": "view",
      "type": "function",
      "constant": true
    },
    {
      "inputs": [
        {
          "internalType": "uint256",
          "name": "",
          "type": "uint256"
        }
      ],
      "name": "assetsList",
      "outputs": [
        {
          "internalType": "string",
          "name": "name",
          "type": "string"
        },
        {
          "internalType": "uint256",
          "name": "organizationId",
          "type": "uint256"
        },
        {
          "internalType": "uint256",
          "name": "adquireDate",
          "type": "uint256"
        },
        {
          "internalType": "uint256",
          "name": "creationDate",
          "type": "uint256"
        },
        {
          "internalType": "uint8",
          "name": "assetType",
          "type": "uint8"
        },
        {
          "internalType": "uint256",
          "name": "assetDepart",
          "type": "uint256"
        },
        {
          "internalType": "uint256",
          "name": "index",
          "type": "uint256"
        }
      ],
      "stateMutability": "view",
      "type": "function",
      "constant": true
    },
    {
      "inputs": [],
      "name": "dataStructsAdd",
      "outputs": [
        {
          "internalType": "address",
          "name": "",
          "type": "address"
        }
      ],
      "stateMutability": "view",
      "type": "function",
      "constant": true
    },
    {
      "inputs": [],
      "name": "orgCount",
      "outputs": [
        {
          "internalType": "uint256",
          "name": "",
          "type": "uint256"
        }
      ],
      "stateMutability": "view",
      "type": "function",
      "constant": true
    },
    {
      "inputs": [
        {
          "internalType": "address",
          "name": "admin",
          "type": "address"
        },
        {
          "internalType": "string",
          "name": "name",
          "type": "string"
        },
        {
          "internalType": "string",
          "name": "lastname",
          "type": "string"
        },
        {
          "internalType": "string",
          "name": "email",
          "type": "string"
        },
        {
          "internalType": "uint32",
          "name": "adTelephone",
          "type": "uint32"
        },
        {
          "internalType": "string",
          "name": "orgName",
          "type": "string"
        },
        {
          "internalType": "string",
          "name": "orgAddress",
          "type": "string"
        },
        {
          "internalType": "uint32",
          "name": "orgTelephone",
          "type": "uint32"
        }
      ],
      "name": "insertOrgAndAdmin",
      "outputs": [],
      "stateMutability": "nonpayable",
      "type": "function"
    },
    {
      "inputs": [
        {
          "internalType": "address",
          "name": "userAddress",
          "type": "address"
        }
      ],
      "name": "isAdministrator",
      "outputs": [
        {
          "internalType": "bool",
          "name": "isIndeed",
          "type": "bool"
        }
      ],
      "stateMutability": "view",
      "type": "function",
      "constant": true
    },
    {
      "inputs": [
        {
          "internalType": "uint256",
          "name": "_orgId",
          "type": "uint256"
        }
      ],
      "name": "getOrg",
      "outputs": [
        {
          "components": [
            {
              "internalType": "address",
              "name": "admin",
              "type": "address"
            },
            {
              "internalType": "string",
              "name": "name",
              "type": "string"
            },
            {
              "internalType": "string",
              "name": "addressO",
              "type": "string"
            },
            {
              "internalType": "uint32",
              "name": "telephone",
              "type": "uint32"
            },
            {
              "internalType": "uint256",
              "name": "index",
              "type": "uint256"
            }
          ],
          "internalType": "struct Main.Organization",
          "name": "",
          "type": "tuple"
        }
      ],
      "stateMutability": "view",
      "type": "function",
      "constant": true
    },
    {
      "inputs": [],
      "name": "getIdAsset",
      "outputs": [
        {
          "internalType": "uint256",
          "name": "id",
          "type": "uint256"
        }
      ],
      "stateMutability": "view",
      "type": "function",
      "constant": true
    },
    {
      "inputs": [
        {
          "internalType": "address",
          "name": "userAddress",
          "type": "address"
        }
      ],
      "name": "getAdminToOrg",
      "outputs": [
        {
          "internalType": "uint256",
          "name": "userid",
          "type": "uint256"
        }
      ],
      "stateMutability": "view",
      "type": "function",
      "constant": true
    },
    {
      "inputs": [
        {
          "internalType": "address",
          "name": "userAddress",
          "type": "address"
        }
      ],
      "name": "getOrgFromAddress",
      "outputs": [
        {
          "components": [
            {
              "internalType": "address",
              "name": "admin",
              "type": "address"
            },
            {
              "internalType": "string",
              "name": "name",
              "type": "string"
            },
            {
              "internalType": "string",
              "name": "addressO",
              "type": "string"
            },
            {
              "internalType": "uint32",
              "name": "telephone",
              "type": "uint32"
            },
            {
              "internalType": "uint256",
              "name": "index",
              "type": "uint256"
            }
          ],
          "internalType": "struct Main.Organization",
          "name": "org",
          "type": "tuple"
        }
      ],
      "stateMutability": "view",
      "type": "function",
      "constant": true
    },
    {
      "inputs": [
        {
          "internalType": "string",
          "name": "name",
          "type": "string"
        },
        {
          "internalType": "uint256",
          "name": "organizationId",
          "type": "uint256"
        },
        {
          "internalType": "uint256",
          "name": "adquireDate",
          "type": "uint256"
        },
        {
          "internalType": "uint256",
          "name": "creationDate",
          "type": "uint256"
        },
        {
          "internalType": "uint8",
          "name": "assetType",
          "type": "uint8"
        },
        {
          "internalType": "uint256",
          "name": "assetDepart",
          "type": "uint256"
        }
      ],
      "name": "insertAsset",
      "outputs": [],
      "stateMutability": "nonpayable",
      "type": "function"
    },
    {
      "inputs": [
        {
          "internalType": "uint256",
          "name": "index",
          "type": "uint256"
        },
        {
          "internalType": "uint256",
          "name": "assetDepartId",
          "type": "uint256"
        }
      ],
      "name": "insertAssetToDepartment",
      "outputs": [],
      "stateMutability": "nonpayable",
      "type": "function"
    },
    {
      "inputs": [
        {
          "internalType": "string",
          "name": "name",
          "type": "string"
        },
        {
          "internalType": "uint256",
          "name": "organizationId",
          "type": "uint256"
        },
        {
          "internalType": "uint256",
          "name": "adquireDate",
          "type": "uint256"
        },
        {
          "internalType": "uint256",
          "name": "creationDate",
          "type": "uint256"
        },
        {
          "internalType": "uint8",
          "name": "assetType",
          "type": "uint8"
        },
        {
          "internalType": "uint256",
          "name": "assetDepart",
          "type": "uint256"
        },
        {
          "internalType": "string",
          "name": "version",
          "type": "string"
        },
        {
          "internalType": "string",
          "name": "provider",
          "type": "string"
        },
        {
          "internalType": "uint8",
          "name": "stype",
          "type": "uint8"
        }
      ],
      "name": "insertNewSoftAsset",
      "outputs": [],
      "stateMutability": "nonpayable",
      "type": "function"
    },
    {
      "inputs": [
        {
          "internalType": "string",
          "name": "name",
          "type": "string"
        },
        {
          "internalType": "uint256",
          "name": "organizationId",
          "type": "uint256"
        },
        {
          "internalType": "uint256",
          "name": "adquireDate",
          "type": "uint256"
        },
        {
          "internalType": "uint256",
          "name": "creationDate",
          "type": "uint256"
        },
        {
          "internalType": "uint8",
          "name": "assetType",
          "type": "uint8"
        },
        {
          "internalType": "uint256",
          "name": "assetDepart",
          "type": "uint256"
        },
        {
          "internalType": "string",
          "name": "model",
          "type": "string"
        },
        {
          "internalType": "string",
          "name": "provider",
          "type": "string"
        },
        {
          "internalType": "string",
          "name": "serialNumber",
          "type": "string"
        },
        {
          "internalType": "uint8",
          "name": "htype",
          "type": "uint8"
        }
      ],
      "name": "insertNewHardAsset",
      "outputs": [],
      "stateMutability": "nonpayable",
      "type": "function"
    },
    {
      "inputs": [
        {
          "internalType": "string",
          "name": "name",
          "type": "string"
        },
        {
          "internalType": "uint256",
          "name": "organizationId",
          "type": "uint256"
        },
        {
          "internalType": "uint256",
          "name": "adquireDate",
          "type": "uint256"
        },
        {
          "internalType": "uint256",
          "name": "creationDate",
          "type": "uint256"
        },
        {
          "internalType": "uint8",
          "name": "assetType",
          "type": "uint8"
        },
        {
          "internalType": "uint256",
          "name": "assetDepart",
          "type": "uint256"
        },
        {
          "internalType": "string",
          "name": "description",
          "type": "string"
        },
        {
          "internalType": "string",
          "name": "location",
          "type": "string"
        },
        {
          "internalType": "uint8",
          "name": "doctype",
          "type": "uint8"
        }
      ],
      "name": "insertNewDocAsset",
      "outputs": [],
      "stateMutability": "nonpayable",
      "type": "function"
    },
    {
      "inputs": [
        {
          "internalType": "string",
          "name": "name",
          "type": "string"
        },
        {
          "internalType": "uint256",
          "name": "organizationId",
          "type": "uint256"
        },
        {
          "internalType": "uint256",
          "name": "adquireDate",
          "type": "uint256"
        },
        {
          "internalType": "uint256",
          "name": "creationDate",
          "type": "uint256"
        },
        {
          "internalType": "uint8",
          "name": "assetType",
          "type": "uint8"
        },
        {
          "internalType": "uint256",
          "name": "assetDepart",
          "type": "uint256"
        },
        {
          "internalType": "string",
          "name": "location",
          "type": "string"
        },
        {
          "internalType": "bool",
          "name": "local",
          "type": "bool"
        }
      ],
      "name": "insertNewDataAsset",
      "outputs": [],
      "stateMutability": "nonpayable",
      "type": "function"
    },
    {
      "inputs": [
        {
          "internalType": "string",
          "name": "name",
          "type": "string"
        },
        {
          "internalType": "uint256",
          "name": "organizationId",
          "type": "uint256"
        },
        {
          "internalType": "uint256",
          "name": "adquireDate",
          "type": "uint256"
        },
        {
          "internalType": "uint256",
          "name": "creationDate",
          "type": "uint256"
        },
        {
          "internalType": "uint8",
          "name": "assetType",
          "type": "uint8"
        },
        {
          "internalType": "uint256",
          "name": "assetDepart",
          "type": "uint256"
        },
        {
          "internalType": "string",
          "name": "cidrblock",
          "type": "string"
        },
        {
          "internalType": "bool",
          "name": "nat",
          "type": "bool"
        }
      ],
      "name": "insertNewNetworkAsset",
      "outputs": [],
      "stateMutability": "nonpayable",
      "type": "function"
    },
    {
      "inputs": [
        {
          "internalType": "string",
          "name": "name",
          "type": "string"
        },
        {
          "internalType": "uint256",
          "name": "organizationId",
          "type": "uint256"
        },
        {
          "internalType": "uint256",
          "name": "adquireDate",
          "type": "uint256"
        },
        {
          "internalType": "uint256",
          "name": "creationDate",
          "type": "uint256"
        },
        {
          "internalType": "uint8",
          "name": "assetType",
          "type": "uint8"
        },
        {
          "internalType": "uint256",
          "name": "assetDepart",
          "type": "uint256"
        },
        {
          "internalType": "string",
          "name": "url",
          "type": "string"
        },
        {
          "internalType": "string",
          "name": "domain",
          "type": "string"
        }
      ],
      "name": "insertNewCloudAsset",
      "outputs": [],
      "stateMutability": "nonpayable",
      "type": "function"
    },
    {
      "inputs": [
        {
          "internalType": "string",
          "name": "name",
          "type": "string"
        },
        {
          "internalType": "uint256",
          "name": "organizationId",
          "type": "uint256"
        },
        {
          "internalType": "uint256",
          "name": "adquireDate",
          "type": "uint256"
        },
        {
          "internalType": "uint256",
          "name": "creationDate",
          "type": "uint256"
        },
        {
          "internalType": "uint8",
          "name": "assetType",
          "type": "uint8"
        },
        {
          "internalType": "uint256",
          "name": "assetDepart",
          "type": "uint256"
        },
        {
          "internalType": "string",
          "name": "description",
          "type": "string"
        }
      ],
      "name": "insertNewOtherAsset",
      "outputs": [],
      "stateMutability": "nonpayable",
      "type": "function"
    },
    {
      "inputs": [
        {
          "internalType": "uint256",
          "name": "id",
          "type": "uint256"
        }
      ],
      "name": "getLastAssetEdited",
      "outputs": [
        {
          "components": [
            {
              "internalType": "uint256",
              "name": "originalAssetId",
              "type": "uint256"
            },
            {
              "internalType": "string",
              "name": "name",
              "type": "string"
            },
            {
              "internalType": "uint256",
              "name": "organizationId",
              "type": "uint256"
            },
            {
              "internalType": "uint256",
              "name": "adquireDate",
              "type": "uint256"
            },
            {
              "internalType": "uint256",
              "name": "creationDate",
              "type": "uint256"
            },
            {
              "internalType": "uint8",
              "name": "assetType",
              "type": "uint8"
            },
            {
              "internalType": "uint256",
              "name": "assetDepart",
              "type": "uint256"
            },
            {
              "internalType": "bool",
              "name": "deleted",
              "type": "bool"
            },
            {
              "internalType": "uint256",
              "name": "index",
              "type": "uint256"
            }
          ],
          "internalType": "struct Main.AssetEdited",
          "name": "",
          "type": "tuple"
        }
      ],
      "stateMutability": "view",
      "type": "function",
      "constant": true
    },
    {
      "inputs": [
        {
          "internalType": "uint256",
          "name": "id",
          "type": "uint256"
        }
      ],
      "name": "getAsset",
      "outputs": [
        {
          "components": [
            {
              "internalType": "string",
              "name": "name",
              "type": "string"
            },
            {
              "internalType": "uint256",
              "name": "organizationId",
              "type": "uint256"
            },
            {
              "internalType": "uint256",
              "name": "adquireDate",
              "type": "uint256"
            },
            {
              "internalType": "uint256",
              "name": "creationDate",
              "type": "uint256"
            },
            {
              "internalType": "uint8",
              "name": "assetType",
              "type": "uint8"
            },
            {
              "internalType": "uint256",
              "name": "assetDepart",
              "type": "uint256"
            },
            {
              "internalType": "uint256",
              "name": "index",
              "type": "uint256"
            }
          ],
          "internalType": "struct Main.Asset",
          "name": "",
          "type": "tuple"
        }
      ],
      "stateMutability": "view",
      "type": "function",
      "constant": true
    },
    {
      "inputs": [
        {
          "internalType": "uint256",
          "name": "_adminId",
          "type": "uint256"
        }
      ],
      "name": "getAdmin",
      "outputs": [
        {
          "components": [
            {
              "internalType": "address",
              "name": "admin",
              "type": "address"
            },
            {
              "internalType": "string",
              "name": "name",
              "type": "string"
            },
            {
              "internalType": "string",
              "name": "lastname",
              "type": "string"
            },
            {
              "internalType": "string",
              "name": "email",
              "type": "string"
            },
            {
              "internalType": "uint32",
              "name": "telephone",
              "type": "uint32"
            },
            {
              "internalType": "uint256",
              "name": "index",
              "type": "uint256"
            }
          ],
          "internalType": "struct Main.Admin",
          "name": "",
          "type": "tuple"
        }
      ],
      "stateMutability": "view",
      "type": "function",
      "constant": true
    },
    {
      "inputs": [
        {
          "internalType": "uint256",
          "name": "_orgId",
          "type": "uint256"
        }
      ],
      "name": "getAllAssetsFromOrg",
      "outputs": [
        {
          "components": [
            {
              "internalType": "string",
              "name": "name",
              "type": "string"
            },
            {
              "internalType": "uint256",
              "name": "organizationId",
              "type": "uint256"
            },
            {
              "internalType": "uint256",
              "name": "adquireDate",
              "type": "uint256"
            },
            {
              "internalType": "uint256",
              "name": "creationDate",
              "type": "uint256"
            },
            {
              "internalType": "uint8",
              "name": "assetType",
              "type": "uint8"
            },
            {
              "internalType": "uint256",
              "name": "assetDepart",
              "type": "uint256"
            },
            {
              "internalType": "uint256",
              "name": "index",
              "type": "uint256"
            }
          ],
          "internalType": "struct Main.Asset[]",
          "name": "",
          "type": "tuple[]"
        },
        {
          "components": [
            {
              "internalType": "uint256",
              "name": "originalAssetId",
              "type": "uint256"
            },
            {
              "internalType": "string",
              "name": "name",
              "type": "string"
            },
            {
              "internalType": "uint256",
              "name": "organizationId",
              "type": "uint256"
            },
            {
              "internalType": "uint256",
              "name": "adquireDate",
              "type": "uint256"
            },
            {
              "internalType": "uint256",
              "name": "creationDate",
              "type": "uint256"
            },
            {
              "internalType": "uint8",
              "name": "assetType",
              "type": "uint8"
            },
            {
              "internalType": "uint256",
              "name": "assetDepart",
              "type": "uint256"
            },
            {
              "internalType": "bool",
              "name": "deleted",
              "type": "bool"
            },
            {
              "internalType": "uint256",
              "name": "index",
              "type": "uint256"
            }
          ],
          "internalType": "struct Main.AssetEdited[]",
          "name": "",
          "type": "tuple[]"
        }
      ],
      "stateMutability": "view",
      "type": "function",
      "constant": true
    },
    {
      "inputs": [
        {
          "internalType": "uint256",
          "name": "originalAssetId",
          "type": "uint256"
        },
        {
          "internalType": "string",
          "name": "name",
          "type": "string"
        },
        {
          "internalType": "uint256",
          "name": "organizationId",
          "type": "uint256"
        },
        {
          "internalType": "uint256",
          "name": "adquireDate",
          "type": "uint256"
        },
        {
          "internalType": "uint256",
          "name": "creationDate",
          "type": "uint256"
        },
        {
          "internalType": "bool",
          "name": "deleted",
          "type": "bool"
        },
        {
          "internalType": "uint8",
          "name": "assetType",
          "type": "uint8"
        },
        {
          "internalType": "uint256",
          "name": "assetDepart",
          "type": "uint256"
        }
      ],
      "name": "insertEditedAsset",
      "outputs": [],
      "stateMutability": "nonpayable",
      "type": "function"
    },
    {
      "inputs": [
        {
          "internalType": "uint256",
          "name": "assetId",
          "type": "uint256"
        }
      ],
      "name": "getRecordList",
      "outputs": [
        {
          "components": [
            {
              "internalType": "string",
              "name": "name",
              "type": "string"
            },
            {
              "internalType": "uint256",
              "name": "organizationId",
              "type": "uint256"
            },
            {
              "internalType": "uint256",
              "name": "adquireDate",
              "type": "uint256"
            },
            {
              "internalType": "uint256",
              "name": "creationDate",
              "type": "uint256"
            },
            {
              "internalType": "uint8",
              "name": "assetType",
              "type": "uint8"
            },
            {
              "internalType": "uint256",
              "name": "assetDepart",
              "type": "uint256"
            },
            {
              "internalType": "uint256",
              "name": "index",
              "type": "uint256"
            }
          ],
          "internalType": "struct Main.Asset",
          "name": "",
          "type": "tuple"
        },
        {
          "components": [
            {
              "internalType": "uint256",
              "name": "originalAssetId",
              "type": "uint256"
            },
            {
              "internalType": "string",
              "name": "name",
              "type": "string"
            },
            {
              "internalType": "uint256",
              "name": "organizationId",
              "type": "uint256"
            },
            {
              "internalType": "uint256",
              "name": "adquireDate",
              "type": "uint256"
            },
            {
              "internalType": "uint256",
              "name": "creationDate",
              "type": "uint256"
            },
            {
              "internalType": "uint8",
              "name": "assetType",
              "type": "uint8"
            },
            {
              "internalType": "uint256",
              "name": "assetDepart",
              "type": "uint256"
            },
            {
              "internalType": "bool",
              "name": "deleted",
              "type": "bool"
            },
            {
              "internalType": "uint256",
              "name": "index",
              "type": "uint256"
            }
          ],
          "internalType": "struct Main.AssetEdited[]",
          "name": "",
          "type": "tuple[]"
        }
      ],
      "stateMutability": "view",
      "type": "function",
      "constant": true
    },
    {
      "inputs": [
        {
          "internalType": "uint256",
          "name": "id",
          "type": "uint256"
        }
      ],
      "name": "getAssetEdited",
      "outputs": [
        {
          "components": [
            {
              "internalType": "uint256",
              "name": "originalAssetId",
              "type": "uint256"
            },
            {
              "internalType": "string",
              "name": "name",
              "type": "string"
            },
            {
              "internalType": "uint256",
              "name": "organizationId",
              "type": "uint256"
            },
            {
              "internalType": "uint256",
              "name": "adquireDate",
              "type": "uint256"
            },
            {
              "internalType": "uint256",
              "name": "creationDate",
              "type": "uint256"
            },
            {
              "internalType": "uint8",
              "name": "assetType",
              "type": "uint8"
            },
            {
              "internalType": "uint256",
              "name": "assetDepart",
              "type": "uint256"
            },
            {
              "internalType": "bool",
              "name": "deleted",
              "type": "bool"
            },
            {
              "internalType": "uint256",
              "name": "index",
              "type": "uint256"
            }
          ],
          "internalType": "struct Main.AssetEdited",
          "name": "",
          "type": "tuple"
        }
      ],
      "stateMutability": "view",
      "type": "function",
      "constant": true
    },
    {
      "inputs": [
        {
          "internalType": "uint256",
          "name": "orgId",
          "type": "uint256"
        }
      ],
      "name": "getAssetsDeleted",
      "outputs": [
        {
          "components": [
            {
              "internalType": "uint256",
              "name": "originalAssetId",
              "type": "uint256"
            },
            {
              "internalType": "string",
              "name": "name",
              "type": "string"
            },
            {
              "internalType": "uint256",
              "name": "organizationId",
              "type": "uint256"
            },
            {
              "internalType": "uint256",
              "name": "adquireDate",
              "type": "uint256"
            },
            {
              "internalType": "uint256",
              "name": "creationDate",
              "type": "uint256"
            },
            {
              "internalType": "uint8",
              "name": "assetType",
              "type": "uint8"
            },
            {
              "internalType": "uint256",
              "name": "assetDepart",
              "type": "uint256"
            },
            {
              "internalType": "bool",
              "name": "deleted",
              "type": "bool"
            },
            {
              "internalType": "uint256",
              "name": "index",
              "type": "uint256"
            }
          ],
          "internalType": "struct Main.AssetEdited[]",
          "name": "",
          "type": "tuple[]"
        }
      ],
      "stateMutability": "view",
      "type": "function",
      "constant": true
    },
    {
      "inputs": [
        {
          "internalType": "uint256",
          "name": "idAsset",
          "type": "uint256"
        }
      ],
      "name": "getIsAssetEdited",
      "outputs": [
        {
          "internalType": "bool",
          "name": "result",
          "type": "bool"
        }
      ],
      "stateMutability": "view",
      "type": "function",
      "constant": true
    },
    {
      "inputs": [
        {
          "internalType": "uint256",
          "name": "idAsset",
          "type": "uint256"
        }
      ],
      "name": "getIsAssetDeleted",
      "outputs": [
        {
          "internalType": "bool",
          "name": "result",
          "type": "bool"
        }
      ],
      "stateMutability": "view",
      "type": "function",
      "constant": true
    },
    {
      "inputs": [
        {
          "internalType": "uint256",
          "name": "orgId",
          "type": "uint256"
        }
      ],
      "name": "getOrgNumEdited",
      "outputs": [
        {
          "internalType": "uint256",
          "name": "numEdited",
          "type": "uint256"
        }
      ],
      "stateMutability": "view",
      "type": "function",
      "constant": true
    },
    {
      "inputs": [
        {
          "internalType": "uint256",
          "name": "orgId",
          "type": "uint256"
        }
      ],
      "name": "getOrgNumDeleted",
      "outputs": [
        {
          "internalType": "uint256",
          "name": "numDeleted",
          "type": "uint256"
        }
      ],
      "stateMutability": "view",
      "type": "function",
      "constant": true
    },
    {
      "inputs": [
        {
          "internalType": "uint256",
          "name": "assetId",
          "type": "uint256"
        }
      ],
      "name": "getEdDeList",
      "outputs": [
        {
          "internalType": "uint256[]",
          "name": "listEdited",
          "type": "uint256[]"
        }
      ],
      "stateMutability": "view",
      "type": "function",
      "constant": true
    },
    {
      "inputs": [
        {
          "internalType": "uint256[]",
          "name": "ids",
          "type": "uint256[]"
        }
      ],
      "name": "retrieveListOfAsset",
      "outputs": [
        {
          "components": [
            {
              "internalType": "string",
              "name": "name",
              "type": "string"
            },
            {
              "internalType": "uint256",
              "name": "organizationId",
              "type": "uint256"
            },
            {
              "internalType": "uint256",
              "name": "adquireDate",
              "type": "uint256"
            },
            {
              "internalType": "uint256",
              "name": "creationDate",
              "type": "uint256"
            },
            {
              "internalType": "uint8",
              "name": "assetType",
              "type": "uint8"
            },
            {
              "internalType": "uint256",
              "name": "assetDepart",
              "type": "uint256"
            },
            {
              "internalType": "uint256",
              "name": "index",
              "type": "uint256"
            }
          ],
          "internalType": "struct Main.Asset[]",
          "name": "",
          "type": "tuple[]"
        },
        {
          "components": [
            {
              "internalType": "uint256",
              "name": "originalAssetId",
              "type": "uint256"
            },
            {
              "internalType": "string",
              "name": "name",
              "type": "string"
            },
            {
              "internalType": "uint256",
              "name": "organizationId",
              "type": "uint256"
            },
            {
              "internalType": "uint256",
              "name": "adquireDate",
              "type": "uint256"
            },
            {
              "internalType": "uint256",
              "name": "creationDate",
              "type": "uint256"
            },
            {
              "internalType": "uint8",
              "name": "assetType",
              "type": "uint8"
            },
            {
              "internalType": "uint256",
              "name": "assetDepart",
              "type": "uint256"
            },
            {
              "internalType": "bool",
              "name": "deleted",
              "type": "bool"
            },
            {
              "internalType": "uint256",
              "name": "index",
              "type": "uint256"
            }
          ],
          "internalType": "struct Main.AssetEdited[]",
          "name": "",
          "type": "tuple[]"
        }
      ],
      "stateMutability": "view",
      "type": "function",
      "constant": true
    },
    {
      "inputs": [
        {
          "internalType": "uint256",
          "name": "orgId",
          "type": "uint256"
        }
      ],
      "name": "retrieveOrgData",
      "outputs": [
        {
          "internalType": "uint256[]",
          "name": "",
          "type": "uint256[]"
        }
      ],
      "stateMutability": "view",
      "type": "function",
      "constant": true
    }
  ],
  "bytecode": "0x60806040523480156200001157600080fd5b506040516200538c3803806200538c8339818101604052810190620000379190620000e8565b806000806101000a81548173ffffffffffffffffffffffffffffffffffffffff021916908373ffffffffffffffffffffffffffffffffffffffff160217905550506200011a565b600080fd5b600073ffffffffffffffffffffffffffffffffffffffff82169050919050565b6000620000b08262000083565b9050919050565b620000c281620000a3565b8114620000ce57600080fd5b50565b600081519050620000e281620000b7565b92915050565b6000602082840312156200010157620001006200007e565b5b60006200011184828501620000d1565b91505092915050565b615262806200012a6000396000f3fe608060405234801561001057600080fd5b50600436106102115760003560e01c806371e85c4111610125578063d758fe6d116100ad578063de93f5391161007c578063de93f539146106c0578063e81ef319146106f0578063eac8f5b814610720578063ece9013314610750578063ef193b221461076c57610211565b8063d758fe6d14610625578063d810669014610641578063d89d15101461065f578063de7946fc1461068f57610211565b80639c40fd35116100f45780639c40fd351461055b578063a1c6d0d014610579578063b5e8097214610595578063c70abaf4146105c5578063c92bc12d146105f557610211565b806371e85c41146104bc5780638558b844146104f25780638ab95a331461050e5780639a06ff7f1461052a57610211565b8063329cf967116101a8578063415de94c11610177578063415de94c146103f45780634e4369c4146104245780635583071b146104545780636139e9f414610470578063653e69ff1461048c57610211565b8063329cf9671461035a5780633dd03539146103765780633e4e3b55146103a65780633fc07290146103c457610211565b80632124b4fe116101e45780632124b4fe146102c25780632360c27f146102de5780632c98cfa81461030e57806331fe8bcd1461032a57610211565b80630a2eb301146102165780630b7338a114610246578063111fd88b14610262578063151c3f4414610292575b600080fd5b610230600480360381019061022b919061395e565b61079d565b60405161023d91906139a6565b60405180910390f35b610260600480360381019061025b9190613b76565b610869565b005b61027c60048036038101906102779190613c94565b610925565b6040516102899190613e1d565b60405180910390f35b6102ac60048036038101906102a79190613c94565b610b9d565b6040516102b991906139a6565b60405180910390f35b6102dc60048036038101906102d79190613b76565b610bec565b005b6102f860048036038101906102f39190613c94565b610cb4565b6040516103059190613ebc565b60405180910390f35b61032860048036038101906103239190613ede565b610e9a565b005b610344600480360381019061033f9190613c94565b610f50565b6040516103519190614067565b60405180910390f35b610374600480360381019061036f9190614089565b610fbb565b005b610390600480360381019061038b9190613c94565b6111d9565b60405161039d9190614067565b60405180910390f35b6103ae61134d565b6040516103bb9190614141565b60405180910390f35b6103de60048036038101906103d9919061395e565b61135a565b6040516103eb9190613ebc565b60405180910390f35b61040e6004803603810190610409919061395e565b611399565b60405161041b9190614141565b60405180910390f35b61043e6004803603810190610439919061395e565b6113b1565b60405161044b9190614141565b60405180910390f35b61046e6004803603810190610469919061415c565b6113fa565b005b61048a6004803603810190610485919061419c565b611428565b005b6104a660048036038101906104a19190613c94565b6114e1565b6040516104b39190614141565b60405180910390f35b6104d660048036038101906104d19190613c94565b61153c565b6040516104e997969594939291906142ff565b60405180910390f35b61050c600480360381019061050791906143a1565b611623565b005b610528600480360381019061052391906144bb565b6116dc565b005b610544600480360381019061053f91906146c5565b611775565b604051610552929190614a11565b60405180910390f35b610563611d9a565b6040516105709190614a57565b60405180910390f35b610593600480360381019061058e91906143a1565b611dbe565b005b6105af60048036038101906105aa9190613c94565b611e77565b6040516105bc9190614b37565b60405180910390f35b6105df60048036038101906105da9190613c94565b612017565b6040516105ec9190614b37565b60405180910390f35b61060f600480360381019061060a9190613c94565b61215a565b60405161061c9190614141565b60405180910390f35b61063f600480360381019061063a9190614b59565b6121b5565b005b6106496125d6565b6040516106569190614141565b60405180910390f35b61067960048036038101906106749190613c94565b6125dc565b6040516106869190614a57565b60405180910390f35b6106a960048036038101906106a49190613c94565b61261b565b6040516106b7929190614a11565b60405180910390f35b6106da60048036038101906106d59190613c94565b612bc0565b6040516106e79190614c2b565b60405180910390f35b61070a60048036038101906107059190613c94565b612de5565b60405161071791906139a6565b60405180910390f35b61073a60048036038101906107359190613c94565b612e34565b6040516107479190614ce9565b60405180910390f35b61076a60048036038101906107659190614d0b565b612f51565b005b61078660048036038101906107819190613c94565b613010565b604051610794929190614e5a565b60405180910390f35b60008060058054905014156107b55760009050610864565b8173ffffffffffffffffffffffffffffffffffffffff166005600660008573ffffffffffffffffffffffffffffffffffffffff1673ffffffffffffffffffffffffffffffffffffffff168152602001908152602001600020548154811061081f5761081e614e91565b5b9060005260206000200160009054906101000a900473ffffffffffffffffffffffffffffffffffffffff1673ffffffffffffffffffffffffffffffffffffffff161490505b919050565b600060078054905090506108818a8a8a8a8a8a610fbb565b60008060009054906101000a900473ffffffffffffffffffffffffffffffffffffffff1690508073ffffffffffffffffffffffffffffffffffffffff166382f2e641868686866040518563ffffffff1660e01b81526004016108e69493929190614ec0565b600060405180830381600087803b15801561090057600080fd5b505af1158015610914573d6000803e3d6000fd5b505050505050505050505050505050565b61092d61371b565b6003828154811061094157610940614e91565b5b90600052602060002090600602016040518060c00160405290816000820160009054906101000a900473ffffffffffffffffffffffffffffffffffffffff1673ffffffffffffffffffffffffffffffffffffffff1673ffffffffffffffffffffffffffffffffffffffff1681526020016001820180546109c090614f42565b80601f01602080910402602001604051908101604052809291908181526020018280546109ec90614f42565b8015610a395780601f10610a0e57610100808354040283529160200191610a39565b820191906000526020600020905b815481529060010190602001808311610a1c57829003601f168201915b50505050508152602001600282018054610a5290614f42565b80601f0160208091040260200160405190810160405280929190818152602001828054610a7e90614f42565b8015610acb5780601f10610aa057610100808354040283529160200191610acb565b820191906000526020600020905b815481529060010190602001808311610aae57829003601f168201915b50505050508152602001600382018054610ae490614f42565b80601f0160208091040260200160405190810160405280929190818152602001828054610b1090614f42565b8015610b5d5780601f10610b3257610100808354040283529160200191610b5d565b820191906000526020600020905b815481529060010190602001808311610b4057829003601f168201915b505050505081526020016004820160009054906101000a900463ffffffff1663ffffffff1663ffffffff1681526020016005820154815250509050919050565b6000600c6000838152602001908152602001600020600081548110610bc557610bc4614e91565b5b90600052602060002090602091828204019190069054906101000a900460ff169050919050565b610bfa898989898989610fbb565b60006001600780549050610c0e9190614fa3565b905060008060009054906101000a900473ffffffffffffffffffffffffffffffffffffffff1690508073ffffffffffffffffffffffffffffffffffffffff1663869c2081868686866040518563ffffffff1660e01b8152600401610c759493929190614ec0565b600060405180830381600087803b158015610c8f57600080fd5b505af1158015610ca3573d6000803e3d6000fd5b505050505050505050505050505050565b610cbc61376d565b60018281548110610cd057610ccf614e91565b5b90600052602060002090600502016040518060a00160405290816000820160009054906101000a900473ffffffffffffffffffffffffffffffffffffffff1673ffffffffffffffffffffffffffffffffffffffff1673ffffffffffffffffffffffffffffffffffffffff168152602001600182018054610d4f90614f42565b80601f0160208091040260200160405190810160405280929190818152602001828054610d7b90614f42565b8015610dc85780601f10610d9d57610100808354040283529160200191610dc8565b820191906000526020600020905b815481529060010190602001808311610dab57829003601f168201915b50505050508152602001600282018054610de190614f42565b80601f0160208091040260200160405190810160405280929190818152602001828054610e0d90614f42565b8015610e5a5780601f10610e2f57610100808354040283529160200191610e5a565b820191906000526020600020905b815481529060010190602001808311610e3d57829003601f168201915b505050505081526020016003820160009054906101000a900463ffffffff1663ffffffff1663ffffffff1681526020016004820154815250509050919050565b60006007805490509050610eb2888888888888610fbb565b60008060009054906101000a900473ffffffffffffffffffffffffffffffffffffffff1690508073ffffffffffffffffffffffffffffffffffffffff1663d00bab3684846040518363ffffffff1660e01b8152600401610f13929190614fd7565b600060405180830381600087803b158015610f2d57600080fd5b505af1158015610f41573d6000803e3d6000fd5b50505050505050505050505050565b6060600a6000838152602001908152602001600020805480602002602001604051908101604052809291908181526020018280548015610faf57602002820191906000526020600020905b815481526020019060010190808311610f9b575b50505050509050919050565b60076040518060e001604052808881526020018781526020018681526020018581526020018460ff1681526020018381526020016007805490508152509080600181540180825580915050600190039060005260206000209060070201600090919091909150600082015181600001908051906020019061103d9291906137b8565b5060208201518160010155604082015181600201556060820151816003015560808201518160040160006101000a81548160ff021916908360ff16021790555060a0820151816005015560c0820151816006015550506008600086815260200190815260200160002060016007805490506110b89190614fa3565b9080600181540180825580915050600190039060005260206000200160009091909190915055600c600060016007805490506110f49190614fa3565b8152602001908152602001600020600090806001815401808255809150506001900390600052602060002090602091828204019190069091909190916101000a81548160ff021916908315150217905550600c6000600160078054905061115b9190614fa3565b8152602001908152602001600020600090806001815401808255809150506001900390600052602060002090602091828204019190069091909190916101000a81548160ff021916908315150217905550600a600060016007805490506111c29190614fa3565b815260200190815260200160002050505050505050565b60606000600367ffffffffffffffff8111156111f8576111f76139dc565b5b6040519080825280602002602001820160405280156112265781602001602082028036833780820191505090505b50905060086000848152602001908152602001600020805490508160008151811061125457611253614e91565b5b602002602001018181525050600b600084815260200190815260200160002060008154811061128657611285614e91565b5b90600052602060002090600891828204019190066004029054906101000a900463ffffffff1663ffffffff16816001815181106112c6576112c5614e91565b5b602002602001018181525050600b60008481526020019081526020016000206001815481106112f8576112f7614e91565b5b90600052602060002090600891828204019190066004029054906101000a900463ffffffff1663ffffffff168160028151811061133857611337614e91565b5b60200260200101818152505080915050919050565b6000600780549050905090565b61136261376d565b61136b8261079d565b1561137557600080fd5b6000611380836113b1565b9050600061138d82610cb4565b90508092505050919050565b60066020528060005260406000206000915090505481565b6000600660008373ffffffffffffffffffffffffffffffffffffffff1673ffffffffffffffffffffffffffffffffffffffff168152602001908152602001600020549050919050565b806007838154811061140f5761140e614e91565b5b9060005260206000209060070201600501819055505050565b60006007805490509050611440898989898989610fbb565b60008060009054906101000a900473ffffffffffffffffffffffffffffffffffffffff1690508073ffffffffffffffffffffffffffffffffffffffff1663ae4fd28b8585856040518463ffffffff1660e01b81526004016114a393929190615007565b600060405180830381600087803b1580156114bd57600080fd5b505af11580156114d1573d6000803e3d6000fd5b5050505050505050505050505050565b6000600b600083815260200190815260200160002060018154811061150957611508614e91565b5b90600052602060002090600891828204019190066004029054906101000a900463ffffffff1663ffffffff169050919050565b6007818154811061154c57600080fd5b906000526020600020906007020160009150905080600001805461156f90614f42565b80601f016020809104026020016040519081016040528092919081815260200182805461159b90614f42565b80156115e85780601f106115bd576101008083540402835291602001916115e8565b820191906000526020600020905b8154815290600101906020018083116115cb57829003601f168201915b5050505050908060010154908060020154908060030154908060040160009054906101000a900460ff16908060050154908060060154905087565b6000600780549050905061163b898989898989610fbb565b60008060009054906101000a900473ffffffffffffffffffffffffffffffffffffffff1690508073ffffffffffffffffffffffffffffffffffffffff1663d84be50a8585856040518463ffffffff1660e01b815260040161169e9392919061504c565b600060405180830381600087803b1580156116b857600080fd5b505af11580156116cc573d6000803e3d6000fd5b5050505050505050505050505050565b6116e58861079d565b156116ef57600080fd5b6116fc8888888888613353565b611708888484846134bc565b6005889080600181540180825580915050600190039060005260206000200160009091909190916101000a81548173ffffffffffffffffffffffffffffffffffffffff021916908373ffffffffffffffffffffffffffffffffffffffff1602179055505050505050505050565b60608060008060005b855181101561188e57600c600087838151811061179e5761179d614e91565b5b602002602001015181526020019081526020016000206000815481106117c7576117c6614e91565b5b90600052602060002090602091828204019190069054906101000a900460ff161561186a57600c600087838151811061180357611802614e91565b5b6020026020010151815260200190815260200160002060018154811061182c5761182b614e91565b5b90600052602060002090602091828204019190069054906101000a900460ff16156118565761187b565b600183611863919061508a565b925061187a565b600182611877919061508a565b91505b5b8080611886906150e0565b91505061177e565b5060008167ffffffffffffffff8111156118ab576118aa6139dc565b5b6040519080825280602002602001820160405280156118e457816020015b6118d161383e565b8152602001906001900390816118c95790505b50905060008367ffffffffffffffff811115611903576119026139dc565b5b60405190808252806020026020018201604052801561193c57816020015b61192961387e565b8152602001906001900390816119215790505b50905060008060005b8951811015611d8857600c60008b838151811061196557611964614e91565b5b6020026020010151815260200190815260200160002060018154811061198e5761198d614e91565b5b90600052602060002090602091828204019190069054906101000a900460ff16156119b857611d75565b600c60008b83815181106119cf576119ce614e91565b5b602002602001015181526020019081526020016000206000815481106119f8576119f7614e91565b5b90600052602060002090602091828204019190069054906101000a900460ff1615611c195760006001600a60008d8581518110611a3857611a37614e91565b5b6020026020010151815260200190815260200160002080549050611a5c9190614fa3565b90506000600a60008d8581518110611a7757611a76614e91565b5b602002602001015181526020019081526020016000208281548110611a9f57611a9e614e91565b5b9060005260206000200154905060098181548110611ac057611abf614e91565b5b90600052602060002090600902016040518061012001604052908160008201548152602001600182018054611af490614f42565b80601f0160208091040260200160405190810160405280929190818152602001828054611b2090614f42565b8015611b6d5780601f10611b4257610100808354040283529160200191611b6d565b820191906000526020600020905b815481529060010190602001808311611b5057829003601f168201915b505050505081526020016002820154815260200160038201548152602001600482015481526020016005820160009054906101000a900460ff1660ff1660ff168152602001600682015481526020016007820160009054906101000a900460ff16151515158152602001600882015481525050868663ffffffff1681518110611bf957611bf8614e91565b5b60200260200101819052508480611c0f90615129565b9550505050611d74565b60008a8281518110611c2e57611c2d614e91565b5b6020026020010151905060078181548110611c4c57611c4b614e91565b5b90600052602060002090600702016040518060e0016040529081600082018054611c7590614f42565b80601f0160208091040260200160405190810160405280929190818152602001828054611ca190614f42565b8015611cee5780601f10611cc357610100808354040283529160200191611cee565b820191906000526020600020905b815481529060010190602001808311611cd157829003601f168201915b505050505081526020016001820154815260200160028201548152602001600382015481526020016004820160009054906101000a900460ff1660ff1660ff16815260200160058201548152602001600682015481525050868481518110611d5957611d58614e91565b5b60200260200101819052508280611d6f906150e0565b935050505b5b8080611d80906150e0565b915050611945565b50838397509750505050505050915091565b60008054906101000a900473ffffffffffffffffffffffffffffffffffffffff1681565b60006007805490509050611dd6898989898989610fbb565b60008060009054906101000a900473ffffffffffffffffffffffffffffffffffffffff1690508073ffffffffffffffffffffffffffffffffffffffff1663e4c17a378585856040518463ffffffff1660e01b8152600401611e399392919061504c565b600060405180830381600087803b158015611e5357600080fd5b505af1158015611e67573d6000803e3d6000fd5b5050505050505050505050505050565b611e7f61387e565b60006001600a600085815260200190815260200160002080549050611ea49190614fa3565b90506000600a60008581526020019081526020016000208281548110611ecd57611ecc614e91565b5b9060005260206000200154905060098181548110611eee57611eed614e91565b5b90600052602060002090600902016040518061012001604052908160008201548152602001600182018054611f2290614f42565b80601f0160208091040260200160405190810160405280929190818152602001828054611f4e90614f42565b8015611f9b5780601f10611f7057610100808354040283529160200191611f9b565b820191906000526020600020905b815481529060010190602001808311611f7e57829003601f168201915b505050505081526020016002820154815260200160038201548152602001600482015481526020016005820160009054906101000a900460ff1660ff1660ff168152602001600682015481526020016007820160009054906101000a900460ff1615151515815260200160088201548152505092505050919050565b61201f61387e565b6009828154811061203357612032614e91565b5b9060005260206000209060090201604051806101200160405290816000820154815260200160018201805461206790614f42565b80601f016020809104026020016040519081016040528092919081815260200182805461209390614f42565b80156120e05780601f106120b5576101008083540402835291602001916120e0565b820191906000526020600020905b8154815290600101906020018083116120c357829003601f168201915b505050505081526020016002820154815260200160038201548152602001600482015481526020016005820160009054906101000a900460ff1660ff1660ff168152602001600682015481526020016007820160009054906101000a900460ff161515151581526020016008820154815250509050919050565b6000600b600083815260200190815260200160002060008154811061218257612181614e91565b5b90600052602060002090600891828204019190066004029054906101000a900463ffffffff1663ffffffff169050919050565b60096040518061012001604052808a81526020018981526020018881526020018781526020018681526020018460ff168152602001838152602001851515815260200160098054905081525090806001815401808255809150506001900390600052602060002090600902016000909190919091506000820151816000015560208201518160010190805190602001906122509291906137b8565b5060408201518160020155606082015181600301556080820151816004015560a08201518160050160006101000a81548160ff021916908360ff16021790555060c0820151816006015560e08201518160070160006101000a81548160ff02191690831515021790555061010082015181600801555050600060016009805490506122db9190614fa3565b9050600c60008a815260200190815260200160002060008154811061230357612302614e91565b5b90600052602060002090602091828204019190069054906101000a900460ff16612430576001600c60008b815260200190815260200160002060008154811061234f5761234e614e91565b5b90600052602060002090602091828204019190066101000a81548160ff02191690831515021790555060006001600b60008a81526020019081526020016000206000815481106123a2576123a1614e91565b5b90600052602060002090600891828204019190066004029054906101000a900463ffffffff166123d29190615156565b905080600b60008a81526020019081526020016000206000815481106123fb576123fa614e91565b5b90600052602060002090600891828204019190066004026101000a81548163ffffffff021916908363ffffffff160217905550505b600a60008a81526020019081526020016000208190806001815401808255809150506001900390600052602060002001600090919091909150556001151584151514156125cb57600d6000888152602001908152602001600020600160098054905061249c9190614fa3565b90806001815401808255809150506001900390600052602060002001600090919091909150556001600c60008b81526020019081526020016000206001815481106124ea576124e9614e91565b5b90600052602060002090602091828204019190066101000a81548160ff02191690831515021790555060006001600b60008a815260200190815260200160002060018154811061253d5761253c614e91565b5b90600052602060002090600891828204019190066004029054906101000a900463ffffffff1661256d9190615156565b905080600b60008a815260200190815260200160002060018154811061259657612595614e91565b5b90600052602060002090600891828204019190066004026101000a81548163ffffffff021916908363ffffffff160217905550505b505050505050505050565b60025481565b600581815481106125ec57600080fd5b906000526020600020016000915054906101000a900473ffffffffffffffffffffffffffffffffffffffff1681565b6060806000600b600085815260200190815260200160002060008154811061264657612645614e91565b5b90600052602060002090600891828204019190066004029054906101000a900463ffffffff1690506000600b600086815260200190815260200160002060018154811061269657612695614e91565b5b90600052602060002090600891828204019190066004029054906101000a900463ffffffff169050600081836126cc9190615190565b905060006008600088815260200190815260200160002080549050905060008463ffffffff16826126fd9190614fa3565b67ffffffffffffffff811115612716576127156139dc565b5b60405190808252806020026020018201604052801561274f57816020015b61273c61383e565b8152602001906001900390816127345790505b50905060008363ffffffff1667ffffffffffffffff811115612774576127736139dc565b5b6040519080825280602002602001820160405280156127ad57816020015b61279a61387e565b8152602001906001900390816127925790505b50905060008060005b85811015612bac57600c60008281526020019081526020016000206001815481106127e4576127e3614e91565b5b90600052602060002090602091828204019190069054906101000a900460ff161561280e57612b99565b60011515600c600083815260200190815260200160002060008154811061283857612837614e91565b5b90600052602060002090602091828204019190069054906101000a900460ff1615151415612a285760006001600a6000848152602001908152602001600020805490506128859190614fa3565b90506000600a600084815260200190815260200160002082815481106128ae576128ad614e91565b5b90600052602060002001549050600981815481106128cf576128ce614e91565b5b9060005260206000209060090201604051806101200160405290816000820154815260200160018201805461290390614f42565b80601f016020809104026020016040519081016040528092919081815260200182805461292f90614f42565b801561297c5780601f106129515761010080835404028352916020019161297c565b820191906000526020600020905b81548152906001019060200180831161295f57829003601f168201915b505050505081526020016002820154815260200160038201548152602001600482015481526020016005820160009054906101000a900460ff1660ff1660ff168152602001600682015481526020016007820160009054906101000a900460ff16151515158152602001600882015481525050868663ffffffff1681518110612a0857612a07614e91565b5b60200260200101819052508480612a1e90615129565b9550505050612b98565b6000600860008e81526020019081526020016000208281548110612a4f57612a4e614e91565b5b9060005260206000200154905060078181548110612a7057612a6f614e91565b5b90600052602060002090600702016040518060e0016040529081600082018054612a9990614f42565b80601f0160208091040260200160405190810160405280929190818152602001828054612ac590614f42565b8015612b125780601f10612ae757610100808354040283529160200191612b12565b820191906000526020600020905b815481529060010190602001808311612af557829003601f168201915b505050505081526020016001820154815260200160028201548152602001600382015481526020016004820160009054906101000a900460ff1660ff1660ff16815260200160058201548152602001600682015481525050868481518110612b7d57612b7c614e91565b5b60200260200101819052508280612b93906150e0565b935050505b5b8080612ba4906150e0565b9150506127b6565b508383995099505050505050505050915091565b60606000600d600084815260200190815260200160002080549050905060008167ffffffffffffffff811115612bf957612bf86139dc565b5b604051908082528060200260200182016040528015612c3257816020015b612c1f61387e565b815260200190600190039081612c175790505b50905060005b82811015612dda576000600d60008781526020019081526020016000208281548110612c6757612c66614e91565b5b9060005260206000200154905060098181548110612c8857612c87614e91565b5b90600052602060002090600902016040518061012001604052908160008201548152602001600182018054612cbc90614f42565b80601f0160208091040260200160405190810160405280929190818152602001828054612ce890614f42565b8015612d355780601f10612d0a57610100808354040283529160200191612d35565b820191906000526020600020905b815481529060010190602001808311612d1857829003601f168201915b505050505081526020016002820154815260200160038201548152602001600482015481526020016005820160009054906101000a900460ff1660ff1660ff168152602001600682015481526020016007820160009054906101000a900460ff16151515158152602001600882015481525050838381518110612dbb57612dba614e91565b5b6020026020010181905250508080612dd2906150e0565b915050612c38565b508092505050919050565b6000600c6000838152602001908152602001600020600181548110612e0d57612e0c614e91565b5b90600052602060002090602091828204019190069054906101000a900460ff169050919050565b612e3c61383e565b60078281548110612e5057612e4f614e91565b5b90600052602060002090600702016040518060e0016040529081600082018054612e7990614f42565b80601f0160208091040260200160405190810160405280929190818152602001828054612ea590614f42565b8015612ef25780601f10612ec757610100808354040283529160200191612ef2565b820191906000526020600020905b815481529060010190602001808311612ed557829003601f168201915b505050505081526020016001820154815260200160028201548152602001600382015481526020016004820160009054906101000a900460ff1660ff1660ff168152602001600582015481526020016006820154815250509050919050565b60006007805490509050612f698b8b8b8b8b8b610fbb565b60008060009054906101000a900473ffffffffffffffffffffffffffffffffffffffff1690508073ffffffffffffffffffffffffffffffffffffffff1663b31d2e3b87878787876040518663ffffffff1660e01b8152600401612fd09594939291906151c4565b600060405180830381600087803b158015612fea57600080fd5b505af1158015612ffe573d6000803e3d6000fd5b50505050505050505050505050505050565b61301861383e565b60606000600784815481106130305761302f614e91565b5b90600052602060002090600702016040518060e001604052908160008201805461305990614f42565b80601f016020809104026020016040519081016040528092919081815260200182805461308590614f42565b80156130d25780601f106130a7576101008083540402835291602001916130d2565b820191906000526020600020905b8154815290600101906020018083116130b557829003601f168201915b505050505081526020016001820154815260200160028201548152602001600382015481526020016004820160009054906101000a900460ff1660ff1660ff1681526020016005820154815260200160068201548152505090506000600a600086815260200190815260200160002080549050905060008167ffffffffffffffff811115613163576131626139dc565b5b60405190808252806020026020018201604052801561319c57816020015b61318961387e565b8152602001906001900390816131815790505b50905060005b82811015613344576000600a600089815260200190815260200160002082815481106131d1576131d0614e91565b5b90600052602060002001549050600981815481106131f2576131f1614e91565b5b9060005260206000209060090201604051806101200160405290816000820154815260200160018201805461322690614f42565b80601f016020809104026020016040519081016040528092919081815260200182805461325290614f42565b801561329f5780601f106132745761010080835404028352916020019161329f565b820191906000526020600020905b81548152906001019060200180831161328257829003601f168201915b505050505081526020016002820154815260200160038201548152602001600482015481526020016005820160009054906101000a900460ff1660ff1660ff168152602001600682015481526020016007820160009054906101000a900460ff1615151515815260200160088201548152505083838151811061332557613324614e91565b5b602002602001018190525050808061333c906150e0565b9150506131a2565b50828194509450505050915091565b60036040518060c001604052808773ffffffffffffffffffffffffffffffffffffffff1681526020018681526020018581526020018481526020018363ffffffff168152602001600380549050815250908060018154018082558091505060019003906000526020600020906006020160009091909190915060008201518160000160006101000a81548173ffffffffffffffffffffffffffffffffffffffff021916908373ffffffffffffffffffffffffffffffffffffffff160217905550602082015181600101908051906020019061342f9291906137b8565b50604082015181600201908051906020019061344c9291906137b8565b5060608201518160030190805190602001906134699291906137b8565b5060808201518160040160006101000a81548163ffffffff021916908363ffffffff16021790555060a082015181600501555050600460008154809291906134b0906150e0565b91905055505050505050565b60016040518060a001604052808673ffffffffffffffffffffffffffffffffffffffff1681526020018581526020018481526020018363ffffffff168152602001600180549050815250908060018154018082558091505060019003906000526020600020906005020160009091909190915060008201518160000160006101000a81548173ffffffffffffffffffffffffffffffffffffffff021916908373ffffffffffffffffffffffffffffffffffffffff16021790555060208201518160010190805190602001906135929291906137b8565b5060408201518160020190805190602001906135af9291906137b8565b5060608201518160030160006101000a81548163ffffffff021916908363ffffffff160217905550608082015181600401555050600260008154809291906135f6906150e0565b919050555060006001808054905061360e9190614fa3565b905080600660008773ffffffffffffffffffffffffffffffffffffffff1673ffffffffffffffffffffffffffffffffffffffff16815260200190815260200160002081905550600b6000828152602001908152602001600020600090806001815401808255809150506001900390600052602060002090600891828204019190066004029091909190916101000a81548163ffffffff021916908363ffffffff160217905550600b6000828152602001908152602001600020600090806001815401808255809150506001900390600052602060002090600891828204019190066004029091909190916101000a81548163ffffffff021916908363ffffffff1602179055505050505050565b6040518060c00160405280600073ffffffffffffffffffffffffffffffffffffffff168152602001606081526020016060815260200160608152602001600063ffffffff168152602001600081525090565b6040518060a00160405280600073ffffffffffffffffffffffffffffffffffffffff1681526020016060815260200160608152602001600063ffffffff168152602001600081525090565b8280546137c490614f42565b90600052602060002090601f0160209004810192826137e6576000855561382d565b82601f106137ff57805160ff191683800117855561382d565b8280016001018555821561382d579182015b8281111561382c578251825591602001919060010190613811565b5b50905061383a91906138cf565b5090565b6040518060e0016040528060608152602001600081526020016000815260200160008152602001600060ff16815260200160008152602001600081525090565b6040518061012001604052806000815260200160608152602001600081526020016000815260200160008152602001600060ff16815260200160008152602001600015158152602001600081525090565b5b808211156138e85760008160009055506001016138d0565b5090565b6000604051905090565b600080fd5b600080fd5b600073ffffffffffffffffffffffffffffffffffffffff82169050919050565b600061392b82613900565b9050919050565b61393b81613920565b811461394657600080fd5b50565b60008135905061395881613932565b92915050565b600060208284031215613974576139736138f6565b5b600061398284828501613949565b91505092915050565b60008115159050919050565b6139a08161398b565b82525050565b60006020820190506139bb6000830184613997565b92915050565b600080fd5b600080fd5b6000601f19601f8301169050919050565b7f4e487b7100000000000000000000000000000000000000000000000000000000600052604160045260246000fd5b613a14826139cb565b810181811067ffffffffffffffff82111715613a3357613a326139dc565b5b80604052505050565b6000613a466138ec565b9050613a528282613a0b565b919050565b600067ffffffffffffffff821115613a7257613a716139dc565b5b613a7b826139cb565b9050602081019050919050565b82818337600083830152505050565b6000613aaa613aa584613a57565b613a3c565b905082815260208101848484011115613ac657613ac56139c6565b5b613ad1848285613a88565b509392505050565b600082601f830112613aee57613aed6139c1565b5b8135613afe848260208601613a97565b91505092915050565b6000819050919050565b613b1a81613b07565b8114613b2557600080fd5b50565b600081359050613b3781613b11565b92915050565b600060ff82169050919050565b613b5381613b3d565b8114613b5e57600080fd5b50565b600081359050613b7081613b4a565b92915050565b60008060008060008060008060006101208a8c031215613b9957613b986138f6565b5b60008a013567ffffffffffffffff811115613bb757613bb66138fb565b5b613bc38c828d01613ad9565b9950506020613bd48c828d01613b28565b9850506040613be58c828d01613b28565b9750506060613bf68c828d01613b28565b9650506080613c078c828d01613b61565b95505060a0613c188c828d01613b28565b94505060c08a013567ffffffffffffffff811115613c3957613c386138fb565b5b613c458c828d01613ad9565b93505060e08a013567ffffffffffffffff811115613c6657613c656138fb565b5b613c728c828d01613ad9565b925050610100613c848c828d01613b61565b9150509295985092959850929598565b600060208284031215613caa57613ca96138f6565b5b6000613cb884828501613b28565b91505092915050565b613cca81613920565b82525050565b600081519050919050565b600082825260208201905092915050565b60005b83811015613d0a578082015181840152602081019050613cef565b83811115613d19576000848401525b50505050565b6000613d2a82613cd0565b613d348185613cdb565b9350613d44818560208601613cec565b613d4d816139cb565b840191505092915050565b600063ffffffff82169050919050565b613d7181613d58565b82525050565b613d8081613b07565b82525050565b600060c083016000830151613d9e6000860182613cc1565b5060208301518482036020860152613db68282613d1f565b91505060408301518482036040860152613dd08282613d1f565b91505060608301518482036060860152613dea8282613d1f565b9150506080830151613dff6080860182613d68565b5060a0830151613e1260a0860182613d77565b508091505092915050565b60006020820190508181036000830152613e378184613d86565b905092915050565b600060a083016000830151613e576000860182613cc1565b5060208301518482036020860152613e6f8282613d1f565b91505060408301518482036040860152613e898282613d1f565b9150506060830151613e9e6060860182613d68565b506080830151613eb16080860182613d77565b508091505092915050565b60006020820190508181036000830152613ed68184613e3f565b905092915050565b600080600080600080600060e0888a031215613efd57613efc6138f6565b5b600088013567ffffffffffffffff811115613f1b57613f1a6138fb565b5b613f278a828b01613ad9565b9750506020613f388a828b01613b28565b9650506040613f498a828b01613b28565b9550506060613f5a8a828b01613b28565b9450506080613f6b8a828b01613b61565b93505060a0613f7c8a828b01613b28565b92505060c088013567ffffffffffffffff811115613f9d57613f9c6138fb565b5b613fa98a828b01613ad9565b91505092959891949750929550565b600081519050919050565b600082825260208201905092915050565b6000819050602082019050919050565b6000613ff08383613d77565b60208301905092915050565b6000602082019050919050565b600061401482613fb8565b61401e8185613fc3565b935061402983613fd4565b8060005b8381101561405a5781516140418882613fe4565b975061404c83613ffc565b92505060018101905061402d565b5085935050505092915050565b600060208201905081810360008301526140818184614009565b905092915050565b60008060008060008060c087890312156140a6576140a56138f6565b5b600087013567ffffffffffffffff8111156140c4576140c36138fb565b5b6140d089828a01613ad9565b96505060206140e189828a01613b28565b95505060406140f289828a01613b28565b945050606061410389828a01613b28565b935050608061411489828a01613b61565b92505060a061412589828a01613b28565b9150509295509295509295565b61413b81613b07565b82525050565b60006020820190506141566000830184614132565b92915050565b60008060408385031215614173576141726138f6565b5b600061418185828601613b28565b925050602061419285828601613b28565b9150509250929050565b600080600080600080600080610100898b0312156141bd576141bc6138f6565b5b600089013567ffffffffffffffff8111156141db576141da6138fb565b5b6141e78b828c01613ad9565b98505060206141f88b828c01613b28565b97505060406142098b828c01613b28565b965050606061421a8b828c01613b28565b955050608061422b8b828c01613b61565b94505060a061423c8b828c01613b28565b93505060c089013567ffffffffffffffff81111561425d5761425c6138fb565b5b6142698b828c01613ad9565b92505060e089013567ffffffffffffffff81111561428a576142896138fb565b5b6142968b828c01613ad9565b9150509295985092959890939650565b600082825260208201905092915050565b60006142c282613cd0565b6142cc81856142a6565b93506142dc818560208601613cec565b6142e5816139cb565b840191505092915050565b6142f981613b3d565b82525050565b600060e0820190508181036000830152614319818a6142b7565b90506143286020830189614132565b6143356040830188614132565b6143426060830187614132565b61434f60808301866142f0565b61435c60a0830185614132565b61436960c0830184614132565b98975050505050505050565b61437e8161398b565b811461438957600080fd5b50565b60008135905061439b81614375565b92915050565b600080600080600080600080610100898b0312156143c2576143c16138f6565b5b600089013567ffffffffffffffff8111156143e0576143df6138fb565b5b6143ec8b828c01613ad9565b98505060206143fd8b828c01613b28565b975050604061440e8b828c01613b28565b965050606061441f8b828c01613b28565b95505060806144308b828c01613b61565b94505060a06144418b828c01613b28565b93505060c089013567ffffffffffffffff811115614462576144616138fb565b5b61446e8b828c01613ad9565b92505060e061447f8b828c0161438c565b9150509295985092959890939650565b61449881613d58565b81146144a357600080fd5b50565b6000813590506144b58161448f565b92915050565b600080600080600080600080610100898b0312156144dc576144db6138f6565b5b60006144ea8b828c01613949565b985050602089013567ffffffffffffffff81111561450b5761450a6138fb565b5b6145178b828c01613ad9565b975050604089013567ffffffffffffffff811115614538576145376138fb565b5b6145448b828c01613ad9565b965050606089013567ffffffffffffffff811115614565576145646138fb565b5b6145718b828c01613ad9565b95505060806145828b828c016144a6565b94505060a089013567ffffffffffffffff8111156145a3576145a26138fb565b5b6145af8b828c01613ad9565b93505060c089013567ffffffffffffffff8111156145d0576145cf6138fb565b5b6145dc8b828c01613ad9565b92505060e06145ed8b828c016144a6565b9150509295985092959890939650565b600067ffffffffffffffff821115614618576146176139dc565b5b602082029050602081019050919050565b600080fd5b600061464161463c846145fd565b613a3c565b9050808382526020820190506020840283018581111561466457614663614629565b5b835b8181101561468d57806146798882613b28565b845260208401935050602081019050614666565b5050509392505050565b600082601f8301126146ac576146ab6139c1565b5b81356146bc84826020860161462e565b91505092915050565b6000602082840312156146db576146da6138f6565b5b600082013567ffffffffffffffff8111156146f9576146f86138fb565b5b61470584828501614697565b91505092915050565b600081519050919050565b600082825260208201905092915050565b6000819050602082019050919050565b61474381613b3d565b82525050565b600060e08301600083015184820360008601526147668282613d1f565b915050602083015161477b6020860182613d77565b50604083015161478e6040860182613d77565b5060608301516147a16060860182613d77565b5060808301516147b4608086018261473a565b5060a08301516147c760a0860182613d77565b5060c08301516147da60c0860182613d77565b508091505092915050565b60006147f18383614749565b905092915050565b6000602082019050919050565b60006148118261470e565b61481b8185614719565b93508360208202850161482d8561472a565b8060005b85811015614869578484038952815161484a85826147e5565b9450614855836147f9565b925060208a01995050600181019050614831565b50829750879550505050505092915050565b600081519050919050565b600082825260208201905092915050565b6000819050602082019050919050565b6148b08161398b565b82525050565b6000610120830160008301516148cf6000860182613d77565b50602083015184820360208601526148e78282613d1f565b91505060408301516148fc6040860182613d77565b50606083015161490f6060860182613d77565b5060808301516149226080860182613d77565b5060a083015161493560a086018261473a565b5060c083015161494860c0860182613d77565b5060e083015161495b60e08601826148a7565b50610100830151614970610100860182613d77565b508091505092915050565b600061498783836148b6565b905092915050565b6000602082019050919050565b60006149a78261487b565b6149b18185614886565b9350836020820285016149c385614897565b8060005b858110156149ff57848403895281516149e0858261497b565b94506149eb8361498f565b925060208a019950506001810190506149c7565b50829750879550505050505092915050565b60006040820190508181036000830152614a2b8185614806565b90508181036020830152614a3f818461499c565b90509392505050565b614a5181613920565b82525050565b6000602082019050614a6c6000830184614a48565b92915050565b600061012083016000830151614a8b6000860182613d77565b5060208301518482036020860152614aa38282613d1f565b9150506040830151614ab86040860182613d77565b506060830151614acb6060860182613d77565b506080830151614ade6080860182613d77565b5060a0830151614af160a086018261473a565b5060c0830151614b0460c0860182613d77565b5060e0830151614b1760e08601826148a7565b50610100830151614b2c610100860182613d77565b508091505092915050565b60006020820190508181036000830152614b518184614a72565b905092915050565b600080600080600080600080610100898b031215614b7a57614b796138f6565b5b6000614b888b828c01613b28565b985050602089013567ffffffffffffffff811115614ba957614ba86138fb565b5b614bb58b828c01613ad9565b9750506040614bc68b828c01613b28565b9650506060614bd78b828c01613b28565b9550506080614be88b828c01613b28565b94505060a0614bf98b828c0161438c565b93505060c0614c0a8b828c01613b61565b92505060e0614c1b8b828c01613b28565b9150509295985092959890939650565b60006020820190508181036000830152614c45818461499c565b905092915050565b600060e0830160008301518482036000860152614c6a8282613d1f565b9150506020830151614c7f6020860182613d77565b506040830151614c926040860182613d77565b506060830151614ca56060860182613d77565b506080830151614cb8608086018261473a565b5060a0830151614ccb60a0860182613d77565b5060c0830151614cde60c0860182613d77565b508091505092915050565b60006020820190508181036000830152614d038184614c4d565b905092915050565b6000806000806000806000806000806101408b8d031215614d2f57614d2e6138f6565b5b60008b013567ffffffffffffffff811115614d4d57614d4c6138fb565b5b614d598d828e01613ad9565b9a50506020614d6a8d828e01613b28565b9950506040614d7b8d828e01613b28565b9850506060614d8c8d828e01613b28565b9750506080614d9d8d828e01613b61565b96505060a0614dae8d828e01613b28565b95505060c08b013567ffffffffffffffff811115614dcf57614dce6138fb565b5b614ddb8d828e01613ad9565b94505060e08b013567ffffffffffffffff811115614dfc57614dfb6138fb565b5b614e088d828e01613ad9565b9350506101008b013567ffffffffffffffff811115614e2a57614e296138fb565b5b614e368d828e01613ad9565b925050610120614e488d828e01613b61565b9150509295989b9194979a5092959850565b60006040820190508181036000830152614e748185614c4d565b90508181036020830152614e88818461499c565b90509392505050565b7f4e487b7100000000000000000000000000000000000000000000000000000000600052603260045260246000fd5b60006080820190508181036000830152614eda81876142b7565b90508181036020830152614eee81866142b7565b9050614efd60408301856142f0565b614f0a6060830184614132565b95945050505050565b7f4e487b7100000000000000000000000000000000000000000000000000000000600052602260045260246000fd5b60006002820490506001821680614f5a57607f821691505b60208210811415614f6e57614f6d614f13565b5b50919050565b7f4e487b7100000000000000000000000000000000000000000000000000000000600052601160045260246000fd5b6000614fae82613b07565b9150614fb983613b07565b925082821015614fcc57614fcb614f74565b5b828203905092915050565b60006040820190508181036000830152614ff181856142b7565b90506150006020830184614132565b9392505050565b6000606082019050818103600083015261502181866142b7565b9050818103602083015261503581856142b7565b90506150446040830184614132565b949350505050565b6000606082019050818103600083015261506681866142b7565b90506150756020830185613997565b6150826040830184614132565b949350505050565b600061509582613b07565b91506150a083613b07565b9250827fffffffffffffffffffffffffffffffffffffffffffffffffffffffffffffffff038211156150d5576150d4614f74565b5b828201905092915050565b60006150eb82613b07565b91507fffffffffffffffffffffffffffffffffffffffffffffffffffffffffffffffff82141561511e5761511d614f74565b5b600182019050919050565b600061513482613d58565b915063ffffffff82141561514b5761514a614f74565b5b600182019050919050565b600061516182613d58565b915061516c83613d58565b92508263ffffffff0382111561518557615184614f74565b5b828201905092915050565b600061519b82613d58565b91506151a683613d58565b9250828210156151b9576151b8614f74565b5b828203905092915050565b600060a08201905081810360008301526151de81886142b7565b905081810360208301526151f281876142b7565b9050818103604083015261520681866142b7565b905061521560608301856142f0565b6152226080830184614132565b969550505050505056fea26469706673582212204a1e4cd68e40cb87fa00d897b887f93c17f0b6edb43423972a7a1e585eeefd0b64736f6c634300080c0033",
  "immutableReferences": {},
  "source": "// SPDX-License-Identifier: MIT\r\npragma solidity >=0.7.0 <0.9.10;\r\nimport \"./DataStruct.sol\";\r\n\r\ncontract Main {\r\n    address public dataStructsAdd;\r\n\r\n    constructor (address _dataSAdd){\r\n        dataStructsAdd = _dataSAdd;\r\n    }\r\n\r\n    //EVENTS\r\n    event NewOrganization(address user, string name);\r\n    event LogNewUser(\r\n        address indexed userAddress,\r\n        uint256 index,\r\n        bytes32 userEmail,\r\n        uint256 userAge\r\n    );\r\n\r\n    //STRUCTS\r\n    struct Organization {\r\n        address admin;\r\n        string name;\r\n        string addressO;\r\n        uint32 telephone;\r\n        uint256 index;\r\n    }\r\n\r\n    struct Admin {\r\n        address admin;\r\n        string name;\r\n        string lastname;\r\n        string email;\r\n        uint32 telephone;\r\n        uint256 index;\r\n    }\r\n\r\n    //DATA\r\n    Organization[] private organizations;\r\n    uint256 public orgCount;\r\n\r\n    Admin[] private admins;\r\n    uint256 adminsCount;\r\n\r\n    //List of users with a org created (administrators)\r\n    address[] public administrators;\r\n\r\n    mapping(address => uint256) public addressToOrganizationIndex;\r\n\r\n    //FUNCTIONS\r\n    //TODO CHECK IS ADMINISTRATOR IF WORKING PROPERLY\r\n    //data created with organization\r\n    function insertOrgAndAdmin(\r\n        address admin,\r\n        string memory name,\r\n        string memory lastname,\r\n        string memory email,\r\n        uint32 adTelephone,\r\n        string memory orgName,\r\n        string memory orgAddress,\r\n        uint32 orgTelephone\r\n    ) public {\r\n        if (isAdministrator(admin)) revert();\r\n        insertAdmin(admin, name, lastname, email, adTelephone);\r\n        insertOrganization(admin, orgName, orgAddress, orgTelephone);\r\n        administrators.push(admin);\r\n    }\r\n\r\n    function insertAdmin(\r\n        address admin,\r\n        string memory name,\r\n        string memory lastname,\r\n        string memory email,\r\n        uint32 telephone\r\n    ) private {\r\n        admins.push(\r\n            (Admin(admin, name, lastname, email, telephone, admins.length))\r\n        );\r\n        adminsCount++;\r\n    }\r\n\r\n    function insertOrganization(\r\n        address userAddress,\r\n        string memory name,\r\n        string memory addressO,\r\n        uint32 telephone\r\n    ) private {\r\n        organizations.push(\r\n            Organization(\r\n                userAddress,\r\n                name,\r\n                addressO,\r\n                telephone,\r\n                organizations.length\r\n            )\r\n        );\r\n        orgCount++;\r\n        uint256 id = organizations.length - 1;\r\n        addressToOrganizationIndex[userAddress] = id;\r\n        //Create the mapping with 0 assets edited and 0 deleted\r\n        organizationNumberOfAssetsED[id].push(0);\r\n        organizationNumberOfAssetsED[id].push(0);\r\n    }\r\n\r\n    // Check if the address has created a org, == is an administrator.\r\n    function isAdministrator(address userAddress)\r\n        public\r\n        view\r\n        returns (bool isIndeed)\r\n    {\r\n        if (administrators.length == 0) return false;\r\n        return (administrators[addressToOrganizationIndex[userAddress]] ==\r\n            userAddress);\r\n    }\r\n\r\n    function getOrg(uint256 _orgId) public view returns (Organization memory) {\r\n        return organizations[_orgId];\r\n    }\r\n\r\n    function getIdAsset() public view returns (uint id) {\r\n        return assetsList.length;\r\n    }\r\n\r\n    function getAdminToOrg(address userAddress)\r\n        public\r\n        view\r\n        returns (uint256 userid)\r\n    {\r\n        return addressToOrganizationIndex[userAddress];\r\n    }\r\n\r\n    //Get the organization if there is an address that created it\r\n    function getOrgFromAddress(address userAddress)\r\n        public\r\n        view\r\n        returns (Organization memory org)\r\n    {\r\n        if (isAdministrator(userAddress)) revert();\r\n        uint256 orgId = getAdminToOrg(userAddress);\r\n        Organization memory organ = getOrg(orgId);\r\n        return organ;\r\n    }\r\n\r\n    //ASSETS TYPE AND FUNCTIONS\r\n    struct Asset {\r\n        string name;\r\n        uint256 organizationId;\r\n        uint256 adquireDate;\r\n        uint256 creationDate;\r\n        uint8 assetType;\r\n        uint256 assetDepart;\r\n        uint256 index;\r\n    }\r\n\r\n\r\n    Asset[] public assetsList;\r\n    //uint256 orgCount;\r\n\r\n    //UNNECESARY MAPPING\r\n    //mapping(uint256 => uint256) private assetToOrg;\r\n\r\n    //CREAR UN MAPPING DE ORGANIZACIN (ID) A LISTA DE ASSETS (ID)?\r\n    mapping(uint256 => uint256[]) private assetsFromOrg;\r\n\r\n    \r\n\r\n    //ASSET EDITED INTRODUCES A BOOL DELETED\r\n    struct AssetEdited {\r\n        uint256 originalAssetId;\r\n        string name;\r\n        uint256 organizationId;\r\n        uint256 adquireDate;\r\n        uint256 creationDate;\r\n        uint8 assetType;\r\n        uint256 assetDepart;\r\n        bool deleted;\r\n        uint256 index;\r\n\r\n        //uint fechafin;\r\n\r\n    }\r\n\r\n    AssetEdited[] private assetsEditedList;\r\n    //ASSETS ORIGINAL TO LIST OF ASSETS EDITED\r\n    mapping(uint256 => uint256[]) private originalAssetsToEditedList;\r\n\r\n    function insertAsset(\r\n        string memory name,\r\n        uint256 organizationId,\r\n        uint256 adquireDate,\r\n        uint256 creationDate,\r\n        uint8 assetType,\r\n        uint256 assetDepart\r\n    ) public {\r\n        assetsList.push(\r\n            (\r\n                Asset(\r\n                    name,\r\n                    organizationId,\r\n                    adquireDate,\r\n                    creationDate,\r\n                    assetType,\r\n                    assetDepart,\r\n                    assetsList.length\r\n                )\r\n            )\r\n        );\r\n        assetsFromOrg[organizationId].push(assetsList.length - 1);\r\n        assetBoolEditedAndDeleted[assetsList.length - 1].push(false);\r\n        assetBoolEditedAndDeleted[assetsList.length - 1].push(false);\r\n        originalAssetsToEditedList[assetsList.length - 1];\r\n    }\r\n\r\n    function insertAssetToDepartment(uint256 index, uint256 assetDepartId) public {\r\n        assetsList[index].assetDepart = assetDepartId;\r\n    }\r\n\r\n    //CREATE A FUNCTION FOR EACH INSERTED ASSET TYPE\r\n    function insertNewSoftAsset(string memory name,\r\n        uint256 organizationId,\r\n        uint256 adquireDate,\r\n        uint256 creationDate,\r\n        uint8 assetType,\r\n        uint256 assetDepart,\r\n        string memory version, \r\n        string memory provider, \r\n        uint8 stype) public {\r\n            \r\n        insertAsset(name, organizationId, adquireDate, creationDate, assetType, assetDepart);\r\n        uint assetId = assetsList.length - 1; \r\n        DataStructs DS = DataStructs(dataStructsAdd);\r\n        DS.insertSoftware(version, provider, stype, assetId);\r\n    }\r\n\r\n    function insertNewHardAsset(string memory name,\r\n        uint256 organizationId,\r\n        uint256 adquireDate,\r\n        uint256 creationDate,\r\n        uint8 assetType,\r\n        uint256 assetDepart,\r\n        string memory model, \r\n        string memory provider, \r\n        string memory serialNumber, \r\n        uint8 htype) public {\r\n        \r\n        uint assetId = assetsList.length; \r\n        insertAsset(name, organizationId, adquireDate, creationDate, assetType, assetDepart);\r\n        \r\n        DataStructs DS = DataStructs(dataStructsAdd);\r\n        DS.insertHardware(model, provider, serialNumber, htype, assetId);\r\n    }\r\n\r\n    function insertNewDocAsset(string memory name,\r\n        uint256 organizationId,\r\n        uint256 adquireDate,\r\n        uint256 creationDate,\r\n        uint8 assetType,\r\n        uint256 assetDepart,\r\n        string memory description,\r\n        string memory location,\r\n        uint8 doctype) public {\r\n        \r\n        uint assetId = assetsList.length; \r\n        insertAsset(name, organizationId, adquireDate, creationDate, assetType, assetDepart);\r\n        \r\n        DataStructs DS = DataStructs(dataStructsAdd);\r\n        DS.insertDocument(description, location, doctype, assetId);\r\n    }\r\n\r\n    function insertNewDataAsset(string memory name,\r\n        uint256 organizationId,\r\n        uint256 adquireDate,\r\n        uint256 creationDate,\r\n        uint8 assetType,\r\n        uint256 assetDepart,\r\n        string memory location, \r\n        bool local) public {\r\n        \r\n        uint assetId = assetsList.length; \r\n        insertAsset(name, organizationId, adquireDate, creationDate, assetType, assetDepart);\r\n        \r\n        DataStructs DS = DataStructs(dataStructsAdd);\r\n        DS.insertData(location, local, assetId);\r\n    }\r\n\r\n    function insertNewNetworkAsset(string memory name,\r\n        uint256 organizationId,\r\n        uint256 adquireDate,\r\n        uint256 creationDate,\r\n        uint8 assetType,\r\n        uint256 assetDepart,\r\n        string memory cidrblock, \r\n        bool nat) public {\r\n        \r\n        uint assetId = assetsList.length; \r\n        insertAsset(name, organizationId, adquireDate, creationDate, assetType, assetDepart);\r\n        \r\n        DataStructs DS = DataStructs(dataStructsAdd);\r\n        DS.insertNetwork(cidrblock, nat, assetId);\r\n    }\r\n\r\n    function insertNewCloudAsset(string memory name,\r\n        uint256 organizationId,\r\n        uint256 adquireDate,\r\n        uint256 creationDate,\r\n        uint8 assetType,\r\n        uint256 assetDepart,\r\n        string memory url, \r\n        string memory domain) public {\r\n        \r\n        uint assetId = assetsList.length; \r\n        insertAsset(name, organizationId, adquireDate, creationDate, assetType, assetDepart);\r\n        DataStructs DS = DataStructs(dataStructsAdd);\r\n        DS.insertCloud(url, domain, assetId);\r\n    }\r\n\r\n    function insertNewOtherAsset(string memory name,\r\n        uint256 organizationId,\r\n        uint256 adquireDate,\r\n        uint256 creationDate,\r\n        uint8 assetType,\r\n        uint256 assetDepart,\r\n        string memory description) public {\r\n        \r\n        uint assetId = assetsList.length; \r\n        insertAsset(name, organizationId, adquireDate, creationDate, assetType, assetDepart);\r\n        DataStructs DS = DataStructs(dataStructsAdd);\r\n        DS.insertOther(description, assetId);\r\n    }\r\n\r\n    function getLastAssetEdited(uint256 id) public view returns (AssetEdited memory) {\r\n        uint256 lastItem = originalAssetsToEditedList[id].length - 1;\r\n        uint256 assetEditedId = originalAssetsToEditedList[id][lastItem];\r\n        return assetsEditedList[assetEditedId];\r\n    }\r\n\r\n    function getAsset(uint256 id) public view returns (Asset memory) {\r\n        return assetsList[id];\r\n    }\r\n\r\n    function getAdmin(uint256 _adminId) public view returns (Admin memory) {\r\n        return admins[_adminId];\r\n    }\r\n\r\n    function getAllAssetsFromOrg(uint256 _orgId)\r\n        public\r\n        view\r\n        returns (Asset[] memory, AssetEdited[] memory)\r\n    {\r\n        uint32 contEdited = organizationNumberOfAssetsED[_orgId][0];\r\n        uint32 contDeleted = organizationNumberOfAssetsED[_orgId][1];\r\n        uint32 edList = uint32(uint32(contEdited) - uint32(contDeleted));\r\n        uint256 cont = assetsFromOrg[_orgId].length;\r\n        Asset[] memory listOrgAssets = new Asset[](cont-contEdited);\r\n        AssetEdited[] memory listOrgAssetsEdited = new AssetEdited[](edList);\r\n        uint32 bucleEdited = 0;\r\n        uint bucleOriginal = 0;\r\n        for (uint256 i = 0; i < cont; i++) {\r\n            //First check if that asset has been deleted\r\n            //so we don't retrieve it\r\n            if (assetBoolEditedAndDeleted[i][1]) {\r\n                continue;\r\n            }\r\n            //Check if asset has been edited in order\r\n            //to retrieve last edited asset\r\n            if (assetBoolEditedAndDeleted[i][0] == true) {\r\n                uint256 lastItem = originalAssetsToEditedList[i].length - 1;\r\n                uint256 assetEditedId = originalAssetsToEditedList[i][lastItem];\r\n                listOrgAssetsEdited[bucleEdited] = assetsEditedList[assetEditedId];\r\n                bucleEdited++;\r\n                //Last case the asset hasn't been edited\r\n            } else {\r\n                uint256 assetId = assetsFromOrg[_orgId][i];\r\n                listOrgAssets[bucleOriginal] = assetsList[assetId];\r\n                bucleOriginal++;\r\n            }\r\n        }\r\n        return (listOrgAssets, listOrgAssetsEdited);\r\n    }\r\n\r\n\r\n    //MAPPING ID OF WITH THE LIST OF NUMBER OF ASSETS EDITED AND DELETED\r\n    mapping(uint256 => uint32[]) private organizationNumberOfAssetsED;\r\n\r\n\r\n    //CREAR MAPPING DE ID ORIGINAL A LIST OF BOOLEAN\r\n    // QUE INDICA SI EL ID EST EDITADO EN EL PRIMER VALOR\r\n    // EN EL SEGUNDO VALOR INDICA SI EST ELIMINADO\r\n    mapping(uint256 => bool[]) private assetBoolEditedAndDeleted;\r\n    //DE ESTA MANERA PODEMOS VER EN CADA CASO EL ID SI EST EDITADO O ELIMINADO\r\n\r\n    //mapping que relaciona la org con los assets que tiene eliminados\r\n    mapping(uint256 => uint256[]) private assetsFromOrgDeleted;\r\n\r\n    function insertEditedAsset(\r\n        uint256 originalAssetId,\r\n        string memory name,\r\n        uint256 organizationId,\r\n        uint256 adquireDate,\r\n        uint256 creationDate,\r\n        bool deleted,\r\n        uint8 assetType,\r\n        uint256 assetDepart\r\n    ) public {\r\n        //CHECK IF THE ASSET IS ALREADY IN ASSETS EDITED LIST\r\n        \r\n        assetsEditedList.push(\r\n            (\r\n                AssetEdited(\r\n                    originalAssetId,\r\n                    name,\r\n                    organizationId,\r\n                    adquireDate,\r\n                    creationDate,\r\n                    assetType,\r\n                    assetDepart,\r\n                    deleted,\r\n                    assetsEditedList.length\r\n                )\r\n            )\r\n        );\r\n        uint256 id = assetsEditedList.length - 1;\r\n        if (!assetBoolEditedAndDeleted[originalAssetId][0]) {\r\n            assetBoolEditedAndDeleted[originalAssetId][0] = true;\r\n            uint32 ed = organizationNumberOfAssetsED[organizationId][0]+1;\r\n            organizationNumberOfAssetsED[organizationId][0] = ed;\r\n        }\r\n        originalAssetsToEditedList[originalAssetId].push(id);\r\n        \r\n        if (deleted == true) {\r\n            assetsFromOrgDeleted[organizationId].push(\r\n                assetsEditedList.length - 1\r\n            );\r\n            assetBoolEditedAndDeleted[originalAssetId][1] = true;\r\n            uint32 de = organizationNumberOfAssetsED[organizationId][1]+1;\r\n            organizationNumberOfAssetsED[organizationId][1] = de;\r\n        }\r\n    }\r\n\r\n    function getRecordList(uint assetId) public view returns (Asset memory, AssetEdited[] memory) {\r\n        Asset memory original = assetsList[assetId];\r\n        uint len = originalAssetsToEditedList[assetId].length;\r\n        AssetEdited[] memory listEdited = new AssetEdited[](len);\r\n        for (uint256 i = 0; i < len; i++) {\r\n            uint num = originalAssetsToEditedList[assetId][i];\r\n            listEdited[i] = assetsEditedList[num];\r\n        }\r\n        return (original, listEdited);\r\n     }\r\n\r\n    function getAssetEdited(uint256 id) public view returns (AssetEdited memory) {\r\n        return assetsEditedList[id];\r\n    }\r\n\r\n    function getAssetsDeleted(uint256 orgId)\r\n        public\r\n        view\r\n        returns (AssetEdited[] memory)\r\n    {\r\n        uint256 cont = assetsFromOrgDeleted[orgId].length;\r\n        AssetEdited[] memory listAssetsDeleted = new AssetEdited[](cont);\r\n        for (uint256 i = 0; i < cont; i++) {\r\n            uint256 id = assetsFromOrgDeleted[orgId][i];\r\n            listAssetsDeleted[i] = assetsEditedList[id];\r\n        }\r\n        return listAssetsDeleted;\r\n    }\r\n\r\n    function getIsAssetEdited(uint256 idAsset)\r\n        public\r\n        view\r\n        returns (bool result)\r\n    {\r\n        return assetBoolEditedAndDeleted[idAsset][0];\r\n    }\r\n\r\n    function getIsAssetDeleted(uint256 idAsset)\r\n        public\r\n        view\r\n        returns (bool result)\r\n    {\r\n        return assetBoolEditedAndDeleted[idAsset][1];\r\n    }\r\n\r\n    function getOrgNumEdited(uint orgId) public view returns (uint numEdited) {\r\n        return organizationNumberOfAssetsED[orgId][0];\r\n    }\r\n\r\n    function getOrgNumDeleted(uint orgId) public view returns (uint numDeleted) {\r\n        return organizationNumberOfAssetsED[orgId][1];\r\n    }\r\n\r\n    function getEdDeList(uint assetId) public view returns (uint[] memory listEdited) {\r\n        return originalAssetsToEditedList[assetId];\r\n    }\r\n\r\n    function retrieveListOfAsset(uint256[] memory ids) public view returns (Asset[] memory, AssetEdited[] memory) {\r\n        uint cont = 0;\r\n        uint contOr = 0;\r\n        for (uint256 i = 0; i < ids.length; i++) {\r\n           if(assetBoolEditedAndDeleted[ids[i]][0]) {\r\n               if(assetBoolEditedAndDeleted[ids[i]][1]) {\r\n                   continue;\r\n                } else {\r\n                    cont = cont +1;\r\n                } \r\n            } else {\r\n                contOr = contOr+1;\r\n            }\r\n        }\r\n        Asset[] memory listAssets = new Asset[](contOr);\r\n        AssetEdited[] memory listEdited = new AssetEdited[](cont);\r\n        uint32 bucleEdited = 0;\r\n        uint bucleOriginal = 0;\r\n        for (uint256 i = 0; i < ids.length; i++) {\r\n            if(assetBoolEditedAndDeleted[ids[i]][1]) {\r\n               continue;\r\n            } if (assetBoolEditedAndDeleted[ids[i]][0]) {\r\n                uint256 lastItem = originalAssetsToEditedList[ids[i]].length - 1;\r\n                uint256 assetEditedId = originalAssetsToEditedList[ids[i]][lastItem];\r\n                listEdited[bucleEdited] = assetsEditedList[assetEditedId];\r\n                bucleEdited++;\r\n                //Last case the asset hasn't been edited\r\n            } else {\r\n                uint256 assetId = ids[i];\r\n                listAssets[bucleOriginal] = assetsList[assetId];\r\n                bucleOriginal++;\r\n            }\r\n        }\r\n        return (listAssets, listEdited);\r\n    }\r\n    \r\n\r\n    function retrieveOrgData(uint orgId) public view returns(uint[] memory){\r\n        uint[] memory result = new uint[](3);\r\n        result[0] = assetsFromOrg[orgId].length;\r\n        result[1] = (organizationNumberOfAssetsED[orgId][0]);\r\n        result[2] = (organizationNumberOfAssetsED[orgId][1]);\r\n        return result;\r\n    }\r\n\r\n\r\n}\r\n",
  "sourcePath": "D:\\GIT\\inventory-blockchain\\blockchain\\contracts\\Main.sol",
  "compiler": {
    "name": "solc",
    "version": "0.8.12+commit.f00d7308.Emscripten.clang"
  },
  "schemaVersion": "3.4.6",
  "updatedAt": "2022-05-07T17:47:00.221Z",
  "networkType": "ethereum",
  "devdoc": {
    "kind": "dev",
    "methods": {},
    "version": 1
  },
  "userdoc": {
    "kind": "user",
    "methods": {},
    "version": 1
  }
}