{
  "contractName": "Main",
  "abi": [
    {
      "anonymous": false,
      "inputs": [
        {
          "indexed": true,
          "internalType": "address",
          "name": "userAddress",
          "type": "address"
        },
        {
          "indexed": false,
          "internalType": "uint256",
          "name": "index",
          "type": "uint256"
        },
        {
          "indexed": false,
          "internalType": "bytes32",
          "name": "userEmail",
          "type": "bytes32"
        },
        {
          "indexed": false,
          "internalType": "uint256",
          "name": "userAge",
          "type": "uint256"
        }
      ],
      "name": "LogNewUser",
      "type": "event"
    },
    {
      "anonymous": false,
      "inputs": [
        {
          "indexed": false,
          "internalType": "address",
          "name": "user",
          "type": "address"
        },
        {
          "indexed": false,
          "internalType": "string",
          "name": "name",
          "type": "string"
        }
      ],
      "name": "NewOrganization",
      "type": "event"
    },
    {
      "inputs": [
        {
          "internalType": "address",
          "name": "",
          "type": "address"
        }
      ],
      "name": "addressToOrganizationIndex",
      "outputs": [
        {
          "internalType": "uint256",
          "name": "",
          "type": "uint256"
        }
      ],
      "stateMutability": "view",
      "type": "function",
      "constant": true
    },
    {
      "inputs": [
        {
          "internalType": "address",
          "name": "admin",
          "type": "address"
        },
        {
          "internalType": "string",
          "name": "name",
          "type": "string"
        },
        {
          "internalType": "string",
          "name": "lastname",
          "type": "string"
        },
        {
          "internalType": "string",
          "name": "email",
          "type": "string"
        },
        {
          "internalType": "uint32",
          "name": "adTelephone",
          "type": "uint32"
        },
        {
          "internalType": "string",
          "name": "orgName",
          "type": "string"
        },
        {
          "internalType": "string",
          "name": "orgAddress",
          "type": "string"
        },
        {
          "internalType": "uint32",
          "name": "orgTelephone",
          "type": "uint32"
        }
      ],
      "name": "insertOrgAndAdmin",
      "outputs": [],
      "stateMutability": "nonpayable",
      "type": "function"
    },
    {
      "inputs": [
        {
          "internalType": "address",
          "name": "userAddress",
          "type": "address"
        }
      ],
      "name": "isAdministrator",
      "outputs": [
        {
          "internalType": "bool",
          "name": "isIndeed",
          "type": "bool"
        }
      ],
      "stateMutability": "view",
      "type": "function",
      "constant": true
    },
    {
      "inputs": [
        {
          "internalType": "uint256",
          "name": "_orgId",
          "type": "uint256"
        }
      ],
      "name": "getOrg",
      "outputs": [
        {
          "components": [
            {
              "internalType": "address",
              "name": "admin",
              "type": "address"
            },
            {
              "internalType": "string",
              "name": "name",
              "type": "string"
            },
            {
              "internalType": "string",
              "name": "addressO",
              "type": "string"
            },
            {
              "internalType": "uint32",
              "name": "telephone",
              "type": "uint32"
            },
            {
              "internalType": "uint256",
              "name": "index",
              "type": "uint256"
            }
          ],
          "internalType": "struct Main.Organization",
          "name": "",
          "type": "tuple"
        }
      ],
      "stateMutability": "view",
      "type": "function",
      "constant": true
    },
    {
      "inputs": [
        {
          "internalType": "address",
          "name": "userAddress",
          "type": "address"
        }
      ],
      "name": "getAdminToOrg",
      "outputs": [
        {
          "internalType": "uint256",
          "name": "userid",
          "type": "uint256"
        }
      ],
      "stateMutability": "view",
      "type": "function",
      "constant": true
    },
    {
      "inputs": [
        {
          "internalType": "address",
          "name": "userAddress",
          "type": "address"
        }
      ],
      "name": "getOrgFromAddress",
      "outputs": [
        {
          "components": [
            {
              "internalType": "address",
              "name": "admin",
              "type": "address"
            },
            {
              "internalType": "string",
              "name": "name",
              "type": "string"
            },
            {
              "internalType": "string",
              "name": "addressO",
              "type": "string"
            },
            {
              "internalType": "uint32",
              "name": "telephone",
              "type": "uint32"
            },
            {
              "internalType": "uint256",
              "name": "index",
              "type": "uint256"
            }
          ],
          "internalType": "struct Main.Organization",
          "name": "org",
          "type": "tuple"
        }
      ],
      "stateMutability": "view",
      "type": "function",
      "constant": true
    },
    {
      "inputs": [
        {
          "internalType": "string",
          "name": "name",
          "type": "string"
        },
        {
          "internalType": "uint256",
          "name": "organizationId",
          "type": "uint256"
        },
        {
          "internalType": "uint256",
          "name": "adquireDate",
          "type": "uint256"
        },
        {
          "internalType": "uint256",
          "name": "creationDate",
          "type": "uint256"
        },
        {
          "internalType": "string",
          "name": "assetType",
          "type": "string"
        }
      ],
      "name": "insertAsset",
      "outputs": [],
      "stateMutability": "nonpayable",
      "type": "function"
    },
    {
      "inputs": [
        {
          "internalType": "uint256",
          "name": "id",
          "type": "uint256"
        }
      ],
      "name": "getLastAssetEdited",
      "outputs": [
        {
          "components": [
            {
              "internalType": "uint256",
              "name": "originalAssetId",
              "type": "uint256"
            },
            {
              "internalType": "string",
              "name": "name",
              "type": "string"
            },
            {
              "internalType": "uint256",
              "name": "organizationId",
              "type": "uint256"
            },
            {
              "internalType": "uint256",
              "name": "adquireDate",
              "type": "uint256"
            },
            {
              "internalType": "uint256",
              "name": "creationDate",
              "type": "uint256"
            },
            {
              "internalType": "string",
              "name": "assetType",
              "type": "string"
            },
            {
              "internalType": "bool",
              "name": "deleted",
              "type": "bool"
            },
            {
              "internalType": "uint256",
              "name": "index",
              "type": "uint256"
            }
          ],
          "internalType": "struct Main.AssetEdited",
          "name": "",
          "type": "tuple"
        }
      ],
      "stateMutability": "view",
      "type": "function",
      "constant": true
    },
    {
      "inputs": [
        {
          "internalType": "uint256",
          "name": "id",
          "type": "uint256"
        }
      ],
      "name": "getAsset",
      "outputs": [
        {
          "components": [
            {
              "internalType": "string",
              "name": "name",
              "type": "string"
            },
            {
              "internalType": "uint256",
              "name": "organizationId",
              "type": "uint256"
            },
            {
              "internalType": "uint256",
              "name": "adquireDate",
              "type": "uint256"
            },
            {
              "internalType": "uint256",
              "name": "creationDate",
              "type": "uint256"
            },
            {
              "internalType": "string",
              "name": "assetType",
              "type": "string"
            },
            {
              "internalType": "uint256",
              "name": "index",
              "type": "uint256"
            }
          ],
          "internalType": "struct Main.Asset",
          "name": "",
          "type": "tuple"
        }
      ],
      "stateMutability": "view",
      "type": "function",
      "constant": true
    },
    {
      "inputs": [
        {
          "internalType": "uint256",
          "name": "_adminId",
          "type": "uint256"
        }
      ],
      "name": "getAdmin",
      "outputs": [
        {
          "components": [
            {
              "internalType": "address",
              "name": "admin",
              "type": "address"
            },
            {
              "internalType": "string",
              "name": "name",
              "type": "string"
            },
            {
              "internalType": "string",
              "name": "lastname",
              "type": "string"
            },
            {
              "internalType": "string",
              "name": "email",
              "type": "string"
            },
            {
              "internalType": "uint32",
              "name": "telephone",
              "type": "uint32"
            },
            {
              "internalType": "uint256",
              "name": "index",
              "type": "uint256"
            }
          ],
          "internalType": "struct Main.Admin",
          "name": "",
          "type": "tuple"
        }
      ],
      "stateMutability": "view",
      "type": "function",
      "constant": true
    },
    {
      "inputs": [
        {
          "internalType": "uint256",
          "name": "_orgId",
          "type": "uint256"
        }
      ],
      "name": "getAllAssetsFromOrg",
      "outputs": [
        {
          "components": [
            {
              "internalType": "string",
              "name": "name",
              "type": "string"
            },
            {
              "internalType": "uint256",
              "name": "organizationId",
              "type": "uint256"
            },
            {
              "internalType": "uint256",
              "name": "adquireDate",
              "type": "uint256"
            },
            {
              "internalType": "uint256",
              "name": "creationDate",
              "type": "uint256"
            },
            {
              "internalType": "string",
              "name": "assetType",
              "type": "string"
            },
            {
              "internalType": "uint256",
              "name": "index",
              "type": "uint256"
            }
          ],
          "internalType": "struct Main.Asset[]",
          "name": "",
          "type": "tuple[]"
        },
        {
          "components": [
            {
              "internalType": "uint256",
              "name": "originalAssetId",
              "type": "uint256"
            },
            {
              "internalType": "string",
              "name": "name",
              "type": "string"
            },
            {
              "internalType": "uint256",
              "name": "organizationId",
              "type": "uint256"
            },
            {
              "internalType": "uint256",
              "name": "adquireDate",
              "type": "uint256"
            },
            {
              "internalType": "uint256",
              "name": "creationDate",
              "type": "uint256"
            },
            {
              "internalType": "string",
              "name": "assetType",
              "type": "string"
            },
            {
              "internalType": "bool",
              "name": "deleted",
              "type": "bool"
            },
            {
              "internalType": "uint256",
              "name": "index",
              "type": "uint256"
            }
          ],
          "internalType": "struct Main.AssetEdited[]",
          "name": "",
          "type": "tuple[]"
        }
      ],
      "stateMutability": "view",
      "type": "function",
      "constant": true
    },
    {
      "inputs": [
        {
          "internalType": "uint256",
          "name": "originalAssetId",
          "type": "uint256"
        },
        {
          "internalType": "string",
          "name": "name",
          "type": "string"
        },
        {
          "internalType": "uint256",
          "name": "organizationId",
          "type": "uint256"
        },
        {
          "internalType": "uint256",
          "name": "adquireDate",
          "type": "uint256"
        },
        {
          "internalType": "uint256",
          "name": "creationDate",
          "type": "uint256"
        },
        {
          "internalType": "bool",
          "name": "deleted",
          "type": "bool"
        },
        {
          "internalType": "string",
          "name": "assetType",
          "type": "string"
        }
      ],
      "name": "insertEditedAsset",
      "outputs": [],
      "stateMutability": "nonpayable",
      "type": "function"
    },
    {
      "inputs": [
        {
          "internalType": "uint256",
          "name": "assetId",
          "type": "uint256"
        }
      ],
      "name": "getRecordList",
      "outputs": [
        {
          "components": [
            {
              "internalType": "string",
              "name": "name",
              "type": "string"
            },
            {
              "internalType": "uint256",
              "name": "organizationId",
              "type": "uint256"
            },
            {
              "internalType": "uint256",
              "name": "adquireDate",
              "type": "uint256"
            },
            {
              "internalType": "uint256",
              "name": "creationDate",
              "type": "uint256"
            },
            {
              "internalType": "string",
              "name": "assetType",
              "type": "string"
            },
            {
              "internalType": "uint256",
              "name": "index",
              "type": "uint256"
            }
          ],
          "internalType": "struct Main.Asset",
          "name": "",
          "type": "tuple"
        },
        {
          "components": [
            {
              "internalType": "uint256",
              "name": "originalAssetId",
              "type": "uint256"
            },
            {
              "internalType": "string",
              "name": "name",
              "type": "string"
            },
            {
              "internalType": "uint256",
              "name": "organizationId",
              "type": "uint256"
            },
            {
              "internalType": "uint256",
              "name": "adquireDate",
              "type": "uint256"
            },
            {
              "internalType": "uint256",
              "name": "creationDate",
              "type": "uint256"
            },
            {
              "internalType": "string",
              "name": "assetType",
              "type": "string"
            },
            {
              "internalType": "bool",
              "name": "deleted",
              "type": "bool"
            },
            {
              "internalType": "uint256",
              "name": "index",
              "type": "uint256"
            }
          ],
          "internalType": "struct Main.AssetEdited[]",
          "name": "",
          "type": "tuple[]"
        }
      ],
      "stateMutability": "view",
      "type": "function",
      "constant": true
    },
    {
      "inputs": [
        {
          "internalType": "uint256",
          "name": "id",
          "type": "uint256"
        }
      ],
      "name": "getAssetEdited",
      "outputs": [
        {
          "components": [
            {
              "internalType": "uint256",
              "name": "originalAssetId",
              "type": "uint256"
            },
            {
              "internalType": "string",
              "name": "name",
              "type": "string"
            },
            {
              "internalType": "uint256",
              "name": "organizationId",
              "type": "uint256"
            },
            {
              "internalType": "uint256",
              "name": "adquireDate",
              "type": "uint256"
            },
            {
              "internalType": "uint256",
              "name": "creationDate",
              "type": "uint256"
            },
            {
              "internalType": "string",
              "name": "assetType",
              "type": "string"
            },
            {
              "internalType": "bool",
              "name": "deleted",
              "type": "bool"
            },
            {
              "internalType": "uint256",
              "name": "index",
              "type": "uint256"
            }
          ],
          "internalType": "struct Main.AssetEdited",
          "name": "",
          "type": "tuple"
        }
      ],
      "stateMutability": "view",
      "type": "function",
      "constant": true
    },
    {
      "inputs": [
        {
          "internalType": "uint256",
          "name": "orgId",
          "type": "uint256"
        }
      ],
      "name": "getAssetsDeleted",
      "outputs": [
        {
          "components": [
            {
              "internalType": "uint256",
              "name": "originalAssetId",
              "type": "uint256"
            },
            {
              "internalType": "string",
              "name": "name",
              "type": "string"
            },
            {
              "internalType": "uint256",
              "name": "organizationId",
              "type": "uint256"
            },
            {
              "internalType": "uint256",
              "name": "adquireDate",
              "type": "uint256"
            },
            {
              "internalType": "uint256",
              "name": "creationDate",
              "type": "uint256"
            },
            {
              "internalType": "string",
              "name": "assetType",
              "type": "string"
            },
            {
              "internalType": "bool",
              "name": "deleted",
              "type": "bool"
            },
            {
              "internalType": "uint256",
              "name": "index",
              "type": "uint256"
            }
          ],
          "internalType": "struct Main.AssetEdited[]",
          "name": "",
          "type": "tuple[]"
        }
      ],
      "stateMutability": "view",
      "type": "function",
      "constant": true
    },
    {
      "inputs": [
        {
          "internalType": "uint256",
          "name": "idAsset",
          "type": "uint256"
        }
      ],
      "name": "getIsAssetEdited",
      "outputs": [
        {
          "internalType": "bool",
          "name": "result",
          "type": "bool"
        }
      ],
      "stateMutability": "view",
      "type": "function",
      "constant": true
    },
    {
      "inputs": [
        {
          "internalType": "uint256",
          "name": "idAsset",
          "type": "uint256"
        }
      ],
      "name": "getIsAssetDeleted",
      "outputs": [
        {
          "internalType": "bool",
          "name": "result",
          "type": "bool"
        }
      ],
      "stateMutability": "view",
      "type": "function",
      "constant": true
    },
    {
      "inputs": [
        {
          "internalType": "uint256",
          "name": "orgId",
          "type": "uint256"
        }
      ],
      "name": "getOrgNumEdited",
      "outputs": [
        {
          "internalType": "uint256",
          "name": "numEdited",
          "type": "uint256"
        }
      ],
      "stateMutability": "view",
      "type": "function",
      "constant": true
    },
    {
      "inputs": [
        {
          "internalType": "uint256",
          "name": "orgId",
          "type": "uint256"
        }
      ],
      "name": "getOrgNumDeleted",
      "outputs": [
        {
          "internalType": "uint256",
          "name": "numDeleted",
          "type": "uint256"
        }
      ],
      "stateMutability": "view",
      "type": "function",
      "constant": true
    },
    {
      "inputs": [
        {
          "internalType": "uint256",
          "name": "assetId",
          "type": "uint256"
        }
      ],
      "name": "getEdDeList",
      "outputs": [
        {
          "internalType": "uint256[]",
          "name": "listEdited",
          "type": "uint256[]"
        }
      ],
      "stateMutability": "view",
      "type": "function",
      "constant": true
    }
  ],
  "bytecode": "0x608060405234801561001057600080fd5b50613a91806100206000396000f3fe608060405234801561001057600080fd5b506004361061012c5760003560e01c80638ab95a33116100ad578063de93f53911610071578063de93f539146103da578063e6419ee61461040a578063e81ef31914610426578063eac8f5b814610456578063ef193b22146104865761012c565b80638ab95a33146102fd578063b5e8097214610319578063c70abaf414610349578063c92bc12d14610379578063de7946fc146103a95761012c565b806331fe8bcd116100f457806331fe8bcd1461020d5780633fc072901461023d578063415de94c1461026d5780634e4369c41461029d578063653e69ff146102cd5761012c565b80630a2eb30114610131578063111fd88b14610161578063151c3f44146101915780631744c800146101c15780632360c27f146101dd575b600080fd5b61014b60048036038101906101469190612b44565b6104b7565b6040516101589190612b8c565b60405180910390f35b61017b60048036038101906101769190612bdd565b610583565b6040516101889190612d77565b60405180910390f35b6101ab60048036038101906101a69190612bdd565b6107fb565b6040516101b89190612b8c565b60405180910390f35b6101db60048036038101906101d69190612ece565b61084a565b005b6101f760048036038101906101f29190612bdd565b610a50565b6040516102049190612ffe565b60405180910390f35b61022760048036038101906102229190612bdd565b610c36565b60405161023491906130cf565b60405180910390f35b61025760048036038101906102529190612b44565b610ca1565b6040516102649190612ffe565b60405180910390f35b61028760048036038101906102829190612b44565b610ce0565b6040516102949190613100565b60405180910390f35b6102b760048036038101906102b29190612b44565b610cf8565b6040516102c49190613100565b60405180910390f35b6102e760048036038101906102e29190612bdd565b610d41565b6040516102f49190613100565b60405180910390f35b61031760048036038101906103129190613147565b610d9c565b005b610333600480360381019061032e9190612bdd565b610e35565b604051610340919061334f565b60405180910390f35b610363600480360381019061035e9190612bdd565b611040565b604051610370919061334f565b60405180910390f35b610393600480360381019061038e9190612bdd565b6111ee565b6040516103a09190613100565b60405180910390f35b6103c360048036038101906103be9190612bdd565b611249565b6040516103d192919061363c565b60405180910390f35b6103f460048036038101906103ef9190612bdd565b6118c4565b6040516104019190613673565b60405180910390f35b610424600480360381019061041f91906136c1565b611b54565b005b610440600480360381019061043b9190612bdd565b611f5c565b60405161044d9190612b8c565b60405180910390f35b610470600480360381019061046b9190612bdd565b611fab565b60405161047d919061382b565b60405180910390f35b6104a0600480360381019061049b9190612bdd565b612133565b6040516104ae92919061384d565b60405180910390f35b60008060048054905014156104cf576000905061057e565b8173ffffffffffffffffffffffffffffffffffffffff166004600560008573ffffffffffffffffffffffffffffffffffffffff1673ffffffffffffffffffffffffffffffffffffffff168152602001908152602001600020548154811061053957610538613884565b5b9060005260206000200160009054906101000a900473ffffffffffffffffffffffffffffffffffffffff1673ffffffffffffffffffffffffffffffffffffffff161490505b919050565b61058b612915565b6002828154811061059f5761059e613884565b5b90600052602060002090600602016040518060c00160405290816000820160009054906101000a900473ffffffffffffffffffffffffffffffffffffffff1673ffffffffffffffffffffffffffffffffffffffff1673ffffffffffffffffffffffffffffffffffffffff16815260200160018201805461061e906138e2565b80601f016020809104026020016040519081016040528092919081815260200182805461064a906138e2565b80156106975780601f1061066c57610100808354040283529160200191610697565b820191906000526020600020905b81548152906001019060200180831161067a57829003601f168201915b505050505081526020016002820180546106b0906138e2565b80601f01602080910402602001604051908101604052809291908181526020018280546106dc906138e2565b80156107295780601f106106fe57610100808354040283529160200191610729565b820191906000526020600020905b81548152906001019060200180831161070c57829003601f168201915b50505050508152602001600382018054610742906138e2565b80601f016020809104026020016040519081016040528092919081815260200182805461076e906138e2565b80156107bb5780601f10610790576101008083540402835291602001916107bb565b820191906000526020600020905b81548152906001019060200180831161079e57829003601f168201915b505050505081526020016004820160009054906101000a900463ffffffff1663ffffffff1663ffffffff1681526020016005820154815250509050919050565b6000600c600083815260200190815260200160002060008154811061082357610822613884565b5b90600052602060002090602091828204019190069054906101000a900460ff169050919050565b60066040518060c00160405280878152602001868152602001858152602001848152602001838152602001600680549050815250908060018154018082558091505060019003906000526020600020906006020160009091909190915060008201518160000190805190602001906108c3929190612967565b5060208201518160010155604082015181600201556060820151816003015560808201518160040190805190602001906108fe929190612967565b5060a0820151816005015550506007600085815260200190815260200160002060016006805490506109309190613943565b9080600181540180825580915050600190039060005260206000200160009091909190915055600c6000600160068054905061096c9190613943565b8152602001908152602001600020600090806001815401808255809150506001900390600052602060002090602091828204019190069091909190916101000a81548160ff021916908315150217905550600c600060016006805490506109d39190613943565b8152602001908152602001600020600090806001815401808255809150506001900390600052602060002090602091828204019190069091909190916101000a81548160ff021916908315150217905550600a60006001600680549050610a3a9190613943565b8152602001908152602001600020505050505050565b610a586129ed565b60008281548110610a6c57610a6b613884565b5b90600052602060002090600502016040518060a00160405290816000820160009054906101000a900473ffffffffffffffffffffffffffffffffffffffff1673ffffffffffffffffffffffffffffffffffffffff1673ffffffffffffffffffffffffffffffffffffffff168152602001600182018054610aeb906138e2565b80601f0160208091040260200160405190810160405280929190818152602001828054610b17906138e2565b8015610b645780601f10610b3957610100808354040283529160200191610b64565b820191906000526020600020905b815481529060010190602001808311610b4757829003601f168201915b50505050508152602001600282018054610b7d906138e2565b80601f0160208091040260200160405190810160405280929190818152602001828054610ba9906138e2565b8015610bf65780601f10610bcb57610100808354040283529160200191610bf6565b820191906000526020600020905b815481529060010190602001808311610bd957829003601f168201915b505050505081526020016003820160009054906101000a900463ffffffff1663ffffffff1663ffffffff1681526020016004820154815250509050919050565b6060600a6000838152602001908152602001600020805480602002602001604051908101604052809291908181526020018280548015610c9557602002820191906000526020600020905b815481526020019060010190808311610c81575b50505050509050919050565b610ca96129ed565b610cb2826104b7565b15610cbc57600080fd5b6000610cc783610cf8565b90506000610cd482610a50565b90508092505050919050565b60056020528060005260406000206000915090505481565b6000600560008373ffffffffffffffffffffffffffffffffffffffff1673ffffffffffffffffffffffffffffffffffffffff168152602001908152602001600020549050919050565b6000600b6000838152602001908152602001600020600181548110610d6957610d68613884565b5b90600052602060002090600891828204019190066004029054906101000a900463ffffffff1663ffffffff169050919050565b610da5886104b7565b15610daf57600080fd5b610dbc888888888861254c565b610dc8888484846126b5565b6004889080600181540180825580915050600190039060005260206000200160009091909190916101000a81548173ffffffffffffffffffffffffffffffffffffffff021916908373ffffffffffffffffffffffffffffffffffffffff1602179055505050505050505050565b610e3d612a38565b60006001600a600085815260200190815260200160002080549050610e629190613943565b90506000600a60008581526020019081526020016000208281548110610e8b57610e8a613884565b5b9060005260206000200154905060088181548110610eac57610eab613884565b5b90600052602060002090600802016040518061010001604052908160008201548152602001600182018054610ee0906138e2565b80601f0160208091040260200160405190810160405280929190818152602001828054610f0c906138e2565b8015610f595780601f10610f2e57610100808354040283529160200191610f59565b820191906000526020600020905b815481529060010190602001808311610f3c57829003601f168201915b50505050508152602001600282015481526020016003820154815260200160048201548152602001600582018054610f90906138e2565b80601f0160208091040260200160405190810160405280929190818152602001828054610fbc906138e2565b80156110095780601f10610fde57610100808354040283529160200191611009565b820191906000526020600020905b815481529060010190602001808311610fec57829003601f168201915b505050505081526020016006820160009054906101000a900460ff1615151515815260200160078201548152505092505050919050565b611048612a38565b6008828154811061105c5761105b613884565b5b90600052602060002090600802016040518061010001604052908160008201548152602001600182018054611090906138e2565b80601f01602080910402602001604051908101604052809291908181526020018280546110bc906138e2565b80156111095780601f106110de57610100808354040283529160200191611109565b820191906000526020600020905b8154815290600101906020018083116110ec57829003601f168201915b50505050508152602001600282015481526020016003820154815260200160048201548152602001600582018054611140906138e2565b80601f016020809104026020016040519081016040528092919081815260200182805461116c906138e2565b80156111b95780601f1061118e576101008083540402835291602001916111b9565b820191906000526020600020905b81548152906001019060200180831161119c57829003601f168201915b505050505081526020016006820160009054906101000a900460ff161515151581526020016007820154815250509050919050565b6000600b600083815260200190815260200160002060008154811061121657611215613884565b5b90600052602060002090600891828204019190066004029054906101000a900463ffffffff1663ffffffff169050919050565b6060806000600b600085815260200190815260200160002060008154811061127457611273613884565b5b90600052602060002090600891828204019190066004029054906101000a900463ffffffff1690506000600b60008681526020019081526020016000206001815481106112c4576112c3613884565b5b90600052602060002090600891828204019190066004029054906101000a900463ffffffff169050600081836112fa9190613977565b905060006007600088815260200190815260200160002080549050905060008463ffffffff168261132b9190613943565b67ffffffffffffffff81111561134457611343612da3565b5b60405190808252806020026020018201604052801561137d57816020015b61136a612a7f565b8152602001906001900390816113625790505b50905060008363ffffffff1667ffffffffffffffff8111156113a2576113a1612da3565b5b6040519080825280602002602001820160405280156113db57816020015b6113c8612a38565b8152602001906001900390816113c05790505b50905060008060005b858110156118b057600c600082815260200190815260200160002060018154811061141257611411613884565b5b90600052602060002090602091828204019190069054906101000a900460ff161561143c5761189d565b60011515600c600083815260200190815260200160002060008154811061146657611465613884565b5b90600052602060002090602091828204019190069054906101000a900460ff16151514156116c15760006001600a6000848152602001908152602001600020805490506114b39190613943565b90506000600a600084815260200190815260200160002082815481106114dc576114db613884565b5b90600052602060002001549050600881815481106114fd576114fc613884565b5b90600052602060002090600802016040518061010001604052908160008201548152602001600182018054611531906138e2565b80601f016020809104026020016040519081016040528092919081815260200182805461155d906138e2565b80156115aa5780601f1061157f576101008083540402835291602001916115aa565b820191906000526020600020905b81548152906001019060200180831161158d57829003601f168201915b505050505081526020016002820154815260200160038201548152602001600482015481526020016005820180546115e1906138e2565b80601f016020809104026020016040519081016040528092919081815260200182805461160d906138e2565b801561165a5780601f1061162f5761010080835404028352916020019161165a565b820191906000526020600020905b81548152906001019060200180831161163d57829003601f168201915b505050505081526020016006820160009054906101000a900460ff16151515158152602001600782015481525050868663ffffffff16815181106116a1576116a0613884565b5b602002602001018190525084806116b7906139ab565b955050505061189c565b6000600760008e815260200190815260200160002082815481106116e8576116e7613884565b5b906000526020600020015490506006818154811061170957611708613884565b5b90600052602060002090600602016040518060c0016040529081600082018054611732906138e2565b80601f016020809104026020016040519081016040528092919081815260200182805461175e906138e2565b80156117ab5780601f10611780576101008083540402835291602001916117ab565b820191906000526020600020905b81548152906001019060200180831161178e57829003601f168201915b505050505081526020016001820154815260200160028201548152602001600382015481526020016004820180546117e2906138e2565b80601f016020809104026020016040519081016040528092919081815260200182805461180e906138e2565b801561185b5780601f106118305761010080835404028352916020019161185b565b820191906000526020600020905b81548152906001019060200180831161183e57829003601f168201915b5050505050815260200160058201548152505086848151811061188157611880613884565b5b60200260200101819052508280611897906139d8565b935050505b5b80806118a8906139d8565b9150506113e4565b508383995099505050505050505050915091565b60606000600d600084815260200190815260200160002080549050905060008167ffffffffffffffff8111156118fd576118fc612da3565b5b60405190808252806020026020018201604052801561193657816020015b611923612a38565b81526020019060019003908161191b5790505b50905060005b82811015611b49576000600d6000878152602001908152602001600020828154811061196b5761196a613884565b5b906000526020600020015490506008818154811061198c5761198b613884565b5b906000526020600020906008020160405180610100016040529081600082015481526020016001820180546119c0906138e2565b80601f01602080910402602001604051908101604052809291908181526020018280546119ec906138e2565b8015611a395780601f10611a0e57610100808354040283529160200191611a39565b820191906000526020600020905b815481529060010190602001808311611a1c57829003601f168201915b50505050508152602001600282015481526020016003820154815260200160048201548152602001600582018054611a70906138e2565b80601f0160208091040260200160405190810160405280929190818152602001828054611a9c906138e2565b8015611ae95780601f10611abe57610100808354040283529160200191611ae9565b820191906000526020600020905b815481529060010190602001808311611acc57829003601f168201915b505050505081526020016006820160009054906101000a900460ff16151515158152602001600782015481525050838381518110611b2a57611b29613884565b5b6020026020010181905250508080611b41906139d8565b91505061193c565b508092505050919050565b600860405180610100016040528089815260200188815260200187815260200186815260200185815260200183815260200184151581526020016008805490508152509080600181540180825580915050600190039060005260206000209060080201600090919091909150600082015181600001556020820151816001019080519060200190611be6929190612967565b5060408201518160020155606082015181600301556080820151816004015560a0820151816005019080519060200190611c21929190612967565b5060c08201518160060160006101000a81548160ff02191690831515021790555060e08201518160070155505060006001600880549050611c629190613943565b9050600c6000898152602001908152602001600020600081548110611c8a57611c89613884565b5b90600052602060002090602091828204019190069054906101000a900460ff16611db7576001600c60008a8152602001908152602001600020600081548110611cd657611cd5613884565b5b90600052602060002090602091828204019190066101000a81548160ff02191690831515021790555060006001600b6000898152602001908152602001600020600081548110611d2957611d28613884565b5b90600052602060002090600891828204019190066004029054906101000a900463ffffffff16611d599190613a21565b905080600b6000898152602001908152602001600020600081548110611d8257611d81613884565b5b90600052602060002090600891828204019190066004026101000a81548163ffffffff021916908363ffffffff160217905550505b600a6000898152602001908152602001600020819080600181540180825580915050600190039060005260206000200160009091909190915055600115158315151415611f5257600d60008781526020019081526020016000206001600880549050611e239190613943565b90806001815401808255809150506001900390600052602060002001600090919091909150556001600c60008a8152602001908152602001600020600181548110611e7157611e70613884565b5b90600052602060002090602091828204019190066101000a81548160ff02191690831515021790555060006001600b6000898152602001908152602001600020600181548110611ec457611ec3613884565b5b90600052602060002090600891828204019190066004029054906101000a900463ffffffff16611ef49190613a21565b905080600b6000898152602001908152602001600020600181548110611f1d57611f1c613884565b5b90600052602060002090600891828204019190066004026101000a81548163ffffffff021916908363ffffffff160217905550505b5050505050505050565b6000600c6000838152602001908152602001600020600181548110611f8457611f83613884565b5b90600052602060002090602091828204019190069054906101000a900460ff169050919050565b611fb3612a7f565b60068281548110611fc757611fc6613884565b5b90600052602060002090600602016040518060c0016040529081600082018054611ff0906138e2565b80601f016020809104026020016040519081016040528092919081815260200182805461201c906138e2565b80156120695780601f1061203e57610100808354040283529160200191612069565b820191906000526020600020905b81548152906001019060200180831161204c57829003601f168201915b505050505081526020016001820154815260200160028201548152602001600382015481526020016004820180546120a0906138e2565b80601f01602080910402602001604051908101604052809291908181526020018280546120cc906138e2565b80156121195780601f106120ee57610100808354040283529160200191612119565b820191906000526020600020905b8154815290600101906020018083116120fc57829003601f168201915b505050505081526020016005820154815250509050919050565b61213b612a7f565b606060006006848154811061215357612152613884565b5b90600052602060002090600602016040518060c001604052908160008201805461217c906138e2565b80601f01602080910402602001604051908101604052809291908181526020018280546121a8906138e2565b80156121f55780601f106121ca576101008083540402835291602001916121f5565b820191906000526020600020905b8154815290600101906020018083116121d857829003601f168201915b5050505050815260200160018201548152602001600282015481526020016003820154815260200160048201805461222c906138e2565b80601f0160208091040260200160405190810160405280929190818152602001828054612258906138e2565b80156122a55780601f1061227a576101008083540402835291602001916122a5565b820191906000526020600020905b81548152906001019060200180831161228857829003601f168201915b5050505050815260200160058201548152505090506000600a600086815260200190815260200160002080549050905060008167ffffffffffffffff8111156122f1576122f0612da3565b5b60405190808252806020026020018201604052801561232a57816020015b612317612a38565b81526020019060019003908161230f5790505b50905060005b8281101561253d576000600a6000898152602001908152602001600020828154811061235f5761235e613884565b5b90600052602060002001549050600881815481106123805761237f613884565b5b906000526020600020906008020160405180610100016040529081600082015481526020016001820180546123b4906138e2565b80601f01602080910402602001604051908101604052809291908181526020018280546123e0906138e2565b801561242d5780601f106124025761010080835404028352916020019161242d565b820191906000526020600020905b81548152906001019060200180831161241057829003601f168201915b50505050508152602001600282015481526020016003820154815260200160048201548152602001600582018054612464906138e2565b80601f0160208091040260200160405190810160405280929190818152602001828054612490906138e2565b80156124dd5780601f106124b2576101008083540402835291602001916124dd565b820191906000526020600020905b8154815290600101906020018083116124c057829003601f168201915b505050505081526020016006820160009054906101000a900460ff1615151515815260200160078201548152505083838151811061251e5761251d613884565b5b6020026020010181905250508080612535906139d8565b915050612330565b50828194509450505050915091565b60026040518060c001604052808773ffffffffffffffffffffffffffffffffffffffff1681526020018681526020018581526020018481526020018363ffffffff168152602001600280549050815250908060018154018082558091505060019003906000526020600020906006020160009091909190915060008201518160000160006101000a81548173ffffffffffffffffffffffffffffffffffffffff021916908373ffffffffffffffffffffffffffffffffffffffff1602179055506020820151816001019080519060200190612628929190612967565b506040820151816002019080519060200190612645929190612967565b506060820151816003019080519060200190612662929190612967565b5060808201518160040160006101000a81548163ffffffff021916908363ffffffff16021790555060a082015181600501555050600360008154809291906126a9906139d8565b91905055505050505050565b60006040518060a001604052808673ffffffffffffffffffffffffffffffffffffffff1681526020018581526020018481526020018363ffffffff168152602001600080549050815250908060018154018082558091505060019003906000526020600020906005020160009091909190915060008201518160000160006101000a81548173ffffffffffffffffffffffffffffffffffffffff021916908373ffffffffffffffffffffffffffffffffffffffff160217905550602082015181600101908051906020019061278b929190612967565b5060408201518160020190805190602001906127a8929190612967565b5060608201518160030160006101000a81548163ffffffff021916908363ffffffff160217905550608082015181600401555050600160008154809291906127ef906139d8565b9190505550600060016000805490506128089190613943565b905080600560008773ffffffffffffffffffffffffffffffffffffffff1673ffffffffffffffffffffffffffffffffffffffff16815260200190815260200160002081905550600b6000828152602001908152602001600020600090806001815401808255809150506001900390600052602060002090600891828204019190066004029091909190916101000a81548163ffffffff021916908363ffffffff160217905550600b6000828152602001908152602001600020600090806001815401808255809150506001900390600052602060002090600891828204019190066004029091909190916101000a81548163ffffffff021916908363ffffffff1602179055505050505050565b6040518060c00160405280600073ffffffffffffffffffffffffffffffffffffffff168152602001606081526020016060815260200160608152602001600063ffffffff168152602001600081525090565b828054612973906138e2565b90600052602060002090601f01602090048101928261299557600085556129dc565b82601f106129ae57805160ff19168380011785556129dc565b828001600101855582156129dc579182015b828111156129db5782518255916020019190600101906129c0565b5b5090506129e99190612ab5565b5090565b6040518060a00160405280600073ffffffffffffffffffffffffffffffffffffffff1681526020016060815260200160608152602001600063ffffffff168152602001600081525090565b604051806101000160405280600081526020016060815260200160008152602001600081526020016000815260200160608152602001600015158152602001600081525090565b6040518060c001604052806060815260200160008152602001600081526020016000815260200160608152602001600081525090565b5b80821115612ace576000816000905550600101612ab6565b5090565b6000604051905090565b600080fd5b600080fd5b600073ffffffffffffffffffffffffffffffffffffffff82169050919050565b6000612b1182612ae6565b9050919050565b612b2181612b06565b8114612b2c57600080fd5b50565b600081359050612b3e81612b18565b92915050565b600060208284031215612b5a57612b59612adc565b5b6000612b6884828501612b2f565b91505092915050565b60008115159050919050565b612b8681612b71565b82525050565b6000602082019050612ba16000830184612b7d565b92915050565b6000819050919050565b612bba81612ba7565b8114612bc557600080fd5b50565b600081359050612bd781612bb1565b92915050565b600060208284031215612bf357612bf2612adc565b5b6000612c0184828501612bc8565b91505092915050565b612c1381612b06565b82525050565b600081519050919050565b600082825260208201905092915050565b60005b83811015612c53578082015181840152602081019050612c38565b83811115612c62576000848401525b50505050565b6000601f19601f8301169050919050565b6000612c8482612c19565b612c8e8185612c24565b9350612c9e818560208601612c35565b612ca781612c68565b840191505092915050565b600063ffffffff82169050919050565b612ccb81612cb2565b82525050565b612cda81612ba7565b82525050565b600060c083016000830151612cf86000860182612c0a565b5060208301518482036020860152612d108282612c79565b91505060408301518482036040860152612d2a8282612c79565b91505060608301518482036060860152612d448282612c79565b9150506080830151612d596080860182612cc2565b5060a0830151612d6c60a0860182612cd1565b508091505092915050565b60006020820190508181036000830152612d918184612ce0565b905092915050565b600080fd5b600080fd5b7f4e487b7100000000000000000000000000000000000000000000000000000000600052604160045260246000fd5b612ddb82612c68565b810181811067ffffffffffffffff82111715612dfa57612df9612da3565b5b80604052505050565b6000612e0d612ad2565b9050612e198282612dd2565b919050565b600067ffffffffffffffff821115612e3957612e38612da3565b5b612e4282612c68565b9050602081019050919050565b82818337600083830152505050565b6000612e71612e6c84612e1e565b612e03565b905082815260208101848484011115612e8d57612e8c612d9e565b5b612e98848285612e4f565b509392505050565b600082601f830112612eb557612eb4612d99565b5b8135612ec5848260208601612e5e565b91505092915050565b600080600080600060a08688031215612eea57612ee9612adc565b5b600086013567ffffffffffffffff811115612f0857612f07612ae1565b5b612f1488828901612ea0565b9550506020612f2588828901612bc8565b9450506040612f3688828901612bc8565b9350506060612f4788828901612bc8565b925050608086013567ffffffffffffffff811115612f6857612f67612ae1565b5b612f7488828901612ea0565b9150509295509295909350565b600060a083016000830151612f996000860182612c0a565b5060208301518482036020860152612fb18282612c79565b91505060408301518482036040860152612fcb8282612c79565b9150506060830151612fe06060860182612cc2565b506080830151612ff36080860182612cd1565b508091505092915050565b600060208201905081810360008301526130188184612f81565b905092915050565b600081519050919050565b600082825260208201905092915050565b6000819050602082019050919050565b60006130588383612cd1565b60208301905092915050565b6000602082019050919050565b600061307c82613020565b613086818561302b565b93506130918361303c565b8060005b838110156130c25781516130a9888261304c565b97506130b483613064565b925050600181019050613095565b5085935050505092915050565b600060208201905081810360008301526130e98184613071565b905092915050565b6130fa81612ba7565b82525050565b600060208201905061311560008301846130f1565b92915050565b61312481612cb2565b811461312f57600080fd5b50565b6000813590506131418161311b565b92915050565b600080600080600080600080610100898b03121561316857613167612adc565b5b60006131768b828c01612b2f565b985050602089013567ffffffffffffffff81111561319757613196612ae1565b5b6131a38b828c01612ea0565b975050604089013567ffffffffffffffff8111156131c4576131c3612ae1565b5b6131d08b828c01612ea0565b965050606089013567ffffffffffffffff8111156131f1576131f0612ae1565b5b6131fd8b828c01612ea0565b955050608061320e8b828c01613132565b94505060a089013567ffffffffffffffff81111561322f5761322e612ae1565b5b61323b8b828c01612ea0565b93505060c089013567ffffffffffffffff81111561325c5761325b612ae1565b5b6132688b828c01612ea0565b92505060e06132798b828c01613132565b9150509295985092959890939650565b61329281612b71565b82525050565b6000610100830160008301516132b16000860182612cd1565b50602083015184820360208601526132c98282612c79565b91505060408301516132de6040860182612cd1565b5060608301516132f16060860182612cd1565b5060808301516133046080860182612cd1565b5060a083015184820360a086015261331c8282612c79565b91505060c083015161333160c0860182613289565b5060e083015161334460e0860182612cd1565b508091505092915050565b600060208201905081810360008301526133698184613298565b905092915050565b600081519050919050565b600082825260208201905092915050565b6000819050602082019050919050565b600060c08301600083015184820360008601526133ba8282612c79565b91505060208301516133cf6020860182612cd1565b5060408301516133e26040860182612cd1565b5060608301516133f56060860182612cd1565b506080830151848203608086015261340d8282612c79565b91505060a083015161342260a0860182612cd1565b508091505092915050565b6000613439838361339d565b905092915050565b6000602082019050919050565b600061345982613371565b613463818561337c565b9350836020820285016134758561338d565b8060005b858110156134b15784840389528151613492858261342d565b945061349d83613441565b925060208a01995050600181019050613479565b50829750879550505050505092915050565b600081519050919050565b600082825260208201905092915050565b6000819050602082019050919050565b6000610100830160008301516135086000860182612cd1565b50602083015184820360208601526135208282612c79565b91505060408301516135356040860182612cd1565b5060608301516135486060860182612cd1565b50608083015161355b6080860182612cd1565b5060a083015184820360a08601526135738282612c79565b91505060c083015161358860c0860182613289565b5060e083015161359b60e0860182612cd1565b508091505092915050565b60006135b283836134ef565b905092915050565b6000602082019050919050565b60006135d2826134c3565b6135dc81856134ce565b9350836020820285016135ee856134df565b8060005b8581101561362a578484038952815161360b85826135a6565b9450613616836135ba565b925060208a019950506001810190506135f2565b50829750879550505050505092915050565b60006040820190508181036000830152613656818561344e565b9050818103602083015261366a81846135c7565b90509392505050565b6000602082019050818103600083015261368d81846135c7565b905092915050565b61369e81612b71565b81146136a957600080fd5b50565b6000813590506136bb81613695565b92915050565b600080600080600080600060e0888a0312156136e0576136df612adc565b5b60006136ee8a828b01612bc8565b975050602088013567ffffffffffffffff81111561370f5761370e612ae1565b5b61371b8a828b01612ea0565b965050604061372c8a828b01612bc8565b955050606061373d8a828b01612bc8565b945050608061374e8a828b01612bc8565b93505060a061375f8a828b016136ac565b92505060c088013567ffffffffffffffff8111156137805761377f612ae1565b5b61378c8a828b01612ea0565b91505092959891949750929550565b600060c08301600083015184820360008601526137b88282612c79565b91505060208301516137cd6020860182612cd1565b5060408301516137e06040860182612cd1565b5060608301516137f36060860182612cd1565b506080830151848203608086015261380b8282612c79565b91505060a083015161382060a0860182612cd1565b508091505092915050565b60006020820190508181036000830152613845818461379b565b905092915050565b60006040820190508181036000830152613867818561379b565b9050818103602083015261387b81846135c7565b90509392505050565b7f4e487b7100000000000000000000000000000000000000000000000000000000600052603260045260246000fd5b7f4e487b7100000000000000000000000000000000000000000000000000000000600052602260045260246000fd5b600060028204905060018216806138fa57607f821691505b6020821081141561390e5761390d6138b3565b5b50919050565b7f4e487b7100000000000000000000000000000000000000000000000000000000600052601160045260246000fd5b600061394e82612ba7565b915061395983612ba7565b92508282101561396c5761396b613914565b5b828203905092915050565b600061398282612cb2565b915061398d83612cb2565b9250828210156139a05761399f613914565b5b828203905092915050565b60006139b682612cb2565b915063ffffffff8214156139cd576139cc613914565b5b600182019050919050565b60006139e382612ba7565b91507fffffffffffffffffffffffffffffffffffffffffffffffffffffffffffffffff821415613a1657613a15613914565b5b600182019050919050565b6000613a2c82612cb2565b9150613a3783612cb2565b92508263ffffffff03821115613a5057613a4f613914565b5b82820190509291505056fea2646970667358221220dcd4727bb1f2be594d09705cece4ade11cafdc75b4670b397f52272d884792ad64736f6c634300080c0033",
  "immutableReferences": {},
  "source": "// SPDX-License-Identifier: MIT\r\npragma solidity >=0.7.0 <0.9.10;\r\n\r\ncontract Main {\r\n    //EVENTS\r\n    event NewOrganization(address user, string name);\r\n    event LogNewUser(\r\n        address indexed userAddress,\r\n        uint256 index,\r\n        bytes32 userEmail,\r\n        uint256 userAge\r\n    );\r\n\r\n    //STRUCTS\r\n    struct Organization {\r\n        address admin;\r\n        string name;\r\n        string addressO;\r\n        uint32 telephone;\r\n        uint256 index;\r\n    }\r\n\r\n    struct Admin {\r\n        address admin;\r\n        string name;\r\n        string lastname;\r\n        string email;\r\n        uint32 telephone;\r\n        uint256 index;\r\n    }\r\n\r\n    //DATA\r\n    Organization[] private organizations;\r\n    uint256 orgCount;\r\n\r\n    Admin[] private admins;\r\n    uint256 adminsCount;\r\n\r\n    //List of users with a org created (administrators)\r\n    address[] private administrators;\r\n\r\n    mapping(address => uint256) public addressToOrganizationIndex;\r\n\r\n    //FUNCTIONS\r\n\r\n    //data created with organization\r\n    function insertOrgAndAdmin(\r\n        address admin,\r\n        string memory name,\r\n        string memory lastname,\r\n        string memory email,\r\n        uint32 adTelephone,\r\n        string memory orgName,\r\n        string memory orgAddress,\r\n        uint32 orgTelephone\r\n    ) public {\r\n        if (isAdministrator(admin)) revert();\r\n        insertAdmin(admin, name, lastname, email, adTelephone);\r\n        insertOrganization(admin, orgName, orgAddress, orgTelephone);\r\n        administrators.push(admin);\r\n    }\r\n\r\n    function insertAdmin(\r\n        address admin,\r\n        string memory name,\r\n        string memory lastname,\r\n        string memory email,\r\n        uint32 telephone\r\n    ) private {\r\n        admins.push(\r\n            (Admin(admin, name, lastname, email, telephone, admins.length))\r\n        );\r\n        adminsCount++;\r\n    }\r\n\r\n    function insertOrganization(\r\n        address userAddress,\r\n        string memory name,\r\n        string memory addressO,\r\n        uint32 telephone\r\n    ) private {\r\n        organizations.push(\r\n            Organization(\r\n                userAddress,\r\n                name,\r\n                addressO,\r\n                telephone,\r\n                organizations.length\r\n            )\r\n        );\r\n        orgCount++;\r\n        uint256 id = organizations.length - 1;\r\n        addressToOrganizationIndex[userAddress] = id;\r\n        //Create the mapping with 0 assets edited and 0 deleted\r\n        organizationNumberOfAssetsED[id].push(0);\r\n        organizationNumberOfAssetsED[id].push(0);\r\n    }\r\n\r\n    // Check if the address has created a org, == is an administrator.\r\n    function isAdministrator(address userAddress)\r\n        public\r\n        view\r\n        returns (bool isIndeed)\r\n    {\r\n        if (administrators.length == 0) return false;\r\n        return (administrators[addressToOrganizationIndex[userAddress]] ==\r\n            userAddress);\r\n    }\r\n\r\n    function getOrg(uint256 _orgId) public view returns (Organization memory) {\r\n        return organizations[_orgId];\r\n    }\r\n\r\n    function getAdminToOrg(address userAddress)\r\n        public\r\n        view\r\n        returns (uint256 userid)\r\n    {\r\n        return addressToOrganizationIndex[userAddress];\r\n    }\r\n\r\n    //Get the organization if there is an address that created it\r\n    function getOrgFromAddress(address userAddress)\r\n        public\r\n        view\r\n        returns (Organization memory org)\r\n    {\r\n        if (isAdministrator(userAddress)) revert();\r\n        uint256 orgId = getAdminToOrg(userAddress);\r\n        Organization memory organ = getOrg(orgId);\r\n        return organ;\r\n    }\r\n\r\n    //ASSETS TYPE AND FUNCTIONS\r\n    struct Asset {\r\n        string name;\r\n        uint256 organizationId;\r\n        uint256 adquireDate;\r\n        uint256 creationDate;\r\n        string assetType;\r\n        uint256 index;\r\n    }\r\n\r\n    Asset[] private assetsList;\r\n    //uint256 orgCount;\r\n\r\n    //UNNECESARY MAPPING\r\n    //mapping(uint256 => uint256) private assetToOrg;\r\n\r\n    //CREAR UN MAPPING DE ORGANIZACIN (ID) A LISTA DE ASSETS (ID)?\r\n    mapping(uint256 => uint256[]) private assetsFromOrg;\r\n\r\n    //ASSET EDITED INTRODUCES A BOOL DELETED\r\n    struct AssetEdited {\r\n        uint256 originalAssetId;\r\n        string name;\r\n        uint256 organizationId;\r\n        uint256 adquireDate;\r\n        uint256 creationDate;\r\n        string assetType;\r\n        bool deleted;\r\n        uint256 index;\r\n    }\r\n\r\n    AssetEdited[] private assetsEditedList;\r\n    //uint256 orgCount;\r\n    mapping(uint256 => uint256) private assetEditedToAsset;\r\n\r\n    //ASSETS ORIGINAL TO LIST OF ASSETS EDITED\r\n    mapping(uint256 => uint256[]) private originalAssetsToEditedList;\r\n\r\n    function insertAsset(\r\n        string memory name,\r\n        uint256 organizationId,\r\n        uint256 adquireDate,\r\n        uint256 creationDate,\r\n        string memory assetType\r\n    ) public {\r\n        assetsList.push(\r\n            (\r\n                Asset(\r\n                    name,\r\n                    organizationId,\r\n                    adquireDate,\r\n                    creationDate,\r\n                    assetType,\r\n                    assetsList.length\r\n                )\r\n            )\r\n        );\r\n        //adminsCount++;\r\n        assetsFromOrg[organizationId].push(assetsList.length - 1);\r\n        assetBoolEditedAndDeleted[assetsList.length - 1].push(false);\r\n        assetBoolEditedAndDeleted[assetsList.length - 1].push(false);\r\n        originalAssetsToEditedList[assetsList.length - 1];\r\n    }\r\n\r\n    function getLastAssetEdited(uint256 id) public view returns (AssetEdited memory) {\r\n        uint256 lastItem = originalAssetsToEditedList[id].length - 1;\r\n        uint256 assetEditedId = originalAssetsToEditedList[id][lastItem];\r\n        return assetsEditedList[assetEditedId];\r\n    }\r\n\r\n    function getAsset(uint256 id) public view returns (Asset memory) {\r\n        return assetsList[id];\r\n    }\r\n\r\n    function getAdmin(uint256 _adminId) public view returns (Admin memory) {\r\n        return admins[_adminId];\r\n    }\r\n\r\n    function getAllAssetsFromOrg(uint256 _orgId)\r\n        public\r\n        view\r\n        returns (Asset[] memory, AssetEdited[] memory)\r\n    {\r\n        uint32 contEdited = organizationNumberOfAssetsED[_orgId][0];\r\n        uint32 contDeleted = organizationNumberOfAssetsED[_orgId][1];\r\n        uint32 edList = uint32(uint32(contEdited) - uint32(contDeleted));\r\n        uint256 cont = assetsFromOrg[_orgId].length;\r\n        Asset[] memory listOrgAssets = new Asset[](cont-contEdited);\r\n        AssetEdited[] memory listOrgAssetsEdited = new AssetEdited[](edList);\r\n        uint32 bucleEdited = 0;\r\n        uint bucleOriginal = 0;\r\n        for (uint256 i = 0; i < cont; i++) {\r\n            //First check if that asset has been deleted\r\n            //so we don't retrieve it\r\n            if (assetBoolEditedAndDeleted[i][1]) {\r\n                continue;\r\n            }\r\n            //Check if asset has been edited in order\r\n            //to retrieve last edited asset\r\n            if (assetBoolEditedAndDeleted[i][0] == true) {\r\n                uint256 lastItem = originalAssetsToEditedList[i].length - 1;\r\n                uint256 assetEditedId = originalAssetsToEditedList[i][lastItem];\r\n                listOrgAssetsEdited[bucleEdited] = assetsEditedList[assetEditedId];\r\n                bucleEdited++;\r\n                //Last case the asset hasn't been edited\r\n            } else {\r\n                uint256 assetId = assetsFromOrg[_orgId][i];\r\n                listOrgAssets[bucleOriginal] = assetsList[assetId];\r\n                bucleOriginal++;\r\n            }\r\n        }\r\n        return (listOrgAssets, listOrgAssetsEdited);\r\n    }\r\n\r\n\r\n    //MAPPING ID OF WITH THE LIST OF NUMBER OF ASSETS EDITED AND DELETED\r\n    mapping(uint256 => uint32[]) private organizationNumberOfAssetsED;\r\n\r\n    //CREAMOS UNA LISTA QUE RECOGE LOS id de los ASSETS ORIGINALES QUE TIENEN ALGUNA EDICIN\r\n    //uint256[] private assetsOriginalEdited;\r\n\r\n    //CREAR MAPPING DE ID ORIGINAL A LIST OF BOOLEAN\r\n    // QUE INDICA SI EL ID EST EDITADO EN EL PRIMER VALOR\r\n    // EN EL SEGUNDO VALOR INDICA SI EST ELIMINADO\r\n    mapping(uint256 => bool[]) private assetBoolEditedAndDeleted;\r\n    //DE ESTA MANERA PODEMOS VER EN CADA CASO EL ID SI EST EDITADO O ELIMINADO\r\n\r\n    //mapping que relaciona la org con los assets que tiene eliminados\r\n    mapping(uint256 => uint256[]) private assetsFromOrgDeleted;\r\n\r\n    function insertEditedAsset(\r\n        uint256 originalAssetId,\r\n        string memory name,\r\n        uint256 organizationId,\r\n        uint256 adquireDate,\r\n        uint256 creationDate,\r\n        bool deleted,\r\n        string memory assetType\r\n    ) public {\r\n        //CHECK IF THE ASSET IS ALREADY IN ASSETS EDITED LIST\r\n        \r\n        assetsEditedList.push(\r\n            (\r\n                AssetEdited(\r\n                    originalAssetId,\r\n                    name,\r\n                    organizationId,\r\n                    adquireDate,\r\n                    creationDate,\r\n                    assetType,\r\n                    deleted,\r\n                    assetsEditedList.length\r\n                )\r\n            )\r\n        );\r\n        uint256 id = assetsEditedList.length - 1;\r\n        if (!assetBoolEditedAndDeleted[originalAssetId][0]) {\r\n            assetBoolEditedAndDeleted[originalAssetId][0] = true;\r\n            uint32 ed = organizationNumberOfAssetsED[organizationId][0]+1;\r\n            organizationNumberOfAssetsED[organizationId][0] = ed;\r\n        }\r\n        originalAssetsToEditedList[originalAssetId].push(id);\r\n        \r\n        if (deleted == true) {\r\n            assetsFromOrgDeleted[organizationId].push(\r\n                assetsEditedList.length - 1\r\n            );\r\n            assetBoolEditedAndDeleted[originalAssetId][1] = true;\r\n            uint32 de = organizationNumberOfAssetsED[organizationId][1]+1;\r\n            organizationNumberOfAssetsED[organizationId][1] = de;\r\n        }\r\n    }\r\n\r\n    function getRecordList(uint assetId) public view returns (Asset memory, AssetEdited[] memory) {\r\n        Asset memory original = assetsList[assetId];\r\n        uint len = originalAssetsToEditedList[assetId].length;\r\n        AssetEdited[] memory listEdited = new AssetEdited[](len);\r\n        for (uint256 i = 0; i < len; i++) {\r\n            uint num = originalAssetsToEditedList[assetId][i];\r\n            listEdited[i] = assetsEditedList[num];\r\n        }\r\n        return (original, listEdited);\r\n     }\r\n\r\n    function getAssetEdited(uint256 id) public view returns (AssetEdited memory) {\r\n        return assetsEditedList[id];\r\n    }\r\n\r\n    function getAssetsDeleted(uint256 orgId)\r\n        public\r\n        view\r\n        returns (AssetEdited[] memory)\r\n    {\r\n        uint256 cont = assetsFromOrgDeleted[orgId].length;\r\n        AssetEdited[] memory listAssetsDeleted = new AssetEdited[](cont);\r\n        for (uint256 i = 0; i < cont; i++) {\r\n            uint256 id = assetsFromOrgDeleted[orgId][i];\r\n            listAssetsDeleted[i] = assetsEditedList[id];\r\n        }\r\n        return listAssetsDeleted;\r\n    }\r\n\r\n    function getIsAssetEdited(uint256 idAsset)\r\n        public\r\n        view\r\n        returns (bool result)\r\n    {\r\n        return assetBoolEditedAndDeleted[idAsset][0];\r\n    }\r\n\r\n    function getIsAssetDeleted(uint256 idAsset)\r\n        public\r\n        view\r\n        returns (bool result)\r\n    {\r\n        return assetBoolEditedAndDeleted[idAsset][1];\r\n    }\r\n\r\n    function getOrgNumEdited(uint orgId) public view returns (uint numEdited) {\r\n        return organizationNumberOfAssetsED[orgId][0];\r\n    }\r\n\r\n    function getOrgNumDeleted(uint orgId) public view returns (uint numDeleted) {\r\n        return organizationNumberOfAssetsED[orgId][1];\r\n    }\r\n\r\n    function getEdDeList(uint assetId) public view returns (uint[] memory listEdited) {\r\n        return originalAssetsToEditedList[assetId];\r\n    }\r\n\r\n    /* \r\n    //asset\r\n    [1,2,3]\r\n    //editados\r\n    [1,2]\r\n\r\n    //lista de assets eliminados []\r\n    //\r\n\r\n    /* /editado {\r\nnombre, tipo, skjdalksjd, booldeleted\r\n    listaborrados.push() cuando se elimine\r\n    } */\r\n\r\n    //mapping(editado=>asset)\r\n    //mapping(asset=> []editado) para sacar el ultimo que se ha editado\r\n\r\n    //assets editados (asset 1)\r\n    //[]\r\n\r\n    //boolean editar\r\n    //marca eliminar\r\n}\r\n",
  "sourcePath": "D:\\GIT\\inventory-blockchain\\blockchain\\contracts\\Main.sol",
  "compiler": {
    "name": "solc",
    "version": "0.8.12+commit.f00d7308.Emscripten.clang"
  },
  "schemaVersion": "3.4.6",
  "updatedAt": "2022-04-24T00:26:45.459Z",
  "networkType": "ethereum",
  "devdoc": {
    "kind": "dev",
    "methods": {},
    "version": 1
  },
  "userdoc": {
    "kind": "user",
    "methods": {},
    "version": 1
  }
}