{
  "contractName": "Main",
  "abi": [
    {
      "anonymous": false,
      "inputs": [
        {
          "indexed": true,
          "internalType": "address",
          "name": "userAddress",
          "type": "address"
        },
        {
          "indexed": false,
          "internalType": "uint256",
          "name": "index",
          "type": "uint256"
        },
        {
          "indexed": false,
          "internalType": "bytes32",
          "name": "userEmail",
          "type": "bytes32"
        },
        {
          "indexed": false,
          "internalType": "uint256",
          "name": "userAge",
          "type": "uint256"
        }
      ],
      "name": "LogNewUser",
      "type": "event"
    },
    {
      "anonymous": false,
      "inputs": [
        {
          "indexed": false,
          "internalType": "address",
          "name": "user",
          "type": "address"
        },
        {
          "indexed": false,
          "internalType": "string",
          "name": "name",
          "type": "string"
        }
      ],
      "name": "NewOrganization",
      "type": "event"
    },
    {
      "inputs": [
        {
          "internalType": "address",
          "name": "",
          "type": "address"
        }
      ],
      "name": "addressToOrganizationIndex",
      "outputs": [
        {
          "internalType": "uint256",
          "name": "",
          "type": "uint256"
        }
      ],
      "stateMutability": "view",
      "type": "function",
      "constant": true
    },
    {
      "inputs": [
        {
          "internalType": "address",
          "name": "admin",
          "type": "address"
        },
        {
          "internalType": "string",
          "name": "name",
          "type": "string"
        },
        {
          "internalType": "string",
          "name": "lastname",
          "type": "string"
        },
        {
          "internalType": "string",
          "name": "email",
          "type": "string"
        },
        {
          "internalType": "uint32",
          "name": "adTelephone",
          "type": "uint32"
        },
        {
          "internalType": "string",
          "name": "orgName",
          "type": "string"
        },
        {
          "internalType": "string",
          "name": "orgAddress",
          "type": "string"
        },
        {
          "internalType": "uint32",
          "name": "orgTelephone",
          "type": "uint32"
        }
      ],
      "name": "insertOrgAndAdmin",
      "outputs": [],
      "stateMutability": "nonpayable",
      "type": "function"
    },
    {
      "inputs": [
        {
          "internalType": "address",
          "name": "userAddress",
          "type": "address"
        }
      ],
      "name": "isAdministrator",
      "outputs": [
        {
          "internalType": "bool",
          "name": "isIndeed",
          "type": "bool"
        }
      ],
      "stateMutability": "view",
      "type": "function",
      "constant": true
    },
    {
      "inputs": [
        {
          "internalType": "uint256",
          "name": "_orgId",
          "type": "uint256"
        }
      ],
      "name": "getOrg",
      "outputs": [
        {
          "components": [
            {
              "internalType": "address",
              "name": "admin",
              "type": "address"
            },
            {
              "internalType": "string",
              "name": "name",
              "type": "string"
            },
            {
              "internalType": "string",
              "name": "addressO",
              "type": "string"
            },
            {
              "internalType": "uint32",
              "name": "telephone",
              "type": "uint32"
            },
            {
              "internalType": "uint256",
              "name": "index",
              "type": "uint256"
            }
          ],
          "internalType": "struct Main.Organization",
          "name": "",
          "type": "tuple"
        }
      ],
      "stateMutability": "view",
      "type": "function",
      "constant": true
    },
    {
      "inputs": [
        {
          "internalType": "address",
          "name": "userAddress",
          "type": "address"
        }
      ],
      "name": "getAdminToOrg",
      "outputs": [
        {
          "internalType": "uint256",
          "name": "userid",
          "type": "uint256"
        }
      ],
      "stateMutability": "view",
      "type": "function",
      "constant": true
    },
    {
      "inputs": [
        {
          "internalType": "address",
          "name": "userAddress",
          "type": "address"
        }
      ],
      "name": "getOrgFromAddress",
      "outputs": [
        {
          "components": [
            {
              "internalType": "address",
              "name": "admin",
              "type": "address"
            },
            {
              "internalType": "string",
              "name": "name",
              "type": "string"
            },
            {
              "internalType": "string",
              "name": "addressO",
              "type": "string"
            },
            {
              "internalType": "uint32",
              "name": "telephone",
              "type": "uint32"
            },
            {
              "internalType": "uint256",
              "name": "index",
              "type": "uint256"
            }
          ],
          "internalType": "struct Main.Organization",
          "name": "org",
          "type": "tuple"
        }
      ],
      "stateMutability": "view",
      "type": "function",
      "constant": true
    }
  ],
  "bytecode": "0x608060405234801561001057600080fd5b5061103b806100206000396000f3fe608060405234801561001057600080fd5b50600436106100625760003560e01c80630a2eb301146100675780632360c27f146100975780633fc07290146100c7578063415de94c146100f75780634e4369c4146101275780638ab95a3314610157575b600080fd5b610081600480360381019061007c91906109c1565b610173565b60405161008e9190610a09565b60405180910390f35b6100b160048036038101906100ac9190610a5a565b61023f565b6040516100be9190610bda565b60405180910390f35b6100e160048036038101906100dc91906109c1565b610425565b6040516100ee9190610bda565b60405180910390f35b610111600480360381019061010c91906109c1565b610464565b60405161011e9190610c0b565b60405180910390f35b610141600480360381019061013c91906109c1565b61047c565b60405161014e9190610c0b565b60405180910390f35b610171600480360381019061016c9190610d87565b6104c5565b005b600080600480549050141561018b576000905061023a565b8173ffffffffffffffffffffffffffffffffffffffff166004600560008573ffffffffffffffffffffffffffffffffffffffff1673ffffffffffffffffffffffffffffffffffffffff16815260200190815260200160002054815481106101f5576101f4610ec9565b5b9060005260206000200160009054906101000a900473ffffffffffffffffffffffffffffffffffffffff1673ffffffffffffffffffffffffffffffffffffffff161490505b919050565b610247610861565b6000828154811061025b5761025a610ec9565b5b90600052602060002090600502016040518060a00160405290816000820160009054906101000a900473ffffffffffffffffffffffffffffffffffffffff1673ffffffffffffffffffffffffffffffffffffffff1673ffffffffffffffffffffffffffffffffffffffff1681526020016001820180546102da90610f27565b80601f016020809104026020016040519081016040528092919081815260200182805461030690610f27565b80156103535780601f1061032857610100808354040283529160200191610353565b820191906000526020600020905b81548152906001019060200180831161033657829003601f168201915b5050505050815260200160028201805461036c90610f27565b80601f016020809104026020016040519081016040528092919081815260200182805461039890610f27565b80156103e55780601f106103ba576101008083540402835291602001916103e5565b820191906000526020600020905b8154815290600101906020018083116103c857829003601f168201915b505050505081526020016003820160009054906101000a900463ffffffff1663ffffffff1663ffffffff1681526020016004820154815250509050919050565b61042d610861565b61043682610173565b1561044057600080fd5b600061044b8361047c565b905060006104588261023f565b90508092505050919050565b60056020528060005260406000206000915090505481565b6000600560008373ffffffffffffffffffffffffffffffffffffffff1673ffffffffffffffffffffffffffffffffffffffff168152602001908152602001600020549050919050565b6104ce88610173565b156104d857600080fd5b6104e5888888888861055e565b6104f1888484846106c7565b6004889080600181540180825580915050600190039060005260206000200160009091909190916101000a81548173ffffffffffffffffffffffffffffffffffffffff021916908373ffffffffffffffffffffffffffffffffffffffff1602179055505050505050505050565b60026040518060c001604052808773ffffffffffffffffffffffffffffffffffffffff1681526020018681526020018581526020018481526020018363ffffffff168152602001600280549050815250908060018154018082558091505060019003906000526020600020906006020160009091909190915060008201518160000160006101000a81548173ffffffffffffffffffffffffffffffffffffffff021916908373ffffffffffffffffffffffffffffffffffffffff160217905550602082015181600101908051906020019061063a9291906108ac565b5060408201518160020190805190602001906106579291906108ac565b5060608201518160030190805190602001906106749291906108ac565b5060808201518160040160006101000a81548163ffffffff021916908363ffffffff16021790555060a082015181600501555050600360008154809291906106bb90610f88565b91905055505050505050565b60006040518060a001604052808673ffffffffffffffffffffffffffffffffffffffff1681526020018581526020018481526020018363ffffffff168152602001600080549050815250908060018154018082558091505060019003906000526020600020906005020160009091909190915060008201518160000160006101000a81548173ffffffffffffffffffffffffffffffffffffffff021916908373ffffffffffffffffffffffffffffffffffffffff160217905550602082015181600101908051906020019061079d9291906108ac565b5060408201518160020190805190602001906107ba9291906108ac565b5060608201518160030160006101000a81548163ffffffff021916908363ffffffff1602179055506080820151816004015550506001600081548092919061080190610f88565b919050555060016000805490506108189190610fd1565b600560008673ffffffffffffffffffffffffffffffffffffffff1673ffffffffffffffffffffffffffffffffffffffff1681526020019081526020016000208190555050505050565b6040518060a00160405280600073ffffffffffffffffffffffffffffffffffffffff1681526020016060815260200160608152602001600063ffffffff168152602001600081525090565b8280546108b890610f27565b90600052602060002090601f0160209004810192826108da5760008555610921565b82601f106108f357805160ff1916838001178555610921565b82800160010185558215610921579182015b82811115610920578251825591602001919060010190610905565b5b50905061092e9190610932565b5090565b5b8082111561094b576000816000905550600101610933565b5090565b6000604051905090565b600080fd5b600080fd5b600073ffffffffffffffffffffffffffffffffffffffff82169050919050565b600061098e82610963565b9050919050565b61099e81610983565b81146109a957600080fd5b50565b6000813590506109bb81610995565b92915050565b6000602082840312156109d7576109d6610959565b5b60006109e5848285016109ac565b91505092915050565b60008115159050919050565b610a03816109ee565b82525050565b6000602082019050610a1e60008301846109fa565b92915050565b6000819050919050565b610a3781610a24565b8114610a4257600080fd5b50565b600081359050610a5481610a2e565b92915050565b600060208284031215610a7057610a6f610959565b5b6000610a7e84828501610a45565b91505092915050565b610a9081610983565b82525050565b600081519050919050565b600082825260208201905092915050565b60005b83811015610ad0578082015181840152602081019050610ab5565b83811115610adf576000848401525b50505050565b6000601f19601f8301169050919050565b6000610b0182610a96565b610b0b8185610aa1565b9350610b1b818560208601610ab2565b610b2481610ae5565b840191505092915050565b600063ffffffff82169050919050565b610b4881610b2f565b82525050565b610b5781610a24565b82525050565b600060a083016000830151610b756000860182610a87565b5060208301518482036020860152610b8d8282610af6565b91505060408301518482036040860152610ba78282610af6565b9150506060830151610bbc6060860182610b3f565b506080830151610bcf6080860182610b4e565b508091505092915050565b60006020820190508181036000830152610bf48184610b5d565b905092915050565b610c0581610a24565b82525050565b6000602082019050610c206000830184610bfc565b92915050565b600080fd5b600080fd5b7f4e487b7100000000000000000000000000000000000000000000000000000000600052604160045260246000fd5b610c6882610ae5565b810181811067ffffffffffffffff82111715610c8757610c86610c30565b5b80604052505050565b6000610c9a61094f565b9050610ca68282610c5f565b919050565b600067ffffffffffffffff821115610cc657610cc5610c30565b5b610ccf82610ae5565b9050602081019050919050565b82818337600083830152505050565b6000610cfe610cf984610cab565b610c90565b905082815260208101848484011115610d1a57610d19610c2b565b5b610d25848285610cdc565b509392505050565b600082601f830112610d4257610d41610c26565b5b8135610d52848260208601610ceb565b91505092915050565b610d6481610b2f565b8114610d6f57600080fd5b50565b600081359050610d8181610d5b565b92915050565b600080600080600080600080610100898b031215610da857610da7610959565b5b6000610db68b828c016109ac565b985050602089013567ffffffffffffffff811115610dd757610dd661095e565b5b610de38b828c01610d2d565b975050604089013567ffffffffffffffff811115610e0457610e0361095e565b5b610e108b828c01610d2d565b965050606089013567ffffffffffffffff811115610e3157610e3061095e565b5b610e3d8b828c01610d2d565b9550506080610e4e8b828c01610d72565b94505060a089013567ffffffffffffffff811115610e6f57610e6e61095e565b5b610e7b8b828c01610d2d565b93505060c089013567ffffffffffffffff811115610e9c57610e9b61095e565b5b610ea88b828c01610d2d565b92505060e0610eb98b828c01610d72565b9150509295985092959890939650565b7f4e487b7100000000000000000000000000000000000000000000000000000000600052603260045260246000fd5b7f4e487b7100000000000000000000000000000000000000000000000000000000600052602260045260246000fd5b60006002820490506001821680610f3f57607f821691505b60208210811415610f5357610f52610ef8565b5b50919050565b7f4e487b7100000000000000000000000000000000000000000000000000000000600052601160045260246000fd5b6000610f9382610a24565b91507fffffffffffffffffffffffffffffffffffffffffffffffffffffffffffffffff821415610fc657610fc5610f59565b5b600182019050919050565b6000610fdc82610a24565b9150610fe783610a24565b925082821015610ffa57610ff9610f59565b5b82820390509291505056fea2646970667358221220425a4a2518cb053852f99788a142209f124325776560644d1e568715c6d4409264736f6c634300080c0033",
  "immutableReferences": {},
  "source": "// SPDX-License-Identifier: MIT\r\npragma solidity >=0.7.0 <0.9.10;\r\n\r\ncontract Main {\r\n    //EVENTS\r\n    event NewOrganization(address user, string name);\r\n    event LogNewUser(\r\n        address indexed userAddress,\r\n        uint256 index,\r\n        bytes32 userEmail,\r\n        uint256 userAge\r\n    );\r\n\r\n    //STRUCTS\r\n    struct Organization {\r\n        address admin;\r\n        string name;\r\n        string addressO;\r\n        uint32 telephone;\r\n        uint256 index;\r\n    }\r\n\r\n    struct Admin {\r\n        address admin;\r\n        string name;\r\n        string lastname;\r\n        string email;\r\n        uint32 telephone;\r\n        uint256 index;\r\n    }\r\n\r\n    //DATA\r\n    Organization[] private organizations;\r\n    uint256 orgCount;\r\n\r\n    Admin[] private admins;\r\n    uint256 adminsCount;\r\n\r\n    //List of users with a org created (administrators)\r\n    address[] private administrators;\r\n\r\n    mapping(address => uint) public addressToOrganizationIndex;\r\n\r\n    //FUNCTIONS\r\n\r\n    //data created with organization\r\n    function insertOrgAndAdmin(\r\n        address admin,\r\n        string memory name,\r\n        string memory lastname,\r\n        string memory email,\r\n        uint32 adTelephone,\r\n        string memory orgName,\r\n        string memory orgAddress,\r\n        uint32 orgTelephone\r\n    ) public {\r\n        if (isAdministrator(admin)) revert();\r\n        insertAdmin(admin, name, lastname, email, adTelephone);\r\n        insertOrganization(admin, orgName, orgAddress, orgTelephone);\r\n        administrators.push(admin);\r\n    }\r\n\r\n    function insertAdmin(\r\n        address admin,\r\n        string memory name,\r\n        string memory lastname,\r\n        string memory email,\r\n        uint32 telephone\r\n    ) private {\r\n        admins.push(\r\n            (Admin(admin, name, lastname, email, telephone, admins.length))\r\n        );\r\n        adminsCount++;\r\n    }\r\n\r\n    function insertOrganization(\r\n        address userAddress,\r\n        string memory name,\r\n        string memory addressO,\r\n        uint32 telephone\r\n    ) private {\r\n        organizations.push(\r\n            Organization(\r\n                userAddress,\r\n                name,\r\n                addressO,\r\n                telephone,\r\n                organizations.length\r\n            )\r\n        );\r\n        orgCount++;\r\n        addressToOrganizationIndex[userAddress] = organizations.length -1;\r\n    }\r\n\r\n    // Check if the address has created a org, == is an administrator.\r\n    function isAdministrator(address userAddress) public view returns (bool isIndeed) {\r\n        if (administrators.length == 0) return false;\r\n        return (administrators[addressToOrganizationIndex[userAddress]] ==\r\n            userAddress);\r\n    }\r\n\r\n    function getOrg(uint256 _orgId)\r\n        public\r\n        view\r\n        returns (Organization memory)\r\n    {\r\n        return organizations[_orgId];\r\n    }\r\n\r\n    function getAdminToOrg(address userAddress)\r\n        public\r\n        view\r\n        returns (uint userid)\r\n    {\r\n        return addressToOrganizationIndex[userAddress];\r\n    }\r\n\r\n    //Get the organization if there is an address that created it\r\n    function getOrgFromAddress(address userAddress) public view returns (Organization memory org) {\r\n        if (isAdministrator(userAddress)) revert();\r\n        uint orgId = getAdminToOrg(userAddress);\r\n        Organization memory organ = getOrg(orgId);\r\n        return organ;\r\n    }\r\n\r\n/* \r\n    //asset\r\n    [1,2,3]\r\n    //editados\r\n    [1,2]\r\n\r\n    //lista de assets eliminados []\r\n    //\r\n\r\n    /* /editado {\r\nnombre, tipo, skjdalksjd, booldeleted\r\n    listaborrados.push() cuando se elimine\r\n    } */\r\n\r\n    //mapping(editado=>asset)\r\n    //mapping(asset=> []editado) para sacar el ultimo que se ha editado\r\n\r\n\r\n    //assets editados (asset 1)\r\n    //[]\r\n\r\n    //boolean editar\r\n    //marca eliminar \r\n}\r\n",
  "sourcePath": "D:\\GIT\\inventory-blockchain\\blockchain\\contracts\\Main.sol",
  "compiler": {
    "name": "solc",
    "version": "0.8.12+commit.f00d7308.Emscripten.clang"
  },
  "schemaVersion": "3.4.6",
  "updatedAt": "2022-03-30T23:19:25.159Z",
  "networkType": "ethereum",
  "devdoc": {
    "kind": "dev",
    "methods": {},
    "version": 1
  },
  "userdoc": {
    "kind": "user",
    "methods": {},
    "version": 1
  }
}