{
  "contractName": "Main",
  "abi": [
    {
      "inputs": [
        {
          "internalType": "address",
          "name": "_dataSAdd",
          "type": "address"
        }
      ],
      "stateMutability": "nonpayable",
      "type": "constructor"
    },
    {
      "anonymous": false,
      "inputs": [
        {
          "indexed": false,
          "internalType": "string",
          "name": "name",
          "type": "string"
        },
        {
          "indexed": false,
          "internalType": "uint256",
          "name": "creationDate",
          "type": "uint256"
        }
      ],
      "name": "NewAsset",
      "type": "event"
    },
    {
      "anonymous": false,
      "inputs": [
        {
          "indexed": false,
          "internalType": "string",
          "name": "name",
          "type": "string"
        },
        {
          "indexed": false,
          "internalType": "bool",
          "name": "deleted",
          "type": "bool"
        },
        {
          "indexed": false,
          "internalType": "uint256",
          "name": "creationDate",
          "type": "uint256"
        }
      ],
      "name": "NewEditedAsset",
      "type": "event"
    },
    {
      "anonymous": false,
      "inputs": [
        {
          "indexed": false,
          "internalType": "address",
          "name": "user",
          "type": "address"
        },
        {
          "indexed": false,
          "internalType": "string",
          "name": "orgName",
          "type": "string"
        }
      ],
      "name": "NewOrg",
      "type": "event"
    },
    {
      "inputs": [
        {
          "internalType": "address",
          "name": "",
          "type": "address"
        }
      ],
      "name": "addressToOrganizationIndex",
      "outputs": [
        {
          "internalType": "uint256",
          "name": "",
          "type": "uint256"
        }
      ],
      "stateMutability": "view",
      "type": "function",
      "constant": true
    },
    {
      "inputs": [
        {
          "internalType": "uint256",
          "name": "",
          "type": "uint256"
        }
      ],
      "name": "administrators",
      "outputs": [
        {
          "internalType": "address",
          "name": "",
          "type": "address"
        }
      ],
      "stateMutability": "view",
      "type": "function",
      "constant": true
    },
    {
      "inputs": [
        {
          "internalType": "uint256",
          "name": "",
          "type": "uint256"
        }
      ],
      "name": "assetsList",
      "outputs": [
        {
          "internalType": "string",
          "name": "name",
          "type": "string"
        },
        {
          "internalType": "uint256",
          "name": "organizationId",
          "type": "uint256"
        },
        {
          "internalType": "uint256",
          "name": "adquireDate",
          "type": "uint256"
        },
        {
          "internalType": "uint256",
          "name": "creationDate",
          "type": "uint256"
        },
        {
          "internalType": "uint8",
          "name": "assetType",
          "type": "uint8"
        },
        {
          "internalType": "uint256",
          "name": "assetDepart",
          "type": "uint256"
        },
        {
          "internalType": "uint256",
          "name": "index",
          "type": "uint256"
        }
      ],
      "stateMutability": "view",
      "type": "function",
      "constant": true
    },
    {
      "inputs": [],
      "name": "dataStructsAdd",
      "outputs": [
        {
          "internalType": "address",
          "name": "",
          "type": "address"
        }
      ],
      "stateMutability": "view",
      "type": "function",
      "constant": true
    },
    {
      "inputs": [],
      "name": "orgCount",
      "outputs": [
        {
          "internalType": "uint256",
          "name": "",
          "type": "uint256"
        }
      ],
      "stateMutability": "view",
      "type": "function",
      "constant": true
    },
    {
      "inputs": [
        {
          "internalType": "address",
          "name": "admin",
          "type": "address"
        },
        {
          "internalType": "string",
          "name": "name",
          "type": "string"
        },
        {
          "internalType": "string",
          "name": "lastname",
          "type": "string"
        },
        {
          "internalType": "string",
          "name": "email",
          "type": "string"
        },
        {
          "internalType": "uint32",
          "name": "adTelephone",
          "type": "uint32"
        },
        {
          "internalType": "string",
          "name": "orgName",
          "type": "string"
        },
        {
          "internalType": "string",
          "name": "orgAddress",
          "type": "string"
        },
        {
          "internalType": "uint32",
          "name": "orgTelephone",
          "type": "uint32"
        }
      ],
      "name": "insertOrgAndAdmin",
      "outputs": [],
      "stateMutability": "nonpayable",
      "type": "function"
    },
    {
      "inputs": [
        {
          "internalType": "address",
          "name": "userAddress",
          "type": "address"
        }
      ],
      "name": "isAdministrator",
      "outputs": [
        {
          "internalType": "bool",
          "name": "isIndeed",
          "type": "bool"
        }
      ],
      "stateMutability": "view",
      "type": "function",
      "constant": true
    },
    {
      "inputs": [
        {
          "internalType": "address",
          "name": "addr",
          "type": "address"
        },
        {
          "internalType": "uint256",
          "name": "orgId",
          "type": "uint256"
        }
      ],
      "name": "isAdminFromOrg",
      "outputs": [
        {
          "internalType": "bool",
          "name": "",
          "type": "bool"
        }
      ],
      "stateMutability": "view",
      "type": "function",
      "constant": true
    },
    {
      "inputs": [
        {
          "internalType": "uint256",
          "name": "_orgId",
          "type": "uint256"
        }
      ],
      "name": "getOrg",
      "outputs": [
        {
          "components": [
            {
              "internalType": "address",
              "name": "admin",
              "type": "address"
            },
            {
              "internalType": "string",
              "name": "name",
              "type": "string"
            },
            {
              "internalType": "string",
              "name": "addressO",
              "type": "string"
            },
            {
              "internalType": "uint32",
              "name": "telephone",
              "type": "uint32"
            },
            {
              "internalType": "uint256",
              "name": "index",
              "type": "uint256"
            }
          ],
          "internalType": "struct Main.Organization",
          "name": "",
          "type": "tuple"
        }
      ],
      "stateMutability": "view",
      "type": "function",
      "constant": true
    },
    {
      "inputs": [],
      "name": "getIdAsset",
      "outputs": [
        {
          "internalType": "uint256",
          "name": "id",
          "type": "uint256"
        }
      ],
      "stateMutability": "view",
      "type": "function",
      "constant": true
    },
    {
      "inputs": [
        {
          "internalType": "address",
          "name": "userAddress",
          "type": "address"
        }
      ],
      "name": "getAdminToOrg",
      "outputs": [
        {
          "internalType": "uint256",
          "name": "userid",
          "type": "uint256"
        }
      ],
      "stateMutability": "view",
      "type": "function",
      "constant": true
    },
    {
      "inputs": [
        {
          "internalType": "address",
          "name": "userAddress",
          "type": "address"
        }
      ],
      "name": "getOrgFromAddress",
      "outputs": [
        {
          "components": [
            {
              "internalType": "address",
              "name": "admin",
              "type": "address"
            },
            {
              "internalType": "string",
              "name": "name",
              "type": "string"
            },
            {
              "internalType": "string",
              "name": "addressO",
              "type": "string"
            },
            {
              "internalType": "uint32",
              "name": "telephone",
              "type": "uint32"
            },
            {
              "internalType": "uint256",
              "name": "index",
              "type": "uint256"
            }
          ],
          "internalType": "struct Main.Organization",
          "name": "org",
          "type": "tuple"
        }
      ],
      "stateMutability": "view",
      "type": "function",
      "constant": true
    },
    {
      "inputs": [
        {
          "internalType": "string",
          "name": "name",
          "type": "string"
        },
        {
          "internalType": "uint256",
          "name": "organizationId",
          "type": "uint256"
        },
        {
          "internalType": "uint256",
          "name": "adquireDate",
          "type": "uint256"
        },
        {
          "internalType": "uint256",
          "name": "creationDate",
          "type": "uint256"
        },
        {
          "internalType": "uint8",
          "name": "assetType",
          "type": "uint8"
        },
        {
          "internalType": "uint256",
          "name": "assetDepart",
          "type": "uint256"
        }
      ],
      "name": "insertAsset",
      "outputs": [],
      "stateMutability": "nonpayable",
      "type": "function"
    },
    {
      "inputs": [
        {
          "internalType": "uint256",
          "name": "index",
          "type": "uint256"
        },
        {
          "internalType": "uint256",
          "name": "assetDepartId",
          "type": "uint256"
        }
      ],
      "name": "insertAssetToDepartment",
      "outputs": [],
      "stateMutability": "nonpayable",
      "type": "function"
    },
    {
      "inputs": [
        {
          "internalType": "string",
          "name": "name",
          "type": "string"
        },
        {
          "internalType": "uint256",
          "name": "organizationId",
          "type": "uint256"
        },
        {
          "internalType": "uint256",
          "name": "adquireDate",
          "type": "uint256"
        },
        {
          "internalType": "uint256",
          "name": "creationDate",
          "type": "uint256"
        },
        {
          "internalType": "uint8",
          "name": "assetType",
          "type": "uint8"
        },
        {
          "internalType": "uint256",
          "name": "assetDepart",
          "type": "uint256"
        },
        {
          "internalType": "string",
          "name": "version",
          "type": "string"
        },
        {
          "internalType": "string",
          "name": "provider",
          "type": "string"
        },
        {
          "internalType": "uint8",
          "name": "stype",
          "type": "uint8"
        }
      ],
      "name": "insertNewSoftAsset",
      "outputs": [],
      "stateMutability": "nonpayable",
      "type": "function"
    },
    {
      "inputs": [
        {
          "internalType": "string",
          "name": "name",
          "type": "string"
        },
        {
          "internalType": "uint256",
          "name": "organizationId",
          "type": "uint256"
        },
        {
          "internalType": "uint256",
          "name": "adquireDate",
          "type": "uint256"
        },
        {
          "internalType": "uint256",
          "name": "creationDate",
          "type": "uint256"
        },
        {
          "internalType": "uint8",
          "name": "assetType",
          "type": "uint8"
        },
        {
          "internalType": "uint256",
          "name": "assetDepart",
          "type": "uint256"
        },
        {
          "internalType": "string",
          "name": "model",
          "type": "string"
        },
        {
          "internalType": "string",
          "name": "provider",
          "type": "string"
        },
        {
          "internalType": "string",
          "name": "serialNumber",
          "type": "string"
        },
        {
          "internalType": "uint8",
          "name": "htype",
          "type": "uint8"
        }
      ],
      "name": "insertNewHardAsset",
      "outputs": [],
      "stateMutability": "nonpayable",
      "type": "function"
    },
    {
      "inputs": [
        {
          "internalType": "string",
          "name": "name",
          "type": "string"
        },
        {
          "internalType": "uint256",
          "name": "organizationId",
          "type": "uint256"
        },
        {
          "internalType": "uint256",
          "name": "adquireDate",
          "type": "uint256"
        },
        {
          "internalType": "uint256",
          "name": "creationDate",
          "type": "uint256"
        },
        {
          "internalType": "uint8",
          "name": "assetType",
          "type": "uint8"
        },
        {
          "internalType": "uint256",
          "name": "assetDepart",
          "type": "uint256"
        },
        {
          "internalType": "string",
          "name": "description",
          "type": "string"
        },
        {
          "internalType": "string",
          "name": "location",
          "type": "string"
        },
        {
          "internalType": "uint8",
          "name": "doctype",
          "type": "uint8"
        }
      ],
      "name": "insertNewDocAsset",
      "outputs": [],
      "stateMutability": "nonpayable",
      "type": "function"
    },
    {
      "inputs": [
        {
          "internalType": "string",
          "name": "name",
          "type": "string"
        },
        {
          "internalType": "uint256",
          "name": "organizationId",
          "type": "uint256"
        },
        {
          "internalType": "uint256",
          "name": "adquireDate",
          "type": "uint256"
        },
        {
          "internalType": "uint256",
          "name": "creationDate",
          "type": "uint256"
        },
        {
          "internalType": "uint8",
          "name": "assetType",
          "type": "uint8"
        },
        {
          "internalType": "uint256",
          "name": "assetDepart",
          "type": "uint256"
        },
        {
          "internalType": "string",
          "name": "location",
          "type": "string"
        },
        {
          "internalType": "bool",
          "name": "local",
          "type": "bool"
        }
      ],
      "name": "insertNewDataAsset",
      "outputs": [],
      "stateMutability": "nonpayable",
      "type": "function"
    },
    {
      "inputs": [
        {
          "internalType": "string",
          "name": "name",
          "type": "string"
        },
        {
          "internalType": "uint256",
          "name": "organizationId",
          "type": "uint256"
        },
        {
          "internalType": "uint256",
          "name": "adquireDate",
          "type": "uint256"
        },
        {
          "internalType": "uint256",
          "name": "creationDate",
          "type": "uint256"
        },
        {
          "internalType": "uint8",
          "name": "assetType",
          "type": "uint8"
        },
        {
          "internalType": "uint256",
          "name": "assetDepart",
          "type": "uint256"
        },
        {
          "internalType": "string",
          "name": "cidrblock",
          "type": "string"
        },
        {
          "internalType": "bool",
          "name": "nat",
          "type": "bool"
        }
      ],
      "name": "insertNewNetworkAsset",
      "outputs": [],
      "stateMutability": "nonpayable",
      "type": "function"
    },
    {
      "inputs": [
        {
          "internalType": "string",
          "name": "name",
          "type": "string"
        },
        {
          "internalType": "uint256",
          "name": "organizationId",
          "type": "uint256"
        },
        {
          "internalType": "uint256",
          "name": "adquireDate",
          "type": "uint256"
        },
        {
          "internalType": "uint256",
          "name": "creationDate",
          "type": "uint256"
        },
        {
          "internalType": "uint8",
          "name": "assetType",
          "type": "uint8"
        },
        {
          "internalType": "uint256",
          "name": "assetDepart",
          "type": "uint256"
        },
        {
          "internalType": "string",
          "name": "url",
          "type": "string"
        },
        {
          "internalType": "string",
          "name": "domain",
          "type": "string"
        }
      ],
      "name": "insertNewCloudAsset",
      "outputs": [],
      "stateMutability": "nonpayable",
      "type": "function"
    },
    {
      "inputs": [
        {
          "internalType": "string",
          "name": "name",
          "type": "string"
        },
        {
          "internalType": "uint256",
          "name": "organizationId",
          "type": "uint256"
        },
        {
          "internalType": "uint256",
          "name": "adquireDate",
          "type": "uint256"
        },
        {
          "internalType": "uint256",
          "name": "creationDate",
          "type": "uint256"
        },
        {
          "internalType": "uint8",
          "name": "assetType",
          "type": "uint8"
        },
        {
          "internalType": "uint256",
          "name": "assetDepart",
          "type": "uint256"
        },
        {
          "internalType": "string",
          "name": "description",
          "type": "string"
        }
      ],
      "name": "insertNewOtherAsset",
      "outputs": [],
      "stateMutability": "nonpayable",
      "type": "function"
    },
    {
      "inputs": [
        {
          "internalType": "uint256",
          "name": "id",
          "type": "uint256"
        }
      ],
      "name": "getLastAssetEdited",
      "outputs": [
        {
          "components": [
            {
              "internalType": "uint256",
              "name": "originalAssetId",
              "type": "uint256"
            },
            {
              "internalType": "string",
              "name": "name",
              "type": "string"
            },
            {
              "internalType": "uint256",
              "name": "organizationId",
              "type": "uint256"
            },
            {
              "internalType": "uint256",
              "name": "adquireDate",
              "type": "uint256"
            },
            {
              "internalType": "uint256",
              "name": "creationDate",
              "type": "uint256"
            },
            {
              "internalType": "uint8",
              "name": "assetType",
              "type": "uint8"
            },
            {
              "internalType": "bool",
              "name": "deleted",
              "type": "bool"
            },
            {
              "internalType": "uint256",
              "name": "index",
              "type": "uint256"
            }
          ],
          "internalType": "struct Main.AssetEdited",
          "name": "",
          "type": "tuple"
        }
      ],
      "stateMutability": "view",
      "type": "function",
      "constant": true
    },
    {
      "inputs": [
        {
          "internalType": "uint256",
          "name": "id",
          "type": "uint256"
        }
      ],
      "name": "getAsset",
      "outputs": [
        {
          "components": [
            {
              "internalType": "string",
              "name": "name",
              "type": "string"
            },
            {
              "internalType": "uint256",
              "name": "organizationId",
              "type": "uint256"
            },
            {
              "internalType": "uint256",
              "name": "adquireDate",
              "type": "uint256"
            },
            {
              "internalType": "uint256",
              "name": "creationDate",
              "type": "uint256"
            },
            {
              "internalType": "uint8",
              "name": "assetType",
              "type": "uint8"
            },
            {
              "internalType": "uint256",
              "name": "assetDepart",
              "type": "uint256"
            },
            {
              "internalType": "uint256",
              "name": "index",
              "type": "uint256"
            }
          ],
          "internalType": "struct Main.Asset",
          "name": "",
          "type": "tuple"
        }
      ],
      "stateMutability": "view",
      "type": "function",
      "constant": true
    },
    {
      "inputs": [
        {
          "internalType": "uint256",
          "name": "_adminId",
          "type": "uint256"
        }
      ],
      "name": "getAdmin",
      "outputs": [
        {
          "components": [
            {
              "internalType": "address",
              "name": "admin",
              "type": "address"
            },
            {
              "internalType": "string",
              "name": "name",
              "type": "string"
            },
            {
              "internalType": "string",
              "name": "lastname",
              "type": "string"
            },
            {
              "internalType": "string",
              "name": "email",
              "type": "string"
            },
            {
              "internalType": "uint32",
              "name": "telephone",
              "type": "uint32"
            },
            {
              "internalType": "uint256",
              "name": "index",
              "type": "uint256"
            }
          ],
          "internalType": "struct Main.Admin",
          "name": "",
          "type": "tuple"
        }
      ],
      "stateMutability": "view",
      "type": "function",
      "constant": true
    },
    {
      "inputs": [
        {
          "internalType": "uint256",
          "name": "_orgId",
          "type": "uint256"
        }
      ],
      "name": "getAllAssetsFromOrg",
      "outputs": [
        {
          "components": [
            {
              "internalType": "string",
              "name": "name",
              "type": "string"
            },
            {
              "internalType": "uint256",
              "name": "organizationId",
              "type": "uint256"
            },
            {
              "internalType": "uint256",
              "name": "adquireDate",
              "type": "uint256"
            },
            {
              "internalType": "uint256",
              "name": "creationDate",
              "type": "uint256"
            },
            {
              "internalType": "uint8",
              "name": "assetType",
              "type": "uint8"
            },
            {
              "internalType": "uint256",
              "name": "assetDepart",
              "type": "uint256"
            },
            {
              "internalType": "uint256",
              "name": "index",
              "type": "uint256"
            }
          ],
          "internalType": "struct Main.Asset[]",
          "name": "",
          "type": "tuple[]"
        },
        {
          "components": [
            {
              "internalType": "uint256",
              "name": "originalAssetId",
              "type": "uint256"
            },
            {
              "internalType": "string",
              "name": "name",
              "type": "string"
            },
            {
              "internalType": "uint256",
              "name": "organizationId",
              "type": "uint256"
            },
            {
              "internalType": "uint256",
              "name": "adquireDate",
              "type": "uint256"
            },
            {
              "internalType": "uint256",
              "name": "creationDate",
              "type": "uint256"
            },
            {
              "internalType": "uint8",
              "name": "assetType",
              "type": "uint8"
            },
            {
              "internalType": "bool",
              "name": "deleted",
              "type": "bool"
            },
            {
              "internalType": "uint256",
              "name": "index",
              "type": "uint256"
            }
          ],
          "internalType": "struct Main.AssetEdited[]",
          "name": "",
          "type": "tuple[]"
        }
      ],
      "stateMutability": "view",
      "type": "function",
      "constant": true
    },
    {
      "inputs": [
        {
          "internalType": "uint256",
          "name": "originalAssetId",
          "type": "uint256"
        },
        {
          "internalType": "string",
          "name": "name",
          "type": "string"
        },
        {
          "internalType": "uint256",
          "name": "organizationId",
          "type": "uint256"
        },
        {
          "internalType": "uint256",
          "name": "adquireDate",
          "type": "uint256"
        },
        {
          "internalType": "uint256",
          "name": "creationDate",
          "type": "uint256"
        },
        {
          "internalType": "bool",
          "name": "deleted",
          "type": "bool"
        },
        {
          "internalType": "uint8",
          "name": "assetType",
          "type": "uint8"
        }
      ],
      "name": "insertEditedAsset",
      "outputs": [],
      "stateMutability": "nonpayable",
      "type": "function"
    },
    {
      "inputs": [
        {
          "internalType": "uint256",
          "name": "assetId",
          "type": "uint256"
        }
      ],
      "name": "getRecordList",
      "outputs": [
        {
          "components": [
            {
              "internalType": "string",
              "name": "name",
              "type": "string"
            },
            {
              "internalType": "uint256",
              "name": "organizationId",
              "type": "uint256"
            },
            {
              "internalType": "uint256",
              "name": "adquireDate",
              "type": "uint256"
            },
            {
              "internalType": "uint256",
              "name": "creationDate",
              "type": "uint256"
            },
            {
              "internalType": "uint8",
              "name": "assetType",
              "type": "uint8"
            },
            {
              "internalType": "uint256",
              "name": "assetDepart",
              "type": "uint256"
            },
            {
              "internalType": "uint256",
              "name": "index",
              "type": "uint256"
            }
          ],
          "internalType": "struct Main.Asset",
          "name": "",
          "type": "tuple"
        },
        {
          "components": [
            {
              "internalType": "uint256",
              "name": "originalAssetId",
              "type": "uint256"
            },
            {
              "internalType": "string",
              "name": "name",
              "type": "string"
            },
            {
              "internalType": "uint256",
              "name": "organizationId",
              "type": "uint256"
            },
            {
              "internalType": "uint256",
              "name": "adquireDate",
              "type": "uint256"
            },
            {
              "internalType": "uint256",
              "name": "creationDate",
              "type": "uint256"
            },
            {
              "internalType": "uint8",
              "name": "assetType",
              "type": "uint8"
            },
            {
              "internalType": "bool",
              "name": "deleted",
              "type": "bool"
            },
            {
              "internalType": "uint256",
              "name": "index",
              "type": "uint256"
            }
          ],
          "internalType": "struct Main.AssetEdited[]",
          "name": "",
          "type": "tuple[]"
        }
      ],
      "stateMutability": "view",
      "type": "function",
      "constant": true
    },
    {
      "inputs": [
        {
          "internalType": "uint256",
          "name": "id",
          "type": "uint256"
        }
      ],
      "name": "getAssetEdited",
      "outputs": [
        {
          "components": [
            {
              "internalType": "uint256",
              "name": "originalAssetId",
              "type": "uint256"
            },
            {
              "internalType": "string",
              "name": "name",
              "type": "string"
            },
            {
              "internalType": "uint256",
              "name": "organizationId",
              "type": "uint256"
            },
            {
              "internalType": "uint256",
              "name": "adquireDate",
              "type": "uint256"
            },
            {
              "internalType": "uint256",
              "name": "creationDate",
              "type": "uint256"
            },
            {
              "internalType": "uint8",
              "name": "assetType",
              "type": "uint8"
            },
            {
              "internalType": "bool",
              "name": "deleted",
              "type": "bool"
            },
            {
              "internalType": "uint256",
              "name": "index",
              "type": "uint256"
            }
          ],
          "internalType": "struct Main.AssetEdited",
          "name": "",
          "type": "tuple"
        }
      ],
      "stateMutability": "view",
      "type": "function",
      "constant": true
    },
    {
      "inputs": [
        {
          "internalType": "uint256",
          "name": "orgId",
          "type": "uint256"
        }
      ],
      "name": "getAssetsDeleted",
      "outputs": [
        {
          "components": [
            {
              "internalType": "uint256",
              "name": "originalAssetId",
              "type": "uint256"
            },
            {
              "internalType": "string",
              "name": "name",
              "type": "string"
            },
            {
              "internalType": "uint256",
              "name": "organizationId",
              "type": "uint256"
            },
            {
              "internalType": "uint256",
              "name": "adquireDate",
              "type": "uint256"
            },
            {
              "internalType": "uint256",
              "name": "creationDate",
              "type": "uint256"
            },
            {
              "internalType": "uint8",
              "name": "assetType",
              "type": "uint8"
            },
            {
              "internalType": "bool",
              "name": "deleted",
              "type": "bool"
            },
            {
              "internalType": "uint256",
              "name": "index",
              "type": "uint256"
            }
          ],
          "internalType": "struct Main.AssetEdited[]",
          "name": "",
          "type": "tuple[]"
        }
      ],
      "stateMutability": "view",
      "type": "function",
      "constant": true
    },
    {
      "inputs": [
        {
          "internalType": "uint256",
          "name": "idAsset",
          "type": "uint256"
        }
      ],
      "name": "getIsAssetEdited",
      "outputs": [
        {
          "internalType": "bool",
          "name": "result",
          "type": "bool"
        }
      ],
      "stateMutability": "view",
      "type": "function",
      "constant": true
    },
    {
      "inputs": [
        {
          "internalType": "uint256",
          "name": "idAsset",
          "type": "uint256"
        }
      ],
      "name": "getIsAssetDeleted",
      "outputs": [
        {
          "internalType": "bool",
          "name": "result",
          "type": "bool"
        }
      ],
      "stateMutability": "view",
      "type": "function",
      "constant": true
    },
    {
      "inputs": [
        {
          "internalType": "uint256",
          "name": "orgId",
          "type": "uint256"
        }
      ],
      "name": "getOrgNumEdited",
      "outputs": [
        {
          "internalType": "uint256",
          "name": "numEdited",
          "type": "uint256"
        }
      ],
      "stateMutability": "view",
      "type": "function",
      "constant": true
    },
    {
      "inputs": [
        {
          "internalType": "uint256",
          "name": "orgId",
          "type": "uint256"
        }
      ],
      "name": "getOrgNumDeleted",
      "outputs": [
        {
          "internalType": "uint256",
          "name": "numDeleted",
          "type": "uint256"
        }
      ],
      "stateMutability": "view",
      "type": "function",
      "constant": true
    },
    {
      "inputs": [
        {
          "internalType": "uint256",
          "name": "assetId",
          "type": "uint256"
        }
      ],
      "name": "getEdDeList",
      "outputs": [
        {
          "internalType": "uint256[]",
          "name": "listEdited",
          "type": "uint256[]"
        }
      ],
      "stateMutability": "view",
      "type": "function",
      "constant": true
    },
    {
      "inputs": [
        {
          "internalType": "uint256[]",
          "name": "ids",
          "type": "uint256[]"
        }
      ],
      "name": "retrieveListOfAsset",
      "outputs": [
        {
          "components": [
            {
              "internalType": "string",
              "name": "name",
              "type": "string"
            },
            {
              "internalType": "uint256",
              "name": "organizationId",
              "type": "uint256"
            },
            {
              "internalType": "uint256",
              "name": "adquireDate",
              "type": "uint256"
            },
            {
              "internalType": "uint256",
              "name": "creationDate",
              "type": "uint256"
            },
            {
              "internalType": "uint8",
              "name": "assetType",
              "type": "uint8"
            },
            {
              "internalType": "uint256",
              "name": "assetDepart",
              "type": "uint256"
            },
            {
              "internalType": "uint256",
              "name": "index",
              "type": "uint256"
            }
          ],
          "internalType": "struct Main.Asset[]",
          "name": "",
          "type": "tuple[]"
        },
        {
          "components": [
            {
              "internalType": "uint256",
              "name": "originalAssetId",
              "type": "uint256"
            },
            {
              "internalType": "string",
              "name": "name",
              "type": "string"
            },
            {
              "internalType": "uint256",
              "name": "organizationId",
              "type": "uint256"
            },
            {
              "internalType": "uint256",
              "name": "adquireDate",
              "type": "uint256"
            },
            {
              "internalType": "uint256",
              "name": "creationDate",
              "type": "uint256"
            },
            {
              "internalType": "uint8",
              "name": "assetType",
              "type": "uint8"
            },
            {
              "internalType": "bool",
              "name": "deleted",
              "type": "bool"
            },
            {
              "internalType": "uint256",
              "name": "index",
              "type": "uint256"
            }
          ],
          "internalType": "struct Main.AssetEdited[]",
          "name": "",
          "type": "tuple[]"
        }
      ],
      "stateMutability": "view",
      "type": "function",
      "constant": true
    },
    {
      "inputs": [
        {
          "internalType": "uint256",
          "name": "orgId",
          "type": "uint256"
        }
      ],
      "name": "retrieveOrgData",
      "outputs": [
        {
          "internalType": "uint256[]",
          "name": "",
          "type": "uint256[]"
        }
      ],
      "stateMutability": "view",
      "type": "function",
      "constant": true
    }
  ],
  "bytecode": "0x60806040523480156200001157600080fd5b50604051620054ca380380620054ca8339818101604052810190620000379190620000e8565b806000806101000a81548173ffffffffffffffffffffffffffffffffffffffff021916908373ffffffffffffffffffffffffffffffffffffffff160217905550506200011a565b600080fd5b600073ffffffffffffffffffffffffffffffffffffffff82169050919050565b6000620000b08262000083565b9050919050565b620000c281620000a3565b8114620000ce57600080fd5b50565b600081519050620000e281620000b7565b92915050565b6000602082840312156200010157620001006200007e565b5b60006200011184828501620000d1565b91505092915050565b6153a0806200012a6000396000f3fe608060405234801561001057600080fd5b506004361061021c5760003560e01c80638558b84411610125578063d05a8870116100ad578063de93f5391161007c578063de93f539146106fb578063e81ef3191461072b578063eac8f5b81461075b578063ece901331461078b578063ef193b22146107a75761021c565b8063d05a88701461064c578063d81066901461067c578063d89d15101461069a578063de7946fc146106ca5761021c565b8063a1c6d0d0116100f4578063a1c6d0d014610584578063a1cc9c26146105a0578063b5e80972146105bc578063c70abaf4146105ec578063c92bc12d1461061c5761021c565b80638558b844146104fd5780638ab95a33146105195780639a06ff7f146105355780639c40fd35146105665761021c565b80633dd03539116101a85780634e4369c4116101775780634e4369c41461042f5780635583071b1461045f5780636139e9f41461047b578063653e69ff1461049757806371e85c41146104c75761021c565b80633dd03539146103815780633e4e3b55146103b15780633fc07290146103cf578063415de94c146103ff5761021c565b80632124b4fe116101ef5780632124b4fe146102cd5780632360c27f146102e95780632c98cfa81461031957806331fe8bcd14610335578063329cf967146103655761021c565b80630a2eb301146102215780630b7338a114610251578063111fd88b1461026d578063151c3f441461029d575b600080fd5b61023b60048036038101906102369190613a6a565b6107d8565b6040516102489190613ab2565b60405180910390f35b61026b60048036038101906102669190613c82565b6108a4565b005b61028760048036038101906102829190613da0565b610960565b6040516102949190613f29565b60405180910390f35b6102b760048036038101906102b29190613da0565b610bd8565b6040516102c49190613ab2565b60405180910390f35b6102e760048036038101906102e29190613c82565b610c27565b005b61030360048036038101906102fe9190613da0565b610cef565b6040516103109190613fc8565b60405180910390f35b610333600480360381019061032e9190613fea565b610ed5565b005b61034f600480360381019061034a9190613da0565b610f8b565b60405161035c9190614173565b60405180910390f35b61037f600480360381019061037a9190614195565b610ff6565b005b61039b60048036038101906103969190613da0565b61124d565b6040516103a89190614173565b60405180910390f35b6103b96113c1565b6040516103c6919061424d565b60405180910390f35b6103e960048036038101906103e49190613a6a565b6113ce565b6040516103f69190613fc8565b60405180910390f35b61041960048036038101906104149190613a6a565b61140d565b604051610426919061424d565b60405180910390f35b61044960048036038101906104449190613a6a565b611425565b604051610456919061424d565b60405180910390f35b61047960048036038101906104749190614268565b61146e565b005b610495600480360381019061049091906142a8565b61149c565b005b6104b160048036038101906104ac9190613da0565b611555565b6040516104be919061424d565b60405180910390f35b6104e160048036038101906104dc9190613da0565b6115b0565b6040516104f4979695949392919061440b565b60405180910390f35b610517600480360381019061051291906144ad565b611697565b005b610533600480360381019061052e91906145c7565b611750565b005b61054f600480360381019061054a91906147d1565b6117e9565b60405161055d929190614b08565b60405180910390f35b61056e611e04565b60405161057b9190614b4e565b60405180910390f35b61059e600480360381019061059991906144ad565b611e28565b005b6105ba60048036038101906105b59190614b69565b611ee1565b005b6105d660048036038101906105d19190613da0565b61232b565b6040516105e39190614cd7565b60405180910390f35b61060660048036038101906106019190613da0565b6124c1565b6040516106139190614cd7565b60405180910390f35b61063660048036038101906106319190613da0565b6125fa565b604051610643919061424d565b60405180910390f35b61066660048036038101906106619190614cf9565b612655565b6040516106739190613ab2565b60405180910390f35b6106846126ce565b604051610691919061424d565b60405180910390f35b6106b460048036038101906106af9190613da0565b6126d4565b6040516106c19190614b4e565b60405180910390f35b6106e460048036038101906106df9190613da0565b612713565b6040516106f2929190614b08565b60405180910390f35b61071560048036038101906107109190613da0565b612cae565b6040516107229190614d39565b60405180910390f35b61074560048036038101906107409190613da0565b612ec9565b6040516107529190613ab2565b60405180910390f35b61077560048036038101906107709190613da0565b612f18565b6040516107829190614df7565b60405180910390f35b6107a560048036038101906107a09190614e19565b613035565b005b6107c160048036038101906107bc9190613da0565b6130f4565b6040516107cf929190614f68565b60405180910390f35b60008060058054905014156107f0576000905061089f565b8173ffffffffffffffffffffffffffffffffffffffff166005600660008573ffffffffffffffffffffffffffffffffffffffff1673ffffffffffffffffffffffffffffffffffffffff168152602001908152602001600020548154811061085a57610859614f9f565b5b9060005260206000200160009054906101000a900473ffffffffffffffffffffffffffffffffffffffff1673ffffffffffffffffffffffffffffffffffffffff161490505b919050565b600060078054905090506108bc8a8a8a8a8a8a610ff6565b60008060009054906101000a900473ffffffffffffffffffffffffffffffffffffffff1690508073ffffffffffffffffffffffffffffffffffffffff166382f2e641868686866040518563ffffffff1660e01b81526004016109219493929190614fce565b600060405180830381600087803b15801561093b57600080fd5b505af115801561094f573d6000803e3d6000fd5b505050505050505050505050505050565b61096861382e565b6003828154811061097c5761097b614f9f565b5b90600052602060002090600602016040518060c00160405290816000820160009054906101000a900473ffffffffffffffffffffffffffffffffffffffff1673ffffffffffffffffffffffffffffffffffffffff1673ffffffffffffffffffffffffffffffffffffffff1681526020016001820180546109fb90615050565b80601f0160208091040260200160405190810160405280929190818152602001828054610a2790615050565b8015610a745780601f10610a4957610100808354040283529160200191610a74565b820191906000526020600020905b815481529060010190602001808311610a5757829003601f168201915b50505050508152602001600282018054610a8d90615050565b80601f0160208091040260200160405190810160405280929190818152602001828054610ab990615050565b8015610b065780601f10610adb57610100808354040283529160200191610b06565b820191906000526020600020905b815481529060010190602001808311610ae957829003601f168201915b50505050508152602001600382018054610b1f90615050565b80601f0160208091040260200160405190810160405280929190818152602001828054610b4b90615050565b8015610b985780601f10610b6d57610100808354040283529160200191610b98565b820191906000526020600020905b815481529060010190602001808311610b7b57829003601f168201915b505050505081526020016004820160009054906101000a900463ffffffff1663ffffffff1663ffffffff1681526020016005820154815250509050919050565b6000600c6000838152602001908152602001600020600081548110610c0057610bff614f9f565b5b90600052602060002090602091828204019190069054906101000a900460ff169050919050565b610c35898989898989610ff6565b60006001600780549050610c4991906150b1565b905060008060009054906101000a900473ffffffffffffffffffffffffffffffffffffffff1690508073ffffffffffffffffffffffffffffffffffffffff1663869c2081868686866040518563ffffffff1660e01b8152600401610cb09493929190614fce565b600060405180830381600087803b158015610cca57600080fd5b505af1158015610cde573d6000803e3d6000fd5b505050505050505050505050505050565b610cf7613880565b60018281548110610d0b57610d0a614f9f565b5b90600052602060002090600502016040518060a00160405290816000820160009054906101000a900473ffffffffffffffffffffffffffffffffffffffff1673ffffffffffffffffffffffffffffffffffffffff1673ffffffffffffffffffffffffffffffffffffffff168152602001600182018054610d8a90615050565b80601f0160208091040260200160405190810160405280929190818152602001828054610db690615050565b8015610e035780601f10610dd857610100808354040283529160200191610e03565b820191906000526020600020905b815481529060010190602001808311610de657829003601f168201915b50505050508152602001600282018054610e1c90615050565b80601f0160208091040260200160405190810160405280929190818152602001828054610e4890615050565b8015610e955780601f10610e6a57610100808354040283529160200191610e95565b820191906000526020600020905b815481529060010190602001808311610e7857829003601f168201915b505050505081526020016003820160009054906101000a900463ffffffff1663ffffffff1663ffffffff1681526020016004820154815250509050919050565b60006007805490509050610eed888888888888610ff6565b60008060009054906101000a900473ffffffffffffffffffffffffffffffffffffffff1690508073ffffffffffffffffffffffffffffffffffffffff1663d00bab3684846040518363ffffffff1660e01b8152600401610f4e9291906150e5565b600060405180830381600087803b158015610f6857600080fd5b505af1158015610f7c573d6000803e3d6000fd5b50505050505050505050505050565b6060600a6000838152602001908152602001600020805480602002602001604051908101604052809291908181526020018280548015610fea57602002820191906000526020600020905b815481526020019060010190808311610fd6575b50505050509050919050565b60076040518060e001604052808881526020018781526020018681526020018581526020018460ff168152602001838152602001600780549050815250908060018154018082558091505060019003906000526020600020906007020160009091909190915060008201518160000190805190602001906110789291906138cb565b5060208201518160010155604082015181600201556060820151816003015560808201518160040160006101000a81548160ff021916908360ff16021790555060a0820151816005015560c0820151816006015550506008600086815260200190815260200160002060016007805490506110f391906150b1565b9080600181540180825580915050600190039060005260206000200160009091909190915055600c6000600160078054905061112f91906150b1565b8152602001908152602001600020600090806001815401808255809150506001900390600052602060002090602091828204019190069091909190916101000a81548160ff021916908315150217905550600c6000600160078054905061119691906150b1565b8152602001908152602001600020600090806001815401808255809150506001900390600052602060002090602091828204019190069091909190916101000a81548160ff021916908315150217905550600a600060016007805490506111fd91906150b1565b8152602001908152602001600020507f96d1689ec3679f8907b425c19e713e89173d64e0922c266510f96821282caf96868460405161123d9291906150e5565b60405180910390a1505050505050565b60606000600367ffffffffffffffff81111561126c5761126b613ae8565b5b60405190808252806020026020018201604052801561129a5781602001602082028036833780820191505090505b5090506008600084815260200190815260200160002080549050816000815181106112c8576112c7614f9f565b5b602002602001018181525050600b60008481526020019081526020016000206000815481106112fa576112f9614f9f565b5b90600052602060002090600891828204019190066004029054906101000a900463ffffffff1663ffffffff168160018151811061133a57611339614f9f565b5b602002602001018181525050600b600084815260200190815260200160002060018154811061136c5761136b614f9f565b5b90600052602060002090600891828204019190066004029054906101000a900463ffffffff1663ffffffff16816002815181106113ac576113ab614f9f565b5b60200260200101818152505080915050919050565b6000600780549050905090565b6113d6613880565b6113df826107d8565b156113e957600080fd5b60006113f483611425565b9050600061140182610cef565b90508092505050919050565b60066020528060005260406000206000915090505481565b6000600660008373ffffffffffffffffffffffffffffffffffffffff1673ffffffffffffffffffffffffffffffffffffffff168152602001908152602001600020549050919050565b806007838154811061148357611482614f9f565b5b9060005260206000209060070201600501819055505050565b600060078054905090506114b4898989898989610ff6565b60008060009054906101000a900473ffffffffffffffffffffffffffffffffffffffff1690508073ffffffffffffffffffffffffffffffffffffffff1663ae4fd28b8585856040518463ffffffff1660e01b815260040161151793929190615115565b600060405180830381600087803b15801561153157600080fd5b505af1158015611545573d6000803e3d6000fd5b5050505050505050505050505050565b6000600b600083815260200190815260200160002060018154811061157d5761157c614f9f565b5b90600052602060002090600891828204019190066004029054906101000a900463ffffffff1663ffffffff169050919050565b600781815481106115c057600080fd5b90600052602060002090600702016000915090508060000180546115e390615050565b80601f016020809104026020016040519081016040528092919081815260200182805461160f90615050565b801561165c5780601f106116315761010080835404028352916020019161165c565b820191906000526020600020905b81548152906001019060200180831161163f57829003601f168201915b5050505050908060010154908060020154908060030154908060040160009054906101000a900460ff16908060050154908060060154905087565b600060078054905090506116af898989898989610ff6565b60008060009054906101000a900473ffffffffffffffffffffffffffffffffffffffff1690508073ffffffffffffffffffffffffffffffffffffffff1663d84be50a8585856040518463ffffffff1660e01b81526004016117129392919061515a565b600060405180830381600087803b15801561172c57600080fd5b505af1158015611740573d6000803e3d6000fd5b5050505050505050505050505050565b611759886107d8565b1561176357600080fd5b611770888888888861342d565b61177c88848484613596565b6005889080600181540180825580915050600190039060005260206000200160009091909190916101000a81548173ffffffffffffffffffffffffffffffffffffffff021916908373ffffffffffffffffffffffffffffffffffffffff1602179055505050505050505050565b60608060008060005b855181101561190257600c600087838151811061181257611811614f9f565b5b6020026020010151815260200190815260200160002060008154811061183b5761183a614f9f565b5b90600052602060002090602091828204019190069054906101000a900460ff16156118de57600c600087838151811061187757611876614f9f565b5b602002602001015181526020019081526020016000206001815481106118a05761189f614f9f565b5b90600052602060002090602091828204019190069054906101000a900460ff16156118ca576118ef565b6001836118d79190615198565b92506118ee565b6001826118eb9190615198565b91505b5b80806118fa906151ee565b9150506117f2565b5060008167ffffffffffffffff81111561191f5761191e613ae8565b5b60405190808252806020026020018201604052801561195857816020015b611945613951565b81526020019060019003908161193d5790505b50905060008367ffffffffffffffff81111561197757611976613ae8565b5b6040519080825280602002602001820160405280156119b057816020015b61199d613991565b8152602001906001900390816119955790505b50905060008060005b8951811015611df257600c60008b83815181106119d9576119d8614f9f565b5b60200260200101518152602001908152602001600020600181548110611a0257611a01614f9f565b5b90600052602060002090602091828204019190069054906101000a900460ff1615611a2c57611ddf565b600c60008b8381518110611a4357611a42614f9f565b5b60200260200101518152602001908152602001600020600081548110611a6c57611a6b614f9f565b5b90600052602060002090602091828204019190069054906101000a900460ff1615611c835760006001600a60008d8581518110611aac57611aab614f9f565b5b6020026020010151815260200190815260200160002080549050611ad091906150b1565b90506000600a60008d8581518110611aeb57611aea614f9f565b5b602002602001015181526020019081526020016000208281548110611b1357611b12614f9f565b5b9060005260206000200154905060098181548110611b3457611b33614f9f565b5b90600052602060002090600702016040518061010001604052908160008201548152602001600182018054611b6890615050565b80601f0160208091040260200160405190810160405280929190818152602001828054611b9490615050565b8015611be15780601f10611bb657610100808354040283529160200191611be1565b820191906000526020600020905b815481529060010190602001808311611bc457829003601f168201915b505050505081526020016002820154815260200160038201548152602001600482015481526020016005820160009054906101000a900460ff1660ff1660ff1681526020016005820160019054906101000a900460ff16151515158152602001600682015481525050868663ffffffff1681518110611c6357611c62614f9f565b5b60200260200101819052508480611c7990615237565b9550505050611dde565b60008a8281518110611c9857611c97614f9f565b5b6020026020010151905060078181548110611cb657611cb5614f9f565b5b90600052602060002090600702016040518060e0016040529081600082018054611cdf90615050565b80601f0160208091040260200160405190810160405280929190818152602001828054611d0b90615050565b8015611d585780601f10611d2d57610100808354040283529160200191611d58565b820191906000526020600020905b815481529060010190602001808311611d3b57829003601f168201915b505050505081526020016001820154815260200160028201548152602001600382015481526020016004820160009054906101000a900460ff1660ff1660ff16815260200160058201548152602001600682015481525050868481518110611dc357611dc2614f9f565b5b60200260200101819052508280611dd9906151ee565b935050505b5b8080611dea906151ee565b9150506119b9565b50838397509750505050505050915091565b60008054906101000a900473ffffffffffffffffffffffffffffffffffffffff1681565b60006007805490509050611e40898989898989610ff6565b60008060009054906101000a900473ffffffffffffffffffffffffffffffffffffffff1690508073ffffffffffffffffffffffffffffffffffffffff1663e4c17a378585856040518463ffffffff1660e01b8152600401611ea39392919061515a565b600060405180830381600087803b158015611ebd57600080fd5b505af1158015611ed1573d6000803e3d6000fd5b5050505050505050505050505050565b60096040518061010001604052808981526020018881526020018781526020018681526020018581526020018360ff16815260200184151581526020016009805490508152509080600181540180825580915050600190039060005260206000209060070201600090919091909150600082015181600001556020820151816001019080519060200190611f769291906138cb565b5060408201518160020155606082015181600301556080820151816004015560a08201518160050160006101000a81548160ff021916908360ff16021790555060c08201518160050160016101000a81548160ff02191690831515021790555060e08201518160060155505060006001600980549050611ff691906150b1565b9050600c600089815260200190815260200160002060008154811061201e5761201d614f9f565b5b90600052602060002090602091828204019190069054906101000a900460ff1661214b576001600c60008a815260200190815260200160002060008154811061206a57612069614f9f565b5b90600052602060002090602091828204019190066101000a81548160ff02191690831515021790555060006001600b60008981526020019081526020016000206000815481106120bd576120bc614f9f565b5b90600052602060002090600891828204019190066004029054906101000a900463ffffffff166120ed9190615264565b905080600b600089815260200190815260200160002060008154811061211657612115614f9f565b5b90600052602060002090600891828204019190066004026101000a81548163ffffffff021916908363ffffffff160217905550505b600a60008981526020019081526020016000208190806001815401808255809150506001900390600052602060002001600090919091909150556001151583151514156122e657600d600087815260200190815260200160002060016009805490506121b791906150b1565b90806001815401808255809150506001900390600052602060002001600090919091909150556001600c60008a815260200190815260200160002060018154811061220557612204614f9f565b5b90600052602060002090602091828204019190066101000a81548160ff02191690831515021790555060006001600b600089815260200190815260200160002060018154811061225857612257614f9f565b5b90600052602060002090600891828204019190066004029054906101000a900463ffffffff166122889190615264565b905080600b60008981526020019081526020016000206001815481106122b1576122b0614f9f565b5b90600052602060002090600891828204019190066004026101000a81548163ffffffff021916908363ffffffff160217905550505b7fbe3a4f475f73ac94cecad23ac843be14d182d4e4c0eecac12a8526e017d868688784866040516123199392919061515a565b60405180910390a15050505050505050565b612333613991565b60006001600a60008581526020019081526020016000208054905061235891906150b1565b90506000600a6000858152602001908152602001600020828154811061238157612380614f9f565b5b90600052602060002001549050600981815481106123a2576123a1614f9f565b5b906000526020600020906007020160405180610100016040529081600082015481526020016001820180546123d690615050565b80601f016020809104026020016040519081016040528092919081815260200182805461240290615050565b801561244f5780601f106124245761010080835404028352916020019161244f565b820191906000526020600020905b81548152906001019060200180831161243257829003601f168201915b505050505081526020016002820154815260200160038201548152602001600482015481526020016005820160009054906101000a900460ff1660ff1660ff1681526020016005820160019054906101000a900460ff1615151515815260200160068201548152505092505050919050565b6124c9613991565b600982815481106124dd576124dc614f9f565b5b9060005260206000209060070201604051806101000160405290816000820154815260200160018201805461251190615050565b80601f016020809104026020016040519081016040528092919081815260200182805461253d90615050565b801561258a5780601f1061255f5761010080835404028352916020019161258a565b820191906000526020600020905b81548152906001019060200180831161256d57829003601f168201915b505050505081526020016002820154815260200160038201548152602001600482015481526020016005820160009054906101000a900460ff1660ff1660ff1681526020016005820160019054906101000a900460ff161515151581526020016006820154815250509050919050565b6000600b600083815260200190815260200160002060008154811061262257612621614f9f565b5b90600052602060002090600891828204019190066004029054906101000a900463ffffffff1663ffffffff169050919050565b600080600380549050141561266d57600090506126c8565b612676836107d8565b61268357600090506126c8565b81600660008573ffffffffffffffffffffffffffffffffffffffff1673ffffffffffffffffffffffffffffffffffffffff168152602001908152602001600020541490505b92915050565b60025481565b600581815481106126e457600080fd5b906000526020600020016000915054906101000a900473ffffffffffffffffffffffffffffffffffffffff1681565b6060806000600b600085815260200190815260200160002060008154811061273e5761273d614f9f565b5b90600052602060002090600891828204019190066004029054906101000a900463ffffffff1690506000600b600086815260200190815260200160002060018154811061278e5761278d614f9f565b5b90600052602060002090600891828204019190066004029054906101000a900463ffffffff169050600081836127c4919061529e565b905060006008600088815260200190815260200160002080549050905060008463ffffffff16826127f591906150b1565b67ffffffffffffffff81111561280e5761280d613ae8565b5b60405190808252806020026020018201604052801561284757816020015b612834613951565b81526020019060019003908161282c5790505b50905060008363ffffffff1667ffffffffffffffff81111561286c5761286b613ae8565b5b6040519080825280602002602001820160405280156128a557816020015b612892613991565b81526020019060019003908161288a5790505b50905060008060005b85811015612c9a57600c60008281526020019081526020016000206001815481106128dc576128db614f9f565b5b90600052602060002090602091828204019190069054906101000a900460ff161561290657612c87565b60011515600c60008381526020019081526020016000206000815481106129305761292f614f9f565b5b90600052602060002090602091828204019190069054906101000a900460ff1615151415612b165760006001600a60008481526020019081526020016000208054905061297d91906150b1565b90506000600a600084815260200190815260200160002082815481106129a6576129a5614f9f565b5b90600052602060002001549050600981815481106129c7576129c6614f9f565b5b906000526020600020906007020160405180610100016040529081600082015481526020016001820180546129fb90615050565b80601f0160208091040260200160405190810160405280929190818152602001828054612a2790615050565b8015612a745780601f10612a4957610100808354040283529160200191612a74565b820191906000526020600020905b815481529060010190602001808311612a5757829003601f168201915b505050505081526020016002820154815260200160038201548152602001600482015481526020016005820160009054906101000a900460ff1660ff1660ff1681526020016005820160019054906101000a900460ff16151515158152602001600682015481525050868663ffffffff1681518110612af657612af5614f9f565b5b60200260200101819052508480612b0c90615237565b9550505050612c86565b6000600860008e81526020019081526020016000208281548110612b3d57612b3c614f9f565b5b9060005260206000200154905060078181548110612b5e57612b5d614f9f565b5b90600052602060002090600702016040518060e0016040529081600082018054612b8790615050565b80601f0160208091040260200160405190810160405280929190818152602001828054612bb390615050565b8015612c005780601f10612bd557610100808354040283529160200191612c00565b820191906000526020600020905b815481529060010190602001808311612be357829003601f168201915b505050505081526020016001820154815260200160028201548152602001600382015481526020016004820160009054906101000a900460ff1660ff1660ff16815260200160058201548152602001600682015481525050868481518110612c6b57612c6a614f9f565b5b60200260200101819052508280612c81906151ee565b935050505b5b8080612c92906151ee565b9150506128ae565b508383995099505050505050505050915091565b60606000600d600084815260200190815260200160002080549050905060008167ffffffffffffffff811115612ce757612ce6613ae8565b5b604051908082528060200260200182016040528015612d2057816020015b612d0d613991565b815260200190600190039081612d055790505b50905060005b82811015612ebe576000600d60008781526020019081526020016000208281548110612d5557612d54614f9f565b5b9060005260206000200154905060098181548110612d7657612d75614f9f565b5b90600052602060002090600702016040518061010001604052908160008201548152602001600182018054612daa90615050565b80601f0160208091040260200160405190810160405280929190818152602001828054612dd690615050565b8015612e235780601f10612df857610100808354040283529160200191612e23565b820191906000526020600020905b815481529060010190602001808311612e0657829003601f168201915b505050505081526020016002820154815260200160038201548152602001600482015481526020016005820160009054906101000a900460ff1660ff1660ff1681526020016005820160019054906101000a900460ff16151515158152602001600682015481525050838381518110612e9f57612e9e614f9f565b5b6020026020010181905250508080612eb6906151ee565b915050612d26565b508092505050919050565b6000600c6000838152602001908152602001600020600181548110612ef157612ef0614f9f565b5b90600052602060002090602091828204019190069054906101000a900460ff169050919050565b612f20613951565b60078281548110612f3457612f33614f9f565b5b90600052602060002090600702016040518060e0016040529081600082018054612f5d90615050565b80601f0160208091040260200160405190810160405280929190818152602001828054612f8990615050565b8015612fd65780601f10612fab57610100808354040283529160200191612fd6565b820191906000526020600020905b815481529060010190602001808311612fb957829003601f168201915b505050505081526020016001820154815260200160028201548152602001600382015481526020016004820160009054906101000a900460ff1660ff1660ff168152602001600582015481526020016006820154815250509050919050565b6000600780549050905061304d8b8b8b8b8b8b610ff6565b60008060009054906101000a900473ffffffffffffffffffffffffffffffffffffffff1690508073ffffffffffffffffffffffffffffffffffffffff1663b31d2e3b87878787876040518663ffffffff1660e01b81526004016130b49594939291906152d2565b600060405180830381600087803b1580156130ce57600080fd5b505af11580156130e2573d6000803e3d6000fd5b50505050505050505050505050505050565b6130fc613951565b606060006007848154811061311457613113614f9f565b5b90600052602060002090600702016040518060e001604052908160008201805461313d90615050565b80601f016020809104026020016040519081016040528092919081815260200182805461316990615050565b80156131b65780601f1061318b576101008083540402835291602001916131b6565b820191906000526020600020905b81548152906001019060200180831161319957829003601f168201915b505050505081526020016001820154815260200160028201548152602001600382015481526020016004820160009054906101000a900460ff1660ff1660ff1681526020016005820154815260200160068201548152505090506000600a600086815260200190815260200160002080549050905060008167ffffffffffffffff81111561324757613246613ae8565b5b60405190808252806020026020018201604052801561328057816020015b61326d613991565b8152602001906001900390816132655790505b50905060005b8281101561341e576000600a600089815260200190815260200160002082815481106132b5576132b4614f9f565b5b90600052602060002001549050600981815481106132d6576132d5614f9f565b5b9060005260206000209060070201604051806101000160405290816000820154815260200160018201805461330a90615050565b80601f016020809104026020016040519081016040528092919081815260200182805461333690615050565b80156133835780601f1061335857610100808354040283529160200191613383565b820191906000526020600020905b81548152906001019060200180831161336657829003601f168201915b505050505081526020016002820154815260200160038201548152602001600482015481526020016005820160009054906101000a900460ff1660ff1660ff1681526020016005820160019054906101000a900460ff161515151581526020016006820154815250508383815181106133ff576133fe614f9f565b5b6020026020010181905250508080613416906151ee565b915050613286565b50828194509450505050915091565b60036040518060c001604052808773ffffffffffffffffffffffffffffffffffffffff1681526020018681526020018581526020018481526020018363ffffffff168152602001600380549050815250908060018154018082558091505060019003906000526020600020906006020160009091909190915060008201518160000160006101000a81548173ffffffffffffffffffffffffffffffffffffffff021916908373ffffffffffffffffffffffffffffffffffffffff16021790555060208201518160010190805190602001906135099291906138cb565b5060408201518160020190805190602001906135269291906138cb565b5060608201518160030190805190602001906135439291906138cb565b5060808201518160040160006101000a81548163ffffffff021916908363ffffffff16021790555060a0820151816005015550506004600081548092919061358a906151ee565b91905055505050505050565b60016040518060a001604052808673ffffffffffffffffffffffffffffffffffffffff1681526020018581526020018481526020018363ffffffff168152602001600180549050815250908060018154018082558091505060019003906000526020600020906005020160009091909190915060008201518160000160006101000a81548173ffffffffffffffffffffffffffffffffffffffff021916908373ffffffffffffffffffffffffffffffffffffffff160217905550602082015181600101908051906020019061366c9291906138cb565b5060408201518160020190805190602001906136899291906138cb565b5060608201518160030160006101000a81548163ffffffff021916908363ffffffff160217905550608082015181600401555050600260008154809291906136d0906151ee565b91905055506000600180805490506136e891906150b1565b905080600660008773ffffffffffffffffffffffffffffffffffffffff1673ffffffffffffffffffffffffffffffffffffffff16815260200190815260200160002081905550600b6000828152602001908152602001600020600090806001815401808255809150506001900390600052602060002090600891828204019190066004029091909190916101000a81548163ffffffff021916908363ffffffff160217905550600b6000828152602001908152602001600020600090806001815401808255809150506001900390600052602060002090600891828204019190066004029091909190916101000a81548163ffffffff021916908363ffffffff1602179055507fc07c5ff5bb34875e0643d771eedd24fe9f65d5fd7bd7e1414863658facc70452858560405161381f92919061533a565b60405180910390a15050505050565b6040518060c00160405280600073ffffffffffffffffffffffffffffffffffffffff168152602001606081526020016060815260200160608152602001600063ffffffff168152602001600081525090565b6040518060a00160405280600073ffffffffffffffffffffffffffffffffffffffff1681526020016060815260200160608152602001600063ffffffff168152602001600081525090565b8280546138d790615050565b90600052602060002090601f0160209004810192826138f95760008555613940565b82601f1061391257805160ff1916838001178555613940565b82800160010185558215613940579182015b8281111561393f578251825591602001919060010190613924565b5b50905061394d91906139db565b5090565b6040518060e0016040528060608152602001600081526020016000815260200160008152602001600060ff16815260200160008152602001600081525090565b6040518061010001604052806000815260200160608152602001600081526020016000815260200160008152602001600060ff168152602001600015158152602001600081525090565b5b808211156139f45760008160009055506001016139dc565b5090565b6000604051905090565b600080fd5b600080fd5b600073ffffffffffffffffffffffffffffffffffffffff82169050919050565b6000613a3782613a0c565b9050919050565b613a4781613a2c565b8114613a5257600080fd5b50565b600081359050613a6481613a3e565b92915050565b600060208284031215613a8057613a7f613a02565b5b6000613a8e84828501613a55565b91505092915050565b60008115159050919050565b613aac81613a97565b82525050565b6000602082019050613ac76000830184613aa3565b92915050565b600080fd5b600080fd5b6000601f19601f8301169050919050565b7f4e487b7100000000000000000000000000000000000000000000000000000000600052604160045260246000fd5b613b2082613ad7565b810181811067ffffffffffffffff82111715613b3f57613b3e613ae8565b5b80604052505050565b6000613b526139f8565b9050613b5e8282613b17565b919050565b600067ffffffffffffffff821115613b7e57613b7d613ae8565b5b613b8782613ad7565b9050602081019050919050565b82818337600083830152505050565b6000613bb6613bb184613b63565b613b48565b905082815260208101848484011115613bd257613bd1613ad2565b5b613bdd848285613b94565b509392505050565b600082601f830112613bfa57613bf9613acd565b5b8135613c0a848260208601613ba3565b91505092915050565b6000819050919050565b613c2681613c13565b8114613c3157600080fd5b50565b600081359050613c4381613c1d565b92915050565b600060ff82169050919050565b613c5f81613c49565b8114613c6a57600080fd5b50565b600081359050613c7c81613c56565b92915050565b60008060008060008060008060006101208a8c031215613ca557613ca4613a02565b5b60008a013567ffffffffffffffff811115613cc357613cc2613a07565b5b613ccf8c828d01613be5565b9950506020613ce08c828d01613c34565b9850506040613cf18c828d01613c34565b9750506060613d028c828d01613c34565b9650506080613d138c828d01613c6d565b95505060a0613d248c828d01613c34565b94505060c08a013567ffffffffffffffff811115613d4557613d44613a07565b5b613d518c828d01613be5565b93505060e08a013567ffffffffffffffff811115613d7257613d71613a07565b5b613d7e8c828d01613be5565b925050610100613d908c828d01613c6d565b9150509295985092959850929598565b600060208284031215613db657613db5613a02565b5b6000613dc484828501613c34565b91505092915050565b613dd681613a2c565b82525050565b600081519050919050565b600082825260208201905092915050565b60005b83811015613e16578082015181840152602081019050613dfb565b83811115613e25576000848401525b50505050565b6000613e3682613ddc565b613e408185613de7565b9350613e50818560208601613df8565b613e5981613ad7565b840191505092915050565b600063ffffffff82169050919050565b613e7d81613e64565b82525050565b613e8c81613c13565b82525050565b600060c083016000830151613eaa6000860182613dcd565b5060208301518482036020860152613ec28282613e2b565b91505060408301518482036040860152613edc8282613e2b565b91505060608301518482036060860152613ef68282613e2b565b9150506080830151613f0b6080860182613e74565b5060a0830151613f1e60a0860182613e83565b508091505092915050565b60006020820190508181036000830152613f438184613e92565b905092915050565b600060a083016000830151613f636000860182613dcd565b5060208301518482036020860152613f7b8282613e2b565b91505060408301518482036040860152613f958282613e2b565b9150506060830151613faa6060860182613e74565b506080830151613fbd6080860182613e83565b508091505092915050565b60006020820190508181036000830152613fe28184613f4b565b905092915050565b600080600080600080600060e0888a03121561400957614008613a02565b5b600088013567ffffffffffffffff81111561402757614026613a07565b5b6140338a828b01613be5565b97505060206140448a828b01613c34565b96505060406140558a828b01613c34565b95505060606140668a828b01613c34565b94505060806140778a828b01613c6d565b93505060a06140888a828b01613c34565b92505060c088013567ffffffffffffffff8111156140a9576140a8613a07565b5b6140b58a828b01613be5565b91505092959891949750929550565b600081519050919050565b600082825260208201905092915050565b6000819050602082019050919050565b60006140fc8383613e83565b60208301905092915050565b6000602082019050919050565b6000614120826140c4565b61412a81856140cf565b9350614135836140e0565b8060005b8381101561416657815161414d88826140f0565b975061415883614108565b925050600181019050614139565b5085935050505092915050565b6000602082019050818103600083015261418d8184614115565b905092915050565b60008060008060008060c087890312156141b2576141b1613a02565b5b600087013567ffffffffffffffff8111156141d0576141cf613a07565b5b6141dc89828a01613be5565b96505060206141ed89828a01613c34565b95505060406141fe89828a01613c34565b945050606061420f89828a01613c34565b935050608061422089828a01613c6d565b92505060a061423189828a01613c34565b9150509295509295509295565b61424781613c13565b82525050565b6000602082019050614262600083018461423e565b92915050565b6000806040838503121561427f5761427e613a02565b5b600061428d85828601613c34565b925050602061429e85828601613c34565b9150509250929050565b600080600080600080600080610100898b0312156142c9576142c8613a02565b5b600089013567ffffffffffffffff8111156142e7576142e6613a07565b5b6142f38b828c01613be5565b98505060206143048b828c01613c34565b97505060406143158b828c01613c34565b96505060606143268b828c01613c34565b95505060806143378b828c01613c6d565b94505060a06143488b828c01613c34565b93505060c089013567ffffffffffffffff81111561436957614368613a07565b5b6143758b828c01613be5565b92505060e089013567ffffffffffffffff81111561439657614395613a07565b5b6143a28b828c01613be5565b9150509295985092959890939650565b600082825260208201905092915050565b60006143ce82613ddc565b6143d881856143b2565b93506143e8818560208601613df8565b6143f181613ad7565b840191505092915050565b61440581613c49565b82525050565b600060e0820190508181036000830152614425818a6143c3565b9050614434602083018961423e565b614441604083018861423e565b61444e606083018761423e565b61445b60808301866143fc565b61446860a083018561423e565b61447560c083018461423e565b98975050505050505050565b61448a81613a97565b811461449557600080fd5b50565b6000813590506144a781614481565b92915050565b600080600080600080600080610100898b0312156144ce576144cd613a02565b5b600089013567ffffffffffffffff8111156144ec576144eb613a07565b5b6144f88b828c01613be5565b98505060206145098b828c01613c34565b975050604061451a8b828c01613c34565b965050606061452b8b828c01613c34565b955050608061453c8b828c01613c6d565b94505060a061454d8b828c01613c34565b93505060c089013567ffffffffffffffff81111561456e5761456d613a07565b5b61457a8b828c01613be5565b92505060e061458b8b828c01614498565b9150509295985092959890939650565b6145a481613e64565b81146145af57600080fd5b50565b6000813590506145c18161459b565b92915050565b600080600080600080600080610100898b0312156145e8576145e7613a02565b5b60006145f68b828c01613a55565b985050602089013567ffffffffffffffff81111561461757614616613a07565b5b6146238b828c01613be5565b975050604089013567ffffffffffffffff81111561464457614643613a07565b5b6146508b828c01613be5565b965050606089013567ffffffffffffffff81111561467157614670613a07565b5b61467d8b828c01613be5565b955050608061468e8b828c016145b2565b94505060a089013567ffffffffffffffff8111156146af576146ae613a07565b5b6146bb8b828c01613be5565b93505060c089013567ffffffffffffffff8111156146dc576146db613a07565b5b6146e88b828c01613be5565b92505060e06146f98b828c016145b2565b9150509295985092959890939650565b600067ffffffffffffffff82111561472457614723613ae8565b5b602082029050602081019050919050565b600080fd5b600061474d61474884614709565b613b48565b905080838252602082019050602084028301858111156147705761476f614735565b5b835b8181101561479957806147858882613c34565b845260208401935050602081019050614772565b5050509392505050565b600082601f8301126147b8576147b7613acd565b5b81356147c884826020860161473a565b91505092915050565b6000602082840312156147e7576147e6613a02565b5b600082013567ffffffffffffffff81111561480557614804613a07565b5b614811848285016147a3565b91505092915050565b600081519050919050565b600082825260208201905092915050565b6000819050602082019050919050565b61484f81613c49565b82525050565b600060e08301600083015184820360008601526148728282613e2b565b91505060208301516148876020860182613e83565b50604083015161489a6040860182613e83565b5060608301516148ad6060860182613e83565b5060808301516148c06080860182614846565b5060a08301516148d360a0860182613e83565b5060c08301516148e660c0860182613e83565b508091505092915050565b60006148fd8383614855565b905092915050565b6000602082019050919050565b600061491d8261481a565b6149278185614825565b93508360208202850161493985614836565b8060005b85811015614975578484038952815161495685826148f1565b945061496183614905565b925060208a0199505060018101905061493d565b50829750879550505050505092915050565b600081519050919050565b600082825260208201905092915050565b6000819050602082019050919050565b6149bc81613a97565b82525050565b6000610100830160008301516149db6000860182613e83565b50602083015184820360208601526149f38282613e2b565b9150506040830151614a086040860182613e83565b506060830151614a1b6060860182613e83565b506080830151614a2e6080860182613e83565b5060a0830151614a4160a0860182614846565b5060c0830151614a5460c08601826149b3565b5060e0830151614a6760e0860182613e83565b508091505092915050565b6000614a7e83836149c2565b905092915050565b6000602082019050919050565b6000614a9e82614987565b614aa88185614992565b935083602082028501614aba856149a3565b8060005b85811015614af65784840389528151614ad78582614a72565b9450614ae283614a86565b925060208a01995050600181019050614abe565b50829750879550505050505092915050565b60006040820190508181036000830152614b228185614912565b90508181036020830152614b368184614a93565b90509392505050565b614b4881613a2c565b82525050565b6000602082019050614b636000830184614b3f565b92915050565b600080600080600080600060e0888a031215614b8857614b87613a02565b5b6000614b968a828b01613c34565b975050602088013567ffffffffffffffff811115614bb757614bb6613a07565b5b614bc38a828b01613be5565b9650506040614bd48a828b01613c34565b9550506060614be58a828b01613c34565b9450506080614bf68a828b01613c34565b93505060a0614c078a828b01614498565b92505060c0614c188a828b01613c6d565b91505092959891949750929550565b600061010083016000830151614c406000860182613e83565b5060208301518482036020860152614c588282613e2b565b9150506040830151614c6d6040860182613e83565b506060830151614c806060860182613e83565b506080830151614c936080860182613e83565b5060a0830151614ca660a0860182614846565b5060c0830151614cb960c08601826149b3565b5060e0830151614ccc60e0860182613e83565b508091505092915050565b60006020820190508181036000830152614cf18184614c27565b905092915050565b60008060408385031215614d1057614d0f613a02565b5b6000614d1e85828601613a55565b9250506020614d2f85828601613c34565b9150509250929050565b60006020820190508181036000830152614d538184614a93565b905092915050565b600060e0830160008301518482036000860152614d788282613e2b565b9150506020830151614d8d6020860182613e83565b506040830151614da06040860182613e83565b506060830151614db36060860182613e83565b506080830151614dc66080860182614846565b5060a0830151614dd960a0860182613e83565b5060c0830151614dec60c0860182613e83565b508091505092915050565b60006020820190508181036000830152614e118184614d5b565b905092915050565b6000806000806000806000806000806101408b8d031215614e3d57614e3c613a02565b5b60008b013567ffffffffffffffff811115614e5b57614e5a613a07565b5b614e678d828e01613be5565b9a50506020614e788d828e01613c34565b9950506040614e898d828e01613c34565b9850506060614e9a8d828e01613c34565b9750506080614eab8d828e01613c6d565b96505060a0614ebc8d828e01613c34565b95505060c08b013567ffffffffffffffff811115614edd57614edc613a07565b5b614ee98d828e01613be5565b94505060e08b013567ffffffffffffffff811115614f0a57614f09613a07565b5b614f168d828e01613be5565b9350506101008b013567ffffffffffffffff811115614f3857614f37613a07565b5b614f448d828e01613be5565b925050610120614f568d828e01613c6d565b9150509295989b9194979a5092959850565b60006040820190508181036000830152614f828185614d5b565b90508181036020830152614f968184614a93565b90509392505050565b7f4e487b7100000000000000000000000000000000000000000000000000000000600052603260045260246000fd5b60006080820190508181036000830152614fe881876143c3565b90508181036020830152614ffc81866143c3565b905061500b60408301856143fc565b615018606083018461423e565b95945050505050565b7f4e487b7100000000000000000000000000000000000000000000000000000000600052602260045260246000fd5b6000600282049050600182168061506857607f821691505b6020821081141561507c5761507b615021565b5b50919050565b7f4e487b7100000000000000000000000000000000000000000000000000000000600052601160045260246000fd5b60006150bc82613c13565b91506150c783613c13565b9250828210156150da576150d9615082565b5b828203905092915050565b600060408201905081810360008301526150ff81856143c3565b905061510e602083018461423e565b9392505050565b6000606082019050818103600083015261512f81866143c3565b9050818103602083015261514381856143c3565b9050615152604083018461423e565b949350505050565b6000606082019050818103600083015261517481866143c3565b90506151836020830185613aa3565b615190604083018461423e565b949350505050565b60006151a382613c13565b91506151ae83613c13565b9250827fffffffffffffffffffffffffffffffffffffffffffffffffffffffffffffffff038211156151e3576151e2615082565b5b828201905092915050565b60006151f982613c13565b91507fffffffffffffffffffffffffffffffffffffffffffffffffffffffffffffffff82141561522c5761522b615082565b5b600182019050919050565b600061524282613e64565b915063ffffffff82141561525957615258615082565b5b600182019050919050565b600061526f82613e64565b915061527a83613e64565b92508263ffffffff0382111561529357615292615082565b5b828201905092915050565b60006152a982613e64565b91506152b483613e64565b9250828210156152c7576152c6615082565b5b828203905092915050565b600060a08201905081810360008301526152ec81886143c3565b9050818103602083015261530081876143c3565b9050818103604083015261531481866143c3565b905061532360608301856143fc565b615330608083018461423e565b9695505050505050565b600060408201905061534f6000830185614b3f565b818103602083015261536181846143c3565b9050939250505056fea26469706673582212204851878f09823fcc381f8f2b05aaa4b517b552e029578224b04d40ffbdfd606c64736f6c634300080c0033",
  "immutableReferences": {},
  "source": "// SPDX-License-Identifier: MIT\r\npragma solidity >=0.7.0 <0.9.10;\r\nimport \"./DataStruct.sol\";\r\n\r\ncontract Main {\r\n    address public dataStructsAdd;\r\n\r\n    constructor (address _dataSAdd){\r\n        dataStructsAdd = _dataSAdd;\r\n    }\r\n\r\n    //EVENTS\r\n    event NewOrg(address user, string orgName);\r\n\r\n    event NewAsset(\r\n        string name,\r\n        uint256 creationDate\r\n    );\r\n\r\n    event NewEditedAsset(\r\n        string name,\r\n        bool deleted,\r\n        uint256 creationDate\r\n    );\r\n\r\n    //STRUCTS\r\n    struct Organization {\r\n        address admin;\r\n        string name;\r\n        string addressO;\r\n        uint32 telephone;\r\n        uint256 index;\r\n    }\r\n\r\n    struct Admin {\r\n        address admin;\r\n        string name;\r\n        string lastname;\r\n        string email;\r\n        uint32 telephone;\r\n        uint256 index;\r\n    }\r\n\r\n    //DATA\r\n    Organization[] private organizations;\r\n    uint256 public orgCount;\r\n\r\n    Admin[] private admins;\r\n    uint256 adminsCount;\r\n\r\n    //List of users with a org created (administrators)\r\n    address[] public administrators;\r\n\r\n    mapping(address => uint256) public addressToOrganizationIndex;\r\n\r\n    //FUNCTIONS\r\n    //TODO CHECK IS ADMINISTRATOR IF WORKING PROPERLY\r\n    //data created with organization\r\n    function insertOrgAndAdmin(\r\n        address admin,\r\n        string memory name,\r\n        string memory lastname,\r\n        string memory email,\r\n        uint32 adTelephone,\r\n        string memory orgName,\r\n        string memory orgAddress,\r\n        uint32 orgTelephone\r\n    ) public {\r\n        if (isAdministrator(admin)) revert();\r\n        insertAdmin(admin, name, lastname, email, adTelephone);\r\n        insertOrganization(admin, orgName, orgAddress, orgTelephone);\r\n        administrators.push(admin);\r\n    }\r\n\r\n    function insertAdmin(\r\n        address admin,\r\n        string memory name,\r\n        string memory lastname,\r\n        string memory email,\r\n        uint32 telephone\r\n    ) private {\r\n        admins.push(\r\n            (Admin(admin, name, lastname, email, telephone, admins.length))\r\n        );\r\n        adminsCount++;\r\n    }\r\n\r\n    function insertOrganization(\r\n        address userAddress,\r\n        string memory name,\r\n        string memory addressO,\r\n        uint32 telephone\r\n    ) private {\r\n        organizations.push(\r\n            Organization(\r\n                userAddress,\r\n                name,\r\n                addressO,\r\n                telephone,\r\n                organizations.length\r\n            )\r\n        );\r\n        orgCount++;\r\n        uint256 id = organizations.length - 1;\r\n        addressToOrganizationIndex[userAddress] = id;\r\n        //Create the mapping with 0 assets edited and 0 deleted\r\n        organizationNumberOfAssetsED[id].push(0);\r\n        organizationNumberOfAssetsED[id].push(0);\r\n        emit NewOrg(userAddress, name);\r\n    }\r\n\r\n    // Check if the address has created a org, == is an administrator.\r\n    function isAdministrator(address userAddress)\r\n        public\r\n        view\r\n        returns (bool isIndeed)\r\n    {\r\n        if (administrators.length == 0) return false;\r\n        return (administrators[addressToOrganizationIndex[userAddress]] ==\r\n            userAddress);\r\n    }\r\n\r\n    function isAdminFromOrg(address addr, uint orgId) public view returns(bool){\r\n        if (admins.length == 0) return false;\r\n        if (!isAdministrator(addr)) return false;\r\n        return(addressToOrganizationIndex[addr] == orgId);\r\n    }\r\n\r\n    function getOrg(uint256 _orgId) public view returns (Organization memory) {\r\n        return organizations[_orgId];\r\n    }\r\n\r\n    function getIdAsset() public view returns (uint id) {\r\n        return assetsList.length;\r\n    }\r\n\r\n    function getAdminToOrg(address userAddress)\r\n        public\r\n        view\r\n        returns (uint256 userid)\r\n    {\r\n        return addressToOrganizationIndex[userAddress];\r\n    }\r\n\r\n    //Get the organization if there is an address that created it\r\n    function getOrgFromAddress(address userAddress)\r\n        public\r\n        view\r\n        returns (Organization memory org)\r\n    {\r\n        if (isAdministrator(userAddress)) revert();\r\n        uint256 orgId = getAdminToOrg(userAddress);\r\n        Organization memory organ = getOrg(orgId);\r\n        return organ;\r\n    }\r\n\r\n    //ASSETS TYPE AND FUNCTIONS\r\n    struct Asset {\r\n        string name;\r\n        uint256 organizationId;\r\n        uint256 adquireDate;\r\n        uint256 creationDate;\r\n        uint8 assetType;\r\n        uint256 assetDepart;\r\n        uint256 index;\r\n    }\r\n\r\n\r\n    Asset[] public assetsList;\r\n    //uint256 orgCount;\r\n\r\n    //UNNECESARY MAPPING\r\n    //mapping(uint256 => uint256) private assetToOrg;\r\n\r\n    //CREAR UN MAPPING DE ORGANIZACIN (ID) A LISTA DE ASSETS (ID)?\r\n    mapping(uint256 => uint256[]) private assetsFromOrg;\r\n\r\n    \r\n\r\n    //ASSET EDITED INTRODUCES A BOOL DELETED\r\n    struct AssetEdited {\r\n        uint256 originalAssetId;\r\n        string name;\r\n        uint256 organizationId;\r\n        uint256 adquireDate;\r\n        uint256 creationDate;\r\n        uint8 assetType;\r\n        bool deleted;\r\n        uint256 index;\r\n\r\n        //uint fechafin;\r\n\r\n    }\r\n\r\n    AssetEdited[] private assetsEditedList;\r\n    //ASSETS ORIGINAL TO LIST OF ASSETS EDITED\r\n    mapping(uint256 => uint256[]) private originalAssetsToEditedList;\r\n\r\n    function insertAsset(\r\n        string memory name,\r\n        uint256 organizationId,\r\n        uint256 adquireDate,\r\n        uint256 creationDate,\r\n        uint8 assetType,\r\n        uint256 assetDepart\r\n    ) public {\r\n        assetsList.push(\r\n            (\r\n                Asset(\r\n                    name,\r\n                    organizationId,\r\n                    adquireDate,\r\n                    creationDate,\r\n                    assetType,\r\n                    assetDepart,\r\n                    assetsList.length\r\n                )\r\n            )\r\n        );\r\n        assetsFromOrg[organizationId].push(assetsList.length - 1);\r\n        assetBoolEditedAndDeleted[assetsList.length - 1].push(false);\r\n        assetBoolEditedAndDeleted[assetsList.length - 1].push(false);\r\n        originalAssetsToEditedList[assetsList.length - 1];\r\n        emit NewAsset(name, creationDate);\r\n    }\r\n\r\n    function insertAssetToDepartment(uint256 index, uint256 assetDepartId) public {\r\n        assetsList[index].assetDepart = assetDepartId;\r\n    }\r\n\r\n    //CREATE A FUNCTION FOR EACH INSERTED ASSET TYPE\r\n    function insertNewSoftAsset(string memory name,\r\n        uint256 organizationId,\r\n        uint256 adquireDate,\r\n        uint256 creationDate,\r\n        uint8 assetType,\r\n        uint256 assetDepart,\r\n        string memory version, \r\n        string memory provider, \r\n        uint8 stype) public {\r\n            \r\n        insertAsset(name, organizationId, adquireDate, creationDate, assetType, assetDepart);\r\n        uint assetId = assetsList.length - 1; \r\n        DataStructs DS = DataStructs(dataStructsAdd);\r\n        DS.insertSoftware(version, provider, stype, assetId);\r\n    }\r\n\r\n    function insertNewHardAsset(string memory name,\r\n        uint256 organizationId,\r\n        uint256 adquireDate,\r\n        uint256 creationDate,\r\n        uint8 assetType,\r\n        uint256 assetDepart,\r\n        string memory model, \r\n        string memory provider, \r\n        string memory serialNumber, \r\n        uint8 htype) public {\r\n        \r\n        uint assetId = assetsList.length; \r\n        insertAsset(name, organizationId, adquireDate, creationDate, assetType, assetDepart);\r\n        \r\n        DataStructs DS = DataStructs(dataStructsAdd);\r\n        DS.insertHardware(model, provider, serialNumber, htype, assetId);\r\n    }\r\n\r\n    function insertNewDocAsset(string memory name,\r\n        uint256 organizationId,\r\n        uint256 adquireDate,\r\n        uint256 creationDate,\r\n        uint8 assetType,\r\n        uint256 assetDepart,\r\n        string memory description,\r\n        string memory location,\r\n        uint8 doctype) public {\r\n        \r\n        uint assetId = assetsList.length; \r\n        insertAsset(name, organizationId, adquireDate, creationDate, assetType, assetDepart);\r\n        \r\n        DataStructs DS = DataStructs(dataStructsAdd);\r\n        DS.insertDocument(description, location, doctype, assetId);\r\n    }\r\n\r\n    function insertNewDataAsset(string memory name,\r\n        uint256 organizationId,\r\n        uint256 adquireDate,\r\n        uint256 creationDate,\r\n        uint8 assetType,\r\n        uint256 assetDepart,\r\n        string memory location, \r\n        bool local) public {\r\n        \r\n        uint assetId = assetsList.length; \r\n        insertAsset(name, organizationId, adquireDate, creationDate, assetType, assetDepart);\r\n        \r\n        DataStructs DS = DataStructs(dataStructsAdd);\r\n        DS.insertData(location, local, assetId);\r\n    }\r\n\r\n    function insertNewNetworkAsset(string memory name,\r\n        uint256 organizationId,\r\n        uint256 adquireDate,\r\n        uint256 creationDate,\r\n        uint8 assetType,\r\n        uint256 assetDepart,\r\n        string memory cidrblock, \r\n        bool nat) public {\r\n        \r\n        uint assetId = assetsList.length; \r\n        insertAsset(name, organizationId, adquireDate, creationDate, assetType, assetDepart);\r\n        \r\n        DataStructs DS = DataStructs(dataStructsAdd);\r\n        DS.insertNetwork(cidrblock, nat, assetId);\r\n    }\r\n\r\n    function insertNewCloudAsset(string memory name,\r\n        uint256 organizationId,\r\n        uint256 adquireDate,\r\n        uint256 creationDate,\r\n        uint8 assetType,\r\n        uint256 assetDepart,\r\n        string memory url, \r\n        string memory domain) public {\r\n        \r\n        uint assetId = assetsList.length; \r\n        insertAsset(name, organizationId, adquireDate, creationDate, assetType, assetDepart);\r\n        DataStructs DS = DataStructs(dataStructsAdd);\r\n        DS.insertCloud(url, domain, assetId);\r\n    }\r\n\r\n    function insertNewOtherAsset(string memory name,\r\n        uint256 organizationId,\r\n        uint256 adquireDate,\r\n        uint256 creationDate,\r\n        uint8 assetType,\r\n        uint256 assetDepart,\r\n        string memory description) public {\r\n        \r\n        uint assetId = assetsList.length; \r\n        insertAsset(name, organizationId, adquireDate, creationDate, assetType, assetDepart);\r\n        DataStructs DS = DataStructs(dataStructsAdd);\r\n        DS.insertOther(description, assetId);\r\n    }\r\n\r\n    function getLastAssetEdited(uint256 id) public view returns (AssetEdited memory) {\r\n        uint256 lastItem = originalAssetsToEditedList[id].length - 1;\r\n        uint256 assetEditedId = originalAssetsToEditedList[id][lastItem];\r\n        return assetsEditedList[assetEditedId];\r\n    }\r\n\r\n    function getAsset(uint256 id) public view returns (Asset memory) {\r\n        return assetsList[id];\r\n    }\r\n\r\n    function getAdmin(uint256 _adminId) public view returns (Admin memory) {\r\n        return admins[_adminId];\r\n    }\r\n\r\n    function getAllAssetsFromOrg(uint256 _orgId)\r\n        public\r\n        view\r\n        returns (Asset[] memory, AssetEdited[] memory)\r\n    {\r\n        uint32 contEdited = organizationNumberOfAssetsED[_orgId][0];\r\n        uint32 contDeleted = organizationNumberOfAssetsED[_orgId][1];\r\n        uint32 edList = uint32(uint32(contEdited) - uint32(contDeleted));\r\n        uint256 cont = assetsFromOrg[_orgId].length;\r\n        Asset[] memory listOrgAssets = new Asset[](cont-contEdited);\r\n        AssetEdited[] memory listOrgAssetsEdited = new AssetEdited[](edList);\r\n        uint32 bucleEdited = 0;\r\n        uint bucleOriginal = 0;\r\n        for (uint256 i = 0; i < cont; i++) {\r\n            //First check if that asset has been deleted\r\n            //so we don't retrieve it\r\n            if (assetBoolEditedAndDeleted[i][1]) {\r\n                continue;\r\n            }\r\n            //Check if asset has been edited in order\r\n            //to retrieve last edited asset\r\n            if (assetBoolEditedAndDeleted[i][0] == true) {\r\n                uint256 lastItem = originalAssetsToEditedList[i].length - 1;\r\n                uint256 assetEditedId = originalAssetsToEditedList[i][lastItem];\r\n                listOrgAssetsEdited[bucleEdited] = assetsEditedList[assetEditedId];\r\n                bucleEdited++;\r\n                //Last case the asset hasn't been edited\r\n            } else {\r\n                uint256 assetId = assetsFromOrg[_orgId][i];\r\n                listOrgAssets[bucleOriginal] = assetsList[assetId];\r\n                bucleOriginal++;\r\n            }\r\n        }\r\n        return (listOrgAssets, listOrgAssetsEdited);\r\n    }\r\n\r\n\r\n    //MAPPING ID OF WITH THE LIST OF NUMBER OF ASSETS EDITED AND DELETED\r\n    mapping(uint256 => uint32[]) private organizationNumberOfAssetsED;\r\n\r\n\r\n    //CREAR MAPPING DE ID ORIGINAL A LIST OF BOOLEAN\r\n    // QUE INDICA SI EL ID EST EDITADO EN EL PRIMER VALOR\r\n    // EN EL SEGUNDO VALOR INDICA SI EST ELIMINADO\r\n    mapping(uint256 => bool[]) private assetBoolEditedAndDeleted;\r\n    //DE ESTA MANERA PODEMOS VER EN CADA CASO EL ID SI EST EDITADO O ELIMINADO\r\n\r\n    //mapping que relaciona la org con los assets que tiene eliminados\r\n    mapping(uint256 => uint256[]) private assetsFromOrgDeleted;\r\n\r\n    function insertEditedAsset(\r\n        uint256 originalAssetId,\r\n        string memory name,\r\n        uint256 organizationId,\r\n        uint256 adquireDate,\r\n        uint256 creationDate,\r\n        bool deleted,\r\n        uint8 assetType\r\n    ) public {\r\n        //CHECK IF THE ASSET IS ALREADY IN ASSETS EDITED LIST\r\n        \r\n        assetsEditedList.push(\r\n            (\r\n                AssetEdited(\r\n                    originalAssetId,\r\n                    name,\r\n                    organizationId,\r\n                    adquireDate,\r\n                    creationDate,\r\n                    assetType,\r\n                    deleted,\r\n                    assetsEditedList.length\r\n                )\r\n            )\r\n        );\r\n        uint256 id = assetsEditedList.length - 1;\r\n        if (!assetBoolEditedAndDeleted[originalAssetId][0]) {\r\n            assetBoolEditedAndDeleted[originalAssetId][0] = true;\r\n            uint32 ed = organizationNumberOfAssetsED[organizationId][0]+1;\r\n            organizationNumberOfAssetsED[organizationId][0] = ed;\r\n        }\r\n        originalAssetsToEditedList[originalAssetId].push(id);\r\n        \r\n        if (deleted == true) {\r\n            assetsFromOrgDeleted[organizationId].push(\r\n                assetsEditedList.length - 1\r\n            );\r\n            assetBoolEditedAndDeleted[originalAssetId][1] = true;\r\n            uint32 de = organizationNumberOfAssetsED[organizationId][1]+1;\r\n            organizationNumberOfAssetsED[organizationId][1] = de;\r\n        }\r\n        emit NewEditedAsset(name, deleted, creationDate);\r\n    }\r\n\r\n    function getRecordList(uint assetId) public view returns (Asset memory, AssetEdited[] memory) {\r\n        Asset memory original = assetsList[assetId];\r\n        uint len = originalAssetsToEditedList[assetId].length;\r\n        AssetEdited[] memory listEdited = new AssetEdited[](len);\r\n        for (uint256 i = 0; i < len; i++) {\r\n            uint num = originalAssetsToEditedList[assetId][i];\r\n            listEdited[i] = assetsEditedList[num];\r\n        }\r\n        return (original, listEdited);\r\n     }\r\n\r\n    function getAssetEdited(uint256 id) public view returns (AssetEdited memory) {\r\n        return assetsEditedList[id];\r\n    }\r\n\r\n    function getAssetsDeleted(uint256 orgId)\r\n        public\r\n        view\r\n        returns (AssetEdited[] memory)\r\n    {\r\n        uint256 cont = assetsFromOrgDeleted[orgId].length;\r\n        AssetEdited[] memory listAssetsDeleted = new AssetEdited[](cont);\r\n        for (uint256 i = 0; i < cont; i++) {\r\n            uint256 id = assetsFromOrgDeleted[orgId][i];\r\n            listAssetsDeleted[i] = assetsEditedList[id];\r\n        }\r\n        return listAssetsDeleted;\r\n    }\r\n\r\n    function getIsAssetEdited(uint256 idAsset)\r\n        public\r\n        view\r\n        returns (bool result)\r\n    {\r\n        return assetBoolEditedAndDeleted[idAsset][0];\r\n    }\r\n\r\n    function getIsAssetDeleted(uint256 idAsset)\r\n        public\r\n        view\r\n        returns (bool result)\r\n    {\r\n        return assetBoolEditedAndDeleted[idAsset][1];\r\n    }\r\n\r\n    function getOrgNumEdited(uint orgId) public view returns (uint numEdited) {\r\n        return organizationNumberOfAssetsED[orgId][0];\r\n    }\r\n\r\n    function getOrgNumDeleted(uint orgId) public view returns (uint numDeleted) {\r\n        return organizationNumberOfAssetsED[orgId][1];\r\n    }\r\n\r\n    function getEdDeList(uint assetId) public view returns (uint[] memory listEdited) {\r\n        return originalAssetsToEditedList[assetId];\r\n    }\r\n\r\n    function retrieveListOfAsset(uint256[] memory ids) public view returns (Asset[] memory, AssetEdited[] memory) {\r\n        uint cont = 0;\r\n        uint contOr = 0;\r\n        for (uint256 i = 0; i < ids.length; i++) {\r\n           if(assetBoolEditedAndDeleted[ids[i]][0]) {\r\n               if(assetBoolEditedAndDeleted[ids[i]][1]) {\r\n                   continue;\r\n                } else {\r\n                    cont = cont +1;\r\n                } \r\n            } else {\r\n                contOr = contOr+1;\r\n            }\r\n        }\r\n        Asset[] memory listAssets = new Asset[](contOr);\r\n        AssetEdited[] memory listEdited = new AssetEdited[](cont);\r\n        uint32 bucleEdited = 0;\r\n        uint bucleOriginal = 0;\r\n        for (uint256 i = 0; i < ids.length; i++) {\r\n            if(assetBoolEditedAndDeleted[ids[i]][1]) {\r\n               continue;\r\n            } if (assetBoolEditedAndDeleted[ids[i]][0]) {\r\n                uint256 lastItem = originalAssetsToEditedList[ids[i]].length - 1;\r\n                uint256 assetEditedId = originalAssetsToEditedList[ids[i]][lastItem];\r\n                listEdited[bucleEdited] = assetsEditedList[assetEditedId];\r\n                bucleEdited++;\r\n                //Last case the asset hasn't been edited\r\n            } else {\r\n                uint256 assetId = ids[i];\r\n                listAssets[bucleOriginal] = assetsList[assetId];\r\n                bucleOriginal++;\r\n            }\r\n        }\r\n        return (listAssets, listEdited);\r\n    }\r\n    \r\n\r\n    function retrieveOrgData(uint orgId) public view returns(uint[] memory){\r\n        uint[] memory result = new uint[](3);\r\n        result[0] = assetsFromOrg[orgId].length;\r\n        result[1] = (organizationNumberOfAssetsED[orgId][0]);\r\n        result[2] = (organizationNumberOfAssetsED[orgId][1]);\r\n        return result;\r\n    }\r\n\r\n\r\n}\r\n",
  "sourcePath": "D:\\GIT\\inventory-blockchain\\blockchain\\contracts\\Main.sol",
  "compiler": {
    "name": "solc",
    "version": "0.8.12+commit.f00d7308.Emscripten.clang"
  },
  "schemaVersion": "3.4.6",
  "updatedAt": "2022-06-09T20:12:11.036Z",
  "networkType": "ethereum",
  "devdoc": {
    "kind": "dev",
    "methods": {},
    "version": 1
  },
  "userdoc": {
    "kind": "user",
    "methods": {},
    "version": 1
  }
}