{
  "contractName": "Main",
  "abi": [
    {
      "anonymous": false,
      "inputs": [
        {
          "indexed": true,
          "internalType": "address",
          "name": "userAddress",
          "type": "address"
        },
        {
          "indexed": false,
          "internalType": "uint256",
          "name": "index",
          "type": "uint256"
        },
        {
          "indexed": false,
          "internalType": "bytes32",
          "name": "userEmail",
          "type": "bytes32"
        },
        {
          "indexed": false,
          "internalType": "uint256",
          "name": "userAge",
          "type": "uint256"
        }
      ],
      "name": "LogNewUser",
      "type": "event"
    },
    {
      "anonymous": false,
      "inputs": [
        {
          "indexed": false,
          "internalType": "address",
          "name": "user",
          "type": "address"
        },
        {
          "indexed": false,
          "internalType": "string",
          "name": "name",
          "type": "string"
        }
      ],
      "name": "NewOrganization",
      "type": "event"
    },
    {
      "inputs": [
        {
          "internalType": "address",
          "name": "",
          "type": "address"
        }
      ],
      "name": "addressToOrganizationIndex",
      "outputs": [
        {
          "internalType": "uint256",
          "name": "",
          "type": "uint256"
        }
      ],
      "stateMutability": "view",
      "type": "function",
      "constant": true
    },
    {
      "inputs": [
        {
          "internalType": "address",
          "name": "admin",
          "type": "address"
        },
        {
          "internalType": "string",
          "name": "name",
          "type": "string"
        },
        {
          "internalType": "string",
          "name": "lastname",
          "type": "string"
        },
        {
          "internalType": "string",
          "name": "email",
          "type": "string"
        },
        {
          "internalType": "uint32",
          "name": "adTelephone",
          "type": "uint32"
        },
        {
          "internalType": "string",
          "name": "orgName",
          "type": "string"
        },
        {
          "internalType": "string",
          "name": "orgAddress",
          "type": "string"
        },
        {
          "internalType": "uint32",
          "name": "orgTelephone",
          "type": "uint32"
        }
      ],
      "name": "insertOrgAndAdmin",
      "outputs": [],
      "stateMutability": "nonpayable",
      "type": "function"
    },
    {
      "inputs": [
        {
          "internalType": "address",
          "name": "userAddress",
          "type": "address"
        }
      ],
      "name": "isAdministrator",
      "outputs": [
        {
          "internalType": "bool",
          "name": "isIndeed",
          "type": "bool"
        }
      ],
      "stateMutability": "view",
      "type": "function",
      "constant": true
    },
    {
      "inputs": [
        {
          "internalType": "uint256",
          "name": "_orgId",
          "type": "uint256"
        }
      ],
      "name": "getOrg",
      "outputs": [
        {
          "components": [
            {
              "internalType": "address",
              "name": "admin",
              "type": "address"
            },
            {
              "internalType": "string",
              "name": "name",
              "type": "string"
            },
            {
              "internalType": "string",
              "name": "addressO",
              "type": "string"
            },
            {
              "internalType": "uint32",
              "name": "telephone",
              "type": "uint32"
            },
            {
              "internalType": "uint256",
              "name": "index",
              "type": "uint256"
            }
          ],
          "internalType": "struct Main.Organization",
          "name": "",
          "type": "tuple"
        }
      ],
      "stateMutability": "view",
      "type": "function",
      "constant": true
    },
    {
      "inputs": [
        {
          "internalType": "address",
          "name": "userAddress",
          "type": "address"
        }
      ],
      "name": "getAdminToOrg",
      "outputs": [
        {
          "internalType": "uint256",
          "name": "userid",
          "type": "uint256"
        }
      ],
      "stateMutability": "view",
      "type": "function",
      "constant": true
    },
    {
      "inputs": [
        {
          "internalType": "address",
          "name": "userAddress",
          "type": "address"
        }
      ],
      "name": "getOrgFromAddress",
      "outputs": [
        {
          "components": [
            {
              "internalType": "address",
              "name": "admin",
              "type": "address"
            },
            {
              "internalType": "string",
              "name": "name",
              "type": "string"
            },
            {
              "internalType": "string",
              "name": "addressO",
              "type": "string"
            },
            {
              "internalType": "uint32",
              "name": "telephone",
              "type": "uint32"
            },
            {
              "internalType": "uint256",
              "name": "index",
              "type": "uint256"
            }
          ],
          "internalType": "struct Main.Organization",
          "name": "org",
          "type": "tuple"
        }
      ],
      "stateMutability": "view",
      "type": "function",
      "constant": true
    },
    {
      "inputs": [
        {
          "internalType": "string",
          "name": "name",
          "type": "string"
        },
        {
          "internalType": "uint256",
          "name": "organizationId",
          "type": "uint256"
        },
        {
          "internalType": "uint256",
          "name": "adquireDate",
          "type": "uint256"
        },
        {
          "internalType": "uint256",
          "name": "creationDate",
          "type": "uint256"
        },
        {
          "internalType": "string",
          "name": "assetType",
          "type": "string"
        }
      ],
      "name": "insertAsset",
      "outputs": [],
      "stateMutability": "nonpayable",
      "type": "function"
    },
    {
      "inputs": [
        {
          "internalType": "uint256",
          "name": "id",
          "type": "uint256"
        }
      ],
      "name": "getAsset",
      "outputs": [
        {
          "components": [
            {
              "internalType": "string",
              "name": "name",
              "type": "string"
            },
            {
              "internalType": "uint256",
              "name": "organziationId",
              "type": "uint256"
            },
            {
              "internalType": "uint256",
              "name": "adquireDate",
              "type": "uint256"
            },
            {
              "internalType": "uint256",
              "name": "creationDate",
              "type": "uint256"
            },
            {
              "internalType": "string",
              "name": "assetType",
              "type": "string"
            },
            {
              "internalType": "uint256",
              "name": "index",
              "type": "uint256"
            }
          ],
          "internalType": "struct Main.Asset",
          "name": "",
          "type": "tuple"
        }
      ],
      "stateMutability": "view",
      "type": "function",
      "constant": true
    },
    {
      "inputs": [
        {
          "internalType": "uint256",
          "name": "_orgId",
          "type": "uint256"
        }
      ],
      "name": "getAllAssetsFromOrg",
      "outputs": [
        {
          "components": [
            {
              "internalType": "string",
              "name": "name",
              "type": "string"
            },
            {
              "internalType": "uint256",
              "name": "organziationId",
              "type": "uint256"
            },
            {
              "internalType": "uint256",
              "name": "adquireDate",
              "type": "uint256"
            },
            {
              "internalType": "uint256",
              "name": "creationDate",
              "type": "uint256"
            },
            {
              "internalType": "string",
              "name": "assetType",
              "type": "string"
            },
            {
              "internalType": "uint256",
              "name": "index",
              "type": "uint256"
            }
          ],
          "internalType": "struct Main.Asset[]",
          "name": "",
          "type": "tuple[]"
        },
        {
          "components": [
            {
              "internalType": "string",
              "name": "name",
              "type": "string"
            },
            {
              "internalType": "uint256",
              "name": "organziationId",
              "type": "uint256"
            },
            {
              "internalType": "uint256",
              "name": "adquireDate",
              "type": "uint256"
            },
            {
              "internalType": "uint256",
              "name": "creationDate",
              "type": "uint256"
            },
            {
              "internalType": "string",
              "name": "assetType",
              "type": "string"
            },
            {
              "internalType": "bool",
              "name": "deleted",
              "type": "bool"
            },
            {
              "internalType": "uint256",
              "name": "index",
              "type": "uint256"
            }
          ],
          "internalType": "struct Main.AssetEdited[]",
          "name": "",
          "type": "tuple[]"
        }
      ],
      "stateMutability": "view",
      "type": "function",
      "constant": true
    },
    {
      "inputs": [
        {
          "internalType": "uint256",
          "name": "originalAssetId",
          "type": "uint256"
        },
        {
          "internalType": "string",
          "name": "name",
          "type": "string"
        },
        {
          "internalType": "uint256",
          "name": "organizationId",
          "type": "uint256"
        },
        {
          "internalType": "uint256",
          "name": "adquireDate",
          "type": "uint256"
        },
        {
          "internalType": "uint256",
          "name": "creationDate",
          "type": "uint256"
        },
        {
          "internalType": "bool",
          "name": "deleted",
          "type": "bool"
        },
        {
          "internalType": "string",
          "name": "assetType",
          "type": "string"
        }
      ],
      "name": "insertEditedAsset",
      "outputs": [],
      "stateMutability": "nonpayable",
      "type": "function"
    },
    {
      "inputs": [
        {
          "internalType": "uint256",
          "name": "orgId",
          "type": "uint256"
        }
      ],
      "name": "getAssetsDeleted",
      "outputs": [
        {
          "components": [
            {
              "internalType": "string",
              "name": "name",
              "type": "string"
            },
            {
              "internalType": "uint256",
              "name": "organziationId",
              "type": "uint256"
            },
            {
              "internalType": "uint256",
              "name": "adquireDate",
              "type": "uint256"
            },
            {
              "internalType": "uint256",
              "name": "creationDate",
              "type": "uint256"
            },
            {
              "internalType": "string",
              "name": "assetType",
              "type": "string"
            },
            {
              "internalType": "bool",
              "name": "deleted",
              "type": "bool"
            },
            {
              "internalType": "uint256",
              "name": "index",
              "type": "uint256"
            }
          ],
          "internalType": "struct Main.AssetEdited[]",
          "name": "",
          "type": "tuple[]"
        }
      ],
      "stateMutability": "view",
      "type": "function",
      "constant": true
    },
    {
      "inputs": [
        {
          "internalType": "uint256",
          "name": "idAsset",
          "type": "uint256"
        }
      ],
      "name": "getIsAssetEdited",
      "outputs": [
        {
          "internalType": "bool",
          "name": "result",
          "type": "bool"
        }
      ],
      "stateMutability": "view",
      "type": "function",
      "constant": true
    },
    {
      "inputs": [
        {
          "internalType": "uint256",
          "name": "idAsset",
          "type": "uint256"
        }
      ],
      "name": "getIsAssetDeleted",
      "outputs": [
        {
          "internalType": "bool",
          "name": "result",
          "type": "bool"
        }
      ],
      "stateMutability": "view",
      "type": "function",
      "constant": true
    }
  ],
  "bytecode": "0x608060405234801561001057600080fd5b50612683806100206000396000f3fe608060405234801561001057600080fd5b50600436106100cf5760003560e01c80634e4369c41161008c578063de93f53911610066578063de93f5391461025d578063e6419ee61461028d578063e81ef319146102a9578063eac8f5b8146102d9576100cf565b80634e4369c4146101e05780638ab95a3314610210578063de7946fc1461022c576100cf565b80630a2eb301146100d4578063151c3f44146101045780631744c800146101345780632360c27f146101505780633fc0729014610180578063415de94c146101b0575b600080fd5b6100ee60048036038101906100e99190611a7f565b610309565b6040516100fb9190611ac7565b60405180910390f35b61011e60048036038101906101199190611b18565b6103d5565b60405161012b9190611ac7565b60405180910390f35b61014e60048036038101906101499190611c8b565b610424565b005b61016a60048036038101906101659190611b18565b61062a565b6040516101779190611e80565b60405180910390f35b61019a60048036038101906101959190611a7f565b610810565b6040516101a79190611e80565b60405180910390f35b6101ca60048036038101906101c59190611a7f565b61084f565b6040516101d79190611eb1565b60405180910390f35b6101fa60048036038101906101f59190611a7f565b610867565b6040516102079190611eb1565b60405180910390f35b61022a60048036038101906102259190611ef8565b6108b0565b005b61024660048036038101906102419190611b18565b610949565b604051610254929190612300565b60405180910390f35b61027760048036038101906102729190611b18565b610ec8565b6040516102849190612337565b60405180910390f35b6102a760048036038101906102a29190612385565b61114d565b005b6102c360048036038101906102be9190611b18565b6113d0565b6040516102d09190611ac7565b60405180910390f35b6102f360048036038101906102ee9190611b18565b61141f565b60405161030091906124ef565b60405180910390f35b600080600480549050141561032157600090506103d0565b8173ffffffffffffffffffffffffffffffffffffffff166004600560008573ffffffffffffffffffffffffffffffffffffffff1673ffffffffffffffffffffffffffffffffffffffff168152602001908152602001600020548154811061038b5761038a612511565b5b9060005260206000200160009054906101000a900473ffffffffffffffffffffffffffffffffffffffff1673ffffffffffffffffffffffffffffffffffffffff161490505b919050565b6000600b60008381526020019081526020016000206000815481106103fd576103fc612511565b5b90600052602060002090602091828204019190069054906101000a900460ff169050919050565b60066040518060c001604052808781526020018681526020018581526020018481526020018381526020016006805490508152509080600181540180825580915050600190039060005260206000209060060201600090919091909150600082015181600001908051906020019061049d9291906118aa565b5060208201518160010155604082015181600201556060820151816003015560808201518160040190805190602001906104d89291906118aa565b5060a08201518160050155505060076000858152602001908152602001600020600160068054905061050a919061256f565b9080600181540180825580915050600190039060005260206000200160009091909190915055600b60006001600680549050610546919061256f565b8152602001908152602001600020600090806001815401808255809150506001900390600052602060002090602091828204019190069091909190916101000a81548160ff021916908315150217905550600b600060016006805490506105ad919061256f565b8152602001908152602001600020600090806001815401808255809150506001900390600052602060002090602091828204019190069091909190916101000a81548160ff021916908315150217905550600a60006001600680549050610614919061256f565b8152602001908152602001600020505050505050565b610632611930565b6000828154811061064657610645612511565b5b90600052602060002090600502016040518060a00160405290816000820160009054906101000a900473ffffffffffffffffffffffffffffffffffffffff1673ffffffffffffffffffffffffffffffffffffffff1673ffffffffffffffffffffffffffffffffffffffff1681526020016001820180546106c5906125d2565b80601f01602080910402602001604051908101604052809291908181526020018280546106f1906125d2565b801561073e5780601f106107135761010080835404028352916020019161073e565b820191906000526020600020905b81548152906001019060200180831161072157829003601f168201915b50505050508152602001600282018054610757906125d2565b80601f0160208091040260200160405190810160405280929190818152602001828054610783906125d2565b80156107d05780601f106107a5576101008083540402835291602001916107d0565b820191906000526020600020905b8154815290600101906020018083116107b357829003601f168201915b505050505081526020016003820160009054906101000a900463ffffffff1663ffffffff1663ffffffff1681526020016004820154815250509050919050565b610818611930565b61082182610309565b1561082b57600080fd5b600061083683610867565b905060006108438261062a565b90508092505050919050565b60056020528060005260406000206000915090505481565b6000600560008373ffffffffffffffffffffffffffffffffffffffff1673ffffffffffffffffffffffffffffffffffffffff168152602001908152602001600020549050919050565b6108b988610309565b156108c357600080fd5b6108d088888888886115a7565b6108dc88848484611710565b6004889080600181540180825580915050600190039060005260206000200160009091909190916101000a81548173ffffffffffffffffffffffffffffffffffffffff021916908373ffffffffffffffffffffffffffffffffffffffff1602179055505050505050505050565b60608060006007600085815260200190815260200160002080549050905060008167ffffffffffffffff81111561098357610982611b60565b5b6040519080825280602002602001820160405280156109bc57816020015b6109a961197b565b8152602001906001900390816109a15790505b50905060008267ffffffffffffffff8111156109db576109da611b60565b5b604051908082528060200260200182016040528015610a1457816020015b610a016119b1565b8152602001906001900390816109f95790505b50905060005b83811015610eb957600b6000828152602001908152602001600020600181548110610a4857610a47612511565b5b90600052602060002090602091828204019190069054906101000a900460ff1615610a7257610ea6565b60011515600b6000838152602001908152602001600020600081548110610a9c57610a9b612511565b5b90600052602060002090602091828204019190069054906101000a900460ff1615151415610cd85760006001600a600084815260200190815260200160002080549050610ae9919061256f565b90506000600a60008481526020019081526020016000208281548110610b1257610b11612511565b5b9060005260206000200154905060088181548110610b3357610b32612511565b5b90600052602060002090600702016040518060e0016040529081600082018054610b5c906125d2565b80601f0160208091040260200160405190810160405280929190818152602001828054610b88906125d2565b8015610bd55780601f10610baa57610100808354040283529160200191610bd5565b820191906000526020600020905b815481529060010190602001808311610bb857829003601f168201915b50505050508152602001600182015481526020016002820154815260200160038201548152602001600482018054610c0c906125d2565b80601f0160208091040260200160405190810160405280929190818152602001828054610c38906125d2565b8015610c855780601f10610c5a57610100808354040283529160200191610c85565b820191906000526020600020905b815481529060010190602001808311610c6857829003601f168201915b505050505081526020016005820160009054906101000a900460ff16151515158152602001600682015481525050848481518110610cc657610cc5612511565b5b60200260200101819052505050610ea5565b6000600760008981526020019081526020016000208281548110610cff57610cfe612511565b5b9060005260206000200154905060068181548110610d2057610d1f612511565b5b90600052602060002090600602016040518060c0016040529081600082018054610d49906125d2565b80601f0160208091040260200160405190810160405280929190818152602001828054610d75906125d2565b8015610dc25780601f10610d9757610100808354040283529160200191610dc2565b820191906000526020600020905b815481529060010190602001808311610da557829003601f168201915b50505050508152602001600182015481526020016002820154815260200160038201548152602001600482018054610df9906125d2565b80601f0160208091040260200160405190810160405280929190818152602001828054610e25906125d2565b8015610e725780601f10610e4757610100808354040283529160200191610e72565b820191906000526020600020905b815481529060010190602001808311610e5557829003601f168201915b50505050508152602001600582015481525050848381518110610e9857610e97612511565b5b6020026020010181905250505b5b8080610eb190612604565b915050610a1a565b50818194509450505050915091565b60606000600c600084815260200190815260200160002080549050905060008167ffffffffffffffff811115610f0157610f00611b60565b5b604051908082528060200260200182016040528015610f3a57816020015b610f276119b1565b815260200190600190039081610f1f5790505b50905060005b82811015611142576000600c60008781526020019081526020016000208281548110610f6f57610f6e612511565b5b9060005260206000200154905060088181548110610f9057610f8f612511565b5b90600052602060002090600702016040518060e0016040529081600082018054610fb9906125d2565b80601f0160208091040260200160405190810160405280929190818152602001828054610fe5906125d2565b80156110325780601f1061100757610100808354040283529160200191611032565b820191906000526020600020905b81548152906001019060200180831161101557829003601f168201915b50505050508152602001600182015481526020016002820154815260200160038201548152602001600482018054611069906125d2565b80601f0160208091040260200160405190810160405280929190818152602001828054611095906125d2565b80156110e25780601f106110b7576101008083540402835291602001916110e2565b820191906000526020600020905b8154815290600101906020018083116110c557829003601f168201915b505050505081526020016005820160009054906101000a900460ff1615151515815260200160068201548152505083838151811061112357611122612511565b5b602002602001018190525050808061113a90612604565b915050610f40565b508092505050919050565b600b600088815260200190815260200160002060008154811061117357611172612511565b5b90600052602060002090602091828204019190069054906101000a900460ff166111e9576001600b60008981526020019081526020016000206000815481106111bf576111be612511565b5b90600052602060002090602091828204019190066101000a81548160ff0219169083151502179055505b60086040518060e0016040528088815260200187815260200186815260200185815260200183815260200184151581526020016008805490508152509080600181540180825580915050600190039060005260206000209060070201600090919091909150600082015181600001908051906020019061126a9291906118aa565b5060208201518160010155604082015181600201556060820151816003015560808201518160040190805190602001906112a59291906118aa565b5060a08201518160050160006101000a81548160ff02191690831515021790555060c082015181600601555050600a600088815260200190815260200160002060016008805490506112f7919061256f565b90806001815401808255809150506001900390600052602060002001600090919091909150556001151582151514156113c757600c6000868152602001908152602001600020600160088054905061134f919061256f565b90806001815401808255809150506001900390600052602060002001600090919091909150556001600b600089815260200190815260200160002060018154811061139d5761139c612511565b5b90600052602060002090602091828204019190066101000a81548160ff0219169083151502179055505b50505050505050565b6000600b60008381526020019081526020016000206001815481106113f8576113f7612511565b5b90600052602060002090602091828204019190069054906101000a900460ff169050919050565b61142761197b565b6006828154811061143b5761143a612511565b5b90600052602060002090600602016040518060c0016040529081600082018054611464906125d2565b80601f0160208091040260200160405190810160405280929190818152602001828054611490906125d2565b80156114dd5780601f106114b2576101008083540402835291602001916114dd565b820191906000526020600020905b8154815290600101906020018083116114c057829003601f168201915b50505050508152602001600182015481526020016002820154815260200160038201548152602001600482018054611514906125d2565b80601f0160208091040260200160405190810160405280929190818152602001828054611540906125d2565b801561158d5780601f106115625761010080835404028352916020019161158d565b820191906000526020600020905b81548152906001019060200180831161157057829003601f168201915b505050505081526020016005820154815250509050919050565b60026040518060c001604052808773ffffffffffffffffffffffffffffffffffffffff1681526020018681526020018581526020018481526020018363ffffffff168152602001600280549050815250908060018154018082558091505060019003906000526020600020906006020160009091909190915060008201518160000160006101000a81548173ffffffffffffffffffffffffffffffffffffffff021916908373ffffffffffffffffffffffffffffffffffffffff16021790555060208201518160010190805190602001906116839291906118aa565b5060408201518160020190805190602001906116a09291906118aa565b5060608201518160030190805190602001906116bd9291906118aa565b5060808201518160040160006101000a81548163ffffffff021916908363ffffffff16021790555060a0820151816005015550506003600081548092919061170490612604565b91905055505050505050565b60006040518060a001604052808673ffffffffffffffffffffffffffffffffffffffff1681526020018581526020018481526020018363ffffffff168152602001600080549050815250908060018154018082558091505060019003906000526020600020906005020160009091909190915060008201518160000160006101000a81548173ffffffffffffffffffffffffffffffffffffffff021916908373ffffffffffffffffffffffffffffffffffffffff16021790555060208201518160010190805190602001906117e69291906118aa565b5060408201518160020190805190602001906118039291906118aa565b5060608201518160030160006101000a81548163ffffffff021916908363ffffffff1602179055506080820151816004015550506001600081548092919061184a90612604565b91905055506001600080549050611861919061256f565b600560008673ffffffffffffffffffffffffffffffffffffffff1673ffffffffffffffffffffffffffffffffffffffff1681526020019081526020016000208190555050505050565b8280546118b6906125d2565b90600052602060002090601f0160209004810192826118d8576000855561191f565b82601f106118f157805160ff191683800117855561191f565b8280016001018555821561191f579182015b8281111561191e578251825591602001919060010190611903565b5b50905061192c91906119f0565b5090565b6040518060a00160405280600073ffffffffffffffffffffffffffffffffffffffff1681526020016060815260200160608152602001600063ffffffff168152602001600081525090565b6040518060c001604052806060815260200160008152602001600081526020016000815260200160608152602001600081525090565b6040518060e001604052806060815260200160008152602001600081526020016000815260200160608152602001600015158152602001600081525090565b5b80821115611a095760008160009055506001016119f1565b5090565b6000604051905090565b600080fd5b600080fd5b600073ffffffffffffffffffffffffffffffffffffffff82169050919050565b6000611a4c82611a21565b9050919050565b611a5c81611a41565b8114611a6757600080fd5b50565b600081359050611a7981611a53565b92915050565b600060208284031215611a9557611a94611a17565b5b6000611aa384828501611a6a565b91505092915050565b60008115159050919050565b611ac181611aac565b82525050565b6000602082019050611adc6000830184611ab8565b92915050565b6000819050919050565b611af581611ae2565b8114611b0057600080fd5b50565b600081359050611b1281611aec565b92915050565b600060208284031215611b2e57611b2d611a17565b5b6000611b3c84828501611b03565b91505092915050565b600080fd5b600080fd5b6000601f19601f8301169050919050565b7f4e487b7100000000000000000000000000000000000000000000000000000000600052604160045260246000fd5b611b9882611b4f565b810181811067ffffffffffffffff82111715611bb757611bb6611b60565b5b80604052505050565b6000611bca611a0d565b9050611bd68282611b8f565b919050565b600067ffffffffffffffff821115611bf657611bf5611b60565b5b611bff82611b4f565b9050602081019050919050565b82818337600083830152505050565b6000611c2e611c2984611bdb565b611bc0565b905082815260208101848484011115611c4a57611c49611b4a565b5b611c55848285611c0c565b509392505050565b600082601f830112611c7257611c71611b45565b5b8135611c82848260208601611c1b565b91505092915050565b600080600080600060a08688031215611ca757611ca6611a17565b5b600086013567ffffffffffffffff811115611cc557611cc4611a1c565b5b611cd188828901611c5d565b9550506020611ce288828901611b03565b9450506040611cf388828901611b03565b9350506060611d0488828901611b03565b925050608086013567ffffffffffffffff811115611d2557611d24611a1c565b5b611d3188828901611c5d565b9150509295509295909350565b611d4781611a41565b82525050565b600081519050919050565b600082825260208201905092915050565b60005b83811015611d87578082015181840152602081019050611d6c565b83811115611d96576000848401525b50505050565b6000611da782611d4d565b611db18185611d58565b9350611dc1818560208601611d69565b611dca81611b4f565b840191505092915050565b600063ffffffff82169050919050565b611dee81611dd5565b82525050565b611dfd81611ae2565b82525050565b600060a083016000830151611e1b6000860182611d3e565b5060208301518482036020860152611e338282611d9c565b91505060408301518482036040860152611e4d8282611d9c565b9150506060830151611e626060860182611de5565b506080830151611e756080860182611df4565b508091505092915050565b60006020820190508181036000830152611e9a8184611e03565b905092915050565b611eab81611ae2565b82525050565b6000602082019050611ec66000830184611ea2565b92915050565b611ed581611dd5565b8114611ee057600080fd5b50565b600081359050611ef281611ecc565b92915050565b600080600080600080600080610100898b031215611f1957611f18611a17565b5b6000611f278b828c01611a6a565b985050602089013567ffffffffffffffff811115611f4857611f47611a1c565b5b611f548b828c01611c5d565b975050604089013567ffffffffffffffff811115611f7557611f74611a1c565b5b611f818b828c01611c5d565b965050606089013567ffffffffffffffff811115611fa257611fa1611a1c565b5b611fae8b828c01611c5d565b9550506080611fbf8b828c01611ee3565b94505060a089013567ffffffffffffffff811115611fe057611fdf611a1c565b5b611fec8b828c01611c5d565b93505060c089013567ffffffffffffffff81111561200d5761200c611a1c565b5b6120198b828c01611c5d565b92505060e061202a8b828c01611ee3565b9150509295985092959890939650565b600081519050919050565b600082825260208201905092915050565b6000819050602082019050919050565b600060c08301600083015184820360008601526120838282611d9c565b91505060208301516120986020860182611df4565b5060408301516120ab6040860182611df4565b5060608301516120be6060860182611df4565b50608083015184820360808601526120d68282611d9c565b91505060a08301516120eb60a0860182611df4565b508091505092915050565b60006121028383612066565b905092915050565b6000602082019050919050565b60006121228261203a565b61212c8185612045565b93508360208202850161213e85612056565b8060005b8581101561217a578484038952815161215b85826120f6565b94506121668361210a565b925060208a01995050600181019050612142565b50829750879550505050505092915050565b600081519050919050565b600082825260208201905092915050565b6000819050602082019050919050565b6121c181611aac565b82525050565b600060e08301600083015184820360008601526121e48282611d9c565b91505060208301516121f96020860182611df4565b50604083015161220c6040860182611df4565b50606083015161221f6060860182611df4565b50608083015184820360808601526122378282611d9c565b91505060a083015161224c60a08601826121b8565b5060c083015161225f60c0860182611df4565b508091505092915050565b600061227683836121c7565b905092915050565b6000602082019050919050565b60006122968261218c565b6122a08185612197565b9350836020820285016122b2856121a8565b8060005b858110156122ee57848403895281516122cf858261226a565b94506122da8361227e565b925060208a019950506001810190506122b6565b50829750879550505050505092915050565b6000604082019050818103600083015261231a8185612117565b9050818103602083015261232e818461228b565b90509392505050565b60006020820190508181036000830152612351818461228b565b905092915050565b61236281611aac565b811461236d57600080fd5b50565b60008135905061237f81612359565b92915050565b600080600080600080600060e0888a0312156123a4576123a3611a17565b5b60006123b28a828b01611b03565b975050602088013567ffffffffffffffff8111156123d3576123d2611a1c565b5b6123df8a828b01611c5d565b96505060406123f08a828b01611b03565b95505060606124018a828b01611b03565b94505060806124128a828b01611b03565b93505060a06124238a828b01612370565b92505060c088013567ffffffffffffffff81111561244457612443611a1c565b5b6124508a828b01611c5d565b91505092959891949750929550565b600060c083016000830151848203600086015261247c8282611d9c565b91505060208301516124916020860182611df4565b5060408301516124a46040860182611df4565b5060608301516124b76060860182611df4565b50608083015184820360808601526124cf8282611d9c565b91505060a08301516124e460a0860182611df4565b508091505092915050565b60006020820190508181036000830152612509818461245f565b905092915050565b7f4e487b7100000000000000000000000000000000000000000000000000000000600052603260045260246000fd5b7f4e487b7100000000000000000000000000000000000000000000000000000000600052601160045260246000fd5b600061257a82611ae2565b915061258583611ae2565b92508282101561259857612597612540565b5b828203905092915050565b7f4e487b7100000000000000000000000000000000000000000000000000000000600052602260045260246000fd5b600060028204905060018216806125ea57607f821691505b602082108114156125fe576125fd6125a3565b5b50919050565b600061260f82611ae2565b91507fffffffffffffffffffffffffffffffffffffffffffffffffffffffffffffffff82141561264257612641612540565b5b60018201905091905056fea2646970667358221220cbc299b07ecc25d794cb4d46700cbfb1ed98edfd6ad64039ece03264c65910a764736f6c634300080c0033",
  "immutableReferences": {},
  "source": "// SPDX-License-Identifier: MIT\r\npragma solidity >=0.7.0 <0.9.10;\r\n\r\ncontract Main {\r\n    //EVENTS\r\n    event NewOrganization(address user, string name);\r\n    event LogNewUser(\r\n        address indexed userAddress,\r\n        uint256 index,\r\n        bytes32 userEmail,\r\n        uint256 userAge\r\n    );\r\n\r\n    //STRUCTS\r\n    struct Organization {\r\n        address admin;\r\n        string name;\r\n        string addressO;\r\n        uint32 telephone;\r\n        uint256 index;\r\n    }\r\n\r\n    struct Admin {\r\n        address admin;\r\n        string name;\r\n        string lastname;\r\n        string email;\r\n        uint32 telephone;\r\n        uint256 index;\r\n    }\r\n\r\n    //DATA\r\n    Organization[] private organizations;\r\n    uint256 orgCount;\r\n\r\n    Admin[] private admins;\r\n    uint256 adminsCount;\r\n\r\n    //List of users with a org created (administrators)\r\n    address[] private administrators;\r\n\r\n    mapping(address => uint) public addressToOrganizationIndex;\r\n\r\n    //FUNCTIONS\r\n\r\n    //data created with organization\r\n    function insertOrgAndAdmin(\r\n        address admin,\r\n        string memory name,\r\n        string memory lastname,\r\n        string memory email,\r\n        uint32 adTelephone,\r\n        string memory orgName,\r\n        string memory orgAddress,\r\n        uint32 orgTelephone\r\n    ) public {\r\n        if (isAdministrator(admin)) revert();\r\n        insertAdmin(admin, name, lastname, email, adTelephone);\r\n        insertOrganization(admin, orgName, orgAddress, orgTelephone);\r\n        administrators.push(admin);\r\n    }\r\n\r\n    function insertAdmin(\r\n        address admin,\r\n        string memory name,\r\n        string memory lastname,\r\n        string memory email,\r\n        uint32 telephone\r\n    ) private {\r\n        admins.push(\r\n            (Admin(admin, name, lastname, email, telephone, admins.length))\r\n        );\r\n        adminsCount++;\r\n    }\r\n\r\n    function insertOrganization(\r\n        address userAddress,\r\n        string memory name,\r\n        string memory addressO,\r\n        uint32 telephone\r\n    ) private {\r\n        organizations.push(\r\n            Organization(\r\n                userAddress,\r\n                name,\r\n                addressO,\r\n                telephone,\r\n                organizations.length\r\n            )\r\n        );\r\n        orgCount++;\r\n        addressToOrganizationIndex[userAddress] = organizations.length -1;\r\n    }\r\n\r\n    // Check if the address has created a org, == is an administrator.\r\n    function isAdministrator(address userAddress) public view returns (bool isIndeed) {\r\n        if (administrators.length == 0) return false;\r\n        return (administrators[addressToOrganizationIndex[userAddress]] ==\r\n            userAddress);\r\n    }\r\n\r\n    function getOrg(uint256 _orgId)\r\n        public\r\n        view\r\n        returns (Organization memory)\r\n    {\r\n        return organizations[_orgId];\r\n    }\r\n\r\n    function getAdminToOrg(address userAddress)\r\n        public\r\n        view\r\n        returns (uint userid)\r\n    {\r\n        return addressToOrganizationIndex[userAddress];\r\n    }\r\n\r\n    //Get the organization if there is an address that created it\r\n    function getOrgFromAddress(address userAddress) public view returns (Organization memory org) {\r\n        if (isAdministrator(userAddress)) revert();\r\n        uint orgId = getAdminToOrg(userAddress);\r\n        Organization memory organ = getOrg(orgId);\r\n        return organ;\r\n    }\r\n\r\n\r\n    //ASSETS TYPE AND FUNCTIONS\r\n    struct Asset {\r\n        string name;\r\n        uint256 organziationId;\r\n        uint256 adquireDate;\r\n        uint256 creationDate;\r\n        string assetType;\r\n        uint256 index;\r\n\r\n    }\r\n\r\n\r\n    Asset[] private assetsList;\r\n    //uint256 orgCount;\r\n    \r\n\r\n    //UNNECESARY MAPPING\r\n    //mapping(uint256 => uint256) private assetToOrg;\r\n\r\n    \r\n\r\n\r\n    //CREAR UN MAPPING DE ORGANIZACIN (ID) A LISTA DE ASSETS (ID)?\r\n    mapping(uint256 => uint256[]) private assetsFromOrg;\r\n\r\n\r\n\r\n    //ASSET EDITED INTRODUCES A BOOL DELETED\r\n    struct AssetEdited {\r\n        string name;\r\n        uint256 organziationId;\r\n        uint256 adquireDate;\r\n        uint256 creationDate;\r\n        string assetType;\r\n        bool deleted;\r\n        uint256 index;\r\n    \r\n    }\r\n   \r\n\r\n    AssetEdited[] private assetsEditedList;\r\n    //uint256 orgCount;\r\n    mapping(uint256 => uint256) private assetEditedToAsset;\r\n\r\n\r\n\r\n\r\n    //ASSETS ORIGINAL TO LIST OF ASSETS EDITED\r\n    mapping(uint256 => uint256[]) private originalAssetsToEditedList;\r\n  \r\n\r\n    function insertAsset(\r\n        string memory name,\r\n        uint256 organizationId,\r\n        uint256 adquireDate,\r\n        uint256 creationDate,\r\n        string memory assetType\r\n        ) public{\r\n            assetsList.push(\r\n                (Asset(name,\r\n                    organizationId,\r\n                    adquireDate,\r\n                    creationDate,\r\n                    assetType,\r\n                    assetsList.length))\r\n        );\r\n        //adminsCount++;\r\n        assetsFromOrg[organizationId].push(assetsList.length-1);\r\n        assetBoolEditedAndDeleted[assetsList.length-1].push(false);\r\n        assetBoolEditedAndDeleted[assetsList.length-1].push(false);\r\n        originalAssetsToEditedList[assetsList.length-1];\r\n    }\r\n\r\n    function getAsset (uint id) public view returns(Asset memory){\r\n        return assetsList[id];\r\n    }\r\n\r\n\r\n    function getAllAssetsFromOrg (uint _orgId) public view returns(Asset[] memory, AssetEdited[] memory) {\r\n        uint cont = assetsFromOrg[_orgId].length;\r\n        Asset[] memory listOrgAssets = new Asset[](cont);\r\n        AssetEdited[] memory listOrgAssetsEdited = new AssetEdited[](cont);  \r\n        for(uint i=0; i<cont; i++){\r\n            //First check if that asset has been deleted \r\n            //so we don't retrieve it\r\n            if(assetBoolEditedAndDeleted[i][1]) {\r\n                continue;\r\n            }\r\n            //Check if asset has been edited in order\r\n            //to retrieve last edited asset\r\n            if(assetBoolEditedAndDeleted[i][0] == true){\r\n                uint lastItem = originalAssetsToEditedList[i].length - 1 ;\r\n                uint256 assetEditedId = originalAssetsToEditedList[i][lastItem];\r\n                listOrgAssetsEdited[i] = assetsEditedList[assetEditedId];\r\n            //Last case the asset hasn't been edited\r\n            } else {\r\n                uint assetId = assetsFromOrg[_orgId][i];\r\n                listOrgAssets[i] = assetsList[assetId];\r\n            }\r\n            \r\n        }\r\n        return (listOrgAssets, listOrgAssetsEdited);\r\n    }\r\n\r\n\r\n\r\n\r\n    //CREAMOS UNA LISTA QUE RECOGE LOS id de los ASSETS ORIGINALES QUE TIENEN ALGUNA EDICIN\r\n    //uint256[] private assetsOriginalEdited;\r\n\r\n    //CREAR MAPPING DE ID ORIGINAL A LIST OF BOOLEAN\r\n    // QUE INDICA SI EL ID EST EDITADO EN EL PRIMER VALOR\r\n    // EN EL SEGUNDO VALOR INDICA SI EST ELIMINADO\r\n    mapping(uint256 => bool[]) private assetBoolEditedAndDeleted;\r\n    //DE ESTA MANERA PODEMOS VER EN CADA CASO EL ID SI EST EDITADO O ELIMINADO\r\n\r\n    //mapping que relaciona la org con los assets que tiene eliminados\r\n    mapping(uint256 => uint256[]) private assetsFromOrgDeleted;\r\n\r\n\r\n\r\n\r\n\r\n\r\n    function insertEditedAsset(\r\n        uint256 originalAssetId,\r\n        string memory name,\r\n        uint256 organizationId,\r\n        uint256 adquireDate,\r\n        uint256 creationDate,\r\n        bool deleted,\r\n        string memory assetType\r\n    ) public {\r\n        //CHECK IF THE ASSET IS ALREADY IN ASSETS EDITED LIST\r\n        if(!assetBoolEditedAndDeleted[originalAssetId][0]){\r\n            assetBoolEditedAndDeleted[originalAssetId][0]=true;\r\n        }\r\n        assetsEditedList.push(\r\n                (AssetEdited(name,\r\n                    organizationId,\r\n                    adquireDate,\r\n                    creationDate,\r\n                    assetType,\r\n                    deleted,\r\n                    assetsEditedList.length)));\r\n        originalAssetsToEditedList[originalAssetId].push(assetsEditedList.length-1);\r\n        \r\n        if (deleted == true){\r\n            assetsFromOrgDeleted[organizationId].push(assetsEditedList.length-1);\r\n            assetBoolEditedAndDeleted[originalAssetId][1]=true;\r\n            \r\n        }\r\n    }\r\n\r\n\r\n    function getAssetsDeleted(uint orgId) public view returns (AssetEdited[] memory){\r\n        uint cont = assetsFromOrgDeleted[orgId].length;\r\n        AssetEdited[] memory listAssetsDeleted = new AssetEdited[](cont);  \r\n        for(uint i=0; i<cont; i++){\r\n            uint id = assetsFromOrgDeleted[orgId][i];\r\n            listAssetsDeleted[i]= assetsEditedList[id];\r\n        }\r\n        return listAssetsDeleted;\r\n    }\r\n\r\n\r\n\r\n    function getIsAssetEdited(uint256 idAsset) public view returns (bool result){\r\n        return assetBoolEditedAndDeleted[idAsset][0];\r\n    }\r\n\r\n    function getIsAssetDeleted(uint256 idAsset) public view returns (bool result){\r\n        return assetBoolEditedAndDeleted[idAsset][1];\r\n    }\r\n\r\n\r\n\r\n\r\n/* \r\n    //asset\r\n    [1,2,3]\r\n    //editados\r\n    [1,2]\r\n\r\n    //lista de assets eliminados []\r\n    //\r\n\r\n    /* /editado {\r\nnombre, tipo, skjdalksjd, booldeleted\r\n    listaborrados.push() cuando se elimine\r\n    } */\r\n\r\n    //mapping(editado=>asset)\r\n    //mapping(asset=> []editado) para sacar el ultimo que se ha editado\r\n\r\n\r\n    //assets editados (asset 1)\r\n    //[]\r\n\r\n    //boolean editar\r\n    //marca eliminar \r\n}\r\n",
  "sourcePath": "D:\\GIT\\inventory-blockchain\\blockchain\\contracts\\main2.sol",
  "compiler": {
    "name": "solc",
    "version": "0.8.12+commit.f00d7308.Emscripten.clang"
  },
  "schemaVersion": "3.4.6",
  "updatedAt": "2022-04-03T18:05:44.695Z",
  "networkType": "ethereum",
  "devdoc": {
    "kind": "dev",
    "methods": {},
    "version": 1
  },
  "userdoc": {
    "kind": "user",
    "methods": {},
    "version": 1
  }
}