{
  "contractName": "Main",
  "abi": [
    {
      "anonymous": false,
      "inputs": [
        {
          "indexed": true,
          "internalType": "address",
          "name": "userAddress",
          "type": "address"
        },
        {
          "indexed": false,
          "internalType": "uint256",
          "name": "index",
          "type": "uint256"
        },
        {
          "indexed": false,
          "internalType": "bytes32",
          "name": "userEmail",
          "type": "bytes32"
        },
        {
          "indexed": false,
          "internalType": "uint256",
          "name": "userAge",
          "type": "uint256"
        }
      ],
      "name": "LogNewUser",
      "type": "event"
    },
    {
      "anonymous": false,
      "inputs": [
        {
          "indexed": false,
          "internalType": "address",
          "name": "user",
          "type": "address"
        },
        {
          "indexed": false,
          "internalType": "string",
          "name": "name",
          "type": "string"
        }
      ],
      "name": "NewOrganization",
      "type": "event"
    },
    {
      "inputs": [
        {
          "internalType": "address",
          "name": "userAddress",
          "type": "address"
        }
      ],
      "name": "isUser",
      "outputs": [
        {
          "internalType": "bool",
          "name": "isIndeed",
          "type": "bool"
        }
      ],
      "stateMutability": "view",
      "type": "function",
      "constant": true
    },
    {
      "inputs": [
        {
          "internalType": "address",
          "name": "userAddress",
          "type": "address"
        },
        {
          "internalType": "string",
          "name": "name",
          "type": "string"
        },
        {
          "internalType": "string",
          "name": "addressO",
          "type": "string"
        },
        {
          "internalType": "uint32",
          "name": "telephone",
          "type": "uint32"
        }
      ],
      "name": "insertUser",
      "outputs": [
        {
          "internalType": "uint256",
          "name": "index",
          "type": "uint256"
        }
      ],
      "stateMutability": "nonpayable",
      "type": "function"
    },
    {
      "inputs": [
        {
          "internalType": "uint256",
          "name": "_memberId",
          "type": "uint256"
        }
      ],
      "name": "getOrg",
      "outputs": [
        {
          "components": [
            {
              "internalType": "address",
              "name": "admin",
              "type": "address"
            },
            {
              "internalType": "string",
              "name": "name",
              "type": "string"
            },
            {
              "internalType": "string",
              "name": "addressO",
              "type": "string"
            },
            {
              "internalType": "uint32",
              "name": "telephone",
              "type": "uint32"
            },
            {
              "internalType": "uint256",
              "name": "index",
              "type": "uint256"
            }
          ],
          "internalType": "struct Main.Organization",
          "name": "",
          "type": "tuple"
        }
      ],
      "stateMutability": "view",
      "type": "function",
      "constant": true
    }
  ],
  "bytecode": "0x608060405234801561001057600080fd5b50610d99806100206000396000f3fe608060405234801561001057600080fd5b50600436106100415760003560e01c80632360c27f146100465780634209fff114610076578063b214280f146100a6575b600080fd5b610060600480360381019061005b91906107e3565b6100d6565b60405161006d9190610995565b60405180910390f35b610090600480360381019061008b91906109e3565b6102bc565b60405161009d9190610a2b565b60405180910390f35b6100c060048036038101906100bb9190610ba7565b61038b565b6040516100cd9190610c55565b60405180910390f35b6100de6106ab565b600082815481106100f2576100f1610c70565b5b90600052602060002090600502016040518060a00160405290816000820160009054906101000a900473ffffffffffffffffffffffffffffffffffffffff1673ffffffffffffffffffffffffffffffffffffffff1673ffffffffffffffffffffffffffffffffffffffff16815260200160018201805461017190610cce565b80601f016020809104026020016040519081016040528092919081815260200182805461019d90610cce565b80156101ea5780601f106101bf576101008083540402835291602001916101ea565b820191906000526020600020905b8154815290600101906020018083116101cd57829003601f168201915b5050505050815260200160028201805461020390610cce565b80601f016020809104026020016040519081016040528092919081815260200182805461022f90610cce565b801561027c5780601f106102515761010080835404028352916020019161027c565b820191906000526020600020905b81548152906001019060200180831161025f57829003601f168201915b505050505081526020016003820160009054906101000a900463ffffffff1663ffffffff1663ffffffff1681526020016004820154815250509050919050565b60008060018054905014156102d45760009050610386565b8173ffffffffffffffffffffffffffffffffffffffff166001600260008573ffffffffffffffffffffffffffffffffffffffff1673ffffffffffffffffffffffffffffffffffffffff168152602001908152602001600020600401548154811061034157610340610c70565b5b9060005260206000200160009054906101000a900473ffffffffffffffffffffffffffffffffffffffff1673ffffffffffffffffffffffffffffffffffffffff161490505b919050565b6000610396856102bc565b156103a057600080fd5b83600260008773ffffffffffffffffffffffffffffffffffffffff1673ffffffffffffffffffffffffffffffffffffffff16815260200190815260200160002060010190805190602001906103f69291906106f6565b5082600260008773ffffffffffffffffffffffffffffffffffffffff1673ffffffffffffffffffffffffffffffffffffffff168152602001908152602001600020600201908051906020019061044d9291906106f6565b5081600260008773ffffffffffffffffffffffffffffffffffffffff1673ffffffffffffffffffffffffffffffffffffffff16815260200190815260200160002060030160006101000a81548163ffffffff021916908363ffffffff1602179055506001859080600181540180825580915050600190039060005260206000200160009091909190916101000a81548173ffffffffffffffffffffffffffffffffffffffff021916908373ffffffffffffffffffffffffffffffffffffffff16021790555060006040518060a001604052808773ffffffffffffffffffffffffffffffffffffffff1681526020018681526020018581526020018463ffffffff168152602001600080549050815250908060018154018082558091505060019003906000526020600020906005020160009091909190915060008201518160000160006101000a81548173ffffffffffffffffffffffffffffffffffffffff021916908373ffffffffffffffffffffffffffffffffffffffff16021790555060208201518160010190805190602001906105e89291906106f6565b5060408201518160020190805190602001906106059291906106f6565b5060608201518160030160006101000a81548163ffffffff021916908363ffffffff1602179055506080820151816004015550506001808054905061064a9190610d2f565b600260008773ffffffffffffffffffffffffffffffffffffffff1673ffffffffffffffffffffffffffffffffffffffff16815260200190815260200160002060040181905550600180805490506106a19190610d2f565b9050949350505050565b6040518060a00160405280600073ffffffffffffffffffffffffffffffffffffffff1681526020016060815260200160608152602001600063ffffffff168152602001600081525090565b82805461070290610cce565b90600052602060002090601f016020900481019282610724576000855561076b565b82601f1061073d57805160ff191683800117855561076b565b8280016001018555821561076b579182015b8281111561076a57825182559160200191906001019061074f565b5b509050610778919061077c565b5090565b5b8082111561079557600081600090555060010161077d565b5090565b6000604051905090565b600080fd5b600080fd5b6000819050919050565b6107c0816107ad565b81146107cb57600080fd5b50565b6000813590506107dd816107b7565b92915050565b6000602082840312156107f9576107f86107a3565b5b6000610807848285016107ce565b91505092915050565b600073ffffffffffffffffffffffffffffffffffffffff82169050919050565b600061083b82610810565b9050919050565b61084b81610830565b82525050565b600081519050919050565b600082825260208201905092915050565b60005b8381101561088b578082015181840152602081019050610870565b8381111561089a576000848401525b50505050565b6000601f19601f8301169050919050565b60006108bc82610851565b6108c6818561085c565b93506108d681856020860161086d565b6108df816108a0565b840191505092915050565b600063ffffffff82169050919050565b610903816108ea565b82525050565b610912816107ad565b82525050565b600060a0830160008301516109306000860182610842565b506020830151848203602086015261094882826108b1565b9150506040830151848203604086015261096282826108b1565b915050606083015161097760608601826108fa565b50608083015161098a6080860182610909565b508091505092915050565b600060208201905081810360008301526109af8184610918565b905092915050565b6109c081610830565b81146109cb57600080fd5b50565b6000813590506109dd816109b7565b92915050565b6000602082840312156109f9576109f86107a3565b5b6000610a07848285016109ce565b91505092915050565b60008115159050919050565b610a2581610a10565b82525050565b6000602082019050610a406000830184610a1c565b92915050565b600080fd5b600080fd5b7f4e487b7100000000000000000000000000000000000000000000000000000000600052604160045260246000fd5b610a88826108a0565b810181811067ffffffffffffffff82111715610aa757610aa6610a50565b5b80604052505050565b6000610aba610799565b9050610ac68282610a7f565b919050565b600067ffffffffffffffff821115610ae657610ae5610a50565b5b610aef826108a0565b9050602081019050919050565b82818337600083830152505050565b6000610b1e610b1984610acb565b610ab0565b905082815260208101848484011115610b3a57610b39610a4b565b5b610b45848285610afc565b509392505050565b600082601f830112610b6257610b61610a46565b5b8135610b72848260208601610b0b565b91505092915050565b610b84816108ea565b8114610b8f57600080fd5b50565b600081359050610ba181610b7b565b92915050565b60008060008060808587031215610bc157610bc06107a3565b5b6000610bcf878288016109ce565b945050602085013567ffffffffffffffff811115610bf057610bef6107a8565b5b610bfc87828801610b4d565b935050604085013567ffffffffffffffff811115610c1d57610c1c6107a8565b5b610c2987828801610b4d565b9250506060610c3a87828801610b92565b91505092959194509250565b610c4f816107ad565b82525050565b6000602082019050610c6a6000830184610c46565b92915050565b7f4e487b7100000000000000000000000000000000000000000000000000000000600052603260045260246000fd5b7f4e487b7100000000000000000000000000000000000000000000000000000000600052602260045260246000fd5b60006002820490506001821680610ce657607f821691505b60208210811415610cfa57610cf9610c9f565b5b50919050565b7f4e487b7100000000000000000000000000000000000000000000000000000000600052601160045260246000fd5b6000610d3a826107ad565b9150610d45836107ad565b925082821015610d5857610d57610d00565b5b82820390509291505056fea26469706673582212205ca82b008fe3f276fdb4f2474484034f6f284e0767bcb4a825011e20819e179c64736f6c634300080c0033",
  "immutableReferences": {},
  "source": "// SPDX-License-Identifier: MIT\r\npragma solidity >=0.7.0 <0.9.10;\r\n\r\n\r\ncontract Main {\r\n\r\n    event NewOrganization(address user, string name);\r\n    event LogNewUser(address indexed userAddress, uint index, bytes32 userEmail, uint userAge);\r\n\r\n    struct Organization{\r\n        address admin;\r\n        string name;\r\n        string addressO;\r\n        uint32 telephone;\r\n        uint index;\r\n    }\r\n\r\n    Organization[] private organizations;\r\n    address[] private userIndex;\r\n    \r\n    mapping(address => Organization) private addressToOrganization;\r\n    uint orgCount;\r\n\r\n    function isUser(address userAddress)\r\n        public \r\n        view\r\n        returns(bool isIndeed) \r\n    {\r\n        if(userIndex.length == 0) return false;\r\n        return (userIndex[addressToOrganization[userAddress].index] == userAddress);\r\n    }\r\n\r\n    function insertUser(\r\n        address userAddress, \r\n        string memory name,\r\n        string memory addressO,\r\n        uint32 telephone) \r\n        public\r\n        returns(uint index)\r\n    {\r\n        if(isUser(userAddress)) revert(); \r\n        addressToOrganization[userAddress].name = name;\r\n        addressToOrganization[userAddress].addressO   = addressO;\r\n        addressToOrganization[userAddress].telephone   = telephone;\r\n        userIndex.push(userAddress);\r\n        organizations.push(Organization(userAddress, name, addressO, telephone, organizations.length));\r\n        addressToOrganization[userAddress].index = userIndex.length - 1;\r\n        return userIndex.length-1;\r\n    }\r\n\r\n    function getOrg(uint _memberId) public view returns(Organization memory) {\r\n        return organizations[_memberId];\r\n  }\r\n\r\n\r\n}\r\n",
  "sourcePath": "D:\\GIT\\inventory-blockchain\\blockchain\\contracts\\Main.sol",
  "compiler": {
    "name": "solc",
    "version": "0.8.12+commit.f00d7308.Emscripten.clang"
  },
  "schemaVersion": "3.4.6",
  "updatedAt": "2022-03-28T16:58:45.121Z",
  "networkType": "ethereum",
  "devdoc": {
    "kind": "dev",
    "methods": {},
    "version": 1
  },
  "userdoc": {
    "kind": "user",
    "methods": {},
    "version": 1
  }
}