{
  "contractName": "Main",
  "abi": [
    {
      "anonymous": false,
      "inputs": [
        {
          "indexed": true,
          "internalType": "address",
          "name": "userAddress",
          "type": "address"
        },
        {
          "indexed": false,
          "internalType": "uint256",
          "name": "index",
          "type": "uint256"
        },
        {
          "indexed": false,
          "internalType": "bytes32",
          "name": "userEmail",
          "type": "bytes32"
        },
        {
          "indexed": false,
          "internalType": "uint256",
          "name": "userAge",
          "type": "uint256"
        }
      ],
      "name": "LogNewUser",
      "type": "event"
    },
    {
      "anonymous": false,
      "inputs": [
        {
          "indexed": false,
          "internalType": "address",
          "name": "user",
          "type": "address"
        },
        {
          "indexed": false,
          "internalType": "string",
          "name": "name",
          "type": "string"
        }
      ],
      "name": "NewOrganization",
      "type": "event"
    },
    {
      "inputs": [
        {
          "internalType": "address",
          "name": "",
          "type": "address"
        }
      ],
      "name": "addressToOrganizationIndex",
      "outputs": [
        {
          "internalType": "uint256",
          "name": "",
          "type": "uint256"
        }
      ],
      "stateMutability": "view",
      "type": "function",
      "constant": true
    },
    {
      "inputs": [
        {
          "internalType": "address",
          "name": "admin",
          "type": "address"
        },
        {
          "internalType": "string",
          "name": "name",
          "type": "string"
        },
        {
          "internalType": "string",
          "name": "lastname",
          "type": "string"
        },
        {
          "internalType": "string",
          "name": "email",
          "type": "string"
        },
        {
          "internalType": "uint32",
          "name": "adTelephone",
          "type": "uint32"
        },
        {
          "internalType": "string",
          "name": "orgName",
          "type": "string"
        },
        {
          "internalType": "string",
          "name": "orgAddress",
          "type": "string"
        },
        {
          "internalType": "uint32",
          "name": "orgTelephone",
          "type": "uint32"
        }
      ],
      "name": "insertOrgAndAdmin",
      "outputs": [],
      "stateMutability": "nonpayable",
      "type": "function"
    },
    {
      "inputs": [
        {
          "internalType": "address",
          "name": "userAddress",
          "type": "address"
        }
      ],
      "name": "isAdministrator",
      "outputs": [
        {
          "internalType": "bool",
          "name": "isIndeed",
          "type": "bool"
        }
      ],
      "stateMutability": "view",
      "type": "function",
      "constant": true
    },
    {
      "inputs": [
        {
          "internalType": "uint256",
          "name": "_orgId",
          "type": "uint256"
        }
      ],
      "name": "getOrg",
      "outputs": [
        {
          "components": [
            {
              "internalType": "address",
              "name": "admin",
              "type": "address"
            },
            {
              "internalType": "string",
              "name": "name",
              "type": "string"
            },
            {
              "internalType": "string",
              "name": "addressO",
              "type": "string"
            },
            {
              "internalType": "uint32",
              "name": "telephone",
              "type": "uint32"
            },
            {
              "internalType": "uint256",
              "name": "index",
              "type": "uint256"
            }
          ],
          "internalType": "struct Main.Organization",
          "name": "",
          "type": "tuple"
        }
      ],
      "stateMutability": "view",
      "type": "function",
      "constant": true
    },
    {
      "inputs": [
        {
          "internalType": "address",
          "name": "userAddress",
          "type": "address"
        }
      ],
      "name": "getAdminToOrg",
      "outputs": [
        {
          "internalType": "uint256",
          "name": "userid",
          "type": "uint256"
        }
      ],
      "stateMutability": "view",
      "type": "function",
      "constant": true
    },
    {
      "inputs": [
        {
          "internalType": "address",
          "name": "userAddress",
          "type": "address"
        }
      ],
      "name": "getOrgFromAddress",
      "outputs": [
        {
          "components": [
            {
              "internalType": "address",
              "name": "admin",
              "type": "address"
            },
            {
              "internalType": "string",
              "name": "name",
              "type": "string"
            },
            {
              "internalType": "string",
              "name": "addressO",
              "type": "string"
            },
            {
              "internalType": "uint32",
              "name": "telephone",
              "type": "uint32"
            },
            {
              "internalType": "uint256",
              "name": "index",
              "type": "uint256"
            }
          ],
          "internalType": "struct Main.Organization",
          "name": "org",
          "type": "tuple"
        }
      ],
      "stateMutability": "view",
      "type": "function",
      "constant": true
    },
    {
      "inputs": [
        {
          "internalType": "string",
          "name": "name",
          "type": "string"
        },
        {
          "internalType": "uint256",
          "name": "organizationId",
          "type": "uint256"
        },
        {
          "internalType": "uint256",
          "name": "adquireDate",
          "type": "uint256"
        },
        {
          "internalType": "uint256",
          "name": "creationDate",
          "type": "uint256"
        },
        {
          "internalType": "string",
          "name": "assetType",
          "type": "string"
        }
      ],
      "name": "insertAsset",
      "outputs": [],
      "stateMutability": "nonpayable",
      "type": "function"
    },
    {
      "inputs": [
        {
          "internalType": "uint256",
          "name": "id",
          "type": "uint256"
        }
      ],
      "name": "getAsset",
      "outputs": [
        {
          "components": [
            {
              "internalType": "string",
              "name": "name",
              "type": "string"
            },
            {
              "internalType": "uint256",
              "name": "organziationId",
              "type": "uint256"
            },
            {
              "internalType": "uint256",
              "name": "adquireDate",
              "type": "uint256"
            },
            {
              "internalType": "uint256",
              "name": "creationDate",
              "type": "uint256"
            },
            {
              "internalType": "string",
              "name": "assetType",
              "type": "string"
            },
            {
              "internalType": "uint256",
              "name": "index",
              "type": "uint256"
            }
          ],
          "internalType": "struct Main.Asset",
          "name": "",
          "type": "tuple"
        }
      ],
      "stateMutability": "view",
      "type": "function",
      "constant": true
    },
    {
      "inputs": [
        {
          "internalType": "uint256",
          "name": "_adminId",
          "type": "uint256"
        }
      ],
      "name": "getAdmin",
      "outputs": [
        {
          "components": [
            {
              "internalType": "address",
              "name": "admin",
              "type": "address"
            },
            {
              "internalType": "string",
              "name": "name",
              "type": "string"
            },
            {
              "internalType": "string",
              "name": "lastname",
              "type": "string"
            },
            {
              "internalType": "string",
              "name": "email",
              "type": "string"
            },
            {
              "internalType": "uint32",
              "name": "telephone",
              "type": "uint32"
            },
            {
              "internalType": "uint256",
              "name": "index",
              "type": "uint256"
            }
          ],
          "internalType": "struct Main.Admin",
          "name": "",
          "type": "tuple"
        }
      ],
      "stateMutability": "view",
      "type": "function",
      "constant": true
    },
    {
      "inputs": [
        {
          "internalType": "uint256",
          "name": "_orgId",
          "type": "uint256"
        }
      ],
      "name": "getAllAssetsFromOrg",
      "outputs": [
        {
          "components": [
            {
              "internalType": "string",
              "name": "name",
              "type": "string"
            },
            {
              "internalType": "uint256",
              "name": "organziationId",
              "type": "uint256"
            },
            {
              "internalType": "uint256",
              "name": "adquireDate",
              "type": "uint256"
            },
            {
              "internalType": "uint256",
              "name": "creationDate",
              "type": "uint256"
            },
            {
              "internalType": "string",
              "name": "assetType",
              "type": "string"
            },
            {
              "internalType": "uint256",
              "name": "index",
              "type": "uint256"
            }
          ],
          "internalType": "struct Main.Asset[]",
          "name": "",
          "type": "tuple[]"
        },
        {
          "components": [
            {
              "internalType": "string",
              "name": "name",
              "type": "string"
            },
            {
              "internalType": "uint256",
              "name": "organziationId",
              "type": "uint256"
            },
            {
              "internalType": "uint256",
              "name": "adquireDate",
              "type": "uint256"
            },
            {
              "internalType": "uint256",
              "name": "creationDate",
              "type": "uint256"
            },
            {
              "internalType": "string",
              "name": "assetType",
              "type": "string"
            },
            {
              "internalType": "bool",
              "name": "deleted",
              "type": "bool"
            },
            {
              "internalType": "uint256",
              "name": "index",
              "type": "uint256"
            }
          ],
          "internalType": "struct Main.AssetEdited[]",
          "name": "",
          "type": "tuple[]"
        }
      ],
      "stateMutability": "view",
      "type": "function",
      "constant": true
    },
    {
      "inputs": [
        {
          "internalType": "uint256",
          "name": "originalAssetId",
          "type": "uint256"
        },
        {
          "internalType": "string",
          "name": "name",
          "type": "string"
        },
        {
          "internalType": "uint256",
          "name": "organizationId",
          "type": "uint256"
        },
        {
          "internalType": "uint256",
          "name": "adquireDate",
          "type": "uint256"
        },
        {
          "internalType": "uint256",
          "name": "creationDate",
          "type": "uint256"
        },
        {
          "internalType": "bool",
          "name": "deleted",
          "type": "bool"
        },
        {
          "internalType": "string",
          "name": "assetType",
          "type": "string"
        }
      ],
      "name": "insertEditedAsset",
      "outputs": [],
      "stateMutability": "nonpayable",
      "type": "function"
    },
    {
      "inputs": [
        {
          "internalType": "uint256",
          "name": "orgId",
          "type": "uint256"
        }
      ],
      "name": "getAssetsDeleted",
      "outputs": [
        {
          "components": [
            {
              "internalType": "string",
              "name": "name",
              "type": "string"
            },
            {
              "internalType": "uint256",
              "name": "organziationId",
              "type": "uint256"
            },
            {
              "internalType": "uint256",
              "name": "adquireDate",
              "type": "uint256"
            },
            {
              "internalType": "uint256",
              "name": "creationDate",
              "type": "uint256"
            },
            {
              "internalType": "string",
              "name": "assetType",
              "type": "string"
            },
            {
              "internalType": "bool",
              "name": "deleted",
              "type": "bool"
            },
            {
              "internalType": "uint256",
              "name": "index",
              "type": "uint256"
            }
          ],
          "internalType": "struct Main.AssetEdited[]",
          "name": "",
          "type": "tuple[]"
        }
      ],
      "stateMutability": "view",
      "type": "function",
      "constant": true
    },
    {
      "inputs": [
        {
          "internalType": "uint256",
          "name": "idAsset",
          "type": "uint256"
        }
      ],
      "name": "getIsAssetEdited",
      "outputs": [
        {
          "internalType": "bool",
          "name": "result",
          "type": "bool"
        }
      ],
      "stateMutability": "view",
      "type": "function",
      "constant": true
    },
    {
      "inputs": [
        {
          "internalType": "uint256",
          "name": "idAsset",
          "type": "uint256"
        }
      ],
      "name": "getIsAssetDeleted",
      "outputs": [
        {
          "internalType": "bool",
          "name": "result",
          "type": "bool"
        }
      ],
      "stateMutability": "view",
      "type": "function",
      "constant": true
    }
  ],
  "bytecode": "0x608060405234801561001057600080fd5b50612a51806100206000396000f3fe608060405234801561001057600080fd5b50600436106100ea5760003560e01c80634e4369c41161008c578063de93f53911610066578063de93f539146102a8578063e6419ee6146102d8578063e81ef319146102f4578063eac8f5b814610324576100ea565b80634e4369c41461022b5780638ab95a331461025b578063de7946fc14610277576100ea565b80631744c800116100c85780631744c8001461017f5780632360c27f1461019b5780633fc07290146101cb578063415de94c146101fb576100ea565b80630a2eb301146100ef578063111fd88b1461011f578063151c3f441461014f575b600080fd5b61010960048036038101906101049190611d94565b610354565b6040516101169190611ddc565b60405180910390f35b61013960048036038101906101349190611e2d565b610420565b6040516101469190611fc7565b60405180910390f35b61016960048036038101906101649190611e2d565b610698565b6040516101769190611ddc565b60405180910390f35b6101996004803603810190610194919061211e565b6106e7565b005b6101b560048036038101906101b09190611e2d565b6108ed565b6040516101c2919061224e565b60405180910390f35b6101e560048036038101906101e09190611d94565b610ad3565b6040516101f2919061224e565b60405180910390f35b61021560048036038101906102109190611d94565b610b12565b604051610222919061227f565b60405180910390f35b61024560048036038101906102409190611d94565b610b2a565b604051610252919061227f565b60405180910390f35b610275600480360381019061027091906122c6565b610b73565b005b610291600480360381019061028c9190611e2d565b610c0c565b60405161029f9291906126ce565b60405180910390f35b6102c260048036038101906102bd9190611e2d565b61118b565b6040516102cf9190612705565b60405180910390f35b6102f260048036038101906102ed9190612753565b611410565b005b61030e60048036038101906103099190611e2d565b611693565b60405161031b9190611ddc565b60405180910390f35b61033e60048036038101906103399190611e2d565b6116e2565b60405161034b91906128bd565b60405180910390f35b600080600480549050141561036c576000905061041b565b8173ffffffffffffffffffffffffffffffffffffffff166004600560008573ffffffffffffffffffffffffffffffffffffffff1673ffffffffffffffffffffffffffffffffffffffff16815260200190815260200160002054815481106103d6576103d56128df565b5b9060005260206000200160009054906101000a900473ffffffffffffffffffffffffffffffffffffffff1673ffffffffffffffffffffffffffffffffffffffff161490505b919050565b610428611b6d565b6002828154811061043c5761043b6128df565b5b90600052602060002090600602016040518060c00160405290816000820160009054906101000a900473ffffffffffffffffffffffffffffffffffffffff1673ffffffffffffffffffffffffffffffffffffffff1673ffffffffffffffffffffffffffffffffffffffff1681526020016001820180546104bb9061293d565b80601f01602080910402602001604051908101604052809291908181526020018280546104e79061293d565b80156105345780601f1061050957610100808354040283529160200191610534565b820191906000526020600020905b81548152906001019060200180831161051757829003601f168201915b5050505050815260200160028201805461054d9061293d565b80601f01602080910402602001604051908101604052809291908181526020018280546105799061293d565b80156105c65780601f1061059b576101008083540402835291602001916105c6565b820191906000526020600020905b8154815290600101906020018083116105a957829003601f168201915b505050505081526020016003820180546105df9061293d565b80601f016020809104026020016040519081016040528092919081815260200182805461060b9061293d565b80156106585780601f1061062d57610100808354040283529160200191610658565b820191906000526020600020905b81548152906001019060200180831161063b57829003601f168201915b505050505081526020016004820160009054906101000a900463ffffffff1663ffffffff1663ffffffff1681526020016005820154815250509050919050565b6000600b60008381526020019081526020016000206000815481106106c0576106bf6128df565b5b90600052602060002090602091828204019190069054906101000a900460ff169050919050565b60066040518060c0016040528087815260200186815260200185815260200184815260200183815260200160068054905081525090806001815401808255809150506001900390600052602060002090600602016000909190919091506000820151816000019080519060200190610760929190611bbf565b50602082015181600101556040820151816002015560608201518160030155608082015181600401908051906020019061079b929190611bbf565b5060a0820151816005015550506007600085815260200190815260200160002060016006805490506107cd919061299e565b9080600181540180825580915050600190039060005260206000200160009091909190915055600b60006001600680549050610809919061299e565b8152602001908152602001600020600090806001815401808255809150506001900390600052602060002090602091828204019190069091909190916101000a81548160ff021916908315150217905550600b60006001600680549050610870919061299e565b8152602001908152602001600020600090806001815401808255809150506001900390600052602060002090602091828204019190069091909190916101000a81548160ff021916908315150217905550600a600060016006805490506108d7919061299e565b8152602001908152602001600020505050505050565b6108f5611c45565b60008281548110610909576109086128df565b5b90600052602060002090600502016040518060a00160405290816000820160009054906101000a900473ffffffffffffffffffffffffffffffffffffffff1673ffffffffffffffffffffffffffffffffffffffff1673ffffffffffffffffffffffffffffffffffffffff1681526020016001820180546109889061293d565b80601f01602080910402602001604051908101604052809291908181526020018280546109b49061293d565b8015610a015780601f106109d657610100808354040283529160200191610a01565b820191906000526020600020905b8154815290600101906020018083116109e457829003601f168201915b50505050508152602001600282018054610a1a9061293d565b80601f0160208091040260200160405190810160405280929190818152602001828054610a469061293d565b8015610a935780601f10610a6857610100808354040283529160200191610a93565b820191906000526020600020905b815481529060010190602001808311610a7657829003601f168201915b505050505081526020016003820160009054906101000a900463ffffffff1663ffffffff1663ffffffff1681526020016004820154815250509050919050565b610adb611c45565b610ae482610354565b15610aee57600080fd5b6000610af983610b2a565b90506000610b06826108ed565b90508092505050919050565b60056020528060005260406000206000915090505481565b6000600560008373ffffffffffffffffffffffffffffffffffffffff1673ffffffffffffffffffffffffffffffffffffffff168152602001908152602001600020549050919050565b610b7c88610354565b15610b8657600080fd5b610b93888888888861186a565b610b9f888484846119d3565b6004889080600181540180825580915050600190039060005260206000200160009091909190916101000a81548173ffffffffffffffffffffffffffffffffffffffff021916908373ffffffffffffffffffffffffffffffffffffffff1602179055505050505050505050565b60608060006007600085815260200190815260200160002080549050905060008167ffffffffffffffff811115610c4657610c45611ff3565b5b604051908082528060200260200182016040528015610c7f57816020015b610c6c611c90565b815260200190600190039081610c645790505b50905060008267ffffffffffffffff811115610c9e57610c9d611ff3565b5b604051908082528060200260200182016040528015610cd757816020015b610cc4611cc6565b815260200190600190039081610cbc5790505b50905060005b8381101561117c57600b6000828152602001908152602001600020600181548110610d0b57610d0a6128df565b5b90600052602060002090602091828204019190069054906101000a900460ff1615610d3557611169565b60011515600b6000838152602001908152602001600020600081548110610d5f57610d5e6128df565b5b90600052602060002090602091828204019190069054906101000a900460ff1615151415610f9b5760006001600a600084815260200190815260200160002080549050610dac919061299e565b90506000600a60008481526020019081526020016000208281548110610dd557610dd46128df565b5b9060005260206000200154905060088181548110610df657610df56128df565b5b90600052602060002090600702016040518060e0016040529081600082018054610e1f9061293d565b80601f0160208091040260200160405190810160405280929190818152602001828054610e4b9061293d565b8015610e985780601f10610e6d57610100808354040283529160200191610e98565b820191906000526020600020905b815481529060010190602001808311610e7b57829003601f168201915b50505050508152602001600182015481526020016002820154815260200160038201548152602001600482018054610ecf9061293d565b80601f0160208091040260200160405190810160405280929190818152602001828054610efb9061293d565b8015610f485780601f10610f1d57610100808354040283529160200191610f48565b820191906000526020600020905b815481529060010190602001808311610f2b57829003601f168201915b505050505081526020016005820160009054906101000a900460ff16151515158152602001600682015481525050848481518110610f8957610f886128df565b5b60200260200101819052505050611168565b6000600760008981526020019081526020016000208281548110610fc257610fc16128df565b5b9060005260206000200154905060068181548110610fe357610fe26128df565b5b90600052602060002090600602016040518060c001604052908160008201805461100c9061293d565b80601f01602080910402602001604051908101604052809291908181526020018280546110389061293d565b80156110855780601f1061105a57610100808354040283529160200191611085565b820191906000526020600020905b81548152906001019060200180831161106857829003601f168201915b505050505081526020016001820154815260200160028201548152602001600382015481526020016004820180546110bc9061293d565b80601f01602080910402602001604051908101604052809291908181526020018280546110e89061293d565b80156111355780601f1061110a57610100808354040283529160200191611135565b820191906000526020600020905b81548152906001019060200180831161111857829003601f168201915b5050505050815260200160058201548152505084838151811061115b5761115a6128df565b5b6020026020010181905250505b5b8080611174906129d2565b915050610cdd565b50818194509450505050915091565b60606000600c600084815260200190815260200160002080549050905060008167ffffffffffffffff8111156111c4576111c3611ff3565b5b6040519080825280602002602001820160405280156111fd57816020015b6111ea611cc6565b8152602001906001900390816111e25790505b50905060005b82811015611405576000600c60008781526020019081526020016000208281548110611232576112316128df565b5b9060005260206000200154905060088181548110611253576112526128df565b5b90600052602060002090600702016040518060e001604052908160008201805461127c9061293d565b80601f01602080910402602001604051908101604052809291908181526020018280546112a89061293d565b80156112f55780601f106112ca576101008083540402835291602001916112f5565b820191906000526020600020905b8154815290600101906020018083116112d857829003601f168201915b5050505050815260200160018201548152602001600282015481526020016003820154815260200160048201805461132c9061293d565b80601f01602080910402602001604051908101604052809291908181526020018280546113589061293d565b80156113a55780601f1061137a576101008083540402835291602001916113a5565b820191906000526020600020905b81548152906001019060200180831161138857829003601f168201915b505050505081526020016005820160009054906101000a900460ff161515151581526020016006820154815250508383815181106113e6576113e56128df565b5b60200260200101819052505080806113fd906129d2565b915050611203565b508092505050919050565b600b6000888152602001908152602001600020600081548110611436576114356128df565b5b90600052602060002090602091828204019190069054906101000a900460ff166114ac576001600b6000898152602001908152602001600020600081548110611482576114816128df565b5b90600052602060002090602091828204019190066101000a81548160ff0219169083151502179055505b60086040518060e0016040528088815260200187815260200186815260200185815260200183815260200184151581526020016008805490508152509080600181540180825580915050600190039060005260206000209060070201600090919091909150600082015181600001908051906020019061152d929190611bbf565b506020820151816001015560408201518160020155606082015181600301556080820151816004019080519060200190611568929190611bbf565b5060a08201518160050160006101000a81548160ff02191690831515021790555060c082015181600601555050600a600088815260200190815260200160002060016008805490506115ba919061299e565b908060018154018082558091505060019003906000526020600020016000909190919091505560011515821515141561168a57600c60008681526020019081526020016000206001600880549050611612919061299e565b90806001815401808255809150506001900390600052602060002001600090919091909150556001600b60008981526020019081526020016000206001815481106116605761165f6128df565b5b90600052602060002090602091828204019190066101000a81548160ff0219169083151502179055505b50505050505050565b6000600b60008381526020019081526020016000206001815481106116bb576116ba6128df565b5b90600052602060002090602091828204019190069054906101000a900460ff169050919050565b6116ea611c90565b600682815481106116fe576116fd6128df565b5b90600052602060002090600602016040518060c00160405290816000820180546117279061293d565b80601f01602080910402602001604051908101604052809291908181526020018280546117539061293d565b80156117a05780601f10611775576101008083540402835291602001916117a0565b820191906000526020600020905b81548152906001019060200180831161178357829003601f168201915b505050505081526020016001820154815260200160028201548152602001600382015481526020016004820180546117d79061293d565b80601f01602080910402602001604051908101604052809291908181526020018280546118039061293d565b80156118505780601f1061182557610100808354040283529160200191611850565b820191906000526020600020905b81548152906001019060200180831161183357829003601f168201915b505050505081526020016005820154815250509050919050565b60026040518060c001604052808773ffffffffffffffffffffffffffffffffffffffff1681526020018681526020018581526020018481526020018363ffffffff168152602001600280549050815250908060018154018082558091505060019003906000526020600020906006020160009091909190915060008201518160000160006101000a81548173ffffffffffffffffffffffffffffffffffffffff021916908373ffffffffffffffffffffffffffffffffffffffff1602179055506020820151816001019080519060200190611946929190611bbf565b506040820151816002019080519060200190611963929190611bbf565b506060820151816003019080519060200190611980929190611bbf565b5060808201518160040160006101000a81548163ffffffff021916908363ffffffff16021790555060a082015181600501555050600360008154809291906119c7906129d2565b91905055505050505050565b60006040518060a001604052808673ffffffffffffffffffffffffffffffffffffffff1681526020018581526020018481526020018363ffffffff168152602001600080549050815250908060018154018082558091505060019003906000526020600020906005020160009091909190915060008201518160000160006101000a81548173ffffffffffffffffffffffffffffffffffffffff021916908373ffffffffffffffffffffffffffffffffffffffff1602179055506020820151816001019080519060200190611aa9929190611bbf565b506040820151816002019080519060200190611ac6929190611bbf565b5060608201518160030160006101000a81548163ffffffff021916908363ffffffff16021790555060808201518160040155505060016000815480929190611b0d906129d2565b91905055506001600080549050611b24919061299e565b600560008673ffffffffffffffffffffffffffffffffffffffff1673ffffffffffffffffffffffffffffffffffffffff1681526020019081526020016000208190555050505050565b6040518060c00160405280600073ffffffffffffffffffffffffffffffffffffffff168152602001606081526020016060815260200160608152602001600063ffffffff168152602001600081525090565b828054611bcb9061293d565b90600052602060002090601f016020900481019282611bed5760008555611c34565b82601f10611c0657805160ff1916838001178555611c34565b82800160010185558215611c34579182015b82811115611c33578251825591602001919060010190611c18565b5b509050611c419190611d05565b5090565b6040518060a00160405280600073ffffffffffffffffffffffffffffffffffffffff1681526020016060815260200160608152602001600063ffffffff168152602001600081525090565b6040518060c001604052806060815260200160008152602001600081526020016000815260200160608152602001600081525090565b6040518060e001604052806060815260200160008152602001600081526020016000815260200160608152602001600015158152602001600081525090565b5b80821115611d1e576000816000905550600101611d06565b5090565b6000604051905090565b600080fd5b600080fd5b600073ffffffffffffffffffffffffffffffffffffffff82169050919050565b6000611d6182611d36565b9050919050565b611d7181611d56565b8114611d7c57600080fd5b50565b600081359050611d8e81611d68565b92915050565b600060208284031215611daa57611da9611d2c565b5b6000611db884828501611d7f565b91505092915050565b60008115159050919050565b611dd681611dc1565b82525050565b6000602082019050611df16000830184611dcd565b92915050565b6000819050919050565b611e0a81611df7565b8114611e1557600080fd5b50565b600081359050611e2781611e01565b92915050565b600060208284031215611e4357611e42611d2c565b5b6000611e5184828501611e18565b91505092915050565b611e6381611d56565b82525050565b600081519050919050565b600082825260208201905092915050565b60005b83811015611ea3578082015181840152602081019050611e88565b83811115611eb2576000848401525b50505050565b6000601f19601f8301169050919050565b6000611ed482611e69565b611ede8185611e74565b9350611eee818560208601611e85565b611ef781611eb8565b840191505092915050565b600063ffffffff82169050919050565b611f1b81611f02565b82525050565b611f2a81611df7565b82525050565b600060c083016000830151611f486000860182611e5a565b5060208301518482036020860152611f608282611ec9565b91505060408301518482036040860152611f7a8282611ec9565b91505060608301518482036060860152611f948282611ec9565b9150506080830151611fa96080860182611f12565b5060a0830151611fbc60a0860182611f21565b508091505092915050565b60006020820190508181036000830152611fe18184611f30565b905092915050565b600080fd5b600080fd5b7f4e487b7100000000000000000000000000000000000000000000000000000000600052604160045260246000fd5b61202b82611eb8565b810181811067ffffffffffffffff8211171561204a57612049611ff3565b5b80604052505050565b600061205d611d22565b90506120698282612022565b919050565b600067ffffffffffffffff82111561208957612088611ff3565b5b61209282611eb8565b9050602081019050919050565b82818337600083830152505050565b60006120c16120bc8461206e565b612053565b9050828152602081018484840111156120dd576120dc611fee565b5b6120e884828561209f565b509392505050565b600082601f83011261210557612104611fe9565b5b81356121158482602086016120ae565b91505092915050565b600080600080600060a0868803121561213a57612139611d2c565b5b600086013567ffffffffffffffff81111561215857612157611d31565b5b612164888289016120f0565b955050602061217588828901611e18565b945050604061218688828901611e18565b935050606061219788828901611e18565b925050608086013567ffffffffffffffff8111156121b8576121b7611d31565b5b6121c4888289016120f0565b9150509295509295909350565b600060a0830160008301516121e96000860182611e5a565b50602083015184820360208601526122018282611ec9565b9150506040830151848203604086015261221b8282611ec9565b91505060608301516122306060860182611f12565b5060808301516122436080860182611f21565b508091505092915050565b6000602082019050818103600083015261226881846121d1565b905092915050565b61227981611df7565b82525050565b60006020820190506122946000830184612270565b92915050565b6122a381611f02565b81146122ae57600080fd5b50565b6000813590506122c08161229a565b92915050565b600080600080600080600080610100898b0312156122e7576122e6611d2c565b5b60006122f58b828c01611d7f565b985050602089013567ffffffffffffffff81111561231657612315611d31565b5b6123228b828c016120f0565b975050604089013567ffffffffffffffff81111561234357612342611d31565b5b61234f8b828c016120f0565b965050606089013567ffffffffffffffff8111156123705761236f611d31565b5b61237c8b828c016120f0565b955050608061238d8b828c016122b1565b94505060a089013567ffffffffffffffff8111156123ae576123ad611d31565b5b6123ba8b828c016120f0565b93505060c089013567ffffffffffffffff8111156123db576123da611d31565b5b6123e78b828c016120f0565b92505060e06123f88b828c016122b1565b9150509295985092959890939650565b600081519050919050565b600082825260208201905092915050565b6000819050602082019050919050565b600060c08301600083015184820360008601526124518282611ec9565b91505060208301516124666020860182611f21565b5060408301516124796040860182611f21565b50606083015161248c6060860182611f21565b50608083015184820360808601526124a48282611ec9565b91505060a08301516124b960a0860182611f21565b508091505092915050565b60006124d08383612434565b905092915050565b6000602082019050919050565b60006124f082612408565b6124fa8185612413565b93508360208202850161250c85612424565b8060005b85811015612548578484038952815161252985826124c4565b9450612534836124d8565b925060208a01995050600181019050612510565b50829750879550505050505092915050565b600081519050919050565b600082825260208201905092915050565b6000819050602082019050919050565b61258f81611dc1565b82525050565b600060e08301600083015184820360008601526125b28282611ec9565b91505060208301516125c76020860182611f21565b5060408301516125da6040860182611f21565b5060608301516125ed6060860182611f21565b50608083015184820360808601526126058282611ec9565b91505060a083015161261a60a0860182612586565b5060c083015161262d60c0860182611f21565b508091505092915050565b60006126448383612595565b905092915050565b6000602082019050919050565b60006126648261255a565b61266e8185612565565b93508360208202850161268085612576565b8060005b858110156126bc578484038952815161269d8582612638565b94506126a88361264c565b925060208a01995050600181019050612684565b50829750879550505050505092915050565b600060408201905081810360008301526126e881856124e5565b905081810360208301526126fc8184612659565b90509392505050565b6000602082019050818103600083015261271f8184612659565b905092915050565b61273081611dc1565b811461273b57600080fd5b50565b60008135905061274d81612727565b92915050565b600080600080600080600060e0888a03121561277257612771611d2c565b5b60006127808a828b01611e18565b975050602088013567ffffffffffffffff8111156127a1576127a0611d31565b5b6127ad8a828b016120f0565b96505060406127be8a828b01611e18565b95505060606127cf8a828b01611e18565b94505060806127e08a828b01611e18565b93505060a06127f18a828b0161273e565b92505060c088013567ffffffffffffffff81111561281257612811611d31565b5b61281e8a828b016120f0565b91505092959891949750929550565b600060c083016000830151848203600086015261284a8282611ec9565b915050602083015161285f6020860182611f21565b5060408301516128726040860182611f21565b5060608301516128856060860182611f21565b506080830151848203608086015261289d8282611ec9565b91505060a08301516128b260a0860182611f21565b508091505092915050565b600060208201905081810360008301526128d7818461282d565b905092915050565b7f4e487b7100000000000000000000000000000000000000000000000000000000600052603260045260246000fd5b7f4e487b7100000000000000000000000000000000000000000000000000000000600052602260045260246000fd5b6000600282049050600182168061295557607f821691505b602082108114156129695761296861290e565b5b50919050565b7f4e487b7100000000000000000000000000000000000000000000000000000000600052601160045260246000fd5b60006129a982611df7565b91506129b483611df7565b9250828210156129c7576129c661296f565b5b828203905092915050565b60006129dd82611df7565b91507fffffffffffffffffffffffffffffffffffffffffffffffffffffffffffffffff821415612a1057612a0f61296f565b5b60018201905091905056fea26469706673582212206621f5fb23c2e0abce77dcbf8984f2c5b74ae90a68a6c67142c2e968f07337e664736f6c634300080c0033",
  "immutableReferences": {},
  "source": "// SPDX-License-Identifier: MIT\r\npragma solidity >=0.7.0 <0.9.10;\r\n\r\ncontract Main {\r\n    //EVENTS\r\n    event NewOrganization(address user, string name);\r\n    event LogNewUser(\r\n        address indexed userAddress,\r\n        uint256 index,\r\n        bytes32 userEmail,\r\n        uint256 userAge\r\n    );\r\n\r\n    //STRUCTS\r\n    struct Organization {\r\n        address admin;\r\n        string name;\r\n        string addressO;\r\n        uint32 telephone;\r\n        uint256 index;\r\n    }\r\n\r\n    struct Admin {\r\n        address admin;\r\n        string name;\r\n        string lastname;\r\n        string email;\r\n        uint32 telephone;\r\n        uint256 index;\r\n    }\r\n\r\n    //DATA\r\n    Organization[] private organizations;\r\n    uint256 orgCount;\r\n\r\n    Admin[] private admins;\r\n    uint256 adminsCount;\r\n\r\n    //List of users with a org created (administrators)\r\n    address[] private administrators;\r\n\r\n    mapping(address => uint256) public addressToOrganizationIndex;\r\n\r\n    //FUNCTIONS\r\n\r\n    //data created with organization\r\n    function insertOrgAndAdmin(\r\n        address admin,\r\n        string memory name,\r\n        string memory lastname,\r\n        string memory email,\r\n        uint32 adTelephone,\r\n        string memory orgName,\r\n        string memory orgAddress,\r\n        uint32 orgTelephone\r\n    ) public {\r\n        if (isAdministrator(admin)) revert();\r\n        insertAdmin(admin, name, lastname, email, adTelephone);\r\n        insertOrganization(admin, orgName, orgAddress, orgTelephone);\r\n        administrators.push(admin);\r\n    }\r\n\r\n    function insertAdmin(\r\n        address admin,\r\n        string memory name,\r\n        string memory lastname,\r\n        string memory email,\r\n        uint32 telephone\r\n    ) private {\r\n        admins.push(\r\n            (Admin(admin, name, lastname, email, telephone, admins.length))\r\n        );\r\n        adminsCount++;\r\n    }\r\n\r\n    function insertOrganization(\r\n        address userAddress,\r\n        string memory name,\r\n        string memory addressO,\r\n        uint32 telephone\r\n    ) private {\r\n        organizations.push(\r\n            Organization(\r\n                userAddress,\r\n                name,\r\n                addressO,\r\n                telephone,\r\n                organizations.length\r\n            )\r\n        );\r\n        orgCount++;\r\n        addressToOrganizationIndex[userAddress] = organizations.length - 1;\r\n    }\r\n\r\n    // Check if the address has created a org, == is an administrator.\r\n    function isAdministrator(address userAddress)\r\n        public\r\n        view\r\n        returns (bool isIndeed)\r\n    {\r\n        if (administrators.length == 0) return false;\r\n        return (administrators[addressToOrganizationIndex[userAddress]] ==\r\n            userAddress);\r\n    }\r\n\r\n    function getOrg(uint256 _orgId) public view returns (Organization memory) {\r\n        return organizations[_orgId];\r\n    }\r\n\r\n    function getAdminToOrg(address userAddress)\r\n        public\r\n        view\r\n        returns (uint256 userid)\r\n    {\r\n        return addressToOrganizationIndex[userAddress];\r\n    }\r\n\r\n    //Get the organization if there is an address that created it\r\n    function getOrgFromAddress(address userAddress)\r\n        public\r\n        view\r\n        returns (Organization memory org)\r\n    {\r\n        if (isAdministrator(userAddress)) revert();\r\n        uint256 orgId = getAdminToOrg(userAddress);\r\n        Organization memory organ = getOrg(orgId);\r\n        return organ;\r\n    }\r\n\r\n    //ASSETS TYPE AND FUNCTIONS\r\n    struct Asset {\r\n        string name;\r\n        uint256 organziationId;\r\n        uint256 adquireDate;\r\n        uint256 creationDate;\r\n        string assetType;\r\n        uint256 index;\r\n    }\r\n\r\n    Asset[] private assetsList;\r\n    //uint256 orgCount;\r\n\r\n    //UNNECESARY MAPPING\r\n    //mapping(uint256 => uint256) private assetToOrg;\r\n\r\n    //CREAR UN MAPPING DE ORGANIZACIN (ID) A LISTA DE ASSETS (ID)?\r\n    mapping(uint256 => uint256[]) private assetsFromOrg;\r\n\r\n    //ASSET EDITED INTRODUCES A BOOL DELETED\r\n    struct AssetEdited {\r\n        string name;\r\n        uint256 organziationId;\r\n        uint256 adquireDate;\r\n        uint256 creationDate;\r\n        string assetType;\r\n        bool deleted;\r\n        uint256 index;\r\n    }\r\n\r\n    AssetEdited[] private assetsEditedList;\r\n    //uint256 orgCount;\r\n    mapping(uint256 => uint256) private assetEditedToAsset;\r\n\r\n    //ASSETS ORIGINAL TO LIST OF ASSETS EDITED\r\n    mapping(uint256 => uint256[]) private originalAssetsToEditedList;\r\n\r\n    function insertAsset(\r\n        string memory name,\r\n        uint256 organizationId,\r\n        uint256 adquireDate,\r\n        uint256 creationDate,\r\n        string memory assetType\r\n    ) public {\r\n        assetsList.push(\r\n            (\r\n                Asset(\r\n                    name,\r\n                    organizationId,\r\n                    adquireDate,\r\n                    creationDate,\r\n                    assetType,\r\n                    assetsList.length\r\n                )\r\n            )\r\n        );\r\n        //adminsCount++;\r\n        assetsFromOrg[organizationId].push(assetsList.length - 1);\r\n        assetBoolEditedAndDeleted[assetsList.length - 1].push(false);\r\n        assetBoolEditedAndDeleted[assetsList.length - 1].push(false);\r\n        originalAssetsToEditedList[assetsList.length - 1];\r\n    }\r\n\r\n    function getAsset(uint256 id) public view returns (Asset memory) {\r\n        return assetsList[id];\r\n    }\r\n\r\n    function getAdmin(uint256 _adminId) public view returns (Admin memory) {\r\n        return admins[_adminId];\r\n    }\r\n\r\n    function getAllAssetsFromOrg(uint256 _orgId)\r\n        public\r\n        view\r\n        returns (Asset[] memory, AssetEdited[] memory)\r\n    {\r\n        uint256 cont = assetsFromOrg[_orgId].length;\r\n        Asset[] memory listOrgAssets = new Asset[](cont);\r\n        AssetEdited[] memory listOrgAssetsEdited = new AssetEdited[](cont);\r\n        for (uint256 i = 0; i < cont; i++) {\r\n            //First check if that asset has been deleted\r\n            //so we don't retrieve it\r\n            if (assetBoolEditedAndDeleted[i][1]) {\r\n                continue;\r\n            }\r\n            //Check if asset has been edited in order\r\n            //to retrieve last edited asset\r\n            if (assetBoolEditedAndDeleted[i][0] == true) {\r\n                uint256 lastItem = originalAssetsToEditedList[i].length - 1;\r\n                uint256 assetEditedId = originalAssetsToEditedList[i][lastItem];\r\n                listOrgAssetsEdited[i] = assetsEditedList[assetEditedId];\r\n                //Last case the asset hasn't been edited\r\n            } else {\r\n                uint256 assetId = assetsFromOrg[_orgId][i];\r\n                listOrgAssets[i] = assetsList[assetId];\r\n            }\r\n        }\r\n        return (listOrgAssets, listOrgAssetsEdited);\r\n    }\r\n\r\n    //CREAMOS UNA LISTA QUE RECOGE LOS id de los ASSETS ORIGINALES QUE TIENEN ALGUNA EDICIN\r\n    //uint256[] private assetsOriginalEdited;\r\n\r\n    //CREAR MAPPING DE ID ORIGINAL A LIST OF BOOLEAN\r\n    // QUE INDICA SI EL ID EST EDITADO EN EL PRIMER VALOR\r\n    // EN EL SEGUNDO VALOR INDICA SI EST ELIMINADO\r\n    mapping(uint256 => bool[]) private assetBoolEditedAndDeleted;\r\n    //DE ESTA MANERA PODEMOS VER EN CADA CASO EL ID SI EST EDITADO O ELIMINADO\r\n\r\n    //mapping que relaciona la org con los assets que tiene eliminados\r\n    mapping(uint256 => uint256[]) private assetsFromOrgDeleted;\r\n\r\n    function insertEditedAsset(\r\n        uint256 originalAssetId,\r\n        string memory name,\r\n        uint256 organizationId,\r\n        uint256 adquireDate,\r\n        uint256 creationDate,\r\n        bool deleted,\r\n        string memory assetType\r\n    ) public {\r\n        //CHECK IF THE ASSET IS ALREADY IN ASSETS EDITED LIST\r\n        if (!assetBoolEditedAndDeleted[originalAssetId][0]) {\r\n            assetBoolEditedAndDeleted[originalAssetId][0] = true;\r\n        }\r\n        assetsEditedList.push(\r\n            (\r\n                AssetEdited(\r\n                    name,\r\n                    organizationId,\r\n                    adquireDate,\r\n                    creationDate,\r\n                    assetType,\r\n                    deleted,\r\n                    assetsEditedList.length\r\n                )\r\n            )\r\n        );\r\n        originalAssetsToEditedList[originalAssetId].push(\r\n            assetsEditedList.length - 1\r\n        );\r\n\r\n        if (deleted == true) {\r\n            assetsFromOrgDeleted[organizationId].push(\r\n                assetsEditedList.length - 1\r\n            );\r\n            assetBoolEditedAndDeleted[originalAssetId][1] = true;\r\n        }\r\n    }\r\n\r\n    function getAssetsDeleted(uint256 orgId)\r\n        public\r\n        view\r\n        returns (AssetEdited[] memory)\r\n    {\r\n        uint256 cont = assetsFromOrgDeleted[orgId].length;\r\n        AssetEdited[] memory listAssetsDeleted = new AssetEdited[](cont);\r\n        for (uint256 i = 0; i < cont; i++) {\r\n            uint256 id = assetsFromOrgDeleted[orgId][i];\r\n            listAssetsDeleted[i] = assetsEditedList[id];\r\n        }\r\n        return listAssetsDeleted;\r\n    }\r\n\r\n    function getIsAssetEdited(uint256 idAsset)\r\n        public\r\n        view\r\n        returns (bool result)\r\n    {\r\n        return assetBoolEditedAndDeleted[idAsset][0];\r\n    }\r\n\r\n    function getIsAssetDeleted(uint256 idAsset)\r\n        public\r\n        view\r\n        returns (bool result)\r\n    {\r\n        return assetBoolEditedAndDeleted[idAsset][1];\r\n    }\r\n\r\n    /* \r\n    //asset\r\n    [1,2,3]\r\n    //editados\r\n    [1,2]\r\n\r\n    //lista de assets eliminados []\r\n    //\r\n\r\n    /* /editado {\r\nnombre, tipo, skjdalksjd, booldeleted\r\n    listaborrados.push() cuando se elimine\r\n    } */\r\n\r\n    //mapping(editado=>asset)\r\n    //mapping(asset=> []editado) para sacar el ultimo que se ha editado\r\n\r\n    //assets editados (asset 1)\r\n    //[]\r\n\r\n    //boolean editar\r\n    //marca eliminar\r\n}\r\n",
  "sourcePath": "D:\\GIT\\inventory-blockchain\\blockchain\\contracts\\Main.sol",
  "compiler": {
    "name": "solc",
    "version": "0.8.12+commit.f00d7308.Emscripten.clang"
  },
  "schemaVersion": "3.4.6",
  "updatedAt": "2022-04-18T15:15:47.139Z",
  "networkType": "ethereum",
  "devdoc": {
    "kind": "dev",
    "methods": {},
    "version": 1
  },
  "userdoc": {
    "kind": "user",
    "methods": {},
    "version": 1
  }
}