{
  "contractName": "Main",
  "abi": [
    {
      "inputs": [
        {
          "internalType": "address",
          "name": "_dataSAdd",
          "type": "address"
        }
      ],
      "stateMutability": "nonpayable",
      "type": "constructor"
    },
    {
      "anonymous": false,
      "inputs": [
        {
          "indexed": true,
          "internalType": "address",
          "name": "userAddress",
          "type": "address"
        },
        {
          "indexed": false,
          "internalType": "uint256",
          "name": "index",
          "type": "uint256"
        },
        {
          "indexed": false,
          "internalType": "bytes32",
          "name": "userEmail",
          "type": "bytes32"
        },
        {
          "indexed": false,
          "internalType": "uint256",
          "name": "userAge",
          "type": "uint256"
        }
      ],
      "name": "LogNewUser",
      "type": "event"
    },
    {
      "anonymous": false,
      "inputs": [
        {
          "indexed": false,
          "internalType": "address",
          "name": "user",
          "type": "address"
        },
        {
          "indexed": false,
          "internalType": "string",
          "name": "name",
          "type": "string"
        }
      ],
      "name": "NewOrganization",
      "type": "event"
    },
    {
      "inputs": [
        {
          "internalType": "address",
          "name": "",
          "type": "address"
        }
      ],
      "name": "addressToOrganizationIndex",
      "outputs": [
        {
          "internalType": "uint256",
          "name": "",
          "type": "uint256"
        }
      ],
      "stateMutability": "view",
      "type": "function",
      "constant": true
    },
    {
      "inputs": [
        {
          "internalType": "uint256",
          "name": "",
          "type": "uint256"
        }
      ],
      "name": "administrators",
      "outputs": [
        {
          "internalType": "address",
          "name": "",
          "type": "address"
        }
      ],
      "stateMutability": "view",
      "type": "function",
      "constant": true
    },
    {
      "inputs": [
        {
          "internalType": "uint256",
          "name": "",
          "type": "uint256"
        }
      ],
      "name": "assetsList",
      "outputs": [
        {
          "internalType": "string",
          "name": "name",
          "type": "string"
        },
        {
          "internalType": "uint256",
          "name": "organizationId",
          "type": "uint256"
        },
        {
          "internalType": "uint256",
          "name": "adquireDate",
          "type": "uint256"
        },
        {
          "internalType": "uint256",
          "name": "creationDate",
          "type": "uint256"
        },
        {
          "internalType": "uint8",
          "name": "assetType",
          "type": "uint8"
        },
        {
          "internalType": "uint256",
          "name": "assetDepart",
          "type": "uint256"
        },
        {
          "internalType": "uint256",
          "name": "index",
          "type": "uint256"
        }
      ],
      "stateMutability": "view",
      "type": "function",
      "constant": true
    },
    {
      "inputs": [],
      "name": "dataStructsAdd",
      "outputs": [
        {
          "internalType": "address",
          "name": "",
          "type": "address"
        }
      ],
      "stateMutability": "view",
      "type": "function",
      "constant": true
    },
    {
      "inputs": [],
      "name": "orgCount",
      "outputs": [
        {
          "internalType": "uint256",
          "name": "",
          "type": "uint256"
        }
      ],
      "stateMutability": "view",
      "type": "function",
      "constant": true
    },
    {
      "inputs": [
        {
          "internalType": "address",
          "name": "admin",
          "type": "address"
        },
        {
          "internalType": "string",
          "name": "name",
          "type": "string"
        },
        {
          "internalType": "string",
          "name": "lastname",
          "type": "string"
        },
        {
          "internalType": "string",
          "name": "email",
          "type": "string"
        },
        {
          "internalType": "uint32",
          "name": "adTelephone",
          "type": "uint32"
        },
        {
          "internalType": "string",
          "name": "orgName",
          "type": "string"
        },
        {
          "internalType": "string",
          "name": "orgAddress",
          "type": "string"
        },
        {
          "internalType": "uint32",
          "name": "orgTelephone",
          "type": "uint32"
        }
      ],
      "name": "insertOrgAndAdmin",
      "outputs": [],
      "stateMutability": "nonpayable",
      "type": "function"
    },
    {
      "inputs": [
        {
          "internalType": "address",
          "name": "userAddress",
          "type": "address"
        }
      ],
      "name": "isAdministrator",
      "outputs": [
        {
          "internalType": "bool",
          "name": "isIndeed",
          "type": "bool"
        }
      ],
      "stateMutability": "view",
      "type": "function",
      "constant": true
    },
    {
      "inputs": [
        {
          "internalType": "address",
          "name": "addr",
          "type": "address"
        },
        {
          "internalType": "uint256",
          "name": "orgId",
          "type": "uint256"
        }
      ],
      "name": "isAdminFromOrg",
      "outputs": [
        {
          "internalType": "bool",
          "name": "",
          "type": "bool"
        }
      ],
      "stateMutability": "view",
      "type": "function",
      "constant": true
    },
    {
      "inputs": [
        {
          "internalType": "uint256",
          "name": "_orgId",
          "type": "uint256"
        }
      ],
      "name": "getOrg",
      "outputs": [
        {
          "components": [
            {
              "internalType": "address",
              "name": "admin",
              "type": "address"
            },
            {
              "internalType": "string",
              "name": "name",
              "type": "string"
            },
            {
              "internalType": "string",
              "name": "addressO",
              "type": "string"
            },
            {
              "internalType": "uint32",
              "name": "telephone",
              "type": "uint32"
            },
            {
              "internalType": "uint256",
              "name": "index",
              "type": "uint256"
            }
          ],
          "internalType": "struct Main.Organization",
          "name": "",
          "type": "tuple"
        }
      ],
      "stateMutability": "view",
      "type": "function",
      "constant": true
    },
    {
      "inputs": [],
      "name": "getIdAsset",
      "outputs": [
        {
          "internalType": "uint256",
          "name": "id",
          "type": "uint256"
        }
      ],
      "stateMutability": "view",
      "type": "function",
      "constant": true
    },
    {
      "inputs": [
        {
          "internalType": "address",
          "name": "userAddress",
          "type": "address"
        }
      ],
      "name": "getAdminToOrg",
      "outputs": [
        {
          "internalType": "uint256",
          "name": "userid",
          "type": "uint256"
        }
      ],
      "stateMutability": "view",
      "type": "function",
      "constant": true
    },
    {
      "inputs": [
        {
          "internalType": "address",
          "name": "userAddress",
          "type": "address"
        }
      ],
      "name": "getOrgFromAddress",
      "outputs": [
        {
          "components": [
            {
              "internalType": "address",
              "name": "admin",
              "type": "address"
            },
            {
              "internalType": "string",
              "name": "name",
              "type": "string"
            },
            {
              "internalType": "string",
              "name": "addressO",
              "type": "string"
            },
            {
              "internalType": "uint32",
              "name": "telephone",
              "type": "uint32"
            },
            {
              "internalType": "uint256",
              "name": "index",
              "type": "uint256"
            }
          ],
          "internalType": "struct Main.Organization",
          "name": "org",
          "type": "tuple"
        }
      ],
      "stateMutability": "view",
      "type": "function",
      "constant": true
    },
    {
      "inputs": [
        {
          "internalType": "string",
          "name": "name",
          "type": "string"
        },
        {
          "internalType": "uint256",
          "name": "organizationId",
          "type": "uint256"
        },
        {
          "internalType": "uint256",
          "name": "adquireDate",
          "type": "uint256"
        },
        {
          "internalType": "uint256",
          "name": "creationDate",
          "type": "uint256"
        },
        {
          "internalType": "uint8",
          "name": "assetType",
          "type": "uint8"
        },
        {
          "internalType": "uint256",
          "name": "assetDepart",
          "type": "uint256"
        }
      ],
      "name": "insertAsset",
      "outputs": [],
      "stateMutability": "nonpayable",
      "type": "function"
    },
    {
      "inputs": [
        {
          "internalType": "uint256",
          "name": "index",
          "type": "uint256"
        },
        {
          "internalType": "uint256",
          "name": "assetDepartId",
          "type": "uint256"
        }
      ],
      "name": "insertAssetToDepartment",
      "outputs": [],
      "stateMutability": "nonpayable",
      "type": "function"
    },
    {
      "inputs": [
        {
          "internalType": "string",
          "name": "name",
          "type": "string"
        },
        {
          "internalType": "uint256",
          "name": "organizationId",
          "type": "uint256"
        },
        {
          "internalType": "uint256",
          "name": "adquireDate",
          "type": "uint256"
        },
        {
          "internalType": "uint256",
          "name": "creationDate",
          "type": "uint256"
        },
        {
          "internalType": "uint8",
          "name": "assetType",
          "type": "uint8"
        },
        {
          "internalType": "uint256",
          "name": "assetDepart",
          "type": "uint256"
        },
        {
          "internalType": "string",
          "name": "version",
          "type": "string"
        },
        {
          "internalType": "string",
          "name": "provider",
          "type": "string"
        },
        {
          "internalType": "uint8",
          "name": "stype",
          "type": "uint8"
        }
      ],
      "name": "insertNewSoftAsset",
      "outputs": [],
      "stateMutability": "nonpayable",
      "type": "function"
    },
    {
      "inputs": [
        {
          "internalType": "string",
          "name": "name",
          "type": "string"
        },
        {
          "internalType": "uint256",
          "name": "organizationId",
          "type": "uint256"
        },
        {
          "internalType": "uint256",
          "name": "adquireDate",
          "type": "uint256"
        },
        {
          "internalType": "uint256",
          "name": "creationDate",
          "type": "uint256"
        },
        {
          "internalType": "uint8",
          "name": "assetType",
          "type": "uint8"
        },
        {
          "internalType": "uint256",
          "name": "assetDepart",
          "type": "uint256"
        },
        {
          "internalType": "string",
          "name": "model",
          "type": "string"
        },
        {
          "internalType": "string",
          "name": "provider",
          "type": "string"
        },
        {
          "internalType": "string",
          "name": "serialNumber",
          "type": "string"
        },
        {
          "internalType": "uint8",
          "name": "htype",
          "type": "uint8"
        }
      ],
      "name": "insertNewHardAsset",
      "outputs": [],
      "stateMutability": "nonpayable",
      "type": "function"
    },
    {
      "inputs": [
        {
          "internalType": "string",
          "name": "name",
          "type": "string"
        },
        {
          "internalType": "uint256",
          "name": "organizationId",
          "type": "uint256"
        },
        {
          "internalType": "uint256",
          "name": "adquireDate",
          "type": "uint256"
        },
        {
          "internalType": "uint256",
          "name": "creationDate",
          "type": "uint256"
        },
        {
          "internalType": "uint8",
          "name": "assetType",
          "type": "uint8"
        },
        {
          "internalType": "uint256",
          "name": "assetDepart",
          "type": "uint256"
        },
        {
          "internalType": "string",
          "name": "description",
          "type": "string"
        },
        {
          "internalType": "string",
          "name": "location",
          "type": "string"
        },
        {
          "internalType": "uint8",
          "name": "doctype",
          "type": "uint8"
        }
      ],
      "name": "insertNewDocAsset",
      "outputs": [],
      "stateMutability": "nonpayable",
      "type": "function"
    },
    {
      "inputs": [
        {
          "internalType": "string",
          "name": "name",
          "type": "string"
        },
        {
          "internalType": "uint256",
          "name": "organizationId",
          "type": "uint256"
        },
        {
          "internalType": "uint256",
          "name": "adquireDate",
          "type": "uint256"
        },
        {
          "internalType": "uint256",
          "name": "creationDate",
          "type": "uint256"
        },
        {
          "internalType": "uint8",
          "name": "assetType",
          "type": "uint8"
        },
        {
          "internalType": "uint256",
          "name": "assetDepart",
          "type": "uint256"
        },
        {
          "internalType": "string",
          "name": "location",
          "type": "string"
        },
        {
          "internalType": "bool",
          "name": "local",
          "type": "bool"
        }
      ],
      "name": "insertNewDataAsset",
      "outputs": [],
      "stateMutability": "nonpayable",
      "type": "function"
    },
    {
      "inputs": [
        {
          "internalType": "string",
          "name": "name",
          "type": "string"
        },
        {
          "internalType": "uint256",
          "name": "organizationId",
          "type": "uint256"
        },
        {
          "internalType": "uint256",
          "name": "adquireDate",
          "type": "uint256"
        },
        {
          "internalType": "uint256",
          "name": "creationDate",
          "type": "uint256"
        },
        {
          "internalType": "uint8",
          "name": "assetType",
          "type": "uint8"
        },
        {
          "internalType": "uint256",
          "name": "assetDepart",
          "type": "uint256"
        },
        {
          "internalType": "string",
          "name": "cidrblock",
          "type": "string"
        },
        {
          "internalType": "bool",
          "name": "nat",
          "type": "bool"
        }
      ],
      "name": "insertNewNetworkAsset",
      "outputs": [],
      "stateMutability": "nonpayable",
      "type": "function"
    },
    {
      "inputs": [
        {
          "internalType": "string",
          "name": "name",
          "type": "string"
        },
        {
          "internalType": "uint256",
          "name": "organizationId",
          "type": "uint256"
        },
        {
          "internalType": "uint256",
          "name": "adquireDate",
          "type": "uint256"
        },
        {
          "internalType": "uint256",
          "name": "creationDate",
          "type": "uint256"
        },
        {
          "internalType": "uint8",
          "name": "assetType",
          "type": "uint8"
        },
        {
          "internalType": "uint256",
          "name": "assetDepart",
          "type": "uint256"
        },
        {
          "internalType": "string",
          "name": "url",
          "type": "string"
        },
        {
          "internalType": "string",
          "name": "domain",
          "type": "string"
        }
      ],
      "name": "insertNewCloudAsset",
      "outputs": [],
      "stateMutability": "nonpayable",
      "type": "function"
    },
    {
      "inputs": [
        {
          "internalType": "string",
          "name": "name",
          "type": "string"
        },
        {
          "internalType": "uint256",
          "name": "organizationId",
          "type": "uint256"
        },
        {
          "internalType": "uint256",
          "name": "adquireDate",
          "type": "uint256"
        },
        {
          "internalType": "uint256",
          "name": "creationDate",
          "type": "uint256"
        },
        {
          "internalType": "uint8",
          "name": "assetType",
          "type": "uint8"
        },
        {
          "internalType": "uint256",
          "name": "assetDepart",
          "type": "uint256"
        },
        {
          "internalType": "string",
          "name": "description",
          "type": "string"
        }
      ],
      "name": "insertNewOtherAsset",
      "outputs": [],
      "stateMutability": "nonpayable",
      "type": "function"
    },
    {
      "inputs": [
        {
          "internalType": "uint256",
          "name": "id",
          "type": "uint256"
        }
      ],
      "name": "getLastAssetEdited",
      "outputs": [
        {
          "components": [
            {
              "internalType": "uint256",
              "name": "originalAssetId",
              "type": "uint256"
            },
            {
              "internalType": "string",
              "name": "name",
              "type": "string"
            },
            {
              "internalType": "uint256",
              "name": "organizationId",
              "type": "uint256"
            },
            {
              "internalType": "uint256",
              "name": "adquireDate",
              "type": "uint256"
            },
            {
              "internalType": "uint256",
              "name": "creationDate",
              "type": "uint256"
            },
            {
              "internalType": "uint8",
              "name": "assetType",
              "type": "uint8"
            },
            {
              "internalType": "uint256",
              "name": "assetDepart",
              "type": "uint256"
            },
            {
              "internalType": "bool",
              "name": "deleted",
              "type": "bool"
            },
            {
              "internalType": "uint256",
              "name": "index",
              "type": "uint256"
            }
          ],
          "internalType": "struct Main.AssetEdited",
          "name": "",
          "type": "tuple"
        }
      ],
      "stateMutability": "view",
      "type": "function",
      "constant": true
    },
    {
      "inputs": [
        {
          "internalType": "uint256",
          "name": "id",
          "type": "uint256"
        }
      ],
      "name": "getAsset",
      "outputs": [
        {
          "components": [
            {
              "internalType": "string",
              "name": "name",
              "type": "string"
            },
            {
              "internalType": "uint256",
              "name": "organizationId",
              "type": "uint256"
            },
            {
              "internalType": "uint256",
              "name": "adquireDate",
              "type": "uint256"
            },
            {
              "internalType": "uint256",
              "name": "creationDate",
              "type": "uint256"
            },
            {
              "internalType": "uint8",
              "name": "assetType",
              "type": "uint8"
            },
            {
              "internalType": "uint256",
              "name": "assetDepart",
              "type": "uint256"
            },
            {
              "internalType": "uint256",
              "name": "index",
              "type": "uint256"
            }
          ],
          "internalType": "struct Main.Asset",
          "name": "",
          "type": "tuple"
        }
      ],
      "stateMutability": "view",
      "type": "function",
      "constant": true
    },
    {
      "inputs": [
        {
          "internalType": "uint256",
          "name": "_adminId",
          "type": "uint256"
        }
      ],
      "name": "getAdmin",
      "outputs": [
        {
          "components": [
            {
              "internalType": "address",
              "name": "admin",
              "type": "address"
            },
            {
              "internalType": "string",
              "name": "name",
              "type": "string"
            },
            {
              "internalType": "string",
              "name": "lastname",
              "type": "string"
            },
            {
              "internalType": "string",
              "name": "email",
              "type": "string"
            },
            {
              "internalType": "uint32",
              "name": "telephone",
              "type": "uint32"
            },
            {
              "internalType": "uint256",
              "name": "index",
              "type": "uint256"
            }
          ],
          "internalType": "struct Main.Admin",
          "name": "",
          "type": "tuple"
        }
      ],
      "stateMutability": "view",
      "type": "function",
      "constant": true
    },
    {
      "inputs": [
        {
          "internalType": "uint256",
          "name": "_orgId",
          "type": "uint256"
        }
      ],
      "name": "getAllAssetsFromOrg",
      "outputs": [
        {
          "components": [
            {
              "internalType": "string",
              "name": "name",
              "type": "string"
            },
            {
              "internalType": "uint256",
              "name": "organizationId",
              "type": "uint256"
            },
            {
              "internalType": "uint256",
              "name": "adquireDate",
              "type": "uint256"
            },
            {
              "internalType": "uint256",
              "name": "creationDate",
              "type": "uint256"
            },
            {
              "internalType": "uint8",
              "name": "assetType",
              "type": "uint8"
            },
            {
              "internalType": "uint256",
              "name": "assetDepart",
              "type": "uint256"
            },
            {
              "internalType": "uint256",
              "name": "index",
              "type": "uint256"
            }
          ],
          "internalType": "struct Main.Asset[]",
          "name": "",
          "type": "tuple[]"
        },
        {
          "components": [
            {
              "internalType": "uint256",
              "name": "originalAssetId",
              "type": "uint256"
            },
            {
              "internalType": "string",
              "name": "name",
              "type": "string"
            },
            {
              "internalType": "uint256",
              "name": "organizationId",
              "type": "uint256"
            },
            {
              "internalType": "uint256",
              "name": "adquireDate",
              "type": "uint256"
            },
            {
              "internalType": "uint256",
              "name": "creationDate",
              "type": "uint256"
            },
            {
              "internalType": "uint8",
              "name": "assetType",
              "type": "uint8"
            },
            {
              "internalType": "uint256",
              "name": "assetDepart",
              "type": "uint256"
            },
            {
              "internalType": "bool",
              "name": "deleted",
              "type": "bool"
            },
            {
              "internalType": "uint256",
              "name": "index",
              "type": "uint256"
            }
          ],
          "internalType": "struct Main.AssetEdited[]",
          "name": "",
          "type": "tuple[]"
        }
      ],
      "stateMutability": "view",
      "type": "function",
      "constant": true
    },
    {
      "inputs": [
        {
          "internalType": "uint256",
          "name": "originalAssetId",
          "type": "uint256"
        },
        {
          "internalType": "string",
          "name": "name",
          "type": "string"
        },
        {
          "internalType": "uint256",
          "name": "organizationId",
          "type": "uint256"
        },
        {
          "internalType": "uint256",
          "name": "adquireDate",
          "type": "uint256"
        },
        {
          "internalType": "uint256",
          "name": "creationDate",
          "type": "uint256"
        },
        {
          "internalType": "bool",
          "name": "deleted",
          "type": "bool"
        },
        {
          "internalType": "uint8",
          "name": "assetType",
          "type": "uint8"
        },
        {
          "internalType": "uint256",
          "name": "assetDepart",
          "type": "uint256"
        }
      ],
      "name": "insertEditedAsset",
      "outputs": [],
      "stateMutability": "nonpayable",
      "type": "function"
    },
    {
      "inputs": [
        {
          "internalType": "uint256",
          "name": "assetId",
          "type": "uint256"
        }
      ],
      "name": "getRecordList",
      "outputs": [
        {
          "components": [
            {
              "internalType": "string",
              "name": "name",
              "type": "string"
            },
            {
              "internalType": "uint256",
              "name": "organizationId",
              "type": "uint256"
            },
            {
              "internalType": "uint256",
              "name": "adquireDate",
              "type": "uint256"
            },
            {
              "internalType": "uint256",
              "name": "creationDate",
              "type": "uint256"
            },
            {
              "internalType": "uint8",
              "name": "assetType",
              "type": "uint8"
            },
            {
              "internalType": "uint256",
              "name": "assetDepart",
              "type": "uint256"
            },
            {
              "internalType": "uint256",
              "name": "index",
              "type": "uint256"
            }
          ],
          "internalType": "struct Main.Asset",
          "name": "",
          "type": "tuple"
        },
        {
          "components": [
            {
              "internalType": "uint256",
              "name": "originalAssetId",
              "type": "uint256"
            },
            {
              "internalType": "string",
              "name": "name",
              "type": "string"
            },
            {
              "internalType": "uint256",
              "name": "organizationId",
              "type": "uint256"
            },
            {
              "internalType": "uint256",
              "name": "adquireDate",
              "type": "uint256"
            },
            {
              "internalType": "uint256",
              "name": "creationDate",
              "type": "uint256"
            },
            {
              "internalType": "uint8",
              "name": "assetType",
              "type": "uint8"
            },
            {
              "internalType": "uint256",
              "name": "assetDepart",
              "type": "uint256"
            },
            {
              "internalType": "bool",
              "name": "deleted",
              "type": "bool"
            },
            {
              "internalType": "uint256",
              "name": "index",
              "type": "uint256"
            }
          ],
          "internalType": "struct Main.AssetEdited[]",
          "name": "",
          "type": "tuple[]"
        }
      ],
      "stateMutability": "view",
      "type": "function",
      "constant": true
    },
    {
      "inputs": [
        {
          "internalType": "uint256",
          "name": "id",
          "type": "uint256"
        }
      ],
      "name": "getAssetEdited",
      "outputs": [
        {
          "components": [
            {
              "internalType": "uint256",
              "name": "originalAssetId",
              "type": "uint256"
            },
            {
              "internalType": "string",
              "name": "name",
              "type": "string"
            },
            {
              "internalType": "uint256",
              "name": "organizationId",
              "type": "uint256"
            },
            {
              "internalType": "uint256",
              "name": "adquireDate",
              "type": "uint256"
            },
            {
              "internalType": "uint256",
              "name": "creationDate",
              "type": "uint256"
            },
            {
              "internalType": "uint8",
              "name": "assetType",
              "type": "uint8"
            },
            {
              "internalType": "uint256",
              "name": "assetDepart",
              "type": "uint256"
            },
            {
              "internalType": "bool",
              "name": "deleted",
              "type": "bool"
            },
            {
              "internalType": "uint256",
              "name": "index",
              "type": "uint256"
            }
          ],
          "internalType": "struct Main.AssetEdited",
          "name": "",
          "type": "tuple"
        }
      ],
      "stateMutability": "view",
      "type": "function",
      "constant": true
    },
    {
      "inputs": [
        {
          "internalType": "uint256",
          "name": "orgId",
          "type": "uint256"
        }
      ],
      "name": "getAssetsDeleted",
      "outputs": [
        {
          "components": [
            {
              "internalType": "uint256",
              "name": "originalAssetId",
              "type": "uint256"
            },
            {
              "internalType": "string",
              "name": "name",
              "type": "string"
            },
            {
              "internalType": "uint256",
              "name": "organizationId",
              "type": "uint256"
            },
            {
              "internalType": "uint256",
              "name": "adquireDate",
              "type": "uint256"
            },
            {
              "internalType": "uint256",
              "name": "creationDate",
              "type": "uint256"
            },
            {
              "internalType": "uint8",
              "name": "assetType",
              "type": "uint8"
            },
            {
              "internalType": "uint256",
              "name": "assetDepart",
              "type": "uint256"
            },
            {
              "internalType": "bool",
              "name": "deleted",
              "type": "bool"
            },
            {
              "internalType": "uint256",
              "name": "index",
              "type": "uint256"
            }
          ],
          "internalType": "struct Main.AssetEdited[]",
          "name": "",
          "type": "tuple[]"
        }
      ],
      "stateMutability": "view",
      "type": "function",
      "constant": true
    },
    {
      "inputs": [
        {
          "internalType": "uint256",
          "name": "idAsset",
          "type": "uint256"
        }
      ],
      "name": "getIsAssetEdited",
      "outputs": [
        {
          "internalType": "bool",
          "name": "result",
          "type": "bool"
        }
      ],
      "stateMutability": "view",
      "type": "function",
      "constant": true
    },
    {
      "inputs": [
        {
          "internalType": "uint256",
          "name": "idAsset",
          "type": "uint256"
        }
      ],
      "name": "getIsAssetDeleted",
      "outputs": [
        {
          "internalType": "bool",
          "name": "result",
          "type": "bool"
        }
      ],
      "stateMutability": "view",
      "type": "function",
      "constant": true
    },
    {
      "inputs": [
        {
          "internalType": "uint256",
          "name": "orgId",
          "type": "uint256"
        }
      ],
      "name": "getOrgNumEdited",
      "outputs": [
        {
          "internalType": "uint256",
          "name": "numEdited",
          "type": "uint256"
        }
      ],
      "stateMutability": "view",
      "type": "function",
      "constant": true
    },
    {
      "inputs": [
        {
          "internalType": "uint256",
          "name": "orgId",
          "type": "uint256"
        }
      ],
      "name": "getOrgNumDeleted",
      "outputs": [
        {
          "internalType": "uint256",
          "name": "numDeleted",
          "type": "uint256"
        }
      ],
      "stateMutability": "view",
      "type": "function",
      "constant": true
    },
    {
      "inputs": [
        {
          "internalType": "uint256",
          "name": "assetId",
          "type": "uint256"
        }
      ],
      "name": "getEdDeList",
      "outputs": [
        {
          "internalType": "uint256[]",
          "name": "listEdited",
          "type": "uint256[]"
        }
      ],
      "stateMutability": "view",
      "type": "function",
      "constant": true
    },
    {
      "inputs": [
        {
          "internalType": "uint256[]",
          "name": "ids",
          "type": "uint256[]"
        }
      ],
      "name": "retrieveListOfAsset",
      "outputs": [
        {
          "components": [
            {
              "internalType": "string",
              "name": "name",
              "type": "string"
            },
            {
              "internalType": "uint256",
              "name": "organizationId",
              "type": "uint256"
            },
            {
              "internalType": "uint256",
              "name": "adquireDate",
              "type": "uint256"
            },
            {
              "internalType": "uint256",
              "name": "creationDate",
              "type": "uint256"
            },
            {
              "internalType": "uint8",
              "name": "assetType",
              "type": "uint8"
            },
            {
              "internalType": "uint256",
              "name": "assetDepart",
              "type": "uint256"
            },
            {
              "internalType": "uint256",
              "name": "index",
              "type": "uint256"
            }
          ],
          "internalType": "struct Main.Asset[]",
          "name": "",
          "type": "tuple[]"
        },
        {
          "components": [
            {
              "internalType": "uint256",
              "name": "originalAssetId",
              "type": "uint256"
            },
            {
              "internalType": "string",
              "name": "name",
              "type": "string"
            },
            {
              "internalType": "uint256",
              "name": "organizationId",
              "type": "uint256"
            },
            {
              "internalType": "uint256",
              "name": "adquireDate",
              "type": "uint256"
            },
            {
              "internalType": "uint256",
              "name": "creationDate",
              "type": "uint256"
            },
            {
              "internalType": "uint8",
              "name": "assetType",
              "type": "uint8"
            },
            {
              "internalType": "uint256",
              "name": "assetDepart",
              "type": "uint256"
            },
            {
              "internalType": "bool",
              "name": "deleted",
              "type": "bool"
            },
            {
              "internalType": "uint256",
              "name": "index",
              "type": "uint256"
            }
          ],
          "internalType": "struct Main.AssetEdited[]",
          "name": "",
          "type": "tuple[]"
        }
      ],
      "stateMutability": "view",
      "type": "function",
      "constant": true
    },
    {
      "inputs": [
        {
          "internalType": "uint256",
          "name": "orgId",
          "type": "uint256"
        }
      ],
      "name": "retrieveOrgData",
      "outputs": [
        {
          "internalType": "uint256[]",
          "name": "",
          "type": "uint256[]"
        }
      ],
      "stateMutability": "view",
      "type": "function",
      "constant": true
    }
  ],
  "bytecode": "0x60806040523480156200001157600080fd5b5060405162005480380380620054808339818101604052810190620000379190620000e8565b806000806101000a81548173ffffffffffffffffffffffffffffffffffffffff021916908373ffffffffffffffffffffffffffffffffffffffff160217905550506200011a565b600080fd5b600073ffffffffffffffffffffffffffffffffffffffff82169050919050565b6000620000b08262000083565b9050919050565b620000c281620000a3565b8114620000ce57600080fd5b50565b600081519050620000e281620000b7565b92915050565b6000602082840312156200010157620001006200007e565b5b60006200011184828501620000d1565b91505092915050565b615356806200012a6000396000f3fe608060405234801561001057600080fd5b506004361061021c5760003560e01c80638558b84411610125578063d758fe6d116100ad578063de93f5391161007c578063de93f539146106fb578063e81ef3191461072b578063eac8f5b81461075b578063ece901331461078b578063ef193b22146107a75761021c565b8063d758fe6d14610660578063d81066901461067c578063d89d15101461069a578063de7946fc146106ca5761021c565b8063a1c6d0d0116100f4578063a1c6d0d014610584578063b5e80972146105a0578063c70abaf4146105d0578063c92bc12d14610600578063d05a8870146106305761021c565b80638558b844146104fd5780638ab95a33146105195780639a06ff7f146105355780639c40fd35146105665761021c565b80633dd03539116101a85780634e4369c4116101775780634e4369c41461042f5780635583071b1461045f5780636139e9f41461047b578063653e69ff1461049757806371e85c41146104c75761021c565b80633dd03539146103815780633e4e3b55146103b15780633fc07290146103cf578063415de94c146103ff5761021c565b80632124b4fe116101ef5780632124b4fe146102cd5780632360c27f146102e95780632c98cfa81461031957806331fe8bcd14610335578063329cf967146103655761021c565b80630a2eb301146102215780630b7338a114610251578063111fd88b1461026d578063151c3f441461029d575b600080fd5b61023b60048036038101906102369190613a12565b6107d8565b6040516102489190613a5a565b60405180910390f35b61026b60048036038101906102669190613c2a565b6108a4565b005b61028760048036038101906102829190613d48565b610960565b6040516102949190613ed1565b60405180910390f35b6102b760048036038101906102b29190613d48565b610bd8565b6040516102c49190613a5a565b60405180910390f35b6102e760048036038101906102e29190613c2a565b610c27565b005b61030360048036038101906102fe9190613d48565b610cef565b6040516103109190613f70565b60405180910390f35b610333600480360381019061032e9190613f92565b610ed5565b005b61034f600480360381019061034a9190613d48565b610f8b565b60405161035c919061411b565b60405180910390f35b61037f600480360381019061037a919061413d565b610ff6565b005b61039b60048036038101906103969190613d48565b611214565b6040516103a8919061411b565b60405180910390f35b6103b9611388565b6040516103c691906141f5565b60405180910390f35b6103e960048036038101906103e49190613a12565b611395565b6040516103f69190613f70565b60405180910390f35b61041960048036038101906104149190613a12565b6113d4565b60405161042691906141f5565b60405180910390f35b61044960048036038101906104449190613a12565b6113ec565b60405161045691906141f5565b60405180910390f35b61047960048036038101906104749190614210565b611435565b005b61049560048036038101906104909190614250565b611463565b005b6104b160048036038101906104ac9190613d48565b61151c565b6040516104be91906141f5565b60405180910390f35b6104e160048036038101906104dc9190613d48565b611577565b6040516104f497969594939291906143b3565b60405180910390f35b61051760048036038101906105129190614455565b61165e565b005b610533600480360381019061052e919061456f565b611717565b005b61054f600480360381019061054a9190614779565b6117b0565b60405161055d929190614ac5565b60405180910390f35b61056e611dd5565b60405161057b9190614b0b565b60405180910390f35b61059e60048036038101906105999190614455565b611df9565b005b6105ba60048036038101906105b59190613d48565b611eb2565b6040516105c79190614beb565b60405180910390f35b6105ea60048036038101906105e59190613d48565b612052565b6040516105f79190614beb565b60405180910390f35b61061a60048036038101906106159190613d48565b612195565b60405161062791906141f5565b60405180910390f35b61064a60048036038101906106459190614c0d565b6121f0565b6040516106579190613a5a565b60405180910390f35b61067a60048036038101906106759190614c4d565b612269565b005b61068461268a565b60405161069191906141f5565b60405180910390f35b6106b460048036038101906106af9190613d48565b612690565b6040516106c19190614b0b565b60405180910390f35b6106e460048036038101906106df9190613d48565b6126cf565b6040516106f2929190614ac5565b60405180910390f35b61071560048036038101906107109190613d48565b612c74565b6040516107229190614d1f565b60405180910390f35b61074560048036038101906107409190613d48565b612e99565b6040516107529190613a5a565b60405180910390f35b61077560048036038101906107709190613d48565b612ee8565b6040516107829190614ddd565b60405180910390f35b6107a560048036038101906107a09190614dff565b613005565b005b6107c160048036038101906107bc9190613d48565b6130c4565b6040516107cf929190614f4e565b60405180910390f35b60008060058054905014156107f0576000905061089f565b8173ffffffffffffffffffffffffffffffffffffffff166005600660008573ffffffffffffffffffffffffffffffffffffffff1673ffffffffffffffffffffffffffffffffffffffff168152602001908152602001600020548154811061085a57610859614f85565b5b9060005260206000200160009054906101000a900473ffffffffffffffffffffffffffffffffffffffff1673ffffffffffffffffffffffffffffffffffffffff161490505b919050565b600060078054905090506108bc8a8a8a8a8a8a610ff6565b60008060009054906101000a900473ffffffffffffffffffffffffffffffffffffffff1690508073ffffffffffffffffffffffffffffffffffffffff166382f2e641868686866040518563ffffffff1660e01b81526004016109219493929190614fb4565b600060405180830381600087803b15801561093b57600080fd5b505af115801561094f573d6000803e3d6000fd5b505050505050505050505050505050565b6109686137cf565b6003828154811061097c5761097b614f85565b5b90600052602060002090600602016040518060c00160405290816000820160009054906101000a900473ffffffffffffffffffffffffffffffffffffffff1673ffffffffffffffffffffffffffffffffffffffff1673ffffffffffffffffffffffffffffffffffffffff1681526020016001820180546109fb90615036565b80601f0160208091040260200160405190810160405280929190818152602001828054610a2790615036565b8015610a745780601f10610a4957610100808354040283529160200191610a74565b820191906000526020600020905b815481529060010190602001808311610a5757829003601f168201915b50505050508152602001600282018054610a8d90615036565b80601f0160208091040260200160405190810160405280929190818152602001828054610ab990615036565b8015610b065780601f10610adb57610100808354040283529160200191610b06565b820191906000526020600020905b815481529060010190602001808311610ae957829003601f168201915b50505050508152602001600382018054610b1f90615036565b80601f0160208091040260200160405190810160405280929190818152602001828054610b4b90615036565b8015610b985780601f10610b6d57610100808354040283529160200191610b98565b820191906000526020600020905b815481529060010190602001808311610b7b57829003601f168201915b505050505081526020016004820160009054906101000a900463ffffffff1663ffffffff1663ffffffff1681526020016005820154815250509050919050565b6000600c6000838152602001908152602001600020600081548110610c0057610bff614f85565b5b90600052602060002090602091828204019190069054906101000a900460ff169050919050565b610c35898989898989610ff6565b60006001600780549050610c499190615097565b905060008060009054906101000a900473ffffffffffffffffffffffffffffffffffffffff1690508073ffffffffffffffffffffffffffffffffffffffff1663869c2081868686866040518563ffffffff1660e01b8152600401610cb09493929190614fb4565b600060405180830381600087803b158015610cca57600080fd5b505af1158015610cde573d6000803e3d6000fd5b505050505050505050505050505050565b610cf7613821565b60018281548110610d0b57610d0a614f85565b5b90600052602060002090600502016040518060a00160405290816000820160009054906101000a900473ffffffffffffffffffffffffffffffffffffffff1673ffffffffffffffffffffffffffffffffffffffff1673ffffffffffffffffffffffffffffffffffffffff168152602001600182018054610d8a90615036565b80601f0160208091040260200160405190810160405280929190818152602001828054610db690615036565b8015610e035780601f10610dd857610100808354040283529160200191610e03565b820191906000526020600020905b815481529060010190602001808311610de657829003601f168201915b50505050508152602001600282018054610e1c90615036565b80601f0160208091040260200160405190810160405280929190818152602001828054610e4890615036565b8015610e955780601f10610e6a57610100808354040283529160200191610e95565b820191906000526020600020905b815481529060010190602001808311610e7857829003601f168201915b505050505081526020016003820160009054906101000a900463ffffffff1663ffffffff1663ffffffff1681526020016004820154815250509050919050565b60006007805490509050610eed888888888888610ff6565b60008060009054906101000a900473ffffffffffffffffffffffffffffffffffffffff1690508073ffffffffffffffffffffffffffffffffffffffff1663d00bab3684846040518363ffffffff1660e01b8152600401610f4e9291906150cb565b600060405180830381600087803b158015610f6857600080fd5b505af1158015610f7c573d6000803e3d6000fd5b50505050505050505050505050565b6060600a6000838152602001908152602001600020805480602002602001604051908101604052809291908181526020018280548015610fea57602002820191906000526020600020905b815481526020019060010190808311610fd6575b50505050509050919050565b60076040518060e001604052808881526020018781526020018681526020018581526020018460ff1681526020018381526020016007805490508152509080600181540180825580915050600190039060005260206000209060070201600090919091909150600082015181600001908051906020019061107892919061386c565b5060208201518160010155604082015181600201556060820151816003015560808201518160040160006101000a81548160ff021916908360ff16021790555060a0820151816005015560c0820151816006015550506008600086815260200190815260200160002060016007805490506110f39190615097565b9080600181540180825580915050600190039060005260206000200160009091909190915055600c6000600160078054905061112f9190615097565b8152602001908152602001600020600090806001815401808255809150506001900390600052602060002090602091828204019190069091909190916101000a81548160ff021916908315150217905550600c600060016007805490506111969190615097565b8152602001908152602001600020600090806001815401808255809150506001900390600052602060002090602091828204019190069091909190916101000a81548160ff021916908315150217905550600a600060016007805490506111fd9190615097565b815260200190815260200160002050505050505050565b60606000600367ffffffffffffffff81111561123357611232613a90565b5b6040519080825280602002602001820160405280156112615781602001602082028036833780820191505090505b50905060086000848152602001908152602001600020805490508160008151811061128f5761128e614f85565b5b602002602001018181525050600b60008481526020019081526020016000206000815481106112c1576112c0614f85565b5b90600052602060002090600891828204019190066004029054906101000a900463ffffffff1663ffffffff168160018151811061130157611300614f85565b5b602002602001018181525050600b600084815260200190815260200160002060018154811061133357611332614f85565b5b90600052602060002090600891828204019190066004029054906101000a900463ffffffff1663ffffffff168160028151811061137357611372614f85565b5b60200260200101818152505080915050919050565b6000600780549050905090565b61139d613821565b6113a6826107d8565b156113b057600080fd5b60006113bb836113ec565b905060006113c882610cef565b90508092505050919050565b60066020528060005260406000206000915090505481565b6000600660008373ffffffffffffffffffffffffffffffffffffffff1673ffffffffffffffffffffffffffffffffffffffff168152602001908152602001600020549050919050565b806007838154811061144a57611449614f85565b5b9060005260206000209060070201600501819055505050565b6000600780549050905061147b898989898989610ff6565b60008060009054906101000a900473ffffffffffffffffffffffffffffffffffffffff1690508073ffffffffffffffffffffffffffffffffffffffff1663ae4fd28b8585856040518463ffffffff1660e01b81526004016114de939291906150fb565b600060405180830381600087803b1580156114f857600080fd5b505af115801561150c573d6000803e3d6000fd5b5050505050505050505050505050565b6000600b600083815260200190815260200160002060018154811061154457611543614f85565b5b90600052602060002090600891828204019190066004029054906101000a900463ffffffff1663ffffffff169050919050565b6007818154811061158757600080fd5b90600052602060002090600702016000915090508060000180546115aa90615036565b80601f01602080910402602001604051908101604052809291908181526020018280546115d690615036565b80156116235780601f106115f857610100808354040283529160200191611623565b820191906000526020600020905b81548152906001019060200180831161160657829003601f168201915b5050505050908060010154908060020154908060030154908060040160009054906101000a900460ff16908060050154908060060154905087565b60006007805490509050611676898989898989610ff6565b60008060009054906101000a900473ffffffffffffffffffffffffffffffffffffffff1690508073ffffffffffffffffffffffffffffffffffffffff1663d84be50a8585856040518463ffffffff1660e01b81526004016116d993929190615140565b600060405180830381600087803b1580156116f357600080fd5b505af1158015611707573d6000803e3d6000fd5b5050505050505050505050505050565b611720886107d8565b1561172a57600080fd5b6117378888888888613407565b61174388848484613570565b6005889080600181540180825580915050600190039060005260206000200160009091909190916101000a81548173ffffffffffffffffffffffffffffffffffffffff021916908373ffffffffffffffffffffffffffffffffffffffff1602179055505050505050505050565b60608060008060005b85518110156118c957600c60008783815181106117d9576117d8614f85565b5b6020026020010151815260200190815260200160002060008154811061180257611801614f85565b5b90600052602060002090602091828204019190069054906101000a900460ff16156118a557600c600087838151811061183e5761183d614f85565b5b6020026020010151815260200190815260200160002060018154811061186757611866614f85565b5b90600052602060002090602091828204019190069054906101000a900460ff1615611891576118b6565b60018361189e919061517e565b92506118b5565b6001826118b2919061517e565b91505b5b80806118c1906151d4565b9150506117b9565b5060008167ffffffffffffffff8111156118e6576118e5613a90565b5b60405190808252806020026020018201604052801561191f57816020015b61190c6138f2565b8152602001906001900390816119045790505b50905060008367ffffffffffffffff81111561193e5761193d613a90565b5b60405190808252806020026020018201604052801561197757816020015b611964613932565b81526020019060019003908161195c5790505b50905060008060005b8951811015611dc357600c60008b83815181106119a05761199f614f85565b5b602002602001015181526020019081526020016000206001815481106119c9576119c8614f85565b5b90600052602060002090602091828204019190069054906101000a900460ff16156119f357611db0565b600c60008b8381518110611a0a57611a09614f85565b5b60200260200101518152602001908152602001600020600081548110611a3357611a32614f85565b5b90600052602060002090602091828204019190069054906101000a900460ff1615611c545760006001600a60008d8581518110611a7357611a72614f85565b5b6020026020010151815260200190815260200160002080549050611a979190615097565b90506000600a60008d8581518110611ab257611ab1614f85565b5b602002602001015181526020019081526020016000208281548110611ada57611ad9614f85565b5b9060005260206000200154905060098181548110611afb57611afa614f85565b5b90600052602060002090600902016040518061012001604052908160008201548152602001600182018054611b2f90615036565b80601f0160208091040260200160405190810160405280929190818152602001828054611b5b90615036565b8015611ba85780601f10611b7d57610100808354040283529160200191611ba8565b820191906000526020600020905b815481529060010190602001808311611b8b57829003601f168201915b505050505081526020016002820154815260200160038201548152602001600482015481526020016005820160009054906101000a900460ff1660ff1660ff168152602001600682015481526020016007820160009054906101000a900460ff16151515158152602001600882015481525050868663ffffffff1681518110611c3457611c33614f85565b5b60200260200101819052508480611c4a9061521d565b9550505050611daf565b60008a8281518110611c6957611c68614f85565b5b6020026020010151905060078181548110611c8757611c86614f85565b5b90600052602060002090600702016040518060e0016040529081600082018054611cb090615036565b80601f0160208091040260200160405190810160405280929190818152602001828054611cdc90615036565b8015611d295780601f10611cfe57610100808354040283529160200191611d29565b820191906000526020600020905b815481529060010190602001808311611d0c57829003601f168201915b505050505081526020016001820154815260200160028201548152602001600382015481526020016004820160009054906101000a900460ff1660ff1660ff16815260200160058201548152602001600682015481525050868481518110611d9457611d93614f85565b5b60200260200101819052508280611daa906151d4565b935050505b5b8080611dbb906151d4565b915050611980565b50838397509750505050505050915091565b60008054906101000a900473ffffffffffffffffffffffffffffffffffffffff1681565b60006007805490509050611e11898989898989610ff6565b60008060009054906101000a900473ffffffffffffffffffffffffffffffffffffffff1690508073ffffffffffffffffffffffffffffffffffffffff1663e4c17a378585856040518463ffffffff1660e01b8152600401611e7493929190615140565b600060405180830381600087803b158015611e8e57600080fd5b505af1158015611ea2573d6000803e3d6000fd5b5050505050505050505050505050565b611eba613932565b60006001600a600085815260200190815260200160002080549050611edf9190615097565b90506000600a60008581526020019081526020016000208281548110611f0857611f07614f85565b5b9060005260206000200154905060098181548110611f2957611f28614f85565b5b90600052602060002090600902016040518061012001604052908160008201548152602001600182018054611f5d90615036565b80601f0160208091040260200160405190810160405280929190818152602001828054611f8990615036565b8015611fd65780601f10611fab57610100808354040283529160200191611fd6565b820191906000526020600020905b815481529060010190602001808311611fb957829003601f168201915b505050505081526020016002820154815260200160038201548152602001600482015481526020016005820160009054906101000a900460ff1660ff1660ff168152602001600682015481526020016007820160009054906101000a900460ff1615151515815260200160088201548152505092505050919050565b61205a613932565b6009828154811061206e5761206d614f85565b5b906000526020600020906009020160405180610120016040529081600082015481526020016001820180546120a290615036565b80601f01602080910402602001604051908101604052809291908181526020018280546120ce90615036565b801561211b5780601f106120f05761010080835404028352916020019161211b565b820191906000526020600020905b8154815290600101906020018083116120fe57829003601f168201915b505050505081526020016002820154815260200160038201548152602001600482015481526020016005820160009054906101000a900460ff1660ff1660ff168152602001600682015481526020016007820160009054906101000a900460ff161515151581526020016008820154815250509050919050565b6000600b60008381526020019081526020016000206000815481106121bd576121bc614f85565b5b90600052602060002090600891828204019190066004029054906101000a900463ffffffff1663ffffffff169050919050565b60008060038054905014156122085760009050612263565b612211836107d8565b61221e5760009050612263565b81600660008573ffffffffffffffffffffffffffffffffffffffff1673ffffffffffffffffffffffffffffffffffffffff168152602001908152602001600020541490505b92915050565b60096040518061012001604052808a81526020018981526020018881526020018781526020018681526020018460ff1681526020018381526020018515158152602001600980549050815250908060018154018082558091505060019003906000526020600020906009020160009091909190915060008201518160000155602082015181600101908051906020019061230492919061386c565b5060408201518160020155606082015181600301556080820151816004015560a08201518160050160006101000a81548160ff021916908360ff16021790555060c0820151816006015560e08201518160070160006101000a81548160ff021916908315150217905550610100820151816008015550506000600160098054905061238f9190615097565b9050600c60008a81526020019081526020016000206000815481106123b7576123b6614f85565b5b90600052602060002090602091828204019190069054906101000a900460ff166124e4576001600c60008b815260200190815260200160002060008154811061240357612402614f85565b5b90600052602060002090602091828204019190066101000a81548160ff02191690831515021790555060006001600b60008a815260200190815260200160002060008154811061245657612455614f85565b5b90600052602060002090600891828204019190066004029054906101000a900463ffffffff16612486919061524a565b905080600b60008a81526020019081526020016000206000815481106124af576124ae614f85565b5b90600052602060002090600891828204019190066004026101000a81548163ffffffff021916908363ffffffff160217905550505b600a60008a815260200190815260200160002081908060018154018082558091505060019003906000526020600020016000909190919091505560011515841515141561267f57600d600088815260200190815260200160002060016009805490506125509190615097565b90806001815401808255809150506001900390600052602060002001600090919091909150556001600c60008b815260200190815260200160002060018154811061259e5761259d614f85565b5b90600052602060002090602091828204019190066101000a81548160ff02191690831515021790555060006001600b60008a81526020019081526020016000206001815481106125f1576125f0614f85565b5b90600052602060002090600891828204019190066004029054906101000a900463ffffffff16612621919061524a565b905080600b60008a815260200190815260200160002060018154811061264a57612649614f85565b5b90600052602060002090600891828204019190066004026101000a81548163ffffffff021916908363ffffffff160217905550505b505050505050505050565b60025481565b600581815481106126a057600080fd5b906000526020600020016000915054906101000a900473ffffffffffffffffffffffffffffffffffffffff1681565b6060806000600b60008581526020019081526020016000206000815481106126fa576126f9614f85565b5b90600052602060002090600891828204019190066004029054906101000a900463ffffffff1690506000600b600086815260200190815260200160002060018154811061274a57612749614f85565b5b90600052602060002090600891828204019190066004029054906101000a900463ffffffff169050600081836127809190615284565b905060006008600088815260200190815260200160002080549050905060008463ffffffff16826127b19190615097565b67ffffffffffffffff8111156127ca576127c9613a90565b5b60405190808252806020026020018201604052801561280357816020015b6127f06138f2565b8152602001906001900390816127e85790505b50905060008363ffffffff1667ffffffffffffffff81111561282857612827613a90565b5b60405190808252806020026020018201604052801561286157816020015b61284e613932565b8152602001906001900390816128465790505b50905060008060005b85811015612c6057600c600082815260200190815260200160002060018154811061289857612897614f85565b5b90600052602060002090602091828204019190069054906101000a900460ff16156128c257612c4d565b60011515600c60008381526020019081526020016000206000815481106128ec576128eb614f85565b5b90600052602060002090602091828204019190069054906101000a900460ff1615151415612adc5760006001600a6000848152602001908152602001600020805490506129399190615097565b90506000600a6000848152602001908152602001600020828154811061296257612961614f85565b5b906000526020600020015490506009818154811061298357612982614f85565b5b906000526020600020906009020160405180610120016040529081600082015481526020016001820180546129b790615036565b80601f01602080910402602001604051908101604052809291908181526020018280546129e390615036565b8015612a305780601f10612a0557610100808354040283529160200191612a30565b820191906000526020600020905b815481529060010190602001808311612a1357829003601f168201915b505050505081526020016002820154815260200160038201548152602001600482015481526020016005820160009054906101000a900460ff1660ff1660ff168152602001600682015481526020016007820160009054906101000a900460ff16151515158152602001600882015481525050868663ffffffff1681518110612abc57612abb614f85565b5b60200260200101819052508480612ad29061521d565b9550505050612c4c565b6000600860008e81526020019081526020016000208281548110612b0357612b02614f85565b5b9060005260206000200154905060078181548110612b2457612b23614f85565b5b90600052602060002090600702016040518060e0016040529081600082018054612b4d90615036565b80601f0160208091040260200160405190810160405280929190818152602001828054612b7990615036565b8015612bc65780601f10612b9b57610100808354040283529160200191612bc6565b820191906000526020600020905b815481529060010190602001808311612ba957829003601f168201915b505050505081526020016001820154815260200160028201548152602001600382015481526020016004820160009054906101000a900460ff1660ff1660ff16815260200160058201548152602001600682015481525050868481518110612c3157612c30614f85565b5b60200260200101819052508280612c47906151d4565b935050505b5b8080612c58906151d4565b91505061286a565b508383995099505050505050505050915091565b60606000600d600084815260200190815260200160002080549050905060008167ffffffffffffffff811115612cad57612cac613a90565b5b604051908082528060200260200182016040528015612ce657816020015b612cd3613932565b815260200190600190039081612ccb5790505b50905060005b82811015612e8e576000600d60008781526020019081526020016000208281548110612d1b57612d1a614f85565b5b9060005260206000200154905060098181548110612d3c57612d3b614f85565b5b90600052602060002090600902016040518061012001604052908160008201548152602001600182018054612d7090615036565b80601f0160208091040260200160405190810160405280929190818152602001828054612d9c90615036565b8015612de95780601f10612dbe57610100808354040283529160200191612de9565b820191906000526020600020905b815481529060010190602001808311612dcc57829003601f168201915b505050505081526020016002820154815260200160038201548152602001600482015481526020016005820160009054906101000a900460ff1660ff1660ff168152602001600682015481526020016007820160009054906101000a900460ff16151515158152602001600882015481525050838381518110612e6f57612e6e614f85565b5b6020026020010181905250508080612e86906151d4565b915050612cec565b508092505050919050565b6000600c6000838152602001908152602001600020600181548110612ec157612ec0614f85565b5b90600052602060002090602091828204019190069054906101000a900460ff169050919050565b612ef06138f2565b60078281548110612f0457612f03614f85565b5b90600052602060002090600702016040518060e0016040529081600082018054612f2d90615036565b80601f0160208091040260200160405190810160405280929190818152602001828054612f5990615036565b8015612fa65780601f10612f7b57610100808354040283529160200191612fa6565b820191906000526020600020905b815481529060010190602001808311612f8957829003601f168201915b505050505081526020016001820154815260200160028201548152602001600382015481526020016004820160009054906101000a900460ff1660ff1660ff168152602001600582015481526020016006820154815250509050919050565b6000600780549050905061301d8b8b8b8b8b8b610ff6565b60008060009054906101000a900473ffffffffffffffffffffffffffffffffffffffff1690508073ffffffffffffffffffffffffffffffffffffffff1663b31d2e3b87878787876040518663ffffffff1660e01b81526004016130849594939291906152b8565b600060405180830381600087803b15801561309e57600080fd5b505af11580156130b2573d6000803e3d6000fd5b50505050505050505050505050505050565b6130cc6138f2565b60606000600784815481106130e4576130e3614f85565b5b90600052602060002090600702016040518060e001604052908160008201805461310d90615036565b80601f016020809104026020016040519081016040528092919081815260200182805461313990615036565b80156131865780601f1061315b57610100808354040283529160200191613186565b820191906000526020600020905b81548152906001019060200180831161316957829003601f168201915b505050505081526020016001820154815260200160028201548152602001600382015481526020016004820160009054906101000a900460ff1660ff1660ff1681526020016005820154815260200160068201548152505090506000600a600086815260200190815260200160002080549050905060008167ffffffffffffffff81111561321757613216613a90565b5b60405190808252806020026020018201604052801561325057816020015b61323d613932565b8152602001906001900390816132355790505b50905060005b828110156133f8576000600a6000898152602001908152602001600020828154811061328557613284614f85565b5b90600052602060002001549050600981815481106132a6576132a5614f85565b5b906000526020600020906009020160405180610120016040529081600082015481526020016001820180546132da90615036565b80601f016020809104026020016040519081016040528092919081815260200182805461330690615036565b80156133535780601f1061332857610100808354040283529160200191613353565b820191906000526020600020905b81548152906001019060200180831161333657829003601f168201915b505050505081526020016002820154815260200160038201548152602001600482015481526020016005820160009054906101000a900460ff1660ff1660ff168152602001600682015481526020016007820160009054906101000a900460ff161515151581526020016008820154815250508383815181106133d9576133d8614f85565b5b60200260200101819052505080806133f0906151d4565b915050613256565b50828194509450505050915091565b60036040518060c001604052808773ffffffffffffffffffffffffffffffffffffffff1681526020018681526020018581526020018481526020018363ffffffff168152602001600380549050815250908060018154018082558091505060019003906000526020600020906006020160009091909190915060008201518160000160006101000a81548173ffffffffffffffffffffffffffffffffffffffff021916908373ffffffffffffffffffffffffffffffffffffffff16021790555060208201518160010190805190602001906134e392919061386c565b50604082015181600201908051906020019061350092919061386c565b50606082015181600301908051906020019061351d92919061386c565b5060808201518160040160006101000a81548163ffffffff021916908363ffffffff16021790555060a08201518160050155505060046000815480929190613564906151d4565b91905055505050505050565b60016040518060a001604052808673ffffffffffffffffffffffffffffffffffffffff1681526020018581526020018481526020018363ffffffff168152602001600180549050815250908060018154018082558091505060019003906000526020600020906005020160009091909190915060008201518160000160006101000a81548173ffffffffffffffffffffffffffffffffffffffff021916908373ffffffffffffffffffffffffffffffffffffffff160217905550602082015181600101908051906020019061364692919061386c565b50604082015181600201908051906020019061366392919061386c565b5060608201518160030160006101000a81548163ffffffff021916908363ffffffff160217905550608082015181600401555050600260008154809291906136aa906151d4565b91905055506000600180805490506136c29190615097565b905080600660008773ffffffffffffffffffffffffffffffffffffffff1673ffffffffffffffffffffffffffffffffffffffff16815260200190815260200160002081905550600b6000828152602001908152602001600020600090806001815401808255809150506001900390600052602060002090600891828204019190066004029091909190916101000a81548163ffffffff021916908363ffffffff160217905550600b6000828152602001908152602001600020600090806001815401808255809150506001900390600052602060002090600891828204019190066004029091909190916101000a81548163ffffffff021916908363ffffffff1602179055505050505050565b6040518060c00160405280600073ffffffffffffffffffffffffffffffffffffffff168152602001606081526020016060815260200160608152602001600063ffffffff168152602001600081525090565b6040518060a00160405280600073ffffffffffffffffffffffffffffffffffffffff1681526020016060815260200160608152602001600063ffffffff168152602001600081525090565b82805461387890615036565b90600052602060002090601f01602090048101928261389a57600085556138e1565b82601f106138b357805160ff19168380011785556138e1565b828001600101855582156138e1579182015b828111156138e05782518255916020019190600101906138c5565b5b5090506138ee9190613983565b5090565b6040518060e0016040528060608152602001600081526020016000815260200160008152602001600060ff16815260200160008152602001600081525090565b6040518061012001604052806000815260200160608152602001600081526020016000815260200160008152602001600060ff16815260200160008152602001600015158152602001600081525090565b5b8082111561399c576000816000905550600101613984565b5090565b6000604051905090565b600080fd5b600080fd5b600073ffffffffffffffffffffffffffffffffffffffff82169050919050565b60006139df826139b4565b9050919050565b6139ef816139d4565b81146139fa57600080fd5b50565b600081359050613a0c816139e6565b92915050565b600060208284031215613a2857613a276139aa565b5b6000613a36848285016139fd565b91505092915050565b60008115159050919050565b613a5481613a3f565b82525050565b6000602082019050613a6f6000830184613a4b565b92915050565b600080fd5b600080fd5b6000601f19601f8301169050919050565b7f4e487b7100000000000000000000000000000000000000000000000000000000600052604160045260246000fd5b613ac882613a7f565b810181811067ffffffffffffffff82111715613ae757613ae6613a90565b5b80604052505050565b6000613afa6139a0565b9050613b068282613abf565b919050565b600067ffffffffffffffff821115613b2657613b25613a90565b5b613b2f82613a7f565b9050602081019050919050565b82818337600083830152505050565b6000613b5e613b5984613b0b565b613af0565b905082815260208101848484011115613b7a57613b79613a7a565b5b613b85848285613b3c565b509392505050565b600082601f830112613ba257613ba1613a75565b5b8135613bb2848260208601613b4b565b91505092915050565b6000819050919050565b613bce81613bbb565b8114613bd957600080fd5b50565b600081359050613beb81613bc5565b92915050565b600060ff82169050919050565b613c0781613bf1565b8114613c1257600080fd5b50565b600081359050613c2481613bfe565b92915050565b60008060008060008060008060006101208a8c031215613c4d57613c4c6139aa565b5b60008a013567ffffffffffffffff811115613c6b57613c6a6139af565b5b613c778c828d01613b8d565b9950506020613c888c828d01613bdc565b9850506040613c998c828d01613bdc565b9750506060613caa8c828d01613bdc565b9650506080613cbb8c828d01613c15565b95505060a0613ccc8c828d01613bdc565b94505060c08a013567ffffffffffffffff811115613ced57613cec6139af565b5b613cf98c828d01613b8d565b93505060e08a013567ffffffffffffffff811115613d1a57613d196139af565b5b613d268c828d01613b8d565b925050610100613d388c828d01613c15565b9150509295985092959850929598565b600060208284031215613d5e57613d5d6139aa565b5b6000613d6c84828501613bdc565b91505092915050565b613d7e816139d4565b82525050565b600081519050919050565b600082825260208201905092915050565b60005b83811015613dbe578082015181840152602081019050613da3565b83811115613dcd576000848401525b50505050565b6000613dde82613d84565b613de88185613d8f565b9350613df8818560208601613da0565b613e0181613a7f565b840191505092915050565b600063ffffffff82169050919050565b613e2581613e0c565b82525050565b613e3481613bbb565b82525050565b600060c083016000830151613e526000860182613d75565b5060208301518482036020860152613e6a8282613dd3565b91505060408301518482036040860152613e848282613dd3565b91505060608301518482036060860152613e9e8282613dd3565b9150506080830151613eb36080860182613e1c565b5060a0830151613ec660a0860182613e2b565b508091505092915050565b60006020820190508181036000830152613eeb8184613e3a565b905092915050565b600060a083016000830151613f0b6000860182613d75565b5060208301518482036020860152613f238282613dd3565b91505060408301518482036040860152613f3d8282613dd3565b9150506060830151613f526060860182613e1c565b506080830151613f656080860182613e2b565b508091505092915050565b60006020820190508181036000830152613f8a8184613ef3565b905092915050565b600080600080600080600060e0888a031215613fb157613fb06139aa565b5b600088013567ffffffffffffffff811115613fcf57613fce6139af565b5b613fdb8a828b01613b8d565b9750506020613fec8a828b01613bdc565b9650506040613ffd8a828b01613bdc565b955050606061400e8a828b01613bdc565b945050608061401f8a828b01613c15565b93505060a06140308a828b01613bdc565b92505060c088013567ffffffffffffffff811115614051576140506139af565b5b61405d8a828b01613b8d565b91505092959891949750929550565b600081519050919050565b600082825260208201905092915050565b6000819050602082019050919050565b60006140a48383613e2b565b60208301905092915050565b6000602082019050919050565b60006140c88261406c565b6140d28185614077565b93506140dd83614088565b8060005b8381101561410e5781516140f58882614098565b9750614100836140b0565b9250506001810190506140e1565b5085935050505092915050565b6000602082019050818103600083015261413581846140bd565b905092915050565b60008060008060008060c0878903121561415a576141596139aa565b5b600087013567ffffffffffffffff811115614178576141776139af565b5b61418489828a01613b8d565b965050602061419589828a01613bdc565b95505060406141a689828a01613bdc565b94505060606141b789828a01613bdc565b93505060806141c889828a01613c15565b92505060a06141d989828a01613bdc565b9150509295509295509295565b6141ef81613bbb565b82525050565b600060208201905061420a60008301846141e6565b92915050565b60008060408385031215614227576142266139aa565b5b600061423585828601613bdc565b925050602061424685828601613bdc565b9150509250929050565b600080600080600080600080610100898b031215614271576142706139aa565b5b600089013567ffffffffffffffff81111561428f5761428e6139af565b5b61429b8b828c01613b8d565b98505060206142ac8b828c01613bdc565b97505060406142bd8b828c01613bdc565b96505060606142ce8b828c01613bdc565b95505060806142df8b828c01613c15565b94505060a06142f08b828c01613bdc565b93505060c089013567ffffffffffffffff811115614311576143106139af565b5b61431d8b828c01613b8d565b92505060e089013567ffffffffffffffff81111561433e5761433d6139af565b5b61434a8b828c01613b8d565b9150509295985092959890939650565b600082825260208201905092915050565b600061437682613d84565b614380818561435a565b9350614390818560208601613da0565b61439981613a7f565b840191505092915050565b6143ad81613bf1565b82525050565b600060e08201905081810360008301526143cd818a61436b565b90506143dc60208301896141e6565b6143e960408301886141e6565b6143f660608301876141e6565b61440360808301866143a4565b61441060a08301856141e6565b61441d60c08301846141e6565b98975050505050505050565b61443281613a3f565b811461443d57600080fd5b50565b60008135905061444f81614429565b92915050565b600080600080600080600080610100898b031215614476576144756139aa565b5b600089013567ffffffffffffffff811115614494576144936139af565b5b6144a08b828c01613b8d565b98505060206144b18b828c01613bdc565b97505060406144c28b828c01613bdc565b96505060606144d38b828c01613bdc565b95505060806144e48b828c01613c15565b94505060a06144f58b828c01613bdc565b93505060c089013567ffffffffffffffff811115614516576145156139af565b5b6145228b828c01613b8d565b92505060e06145338b828c01614440565b9150509295985092959890939650565b61454c81613e0c565b811461455757600080fd5b50565b60008135905061456981614543565b92915050565b600080600080600080600080610100898b0312156145905761458f6139aa565b5b600061459e8b828c016139fd565b985050602089013567ffffffffffffffff8111156145bf576145be6139af565b5b6145cb8b828c01613b8d565b975050604089013567ffffffffffffffff8111156145ec576145eb6139af565b5b6145f88b828c01613b8d565b965050606089013567ffffffffffffffff811115614619576146186139af565b5b6146258b828c01613b8d565b95505060806146368b828c0161455a565b94505060a089013567ffffffffffffffff811115614657576146566139af565b5b6146638b828c01613b8d565b93505060c089013567ffffffffffffffff811115614684576146836139af565b5b6146908b828c01613b8d565b92505060e06146a18b828c0161455a565b9150509295985092959890939650565b600067ffffffffffffffff8211156146cc576146cb613a90565b5b602082029050602081019050919050565b600080fd5b60006146f56146f0846146b1565b613af0565b90508083825260208201905060208402830185811115614718576147176146dd565b5b835b81811015614741578061472d8882613bdc565b84526020840193505060208101905061471a565b5050509392505050565b600082601f8301126147605761475f613a75565b5b81356147708482602086016146e2565b91505092915050565b60006020828403121561478f5761478e6139aa565b5b600082013567ffffffffffffffff8111156147ad576147ac6139af565b5b6147b98482850161474b565b91505092915050565b600081519050919050565b600082825260208201905092915050565b6000819050602082019050919050565b6147f781613bf1565b82525050565b600060e083016000830151848203600086015261481a8282613dd3565b915050602083015161482f6020860182613e2b565b5060408301516148426040860182613e2b565b5060608301516148556060860182613e2b565b50608083015161486860808601826147ee565b5060a083015161487b60a0860182613e2b565b5060c083015161488e60c0860182613e2b565b508091505092915050565b60006148a583836147fd565b905092915050565b6000602082019050919050565b60006148c5826147c2565b6148cf81856147cd565b9350836020820285016148e1856147de565b8060005b8581101561491d57848403895281516148fe8582614899565b9450614909836148ad565b925060208a019950506001810190506148e5565b50829750879550505050505092915050565b600081519050919050565b600082825260208201905092915050565b6000819050602082019050919050565b61496481613a3f565b82525050565b6000610120830160008301516149836000860182613e2b565b506020830151848203602086015261499b8282613dd3565b91505060408301516149b06040860182613e2b565b5060608301516149c36060860182613e2b565b5060808301516149d66080860182613e2b565b5060a08301516149e960a08601826147ee565b5060c08301516149fc60c0860182613e2b565b5060e0830151614a0f60e086018261495b565b50610100830151614a24610100860182613e2b565b508091505092915050565b6000614a3b838361496a565b905092915050565b6000602082019050919050565b6000614a5b8261492f565b614a65818561493a565b935083602082028501614a778561494b565b8060005b85811015614ab35784840389528151614a948582614a2f565b9450614a9f83614a43565b925060208a01995050600181019050614a7b565b50829750879550505050505092915050565b60006040820190508181036000830152614adf81856148ba565b90508181036020830152614af38184614a50565b90509392505050565b614b05816139d4565b82525050565b6000602082019050614b206000830184614afc565b92915050565b600061012083016000830151614b3f6000860182613e2b565b5060208301518482036020860152614b578282613dd3565b9150506040830151614b6c6040860182613e2b565b506060830151614b7f6060860182613e2b565b506080830151614b926080860182613e2b565b5060a0830151614ba560a08601826147ee565b5060c0830151614bb860c0860182613e2b565b5060e0830151614bcb60e086018261495b565b50610100830151614be0610100860182613e2b565b508091505092915050565b60006020820190508181036000830152614c058184614b26565b905092915050565b60008060408385031215614c2457614c236139aa565b5b6000614c32858286016139fd565b9250506020614c4385828601613bdc565b9150509250929050565b600080600080600080600080610100898b031215614c6e57614c6d6139aa565b5b6000614c7c8b828c01613bdc565b985050602089013567ffffffffffffffff811115614c9d57614c9c6139af565b5b614ca98b828c01613b8d565b9750506040614cba8b828c01613bdc565b9650506060614ccb8b828c01613bdc565b9550506080614cdc8b828c01613bdc565b94505060a0614ced8b828c01614440565b93505060c0614cfe8b828c01613c15565b92505060e0614d0f8b828c01613bdc565b9150509295985092959890939650565b60006020820190508181036000830152614d398184614a50565b905092915050565b600060e0830160008301518482036000860152614d5e8282613dd3565b9150506020830151614d736020860182613e2b565b506040830151614d866040860182613e2b565b506060830151614d996060860182613e2b565b506080830151614dac60808601826147ee565b5060a0830151614dbf60a0860182613e2b565b5060c0830151614dd260c0860182613e2b565b508091505092915050565b60006020820190508181036000830152614df78184614d41565b905092915050565b6000806000806000806000806000806101408b8d031215614e2357614e226139aa565b5b60008b013567ffffffffffffffff811115614e4157614e406139af565b5b614e4d8d828e01613b8d565b9a50506020614e5e8d828e01613bdc565b9950506040614e6f8d828e01613bdc565b9850506060614e808d828e01613bdc565b9750506080614e918d828e01613c15565b96505060a0614ea28d828e01613bdc565b95505060c08b013567ffffffffffffffff811115614ec357614ec26139af565b5b614ecf8d828e01613b8d565b94505060e08b013567ffffffffffffffff811115614ef057614eef6139af565b5b614efc8d828e01613b8d565b9350506101008b013567ffffffffffffffff811115614f1e57614f1d6139af565b5b614f2a8d828e01613b8d565b925050610120614f3c8d828e01613c15565b9150509295989b9194979a5092959850565b60006040820190508181036000830152614f688185614d41565b90508181036020830152614f7c8184614a50565b90509392505050565b7f4e487b7100000000000000000000000000000000000000000000000000000000600052603260045260246000fd5b60006080820190508181036000830152614fce818761436b565b90508181036020830152614fe2818661436b565b9050614ff160408301856143a4565b614ffe60608301846141e6565b95945050505050565b7f4e487b7100000000000000000000000000000000000000000000000000000000600052602260045260246000fd5b6000600282049050600182168061504e57607f821691505b6020821081141561506257615061615007565b5b50919050565b7f4e487b7100000000000000000000000000000000000000000000000000000000600052601160045260246000fd5b60006150a282613bbb565b91506150ad83613bbb565b9250828210156150c0576150bf615068565b5b828203905092915050565b600060408201905081810360008301526150e5818561436b565b90506150f460208301846141e6565b9392505050565b60006060820190508181036000830152615115818661436b565b90508181036020830152615129818561436b565b905061513860408301846141e6565b949350505050565b6000606082019050818103600083015261515a818661436b565b90506151696020830185613a4b565b61517660408301846141e6565b949350505050565b600061518982613bbb565b915061519483613bbb565b9250827fffffffffffffffffffffffffffffffffffffffffffffffffffffffffffffffff038211156151c9576151c8615068565b5b828201905092915050565b60006151df82613bbb565b91507fffffffffffffffffffffffffffffffffffffffffffffffffffffffffffffffff82141561521257615211615068565b5b600182019050919050565b600061522882613e0c565b915063ffffffff82141561523f5761523e615068565b5b600182019050919050565b600061525582613e0c565b915061526083613e0c565b92508263ffffffff0382111561527957615278615068565b5b828201905092915050565b600061528f82613e0c565b915061529a83613e0c565b9250828210156152ad576152ac615068565b5b828203905092915050565b600060a08201905081810360008301526152d2818861436b565b905081810360208301526152e6818761436b565b905081810360408301526152fa818661436b565b905061530960608301856143a4565b61531660808301846141e6565b969550505050505056fea2646970667358221220ca199f0e5b352a84536a3aea73df6f139f770f36c88fa410861d3e171da2b5f364736f6c634300080c0033",
  "immutableReferences": {},
  "source": "// SPDX-License-Identifier: MIT\r\npragma solidity >=0.7.0 <0.9.10;\r\nimport \"./DataStruct.sol\";\r\n\r\ncontract Main {\r\n    address public dataStructsAdd;\r\n\r\n    constructor (address _dataSAdd){\r\n        dataStructsAdd = _dataSAdd;\r\n    }\r\n\r\n    //EVENTS\r\n    event NewOrganization(address user, string name);\r\n    event LogNewUser(\r\n        address indexed userAddress,\r\n        uint256 index,\r\n        bytes32 userEmail,\r\n        uint256 userAge\r\n    );\r\n\r\n    //STRUCTS\r\n    struct Organization {\r\n        address admin;\r\n        string name;\r\n        string addressO;\r\n        uint32 telephone;\r\n        uint256 index;\r\n    }\r\n\r\n    struct Admin {\r\n        address admin;\r\n        string name;\r\n        string lastname;\r\n        string email;\r\n        uint32 telephone;\r\n        uint256 index;\r\n    }\r\n\r\n    //DATA\r\n    Organization[] private organizations;\r\n    uint256 public orgCount;\r\n\r\n    Admin[] private admins;\r\n    uint256 adminsCount;\r\n\r\n    //List of users with a org created (administrators)\r\n    address[] public administrators;\r\n\r\n    mapping(address => uint256) public addressToOrganizationIndex;\r\n\r\n    //FUNCTIONS\r\n    //TODO CHECK IS ADMINISTRATOR IF WORKING PROPERLY\r\n    //data created with organization\r\n    function insertOrgAndAdmin(\r\n        address admin,\r\n        string memory name,\r\n        string memory lastname,\r\n        string memory email,\r\n        uint32 adTelephone,\r\n        string memory orgName,\r\n        string memory orgAddress,\r\n        uint32 orgTelephone\r\n    ) public {\r\n        if (isAdministrator(admin)) revert();\r\n        insertAdmin(admin, name, lastname, email, adTelephone);\r\n        insertOrganization(admin, orgName, orgAddress, orgTelephone);\r\n        administrators.push(admin);\r\n    }\r\n\r\n    function insertAdmin(\r\n        address admin,\r\n        string memory name,\r\n        string memory lastname,\r\n        string memory email,\r\n        uint32 telephone\r\n    ) private {\r\n        admins.push(\r\n            (Admin(admin, name, lastname, email, telephone, admins.length))\r\n        );\r\n        adminsCount++;\r\n    }\r\n\r\n    function insertOrganization(\r\n        address userAddress,\r\n        string memory name,\r\n        string memory addressO,\r\n        uint32 telephone\r\n    ) private {\r\n        organizations.push(\r\n            Organization(\r\n                userAddress,\r\n                name,\r\n                addressO,\r\n                telephone,\r\n                organizations.length\r\n            )\r\n        );\r\n        orgCount++;\r\n        uint256 id = organizations.length - 1;\r\n        addressToOrganizationIndex[userAddress] = id;\r\n        //Create the mapping with 0 assets edited and 0 deleted\r\n        organizationNumberOfAssetsED[id].push(0);\r\n        organizationNumberOfAssetsED[id].push(0);\r\n    }\r\n\r\n    // Check if the address has created a org, == is an administrator.\r\n    function isAdministrator(address userAddress)\r\n        public\r\n        view\r\n        returns (bool isIndeed)\r\n    {\r\n        if (administrators.length == 0) return false;\r\n        return (administrators[addressToOrganizationIndex[userAddress]] ==\r\n            userAddress);\r\n    }\r\n\r\n    function isAdminFromOrg(address addr, uint orgId) public view returns(bool){\r\n        if (admins.length == 0) return false;\r\n        if (!isAdministrator(addr)) return false;\r\n        return(addressToOrganizationIndex[addr] == orgId);\r\n    }\r\n\r\n    function getOrg(uint256 _orgId) public view returns (Organization memory) {\r\n        return organizations[_orgId];\r\n    }\r\n\r\n    function getIdAsset() public view returns (uint id) {\r\n        return assetsList.length;\r\n    }\r\n\r\n    function getAdminToOrg(address userAddress)\r\n        public\r\n        view\r\n        returns (uint256 userid)\r\n    {\r\n        return addressToOrganizationIndex[userAddress];\r\n    }\r\n\r\n    //Get the organization if there is an address that created it\r\n    function getOrgFromAddress(address userAddress)\r\n        public\r\n        view\r\n        returns (Organization memory org)\r\n    {\r\n        if (isAdministrator(userAddress)) revert();\r\n        uint256 orgId = getAdminToOrg(userAddress);\r\n        Organization memory organ = getOrg(orgId);\r\n        return organ;\r\n    }\r\n\r\n    //ASSETS TYPE AND FUNCTIONS\r\n    struct Asset {\r\n        string name;\r\n        uint256 organizationId;\r\n        uint256 adquireDate;\r\n        uint256 creationDate;\r\n        uint8 assetType;\r\n        uint256 assetDepart;\r\n        uint256 index;\r\n    }\r\n\r\n\r\n    Asset[] public assetsList;\r\n    //uint256 orgCount;\r\n\r\n    //UNNECESARY MAPPING\r\n    //mapping(uint256 => uint256) private assetToOrg;\r\n\r\n    //CREAR UN MAPPING DE ORGANIZACIN (ID) A LISTA DE ASSETS (ID)?\r\n    mapping(uint256 => uint256[]) private assetsFromOrg;\r\n\r\n    \r\n\r\n    //ASSET EDITED INTRODUCES A BOOL DELETED\r\n    struct AssetEdited {\r\n        uint256 originalAssetId;\r\n        string name;\r\n        uint256 organizationId;\r\n        uint256 adquireDate;\r\n        uint256 creationDate;\r\n        uint8 assetType;\r\n        uint256 assetDepart;\r\n        bool deleted;\r\n        uint256 index;\r\n\r\n        //uint fechafin;\r\n\r\n    }\r\n\r\n    AssetEdited[] private assetsEditedList;\r\n    //ASSETS ORIGINAL TO LIST OF ASSETS EDITED\r\n    mapping(uint256 => uint256[]) private originalAssetsToEditedList;\r\n\r\n    function insertAsset(\r\n        string memory name,\r\n        uint256 organizationId,\r\n        uint256 adquireDate,\r\n        uint256 creationDate,\r\n        uint8 assetType,\r\n        uint256 assetDepart\r\n    ) public {\r\n        assetsList.push(\r\n            (\r\n                Asset(\r\n                    name,\r\n                    organizationId,\r\n                    adquireDate,\r\n                    creationDate,\r\n                    assetType,\r\n                    assetDepart,\r\n                    assetsList.length\r\n                )\r\n            )\r\n        );\r\n        assetsFromOrg[organizationId].push(assetsList.length - 1);\r\n        assetBoolEditedAndDeleted[assetsList.length - 1].push(false);\r\n        assetBoolEditedAndDeleted[assetsList.length - 1].push(false);\r\n        originalAssetsToEditedList[assetsList.length - 1];\r\n    }\r\n\r\n    function insertAssetToDepartment(uint256 index, uint256 assetDepartId) public {\r\n        assetsList[index].assetDepart = assetDepartId;\r\n    }\r\n\r\n    //CREATE A FUNCTION FOR EACH INSERTED ASSET TYPE\r\n    function insertNewSoftAsset(string memory name,\r\n        uint256 organizationId,\r\n        uint256 adquireDate,\r\n        uint256 creationDate,\r\n        uint8 assetType,\r\n        uint256 assetDepart,\r\n        string memory version, \r\n        string memory provider, \r\n        uint8 stype) public {\r\n            \r\n        insertAsset(name, organizationId, adquireDate, creationDate, assetType, assetDepart);\r\n        uint assetId = assetsList.length - 1; \r\n        DataStructs DS = DataStructs(dataStructsAdd);\r\n        DS.insertSoftware(version, provider, stype, assetId);\r\n    }\r\n\r\n    function insertNewHardAsset(string memory name,\r\n        uint256 organizationId,\r\n        uint256 adquireDate,\r\n        uint256 creationDate,\r\n        uint8 assetType,\r\n        uint256 assetDepart,\r\n        string memory model, \r\n        string memory provider, \r\n        string memory serialNumber, \r\n        uint8 htype) public {\r\n        \r\n        uint assetId = assetsList.length; \r\n        insertAsset(name, organizationId, adquireDate, creationDate, assetType, assetDepart);\r\n        \r\n        DataStructs DS = DataStructs(dataStructsAdd);\r\n        DS.insertHardware(model, provider, serialNumber, htype, assetId);\r\n    }\r\n\r\n    function insertNewDocAsset(string memory name,\r\n        uint256 organizationId,\r\n        uint256 adquireDate,\r\n        uint256 creationDate,\r\n        uint8 assetType,\r\n        uint256 assetDepart,\r\n        string memory description,\r\n        string memory location,\r\n        uint8 doctype) public {\r\n        \r\n        uint assetId = assetsList.length; \r\n        insertAsset(name, organizationId, adquireDate, creationDate, assetType, assetDepart);\r\n        \r\n        DataStructs DS = DataStructs(dataStructsAdd);\r\n        DS.insertDocument(description, location, doctype, assetId);\r\n    }\r\n\r\n    function insertNewDataAsset(string memory name,\r\n        uint256 organizationId,\r\n        uint256 adquireDate,\r\n        uint256 creationDate,\r\n        uint8 assetType,\r\n        uint256 assetDepart,\r\n        string memory location, \r\n        bool local) public {\r\n        \r\n        uint assetId = assetsList.length; \r\n        insertAsset(name, organizationId, adquireDate, creationDate, assetType, assetDepart);\r\n        \r\n        DataStructs DS = DataStructs(dataStructsAdd);\r\n        DS.insertData(location, local, assetId);\r\n    }\r\n\r\n    function insertNewNetworkAsset(string memory name,\r\n        uint256 organizationId,\r\n        uint256 adquireDate,\r\n        uint256 creationDate,\r\n        uint8 assetType,\r\n        uint256 assetDepart,\r\n        string memory cidrblock, \r\n        bool nat) public {\r\n        \r\n        uint assetId = assetsList.length; \r\n        insertAsset(name, organizationId, adquireDate, creationDate, assetType, assetDepart);\r\n        \r\n        DataStructs DS = DataStructs(dataStructsAdd);\r\n        DS.insertNetwork(cidrblock, nat, assetId);\r\n    }\r\n\r\n    function insertNewCloudAsset(string memory name,\r\n        uint256 organizationId,\r\n        uint256 adquireDate,\r\n        uint256 creationDate,\r\n        uint8 assetType,\r\n        uint256 assetDepart,\r\n        string memory url, \r\n        string memory domain) public {\r\n        \r\n        uint assetId = assetsList.length; \r\n        insertAsset(name, organizationId, adquireDate, creationDate, assetType, assetDepart);\r\n        DataStructs DS = DataStructs(dataStructsAdd);\r\n        DS.insertCloud(url, domain, assetId);\r\n    }\r\n\r\n    function insertNewOtherAsset(string memory name,\r\n        uint256 organizationId,\r\n        uint256 adquireDate,\r\n        uint256 creationDate,\r\n        uint8 assetType,\r\n        uint256 assetDepart,\r\n        string memory description) public {\r\n        \r\n        uint assetId = assetsList.length; \r\n        insertAsset(name, organizationId, adquireDate, creationDate, assetType, assetDepart);\r\n        DataStructs DS = DataStructs(dataStructsAdd);\r\n        DS.insertOther(description, assetId);\r\n    }\r\n\r\n    function getLastAssetEdited(uint256 id) public view returns (AssetEdited memory) {\r\n        uint256 lastItem = originalAssetsToEditedList[id].length - 1;\r\n        uint256 assetEditedId = originalAssetsToEditedList[id][lastItem];\r\n        return assetsEditedList[assetEditedId];\r\n    }\r\n\r\n    function getAsset(uint256 id) public view returns (Asset memory) {\r\n        return assetsList[id];\r\n    }\r\n\r\n    function getAdmin(uint256 _adminId) public view returns (Admin memory) {\r\n        return admins[_adminId];\r\n    }\r\n\r\n    function getAllAssetsFromOrg(uint256 _orgId)\r\n        public\r\n        view\r\n        returns (Asset[] memory, AssetEdited[] memory)\r\n    {\r\n        uint32 contEdited = organizationNumberOfAssetsED[_orgId][0];\r\n        uint32 contDeleted = organizationNumberOfAssetsED[_orgId][1];\r\n        uint32 edList = uint32(uint32(contEdited) - uint32(contDeleted));\r\n        uint256 cont = assetsFromOrg[_orgId].length;\r\n        Asset[] memory listOrgAssets = new Asset[](cont-contEdited);\r\n        AssetEdited[] memory listOrgAssetsEdited = new AssetEdited[](edList);\r\n        uint32 bucleEdited = 0;\r\n        uint bucleOriginal = 0;\r\n        for (uint256 i = 0; i < cont; i++) {\r\n            //First check if that asset has been deleted\r\n            //so we don't retrieve it\r\n            if (assetBoolEditedAndDeleted[i][1]) {\r\n                continue;\r\n            }\r\n            //Check if asset has been edited in order\r\n            //to retrieve last edited asset\r\n            if (assetBoolEditedAndDeleted[i][0] == true) {\r\n                uint256 lastItem = originalAssetsToEditedList[i].length - 1;\r\n                uint256 assetEditedId = originalAssetsToEditedList[i][lastItem];\r\n                listOrgAssetsEdited[bucleEdited] = assetsEditedList[assetEditedId];\r\n                bucleEdited++;\r\n                //Last case the asset hasn't been edited\r\n            } else {\r\n                uint256 assetId = assetsFromOrg[_orgId][i];\r\n                listOrgAssets[bucleOriginal] = assetsList[assetId];\r\n                bucleOriginal++;\r\n            }\r\n        }\r\n        return (listOrgAssets, listOrgAssetsEdited);\r\n    }\r\n\r\n\r\n    //MAPPING ID OF WITH THE LIST OF NUMBER OF ASSETS EDITED AND DELETED\r\n    mapping(uint256 => uint32[]) private organizationNumberOfAssetsED;\r\n\r\n\r\n    //CREAR MAPPING DE ID ORIGINAL A LIST OF BOOLEAN\r\n    // QUE INDICA SI EL ID EST EDITADO EN EL PRIMER VALOR\r\n    // EN EL SEGUNDO VALOR INDICA SI EST ELIMINADO\r\n    mapping(uint256 => bool[]) private assetBoolEditedAndDeleted;\r\n    //DE ESTA MANERA PODEMOS VER EN CADA CASO EL ID SI EST EDITADO O ELIMINADO\r\n\r\n    //mapping que relaciona la org con los assets que tiene eliminados\r\n    mapping(uint256 => uint256[]) private assetsFromOrgDeleted;\r\n\r\n    function insertEditedAsset(\r\n        uint256 originalAssetId,\r\n        string memory name,\r\n        uint256 organizationId,\r\n        uint256 adquireDate,\r\n        uint256 creationDate,\r\n        bool deleted,\r\n        uint8 assetType,\r\n        uint256 assetDepart\r\n    ) public {\r\n        //CHECK IF THE ASSET IS ALREADY IN ASSETS EDITED LIST\r\n        \r\n        assetsEditedList.push(\r\n            (\r\n                AssetEdited(\r\n                    originalAssetId,\r\n                    name,\r\n                    organizationId,\r\n                    adquireDate,\r\n                    creationDate,\r\n                    assetType,\r\n                    assetDepart,\r\n                    deleted,\r\n                    assetsEditedList.length\r\n                )\r\n            )\r\n        );\r\n        uint256 id = assetsEditedList.length - 1;\r\n        if (!assetBoolEditedAndDeleted[originalAssetId][0]) {\r\n            assetBoolEditedAndDeleted[originalAssetId][0] = true;\r\n            uint32 ed = organizationNumberOfAssetsED[organizationId][0]+1;\r\n            organizationNumberOfAssetsED[organizationId][0] = ed;\r\n        }\r\n        originalAssetsToEditedList[originalAssetId].push(id);\r\n        \r\n        if (deleted == true) {\r\n            assetsFromOrgDeleted[organizationId].push(\r\n                assetsEditedList.length - 1\r\n            );\r\n            assetBoolEditedAndDeleted[originalAssetId][1] = true;\r\n            uint32 de = organizationNumberOfAssetsED[organizationId][1]+1;\r\n            organizationNumberOfAssetsED[organizationId][1] = de;\r\n        }\r\n    }\r\n\r\n    function getRecordList(uint assetId) public view returns (Asset memory, AssetEdited[] memory) {\r\n        Asset memory original = assetsList[assetId];\r\n        uint len = originalAssetsToEditedList[assetId].length;\r\n        AssetEdited[] memory listEdited = new AssetEdited[](len);\r\n        for (uint256 i = 0; i < len; i++) {\r\n            uint num = originalAssetsToEditedList[assetId][i];\r\n            listEdited[i] = assetsEditedList[num];\r\n        }\r\n        return (original, listEdited);\r\n     }\r\n\r\n    function getAssetEdited(uint256 id) public view returns (AssetEdited memory) {\r\n        return assetsEditedList[id];\r\n    }\r\n\r\n    function getAssetsDeleted(uint256 orgId)\r\n        public\r\n        view\r\n        returns (AssetEdited[] memory)\r\n    {\r\n        uint256 cont = assetsFromOrgDeleted[orgId].length;\r\n        AssetEdited[] memory listAssetsDeleted = new AssetEdited[](cont);\r\n        for (uint256 i = 0; i < cont; i++) {\r\n            uint256 id = assetsFromOrgDeleted[orgId][i];\r\n            listAssetsDeleted[i] = assetsEditedList[id];\r\n        }\r\n        return listAssetsDeleted;\r\n    }\r\n\r\n    function getIsAssetEdited(uint256 idAsset)\r\n        public\r\n        view\r\n        returns (bool result)\r\n    {\r\n        return assetBoolEditedAndDeleted[idAsset][0];\r\n    }\r\n\r\n    function getIsAssetDeleted(uint256 idAsset)\r\n        public\r\n        view\r\n        returns (bool result)\r\n    {\r\n        return assetBoolEditedAndDeleted[idAsset][1];\r\n    }\r\n\r\n    function getOrgNumEdited(uint orgId) public view returns (uint numEdited) {\r\n        return organizationNumberOfAssetsED[orgId][0];\r\n    }\r\n\r\n    function getOrgNumDeleted(uint orgId) public view returns (uint numDeleted) {\r\n        return organizationNumberOfAssetsED[orgId][1];\r\n    }\r\n\r\n    function getEdDeList(uint assetId) public view returns (uint[] memory listEdited) {\r\n        return originalAssetsToEditedList[assetId];\r\n    }\r\n\r\n    function retrieveListOfAsset(uint256[] memory ids) public view returns (Asset[] memory, AssetEdited[] memory) {\r\n        uint cont = 0;\r\n        uint contOr = 0;\r\n        for (uint256 i = 0; i < ids.length; i++) {\r\n           if(assetBoolEditedAndDeleted[ids[i]][0]) {\r\n               if(assetBoolEditedAndDeleted[ids[i]][1]) {\r\n                   continue;\r\n                } else {\r\n                    cont = cont +1;\r\n                } \r\n            } else {\r\n                contOr = contOr+1;\r\n            }\r\n        }\r\n        Asset[] memory listAssets = new Asset[](contOr);\r\n        AssetEdited[] memory listEdited = new AssetEdited[](cont);\r\n        uint32 bucleEdited = 0;\r\n        uint bucleOriginal = 0;\r\n        for (uint256 i = 0; i < ids.length; i++) {\r\n            if(assetBoolEditedAndDeleted[ids[i]][1]) {\r\n               continue;\r\n            } if (assetBoolEditedAndDeleted[ids[i]][0]) {\r\n                uint256 lastItem = originalAssetsToEditedList[ids[i]].length - 1;\r\n                uint256 assetEditedId = originalAssetsToEditedList[ids[i]][lastItem];\r\n                listEdited[bucleEdited] = assetsEditedList[assetEditedId];\r\n                bucleEdited++;\r\n                //Last case the asset hasn't been edited\r\n            } else {\r\n                uint256 assetId = ids[i];\r\n                listAssets[bucleOriginal] = assetsList[assetId];\r\n                bucleOriginal++;\r\n            }\r\n        }\r\n        return (listAssets, listEdited);\r\n    }\r\n    \r\n\r\n    function retrieveOrgData(uint orgId) public view returns(uint[] memory){\r\n        uint[] memory result = new uint[](3);\r\n        result[0] = assetsFromOrg[orgId].length;\r\n        result[1] = (organizationNumberOfAssetsED[orgId][0]);\r\n        result[2] = (organizationNumberOfAssetsED[orgId][1]);\r\n        return result;\r\n    }\r\n\r\n\r\n}\r\n",
  "sourcePath": "D:\\GIT\\inventory-blockchain\\blockchain\\contracts\\Main.sol",
  "compiler": {
    "name": "solc",
    "version": "0.8.12+commit.f00d7308.Emscripten.clang"
  },
  "schemaVersion": "3.4.6",
  "updatedAt": "2022-05-09T14:54:43.462Z",
  "networkType": "ethereum",
  "devdoc": {
    "kind": "dev",
    "methods": {},
    "version": 1
  },
  "userdoc": {
    "kind": "user",
    "methods": {},
    "version": 1
  }
}