{
  "contractName": "Main",
  "abi": [
    {
      "inputs": [
        {
          "internalType": "address",
          "name": "_dataSAdd",
          "type": "address"
        }
      ],
      "stateMutability": "nonpayable",
      "type": "constructor"
    },
    {
      "anonymous": false,
      "inputs": [
        {
          "indexed": true,
          "internalType": "address",
          "name": "userAddress",
          "type": "address"
        },
        {
          "indexed": false,
          "internalType": "uint256",
          "name": "index",
          "type": "uint256"
        },
        {
          "indexed": false,
          "internalType": "bytes32",
          "name": "userEmail",
          "type": "bytes32"
        },
        {
          "indexed": false,
          "internalType": "uint256",
          "name": "userAge",
          "type": "uint256"
        }
      ],
      "name": "LogNewUser",
      "type": "event"
    },
    {
      "anonymous": false,
      "inputs": [
        {
          "indexed": false,
          "internalType": "address",
          "name": "user",
          "type": "address"
        },
        {
          "indexed": false,
          "internalType": "string",
          "name": "name",
          "type": "string"
        }
      ],
      "name": "NewOrganization",
      "type": "event"
    },
    {
      "inputs": [
        {
          "internalType": "address",
          "name": "",
          "type": "address"
        }
      ],
      "name": "addressToOrganizationIndex",
      "outputs": [
        {
          "internalType": "uint256",
          "name": "",
          "type": "uint256"
        }
      ],
      "stateMutability": "view",
      "type": "function",
      "constant": true
    },
    {
      "inputs": [
        {
          "internalType": "uint256",
          "name": "",
          "type": "uint256"
        }
      ],
      "name": "administrators",
      "outputs": [
        {
          "internalType": "address",
          "name": "",
          "type": "address"
        }
      ],
      "stateMutability": "view",
      "type": "function",
      "constant": true
    },
    {
      "inputs": [],
      "name": "dataStructsAdd",
      "outputs": [
        {
          "internalType": "address",
          "name": "",
          "type": "address"
        }
      ],
      "stateMutability": "view",
      "type": "function",
      "constant": true
    },
    {
      "inputs": [],
      "name": "orgCount",
      "outputs": [
        {
          "internalType": "uint256",
          "name": "",
          "type": "uint256"
        }
      ],
      "stateMutability": "view",
      "type": "function",
      "constant": true
    },
    {
      "inputs": [
        {
          "internalType": "address",
          "name": "admin",
          "type": "address"
        },
        {
          "internalType": "string",
          "name": "name",
          "type": "string"
        },
        {
          "internalType": "string",
          "name": "lastname",
          "type": "string"
        },
        {
          "internalType": "string",
          "name": "email",
          "type": "string"
        },
        {
          "internalType": "uint32",
          "name": "adTelephone",
          "type": "uint32"
        },
        {
          "internalType": "string",
          "name": "orgName",
          "type": "string"
        },
        {
          "internalType": "string",
          "name": "orgAddress",
          "type": "string"
        },
        {
          "internalType": "uint32",
          "name": "orgTelephone",
          "type": "uint32"
        }
      ],
      "name": "insertOrgAndAdmin",
      "outputs": [],
      "stateMutability": "nonpayable",
      "type": "function"
    },
    {
      "inputs": [
        {
          "internalType": "address",
          "name": "userAddress",
          "type": "address"
        }
      ],
      "name": "isAdministrator",
      "outputs": [
        {
          "internalType": "bool",
          "name": "isIndeed",
          "type": "bool"
        }
      ],
      "stateMutability": "view",
      "type": "function",
      "constant": true
    },
    {
      "inputs": [
        {
          "internalType": "uint256",
          "name": "_orgId",
          "type": "uint256"
        }
      ],
      "name": "getOrg",
      "outputs": [
        {
          "components": [
            {
              "internalType": "address",
              "name": "admin",
              "type": "address"
            },
            {
              "internalType": "string",
              "name": "name",
              "type": "string"
            },
            {
              "internalType": "string",
              "name": "addressO",
              "type": "string"
            },
            {
              "internalType": "uint32",
              "name": "telephone",
              "type": "uint32"
            },
            {
              "internalType": "uint256",
              "name": "index",
              "type": "uint256"
            }
          ],
          "internalType": "struct Main.Organization",
          "name": "",
          "type": "tuple"
        }
      ],
      "stateMutability": "view",
      "type": "function",
      "constant": true
    },
    {
      "inputs": [
        {
          "internalType": "address",
          "name": "userAddress",
          "type": "address"
        }
      ],
      "name": "getAdminToOrg",
      "outputs": [
        {
          "internalType": "uint256",
          "name": "userid",
          "type": "uint256"
        }
      ],
      "stateMutability": "view",
      "type": "function",
      "constant": true
    },
    {
      "inputs": [
        {
          "internalType": "address",
          "name": "userAddress",
          "type": "address"
        }
      ],
      "name": "getOrgFromAddress",
      "outputs": [
        {
          "components": [
            {
              "internalType": "address",
              "name": "admin",
              "type": "address"
            },
            {
              "internalType": "string",
              "name": "name",
              "type": "string"
            },
            {
              "internalType": "string",
              "name": "addressO",
              "type": "string"
            },
            {
              "internalType": "uint32",
              "name": "telephone",
              "type": "uint32"
            },
            {
              "internalType": "uint256",
              "name": "index",
              "type": "uint256"
            }
          ],
          "internalType": "struct Main.Organization",
          "name": "org",
          "type": "tuple"
        }
      ],
      "stateMutability": "view",
      "type": "function",
      "constant": true
    },
    {
      "inputs": [
        {
          "internalType": "string",
          "name": "name",
          "type": "string"
        },
        {
          "internalType": "uint256",
          "name": "organizationId",
          "type": "uint256"
        },
        {
          "internalType": "uint256",
          "name": "adquireDate",
          "type": "uint256"
        },
        {
          "internalType": "uint256",
          "name": "creationDate",
          "type": "uint256"
        },
        {
          "internalType": "uint8",
          "name": "assetType",
          "type": "uint8"
        }
      ],
      "name": "insertAsset",
      "outputs": [],
      "stateMutability": "nonpayable",
      "type": "function"
    },
    {
      "inputs": [
        {
          "internalType": "string",
          "name": "name",
          "type": "string"
        },
        {
          "internalType": "uint256",
          "name": "organizationId",
          "type": "uint256"
        },
        {
          "internalType": "uint256",
          "name": "adquireDate",
          "type": "uint256"
        },
        {
          "internalType": "uint256",
          "name": "creationDate",
          "type": "uint256"
        },
        {
          "internalType": "uint8",
          "name": "assetType",
          "type": "uint8"
        },
        {
          "internalType": "string",
          "name": "version",
          "type": "string"
        },
        {
          "internalType": "string",
          "name": "provider",
          "type": "string"
        },
        {
          "internalType": "uint8",
          "name": "stype",
          "type": "uint8"
        }
      ],
      "name": "insertNewSoftAsset",
      "outputs": [],
      "stateMutability": "nonpayable",
      "type": "function"
    },
    {
      "inputs": [
        {
          "internalType": "string",
          "name": "name",
          "type": "string"
        },
        {
          "internalType": "uint256",
          "name": "organizationId",
          "type": "uint256"
        },
        {
          "internalType": "uint256",
          "name": "adquireDate",
          "type": "uint256"
        },
        {
          "internalType": "uint256",
          "name": "creationDate",
          "type": "uint256"
        },
        {
          "internalType": "uint8",
          "name": "assetType",
          "type": "uint8"
        },
        {
          "internalType": "string",
          "name": "model",
          "type": "string"
        },
        {
          "internalType": "string",
          "name": "provider",
          "type": "string"
        },
        {
          "internalType": "string",
          "name": "serialNumber",
          "type": "string"
        },
        {
          "internalType": "uint8",
          "name": "htype",
          "type": "uint8"
        }
      ],
      "name": "insertNewHardAsset",
      "outputs": [],
      "stateMutability": "nonpayable",
      "type": "function"
    },
    {
      "inputs": [
        {
          "internalType": "string",
          "name": "name",
          "type": "string"
        },
        {
          "internalType": "uint256",
          "name": "organizationId",
          "type": "uint256"
        },
        {
          "internalType": "uint256",
          "name": "adquireDate",
          "type": "uint256"
        },
        {
          "internalType": "uint256",
          "name": "creationDate",
          "type": "uint256"
        },
        {
          "internalType": "uint8",
          "name": "assetType",
          "type": "uint8"
        },
        {
          "internalType": "string",
          "name": "description",
          "type": "string"
        },
        {
          "internalType": "string",
          "name": "location",
          "type": "string"
        },
        {
          "internalType": "uint8",
          "name": "doctype",
          "type": "uint8"
        }
      ],
      "name": "insertNewDocAsset",
      "outputs": [],
      "stateMutability": "nonpayable",
      "type": "function"
    },
    {
      "inputs": [
        {
          "internalType": "string",
          "name": "name",
          "type": "string"
        },
        {
          "internalType": "uint256",
          "name": "organizationId",
          "type": "uint256"
        },
        {
          "internalType": "uint256",
          "name": "adquireDate",
          "type": "uint256"
        },
        {
          "internalType": "uint256",
          "name": "creationDate",
          "type": "uint256"
        },
        {
          "internalType": "uint8",
          "name": "assetType",
          "type": "uint8"
        },
        {
          "internalType": "string",
          "name": "location",
          "type": "string"
        },
        {
          "internalType": "bool",
          "name": "local",
          "type": "bool"
        }
      ],
      "name": "insertNewDataAsset",
      "outputs": [],
      "stateMutability": "nonpayable",
      "type": "function"
    },
    {
      "inputs": [
        {
          "internalType": "string",
          "name": "name",
          "type": "string"
        },
        {
          "internalType": "uint256",
          "name": "organizationId",
          "type": "uint256"
        },
        {
          "internalType": "uint256",
          "name": "adquireDate",
          "type": "uint256"
        },
        {
          "internalType": "uint256",
          "name": "creationDate",
          "type": "uint256"
        },
        {
          "internalType": "uint8",
          "name": "assetType",
          "type": "uint8"
        },
        {
          "internalType": "string",
          "name": "cidrblock",
          "type": "string"
        },
        {
          "internalType": "bool",
          "name": "nat",
          "type": "bool"
        }
      ],
      "name": "insertNewNetworkAsset",
      "outputs": [],
      "stateMutability": "nonpayable",
      "type": "function"
    },
    {
      "inputs": [
        {
          "internalType": "string",
          "name": "name",
          "type": "string"
        },
        {
          "internalType": "uint256",
          "name": "organizationId",
          "type": "uint256"
        },
        {
          "internalType": "uint256",
          "name": "adquireDate",
          "type": "uint256"
        },
        {
          "internalType": "uint256",
          "name": "creationDate",
          "type": "uint256"
        },
        {
          "internalType": "uint8",
          "name": "assetType",
          "type": "uint8"
        },
        {
          "internalType": "string",
          "name": "url",
          "type": "string"
        },
        {
          "internalType": "string",
          "name": "domain",
          "type": "string"
        }
      ],
      "name": "insertNewCloudAsset",
      "outputs": [],
      "stateMutability": "nonpayable",
      "type": "function"
    },
    {
      "inputs": [
        {
          "internalType": "string",
          "name": "name",
          "type": "string"
        },
        {
          "internalType": "uint256",
          "name": "organizationId",
          "type": "uint256"
        },
        {
          "internalType": "uint256",
          "name": "adquireDate",
          "type": "uint256"
        },
        {
          "internalType": "uint256",
          "name": "creationDate",
          "type": "uint256"
        },
        {
          "internalType": "uint8",
          "name": "assetType",
          "type": "uint8"
        },
        {
          "internalType": "string",
          "name": "description",
          "type": "string"
        }
      ],
      "name": "insertNewOtherAsset",
      "outputs": [],
      "stateMutability": "nonpayable",
      "type": "function"
    },
    {
      "inputs": [
        {
          "internalType": "uint256",
          "name": "id",
          "type": "uint256"
        }
      ],
      "name": "getLastAssetEdited",
      "outputs": [
        {
          "components": [
            {
              "internalType": "uint256",
              "name": "originalAssetId",
              "type": "uint256"
            },
            {
              "internalType": "string",
              "name": "name",
              "type": "string"
            },
            {
              "internalType": "uint256",
              "name": "organizationId",
              "type": "uint256"
            },
            {
              "internalType": "uint256",
              "name": "adquireDate",
              "type": "uint256"
            },
            {
              "internalType": "uint256",
              "name": "creationDate",
              "type": "uint256"
            },
            {
              "internalType": "uint8",
              "name": "assetType",
              "type": "uint8"
            },
            {
              "internalType": "bool",
              "name": "deleted",
              "type": "bool"
            },
            {
              "internalType": "uint256",
              "name": "index",
              "type": "uint256"
            }
          ],
          "internalType": "struct Main.AssetEdited",
          "name": "",
          "type": "tuple"
        }
      ],
      "stateMutability": "view",
      "type": "function",
      "constant": true
    },
    {
      "inputs": [
        {
          "internalType": "uint256",
          "name": "id",
          "type": "uint256"
        }
      ],
      "name": "getAsset",
      "outputs": [
        {
          "components": [
            {
              "internalType": "string",
              "name": "name",
              "type": "string"
            },
            {
              "internalType": "uint256",
              "name": "organizationId",
              "type": "uint256"
            },
            {
              "internalType": "uint256",
              "name": "adquireDate",
              "type": "uint256"
            },
            {
              "internalType": "uint256",
              "name": "creationDate",
              "type": "uint256"
            },
            {
              "internalType": "uint8",
              "name": "assetType",
              "type": "uint8"
            },
            {
              "internalType": "uint256",
              "name": "index",
              "type": "uint256"
            }
          ],
          "internalType": "struct Main.Asset",
          "name": "",
          "type": "tuple"
        }
      ],
      "stateMutability": "view",
      "type": "function",
      "constant": true
    },
    {
      "inputs": [
        {
          "internalType": "uint256",
          "name": "_adminId",
          "type": "uint256"
        }
      ],
      "name": "getAdmin",
      "outputs": [
        {
          "components": [
            {
              "internalType": "address",
              "name": "admin",
              "type": "address"
            },
            {
              "internalType": "string",
              "name": "name",
              "type": "string"
            },
            {
              "internalType": "string",
              "name": "lastname",
              "type": "string"
            },
            {
              "internalType": "string",
              "name": "email",
              "type": "string"
            },
            {
              "internalType": "uint32",
              "name": "telephone",
              "type": "uint32"
            },
            {
              "internalType": "uint256",
              "name": "index",
              "type": "uint256"
            }
          ],
          "internalType": "struct Main.Admin",
          "name": "",
          "type": "tuple"
        }
      ],
      "stateMutability": "view",
      "type": "function",
      "constant": true
    },
    {
      "inputs": [
        {
          "internalType": "uint256",
          "name": "_orgId",
          "type": "uint256"
        }
      ],
      "name": "getAllAssetsFromOrg",
      "outputs": [
        {
          "components": [
            {
              "internalType": "string",
              "name": "name",
              "type": "string"
            },
            {
              "internalType": "uint256",
              "name": "organizationId",
              "type": "uint256"
            },
            {
              "internalType": "uint256",
              "name": "adquireDate",
              "type": "uint256"
            },
            {
              "internalType": "uint256",
              "name": "creationDate",
              "type": "uint256"
            },
            {
              "internalType": "uint8",
              "name": "assetType",
              "type": "uint8"
            },
            {
              "internalType": "uint256",
              "name": "index",
              "type": "uint256"
            }
          ],
          "internalType": "struct Main.Asset[]",
          "name": "",
          "type": "tuple[]"
        },
        {
          "components": [
            {
              "internalType": "uint256",
              "name": "originalAssetId",
              "type": "uint256"
            },
            {
              "internalType": "string",
              "name": "name",
              "type": "string"
            },
            {
              "internalType": "uint256",
              "name": "organizationId",
              "type": "uint256"
            },
            {
              "internalType": "uint256",
              "name": "adquireDate",
              "type": "uint256"
            },
            {
              "internalType": "uint256",
              "name": "creationDate",
              "type": "uint256"
            },
            {
              "internalType": "uint8",
              "name": "assetType",
              "type": "uint8"
            },
            {
              "internalType": "bool",
              "name": "deleted",
              "type": "bool"
            },
            {
              "internalType": "uint256",
              "name": "index",
              "type": "uint256"
            }
          ],
          "internalType": "struct Main.AssetEdited[]",
          "name": "",
          "type": "tuple[]"
        }
      ],
      "stateMutability": "view",
      "type": "function",
      "constant": true
    },
    {
      "inputs": [
        {
          "internalType": "uint256",
          "name": "originalAssetId",
          "type": "uint256"
        },
        {
          "internalType": "string",
          "name": "name",
          "type": "string"
        },
        {
          "internalType": "uint256",
          "name": "organizationId",
          "type": "uint256"
        },
        {
          "internalType": "uint256",
          "name": "adquireDate",
          "type": "uint256"
        },
        {
          "internalType": "uint256",
          "name": "creationDate",
          "type": "uint256"
        },
        {
          "internalType": "bool",
          "name": "deleted",
          "type": "bool"
        },
        {
          "internalType": "uint8",
          "name": "assetType",
          "type": "uint8"
        }
      ],
      "name": "insertEditedAsset",
      "outputs": [],
      "stateMutability": "nonpayable",
      "type": "function"
    },
    {
      "inputs": [
        {
          "internalType": "uint256",
          "name": "assetId",
          "type": "uint256"
        }
      ],
      "name": "getRecordList",
      "outputs": [
        {
          "components": [
            {
              "internalType": "string",
              "name": "name",
              "type": "string"
            },
            {
              "internalType": "uint256",
              "name": "organizationId",
              "type": "uint256"
            },
            {
              "internalType": "uint256",
              "name": "adquireDate",
              "type": "uint256"
            },
            {
              "internalType": "uint256",
              "name": "creationDate",
              "type": "uint256"
            },
            {
              "internalType": "uint8",
              "name": "assetType",
              "type": "uint8"
            },
            {
              "internalType": "uint256",
              "name": "index",
              "type": "uint256"
            }
          ],
          "internalType": "struct Main.Asset",
          "name": "",
          "type": "tuple"
        },
        {
          "components": [
            {
              "internalType": "uint256",
              "name": "originalAssetId",
              "type": "uint256"
            },
            {
              "internalType": "string",
              "name": "name",
              "type": "string"
            },
            {
              "internalType": "uint256",
              "name": "organizationId",
              "type": "uint256"
            },
            {
              "internalType": "uint256",
              "name": "adquireDate",
              "type": "uint256"
            },
            {
              "internalType": "uint256",
              "name": "creationDate",
              "type": "uint256"
            },
            {
              "internalType": "uint8",
              "name": "assetType",
              "type": "uint8"
            },
            {
              "internalType": "bool",
              "name": "deleted",
              "type": "bool"
            },
            {
              "internalType": "uint256",
              "name": "index",
              "type": "uint256"
            }
          ],
          "internalType": "struct Main.AssetEdited[]",
          "name": "",
          "type": "tuple[]"
        }
      ],
      "stateMutability": "view",
      "type": "function",
      "constant": true
    },
    {
      "inputs": [
        {
          "internalType": "uint256",
          "name": "id",
          "type": "uint256"
        }
      ],
      "name": "getAssetEdited",
      "outputs": [
        {
          "components": [
            {
              "internalType": "uint256",
              "name": "originalAssetId",
              "type": "uint256"
            },
            {
              "internalType": "string",
              "name": "name",
              "type": "string"
            },
            {
              "internalType": "uint256",
              "name": "organizationId",
              "type": "uint256"
            },
            {
              "internalType": "uint256",
              "name": "adquireDate",
              "type": "uint256"
            },
            {
              "internalType": "uint256",
              "name": "creationDate",
              "type": "uint256"
            },
            {
              "internalType": "uint8",
              "name": "assetType",
              "type": "uint8"
            },
            {
              "internalType": "bool",
              "name": "deleted",
              "type": "bool"
            },
            {
              "internalType": "uint256",
              "name": "index",
              "type": "uint256"
            }
          ],
          "internalType": "struct Main.AssetEdited",
          "name": "",
          "type": "tuple"
        }
      ],
      "stateMutability": "view",
      "type": "function",
      "constant": true
    },
    {
      "inputs": [
        {
          "internalType": "uint256",
          "name": "orgId",
          "type": "uint256"
        }
      ],
      "name": "getAssetsDeleted",
      "outputs": [
        {
          "components": [
            {
              "internalType": "uint256",
              "name": "originalAssetId",
              "type": "uint256"
            },
            {
              "internalType": "string",
              "name": "name",
              "type": "string"
            },
            {
              "internalType": "uint256",
              "name": "organizationId",
              "type": "uint256"
            },
            {
              "internalType": "uint256",
              "name": "adquireDate",
              "type": "uint256"
            },
            {
              "internalType": "uint256",
              "name": "creationDate",
              "type": "uint256"
            },
            {
              "internalType": "uint8",
              "name": "assetType",
              "type": "uint8"
            },
            {
              "internalType": "bool",
              "name": "deleted",
              "type": "bool"
            },
            {
              "internalType": "uint256",
              "name": "index",
              "type": "uint256"
            }
          ],
          "internalType": "struct Main.AssetEdited[]",
          "name": "",
          "type": "tuple[]"
        }
      ],
      "stateMutability": "view",
      "type": "function",
      "constant": true
    },
    {
      "inputs": [
        {
          "internalType": "uint256",
          "name": "idAsset",
          "type": "uint256"
        }
      ],
      "name": "getIsAssetEdited",
      "outputs": [
        {
          "internalType": "bool",
          "name": "result",
          "type": "bool"
        }
      ],
      "stateMutability": "view",
      "type": "function",
      "constant": true
    },
    {
      "inputs": [
        {
          "internalType": "uint256",
          "name": "idAsset",
          "type": "uint256"
        }
      ],
      "name": "getIsAssetDeleted",
      "outputs": [
        {
          "internalType": "bool",
          "name": "result",
          "type": "bool"
        }
      ],
      "stateMutability": "view",
      "type": "function",
      "constant": true
    },
    {
      "inputs": [
        {
          "internalType": "uint256",
          "name": "orgId",
          "type": "uint256"
        }
      ],
      "name": "getOrgNumEdited",
      "outputs": [
        {
          "internalType": "uint256",
          "name": "numEdited",
          "type": "uint256"
        }
      ],
      "stateMutability": "view",
      "type": "function",
      "constant": true
    },
    {
      "inputs": [
        {
          "internalType": "uint256",
          "name": "orgId",
          "type": "uint256"
        }
      ],
      "name": "getOrgNumDeleted",
      "outputs": [
        {
          "internalType": "uint256",
          "name": "numDeleted",
          "type": "uint256"
        }
      ],
      "stateMutability": "view",
      "type": "function",
      "constant": true
    },
    {
      "inputs": [
        {
          "internalType": "uint256",
          "name": "assetId",
          "type": "uint256"
        }
      ],
      "name": "getEdDeList",
      "outputs": [
        {
          "internalType": "uint256[]",
          "name": "listEdited",
          "type": "uint256[]"
        }
      ],
      "stateMutability": "view",
      "type": "function",
      "constant": true
    },
    {
      "inputs": [
        {
          "internalType": "uint256[]",
          "name": "ids",
          "type": "uint256[]"
        }
      ],
      "name": "retrieveListOfAsset",
      "outputs": [
        {
          "components": [
            {
              "internalType": "string",
              "name": "name",
              "type": "string"
            },
            {
              "internalType": "uint256",
              "name": "organizationId",
              "type": "uint256"
            },
            {
              "internalType": "uint256",
              "name": "adquireDate",
              "type": "uint256"
            },
            {
              "internalType": "uint256",
              "name": "creationDate",
              "type": "uint256"
            },
            {
              "internalType": "uint8",
              "name": "assetType",
              "type": "uint8"
            },
            {
              "internalType": "uint256",
              "name": "index",
              "type": "uint256"
            }
          ],
          "internalType": "struct Main.Asset[]",
          "name": "",
          "type": "tuple[]"
        },
        {
          "components": [
            {
              "internalType": "uint256",
              "name": "originalAssetId",
              "type": "uint256"
            },
            {
              "internalType": "string",
              "name": "name",
              "type": "string"
            },
            {
              "internalType": "uint256",
              "name": "organizationId",
              "type": "uint256"
            },
            {
              "internalType": "uint256",
              "name": "adquireDate",
              "type": "uint256"
            },
            {
              "internalType": "uint256",
              "name": "creationDate",
              "type": "uint256"
            },
            {
              "internalType": "uint8",
              "name": "assetType",
              "type": "uint8"
            },
            {
              "internalType": "bool",
              "name": "deleted",
              "type": "bool"
            },
            {
              "internalType": "uint256",
              "name": "index",
              "type": "uint256"
            }
          ],
          "internalType": "struct Main.AssetEdited[]",
          "name": "",
          "type": "tuple[]"
        }
      ],
      "stateMutability": "view",
      "type": "function",
      "constant": true
    },
    {
      "inputs": [
        {
          "internalType": "uint256",
          "name": "orgId",
          "type": "uint256"
        }
      ],
      "name": "retrieveOrgData",
      "outputs": [
        {
          "internalType": "uint256[]",
          "name": "",
          "type": "uint256[]"
        }
      ],
      "stateMutability": "view",
      "type": "function",
      "constant": true
    }
  ],
  "bytecode": "0x60806040523480156200001157600080fd5b5060405162004fa438038062004fa48339818101604052810190620000379190620000e8565b806000806101000a81548173ffffffffffffffffffffffffffffffffffffffff021916908373ffffffffffffffffffffffffffffffffffffffff160217905550506200011a565b600080fd5b600073ffffffffffffffffffffffffffffffffffffffff82169050919050565b6000620000b08262000083565b9050919050565b620000c281620000a3565b8114620000ce57600080fd5b50565b600081519050620000e281620000b7565b92915050565b6000602082840312156200010157620001006200007e565b5b60006200011184828501620000d1565b91505092915050565b614e7a806200012a6000396000f3fe608060405234801561001057600080fd5b50600436106101f05760003560e01c80639a06ff7f1161010f578063d8106690116100a2578063de93f53911610071578063de93f5391461064b578063e81ef3191461067b578063eac8f5b8146106ab578063ef193b22146106db576101f0565b8063d8106690146105b0578063d89d1510146105ce578063dc0973cd146105fe578063de7946fc1461061a576101f0565b8063b5e80972116100de578063b5e8097214610504578063bbd4060e14610534578063c70abaf414610550578063c92bc12d14610580576101f0565b80639a06ff7f1461047d5780639c40fd35146104ae578063a1cc9c26146104cc578063aea4d81a146104e8576101f0565b80633dd03539116101875780635fa09983116101565780635fa09983146103f95780635fd8b45d14610415578063653e69ff146104315780638ab95a3314610461576101f0565b80633dd03539146103395780633fc0729014610369578063415de94c146103995780634e4369c4146103c9576101f0565b80631ec824f8116101c35780631ec824f8146102a15780632360c27f146102bd5780632c48ed8b146102ed57806331fe8bcd14610309576101f0565b80630a2eb301146101f5578063111fd88b14610225578063151c3f441461025557806317400c4314610285575b600080fd5b61020f600480360381019061020a9190613708565b61070c565b60405161021c9190613750565b60405180910390f35b61023f600480360381019061023a91906137a1565b6107d8565b60405161024c919061393b565b60405180910390f35b61026f600480360381019061026a91906137a1565b610a50565b60405161027c9190613750565b60405180910390f35b61029f600480360381019061029a9190613af7565b610a9f565b005b6102bb60048036038101906102b69190613af7565b610b56565b005b6102d760048036038101906102d291906137a1565b610c0d565b6040516102e49190613c4e565b60405180910390f35b61030760048036038101906103029190613c70565b610df3565b005b610323600480360381019061031e91906137a1565b610eaa565b6040516103309190613e15565b60405180910390f35b610353600480360381019061034e91906137a1565b610f15565b6040516103609190613e15565b60405180910390f35b610383600480360381019061037e9190613708565b611089565b6040516103909190613c4e565b60405180910390f35b6103b360048036038101906103ae9190613708565b6110c8565b6040516103c09190613e46565b60405180910390f35b6103e360048036038101906103de9190613708565b6110e0565b6040516103f09190613e46565b60405180910390f35b610413600480360381019061040e9190613e61565b611129565b005b61042f600480360381019061042a9190613f9b565b6111e6565b005b61044b600480360381019061044691906137a1565b6112ac565b6040516104589190613e46565b60405180910390f35b61047b600480360381019061047691906140d1565b611307565b005b610497600480360381019061049291906142db565b6113a0565b6040516104a59291906145ff565b60405180910390f35b6104b66119b1565b6040516104c39190614645565b60405180910390f35b6104e660048036038101906104e19190614660565b6119d5565b005b61050260048036038101906104fd919061471e565b611de4565b005b61051e600480360381019061051991906137a1565b611e98565b60405161052b9190614893565b60405180910390f35b61054e600480360381019061054991906148b5565b61202e565b005b61056a600480360381019061056591906137a1565b61223b565b6040516105779190614893565b60405180910390f35b61059a600480360381019061059591906137a1565b612374565b6040516105a79190613e46565b60405180910390f35b6105b86123cf565b6040516105c59190613e46565b60405180910390f35b6105e860048036038101906105e391906137a1565b6123d5565b6040516105f59190614645565b60405180910390f35b61061860048036038101906106139190613f9b565b612414565b005b610634600480360381019061062f91906137a1565b6124ce565b6040516106429291906145ff565b60405180910390f35b610665600480360381019061066091906137a1565b612a5f565b604051610672919061494c565b60405180910390f35b610695600480360381019061069091906137a1565b612c7a565b6040516106a29190613750565b60405180910390f35b6106c560048036038101906106c091906137a1565b612cc9565b6040516106d291906149f7565b60405180910390f35b6106f560048036038101906106f091906137a1565b612ddc565b604051610703929190614a19565b60405180910390f35b600080600580549050141561072457600090506107d3565b8173ffffffffffffffffffffffffffffffffffffffff166005600660008573ffffffffffffffffffffffffffffffffffffffff1673ffffffffffffffffffffffffffffffffffffffff168152602001908152602001600020548154811061078e5761078d614a50565b5b9060005260206000200160009054906101000a900473ffffffffffffffffffffffffffffffffffffffff1673ffffffffffffffffffffffffffffffffffffffff161490505b919050565b6107e06134d3565b600382815481106107f4576107f3614a50565b5b90600052602060002090600602016040518060c00160405290816000820160009054906101000a900473ffffffffffffffffffffffffffffffffffffffff1673ffffffffffffffffffffffffffffffffffffffff1673ffffffffffffffffffffffffffffffffffffffff16815260200160018201805461087390614aae565b80601f016020809104026020016040519081016040528092919081815260200182805461089f90614aae565b80156108ec5780601f106108c1576101008083540402835291602001916108ec565b820191906000526020600020905b8154815290600101906020018083116108cf57829003601f168201915b5050505050815260200160028201805461090590614aae565b80601f016020809104026020016040519081016040528092919081815260200182805461093190614aae565b801561097e5780601f106109535761010080835404028352916020019161097e565b820191906000526020600020905b81548152906001019060200180831161096157829003601f168201915b5050505050815260200160038201805461099790614aae565b80601f01602080910402602001604051908101604052809291908181526020018280546109c390614aae565b8015610a105780601f106109e557610100808354040283529160200191610a10565b820191906000526020600020905b8154815290600101906020018083116109f357829003601f168201915b505050505081526020016004820160009054906101000a900463ffffffff1663ffffffff1663ffffffff1681526020016005820154815250509050919050565b6000600c6000838152602001908152602001600020600081548110610a7857610a77614a50565b5b90600052602060002090602091828204019190069054906101000a900460ff169050919050565b60006007805490509050610ab6888888888861202e565b60008060009054906101000a900473ffffffffffffffffffffffffffffffffffffffff1690508073ffffffffffffffffffffffffffffffffffffffff1663d84be50a8585856040518463ffffffff1660e01b8152600401610b1993929190614b2a565b600060405180830381600087803b158015610b3357600080fd5b505af1158015610b47573d6000803e3d6000fd5b50505050505050505050505050565b60006007805490509050610b6d888888888861202e565b60008060009054906101000a900473ffffffffffffffffffffffffffffffffffffffff1690508073ffffffffffffffffffffffffffffffffffffffff1663e4c17a378585856040518463ffffffff1660e01b8152600401610bd093929190614b2a565b600060405180830381600087803b158015610bea57600080fd5b505af1158015610bfe573d6000803e3d6000fd5b50505050505050505050505050565b610c15613525565b60018281548110610c2957610c28614a50565b5b90600052602060002090600502016040518060a00160405290816000820160009054906101000a900473ffffffffffffffffffffffffffffffffffffffff1673ffffffffffffffffffffffffffffffffffffffff1673ffffffffffffffffffffffffffffffffffffffff168152602001600182018054610ca890614aae565b80601f0160208091040260200160405190810160405280929190818152602001828054610cd490614aae565b8015610d215780601f10610cf657610100808354040283529160200191610d21565b820191906000526020600020905b815481529060010190602001808311610d0457829003601f168201915b50505050508152602001600282018054610d3a90614aae565b80601f0160208091040260200160405190810160405280929190818152602001828054610d6690614aae565b8015610db35780601f10610d8857610100808354040283529160200191610db3565b820191906000526020600020905b815481529060010190602001808311610d9657829003601f168201915b505050505081526020016003820160009054906101000a900463ffffffff1663ffffffff1663ffffffff1681526020016004820154815250509050919050565b60006007805490509050610e0a888888888861202e565b60008060009054906101000a900473ffffffffffffffffffffffffffffffffffffffff1690508073ffffffffffffffffffffffffffffffffffffffff1663ae4fd28b8585856040518463ffffffff1660e01b8152600401610e6d93929190614b68565b600060405180830381600087803b158015610e8757600080fd5b505af1158015610e9b573d6000803e3d6000fd5b50505050505050505050505050565b6060600a6000838152602001908152602001600020805480602002602001604051908101604052809291908181526020018280548015610f0957602002820191906000526020600020905b815481526020019060010190808311610ef5575b50505050509050919050565b60606000600367ffffffffffffffff811115610f3457610f33613967565b5b604051908082528060200260200182016040528015610f625781602001602082028036833780820191505090505b509050600860008481526020019081526020016000208054905081600081518110610f9057610f8f614a50565b5b602002602001018181525050600b6000848152602001908152602001600020600081548110610fc257610fc1614a50565b5b90600052602060002090600891828204019190066004029054906101000a900463ffffffff1663ffffffff168160018151811061100257611001614a50565b5b602002602001018181525050600b600084815260200190815260200160002060018154811061103457611033614a50565b5b90600052602060002090600891828204019190066004029054906101000a900463ffffffff1663ffffffff168160028151811061107457611073614a50565b5b60200260200101818152505080915050919050565b611091613525565b61109a8261070c565b156110a457600080fd5b60006110af836110e0565b905060006110bc82610c0d565b90508092505050919050565b60066020528060005260406000206000915090505481565b6000600660008373ffffffffffffffffffffffffffffffffffffffff1673ffffffffffffffffffffffffffffffffffffffff168152602001908152602001600020549050919050565b600060078054905090506111408a8a8a8a8a61202e565b60008060009054906101000a900473ffffffffffffffffffffffffffffffffffffffff1690508073ffffffffffffffffffffffffffffffffffffffff1663b31d2e3b87878787876040518663ffffffff1660e01b81526004016111a7959493929190614bbc565b600060405180830381600087803b1580156111c157600080fd5b505af11580156111d5573d6000803e3d6000fd5b505050505050505050505050505050565b6111f3888888888861202e565b600060016007805490506112079190614c53565b905060008060009054906101000a900473ffffffffffffffffffffffffffffffffffffffff1690508073ffffffffffffffffffffffffffffffffffffffff1663869c2081868686866040518563ffffffff1660e01b815260040161126e9493929190614c87565b600060405180830381600087803b15801561128857600080fd5b505af115801561129c573d6000803e3d6000fd5b5050505050505050505050505050565b6000600b60008381526020019081526020016000206001815481106112d4576112d3614a50565b5b90600052602060002090600891828204019190066004029054906101000a900463ffffffff1663ffffffff169050919050565b6113108861070c565b1561131a57600080fd5b611327888888888861310b565b61133388848484613274565b6005889080600181540180825580915050600190039060005260206000200160009091909190916101000a81548173ffffffffffffffffffffffffffffffffffffffff021916908373ffffffffffffffffffffffffffffffffffffffff1602179055505050505050505050565b60608060008060005b85518110156114b957600c60008783815181106113c9576113c8614a50565b5b602002602001015181526020019081526020016000206000815481106113f2576113f1614a50565b5b90600052602060002090602091828204019190069054906101000a900460ff161561149557600c600087838151811061142e5761142d614a50565b5b6020026020010151815260200190815260200160002060018154811061145757611456614a50565b5b90600052602060002090602091828204019190069054906101000a900460ff1615611481576114a6565b60018361148e9190614cda565b92506114a5565b6001826114a29190614cda565b91505b5b80806114b190614d30565b9150506113a9565b5060008167ffffffffffffffff8111156114d6576114d5613967565b5b60405190808252806020026020018201604052801561150f57816020015b6114fc613570565b8152602001906001900390816114f45790505b50905060008367ffffffffffffffff81111561152e5761152d613967565b5b60405190808252806020026020018201604052801561156757816020015b6115546135a9565b81526020019060019003908161154c5790505b50905060008060005b895181101561199f57600c60008b83815181106115905761158f614a50565b5b602002602001015181526020019081526020016000206001815481106115b9576115b8614a50565b5b90600052602060002090602091828204019190069054906101000a900460ff16156115e35761198c565b600c60008b83815181106115fa576115f9614a50565b5b6020026020010151815260200190815260200160002060008154811061162357611622614a50565b5b90600052602060002090602091828204019190069054906101000a900460ff161561183a5760006001600a60008d858151811061166357611662614a50565b5b60200260200101518152602001908152602001600020805490506116879190614c53565b90506000600a60008d85815181106116a2576116a1614a50565b5b6020026020010151815260200190815260200160002082815481106116ca576116c9614a50565b5b90600052602060002001549050600981815481106116eb576116ea614a50565b5b9060005260206000209060070201604051806101000160405290816000820154815260200160018201805461171f90614aae565b80601f016020809104026020016040519081016040528092919081815260200182805461174b90614aae565b80156117985780601f1061176d57610100808354040283529160200191611798565b820191906000526020600020905b81548152906001019060200180831161177b57829003601f168201915b505050505081526020016002820154815260200160038201548152602001600482015481526020016005820160009054906101000a900460ff1660ff1660ff1681526020016005820160019054906101000a900460ff16151515158152602001600682015481525050868663ffffffff168151811061181a57611819614a50565b5b6020026020010181905250848061183090614d79565b955050505061198b565b60008a828151811061184f5761184e614a50565b5b602002602001015190506007818154811061186d5761186c614a50565b5b90600052602060002090600602016040518060c001604052908160008201805461189690614aae565b80601f01602080910402602001604051908101604052809291908181526020018280546118c290614aae565b801561190f5780601f106118e45761010080835404028352916020019161190f565b820191906000526020600020905b8154815290600101906020018083116118f257829003601f168201915b505050505081526020016001820154815260200160028201548152602001600382015481526020016004820160009054906101000a900460ff1660ff1660ff1681526020016005820154815250508684815181106119705761196f614a50565b5b6020026020010181905250828061198690614d30565b935050505b5b808061199790614d30565b915050611570565b50838397509750505050505050915091565b60008054906101000a900473ffffffffffffffffffffffffffffffffffffffff1681565b60096040518061010001604052808981526020018881526020018781526020018681526020018581526020018360ff16815260200184151581526020016009805490508152509080600181540180825580915050600190039060005260206000209060070201600090919091909150600082015181600001556020820151816001019080519060200190611a6a9291906135f3565b5060408201518160020155606082015181600301556080820151816004015560a08201518160050160006101000a81548160ff021916908360ff16021790555060c08201518160050160016101000a81548160ff02191690831515021790555060e08201518160060155505060006001600980549050611aea9190614c53565b9050600c6000898152602001908152602001600020600081548110611b1257611b11614a50565b5b90600052602060002090602091828204019190069054906101000a900460ff16611c3f576001600c60008a8152602001908152602001600020600081548110611b5e57611b5d614a50565b5b90600052602060002090602091828204019190066101000a81548160ff02191690831515021790555060006001600b6000898152602001908152602001600020600081548110611bb157611bb0614a50565b5b90600052602060002090600891828204019190066004029054906101000a900463ffffffff16611be19190614da6565b905080600b6000898152602001908152602001600020600081548110611c0a57611c09614a50565b5b90600052602060002090600891828204019190066004026101000a81548163ffffffff021916908363ffffffff160217905550505b600a6000898152602001908152602001600020819080600181540180825580915050600190039060005260206000200160009091909190915055600115158315151415611dda57600d60008781526020019081526020016000206001600980549050611cab9190614c53565b90806001815401808255809150506001900390600052602060002001600090919091909150556001600c60008a8152602001908152602001600020600181548110611cf957611cf8614a50565b5b90600052602060002090602091828204019190066101000a81548160ff02191690831515021790555060006001600b6000898152602001908152602001600020600181548110611d4c57611d4b614a50565b5b90600052602060002090600891828204019190066004029054906101000a900463ffffffff16611d7c9190614da6565b905080600b6000898152602001908152602001600020600181548110611da557611da4614a50565b5b90600052602060002090600891828204019190066004026101000a81548163ffffffff021916908363ffffffff160217905550505b5050505050505050565b60006007805490509050611dfb878787878761202e565b60008060009054906101000a900473ffffffffffffffffffffffffffffffffffffffff1690508073ffffffffffffffffffffffffffffffffffffffff1663d00bab3684846040518363ffffffff1660e01b8152600401611e5c929190614de0565b600060405180830381600087803b158015611e7657600080fd5b505af1158015611e8a573d6000803e3d6000fd5b505050505050505050505050565b611ea06135a9565b60006001600a600085815260200190815260200160002080549050611ec59190614c53565b90506000600a60008581526020019081526020016000208281548110611eee57611eed614a50565b5b9060005260206000200154905060098181548110611f0f57611f0e614a50565b5b90600052602060002090600702016040518061010001604052908160008201548152602001600182018054611f4390614aae565b80601f0160208091040260200160405190810160405280929190818152602001828054611f6f90614aae565b8015611fbc5780601f10611f9157610100808354040283529160200191611fbc565b820191906000526020600020905b815481529060010190602001808311611f9f57829003601f168201915b505050505081526020016002820154815260200160038201548152602001600482015481526020016005820160009054906101000a900460ff1660ff1660ff1681526020016005820160019054906101000a900460ff1615151515815260200160068201548152505092505050919050565b60076040518060c001604052808781526020018681526020018581526020018481526020018360ff168152602001600780549050815250908060018154018082558091505060019003906000526020600020906006020160009091909190915060008201518160000190805190602001906120aa9291906135f3565b5060208201518160010155604082015181600201556060820151816003015560808201518160040160006101000a81548160ff021916908360ff16021790555060a08201518160050155505060086000858152602001908152602001600020600160078054905061211b9190614c53565b9080600181540180825580915050600190039060005260206000200160009091909190915055600c600060016007805490506121579190614c53565b8152602001908152602001600020600090806001815401808255809150506001900390600052602060002090602091828204019190069091909190916101000a81548160ff021916908315150217905550600c600060016007805490506121be9190614c53565b8152602001908152602001600020600090806001815401808255809150506001900390600052602060002090602091828204019190069091909190916101000a81548160ff021916908315150217905550600a600060016007805490506122259190614c53565b8152602001908152602001600020505050505050565b6122436135a9565b6009828154811061225757612256614a50565b5b9060005260206000209060070201604051806101000160405290816000820154815260200160018201805461228b90614aae565b80601f01602080910402602001604051908101604052809291908181526020018280546122b790614aae565b80156123045780601f106122d957610100808354040283529160200191612304565b820191906000526020600020905b8154815290600101906020018083116122e757829003601f168201915b505050505081526020016002820154815260200160038201548152602001600482015481526020016005820160009054906101000a900460ff1660ff1660ff1681526020016005820160019054906101000a900460ff161515151581526020016006820154815250509050919050565b6000600b600083815260200190815260200160002060008154811061239c5761239b614a50565b5b90600052602060002090600891828204019190066004029054906101000a900463ffffffff1663ffffffff169050919050565b60025481565b600581815481106123e557600080fd5b906000526020600020016000915054906101000a900473ffffffffffffffffffffffffffffffffffffffff1681565b6000600780549050905061242b898989898961202e565b60008060009054906101000a900473ffffffffffffffffffffffffffffffffffffffff1690508073ffffffffffffffffffffffffffffffffffffffff166382f2e641868686866040518563ffffffff1660e01b81526004016124909493929190614c87565b600060405180830381600087803b1580156124aa57600080fd5b505af11580156124be573d6000803e3d6000fd5b5050505050505050505050505050565b6060806000600b60008581526020019081526020016000206000815481106124f9576124f8614a50565b5b90600052602060002090600891828204019190066004029054906101000a900463ffffffff1690506000600b600086815260200190815260200160002060018154811061254957612548614a50565b5b90600052602060002090600891828204019190066004029054906101000a900463ffffffff1690506000818361257f9190614e10565b905060006008600088815260200190815260200160002080549050905060008463ffffffff16826125b09190614c53565b67ffffffffffffffff8111156125c9576125c8613967565b5b60405190808252806020026020018201604052801561260257816020015b6125ef613570565b8152602001906001900390816125e75790505b50905060008363ffffffff1667ffffffffffffffff81111561262757612626613967565b5b60405190808252806020026020018201604052801561266057816020015b61264d6135a9565b8152602001906001900390816126455790505b50905060008060005b85811015612a4b57600c600082815260200190815260200160002060018154811061269757612696614a50565b5b90600052602060002090602091828204019190069054906101000a900460ff16156126c157612a38565b60011515600c60008381526020019081526020016000206000815481106126eb576126ea614a50565b5b90600052602060002090602091828204019190069054906101000a900460ff16151514156128d15760006001600a6000848152602001908152602001600020805490506127389190614c53565b90506000600a6000848152602001908152602001600020828154811061276157612760614a50565b5b906000526020600020015490506009818154811061278257612781614a50565b5b906000526020600020906007020160405180610100016040529081600082015481526020016001820180546127b690614aae565b80601f01602080910402602001604051908101604052809291908181526020018280546127e290614aae565b801561282f5780601f106128045761010080835404028352916020019161282f565b820191906000526020600020905b81548152906001019060200180831161281257829003601f168201915b505050505081526020016002820154815260200160038201548152602001600482015481526020016005820160009054906101000a900460ff1660ff1660ff1681526020016005820160019054906101000a900460ff16151515158152602001600682015481525050868663ffffffff16815181106128b1576128b0614a50565b5b602002602001018190525084806128c790614d79565b9550505050612a37565b6000600860008e815260200190815260200160002082815481106128f8576128f7614a50565b5b906000526020600020015490506007818154811061291957612918614a50565b5b90600052602060002090600602016040518060c001604052908160008201805461294290614aae565b80601f016020809104026020016040519081016040528092919081815260200182805461296e90614aae565b80156129bb5780601f10612990576101008083540402835291602001916129bb565b820191906000526020600020905b81548152906001019060200180831161299e57829003601f168201915b505050505081526020016001820154815260200160028201548152602001600382015481526020016004820160009054906101000a900460ff1660ff1660ff168152602001600582015481525050868481518110612a1c57612a1b614a50565b5b60200260200101819052508280612a3290614d30565b935050505b5b8080612a4390614d30565b915050612669565b508383995099505050505050505050915091565b60606000600d600084815260200190815260200160002080549050905060008167ffffffffffffffff811115612a9857612a97613967565b5b604051908082528060200260200182016040528015612ad157816020015b612abe6135a9565b815260200190600190039081612ab65790505b50905060005b82811015612c6f576000600d60008781526020019081526020016000208281548110612b0657612b05614a50565b5b9060005260206000200154905060098181548110612b2757612b26614a50565b5b90600052602060002090600702016040518061010001604052908160008201548152602001600182018054612b5b90614aae565b80601f0160208091040260200160405190810160405280929190818152602001828054612b8790614aae565b8015612bd45780601f10612ba957610100808354040283529160200191612bd4565b820191906000526020600020905b815481529060010190602001808311612bb757829003601f168201915b505050505081526020016002820154815260200160038201548152602001600482015481526020016005820160009054906101000a900460ff1660ff1660ff1681526020016005820160019054906101000a900460ff16151515158152602001600682015481525050838381518110612c5057612c4f614a50565b5b6020026020010181905250508080612c6790614d30565b915050612ad7565b508092505050919050565b6000600c6000838152602001908152602001600020600181548110612ca257612ca1614a50565b5b90600052602060002090602091828204019190069054906101000a900460ff169050919050565b612cd1613570565b60078281548110612ce557612ce4614a50565b5b90600052602060002090600602016040518060c0016040529081600082018054612d0e90614aae565b80601f0160208091040260200160405190810160405280929190818152602001828054612d3a90614aae565b8015612d875780601f10612d5c57610100808354040283529160200191612d87565b820191906000526020600020905b815481529060010190602001808311612d6a57829003601f168201915b505050505081526020016001820154815260200160028201548152602001600382015481526020016004820160009054906101000a900460ff1660ff1660ff1681526020016005820154815250509050919050565b612de4613570565b6060600060078481548110612dfc57612dfb614a50565b5b90600052602060002090600602016040518060c0016040529081600082018054612e2590614aae565b80601f0160208091040260200160405190810160405280929190818152602001828054612e5190614aae565b8015612e9e5780601f10612e7357610100808354040283529160200191612e9e565b820191906000526020600020905b815481529060010190602001808311612e8157829003601f168201915b505050505081526020016001820154815260200160028201548152602001600382015481526020016004820160009054906101000a900460ff1660ff1660ff16815260200160058201548152505090506000600a600086815260200190815260200160002080549050905060008167ffffffffffffffff811115612f2557612f24613967565b5b604051908082528060200260200182016040528015612f5e57816020015b612f4b6135a9565b815260200190600190039081612f435790505b50905060005b828110156130fc576000600a60008981526020019081526020016000208281548110612f9357612f92614a50565b5b9060005260206000200154905060098181548110612fb457612fb3614a50565b5b90600052602060002090600702016040518061010001604052908160008201548152602001600182018054612fe890614aae565b80601f016020809104026020016040519081016040528092919081815260200182805461301490614aae565b80156130615780601f1061303657610100808354040283529160200191613061565b820191906000526020600020905b81548152906001019060200180831161304457829003601f168201915b505050505081526020016002820154815260200160038201548152602001600482015481526020016005820160009054906101000a900460ff1660ff1660ff1681526020016005820160019054906101000a900460ff161515151581526020016006820154815250508383815181106130dd576130dc614a50565b5b60200260200101819052505080806130f490614d30565b915050612f64565b50828194509450505050915091565b60036040518060c001604052808773ffffffffffffffffffffffffffffffffffffffff1681526020018681526020018581526020018481526020018363ffffffff168152602001600380549050815250908060018154018082558091505060019003906000526020600020906006020160009091909190915060008201518160000160006101000a81548173ffffffffffffffffffffffffffffffffffffffff021916908373ffffffffffffffffffffffffffffffffffffffff16021790555060208201518160010190805190602001906131e79291906135f3565b5060408201518160020190805190602001906132049291906135f3565b5060608201518160030190805190602001906132219291906135f3565b5060808201518160040160006101000a81548163ffffffff021916908363ffffffff16021790555060a0820151816005015550506004600081548092919061326890614d30565b91905055505050505050565b60016040518060a001604052808673ffffffffffffffffffffffffffffffffffffffff1681526020018581526020018481526020018363ffffffff168152602001600180549050815250908060018154018082558091505060019003906000526020600020906005020160009091909190915060008201518160000160006101000a81548173ffffffffffffffffffffffffffffffffffffffff021916908373ffffffffffffffffffffffffffffffffffffffff160217905550602082015181600101908051906020019061334a9291906135f3565b5060408201518160020190805190602001906133679291906135f3565b5060608201518160030160006101000a81548163ffffffff021916908363ffffffff160217905550608082015181600401555050600260008154809291906133ae90614d30565b91905055506000600180805490506133c69190614c53565b905080600660008773ffffffffffffffffffffffffffffffffffffffff1673ffffffffffffffffffffffffffffffffffffffff16815260200190815260200160002081905550600b6000828152602001908152602001600020600090806001815401808255809150506001900390600052602060002090600891828204019190066004029091909190916101000a81548163ffffffff021916908363ffffffff160217905550600b6000828152602001908152602001600020600090806001815401808255809150506001900390600052602060002090600891828204019190066004029091909190916101000a81548163ffffffff021916908363ffffffff1602179055505050505050565b6040518060c00160405280600073ffffffffffffffffffffffffffffffffffffffff168152602001606081526020016060815260200160608152602001600063ffffffff168152602001600081525090565b6040518060a00160405280600073ffffffffffffffffffffffffffffffffffffffff1681526020016060815260200160608152602001600063ffffffff168152602001600081525090565b6040518060c0016040528060608152602001600081526020016000815260200160008152602001600060ff168152602001600081525090565b6040518061010001604052806000815260200160608152602001600081526020016000815260200160008152602001600060ff168152602001600015158152602001600081525090565b8280546135ff90614aae565b90600052602060002090601f0160209004810192826136215760008555613668565b82601f1061363a57805160ff1916838001178555613668565b82800160010185558215613668579182015b8281111561366757825182559160200191906001019061364c565b5b5090506136759190613679565b5090565b5b8082111561369257600081600090555060010161367a565b5090565b6000604051905090565b600080fd5b600080fd5b600073ffffffffffffffffffffffffffffffffffffffff82169050919050565b60006136d5826136aa565b9050919050565b6136e5816136ca565b81146136f057600080fd5b50565b600081359050613702816136dc565b92915050565b60006020828403121561371e5761371d6136a0565b5b600061372c848285016136f3565b91505092915050565b60008115159050919050565b61374a81613735565b82525050565b60006020820190506137656000830184613741565b92915050565b6000819050919050565b61377e8161376b565b811461378957600080fd5b50565b60008135905061379b81613775565b92915050565b6000602082840312156137b7576137b66136a0565b5b60006137c58482850161378c565b91505092915050565b6137d7816136ca565b82525050565b600081519050919050565b600082825260208201905092915050565b60005b838110156138175780820151818401526020810190506137fc565b83811115613826576000848401525b50505050565b6000601f19601f8301169050919050565b6000613848826137dd565b61385281856137e8565b93506138628185602086016137f9565b61386b8161382c565b840191505092915050565b600063ffffffff82169050919050565b61388f81613876565b82525050565b61389e8161376b565b82525050565b600060c0830160008301516138bc60008601826137ce565b50602083015184820360208601526138d4828261383d565b915050604083015184820360408601526138ee828261383d565b91505060608301518482036060860152613908828261383d565b915050608083015161391d6080860182613886565b5060a083015161393060a0860182613895565b508091505092915050565b6000602082019050818103600083015261395581846138a4565b905092915050565b600080fd5b600080fd5b7f4e487b7100000000000000000000000000000000000000000000000000000000600052604160045260246000fd5b61399f8261382c565b810181811067ffffffffffffffff821117156139be576139bd613967565b5b80604052505050565b60006139d1613696565b90506139dd8282613996565b919050565b600067ffffffffffffffff8211156139fd576139fc613967565b5b613a068261382c565b9050602081019050919050565b82818337600083830152505050565b6000613a35613a30846139e2565b6139c7565b905082815260208101848484011115613a5157613a50613962565b5b613a5c848285613a13565b509392505050565b600082601f830112613a7957613a7861395d565b5b8135613a89848260208601613a22565b91505092915050565b600060ff82169050919050565b613aa881613a92565b8114613ab357600080fd5b50565b600081359050613ac581613a9f565b92915050565b613ad481613735565b8114613adf57600080fd5b50565b600081359050613af181613acb565b92915050565b600080600080600080600060e0888a031215613b1657613b156136a0565b5b600088013567ffffffffffffffff811115613b3457613b336136a5565b5b613b408a828b01613a64565b9750506020613b518a828b0161378c565b9650506040613b628a828b0161378c565b9550506060613b738a828b0161378c565b9450506080613b848a828b01613ab6565b93505060a088013567ffffffffffffffff811115613ba557613ba46136a5565b5b613bb18a828b01613a64565b92505060c0613bc28a828b01613ae2565b91505092959891949750929550565b600060a083016000830151613be960008601826137ce565b5060208301518482036020860152613c01828261383d565b91505060408301518482036040860152613c1b828261383d565b9150506060830151613c306060860182613886565b506080830151613c436080860182613895565b508091505092915050565b60006020820190508181036000830152613c688184613bd1565b905092915050565b600080600080600080600060e0888a031215613c8f57613c8e6136a0565b5b600088013567ffffffffffffffff811115613cad57613cac6136a5565b5b613cb98a828b01613a64565b9750506020613cca8a828b0161378c565b9650506040613cdb8a828b0161378c565b9550506060613cec8a828b0161378c565b9450506080613cfd8a828b01613ab6565b93505060a088013567ffffffffffffffff811115613d1e57613d1d6136a5565b5b613d2a8a828b01613a64565b92505060c088013567ffffffffffffffff811115613d4b57613d4a6136a5565b5b613d578a828b01613a64565b91505092959891949750929550565b600081519050919050565b600082825260208201905092915050565b6000819050602082019050919050565b6000613d9e8383613895565b60208301905092915050565b6000602082019050919050565b6000613dc282613d66565b613dcc8185613d71565b9350613dd783613d82565b8060005b83811015613e08578151613def8882613d92565b9750613dfa83613daa565b925050600181019050613ddb565b5085935050505092915050565b60006020820190508181036000830152613e2f8184613db7565b905092915050565b613e408161376b565b82525050565b6000602082019050613e5b6000830184613e37565b92915050565b60008060008060008060008060006101208a8c031215613e8457613e836136a0565b5b60008a013567ffffffffffffffff811115613ea257613ea16136a5565b5b613eae8c828d01613a64565b9950506020613ebf8c828d0161378c565b9850506040613ed08c828d0161378c565b9750506060613ee18c828d0161378c565b9650506080613ef28c828d01613ab6565b95505060a08a013567ffffffffffffffff811115613f1357613f126136a5565b5b613f1f8c828d01613a64565b94505060c08a013567ffffffffffffffff811115613f4057613f3f6136a5565b5b613f4c8c828d01613a64565b93505060e08a013567ffffffffffffffff811115613f6d57613f6c6136a5565b5b613f798c828d01613a64565b925050610100613f8b8c828d01613ab6565b9150509295985092959850929598565b600080600080600080600080610100898b031215613fbc57613fbb6136a0565b5b600089013567ffffffffffffffff811115613fda57613fd96136a5565b5b613fe68b828c01613a64565b9850506020613ff78b828c0161378c565b97505060406140088b828c0161378c565b96505060606140198b828c0161378c565b955050608061402a8b828c01613ab6565b94505060a089013567ffffffffffffffff81111561404b5761404a6136a5565b5b6140578b828c01613a64565b93505060c089013567ffffffffffffffff811115614078576140776136a5565b5b6140848b828c01613a64565b92505060e06140958b828c01613ab6565b9150509295985092959890939650565b6140ae81613876565b81146140b957600080fd5b50565b6000813590506140cb816140a5565b92915050565b600080600080600080600080610100898b0312156140f2576140f16136a0565b5b60006141008b828c016136f3565b985050602089013567ffffffffffffffff811115614121576141206136a5565b5b61412d8b828c01613a64565b975050604089013567ffffffffffffffff81111561414e5761414d6136a5565b5b61415a8b828c01613a64565b965050606089013567ffffffffffffffff81111561417b5761417a6136a5565b5b6141878b828c01613a64565b95505060806141988b828c016140bc565b94505060a089013567ffffffffffffffff8111156141b9576141b86136a5565b5b6141c58b828c01613a64565b93505060c089013567ffffffffffffffff8111156141e6576141e56136a5565b5b6141f28b828c01613a64565b92505060e06142038b828c016140bc565b9150509295985092959890939650565b600067ffffffffffffffff82111561422e5761422d613967565b5b602082029050602081019050919050565b600080fd5b600061425761425284614213565b6139c7565b9050808382526020820190506020840283018581111561427a5761427961423f565b5b835b818110156142a3578061428f888261378c565b84526020840193505060208101905061427c565b5050509392505050565b600082601f8301126142c2576142c161395d565b5b81356142d2848260208601614244565b91505092915050565b6000602082840312156142f1576142f06136a0565b5b600082013567ffffffffffffffff81111561430f5761430e6136a5565b5b61431b848285016142ad565b91505092915050565b600081519050919050565b600082825260208201905092915050565b6000819050602082019050919050565b61435981613a92565b82525050565b600060c083016000830151848203600086015261437c828261383d565b91505060208301516143916020860182613895565b5060408301516143a46040860182613895565b5060608301516143b76060860182613895565b5060808301516143ca6080860182614350565b5060a08301516143dd60a0860182613895565b508091505092915050565b60006143f4838361435f565b905092915050565b6000602082019050919050565b600061441482614324565b61441e818561432f565b93508360208202850161443085614340565b8060005b8581101561446c578484038952815161444d85826143e8565b9450614458836143fc565b925060208a01995050600181019050614434565b50829750879550505050505092915050565b600081519050919050565b600082825260208201905092915050565b6000819050602082019050919050565b6144b381613735565b82525050565b6000610100830160008301516144d26000860182613895565b50602083015184820360208601526144ea828261383d565b91505060408301516144ff6040860182613895565b5060608301516145126060860182613895565b5060808301516145256080860182613895565b5060a083015161453860a0860182614350565b5060c083015161454b60c08601826144aa565b5060e083015161455e60e0860182613895565b508091505092915050565b600061457583836144b9565b905092915050565b6000602082019050919050565b60006145958261447e565b61459f8185614489565b9350836020820285016145b18561449a565b8060005b858110156145ed57848403895281516145ce8582614569565b94506145d98361457d565b925060208a019950506001810190506145b5565b50829750879550505050505092915050565b600060408201905081810360008301526146198185614409565b9050818103602083015261462d818461458a565b90509392505050565b61463f816136ca565b82525050565b600060208201905061465a6000830184614636565b92915050565b600080600080600080600060e0888a03121561467f5761467e6136a0565b5b600061468d8a828b0161378c565b975050602088013567ffffffffffffffff8111156146ae576146ad6136a5565b5b6146ba8a828b01613a64565b96505060406146cb8a828b0161378c565b95505060606146dc8a828b0161378c565b94505060806146ed8a828b0161378c565b93505060a06146fe8a828b01613ae2565b92505060c061470f8a828b01613ab6565b91505092959891949750929550565b60008060008060008060c0878903121561473b5761473a6136a0565b5b600087013567ffffffffffffffff811115614759576147586136a5565b5b61476589828a01613a64565b965050602061477689828a0161378c565b955050604061478789828a0161378c565b945050606061479889828a0161378c565b93505060806147a989828a01613ab6565b92505060a087013567ffffffffffffffff8111156147ca576147c96136a5565b5b6147d689828a01613a64565b9150509295509295509295565b6000610100830160008301516147fc6000860182613895565b5060208301518482036020860152614814828261383d565b91505060408301516148296040860182613895565b50606083015161483c6060860182613895565b50608083015161484f6080860182613895565b5060a083015161486260a0860182614350565b5060c083015161487560c08601826144aa565b5060e083015161488860e0860182613895565b508091505092915050565b600060208201905081810360008301526148ad81846147e3565b905092915050565b600080600080600060a086880312156148d1576148d06136a0565b5b600086013567ffffffffffffffff8111156148ef576148ee6136a5565b5b6148fb88828901613a64565b955050602061490c8882890161378c565b945050604061491d8882890161378c565b935050606061492e8882890161378c565b925050608061493f88828901613ab6565b9150509295509295909350565b60006020820190508181036000830152614966818461458a565b905092915050565b600060c083016000830151848203600086015261498b828261383d565b91505060208301516149a06020860182613895565b5060408301516149b36040860182613895565b5060608301516149c66060860182613895565b5060808301516149d96080860182614350565b5060a08301516149ec60a0860182613895565b508091505092915050565b60006020820190508181036000830152614a11818461496e565b905092915050565b60006040820190508181036000830152614a33818561496e565b90508181036020830152614a47818461458a565b90509392505050565b7f4e487b7100000000000000000000000000000000000000000000000000000000600052603260045260246000fd5b7f4e487b7100000000000000000000000000000000000000000000000000000000600052602260045260246000fd5b60006002820490506001821680614ac657607f821691505b60208210811415614ada57614ad9614a7f565b5b50919050565b600082825260208201905092915050565b6000614afc826137dd565b614b068185614ae0565b9350614b168185602086016137f9565b614b1f8161382c565b840191505092915050565b60006060820190508181036000830152614b448186614af1565b9050614b536020830185613741565b614b606040830184613e37565b949350505050565b60006060820190508181036000830152614b828186614af1565b90508181036020830152614b968185614af1565b9050614ba56040830184613e37565b949350505050565b614bb681613a92565b82525050565b600060a0820190508181036000830152614bd68188614af1565b90508181036020830152614bea8187614af1565b90508181036040830152614bfe8186614af1565b9050614c0d6060830185614bad565b614c1a6080830184613e37565b9695505050505050565b7f4e487b7100000000000000000000000000000000000000000000000000000000600052601160045260246000fd5b6000614c5e8261376b565b9150614c698361376b565b925082821015614c7c57614c7b614c24565b5b828203905092915050565b60006080820190508181036000830152614ca18187614af1565b90508181036020830152614cb58186614af1565b9050614cc46040830185614bad565b614cd16060830184613e37565b95945050505050565b6000614ce58261376b565b9150614cf08361376b565b9250827fffffffffffffffffffffffffffffffffffffffffffffffffffffffffffffffff03821115614d2557614d24614c24565b5b828201905092915050565b6000614d3b8261376b565b91507fffffffffffffffffffffffffffffffffffffffffffffffffffffffffffffffff821415614d6e57614d6d614c24565b5b600182019050919050565b6000614d8482613876565b915063ffffffff821415614d9b57614d9a614c24565b5b600182019050919050565b6000614db182613876565b9150614dbc83613876565b92508263ffffffff03821115614dd557614dd4614c24565b5b828201905092915050565b60006040820190508181036000830152614dfa8185614af1565b9050614e096020830184613e37565b9392505050565b6000614e1b82613876565b9150614e2683613876565b925082821015614e3957614e38614c24565b5b82820390509291505056fea264697066735822122030e00c0e889bb4a6c14d865705eede6f7bbeb6337184c7d5ad7a965a60a7e32a64736f6c634300080c0033",
  "immutableReferences": {},
  "source": "// SPDX-License-Identifier: MIT\r\npragma solidity >=0.7.0 <0.9.10;\r\nimport \"./DataStruct.sol\";\r\n\r\ncontract Main {\r\n    address public dataStructsAdd;\r\n\r\n    constructor (address _dataSAdd){\r\n        dataStructsAdd = _dataSAdd;\r\n    }\r\n\r\n    //EVENTS\r\n    event NewOrganization(address user, string name);\r\n    event LogNewUser(\r\n        address indexed userAddress,\r\n        uint256 index,\r\n        bytes32 userEmail,\r\n        uint256 userAge\r\n    );\r\n\r\n    //STRUCTS\r\n    struct Organization {\r\n        address admin;\r\n        string name;\r\n        string addressO;\r\n        uint32 telephone;\r\n        uint256 index;\r\n    }\r\n\r\n    struct Admin {\r\n        address admin;\r\n        string name;\r\n        string lastname;\r\n        string email;\r\n        uint32 telephone;\r\n        uint256 index;\r\n    }\r\n\r\n    //DATA\r\n    Organization[] private organizations;\r\n    uint256 public orgCount;\r\n\r\n    Admin[] private admins;\r\n    uint256 adminsCount;\r\n\r\n    //List of users with a org created (administrators)\r\n    address[] public administrators;\r\n\r\n    mapping(address => uint256) public addressToOrganizationIndex;\r\n\r\n    //FUNCTIONS\r\n    //TODO CHECK IS ADMINISTRATOR IF WORKING PROPERLY\r\n    //data created with organization\r\n    function insertOrgAndAdmin(\r\n        address admin,\r\n        string memory name,\r\n        string memory lastname,\r\n        string memory email,\r\n        uint32 adTelephone,\r\n        string memory orgName,\r\n        string memory orgAddress,\r\n        uint32 orgTelephone\r\n    ) public {\r\n        if (isAdministrator(admin)) revert();\r\n        insertAdmin(admin, name, lastname, email, adTelephone);\r\n        insertOrganization(admin, orgName, orgAddress, orgTelephone);\r\n        administrators.push(admin);\r\n    }\r\n\r\n    function insertAdmin(\r\n        address admin,\r\n        string memory name,\r\n        string memory lastname,\r\n        string memory email,\r\n        uint32 telephone\r\n    ) private {\r\n        admins.push(\r\n            (Admin(admin, name, lastname, email, telephone, admins.length))\r\n        );\r\n        adminsCount++;\r\n    }\r\n\r\n    function insertOrganization(\r\n        address userAddress,\r\n        string memory name,\r\n        string memory addressO,\r\n        uint32 telephone\r\n    ) private {\r\n        organizations.push(\r\n            Organization(\r\n                userAddress,\r\n                name,\r\n                addressO,\r\n                telephone,\r\n                organizations.length\r\n            )\r\n        );\r\n        orgCount++;\r\n        uint256 id = organizations.length - 1;\r\n        addressToOrganizationIndex[userAddress] = id;\r\n        //Create the mapping with 0 assets edited and 0 deleted\r\n        organizationNumberOfAssetsED[id].push(0);\r\n        organizationNumberOfAssetsED[id].push(0);\r\n    }\r\n\r\n    // Check if the address has created a org, == is an administrator.\r\n    function isAdministrator(address userAddress)\r\n        public\r\n        view\r\n        returns (bool isIndeed)\r\n    {\r\n        if (administrators.length == 0) return false;\r\n        return (administrators[addressToOrganizationIndex[userAddress]] ==\r\n            userAddress);\r\n    }\r\n\r\n    function getOrg(uint256 _orgId) public view returns (Organization memory) {\r\n        return organizations[_orgId];\r\n    }\r\n\r\n    function getAdminToOrg(address userAddress)\r\n        public\r\n        view\r\n        returns (uint256 userid)\r\n    {\r\n        return addressToOrganizationIndex[userAddress];\r\n    }\r\n\r\n    //Get the organization if there is an address that created it\r\n    function getOrgFromAddress(address userAddress)\r\n        public\r\n        view\r\n        returns (Organization memory org)\r\n    {\r\n        if (isAdministrator(userAddress)) revert();\r\n        uint256 orgId = getAdminToOrg(userAddress);\r\n        Organization memory organ = getOrg(orgId);\r\n        return organ;\r\n    }\r\n\r\n    //ASSETS TYPE AND FUNCTIONS\r\n    struct Asset {\r\n        string name;\r\n        uint256 organizationId;\r\n        uint256 adquireDate;\r\n        uint256 creationDate;\r\n        uint8 assetType;\r\n        uint256 index;\r\n    }\r\n\r\n    struct datasoft {\r\n        string name;\r\n    }\r\n\r\n    Asset[] private assetsList;\r\n    //uint256 orgCount;\r\n\r\n    //UNNECESARY MAPPING\r\n    //mapping(uint256 => uint256) private assetToOrg;\r\n\r\n    //CREAR UN MAPPING DE ORGANIZACIN (ID) A LISTA DE ASSETS (ID)?\r\n    mapping(uint256 => uint256[]) private assetsFromOrg;\r\n\r\n    \r\n\r\n    //ASSET EDITED INTRODUCES A BOOL DELETED\r\n    struct AssetEdited {\r\n        uint256 originalAssetId;\r\n        string name;\r\n        uint256 organizationId;\r\n        uint256 adquireDate;\r\n        uint256 creationDate;\r\n        uint8 assetType;\r\n        bool deleted;\r\n        uint256 index;\r\n\r\n        //uint fechafin;\r\n\r\n    }\r\n\r\n    AssetEdited[] private assetsEditedList;\r\n    //ASSETS ORIGINAL TO LIST OF ASSETS EDITED\r\n    mapping(uint256 => uint256[]) private originalAssetsToEditedList;\r\n\r\n    function insertAsset(\r\n        string memory name,\r\n        uint256 organizationId,\r\n        uint256 adquireDate,\r\n        uint256 creationDate,\r\n        uint8 assetType\r\n    ) public {\r\n        assetsList.push(\r\n            (\r\n                Asset(\r\n                    name,\r\n                    organizationId,\r\n                    adquireDate,\r\n                    creationDate,\r\n                    assetType,\r\n                    assetsList.length\r\n                )\r\n            )\r\n        );\r\n        assetsFromOrg[organizationId].push(assetsList.length - 1);\r\n        assetBoolEditedAndDeleted[assetsList.length - 1].push(false);\r\n        assetBoolEditedAndDeleted[assetsList.length - 1].push(false);\r\n        originalAssetsToEditedList[assetsList.length - 1];\r\n    }\r\n\r\n    //CREATE A FUNCTION FOR EACH INSERTED ASSET TYPE\r\n    function insertNewSoftAsset(string memory name,\r\n        uint256 organizationId,\r\n        uint256 adquireDate,\r\n        uint256 creationDate,\r\n        uint8 assetType,\r\n        string memory version, \r\n        string memory provider, \r\n        uint8 stype) public {\r\n            \r\n        insertAsset(name, organizationId, adquireDate, creationDate, assetType);\r\n        uint assetId = assetsList.length - 1; \r\n        DataStructs DS = DataStructs(dataStructsAdd);\r\n        DS.insertSoftware(version, provider, stype, assetId);\r\n    }\r\n\r\n    function insertNewHardAsset(string memory name,\r\n        uint256 organizationId,\r\n        uint256 adquireDate,\r\n        uint256 creationDate,\r\n        uint8 assetType,\r\n        string memory model, \r\n        string memory provider, \r\n        string memory serialNumber, \r\n        uint8 htype) public {\r\n        \r\n        uint assetId = assetsList.length; \r\n        insertAsset(name, organizationId, adquireDate, creationDate, assetType);\r\n        \r\n        DataStructs DS = DataStructs(dataStructsAdd);\r\n        DS.insertHardware(model, provider, serialNumber, htype, assetId);\r\n    }\r\n\r\n    function insertNewDocAsset(string memory name,\r\n        uint256 organizationId,\r\n        uint256 adquireDate,\r\n        uint256 creationDate,\r\n        uint8 assetType,\r\n        string memory description,\r\n        string memory location,\r\n        uint8 doctype) public {\r\n        \r\n        uint assetId = assetsList.length; \r\n        insertAsset(name, organizationId, adquireDate, creationDate, assetType);\r\n        \r\n        DataStructs DS = DataStructs(dataStructsAdd);\r\n        DS.insertDocument(description, location, doctype, assetId);\r\n    }\r\n\r\n    function insertNewDataAsset(string memory name,\r\n        uint256 organizationId,\r\n        uint256 adquireDate,\r\n        uint256 creationDate,\r\n        uint8 assetType,\r\n        string memory location, \r\n        bool local) public {\r\n        \r\n        uint assetId = assetsList.length; \r\n        insertAsset(name, organizationId, adquireDate, creationDate, assetType);\r\n        \r\n        DataStructs DS = DataStructs(dataStructsAdd);\r\n        DS.insertData(location, local, assetId);\r\n    }\r\n\r\n    function insertNewNetworkAsset(string memory name,\r\n        uint256 organizationId,\r\n        uint256 adquireDate,\r\n        uint256 creationDate,\r\n        uint8 assetType,\r\n        string memory cidrblock, \r\n        bool nat) public {\r\n        \r\n        uint assetId = assetsList.length; \r\n        insertAsset(name, organizationId, adquireDate, creationDate, assetType);\r\n        \r\n        DataStructs DS = DataStructs(dataStructsAdd);\r\n        DS.insertNetwork(cidrblock, nat, assetId);\r\n    }\r\n\r\n    function insertNewCloudAsset(string memory name,\r\n        uint256 organizationId,\r\n        uint256 adquireDate,\r\n        uint256 creationDate,\r\n        uint8 assetType,\r\n        string memory url, \r\n        string memory domain) public {\r\n        \r\n        uint assetId = assetsList.length; \r\n        insertAsset(name, organizationId, adquireDate, creationDate, assetType);\r\n        DataStructs DS = DataStructs(dataStructsAdd);\r\n        DS.insertCloud(url, domain, assetId);\r\n    }\r\n\r\n    function insertNewOtherAsset(string memory name,\r\n        uint256 organizationId,\r\n        uint256 adquireDate,\r\n        uint256 creationDate,\r\n        uint8 assetType,\r\n        string memory description) public {\r\n        \r\n        uint assetId = assetsList.length; \r\n        insertAsset(name, organizationId, adquireDate, creationDate, assetType);\r\n        DataStructs DS = DataStructs(dataStructsAdd);\r\n        DS.insertOther(description, assetId);\r\n    }\r\n\r\n    function getLastAssetEdited(uint256 id) public view returns (AssetEdited memory) {\r\n        uint256 lastItem = originalAssetsToEditedList[id].length - 1;\r\n        uint256 assetEditedId = originalAssetsToEditedList[id][lastItem];\r\n        return assetsEditedList[assetEditedId];\r\n    }\r\n\r\n    function getAsset(uint256 id) public view returns (Asset memory) {\r\n        return assetsList[id];\r\n    }\r\n\r\n    function getAdmin(uint256 _adminId) public view returns (Admin memory) {\r\n        return admins[_adminId];\r\n    }\r\n\r\n    function getAllAssetsFromOrg(uint256 _orgId)\r\n        public\r\n        view\r\n        returns (Asset[] memory, AssetEdited[] memory)\r\n    {\r\n        uint32 contEdited = organizationNumberOfAssetsED[_orgId][0];\r\n        uint32 contDeleted = organizationNumberOfAssetsED[_orgId][1];\r\n        uint32 edList = uint32(uint32(contEdited) - uint32(contDeleted));\r\n        uint256 cont = assetsFromOrg[_orgId].length;\r\n        Asset[] memory listOrgAssets = new Asset[](cont-contEdited);\r\n        AssetEdited[] memory listOrgAssetsEdited = new AssetEdited[](edList);\r\n        uint32 bucleEdited = 0;\r\n        uint bucleOriginal = 0;\r\n        for (uint256 i = 0; i < cont; i++) {\r\n            //First check if that asset has been deleted\r\n            //so we don't retrieve it\r\n            if (assetBoolEditedAndDeleted[i][1]) {\r\n                continue;\r\n            }\r\n            //Check if asset has been edited in order\r\n            //to retrieve last edited asset\r\n            if (assetBoolEditedAndDeleted[i][0] == true) {\r\n                uint256 lastItem = originalAssetsToEditedList[i].length - 1;\r\n                uint256 assetEditedId = originalAssetsToEditedList[i][lastItem];\r\n                listOrgAssetsEdited[bucleEdited] = assetsEditedList[assetEditedId];\r\n                bucleEdited++;\r\n                //Last case the asset hasn't been edited\r\n            } else {\r\n                uint256 assetId = assetsFromOrg[_orgId][i];\r\n                listOrgAssets[bucleOriginal] = assetsList[assetId];\r\n                bucleOriginal++;\r\n            }\r\n        }\r\n        return (listOrgAssets, listOrgAssetsEdited);\r\n    }\r\n\r\n\r\n    //MAPPING ID OF WITH THE LIST OF NUMBER OF ASSETS EDITED AND DELETED\r\n    mapping(uint256 => uint32[]) private organizationNumberOfAssetsED;\r\n\r\n\r\n    //CREAR MAPPING DE ID ORIGINAL A LIST OF BOOLEAN\r\n    // QUE INDICA SI EL ID EST EDITADO EN EL PRIMER VALOR\r\n    // EN EL SEGUNDO VALOR INDICA SI EST ELIMINADO\r\n    mapping(uint256 => bool[]) private assetBoolEditedAndDeleted;\r\n    //DE ESTA MANERA PODEMOS VER EN CADA CASO EL ID SI EST EDITADO O ELIMINADO\r\n\r\n    //mapping que relaciona la org con los assets que tiene eliminados\r\n    mapping(uint256 => uint256[]) private assetsFromOrgDeleted;\r\n\r\n    function insertEditedAsset(\r\n        uint256 originalAssetId,\r\n        string memory name,\r\n        uint256 organizationId,\r\n        uint256 adquireDate,\r\n        uint256 creationDate,\r\n        bool deleted,\r\n        uint8 assetType\r\n    ) public {\r\n        //CHECK IF THE ASSET IS ALREADY IN ASSETS EDITED LIST\r\n        \r\n        assetsEditedList.push(\r\n            (\r\n                AssetEdited(\r\n                    originalAssetId,\r\n                    name,\r\n                    organizationId,\r\n                    adquireDate,\r\n                    creationDate,\r\n                    assetType,\r\n                    deleted,\r\n                    assetsEditedList.length\r\n                )\r\n            )\r\n        );\r\n        uint256 id = assetsEditedList.length - 1;\r\n        if (!assetBoolEditedAndDeleted[originalAssetId][0]) {\r\n            assetBoolEditedAndDeleted[originalAssetId][0] = true;\r\n            uint32 ed = organizationNumberOfAssetsED[organizationId][0]+1;\r\n            organizationNumberOfAssetsED[organizationId][0] = ed;\r\n        }\r\n        originalAssetsToEditedList[originalAssetId].push(id);\r\n        \r\n        if (deleted == true) {\r\n            assetsFromOrgDeleted[organizationId].push(\r\n                assetsEditedList.length - 1\r\n            );\r\n            assetBoolEditedAndDeleted[originalAssetId][1] = true;\r\n            uint32 de = organizationNumberOfAssetsED[organizationId][1]+1;\r\n            organizationNumberOfAssetsED[organizationId][1] = de;\r\n        }\r\n    }\r\n\r\n    function getRecordList(uint assetId) public view returns (Asset memory, AssetEdited[] memory) {\r\n        Asset memory original = assetsList[assetId];\r\n        uint len = originalAssetsToEditedList[assetId].length;\r\n        AssetEdited[] memory listEdited = new AssetEdited[](len);\r\n        for (uint256 i = 0; i < len; i++) {\r\n            uint num = originalAssetsToEditedList[assetId][i];\r\n            listEdited[i] = assetsEditedList[num];\r\n        }\r\n        return (original, listEdited);\r\n     }\r\n\r\n    function getAssetEdited(uint256 id) public view returns (AssetEdited memory) {\r\n        return assetsEditedList[id];\r\n    }\r\n\r\n    function getAssetsDeleted(uint256 orgId)\r\n        public\r\n        view\r\n        returns (AssetEdited[] memory)\r\n    {\r\n        uint256 cont = assetsFromOrgDeleted[orgId].length;\r\n        AssetEdited[] memory listAssetsDeleted = new AssetEdited[](cont);\r\n        for (uint256 i = 0; i < cont; i++) {\r\n            uint256 id = assetsFromOrgDeleted[orgId][i];\r\n            listAssetsDeleted[i] = assetsEditedList[id];\r\n        }\r\n        return listAssetsDeleted;\r\n    }\r\n\r\n    function getIsAssetEdited(uint256 idAsset)\r\n        public\r\n        view\r\n        returns (bool result)\r\n    {\r\n        return assetBoolEditedAndDeleted[idAsset][0];\r\n    }\r\n\r\n    function getIsAssetDeleted(uint256 idAsset)\r\n        public\r\n        view\r\n        returns (bool result)\r\n    {\r\n        return assetBoolEditedAndDeleted[idAsset][1];\r\n    }\r\n\r\n    function getOrgNumEdited(uint orgId) public view returns (uint numEdited) {\r\n        return organizationNumberOfAssetsED[orgId][0];\r\n    }\r\n\r\n    function getOrgNumDeleted(uint orgId) public view returns (uint numDeleted) {\r\n        return organizationNumberOfAssetsED[orgId][1];\r\n    }\r\n\r\n    function getEdDeList(uint assetId) public view returns (uint[] memory listEdited) {\r\n        return originalAssetsToEditedList[assetId];\r\n    }\r\n\r\n    function retrieveListOfAsset(uint256[] memory ids) public view returns (Asset[] memory, AssetEdited[] memory) {\r\n        uint cont = 0;\r\n        uint contOr = 0;\r\n        for (uint256 i = 0; i < ids.length; i++) {\r\n           if(assetBoolEditedAndDeleted[ids[i]][0]) {\r\n               if(assetBoolEditedAndDeleted[ids[i]][1]) {\r\n                   continue;\r\n                } else {\r\n                    cont = cont +1;\r\n                } \r\n            } else {\r\n                contOr = contOr+1;\r\n            }\r\n        }\r\n        Asset[] memory listAssets = new Asset[](contOr);\r\n        AssetEdited[] memory listEdited = new AssetEdited[](cont);\r\n        uint32 bucleEdited = 0;\r\n        uint bucleOriginal = 0;\r\n        for (uint256 i = 0; i < ids.length; i++) {\r\n            if(assetBoolEditedAndDeleted[ids[i]][1]) {\r\n               continue;\r\n            } if (assetBoolEditedAndDeleted[ids[i]][0]) {\r\n                uint256 lastItem = originalAssetsToEditedList[ids[i]].length - 1;\r\n                uint256 assetEditedId = originalAssetsToEditedList[ids[i]][lastItem];\r\n                listEdited[bucleEdited] = assetsEditedList[assetEditedId];\r\n                bucleEdited++;\r\n                //Last case the asset hasn't been edited\r\n            } else {\r\n                uint256 assetId = ids[i];\r\n                listAssets[bucleOriginal] = assetsList[assetId];\r\n                bucleOriginal++;\r\n            }\r\n        }\r\n        return (listAssets, listEdited);\r\n    }\r\n    \r\n\r\n    function retrieveOrgData(uint orgId) public view returns(uint[] memory){\r\n        uint[] memory result = new uint[](3);\r\n        result[0] = assetsFromOrg[orgId].length;\r\n        result[1] = (organizationNumberOfAssetsED[orgId][0]);\r\n        result[2] = (organizationNumberOfAssetsED[orgId][1]);\r\n        return result;\r\n    }\r\n\r\n\r\n}\r\n",
  "sourcePath": "D:\\GIT\\inventory-blockchain\\blockchain\\contracts\\Main.sol",
  "compiler": {
    "name": "solc",
    "version": "0.8.12+commit.f00d7308.Emscripten.clang"
  },
  "schemaVersion": "3.4.6",
  "updatedAt": "2022-05-05T15:59:31.687Z",
  "networkType": "ethereum",
  "devdoc": {
    "kind": "dev",
    "methods": {},
    "version": 1
  },
  "userdoc": {
    "kind": "user",
    "methods": {},
    "version": 1
  }
}