{
  "contractName": "Users2",
  "abi": [
    {
      "inputs": [
        {
          "internalType": "address",
          "name": "_usersAddr",
          "type": "address"
        },
        {
          "internalType": "address",
          "name": "_mainAddr",
          "type": "address"
        }
      ],
      "stateMutability": "nonpayable",
      "type": "constructor"
    },
    {
      "inputs": [],
      "name": "mainAddr",
      "outputs": [
        {
          "internalType": "address",
          "name": "",
          "type": "address"
        }
      ],
      "stateMutability": "view",
      "type": "function",
      "constant": true
    },
    {
      "inputs": [],
      "name": "usersAddr",
      "outputs": [
        {
          "internalType": "address",
          "name": "",
          "type": "address"
        }
      ],
      "stateMutability": "view",
      "type": "function",
      "constant": true
    },
    {
      "inputs": [
        {
          "internalType": "string",
          "name": "name",
          "type": "string"
        },
        {
          "internalType": "uint256",
          "name": "organizationId",
          "type": "uint256"
        },
        {
          "internalType": "uint256",
          "name": "adquireDate",
          "type": "uint256"
        },
        {
          "internalType": "uint256",
          "name": "creationDate",
          "type": "uint256"
        },
        {
          "internalType": "uint8",
          "name": "assetType",
          "type": "uint8"
        },
        {
          "internalType": "uint256",
          "name": "assetDepart",
          "type": "uint256"
        },
        {
          "internalType": "string",
          "name": "version",
          "type": "string"
        },
        {
          "internalType": "string",
          "name": "provider",
          "type": "string"
        },
        {
          "internalType": "uint8",
          "name": "stype",
          "type": "uint8"
        },
        {
          "internalType": "address",
          "name": "addr",
          "type": "address"
        }
      ],
      "name": "insertNewSAssetWithDepartment",
      "outputs": [],
      "stateMutability": "nonpayable",
      "type": "function"
    },
    {
      "inputs": [
        {
          "internalType": "string",
          "name": "name",
          "type": "string"
        },
        {
          "internalType": "uint256",
          "name": "organizationId",
          "type": "uint256"
        },
        {
          "internalType": "uint256",
          "name": "adquireDate",
          "type": "uint256"
        },
        {
          "internalType": "uint256",
          "name": "creationDate",
          "type": "uint256"
        },
        {
          "internalType": "uint8",
          "name": "assetType",
          "type": "uint8"
        },
        {
          "internalType": "uint256",
          "name": "assetDepart",
          "type": "uint256"
        },
        {
          "internalType": "string",
          "name": "model",
          "type": "string"
        },
        {
          "internalType": "string",
          "name": "provider",
          "type": "string"
        },
        {
          "internalType": "string",
          "name": "serialNumber",
          "type": "string"
        },
        {
          "internalType": "uint8",
          "name": "htype",
          "type": "uint8"
        },
        {
          "internalType": "address",
          "name": "addr",
          "type": "address"
        }
      ],
      "name": "insertNewHAssetWithDepartment",
      "outputs": [],
      "stateMutability": "nonpayable",
      "type": "function"
    },
    {
      "inputs": [
        {
          "internalType": "string",
          "name": "name",
          "type": "string"
        },
        {
          "internalType": "uint256",
          "name": "organizationId",
          "type": "uint256"
        },
        {
          "internalType": "uint256",
          "name": "adquireDate",
          "type": "uint256"
        },
        {
          "internalType": "uint256",
          "name": "creationDate",
          "type": "uint256"
        },
        {
          "internalType": "uint8",
          "name": "assetType",
          "type": "uint8"
        },
        {
          "internalType": "uint256",
          "name": "assetDepart",
          "type": "uint256"
        },
        {
          "internalType": "string",
          "name": "description",
          "type": "string"
        },
        {
          "internalType": "string",
          "name": "location",
          "type": "string"
        },
        {
          "internalType": "uint8",
          "name": "doctype",
          "type": "uint8"
        },
        {
          "internalType": "address",
          "name": "addr",
          "type": "address"
        }
      ],
      "name": "insertNewDocAssetWithDepartment",
      "outputs": [],
      "stateMutability": "nonpayable",
      "type": "function"
    },
    {
      "inputs": [
        {
          "internalType": "string",
          "name": "name",
          "type": "string"
        },
        {
          "internalType": "uint256",
          "name": "organizationId",
          "type": "uint256"
        },
        {
          "internalType": "uint256",
          "name": "adquireDate",
          "type": "uint256"
        },
        {
          "internalType": "uint256",
          "name": "creationDate",
          "type": "uint256"
        },
        {
          "internalType": "uint8",
          "name": "assetType",
          "type": "uint8"
        },
        {
          "internalType": "uint256",
          "name": "assetDepart",
          "type": "uint256"
        },
        {
          "internalType": "string",
          "name": "location",
          "type": "string"
        },
        {
          "internalType": "bool",
          "name": "local",
          "type": "bool"
        },
        {
          "internalType": "address",
          "name": "addr",
          "type": "address"
        }
      ],
      "name": "insertNewDataAssetWithDepartment",
      "outputs": [],
      "stateMutability": "nonpayable",
      "type": "function"
    },
    {
      "inputs": [
        {
          "internalType": "string",
          "name": "name",
          "type": "string"
        },
        {
          "internalType": "uint256",
          "name": "organizationId",
          "type": "uint256"
        },
        {
          "internalType": "uint256",
          "name": "adquireDate",
          "type": "uint256"
        },
        {
          "internalType": "uint256",
          "name": "creationDate",
          "type": "uint256"
        },
        {
          "internalType": "uint8",
          "name": "assetType",
          "type": "uint8"
        },
        {
          "internalType": "uint256",
          "name": "assetDepart",
          "type": "uint256"
        },
        {
          "internalType": "string",
          "name": "cidrblock",
          "type": "string"
        },
        {
          "internalType": "bool",
          "name": "nat",
          "type": "bool"
        },
        {
          "internalType": "address",
          "name": "addr",
          "type": "address"
        }
      ],
      "name": "insertNewNAssetWithDepartment",
      "outputs": [],
      "stateMutability": "nonpayable",
      "type": "function"
    },
    {
      "inputs": [
        {
          "internalType": "string",
          "name": "name",
          "type": "string"
        },
        {
          "internalType": "uint256",
          "name": "organizationId",
          "type": "uint256"
        },
        {
          "internalType": "uint256",
          "name": "adquireDate",
          "type": "uint256"
        },
        {
          "internalType": "uint256",
          "name": "creationDate",
          "type": "uint256"
        },
        {
          "internalType": "uint8",
          "name": "assetType",
          "type": "uint8"
        },
        {
          "internalType": "uint256",
          "name": "assetDepart",
          "type": "uint256"
        },
        {
          "internalType": "string",
          "name": "url",
          "type": "string"
        },
        {
          "internalType": "string",
          "name": "domain",
          "type": "string"
        },
        {
          "internalType": "address",
          "name": "addr",
          "type": "address"
        }
      ],
      "name": "insertNewCAssetWithDepartment",
      "outputs": [],
      "stateMutability": "nonpayable",
      "type": "function"
    },
    {
      "inputs": [
        {
          "internalType": "string",
          "name": "name",
          "type": "string"
        },
        {
          "internalType": "uint256",
          "name": "organizationId",
          "type": "uint256"
        },
        {
          "internalType": "uint256",
          "name": "adquireDate",
          "type": "uint256"
        },
        {
          "internalType": "uint256",
          "name": "creationDate",
          "type": "uint256"
        },
        {
          "internalType": "uint8",
          "name": "assetType",
          "type": "uint8"
        },
        {
          "internalType": "uint256",
          "name": "assetDepart",
          "type": "uint256"
        },
        {
          "internalType": "string",
          "name": "description",
          "type": "string"
        },
        {
          "internalType": "address",
          "name": "addr",
          "type": "address"
        }
      ],
      "name": "insertNewOAssetWithDepartment",
      "outputs": [],
      "stateMutability": "nonpayable",
      "type": "function"
    }
  ],
  "bytecode": "0x60806040523480156200001157600080fd5b50604051620023753803806200237583398181016040528101906200003791906200012a565b816000806101000a81548173ffffffffffffffffffffffffffffffffffffffff021916908373ffffffffffffffffffffffffffffffffffffffff16021790555080600160006101000a81548173ffffffffffffffffffffffffffffffffffffffff021916908373ffffffffffffffffffffffffffffffffffffffff160217905550505062000171565b600080fd5b600073ffffffffffffffffffffffffffffffffffffffff82169050919050565b6000620000f282620000c5565b9050919050565b6200010481620000e5565b81146200011057600080fd5b50565b6000815190506200012481620000f9565b92915050565b60008060408385031215620001445762000143620000c0565b5b6000620001548582860162000113565b9250506020620001678582860162000113565b9150509250929050565b6121f480620001816000396000f3fe608060405234801561001057600080fd5b50600436106100935760003560e01c806351ed0aac1161006657806351ed0aac1461010a5780636652bad214610126578063ae51c47114610142578063bd6a90491461015e578063bfceb1bb1461017c57610093565b806304f468a71461009857806312196555146100b657806314761d42146100d25780634d12ae43146100ee575b600080fd5b6100a0610198565b6040516100ad9190611550565b60405180910390f35b6100d060048036038101906100cb9190611760565b6101be565b005b6100ec60048036038101906100e7919061184e565b610477565b005b610108600480360381019061010391906119b9565b610736565b005b610124600480360381019061011f9190611abb565b6109f2565b005b610140600480360381019061013b919061184e565b610cb4565b005b61015c60048036038101906101579190611c1f565b610f73565b005b61016661122f565b6040516101739190611550565b60405180910390f35b610196600480360381019061019191906119b9565b611253565b005b600160009054906101000a900473ffffffffffffffffffffffffffffffffffffffff1681565b60008060009054906101000a900473ffffffffffffffffffffffffffffffffffffffff1690508073ffffffffffffffffffffffffffffffffffffffff1663d05a8870838a6040518363ffffffff1660e01b815260040161021f929190611d4c565b602060405180830381865afa15801561023c573d6000803e3d6000fd5b505050506040513d601f19601f820116820180604052508101906102609190611d8a565b806102e357508073ffffffffffffffffffffffffffffffffffffffff1663db035b87838a6040518363ffffffff1660e01b81526004016102a1929190611d4c565b602060405180830381865afa1580156102be573d6000803e3d6000fd5b505050506040513d601f19601f820116820180604052508101906102e29190611d8a565b5b6102ec57600080fd5b6000600160009054906101000a900473ffffffffffffffffffffffffffffffffffffffff16905060008173ffffffffffffffffffffffffffffffffffffffff16633e4e3b556040518163ffffffff1660e01b8152600401602060405180830381865afa158015610360573d6000803e3d6000fd5b505050506040513d601f19601f820116820180604052508101906103849190611dcc565b90508173ffffffffffffffffffffffffffffffffffffffff16632c98cfa88c8c8c8c8c8c8c6040518863ffffffff1660e01b81526004016103cb9796959493929190611e90565b600060405180830381600087803b1580156103e557600080fd5b505af11580156103f9573d6000803e3d6000fd5b505050508273ffffffffffffffffffffffffffffffffffffffff166336bc697387836040518363ffffffff1660e01b8152600401610438929190611f0d565b600060405180830381600087803b15801561045257600080fd5b505af1158015610466573d6000803e3d6000fd5b505050505050505050505050505050565b60008060009054906101000a900473ffffffffffffffffffffffffffffffffffffffff1690508073ffffffffffffffffffffffffffffffffffffffff1663d05a8870838c6040518363ffffffff1660e01b81526004016104d8929190611d4c565b602060405180830381865afa1580156104f5573d6000803e3d6000fd5b505050506040513d601f19601f820116820180604052508101906105199190611d8a565b8061059c57508073ffffffffffffffffffffffffffffffffffffffff1663db035b87838c6040518363ffffffff1660e01b815260040161055a929190611d4c565b602060405180830381865afa158015610577573d6000803e3d6000fd5b505050506040513d601f19601f8201168201806040525081019061059b9190611d8a565b5b6105a557600080fd5b6000600160009054906101000a900473ffffffffffffffffffffffffffffffffffffffff16905060008173ffffffffffffffffffffffffffffffffffffffff16633e4e3b556040518163ffffffff1660e01b8152600401602060405180830381865afa158015610619573d6000803e3d6000fd5b505050506040513d601f19601f8201168201806040525081019061063d9190611dcc565b90508173ffffffffffffffffffffffffffffffffffffffff16630b7338a18e8e8e8e8e8e8e8e8e6040518a63ffffffff1660e01b815260040161068899989796959493929190611f36565b600060405180830381600087803b1580156106a257600080fd5b505af11580156106b6573d6000803e3d6000fd5b505050508273ffffffffffffffffffffffffffffffffffffffff166336bc697389836040518363ffffffff1660e01b81526004016106f5929190611f0d565b600060405180830381600087803b15801561070f57600080fd5b505af1158015610723573d6000803e3d6000fd5b5050505050505050505050505050505050565b60008060009054906101000a900473ffffffffffffffffffffffffffffffffffffffff1690508073ffffffffffffffffffffffffffffffffffffffff1663d05a8870838b6040518363ffffffff1660e01b8152600401610797929190611d4c565b602060405180830381865afa1580156107b4573d6000803e3d6000fd5b505050506040513d601f19601f820116820180604052508101906107d89190611d8a565b8061085b57508073ffffffffffffffffffffffffffffffffffffffff1663db035b87838b6040518363ffffffff1660e01b8152600401610819929190611d4c565b602060405180830381865afa158015610836573d6000803e3d6000fd5b505050506040513d601f19601f8201168201806040525081019061085a9190611d8a565b5b61086457600080fd5b6000600160009054906101000a900473ffffffffffffffffffffffffffffffffffffffff16905060008173ffffffffffffffffffffffffffffffffffffffff16633e4e3b556040518163ffffffff1660e01b8152600401602060405180830381865afa1580156108d8573d6000803e3d6000fd5b505050506040513d601f19601f820116820180604052508101906108fc9190611dcc565b90508173ffffffffffffffffffffffffffffffffffffffff1663a1c6d0d08d8d8d8d8d8d8d8d6040518963ffffffff1660e01b8152600401610945989796959493929190611fe7565b600060405180830381600087803b15801561095f57600080fd5b505af1158015610973573d6000803e3d6000fd5b505050508273ffffffffffffffffffffffffffffffffffffffff166336bc697388836040518363ffffffff1660e01b81526004016109b2929190611f0d565b600060405180830381600087803b1580156109cc57600080fd5b505af11580156109e0573d6000803e3d6000fd5b50505050505050505050505050505050565b60008060009054906101000a900473ffffffffffffffffffffffffffffffffffffffff1690508073ffffffffffffffffffffffffffffffffffffffff1663d05a8870838d6040518363ffffffff1660e01b8152600401610a53929190611d4c565b602060405180830381865afa158015610a70573d6000803e3d6000fd5b505050506040513d601f19601f82011682018060405250810190610a949190611d8a565b80610b1757508073ffffffffffffffffffffffffffffffffffffffff1663db035b87838d6040518363ffffffff1660e01b8152600401610ad5929190611d4c565b602060405180830381865afa158015610af2573d6000803e3d6000fd5b505050506040513d601f19601f82011682018060405250810190610b169190611d8a565b5b610b2057600080fd5b6000600160009054906101000a900473ffffffffffffffffffffffffffffffffffffffff16905060008173ffffffffffffffffffffffffffffffffffffffff16633e4e3b556040518163ffffffff1660e01b8152600401602060405180830381865afa158015610b94573d6000803e3d6000fd5b505050506040513d601f19601f82011682018060405250810190610bb89190611dcc565b90508173ffffffffffffffffffffffffffffffffffffffff1663ece901338f8f8f8f8f8f8f8f8f8f6040518b63ffffffff1660e01b8152600401610c059a99989796959493929190612073565b600060405180830381600087803b158015610c1f57600080fd5b505af1158015610c33573d6000803e3d6000fd5b505050508273ffffffffffffffffffffffffffffffffffffffff166336bc69738a836040518363ffffffff1660e01b8152600401610c72929190611f0d565b600060405180830381600087803b158015610c8c57600080fd5b505af1158015610ca0573d6000803e3d6000fd5b505050505050505050505050505050505050565b60008060009054906101000a900473ffffffffffffffffffffffffffffffffffffffff1690508073ffffffffffffffffffffffffffffffffffffffff1663d05a8870838c6040518363ffffffff1660e01b8152600401610d15929190611d4c565b602060405180830381865afa158015610d32573d6000803e3d6000fd5b505050506040513d601f19601f82011682018060405250810190610d569190611d8a565b80610dd957508073ffffffffffffffffffffffffffffffffffffffff1663db035b87838c6040518363ffffffff1660e01b8152600401610d97929190611d4c565b602060405180830381865afa158015610db4573d6000803e3d6000fd5b505050506040513d601f19601f82011682018060405250810190610dd89190611d8a565b5b610de257600080fd5b6000600160009054906101000a900473ffffffffffffffffffffffffffffffffffffffff16905060008173ffffffffffffffffffffffffffffffffffffffff16633e4e3b556040518163ffffffff1660e01b8152600401602060405180830381865afa158015610e56573d6000803e3d6000fd5b505050506040513d601f19601f82011682018060405250810190610e7a9190611dcc565b90508173ffffffffffffffffffffffffffffffffffffffff16632124b4fe8e8e8e8e8e8e8e8e8e6040518a63ffffffff1660e01b8152600401610ec599989796959493929190611f36565b600060405180830381600087803b158015610edf57600080fd5b505af1158015610ef3573d6000803e3d6000fd5b505050508273ffffffffffffffffffffffffffffffffffffffff166336bc697389836040518363ffffffff1660e01b8152600401610f32929190611f0d565b600060405180830381600087803b158015610f4c57600080fd5b505af1158015610f60573d6000803e3d6000fd5b5050505050505050505050505050505050565b60008060009054906101000a900473ffffffffffffffffffffffffffffffffffffffff1690508073ffffffffffffffffffffffffffffffffffffffff1663d05a8870838b6040518363ffffffff1660e01b8152600401610fd4929190611d4c565b602060405180830381865afa158015610ff1573d6000803e3d6000fd5b505050506040513d601f19601f820116820180604052508101906110159190611d8a565b8061109857508073ffffffffffffffffffffffffffffffffffffffff1663db035b87838b6040518363ffffffff1660e01b8152600401611056929190611d4c565b602060405180830381865afa158015611073573d6000803e3d6000fd5b505050506040513d601f19601f820116820180604052508101906110979190611d8a565b5b6110a157600080fd5b6000600160009054906101000a900473ffffffffffffffffffffffffffffffffffffffff16905060008173ffffffffffffffffffffffffffffffffffffffff16633e4e3b556040518163ffffffff1660e01b8152600401602060405180830381865afa158015611115573d6000803e3d6000fd5b505050506040513d601f19601f820116820180604052508101906111399190611dcc565b90508173ffffffffffffffffffffffffffffffffffffffff16636139e9f48d8d8d8d8d8d8d8d6040518963ffffffff1660e01b815260040161118298979695949392919061212b565b600060405180830381600087803b15801561119c57600080fd5b505af11580156111b0573d6000803e3d6000fd5b505050508273ffffffffffffffffffffffffffffffffffffffff166336bc697388836040518363ffffffff1660e01b81526004016111ef929190611f0d565b600060405180830381600087803b15801561120957600080fd5b505af115801561121d573d6000803e3d6000fd5b50505050505050505050505050505050565b60008054906101000a900473ffffffffffffffffffffffffffffffffffffffff1681565b60008060009054906101000a900473ffffffffffffffffffffffffffffffffffffffff1690508073ffffffffffffffffffffffffffffffffffffffff1663d05a8870838b6040518363ffffffff1660e01b81526004016112b4929190611d4c565b602060405180830381865afa1580156112d1573d6000803e3d6000fd5b505050506040513d601f19601f820116820180604052508101906112f59190611d8a565b8061137857508073ffffffffffffffffffffffffffffffffffffffff1663db035b87838b6040518363ffffffff1660e01b8152600401611336929190611d4c565b602060405180830381865afa158015611353573d6000803e3d6000fd5b505050506040513d601f19601f820116820180604052508101906113779190611d8a565b5b61138157600080fd5b6000600160009054906101000a900473ffffffffffffffffffffffffffffffffffffffff16905060008173ffffffffffffffffffffffffffffffffffffffff16633e4e3b556040518163ffffffff1660e01b8152600401602060405180830381865afa1580156113f5573d6000803e3d6000fd5b505050506040513d601f19601f820116820180604052508101906114199190611dcc565b90508173ffffffffffffffffffffffffffffffffffffffff16638558b8448d8d8d8d8d8d8d8d6040518963ffffffff1660e01b8152600401611462989796959493929190611fe7565b600060405180830381600087803b15801561147c57600080fd5b505af1158015611490573d6000803e3d6000fd5b505050508273ffffffffffffffffffffffffffffffffffffffff166336bc697388836040518363ffffffff1660e01b81526004016114cf929190611f0d565b600060405180830381600087803b1580156114e957600080fd5b505af11580156114fd573d6000803e3d6000fd5b50505050505050505050505050505050565b600073ffffffffffffffffffffffffffffffffffffffff82169050919050565b600061153a8261150f565b9050919050565b61154a8161152f565b82525050565b60006020820190506115656000830184611541565b92915050565b6000604051905090565b600080fd5b600080fd5b600080fd5b600080fd5b6000601f19601f8301169050919050565b7f4e487b7100000000000000000000000000000000000000000000000000000000600052604160045260246000fd5b6115d282611589565b810181811067ffffffffffffffff821117156115f1576115f061159a565b5b80604052505050565b600061160461156b565b905061161082826115c9565b919050565b600067ffffffffffffffff8211156116305761162f61159a565b5b61163982611589565b9050602081019050919050565b82818337600083830152505050565b600061166861166384611615565b6115fa565b90508281526020810184848401111561168457611683611584565b5b61168f848285611646565b509392505050565b600082601f8301126116ac576116ab61157f565b5b81356116bc848260208601611655565b91505092915050565b6000819050919050565b6116d8816116c5565b81146116e357600080fd5b50565b6000813590506116f5816116cf565b92915050565b600060ff82169050919050565b611711816116fb565b811461171c57600080fd5b50565b60008135905061172e81611708565b92915050565b61173d8161152f565b811461174857600080fd5b50565b60008135905061175a81611734565b92915050565b600080600080600080600080610100898b03121561178157611780611575565b5b600089013567ffffffffffffffff81111561179f5761179e61157a565b5b6117ab8b828c01611697565b98505060206117bc8b828c016116e6565b97505060406117cd8b828c016116e6565b96505060606117de8b828c016116e6565b95505060806117ef8b828c0161171f565b94505060a06118008b828c016116e6565b93505060c089013567ffffffffffffffff8111156118215761182061157a565b5b61182d8b828c01611697565b92505060e061183e8b828c0161174b565b9150509295985092959890939650565b6000806000806000806000806000806101408b8d03121561187257611871611575565b5b60008b013567ffffffffffffffff8111156118905761188f61157a565b5b61189c8d828e01611697565b9a505060206118ad8d828e016116e6565b99505060406118be8d828e016116e6565b98505060606118cf8d828e016116e6565b97505060806118e08d828e0161171f565b96505060a06118f18d828e016116e6565b95505060c08b013567ffffffffffffffff8111156119125761191161157a565b5b61191e8d828e01611697565b94505060e08b013567ffffffffffffffff81111561193f5761193e61157a565b5b61194b8d828e01611697565b93505061010061195d8d828e0161171f565b92505061012061196f8d828e0161174b565b9150509295989b9194979a5092959850565b60008115159050919050565b61199681611981565b81146119a157600080fd5b50565b6000813590506119b38161198d565b92915050565b60008060008060008060008060006101208a8c0312156119dc576119db611575565b5b60008a013567ffffffffffffffff8111156119fa576119f961157a565b5b611a068c828d01611697565b9950506020611a178c828d016116e6565b9850506040611a288c828d016116e6565b9750506060611a398c828d016116e6565b9650506080611a4a8c828d0161171f565b95505060a0611a5b8c828d016116e6565b94505060c08a013567ffffffffffffffff811115611a7c57611a7b61157a565b5b611a888c828d01611697565b93505060e0611a998c828d016119a4565b925050610100611aab8c828d0161174b565b9150509295985092959850929598565b60008060008060008060008060008060006101608c8e031215611ae157611ae0611575565b5b60008c013567ffffffffffffffff811115611aff57611afe61157a565b5b611b0b8e828f01611697565b9b50506020611b1c8e828f016116e6565b9a50506040611b2d8e828f016116e6565b9950506060611b3e8e828f016116e6565b9850506080611b4f8e828f0161171f565b97505060a0611b608e828f016116e6565b96505060c08c013567ffffffffffffffff811115611b8157611b8061157a565b5b611b8d8e828f01611697565b95505060e08c013567ffffffffffffffff811115611bae57611bad61157a565b5b611bba8e828f01611697565b9450506101008c013567ffffffffffffffff811115611bdc57611bdb61157a565b5b611be88e828f01611697565b935050610120611bfa8e828f0161171f565b925050610140611c0c8e828f0161174b565b9150509295989b509295989b9093969950565b60008060008060008060008060006101208a8c031215611c4257611c41611575565b5b60008a013567ffffffffffffffff811115611c6057611c5f61157a565b5b611c6c8c828d01611697565b9950506020611c7d8c828d016116e6565b9850506040611c8e8c828d016116e6565b9750506060611c9f8c828d016116e6565b9650506080611cb08c828d0161171f565b95505060a0611cc18c828d016116e6565b94505060c08a013567ffffffffffffffff811115611ce257611ce161157a565b5b611cee8c828d01611697565b93505060e08a013567ffffffffffffffff811115611d0f57611d0e61157a565b5b611d1b8c828d01611697565b925050610100611d2d8c828d0161174b565b9150509295985092959850929598565b611d46816116c5565b82525050565b6000604082019050611d616000830185611541565b611d6e6020830184611d3d565b9392505050565b600081519050611d848161198d565b92915050565b600060208284031215611da057611d9f611575565b5b6000611dae84828501611d75565b91505092915050565b600081519050611dc6816116cf565b92915050565b600060208284031215611de257611de1611575565b5b6000611df084828501611db7565b91505092915050565b600081519050919050565b600082825260208201905092915050565b60005b83811015611e33578082015181840152602081019050611e18565b83811115611e42576000848401525b50505050565b6000611e5382611df9565b611e5d8185611e04565b9350611e6d818560208601611e15565b611e7681611589565b840191505092915050565b611e8a816116fb565b82525050565b600060e0820190508181036000830152611eaa818a611e48565b9050611eb96020830189611d3d565b611ec66040830188611d3d565b611ed36060830187611d3d565b611ee06080830186611e81565b611eed60a0830185611d3d565b81810360c0830152611eff8184611e48565b905098975050505050505050565b6000604082019050611f226000830185611d3d565b611f2f6020830184611d3d565b9392505050565b6000610120820190508181036000830152611f51818c611e48565b9050611f60602083018b611d3d565b611f6d604083018a611d3d565b611f7a6060830189611d3d565b611f876080830188611e81565b611f9460a0830187611d3d565b81810360c0830152611fa68186611e48565b905081810360e0830152611fba8185611e48565b9050611fca610100830184611e81565b9a9950505050505050505050565b611fe181611981565b82525050565b6000610100820190508181036000830152612002818b611e48565b9050612011602083018a611d3d565b61201e6040830189611d3d565b61202b6060830188611d3d565b6120386080830187611e81565b61204560a0830186611d3d565b81810360c08301526120578185611e48565b905061206660e0830184611fd8565b9998505050505050505050565b600061014082019050818103600083015261208e818d611e48565b905061209d602083018c611d3d565b6120aa604083018b611d3d565b6120b7606083018a611d3d565b6120c46080830189611e81565b6120d160a0830188611d3d565b81810360c08301526120e38187611e48565b905081810360e08301526120f78186611e48565b905081810361010083015261210c8185611e48565b905061211c610120830184611e81565b9b9a5050505050505050505050565b6000610100820190508181036000830152612146818b611e48565b9050612155602083018a611d3d565b6121626040830189611d3d565b61216f6060830188611d3d565b61217c6080830187611e81565b61218960a0830186611d3d565b81810360c083015261219b8185611e48565b905081810360e08301526121af8184611e48565b9050999850505050505050505056fea2646970667358221220e14477c6398b854815a8eb55297fbd73527e9256fb49d850e8597e05b5b8a00f64736f6c634300080c0033",
  "immutableReferences": {},
  "source": "// SPDX-License-Identifier: MIT\r\npragma solidity >=0.7.0 <0.9.10;\r\nimport \"./Users.sol\";\r\nimport \"./Main.sol\";\r\n\r\ncontract Users2 {\r\n\r\n    address public usersAddr;\r\n    address public mainAddr;\r\n\r\n    constructor (address _usersAddr, address _mainAddr){\r\n        usersAddr = _usersAddr;\r\n        mainAddr = _mainAddr;\r\n    }\r\n\r\n    function insertNewSAssetWithDepartment(string memory name,\r\n        uint256 organizationId,\r\n        uint256 adquireDate,\r\n        uint256 creationDate,\r\n        uint8 assetType,\r\n        uint256 assetDepart,\r\n        string memory version, \r\n        string memory provider, \r\n        uint8 stype,\r\n        address addr) public {\r\n            Users userInstance = Users(usersAddr);\r\n            if(!(userInstance.isAdminFromOrg(addr, organizationId) || userInstance.isUserFromDepart(addr, organizationId))) revert();\r\n            Main mainInstance = Main(mainAddr);\r\n            uint id = mainInstance.getIdAsset();\r\n            mainInstance.insertNewSoftAsset(name, organizationId, adquireDate, creationDate, assetType, assetDepart, version, provider, stype);\r\n            userInstance.insertNewAssetWithDepartment(assetDepart,id);\r\n        }\r\n\r\n        function insertNewHAssetWithDepartment(string memory name,\r\n        uint256 organizationId,\r\n        uint256 adquireDate,\r\n        uint256 creationDate,\r\n        uint8 assetType,\r\n        uint256 assetDepart,\r\n        string memory model, \r\n        string memory provider, \r\n        string memory serialNumber, \r\n        uint8 htype,\r\n        address addr) public {\r\n            Users userInstance = Users(usersAddr);\r\n            if(!(userInstance.isAdminFromOrg(addr, organizationId) || userInstance.isUserFromDepart(addr, organizationId))) revert();\r\n            Main mainInstance = Main(mainAddr);\r\n            uint id = mainInstance.getIdAsset();\r\n            mainInstance.insertNewHardAsset(name, organizationId, adquireDate, creationDate, assetType, assetDepart, model, provider, serialNumber, htype);\r\n            userInstance.insertNewAssetWithDepartment(assetDepart,id);\r\n        }\r\n\r\n    function insertNewDocAssetWithDepartment(string memory name,\r\n        uint256 organizationId,\r\n        uint256 adquireDate,\r\n        uint256 creationDate,\r\n        uint8 assetType,\r\n        uint256 assetDepart,\r\n        string memory description,\r\n        string memory location,\r\n        uint8 doctype,\r\n        address addr) public {\r\n            Users userInstance = Users(usersAddr);\r\n            if(!(userInstance.isAdminFromOrg(addr, organizationId) || userInstance.isUserFromDepart(addr, organizationId))) revert();\r\n            Main mainInstance = Main(mainAddr);\r\n            uint id = mainInstance.getIdAsset();\r\n            mainInstance.insertNewDocAsset(name, organizationId, adquireDate, creationDate, assetType, assetDepart, description, location, doctype);\r\n            userInstance.insertNewAssetWithDepartment(assetDepart,id);\r\n        }\r\n\r\n    function insertNewDataAssetWithDepartment(string memory name,\r\n        uint256 organizationId,\r\n        uint256 adquireDate,\r\n        uint256 creationDate,\r\n        uint8 assetType,\r\n        uint256 assetDepart,\r\n        string memory location, \r\n        bool local,\r\n        address addr) public {\r\n            Users userInstance = Users(usersAddr);\r\n            if(!(userInstance.isAdminFromOrg(addr, organizationId) || userInstance.isUserFromDepart(addr, organizationId))) revert();\r\n            Main mainInstance = Main(mainAddr);\r\n            uint id = mainInstance.getIdAsset();\r\n            mainInstance.insertNewDataAsset(name, organizationId, adquireDate, creationDate, assetType, assetDepart, location, local);\r\n            userInstance.insertNewAssetWithDepartment(assetDepart,id);\r\n        }\r\n\r\n    function insertNewNAssetWithDepartment(string memory name,\r\n        uint256 organizationId,\r\n        uint256 adquireDate,\r\n        uint256 creationDate,\r\n        uint8 assetType,\r\n        uint256 assetDepart,\r\n        string memory cidrblock, \r\n        bool nat,\r\n        address addr) public {\r\n            Users userInstance = Users(usersAddr);\r\n            if(!(userInstance.isAdminFromOrg(addr, organizationId) || userInstance.isUserFromDepart(addr, organizationId))) revert();\r\n            Main mainInstance = Main(mainAddr);\r\n            uint id = mainInstance.getIdAsset();\r\n            mainInstance.insertNewNetworkAsset(name, organizationId, adquireDate, creationDate, assetType, assetDepart, cidrblock, nat);\r\n            userInstance.insertNewAssetWithDepartment(assetDepart,id);\r\n        }\r\n\r\n    function insertNewCAssetWithDepartment(string memory name,\r\n        uint256 organizationId,\r\n        uint256 adquireDate,\r\n        uint256 creationDate,\r\n        uint8 assetType,\r\n        uint256 assetDepart,\r\n        string memory url, \r\n        string memory domain,\r\n        address addr) public {\r\n            Users userInstance = Users(usersAddr);\r\n            if(!(userInstance.isAdminFromOrg(addr, organizationId) || userInstance.isUserFromDepart(addr, organizationId))) revert();\r\n            Main mainInstance = Main(mainAddr);\r\n            uint id = mainInstance.getIdAsset();\r\n            mainInstance.insertNewCloudAsset(name, organizationId, adquireDate, creationDate, assetType, assetDepart, url, domain);\r\n            userInstance.insertNewAssetWithDepartment(assetDepart,id);\r\n        }\r\n\r\n    function insertNewOAssetWithDepartment(string memory name,\r\n        uint256 organizationId,\r\n        uint256 adquireDate,\r\n        uint256 creationDate,\r\n        uint8 assetType,\r\n        uint256 assetDepart,\r\n        string memory description,\r\n        address addr) public {\r\n            Users userInstance = Users(usersAddr);\r\n            if(!(userInstance.isAdminFromOrg(addr, organizationId) || userInstance.isUserFromDepart(addr, organizationId))) revert();\r\n            Main mainInstance = Main(mainAddr);\r\n            uint id = mainInstance.getIdAsset();\r\n            mainInstance.insertNewOtherAsset(name, organizationId, adquireDate, creationDate, assetType, assetDepart, description);\r\n            userInstance.insertNewAssetWithDepartment(assetDepart,id);\r\n        }\r\n}\r\n",
  "sourcePath": "D:\\GIT\\inventory-blockchain\\blockchain\\contracts\\Users2.sol",
  "compiler": {
    "name": "solc",
    "version": "0.8.12+commit.f00d7308.Emscripten.clang"
  },
  "schemaVersion": "3.4.6",
  "updatedAt": "2022-05-15T16:20:56.331Z",
  "networkType": "ethereum",
  "devdoc": {
    "kind": "dev",
    "methods": {},
    "version": 1
  },
  "userdoc": {
    "kind": "user",
    "methods": {},
    "version": 1
  }
}