{
  "contractName": "Users",
  "abi": [
    {
      "inputs": [
        {
          "internalType": "address",
          "name": "_mainAddr",
          "type": "address"
        }
      ],
      "stateMutability": "nonpayable",
      "type": "constructor"
    },
    {
      "anonymous": false,
      "inputs": [
        {
          "indexed": false,
          "internalType": "address",
          "name": "addr",
          "type": "address"
        },
        {
          "indexed": false,
          "internalType": "string",
          "name": "name",
          "type": "string"
        },
        {
          "indexed": false,
          "internalType": "string",
          "name": "surname",
          "type": "string"
        },
        {
          "indexed": false,
          "internalType": "uint256",
          "name": "orgId",
          "type": "uint256"
        }
      ],
      "name": "Register",
      "type": "event"
    },
    {
      "inputs": [
        {
          "internalType": "uint256",
          "name": "",
          "type": "uint256"
        },
        {
          "internalType": "uint256",
          "name": "",
          "type": "uint256"
        }
      ],
      "name": "assetToListOfUsers",
      "outputs": [
        {
          "internalType": "uint256",
          "name": "",
          "type": "uint256"
        }
      ],
      "stateMutability": "view",
      "type": "function",
      "constant": true
    },
    {
      "inputs": [],
      "name": "mainAddr",
      "outputs": [
        {
          "internalType": "address",
          "name": "",
          "type": "address"
        }
      ],
      "stateMutability": "view",
      "type": "function",
      "constant": true
    },
    {
      "inputs": [
        {
          "internalType": "uint256",
          "name": "",
          "type": "uint256"
        },
        {
          "internalType": "uint256",
          "name": "",
          "type": "uint256"
        }
      ],
      "name": "userIdToAssetList",
      "outputs": [
        {
          "internalType": "uint256",
          "name": "",
          "type": "uint256"
        }
      ],
      "stateMutability": "view",
      "type": "function",
      "constant": true
    },
    {
      "inputs": [
        {
          "internalType": "address",
          "name": "userAddress",
          "type": "address"
        }
      ],
      "name": "isUser",
      "outputs": [
        {
          "internalType": "bool",
          "name": "isIndeed",
          "type": "bool"
        }
      ],
      "stateMutability": "view",
      "type": "function",
      "constant": true
    },
    {
      "inputs": [
        {
          "internalType": "address",
          "name": "addr",
          "type": "address"
        },
        {
          "internalType": "string",
          "name": "name",
          "type": "string"
        },
        {
          "internalType": "string",
          "name": "surname",
          "type": "string"
        },
        {
          "internalType": "string",
          "name": "email",
          "type": "string"
        },
        {
          "internalType": "uint32",
          "name": "telephone",
          "type": "uint32"
        },
        {
          "internalType": "uint256",
          "name": "orgId",
          "type": "uint256"
        }
      ],
      "name": "insertUser",
      "outputs": [],
      "stateMutability": "nonpayable",
      "type": "function"
    },
    {
      "inputs": [
        {
          "internalType": "uint256",
          "name": "orgId",
          "type": "uint256"
        }
      ],
      "name": "getAllUsersFromOrg",
      "outputs": [
        {
          "components": [
            {
              "internalType": "address",
              "name": "addr",
              "type": "address"
            },
            {
              "internalType": "string",
              "name": "name",
              "type": "string"
            },
            {
              "internalType": "string",
              "name": "surname",
              "type": "string"
            },
            {
              "internalType": "string",
              "name": "email",
              "type": "string"
            },
            {
              "internalType": "uint32",
              "name": "telephone",
              "type": "uint32"
            },
            {
              "internalType": "uint256",
              "name": "orgId",
              "type": "uint256"
            },
            {
              "internalType": "uint256",
              "name": "index",
              "type": "uint256"
            }
          ],
          "internalType": "struct Users.User[]",
          "name": "",
          "type": "tuple[]"
        }
      ],
      "stateMutability": "view",
      "type": "function",
      "constant": true
    },
    {
      "inputs": [
        {
          "internalType": "uint256",
          "name": "userId",
          "type": "uint256"
        }
      ],
      "name": "getUserData",
      "outputs": [
        {
          "components": [
            {
              "internalType": "address",
              "name": "addr",
              "type": "address"
            },
            {
              "internalType": "string",
              "name": "name",
              "type": "string"
            },
            {
              "internalType": "string",
              "name": "surname",
              "type": "string"
            },
            {
              "internalType": "string",
              "name": "email",
              "type": "string"
            },
            {
              "internalType": "uint32",
              "name": "telephone",
              "type": "uint32"
            },
            {
              "internalType": "uint256",
              "name": "orgId",
              "type": "uint256"
            },
            {
              "internalType": "uint256",
              "name": "index",
              "type": "uint256"
            }
          ],
          "internalType": "struct Users.User",
          "name": "",
          "type": "tuple"
        }
      ],
      "stateMutability": "view",
      "type": "function",
      "constant": true
    },
    {
      "inputs": [
        {
          "internalType": "uint256",
          "name": "assetId",
          "type": "uint256"
        },
        {
          "internalType": "uint256[]",
          "name": "userIds",
          "type": "uint256[]"
        }
      ],
      "name": "insertUsersToAsset",
      "outputs": [],
      "stateMutability": "nonpayable",
      "type": "function"
    },
    {
      "inputs": [
        {
          "internalType": "uint256",
          "name": "userId",
          "type": "uint256"
        }
      ],
      "name": "getUserAssets",
      "outputs": [
        {
          "internalType": "uint256[]",
          "name": "assetIds",
          "type": "uint256[]"
        }
      ],
      "stateMutability": "view",
      "type": "function",
      "constant": true
    },
    {
      "inputs": [
        {
          "internalType": "uint256",
          "name": "assetId",
          "type": "uint256"
        }
      ],
      "name": "getAssetUsers",
      "outputs": [
        {
          "components": [
            {
              "internalType": "address",
              "name": "addr",
              "type": "address"
            },
            {
              "internalType": "string",
              "name": "name",
              "type": "string"
            },
            {
              "internalType": "string",
              "name": "surname",
              "type": "string"
            },
            {
              "internalType": "string",
              "name": "email",
              "type": "string"
            },
            {
              "internalType": "uint32",
              "name": "telephone",
              "type": "uint32"
            },
            {
              "internalType": "uint256",
              "name": "orgId",
              "type": "uint256"
            },
            {
              "internalType": "uint256",
              "name": "index",
              "type": "uint256"
            }
          ],
          "internalType": "struct Users.User[]",
          "name": "",
          "type": "tuple[]"
        }
      ],
      "stateMutability": "view",
      "type": "function",
      "constant": true
    }
  ],
  "bytecode": "0x60806040523480156200001157600080fd5b50604051620020e7380380620020e78339818101604052810190620000379190620000e8565b806000806101000a81548173ffffffffffffffffffffffffffffffffffffffff021916908373ffffffffffffffffffffffffffffffffffffffff160217905550506200011a565b600080fd5b600073ffffffffffffffffffffffffffffffffffffffff82169050919050565b6000620000b08262000083565b9050919050565b620000c281620000a3565b8114620000ce57600080fd5b50565b600081519050620000e281620000b7565b92915050565b6000602082840312156200010157620001006200007e565b5b60006200011184828501620000d1565b91505092915050565b611fbd806200012a6000396000f3fe608060405234801561001057600080fd5b506004361061009e5760003560e01c80635ba506ef116100665780635ba506ef1461016d57806373adf71f1461019d578063dd2b6d3a146101b9578063e8bb900b146101e9578063fbc8ba84146102195761009e565b806304f468a7146100a35780631fef580c146100c15780632c60e4a0146100f15780632ee45f4e1461010d5780634209fff11461013d575b600080fd5b6100ab610249565b6040516100b89190611380565b60405180910390f35b6100db60048036038101906100d691906113e5565b61026d565b6040516100e89190611592565b60405180910390f35b61010b60048036038101906101069190611741565b6104ef565b005b610127600480360381019061012291906113e5565b6108a2565b604051610134919061198e565b60405180910390f35b610157600480360381019061015291906119b0565b610c3d565b60405161016491906119f8565b60405180910390f35b610187600480360381019061018291906113e5565b610d09565b6040516101949190611ac2565b60405180910390f35b6101b760048036038101906101b29190611bac565b610d74565b005b6101d360048036038101906101ce9190611c08565b610e46565b6040516101e09190611c57565b60405180910390f35b61020360048036038101906101fe9190611c08565b610e77565b6040516102109190611c57565b60405180910390f35b610233600480360381019061022e91906113e5565b610ea8565b604051610240919061198e565b60405180910390f35b60008054906101000a900473ffffffffffffffffffffffffffffffffffffffff1681565b610275611243565b6001828154811061028957610288611c72565b5b90600052602060002090600702016040518060e00160405290816000820160009054906101000a900473ffffffffffffffffffffffffffffffffffffffff1673ffffffffffffffffffffffffffffffffffffffff1673ffffffffffffffffffffffffffffffffffffffff16815260200160018201805461030890611cd0565b80601f016020809104026020016040519081016040528092919081815260200182805461033490611cd0565b80156103815780601f1061035657610100808354040283529160200191610381565b820191906000526020600020905b81548152906001019060200180831161036457829003601f168201915b5050505050815260200160028201805461039a90611cd0565b80601f01602080910402602001604051908101604052809291908181526020018280546103c690611cd0565b80156104135780601f106103e857610100808354040283529160200191610413565b820191906000526020600020905b8154815290600101906020018083116103f657829003601f168201915b5050505050815260200160038201805461042c90611cd0565b80601f016020809104026020016040519081016040528092919081815260200182805461045890611cd0565b80156104a55780601f1061047a576101008083540402835291602001916104a5565b820191906000526020600020905b81548152906001019060200180831161048857829003601f168201915b505050505081526020016004820160009054906101000a900463ffffffff1663ffffffff1663ffffffff168152602001600582015481526020016006820154815250509050919050565b60008060009054906101000a900473ffffffffffffffffffffffffffffffffffffffff16905061051e87610c3d565b1561055e576040517f08c379a000000000000000000000000000000000000000000000000000000000815260040161055590611d5f565b60405180910390fd5b60018261056b9190611dae565b8173ffffffffffffffffffffffffffffffffffffffff1663d81066906040518163ffffffff1660e01b8152600401602060405180830381865afa1580156105b6573d6000803e3d6000fd5b505050506040513d601f19601f820116820180604052508101906105da9190611e19565b101561061b576040517f08c379a000000000000000000000000000000000000000000000000000000000815260040161061290611e92565b60405180910390fd5b6000600180549050905060016040518060e001604052808a73ffffffffffffffffffffffffffffffffffffffff1681526020018981526020018881526020018781526020018663ffffffff16815260200185815260200183815250908060018154018082558091505060019003906000526020600020906007020160009091909190915060008201518160000160006101000a81548173ffffffffffffffffffffffffffffffffffffffff021916908373ffffffffffffffffffffffffffffffffffffffff160217905550602082015181600101908051906020019061070292919061129c565b50604082015181600201908051906020019061071f92919061129c565b50606082015181600301908051906020019061073c92919061129c565b5060808201518160040160006101000a81548163ffffffff021916908363ffffffff16021790555060a0820151816005015560c0820151816006015550506003600084815260200190815260200160002081908060018154018082558091505060019003906000526020600020016000909190919091505580600460008a73ffffffffffffffffffffffffffffffffffffffff1673ffffffffffffffffffffffffffffffffffffffff168152602001908152602001600020819055506002889080600181540180825580915050600190039060005260206000200160009091909190916101000a81548173ffffffffffffffffffffffffffffffffffffffff021916908373ffffffffffffffffffffffffffffffffffffffff1602179055507f85c8fcee8505f10dc8a4f9b889000c6a759cffeafd2e3b519a19c836af2e02bd888888866040516108909493929190611eeb565b60405180910390a15050505050505050565b606060006006600084815260200190815260200160002080548060200260200160405190810160405280929190818152602001828054801561090357602002820191906000526020600020905b8154815260200190600101908083116108ef575b5050505050905060008151905060008167ffffffffffffffff81111561092c5761092b6115ea565b5b60405190808252806020026020018201604052801561096557816020015b610952611243565b81526020019060019003908161094a5790505b50905060005b82811015610c3157600184828151811061098857610987611c72565b5b6020026020010151815481106109a1576109a0611c72565b5b90600052602060002090600702016040518060e00160405290816000820160009054906101000a900473ffffffffffffffffffffffffffffffffffffffff1673ffffffffffffffffffffffffffffffffffffffff1673ffffffffffffffffffffffffffffffffffffffff168152602001600182018054610a2090611cd0565b80601f0160208091040260200160405190810160405280929190818152602001828054610a4c90611cd0565b8015610a995780601f10610a6e57610100808354040283529160200191610a99565b820191906000526020600020905b815481529060010190602001808311610a7c57829003601f168201915b50505050508152602001600282018054610ab290611cd0565b80601f0160208091040260200160405190810160405280929190818152602001828054610ade90611cd0565b8015610b2b5780601f10610b0057610100808354040283529160200191610b2b565b820191906000526020600020905b815481529060010190602001808311610b0e57829003601f168201915b50505050508152602001600382018054610b4490611cd0565b80601f0160208091040260200160405190810160405280929190818152602001828054610b7090611cd0565b8015610bbd5780601f10610b9257610100808354040283529160200191610bbd565b820191906000526020600020905b815481529060010190602001808311610ba057829003601f168201915b505050505081526020016004820160009054906101000a900463ffffffff1663ffffffff1663ffffffff16815260200160058201548152602001600682015481525050828281518110610c1357610c12611c72565b5b60200260200101819052508080610c2990611f3e565b91505061096b565b50809350505050919050565b6000806002805490501415610c555760009050610d04565b8173ffffffffffffffffffffffffffffffffffffffff166002600460008573ffffffffffffffffffffffffffffffffffffffff1673ffffffffffffffffffffffffffffffffffffffff1681526020019081526020016000205481548110610cbf57610cbe611c72565b5b9060005260206000200160009054906101000a900473ffffffffffffffffffffffffffffffffffffffff1673ffffffffffffffffffffffffffffffffffffffff161490505b919050565b606060056000838152602001908152602001600020805480602002602001604051908101604052809291908181526020018280548015610d6857602002820191906000526020600020905b815481526020019060010190808311610d54575b50505050509050919050565b60008151905060005b81811015610e405760056000848381518110610d9c57610d9b611c72565b5b6020026020010151815260200190815260200160002084908060018154018082558091505060019003906000526020600020016000909190919091505560066000858152602001908152602001600020838281518110610dff57610dfe611c72565b5b602002602001015190806001815401808255809150506001900390600052602060002001600090919091909150558080610e3890611f3e565b915050610d7d565b50505050565b60056020528160005260406000208181548110610e6257600080fd5b90600052602060002001600091509150505481565b60066020528160005260406000208181548110610e9357600080fd5b90600052602060002001600091509150505481565b6060600060036000848152602001908152602001600020805480602002602001604051908101604052809291908181526020018280548015610f0957602002820191906000526020600020905b815481526020019060010190808311610ef5575b5050505050905060008151905060008167ffffffffffffffff811115610f3257610f316115ea565b5b604051908082528060200260200182016040528015610f6b57816020015b610f58611243565b815260200190600190039081610f505790505b50905060005b82811015611237576001848281518110610f8e57610f8d611c72565b5b602002602001015181548110610fa757610fa6611c72565b5b90600052602060002090600702016040518060e00160405290816000820160009054906101000a900473ffffffffffffffffffffffffffffffffffffffff1673ffffffffffffffffffffffffffffffffffffffff1673ffffffffffffffffffffffffffffffffffffffff16815260200160018201805461102690611cd0565b80601f016020809104026020016040519081016040528092919081815260200182805461105290611cd0565b801561109f5780601f106110745761010080835404028352916020019161109f565b820191906000526020600020905b81548152906001019060200180831161108257829003601f168201915b505050505081526020016002820180546110b890611cd0565b80601f01602080910402602001604051908101604052809291908181526020018280546110e490611cd0565b80156111315780601f1061110657610100808354040283529160200191611131565b820191906000526020600020905b81548152906001019060200180831161111457829003601f168201915b5050505050815260200160038201805461114a90611cd0565b80601f016020809104026020016040519081016040528092919081815260200182805461117690611cd0565b80156111c35780601f10611198576101008083540402835291602001916111c3565b820191906000526020600020905b8154815290600101906020018083116111a657829003601f168201915b505050505081526020016004820160009054906101000a900463ffffffff1663ffffffff1663ffffffff1681526020016005820154815260200160068201548152505082828151811061121957611218611c72565b5b6020026020010181905250808061122f90611f3e565b915050610f71565b50809350505050919050565b6040518060e00160405280600073ffffffffffffffffffffffffffffffffffffffff168152602001606081526020016060815260200160608152602001600063ffffffff16815260200160008152602001600081525090565b8280546112a890611cd0565b90600052602060002090601f0160209004810192826112ca5760008555611311565b82601f106112e357805160ff1916838001178555611311565b82800160010185558215611311579182015b828111156113105782518255916020019190600101906112f5565b5b50905061131e9190611322565b5090565b5b8082111561133b576000816000905550600101611323565b5090565b600073ffffffffffffffffffffffffffffffffffffffff82169050919050565b600061136a8261133f565b9050919050565b61137a8161135f565b82525050565b60006020820190506113956000830184611371565b92915050565b6000604051905090565b600080fd5b600080fd5b6000819050919050565b6113c2816113af565b81146113cd57600080fd5b50565b6000813590506113df816113b9565b92915050565b6000602082840312156113fb576113fa6113a5565b5b6000611409848285016113d0565b91505092915050565b61141b8161135f565b82525050565b600081519050919050565b600082825260208201905092915050565b60005b8381101561145b578082015181840152602081019050611440565b8381111561146a576000848401525b50505050565b6000601f19601f8301169050919050565b600061148c82611421565b611496818561142c565b93506114a681856020860161143d565b6114af81611470565b840191505092915050565b600063ffffffff82169050919050565b6114d3816114ba565b82525050565b6114e2816113af565b82525050565b600060e0830160008301516115006000860182611412565b50602083015184820360208601526115188282611481565b915050604083015184820360408601526115328282611481565b9150506060830151848203606086015261154c8282611481565b915050608083015161156160808601826114ca565b5060a083015161157460a08601826114d9565b5060c083015161158760c08601826114d9565b508091505092915050565b600060208201905081810360008301526115ac81846114e8565b905092915050565b6115bd8161135f565b81146115c857600080fd5b50565b6000813590506115da816115b4565b92915050565b600080fd5b600080fd5b7f4e487b7100000000000000000000000000000000000000000000000000000000600052604160045260246000fd5b61162282611470565b810181811067ffffffffffffffff82111715611641576116406115ea565b5b80604052505050565b600061165461139b565b90506116608282611619565b919050565b600067ffffffffffffffff8211156116805761167f6115ea565b5b61168982611470565b9050602081019050919050565b82818337600083830152505050565b60006116b86116b384611665565b61164a565b9050828152602081018484840111156116d4576116d36115e5565b5b6116df848285611696565b509392505050565b600082601f8301126116fc576116fb6115e0565b5b813561170c8482602086016116a5565b91505092915050565b61171e816114ba565b811461172957600080fd5b50565b60008135905061173b81611715565b92915050565b60008060008060008060c0878903121561175e5761175d6113a5565b5b600061176c89828a016115cb565b965050602087013567ffffffffffffffff81111561178d5761178c6113aa565b5b61179989828a016116e7565b955050604087013567ffffffffffffffff8111156117ba576117b96113aa565b5b6117c689828a016116e7565b945050606087013567ffffffffffffffff8111156117e7576117e66113aa565b5b6117f389828a016116e7565b935050608061180489828a0161172c565b92505060a061181589828a016113d0565b9150509295509295509295565b600081519050919050565b600082825260208201905092915050565b6000819050602082019050919050565b600060e0830160008301516118666000860182611412565b506020830151848203602086015261187e8282611481565b915050604083015184820360408601526118988282611481565b915050606083015184820360608601526118b28282611481565b91505060808301516118c760808601826114ca565b5060a08301516118da60a08601826114d9565b5060c08301516118ed60c08601826114d9565b508091505092915050565b6000611904838361184e565b905092915050565b6000602082019050919050565b600061192482611822565b61192e818561182d565b9350836020820285016119408561183e565b8060005b8581101561197c578484038952815161195d85826118f8565b94506119688361190c565b925060208a01995050600181019050611944565b50829750879550505050505092915050565b600060208201905081810360008301526119a88184611919565b905092915050565b6000602082840312156119c6576119c56113a5565b5b60006119d4848285016115cb565b91505092915050565b60008115159050919050565b6119f2816119dd565b82525050565b6000602082019050611a0d60008301846119e9565b92915050565b600081519050919050565b600082825260208201905092915050565b6000819050602082019050919050565b6000611a4b83836114d9565b60208301905092915050565b6000602082019050919050565b6000611a6f82611a13565b611a798185611a1e565b9350611a8483611a2f565b8060005b83811015611ab5578151611a9c8882611a3f565b9750611aa783611a57565b925050600181019050611a88565b5085935050505092915050565b60006020820190508181036000830152611adc8184611a64565b905092915050565b600067ffffffffffffffff821115611aff57611afe6115ea565b5b602082029050602081019050919050565b600080fd5b6000611b28611b2384611ae4565b61164a565b90508083825260208201905060208402830185811115611b4b57611b4a611b10565b5b835b81811015611b745780611b6088826113d0565b845260208401935050602081019050611b4d565b5050509392505050565b600082601f830112611b9357611b926115e0565b5b8135611ba3848260208601611b15565b91505092915050565b60008060408385031215611bc357611bc26113a5565b5b6000611bd1858286016113d0565b925050602083013567ffffffffffffffff811115611bf257611bf16113aa565b5b611bfe85828601611b7e565b9150509250929050565b60008060408385031215611c1f57611c1e6113a5565b5b6000611c2d858286016113d0565b9250506020611c3e858286016113d0565b9150509250929050565b611c51816113af565b82525050565b6000602082019050611c6c6000830184611c48565b92915050565b7f4e487b7100000000000000000000000000000000000000000000000000000000600052603260045260246000fd5b7f4e487b7100000000000000000000000000000000000000000000000000000000600052602260045260246000fd5b60006002820490506001821680611ce857607f821691505b60208210811415611cfc57611cfb611ca1565b5b50919050565b600082825260208201905092915050565b7f4164647265737320616c72656164792072656769737465726564000000000000600082015250565b6000611d49601a83611d02565b9150611d5482611d13565b602082019050919050565b60006020820190508181036000830152611d7881611d3c565b9050919050565b7f4e487b7100000000000000000000000000000000000000000000000000000000600052601160045260246000fd5b6000611db9826113af565b9150611dc4836113af565b9250827fffffffffffffffffffffffffffffffffffffffffffffffffffffffffffffffff03821115611df957611df8611d7f565b5b828201905092915050565b600081519050611e13816113b9565b92915050565b600060208284031215611e2f57611e2e6113a5565b5b6000611e3d84828501611e04565b91505092915050565b7f4f72674964206e6f7420666f756e640000000000000000000000000000000000600082015250565b6000611e7c600f83611d02565b9150611e8782611e46565b602082019050919050565b60006020820190508181036000830152611eab81611e6f565b9050919050565b6000611ebd82611421565b611ec78185611d02565b9350611ed781856020860161143d565b611ee081611470565b840191505092915050565b6000608082019050611f006000830187611371565b8181036020830152611f128186611eb2565b90508181036040830152611f268185611eb2565b9050611f356060830184611c48565b95945050505050565b6000611f49826113af565b91507fffffffffffffffffffffffffffffffffffffffffffffffffffffffffffffffff821415611f7c57611f7b611d7f565b5b60018201905091905056fea2646970667358221220805e0d19344a2208f5ce7e3b3912ffd1e7d7f14c6a5460c5a22790837b60dded64736f6c634300080c0033",
  "immutableReferences": {},
  "source": "// SPDX-License-Identifier: MIT\r\npragma solidity >=0.7.0 <0.9.10;\r\nimport \"./Main.sol\";\r\n\r\ncontract Users {\r\n\r\n    address public mainAddr;\r\n\r\n    constructor (address _mainAddr){\r\n        mainAddr = _mainAddr;\r\n    }\r\n\r\n    event Register(\r\n        address addr, \r\n        string name,\r\n        string surname,\r\n        uint orgId \r\n    );\r\n\r\n    struct User {\r\n        address addr;\r\n        string name;\r\n        string surname;\r\n        string email;\r\n        uint32 telephone;\r\n        uint orgId;\r\n        uint256 index;\r\n    }\r\n\r\n    User[] private userList;\r\n    address[] private users;\r\n    mapping(uint256 => uint256[]) orgIdToUserList;\r\n\r\n\r\n    mapping(address => uint) addressToId;\r\n\r\n\r\n    function isUser(address userAddress) public view returns (bool isIndeed) {\r\n        if (users.length == 0) return false;\r\n        return (users[addressToId[userAddress]] == userAddress);\r\n    }\r\n\r\n   \r\n\r\n    function insertUser(\r\n        address addr, \r\n        string memory name, \r\n        string memory surname, \r\n        string memory email, \r\n        uint32 telephone,\r\n        uint orgId \r\n    ) public {\r\n        //Instance main contract to see if the id of the org exists\r\n        Main mainInstance = Main(mainAddr);\r\n\r\n        if(isUser(addr)) revert(\"Address already registered\");\r\n        if((mainInstance.orgCount()) < (uint256(orgId)+1)) revert(\"OrgId not found\");\r\n        uint userId = userList.length;\r\n        userList.push(User(addr, name, surname, email, telephone, orgId, userId));\r\n        orgIdToUserList[orgId].push(userId);\r\n        addressToId[addr] = userId;\r\n        users.push(addr);\r\n        emit Register(addr, name, surname, orgId);\r\n    }\r\n\r\n\r\n\r\n    function getAllUsersFromOrg(uint orgId) public view returns(User[] memory){\r\n        uint[] memory idList = orgIdToUserList[orgId];\r\n        uint cont = idList.length;\r\n        User[] memory usersFromOrg = new User[](cont);\r\n\r\n        for (uint i = 0; i < cont; i++) {\r\n            usersFromOrg[i] = userList[idList[i]];\r\n        }\r\n        return usersFromOrg;\r\n    }\r\n\r\n\r\n\r\n    function getUserData(uint userId) public view returns(User memory){\r\n        return userList[userId];\r\n    }\r\n\r\n    //RELATION BETWEEN ASSET AND USER\r\n\r\n    mapping(uint => uint[]) public userIdToAssetList;\r\n    mapping(uint => uint[]) public assetToListOfUsers;\r\n\r\n\r\n    //TODO INSERT VARIOUS USERS AT THE SAME TIME\r\n    function insertUsersToAsset(uint assetId, uint[] memory userIds) public {\r\n        uint cont = userIds.length;\r\n        for (uint i = 0; i < cont; i++) {\r\n            userIdToAssetList[userIds[i]].push(assetId);\r\n            assetToListOfUsers[assetId].push(userIds[i]);\r\n        }\r\n\r\n        \r\n    }\r\n\r\n    function getUserAssets(uint userId) public view returns(uint[] memory assetIds){\r\n        return userIdToAssetList[userId];\r\n    }\r\n\r\n    function getAssetUsers(uint assetId) public view returns(User[] memory){\r\n        uint[] memory list = assetToListOfUsers[assetId];\r\n        uint cont = list.length;\r\n        User[] memory usersOfAsset = new User[](cont);\r\n        for (uint i = 0; i < cont; i++) {\r\n            usersOfAsset[i] = userList[list[i]];\r\n        }\r\n        return usersOfAsset;\r\n    }\r\n\r\n\r\n}",
  "sourcePath": "D:\\GIT\\inventory-blockchain\\blockchain\\contracts\\Users.sol",
  "compiler": {
    "name": "solc",
    "version": "0.8.12+commit.f00d7308.Emscripten.clang"
  },
  "schemaVersion": "3.4.6",
  "updatedAt": "2022-05-02T10:33:06.329Z",
  "networkType": "ethereum",
  "devdoc": {
    "kind": "dev",
    "methods": {},
    "version": 1
  },
  "userdoc": {
    "kind": "user",
    "methods": {},
    "version": 1
  }
}