{
  "contractName": "Users",
  "abi": [
    {
      "inputs": [
        {
          "internalType": "address",
          "name": "_mainAddr",
          "type": "address"
        }
      ],
      "stateMutability": "nonpayable",
      "type": "constructor"
    },
    {
      "anonymous": false,
      "inputs": [
        {
          "indexed": false,
          "internalType": "address",
          "name": "addr",
          "type": "address"
        },
        {
          "indexed": false,
          "internalType": "string",
          "name": "name",
          "type": "string"
        },
        {
          "indexed": false,
          "internalType": "string",
          "name": "surname",
          "type": "string"
        },
        {
          "indexed": false,
          "internalType": "uint256",
          "name": "orgId",
          "type": "uint256"
        }
      ],
      "name": "Register",
      "type": "event"
    },
    {
      "inputs": [
        {
          "internalType": "uint256",
          "name": "",
          "type": "uint256"
        },
        {
          "internalType": "uint256",
          "name": "",
          "type": "uint256"
        }
      ],
      "name": "assetToListOfUsers",
      "outputs": [
        {
          "internalType": "uint256",
          "name": "",
          "type": "uint256"
        }
      ],
      "stateMutability": "view",
      "type": "function",
      "constant": true
    },
    {
      "inputs": [],
      "name": "mainAddr",
      "outputs": [
        {
          "internalType": "address",
          "name": "",
          "type": "address"
        }
      ],
      "stateMutability": "view",
      "type": "function",
      "constant": true
    },
    {
      "inputs": [
        {
          "internalType": "uint256",
          "name": "",
          "type": "uint256"
        },
        {
          "internalType": "uint256",
          "name": "",
          "type": "uint256"
        }
      ],
      "name": "userIdToAssetList",
      "outputs": [
        {
          "internalType": "uint256",
          "name": "",
          "type": "uint256"
        }
      ],
      "stateMutability": "view",
      "type": "function",
      "constant": true
    },
    {
      "inputs": [
        {
          "internalType": "address",
          "name": "userAddress",
          "type": "address"
        }
      ],
      "name": "isUser",
      "outputs": [
        {
          "internalType": "bool",
          "name": "isIndeed",
          "type": "bool"
        }
      ],
      "stateMutability": "view",
      "type": "function",
      "constant": true
    },
    {
      "inputs": [
        {
          "internalType": "address",
          "name": "addr",
          "type": "address"
        }
      ],
      "name": "getUserFromAddr",
      "outputs": [
        {
          "components": [
            {
              "internalType": "address",
              "name": "addr",
              "type": "address"
            },
            {
              "internalType": "string",
              "name": "name",
              "type": "string"
            },
            {
              "internalType": "string",
              "name": "surname",
              "type": "string"
            },
            {
              "internalType": "string",
              "name": "email",
              "type": "string"
            },
            {
              "internalType": "uint32",
              "name": "telephone",
              "type": "uint32"
            },
            {
              "internalType": "uint256",
              "name": "orgId",
              "type": "uint256"
            },
            {
              "internalType": "uint256",
              "name": "index",
              "type": "uint256"
            }
          ],
          "internalType": "struct Users.User",
          "name": "",
          "type": "tuple"
        }
      ],
      "stateMutability": "view",
      "type": "function",
      "constant": true
    },
    {
      "inputs": [
        {
          "internalType": "address",
          "name": "addr",
          "type": "address"
        },
        {
          "internalType": "string",
          "name": "name",
          "type": "string"
        },
        {
          "internalType": "string",
          "name": "surname",
          "type": "string"
        },
        {
          "internalType": "string",
          "name": "email",
          "type": "string"
        },
        {
          "internalType": "uint32",
          "name": "telephone",
          "type": "uint32"
        },
        {
          "internalType": "uint256",
          "name": "orgId",
          "type": "uint256"
        }
      ],
      "name": "insertUser",
      "outputs": [],
      "stateMutability": "nonpayable",
      "type": "function"
    },
    {
      "inputs": [
        {
          "internalType": "uint256",
          "name": "orgId",
          "type": "uint256"
        }
      ],
      "name": "getAllUsersFromOrg",
      "outputs": [
        {
          "components": [
            {
              "internalType": "address",
              "name": "addr",
              "type": "address"
            },
            {
              "internalType": "string",
              "name": "name",
              "type": "string"
            },
            {
              "internalType": "string",
              "name": "surname",
              "type": "string"
            },
            {
              "internalType": "string",
              "name": "email",
              "type": "string"
            },
            {
              "internalType": "uint32",
              "name": "telephone",
              "type": "uint32"
            },
            {
              "internalType": "uint256",
              "name": "orgId",
              "type": "uint256"
            },
            {
              "internalType": "uint256",
              "name": "index",
              "type": "uint256"
            }
          ],
          "internalType": "struct Users.User[]",
          "name": "",
          "type": "tuple[]"
        }
      ],
      "stateMutability": "view",
      "type": "function",
      "constant": true
    },
    {
      "inputs": [
        {
          "internalType": "uint256",
          "name": "orgId",
          "type": "uint256"
        }
      ],
      "name": "getNumUsersFromOrg",
      "outputs": [
        {
          "internalType": "uint256",
          "name": "",
          "type": "uint256"
        }
      ],
      "stateMutability": "view",
      "type": "function",
      "constant": true
    },
    {
      "inputs": [
        {
          "internalType": "uint256",
          "name": "userId",
          "type": "uint256"
        }
      ],
      "name": "getUserData",
      "outputs": [
        {
          "components": [
            {
              "internalType": "address",
              "name": "addr",
              "type": "address"
            },
            {
              "internalType": "string",
              "name": "name",
              "type": "string"
            },
            {
              "internalType": "string",
              "name": "surname",
              "type": "string"
            },
            {
              "internalType": "string",
              "name": "email",
              "type": "string"
            },
            {
              "internalType": "uint32",
              "name": "telephone",
              "type": "uint32"
            },
            {
              "internalType": "uint256",
              "name": "orgId",
              "type": "uint256"
            },
            {
              "internalType": "uint256",
              "name": "index",
              "type": "uint256"
            }
          ],
          "internalType": "struct Users.User",
          "name": "",
          "type": "tuple"
        }
      ],
      "stateMutability": "view",
      "type": "function",
      "constant": true
    },
    {
      "inputs": [
        {
          "internalType": "uint256",
          "name": "assetId",
          "type": "uint256"
        },
        {
          "internalType": "uint256[]",
          "name": "userIds",
          "type": "uint256[]"
        }
      ],
      "name": "insertUsersToAsset",
      "outputs": [],
      "stateMutability": "nonpayable",
      "type": "function"
    },
    {
      "inputs": [
        {
          "internalType": "uint256",
          "name": "userId",
          "type": "uint256"
        }
      ],
      "name": "getUserAssets",
      "outputs": [
        {
          "internalType": "uint256[]",
          "name": "assetIds",
          "type": "uint256[]"
        }
      ],
      "stateMutability": "view",
      "type": "function",
      "constant": true
    },
    {
      "inputs": [
        {
          "internalType": "uint256",
          "name": "assetId",
          "type": "uint256"
        }
      ],
      "name": "getAssetUsers",
      "outputs": [
        {
          "components": [
            {
              "internalType": "address",
              "name": "addr",
              "type": "address"
            },
            {
              "internalType": "string",
              "name": "name",
              "type": "string"
            },
            {
              "internalType": "string",
              "name": "surname",
              "type": "string"
            },
            {
              "internalType": "string",
              "name": "email",
              "type": "string"
            },
            {
              "internalType": "uint32",
              "name": "telephone",
              "type": "uint32"
            },
            {
              "internalType": "uint256",
              "name": "orgId",
              "type": "uint256"
            },
            {
              "internalType": "uint256",
              "name": "index",
              "type": "uint256"
            }
          ],
          "internalType": "struct Users.User[]",
          "name": "",
          "type": "tuple[]"
        }
      ],
      "stateMutability": "view",
      "type": "function",
      "constant": true
    },
    {
      "inputs": [
        {
          "internalType": "address",
          "name": "addr",
          "type": "address"
        },
        {
          "internalType": "uint256",
          "name": "orgId",
          "type": "uint256"
        }
      ],
      "name": "isUserFromOrg",
      "outputs": [
        {
          "internalType": "bool",
          "name": "",
          "type": "bool"
        }
      ],
      "stateMutability": "view",
      "type": "function",
      "constant": true
    },
    {
      "inputs": [
        {
          "internalType": "address",
          "name": "addr",
          "type": "address"
        },
        {
          "internalType": "uint256",
          "name": "departId",
          "type": "uint256"
        }
      ],
      "name": "isUserFromDepart",
      "outputs": [
        {
          "internalType": "bool",
          "name": "",
          "type": "bool"
        }
      ],
      "stateMutability": "view",
      "type": "function",
      "constant": true
    },
    {
      "inputs": [
        {
          "internalType": "address",
          "name": "addr",
          "type": "address"
        },
        {
          "internalType": "uint256",
          "name": "orgId",
          "type": "uint256"
        }
      ],
      "name": "isAdminFromOrg",
      "outputs": [
        {
          "internalType": "bool",
          "name": "",
          "type": "bool"
        }
      ],
      "stateMutability": "view",
      "type": "function",
      "constant": true
    },
    {
      "inputs": [
        {
          "internalType": "string",
          "name": "name",
          "type": "string"
        },
        {
          "internalType": "string",
          "name": "description",
          "type": "string"
        },
        {
          "internalType": "uint32",
          "name": "telephone",
          "type": "uint32"
        },
        {
          "internalType": "uint256",
          "name": "orgId",
          "type": "uint256"
        },
        {
          "internalType": "address",
          "name": "addr",
          "type": "address"
        }
      ],
      "name": "insertDepartment",
      "outputs": [],
      "stateMutability": "nonpayable",
      "type": "function"
    },
    {
      "inputs": [
        {
          "internalType": "uint256",
          "name": "departId",
          "type": "uint256"
        }
      ],
      "name": "getDepartment",
      "outputs": [
        {
          "components": [
            {
              "internalType": "string",
              "name": "name",
              "type": "string"
            },
            {
              "internalType": "string",
              "name": "description",
              "type": "string"
            },
            {
              "internalType": "uint32",
              "name": "telephone",
              "type": "uint32"
            },
            {
              "internalType": "uint256",
              "name": "orgId",
              "type": "uint256"
            },
            {
              "internalType": "uint256",
              "name": "index",
              "type": "uint256"
            }
          ],
          "internalType": "struct Users.Department",
          "name": "",
          "type": "tuple"
        }
      ],
      "stateMutability": "view",
      "type": "function",
      "constant": true
    },
    {
      "inputs": [
        {
          "internalType": "uint256",
          "name": "orgId",
          "type": "uint256"
        }
      ],
      "name": "getAllDepartmentsFromOrg",
      "outputs": [
        {
          "components": [
            {
              "internalType": "string",
              "name": "name",
              "type": "string"
            },
            {
              "internalType": "string",
              "name": "description",
              "type": "string"
            },
            {
              "internalType": "uint32",
              "name": "telephone",
              "type": "uint32"
            },
            {
              "internalType": "uint256",
              "name": "orgId",
              "type": "uint256"
            },
            {
              "internalType": "uint256",
              "name": "index",
              "type": "uint256"
            }
          ],
          "internalType": "struct Users.Department[]",
          "name": "",
          "type": "tuple[]"
        }
      ],
      "stateMutability": "view",
      "type": "function",
      "constant": true
    },
    {
      "inputs": [
        {
          "internalType": "uint256",
          "name": "departId",
          "type": "uint256"
        },
        {
          "internalType": "uint256[]",
          "name": "userIds",
          "type": "uint256[]"
        }
      ],
      "name": "insertUserToDepartment",
      "outputs": [],
      "stateMutability": "nonpayable",
      "type": "function"
    },
    {
      "inputs": [
        {
          "internalType": "uint256",
          "name": "departId",
          "type": "uint256"
        },
        {
          "internalType": "uint256[]",
          "name": "userIds",
          "type": "uint256[]"
        }
      ],
      "name": "deleteUsersFromDepartment",
      "outputs": [],
      "stateMutability": "nonpayable",
      "type": "function"
    },
    {
      "inputs": [
        {
          "internalType": "uint256",
          "name": "departId",
          "type": "uint256"
        }
      ],
      "name": "getUsersIdsFromDepart",
      "outputs": [
        {
          "internalType": "uint256[]",
          "name": "",
          "type": "uint256[]"
        }
      ],
      "stateMutability": "view",
      "type": "function",
      "constant": true
    },
    {
      "inputs": [
        {
          "internalType": "uint256",
          "name": "departId",
          "type": "uint256"
        }
      ],
      "name": "getUsersFromDepart",
      "outputs": [
        {
          "components": [
            {
              "internalType": "address",
              "name": "addr",
              "type": "address"
            },
            {
              "internalType": "string",
              "name": "name",
              "type": "string"
            },
            {
              "internalType": "string",
              "name": "surname",
              "type": "string"
            },
            {
              "internalType": "string",
              "name": "email",
              "type": "string"
            },
            {
              "internalType": "uint32",
              "name": "telephone",
              "type": "uint32"
            },
            {
              "internalType": "uint256",
              "name": "orgId",
              "type": "uint256"
            },
            {
              "internalType": "uint256",
              "name": "index",
              "type": "uint256"
            }
          ],
          "internalType": "struct Users.User[]",
          "name": "",
          "type": "tuple[]"
        }
      ],
      "stateMutability": "view",
      "type": "function",
      "constant": true
    },
    {
      "inputs": [
        {
          "internalType": "uint256",
          "name": "departId",
          "type": "uint256"
        },
        {
          "internalType": "uint256[]",
          "name": "assetsIds",
          "type": "uint256[]"
        }
      ],
      "name": "insertAssetToDepartment",
      "outputs": [],
      "stateMutability": "nonpayable",
      "type": "function"
    },
    {
      "inputs": [
        {
          "internalType": "uint256",
          "name": "departId",
          "type": "uint256"
        },
        {
          "internalType": "uint256[]",
          "name": "assetsIds",
          "type": "uint256[]"
        }
      ],
      "name": "deleteAssetFromDepartment",
      "outputs": [],
      "stateMutability": "nonpayable",
      "type": "function"
    },
    {
      "inputs": [
        {
          "internalType": "uint256",
          "name": "departId",
          "type": "uint256"
        }
      ],
      "name": "getAssetsIdsFromDepart",
      "outputs": [
        {
          "internalType": "uint256[]",
          "name": "",
          "type": "uint256[]"
        }
      ],
      "stateMutability": "view",
      "type": "function",
      "constant": true
    },
    {
      "inputs": [
        {
          "internalType": "uint256",
          "name": "assetDepart",
          "type": "uint256"
        },
        {
          "internalType": "uint256",
          "name": "id",
          "type": "uint256"
        }
      ],
      "name": "insertNewAssetWithDepartment",
      "outputs": [],
      "stateMutability": "nonpayable",
      "type": "function"
    },
    {
      "inputs": [
        {
          "internalType": "string",
          "name": "description",
          "type": "string"
        },
        {
          "internalType": "uint256",
          "name": "date",
          "type": "uint256"
        },
        {
          "internalType": "uint256",
          "name": "assetId",
          "type": "uint256"
        },
        {
          "internalType": "uint256",
          "name": "orgId",
          "type": "uint256"
        },
        {
          "internalType": "address",
          "name": "addr",
          "type": "address"
        }
      ],
      "name": "insertComment",
      "outputs": [],
      "stateMutability": "nonpayable",
      "type": "function"
    },
    {
      "inputs": [
        {
          "internalType": "uint256",
          "name": "assetId",
          "type": "uint256"
        }
      ],
      "name": "getCommentsByAsset",
      "outputs": [
        {
          "components": [
            {
              "internalType": "string",
              "name": "description",
              "type": "string"
            },
            {
              "internalType": "uint256",
              "name": "userId",
              "type": "uint256"
            },
            {
              "internalType": "uint256",
              "name": "date",
              "type": "uint256"
            }
          ],
          "internalType": "struct Users.Comment[]",
          "name": "",
          "type": "tuple[]"
        }
      ],
      "stateMutability": "view",
      "type": "function",
      "constant": true
    },
    {
      "inputs": [
        {
          "internalType": "uint256",
          "name": "assetId",
          "type": "uint256"
        }
      ],
      "name": "getNumberOfCommentsByAsset",
      "outputs": [
        {
          "internalType": "uint256",
          "name": "",
          "type": "uint256"
        }
      ],
      "stateMutability": "view",
      "type": "function",
      "constant": true
    },
    {
      "inputs": [
        {
          "internalType": "uint256[]",
          "name": "usersId",
          "type": "uint256[]"
        }
      ],
      "name": "getUsersById",
      "outputs": [
        {
          "components": [
            {
              "internalType": "address",
              "name": "addr",
              "type": "address"
            },
            {
              "internalType": "string",
              "name": "name",
              "type": "string"
            },
            {
              "internalType": "string",
              "name": "surname",
              "type": "string"
            },
            {
              "internalType": "string",
              "name": "email",
              "type": "string"
            },
            {
              "internalType": "uint32",
              "name": "telephone",
              "type": "uint32"
            },
            {
              "internalType": "uint256",
              "name": "orgId",
              "type": "uint256"
            },
            {
              "internalType": "uint256",
              "name": "index",
              "type": "uint256"
            }
          ],
          "internalType": "struct Users.User[]",
          "name": "",
          "type": "tuple[]"
        }
      ],
      "stateMutability": "view",
      "type": "function",
      "constant": true
    }
  ],
  "bytecode": "0x60806040523480156200001157600080fd5b5060405162005034380380620050348339818101604052810190620000379190620002d8565b806000806101000a81548173ffffffffffffffffffffffffffffffffffffffff021916908373ffffffffffffffffffffffffffffffffffffffff16021790555060076040518060a001604052806040518060400160405280600181526020017f300000000000000000000000000000000000000000000000000000000000000081525081526020016040518060400160405280600181526020017f30000000000000000000000000000000000000000000000000000000000000008152508152602001600063ffffffff168152602001600081526020016000815250908060018154018082558091505060019003906000526020600020906005020160009091909190915060008201518160000190805190602001906200015a929190620001be565b50602082015181600101908051906020019062000179929190620001be565b5060408201518160020160006101000a81548163ffffffff021916908363ffffffff16021790555060608201518160030155608082015181600401555050506200036f565b828054620001cc9062000339565b90600052602060002090601f016020900481019282620001f057600085556200023c565b82601f106200020b57805160ff19168380011785556200023c565b828001600101855582156200023c579182015b828111156200023b5782518255916020019190600101906200021e565b5b5090506200024b91906200024f565b5090565b5b808211156200026a57600081600090555060010162000250565b5090565b600080fd5b600073ffffffffffffffffffffffffffffffffffffffff82169050919050565b6000620002a08262000273565b9050919050565b620002b28162000293565b8114620002be57600080fd5b50565b600081519050620002d281620002a7565b92915050565b600060208284031215620002f157620002f06200026e565b5b60006200030184828501620002c1565b91505092915050565b7f4e487b7100000000000000000000000000000000000000000000000000000000600052602260045260246000fd5b600060028204905060018216806200035257607f821691505b602082108114156200036957620003686200030a565b5b50919050565b614cb5806200037f6000396000f3fe608060405234801561001057600080fd5b50600436106101da5760003560e01c806373adf71f11610104578063c50d0bc7116100a2578063db035b8711610071578063db035b87146105f9578063dd2b6d3a14610629578063e8bb900b14610659578063fbc8ba8414610689576101da565b8063c50d0bc714610539578063d05a887014610569578063d61490ef14610599578063d75c62fd146105c9576101da565b8063b4fff420116100de578063b4fff420146104a1578063b5ce789d146104d1578063c1987642146104ed578063c416f20514610509576101da565b806373adf71f146104255780637673d482146104415780637ff1f34714610471576101da565b80632c60e4a01161017c5780634209fff11161014b5780634209fff1146103795780635ba506ef146103a95780636dccbcc5146103d95780636ecb141c146103f5576101da565b80632c60e4a0146102e15780632ee45f4e146102fd57806336bc69731461032d578063405a7abc14610349576101da565b80631e9a7980116101b85780631e9a79801461025d5780631fef580c1461027957806325c5a656146102a957806329bbe269146102c5576101da565b806302d596d8146101df57806304f468a71461020f5780631658747c1461022d575b600080fd5b6101f960048036038101906101f4919061380a565b6106b9565b60405161020691906139c1565b60405180910390f35b610217610980565b60405161022491906139f2565b60405180910390f35b61024760048036038101906102429190613a39565b6109a4565b6040516102549190613ae3565b60405180910390f35b61027760048036038101906102729190613c66565b610b3e565b005b610293600480360381019061028e9190613a39565b610c7d565b6040516102a091906139c1565b60405180910390f35b6102c360048036038101906102be9190613d19565b610eff565b005b6102df60048036038101906102da9190613e78565b61109c565b005b6102fb60048036038101906102f69190613ed4565b6112b2565b005b61031760048036038101906103129190613a39565b6116af565b6040516103249190614121565b60405180910390f35b61034760048036038101906103429190614143565b611a4a565b005b610363600480360381019061035e9190613a39565b611ac5565b6040516103709190614192565b60405180910390f35b610393600480360381019061038e919061380a565b611aea565b6040516103a091906141c8565b60405180910390f35b6103c360048036038101906103be9190613a39565b611bb6565b6040516103d09190614292565b60405180910390f35b6103f360048036038101906103ee9190613e78565b611c21565b005b61040f600480360381019061040a9190613a39565b611e62565b60405161041c9190614292565b60405180910390f35b61043f600480360381019061043a9190613e78565b611ecd565b005b61045b60048036038101906104569190613a39565b611f9f565b6040516104689190614192565b60405180910390f35b61048b600480360381019061048691906142b4565b612010565b60405161049891906141c8565b60405180910390f35b6104bb60048036038101906104b69190613a39565b6120ba565b6040516104c89190614292565b60405180910390f35b6104eb60048036038101906104e69190613e78565b612125565b005b61050760048036038101906105029190613e78565b61228d565b005b610523600480360381019061051e9190613a39565b61257d565b6040516105309190614433565b60405180910390f35b610553600480360381019061054e9190613a39565b612830565b6040516105609190614567565b60405180910390f35b610583600480360381019061057e91906142b4565b612a26565b60405161059091906141c8565b60405180910390f35b6105b360048036038101906105ae9190613a39565b612ad1565b6040516105c09190614121565b60405180910390f35b6105e360048036038101906105de9190614589565b612e6c565b6040516105f09190614121565b60405180910390f35b610613600480360381019061060e91906142b4565b61319b565b60405161062091906141c8565b60405180910390f35b610643600480360381019061063e9190614143565b613249565b6040516106509190614192565b60405180910390f35b610673600480360381019061066e9190614143565b61327a565b6040516106809190614192565b60405180910390f35b6106a3600480360381019061069e9190613a39565b6132ab565b6040516106b09190614121565b60405180910390f35b6106c1613646565b6000600460008473ffffffffffffffffffffffffffffffffffffffff1673ffffffffffffffffffffffffffffffffffffffff16815260200190815260200160002054905060018181548110610719576107186145d2565b5b90600052602060002090600702016040518060e00160405290816000820160009054906101000a900473ffffffffffffffffffffffffffffffffffffffff1673ffffffffffffffffffffffffffffffffffffffff1673ffffffffffffffffffffffffffffffffffffffff16815260200160018201805461079890614630565b80601f01602080910402602001604051908101604052809291908181526020018280546107c490614630565b80156108115780601f106107e657610100808354040283529160200191610811565b820191906000526020600020905b8154815290600101906020018083116107f457829003601f168201915b5050505050815260200160028201805461082a90614630565b80601f016020809104026020016040519081016040528092919081815260200182805461085690614630565b80156108a35780601f10610878576101008083540402835291602001916108a3565b820191906000526020600020905b81548152906001019060200180831161088657829003601f168201915b505050505081526020016003820180546108bc90614630565b80601f01602080910402602001604051908101604052809291908181526020018280546108e890614630565b80156109355780601f1061090a57610100808354040283529160200191610935565b820191906000526020600020905b81548152906001019060200180831161091857829003601f168201915b505050505081526020016004820160009054906101000a900463ffffffff1663ffffffff1663ffffffff16815260200160058201548152602001600682015481525050915050919050565b60008054906101000a900473ffffffffffffffffffffffffffffffffffffffff1681565b6109ac61369f565b600782815481106109c0576109bf6145d2565b5b90600052602060002090600502016040518060a00160405290816000820180546109e990614630565b80601f0160208091040260200160405190810160405280929190818152602001828054610a1590614630565b8015610a625780601f10610a3757610100808354040283529160200191610a62565b820191906000526020600020905b815481529060010190602001808311610a4557829003601f168201915b50505050508152602001600182018054610a7b90614630565b80601f0160208091040260200160405190810160405280929190818152602001828054610aa790614630565b8015610af45780601f10610ac957610100808354040283529160200191610af4565b820191906000526020600020905b815481529060010190602001808311610ad757829003601f168201915b505050505081526020016002820160009054906101000a900463ffffffff1663ffffffff1663ffffffff168152602001600382015481526020016004820154815250509050919050565b610b488183612a26565b80610b595750610b588183612010565b5b610b6257600080fd5b6000600780549050905060076040518060a001604052808881526020018781526020018663ffffffff1681526020018581526020018381525090806001815401808255809150506001900390600052602060002090600502016000909190919091506000820151816000019080519060200190610be09291906136d4565b506020820151816001019080519060200190610bfd9291906136d4565b5060408201518160020160006101000a81548163ffffffff021916908363ffffffff1602179055506060820151816003015560808201518160040155505060086000848152602001908152602001600020819080600181540180825580915050600190039060005260206000200160009091909190915055505050505050565b610c85613646565b60018281548110610c9957610c986145d2565b5b90600052602060002090600702016040518060e00160405290816000820160009054906101000a900473ffffffffffffffffffffffffffffffffffffffff1673ffffffffffffffffffffffffffffffffffffffff1673ffffffffffffffffffffffffffffffffffffffff168152602001600182018054610d1890614630565b80601f0160208091040260200160405190810160405280929190818152602001828054610d4490614630565b8015610d915780601f10610d6657610100808354040283529160200191610d91565b820191906000526020600020905b815481529060010190602001808311610d7457829003601f168201915b50505050508152602001600282018054610daa90614630565b80601f0160208091040260200160405190810160405280929190818152602001828054610dd690614630565b8015610e235780601f10610df857610100808354040283529160200191610e23565b820191906000526020600020905b815481529060010190602001808311610e0657829003601f168201915b50505050508152602001600382018054610e3c90614630565b80601f0160208091040260200160405190810160405280929190818152602001828054610e6890614630565b8015610eb55780601f10610e8a57610100808354040283529160200191610eb5565b820191906000526020600020905b815481529060010190602001808311610e9857829003601f168201915b505050505081526020016004820160009054906101000a900463ffffffff1663ffffffff1663ffffffff168152602001600582015481526020016006820154815250509050919050565b610f098183612a26565b15610f49576040517f08c379a0000000000000000000000000000000000000000000000000000000008152600401610f40906146bf565b60405180910390fd5b610f538183612010565b610f92576040517f08c379a0000000000000000000000000000000000000000000000000000000008152600401610f899061472b565b60405180910390fd5b6000600460008373ffffffffffffffffffffffffffffffffffffffff1673ffffffffffffffffffffffffffffffffffffffff1681526020019081526020016000205490506000600d805490509050600d604051806060016040528089815260200184815260200188815250908060018154018082558091505060019003906000526020600020906003020160009091909190915060008201518160000190805190602001906110429291906136d4565b5060208201518160010155604082015181600201555050600e600086815260200190815260200160002081908060018154018082558091505060019003906000526020600020016000909190919091505550505050505050565b60008151905060005b818110156112ac5760011515600b600086815260200190815260200160002060008584815181106110d9576110d86145d2565b5b6020026020010151815260200190815260200160002060009054906101000a900460ff1615151415611140576040517f08c379a000000000000000000000000000000000000000000000000000000000815260040161113790614797565b60405180910390fd5b600c6000858152602001908152602001600020838281518110611166576111656145d2565b5b602002602001015190806001815401808255809150506001900390600052602060002001600090919091909150556001600b600086815260200190815260200160002060008584815181106111be576111bd6145d2565b5b6020026020010151815260200190815260200160002060006101000a81548160ff02191690831515021790555060008060009054906101000a900473ffffffffffffffffffffffffffffffffffffffff1690508073ffffffffffffffffffffffffffffffffffffffff16635583071b8584815181106112405761123f6145d2565b5b6020026020010151876040518363ffffffff1660e01b81526004016112669291906147b7565b600060405180830381600087803b15801561128057600080fd5b505af1158015611294573d6000803e3d6000fd5b505050505080806112a49061480f565b9150506110a5565b50505050565b60008060009054906101000a900473ffffffffffffffffffffffffffffffffffffffff1690506112e28783612a26565b15611322576040517f08c379a0000000000000000000000000000000000000000000000000000000008152600401611319906148a4565b60405180910390fd5b61132b87611aea565b1561136b576040517f08c379a000000000000000000000000000000000000000000000000000000000815260040161136290614910565b60405180910390fd5b6001826113789190614930565b8173ffffffffffffffffffffffffffffffffffffffff1663d81066906040518163ffffffff1660e01b8152600401602060405180830381865afa1580156113c3573d6000803e3d6000fd5b505050506040513d601f19601f820116820180604052508101906113e7919061499b565b1015611428576040517f08c379a000000000000000000000000000000000000000000000000000000000815260040161141f90614a14565b60405180910390fd5b6000600180549050905060016040518060e001604052808a73ffffffffffffffffffffffffffffffffffffffff1681526020018981526020018881526020018781526020018663ffffffff16815260200185815260200183815250908060018154018082558091505060019003906000526020600020906007020160009091909190915060008201518160000160006101000a81548173ffffffffffffffffffffffffffffffffffffffff021916908373ffffffffffffffffffffffffffffffffffffffff160217905550602082015181600101908051906020019061150f9291906136d4565b50604082015181600201908051906020019061152c9291906136d4565b5060608201518160030190805190602001906115499291906136d4565b5060808201518160040160006101000a81548163ffffffff021916908363ffffffff16021790555060a0820151816005015560c0820151816006015550506003600084815260200190815260200160002081908060018154018082558091505060019003906000526020600020016000909190919091505580600460008a73ffffffffffffffffffffffffffffffffffffffff1673ffffffffffffffffffffffffffffffffffffffff168152602001908152602001600020819055506002889080600181540180825580915050600190039060005260206000200160009091909190916101000a81548173ffffffffffffffffffffffffffffffffffffffff021916908373ffffffffffffffffffffffffffffffffffffffff1602179055507f85c8fcee8505f10dc8a4f9b889000c6a759cffeafd2e3b519a19c836af2e02bd8888888660405161169d9493929190614a6d565b60405180910390a15050505050505050565b606060006006600084815260200190815260200160002080548060200260200160405190810160405280929190818152602001828054801561171057602002820191906000526020600020905b8154815260200190600101908083116116fc575b5050505050905060008151905060008167ffffffffffffffff81111561173957611738613b0f565b5b60405190808252806020026020018201604052801561177257816020015b61175f613646565b8152602001906001900390816117575790505b50905060005b82811015611a3e576001848281518110611795576117946145d2565b5b6020026020010151815481106117ae576117ad6145d2565b5b90600052602060002090600702016040518060e00160405290816000820160009054906101000a900473ffffffffffffffffffffffffffffffffffffffff1673ffffffffffffffffffffffffffffffffffffffff1673ffffffffffffffffffffffffffffffffffffffff16815260200160018201805461182d90614630565b80601f016020809104026020016040519081016040528092919081815260200182805461185990614630565b80156118a65780601f1061187b576101008083540402835291602001916118a6565b820191906000526020600020905b81548152906001019060200180831161188957829003601f168201915b505050505081526020016002820180546118bf90614630565b80601f01602080910402602001604051908101604052809291908181526020018280546118eb90614630565b80156119385780601f1061190d57610100808354040283529160200191611938565b820191906000526020600020905b81548152906001019060200180831161191b57829003601f168201915b5050505050815260200160038201805461195190614630565b80601f016020809104026020016040519081016040528092919081815260200182805461197d90614630565b80156119ca5780601f1061199f576101008083540402835291602001916119ca565b820191906000526020600020905b8154815290600101906020018083116119ad57829003601f168201915b505050505081526020016004820160009054906101000a900463ffffffff1663ffffffff1663ffffffff16815260200160058201548152602001600682015481525050828281518110611a2057611a1f6145d2565b5b60200260200101819052508080611a369061480f565b915050611778565b50809350505050919050565b600c60008381526020019081526020016000208190806001815401808255809150506001900390600052602060002001600090919091909150556001600b6000848152602001908152602001600020600083815260200190815260200160002060006101000a81548160ff0219169083151502179055505050565b6000806003600084815260200190815260200160002080549050905080915050919050565b6000806002805490501415611b025760009050611bb1565b8173ffffffffffffffffffffffffffffffffffffffff166002600460008573ffffffffffffffffffffffffffffffffffffffff1673ffffffffffffffffffffffffffffffffffffffff1681526020019081526020016000205481548110611b6c57611b6b6145d2565b5b9060005260206000200160009054906101000a900473ffffffffffffffffffffffffffffffffffffffff1673ffffffffffffffffffffffffffffffffffffffff161490505b919050565b606060056000838152602001908152602001600020805480602002602001604051908101604052809291908181526020018280548015611c1557602002820191906000526020600020905b815481526020019060010190808311611c01575b50505050509050919050565b60008151905060005b81811015611e5c5760011515600960008681526020019081526020016000206000858481518110611c5e57611c5d6145d2565b5b6020026020010151815260200190815260200160002060009054906101000a900460ff1615151415611e49576000600960008681526020019081526020016000206000858481518110611cb457611cb36145d2565b5b6020026020010151815260200190815260200160002060006101000a81548160ff0219169083151502179055506000600a600086815260200190815260200160002080549050905060005b81811015611e4657848381518110611d1a57611d196145d2565b5b6020026020010151600a60008881526020019081526020016000208281548110611d4757611d466145d2565b5b90600052602060002001541415611e335760008190505b600183611d6b9190614ac0565b811015611df457600a6000888152602001908152602001600020600182611d929190614930565b81548110611da357611da26145d2565b5b9060005260206000200154600a60008981526020019081526020016000208281548110611dd357611dd26145d2565b5b90600052602060002001819055508080611dec9061480f565b915050611d5e565b50600a6000878152602001908152602001600020805480611e1857611e17614af4565b5b60019003818190600052602060002001600090559055611e46565b8080611e3e9061480f565b915050611cff565b50505b8080611e549061480f565b915050611c2a565b50505050565b6060600a6000838152602001908152602001600020805480602002602001604051908101604052809291908181526020018280548015611ec157602002820191906000526020600020905b815481526020019060010190808311611ead575b50505050509050919050565b60008151905060005b81811015611f995760056000848381518110611ef557611ef46145d2565b5b6020026020010151815260200190815260200160002084908060018154018082558091505060019003906000526020600020016000909190919091505560066000858152602001908152602001600020838281518110611f5857611f576145d2565b5b602002602001015190806001815401808255809150506001900390600052602060002001600090919091909150558080611f919061480f565b915050611ed6565b50505050565b600080600e6000848152602001908152602001600020805480602002602001604051908101604052809291908181526020018280548015611fff57602002820191906000526020600020905b815481526020019060010190808311611feb575b505050505090508051915050919050565b600080600280549050141561202857600090506120b4565b61203183611aea565b61203e57600090506120b4565b6000600460008573ffffffffffffffffffffffffffffffffffffffff1673ffffffffffffffffffffffffffffffffffffffff168152602001908152602001600020549050600060018281548110612098576120976145d2565b5b9060005260206000209060070201600501549050838114925050505b92915050565b6060600c600083815260200190815260200160002080548060200260200160405190810160405280929190818152602001828054801561211957602002820191906000526020600020905b815481526020019060010190808311612105575b50505050509050919050565b60008151905060005b818110156122875760011515600960008681526020019081526020016000206000858481518110612162576121616145d2565b5b6020026020010151815260200190815260200160002060009054906101000a900460ff16151514156121c9576040517f08c379a00000000000000000000000000000000000000000000000000000000081526004016121c090614b6f565b60405180910390fd5b600a60008581526020019081526020016000208382815181106121ef576121ee6145d2565b5b602002602001015190806001815401808255809150506001900390600052602060002001600090919091909150556001600960008681526020019081526020016000206000858481518110612247576122466145d2565b5b6020026020010151815260200190815260200160002060006101000a81548160ff021916908315150217905550808061227f9061480f565b91505061212e565b50505050565b60008151905060005b818110156125775760011515600b600086815260200190815260200160002060008584815181106122ca576122c96145d2565b5b6020026020010151815260200190815260200160002060009054906101000a900460ff1615151415612564576000600b600086815260200190815260200160002060008584815181106123205761231f6145d2565b5b6020026020010151815260200190815260200160002060006101000a81548160ff0219169083151502179055506000600c600086815260200190815260200160002080549050905060005b8181101561256157848381518110612386576123856145d2565b5b6020026020010151600c600088815260200190815260200160002082815481106123b3576123b26145d2565b5b9060005260206000200154141561254e5760008190505b6001836123d79190614ac0565b81101561246057600c60008881526020019081526020016000206001826123fe9190614930565b8154811061240f5761240e6145d2565b5b9060005260206000200154600c6000898152602001908152602001600020828154811061243f5761243e6145d2565b5b906000526020600020018190555080806124589061480f565b9150506123ca565b50600c600087815260200190815260200160002080548061248457612483614af4565b5b6001900381819060005260206000200160009055905560008060009054906101000a900473ffffffffffffffffffffffffffffffffffffffff1690508073ffffffffffffffffffffffffffffffffffffffff16635583071b8786815181106124ef576124ee6145d2565b5b602002602001015160006040518363ffffffff1660e01b8152600401612516929190614bd4565b600060405180830381600087803b15801561253057600080fd5b505af1158015612544573d6000803e3d6000fd5b5050505050612561565b80806125599061480f565b91505061236b565b50505b808061256f9061480f565b915050612296565b50505050565b60606000600860008481526020019081526020016000208054806020026020016040519081016040528092919081815260200182805480156125de57602002820191906000526020600020905b8154815260200190600101908083116125ca575b5050505050905060008151905060008167ffffffffffffffff81111561260757612606613b0f565b5b60405190808252806020026020018201604052801561264057816020015b61262d61369f565b8152602001906001900390816126255790505b50905060005b82811015612824576007848281518110612663576126626145d2565b5b60200260200101518154811061267c5761267b6145d2565b5b90600052602060002090600502016040518060a00160405290816000820180546126a590614630565b80601f01602080910402602001604051908101604052809291908181526020018280546126d190614630565b801561271e5780601f106126f35761010080835404028352916020019161271e565b820191906000526020600020905b81548152906001019060200180831161270157829003601f168201915b5050505050815260200160018201805461273790614630565b80601f016020809104026020016040519081016040528092919081815260200182805461276390614630565b80156127b05780601f10612785576101008083540402835291602001916127b0565b820191906000526020600020905b81548152906001019060200180831161279357829003601f168201915b505050505081526020016002820160009054906101000a900463ffffffff1663ffffffff1663ffffffff16815260200160038201548152602001600482015481525050828281518110612806576128056145d2565b5b6020026020010181905250808061281c9061480f565b915050612646565b50809350505050919050565b60606000600e600084815260200190815260200160002080548060200260200160405190810160405280929190818152602001828054801561289157602002820191906000526020600020905b81548152602001906001019080831161287d575b505050505090506000815167ffffffffffffffff8111156128b5576128b4613b0f565b5b6040519080825280602002602001820160405280156128ee57816020015b6128db61375a565b8152602001906001900390816128d35790505b50905060005b8251811015612a1b57600d838281518110612912576129116145d2565b5b60200260200101518154811061292b5761292a6145d2565b5b906000526020600020906003020160405180606001604052908160008201805461295490614630565b80601f016020809104026020016040519081016040528092919081815260200182805461298090614630565b80156129cd5780601f106129a2576101008083540402835291602001916129cd565b820191906000526020600020905b8154815290600101906020018083116129b057829003601f168201915b50505050508152602001600182015481526020016002820154815250508282815181106129fd576129fc6145d2565b5b60200260200101819052508080612a139061480f565b9150506128f4565b508092505050919050565b60008060008054906101000a900473ffffffffffffffffffffffffffffffffffffffff1690508073ffffffffffffffffffffffffffffffffffffffff1663d05a887085856040518363ffffffff1660e01b8152600401612a87929190614bfd565b602060405180830381865afa158015612aa4573d6000803e3d6000fd5b505050506040513d601f19601f82011682018060405250810190612ac89190614c52565b91505092915050565b60606000600a6000848152602001908152602001600020805480602002602001604051908101604052809291908181526020018280548015612b3257602002820191906000526020600020905b815481526020019060010190808311612b1e575b5050505050905060008151905060008167ffffffffffffffff811115612b5b57612b5a613b0f565b5b604051908082528060200260200182016040528015612b9457816020015b612b81613646565b815260200190600190039081612b795790505b50905060005b82811015612e60576001848281518110612bb757612bb66145d2565b5b602002602001015181548110612bd057612bcf6145d2565b5b90600052602060002090600702016040518060e00160405290816000820160009054906101000a900473ffffffffffffffffffffffffffffffffffffffff1673ffffffffffffffffffffffffffffffffffffffff1673ffffffffffffffffffffffffffffffffffffffff168152602001600182018054612c4f90614630565b80601f0160208091040260200160405190810160405280929190818152602001828054612c7b90614630565b8015612cc85780601f10612c9d57610100808354040283529160200191612cc8565b820191906000526020600020905b815481529060010190602001808311612cab57829003601f168201915b50505050508152602001600282018054612ce190614630565b80601f0160208091040260200160405190810160405280929190818152602001828054612d0d90614630565b8015612d5a5780601f10612d2f57610100808354040283529160200191612d5a565b820191906000526020600020905b815481529060010190602001808311612d3d57829003601f168201915b50505050508152602001600382018054612d7390614630565b80601f0160208091040260200160405190810160405280929190818152602001828054612d9f90614630565b8015612dec5780601f10612dc157610100808354040283529160200191612dec565b820191906000526020600020905b815481529060010190602001808311612dcf57829003601f168201915b505050505081526020016004820160009054906101000a900463ffffffff1663ffffffff1663ffffffff16815260200160058201548152602001600682015481525050828281518110612e4257612e416145d2565b5b60200260200101819052508080612e589061480f565b915050612b9a565b50809350505050919050565b60606000825167ffffffffffffffff811115612e8b57612e8a613b0f565b5b604051908082528060200260200182016040528015612ec457816020015b612eb1613646565b815260200190600190039081612ea95790505b50905060005b8351811015613191576001848281518110612ee857612ee76145d2565b5b602002602001015181548110612f0157612f006145d2565b5b90600052602060002090600702016040518060e00160405290816000820160009054906101000a900473ffffffffffffffffffffffffffffffffffffffff1673ffffffffffffffffffffffffffffffffffffffff1673ffffffffffffffffffffffffffffffffffffffff168152602001600182018054612f8090614630565b80601f0160208091040260200160405190810160405280929190818152602001828054612fac90614630565b8015612ff95780601f10612fce57610100808354040283529160200191612ff9565b820191906000526020600020905b815481529060010190602001808311612fdc57829003601f168201915b5050505050815260200160028201805461301290614630565b80601f016020809104026020016040519081016040528092919081815260200182805461303e90614630565b801561308b5780601f106130605761010080835404028352916020019161308b565b820191906000526020600020905b81548152906001019060200180831161306e57829003601f168201915b505050505081526020016003820180546130a490614630565b80601f01602080910402602001604051908101604052809291908181526020018280546130d090614630565b801561311d5780601f106130f25761010080835404028352916020019161311d565b820191906000526020600020905b81548152906001019060200180831161310057829003601f168201915b505050505081526020016004820160009054906101000a900463ffffffff1663ffffffff1663ffffffff16815260200160058201548152602001600682015481525050828281518110613173576131726145d2565b5b602002602001018190525080806131899061480f565b915050612eca565b5080915050919050565b60008060028054905014156131b35760009050613243565b6131bc83611aea565b6131c95760009050613243565b6000600460008573ffffffffffffffffffffffffffffffffffffffff1673ffffffffffffffffffffffffffffffffffffffff16815260200190815260200160002054905060096000848152602001908152602001600020600082815260200190815260200160002060009054906101000a900460ff169150505b92915050565b6005602052816000526040600020818154811061326557600080fd5b90600052602060002001600091509150505481565b6006602052816000526040600020818154811061329657600080fd5b90600052602060002001600091509150505481565b606060006003600084815260200190815260200160002080548060200260200160405190810160405280929190818152602001828054801561330c57602002820191906000526020600020905b8154815260200190600101908083116132f8575b5050505050905060008151905060008167ffffffffffffffff81111561333557613334613b0f565b5b60405190808252806020026020018201604052801561336e57816020015b61335b613646565b8152602001906001900390816133535790505b50905060005b8281101561363a576001848281518110613391576133906145d2565b5b6020026020010151815481106133aa576133a96145d2565b5b90600052602060002090600702016040518060e00160405290816000820160009054906101000a900473ffffffffffffffffffffffffffffffffffffffff1673ffffffffffffffffffffffffffffffffffffffff1673ffffffffffffffffffffffffffffffffffffffff16815260200160018201805461342990614630565b80601f016020809104026020016040519081016040528092919081815260200182805461345590614630565b80156134a25780601f10613477576101008083540402835291602001916134a2565b820191906000526020600020905b81548152906001019060200180831161348557829003601f168201915b505050505081526020016002820180546134bb90614630565b80601f01602080910402602001604051908101604052809291908181526020018280546134e790614630565b80156135345780601f1061350957610100808354040283529160200191613534565b820191906000526020600020905b81548152906001019060200180831161351757829003601f168201915b5050505050815260200160038201805461354d90614630565b80601f016020809104026020016040519081016040528092919081815260200182805461357990614630565b80156135c65780601f1061359b576101008083540402835291602001916135c6565b820191906000526020600020905b8154815290600101906020018083116135a957829003601f168201915b505050505081526020016004820160009054906101000a900463ffffffff1663ffffffff1663ffffffff1681526020016005820154815260200160068201548152505082828151811061361c5761361b6145d2565b5b602002602001018190525080806136329061480f565b915050613374565b50809350505050919050565b6040518060e00160405280600073ffffffffffffffffffffffffffffffffffffffff168152602001606081526020016060815260200160608152602001600063ffffffff16815260200160008152602001600081525090565b6040518060a001604052806060815260200160608152602001600063ffffffff16815260200160008152602001600081525090565b8280546136e090614630565b90600052602060002090601f0160209004810192826137025760008555613749565b82601f1061371b57805160ff1916838001178555613749565b82800160010185558215613749579182015b8281111561374857825182559160200191906001019061372d565b5b509050613756919061377b565b5090565b60405180606001604052806060815260200160008152602001600081525090565b5b8082111561379457600081600090555060010161377c565b5090565b6000604051905090565b600080fd5b600080fd5b600073ffffffffffffffffffffffffffffffffffffffff82169050919050565b60006137d7826137ac565b9050919050565b6137e7816137cc565b81146137f257600080fd5b50565b600081359050613804816137de565b92915050565b6000602082840312156138205761381f6137a2565b5b600061382e848285016137f5565b91505092915050565b613840816137cc565b82525050565b600081519050919050565b600082825260208201905092915050565b60005b83811015613880578082015181840152602081019050613865565b8381111561388f576000848401525b50505050565b6000601f19601f8301169050919050565b60006138b182613846565b6138bb8185613851565b93506138cb818560208601613862565b6138d481613895565b840191505092915050565b600063ffffffff82169050919050565b6138f8816138df565b82525050565b6000819050919050565b613911816138fe565b82525050565b600060e08301600083015161392f6000860182613837565b506020830151848203602086015261394782826138a6565b9150506040830151848203604086015261396182826138a6565b9150506060830151848203606086015261397b82826138a6565b915050608083015161399060808601826138ef565b5060a08301516139a360a0860182613908565b5060c08301516139b660c0860182613908565b508091505092915050565b600060208201905081810360008301526139db8184613917565b905092915050565b6139ec816137cc565b82525050565b6000602082019050613a0760008301846139e3565b92915050565b613a16816138fe565b8114613a2157600080fd5b50565b600081359050613a3381613a0d565b92915050565b600060208284031215613a4f57613a4e6137a2565b5b6000613a5d84828501613a24565b91505092915050565b600060a0830160008301518482036000860152613a8382826138a6565b91505060208301518482036020860152613a9d82826138a6565b9150506040830151613ab260408601826138ef565b506060830151613ac56060860182613908565b506080830151613ad86080860182613908565b508091505092915050565b60006020820190508181036000830152613afd8184613a66565b905092915050565b600080fd5b600080fd5b7f4e487b7100000000000000000000000000000000000000000000000000000000600052604160045260246000fd5b613b4782613895565b810181811067ffffffffffffffff82111715613b6657613b65613b0f565b5b80604052505050565b6000613b79613798565b9050613b858282613b3e565b919050565b600067ffffffffffffffff821115613ba557613ba4613b0f565b5b613bae82613895565b9050602081019050919050565b82818337600083830152505050565b6000613bdd613bd884613b8a565b613b6f565b905082815260208101848484011115613bf957613bf8613b0a565b5b613c04848285613bbb565b509392505050565b600082601f830112613c2157613c20613b05565b5b8135613c31848260208601613bca565b91505092915050565b613c43816138df565b8114613c4e57600080fd5b50565b600081359050613c6081613c3a565b92915050565b600080600080600060a08688031215613c8257613c816137a2565b5b600086013567ffffffffffffffff811115613ca057613c9f6137a7565b5b613cac88828901613c0c565b955050602086013567ffffffffffffffff811115613ccd57613ccc6137a7565b5b613cd988828901613c0c565b9450506040613cea88828901613c51565b9350506060613cfb88828901613a24565b9250506080613d0c888289016137f5565b9150509295509295909350565b600080600080600060a08688031215613d3557613d346137a2565b5b600086013567ffffffffffffffff811115613d5357613d526137a7565b5b613d5f88828901613c0c565b9550506020613d7088828901613a24565b9450506040613d8188828901613a24565b9350506060613d9288828901613a24565b9250506080613da3888289016137f5565b9150509295509295909350565b600067ffffffffffffffff821115613dcb57613dca613b0f565b5b602082029050602081019050919050565b600080fd5b6000613df4613def84613db0565b613b6f565b90508083825260208201905060208402830185811115613e1757613e16613ddc565b5b835b81811015613e405780613e2c8882613a24565b845260208401935050602081019050613e19565b5050509392505050565b600082601f830112613e5f57613e5e613b05565b5b8135613e6f848260208601613de1565b91505092915050565b60008060408385031215613e8f57613e8e6137a2565b5b6000613e9d85828601613a24565b925050602083013567ffffffffffffffff811115613ebe57613ebd6137a7565b5b613eca85828601613e4a565b9150509250929050565b60008060008060008060c08789031215613ef157613ef06137a2565b5b6000613eff89828a016137f5565b965050602087013567ffffffffffffffff811115613f2057613f1f6137a7565b5b613f2c89828a01613c0c565b955050604087013567ffffffffffffffff811115613f4d57613f4c6137a7565b5b613f5989828a01613c0c565b945050606087013567ffffffffffffffff811115613f7a57613f796137a7565b5b613f8689828a01613c0c565b9350506080613f9789828a01613c51565b92505060a0613fa889828a01613a24565b9150509295509295509295565b600081519050919050565b600082825260208201905092915050565b6000819050602082019050919050565b600060e083016000830151613ff96000860182613837565b506020830151848203602086015261401182826138a6565b9150506040830151848203604086015261402b82826138a6565b9150506060830151848203606086015261404582826138a6565b915050608083015161405a60808601826138ef565b5060a083015161406d60a0860182613908565b5060c083015161408060c0860182613908565b508091505092915050565b60006140978383613fe1565b905092915050565b6000602082019050919050565b60006140b782613fb5565b6140c18185613fc0565b9350836020820285016140d385613fd1565b8060005b8581101561410f57848403895281516140f0858261408b565b94506140fb8361409f565b925060208a019950506001810190506140d7565b50829750879550505050505092915050565b6000602082019050818103600083015261413b81846140ac565b905092915050565b6000806040838503121561415a576141596137a2565b5b600061416885828601613a24565b925050602061417985828601613a24565b9150509250929050565b61418c816138fe565b82525050565b60006020820190506141a76000830184614183565b92915050565b60008115159050919050565b6141c2816141ad565b82525050565b60006020820190506141dd60008301846141b9565b92915050565b600081519050919050565b600082825260208201905092915050565b6000819050602082019050919050565b600061421b8383613908565b60208301905092915050565b6000602082019050919050565b600061423f826141e3565b61424981856141ee565b9350614254836141ff565b8060005b8381101561428557815161426c888261420f565b975061427783614227565b925050600181019050614258565b5085935050505092915050565b600060208201905081810360008301526142ac8184614234565b905092915050565b600080604083850312156142cb576142ca6137a2565b5b60006142d9858286016137f5565b92505060206142ea85828601613a24565b9150509250929050565b600081519050919050565b600082825260208201905092915050565b6000819050602082019050919050565b600060a083016000830151848203600086015261433d82826138a6565b9150506020830151848203602086015261435782826138a6565b915050604083015161436c60408601826138ef565b50606083015161437f6060860182613908565b5060808301516143926080860182613908565b508091505092915050565b60006143a98383614320565b905092915050565b6000602082019050919050565b60006143c9826142f4565b6143d381856142ff565b9350836020820285016143e585614310565b8060005b858110156144215784840389528151614402858261439d565b945061440d836143b1565b925060208a019950506001810190506143e9565b50829750879550505050505092915050565b6000602082019050818103600083015261444d81846143be565b905092915050565b600081519050919050565b600082825260208201905092915050565b6000819050602082019050919050565b6000606083016000830151848203600086015261449e82826138a6565b91505060208301516144b36020860182613908565b5060408301516144c66040860182613908565b508091505092915050565b60006144dd8383614481565b905092915050565b6000602082019050919050565b60006144fd82614455565b6145078185614460565b93508360208202850161451985614471565b8060005b85811015614555578484038952815161453685826144d1565b9450614541836144e5565b925060208a0199505060018101905061451d565b50829750879550505050505092915050565b6000602082019050818103600083015261458181846144f2565b905092915050565b60006020828403121561459f5761459e6137a2565b5b600082013567ffffffffffffffff8111156145bd576145bc6137a7565b5b6145c984828501613e4a565b91505092915050565b7f4e487b7100000000000000000000000000000000000000000000000000000000600052603260045260246000fd5b7f4e487b7100000000000000000000000000000000000000000000000000000000600052602260045260246000fd5b6000600282049050600182168061464857607f821691505b6020821081141561465c5761465b614601565b5b50919050565b600082825260208201905092915050565b7f69732041646d696e6973747261746f7200000000000000000000000000000000600082015250565b60006146a9601083614662565b91506146b482614673565b602082019050919050565b600060208201905081810360008301526146d88161469c565b9050919050565b7f557365722069736e277420696e206f7267000000000000000000000000000000600082015250565b6000614715601183614662565b9150614720826146df565b602082019050919050565b6000602082019050818103600083015261474481614708565b9050919050565b7f417373657420696e206465700000000000000000000000000000000000000000600082015250565b6000614781600c83614662565b915061478c8261474b565b602082019050919050565b600060208201905081810360008301526147b081614774565b9050919050565b60006040820190506147cc6000830185614183565b6147d96020830184614183565b9392505050565b7f4e487b7100000000000000000000000000000000000000000000000000000000600052601160045260246000fd5b600061481a826138fe565b91507fffffffffffffffffffffffffffffffffffffffffffffffffffffffffffffffff82141561484d5761484c6147e0565b5b600182019050919050565b7f757365722069732061646d696e00000000000000000000000000000000000000600082015250565b600061488e600d83614662565b915061489982614858565b602082019050919050565b600060208201905081810360008301526148bd81614881565b9050919050565b7f4164647265737320726567697374657265640000000000000000000000000000600082015250565b60006148fa601283614662565b9150614905826148c4565b602082019050919050565b60006020820190508181036000830152614929816148ed565b9050919050565b600061493b826138fe565b9150614946836138fe565b9250827fffffffffffffffffffffffffffffffffffffffffffffffffffffffffffffffff0382111561497b5761497a6147e0565b5b828201905092915050565b60008151905061499581613a0d565b92915050565b6000602082840312156149b1576149b06137a2565b5b60006149bf84828501614986565b91505092915050565b7f4f72674964206e6f7420666f756e640000000000000000000000000000000000600082015250565b60006149fe600f83614662565b9150614a09826149c8565b602082019050919050565b60006020820190508181036000830152614a2d816149f1565b9050919050565b6000614a3f82613846565b614a498185614662565b9350614a59818560208601613862565b614a6281613895565b840191505092915050565b6000608082019050614a8260008301876139e3565b8181036020830152614a948186614a34565b90508181036040830152614aa88185614a34565b9050614ab76060830184614183565b95945050505050565b6000614acb826138fe565b9150614ad6836138fe565b925082821015614ae957614ae86147e0565b5b828203905092915050565b7f4e487b7100000000000000000000000000000000000000000000000000000000600052603160045260246000fd5b7f5573657220696e20646570000000000000000000000000000000000000000000600082015250565b6000614b59600b83614662565b9150614b6482614b23565b602082019050919050565b60006020820190508181036000830152614b8881614b4c565b9050919050565b6000819050919050565b6000819050919050565b6000614bbe614bb9614bb484614b8f565b614b99565b6138fe565b9050919050565b614bce81614ba3565b82525050565b6000604082019050614be96000830185614183565b614bf66020830184614bc5565b9392505050565b6000604082019050614c1260008301856139e3565b614c1f6020830184614183565b9392505050565b614c2f816141ad565b8114614c3a57600080fd5b50565b600081519050614c4c81614c26565b92915050565b600060208284031215614c6857614c676137a2565b5b6000614c7684828501614c3d565b9150509291505056fea2646970667358221220cdcc60384a0277a00872c3b83c2ef8ab01b3c69112f60263ab20389f3b55825264736f6c634300080c0033",
  "immutableReferences": {},
  "source": "// SPDX-License-Identifier: MIT\r\npragma solidity >=0.7.0 <0.9.10;\r\nimport \"./Main.sol\";\r\n\r\ncontract Users {\r\n\r\n    address public mainAddr;\r\n\r\n    constructor (address _mainAddr){\r\n        mainAddr = _mainAddr;\r\n        departList.push(Department('0','0',0,0,0));\r\n    }\r\n\r\n    event Register(\r\n        address addr, \r\n        string name,\r\n        string surname,\r\n        uint orgId \r\n    );\r\n\r\n    struct User {\r\n        address addr;\r\n        string name;\r\n        string surname;\r\n        string email;\r\n        uint32 telephone;\r\n        uint orgId;\r\n        uint256 index;\r\n    }\r\n\r\n    User[] private userList;\r\n    address[] private users;\r\n    mapping(uint256 => uint256[]) orgIdToUserList;\r\n    mapping(address => uint) addressToId;\r\n\r\n    function isUser(address userAddress) public view returns (bool isIndeed) {\r\n        if (users.length == 0) return false;\r\n        return (users[addressToId[userAddress]] == userAddress);\r\n    } \r\n\r\n    function getUserFromAddr(address addr) public view returns(User memory){\r\n        uint userId = addressToId[addr];\r\n        return userList[userId];\r\n    }\r\n    \r\n    function insertUser(\r\n        address addr, \r\n        string memory name, \r\n        string memory surname, \r\n        string memory email, \r\n        uint32 telephone,\r\n        uint orgId \r\n    ) public {\r\n        //Instance main contract to see if the id of the org exists\r\n        Main mainInstance = Main(mainAddr);\r\n        if(isAdminFromOrg(addr, orgId)) revert(\"user is admin\");\r\n        if(isUser(addr)) revert(\"Address registered\");\r\n        if((mainInstance.orgCount()) < (uint256(orgId)+1)) revert(\"OrgId not found\");\r\n        uint userId = userList.length;\r\n        userList.push(User(addr, name, surname, email, telephone, orgId, userId));\r\n        orgIdToUserList[orgId].push(userId);\r\n        addressToId[addr] = userId;\r\n        users.push(addr);\r\n        emit Register(addr, name, surname, orgId);\r\n    }\r\n\r\n\r\n\r\n    function getAllUsersFromOrg(uint orgId) public view returns(User[] memory){\r\n        uint[] memory idList = orgIdToUserList[orgId];\r\n        uint cont = idList.length;\r\n        User[] memory usersFromOrg = new User[](cont);\r\n\r\n        for (uint i = 0; i < cont; i++) {\r\n            usersFromOrg[i] = userList[idList[i]];\r\n        }\r\n        return usersFromOrg;\r\n    }\r\n\r\n    function getNumUsersFromOrg(uint orgId) public view returns(uint){\r\n        uint usersFromOrg = orgIdToUserList[orgId].length;\r\n        return usersFromOrg;\r\n    }\r\n\r\n    function getUserData(uint userId) public view returns(User memory){\r\n        return userList[userId];\r\n    }\r\n\r\n    //RELATION BETWEEN ASSET AND USER\r\n\r\n    mapping(uint => uint[]) public userIdToAssetList;\r\n    mapping(uint => uint[]) public assetToListOfUsers;\r\n\r\n    function insertUsersToAsset(uint assetId, uint[] memory userIds) public {\r\n        uint cont = userIds.length;\r\n        for (uint i = 0; i < cont; i++) {\r\n            userIdToAssetList[userIds[i]].push(assetId);\r\n            assetToListOfUsers[assetId].push(userIds[i]);\r\n        } \r\n    }\r\n\r\n    function getUserAssets(uint userId) public view returns(uint[] memory assetIds){\r\n        return userIdToAssetList[userId];\r\n    }\r\n\r\n    function getAssetUsers(uint assetId) public view returns(User[] memory){\r\n        uint[] memory list = assetToListOfUsers[assetId];\r\n        uint cont = list.length;\r\n        User[] memory usersOfAsset = new User[](cont);\r\n        for (uint i = 0; i < cont; i++) {\r\n            usersOfAsset[i] = userList[list[i]];\r\n        }\r\n        return usersOfAsset;\r\n    }\r\n\r\n    //DEPARTMENTS\r\n    struct Department {\r\n        string name;\r\n        string description;\r\n        uint32 telephone;\r\n        uint orgId;\r\n        uint256 index;\r\n    }\r\n\r\n    Department[] private departList;\r\n    mapping(uint256 => uint256[]) orgIdToDepartList;\r\n    mapping(uint => mapping(uint => bool)) departToUserBool;\r\n    mapping(uint => uint[]) departIdToUserList;\r\n\r\n    function isUserFromOrg(address addr, uint orgId) public view returns(bool){\r\n        if (users.length == 0) return false;\r\n        if (!isUser(addr)) return false;\r\n        uint userId = addressToId[addr];\r\n        uint userOrg = userList[userId].orgId;\r\n        return (userOrg == orgId);\r\n    }\r\n\r\n    function isUserFromDepart(address addr, uint departId) public view returns(bool){\r\n        if (users.length == 0) return false;\r\n        if (!isUser(addr)) return false;\r\n        uint userId = addressToId[addr];\r\n        return (departToUserBool[departId][userId]);\r\n    }\r\n\r\n    function isAdminFromOrg(address addr, uint orgId) public view returns (bool){\r\n        Main mainInstance = Main(mainAddr);\r\n        return mainInstance.isAdminFromOrg(addr, orgId);\r\n    }\r\n\r\n    function insertDepartment(string memory name,\r\n        string memory description,\r\n        uint32 telephone,\r\n        uint orgId,\r\n        address addr\r\n        ) public {\r\n            if(!(isAdminFromOrg(addr, orgId) || isUserFromOrg(addr, orgId))) revert();         \r\n            uint departId = departList.length;\r\n            departList.push(Department(name, description, telephone, orgId, departId));\r\n            orgIdToDepartList[orgId].push(departId);\r\n    }\r\n\r\n    function getDepartment(uint departId) public view returns(Department memory){\r\n        return departList[departId];\r\n    }\r\n\r\n    function getAllDepartmentsFromOrg(uint orgId) public view returns(Department[] memory){\r\n        uint[] memory idList = orgIdToDepartList[orgId];\r\n        uint cont = idList.length;\r\n        Department[] memory departFromOrg = new Department[](cont);\r\n\r\n        for (uint i = 0; i < cont; i++) {\r\n            departFromOrg[i] = departList[idList[i]];\r\n        }\r\n        return departFromOrg;\r\n    }\r\n\r\n    //USERS from department\r\n    function insertUserToDepartment(uint departId, uint[] memory userIds) public {\r\n        //if(!isAdminFromOrg(addr, orgId)) revert(\");\r\n        uint cont = userIds.length;\r\n        for (uint i = 0; i < cont; i++) {\r\n            if(departToUserBool[departId][userIds[i]] == true) {\r\n                revert(\"User in dep\");\r\n            } else {\r\n                departIdToUserList[departId].push(userIds[i]);\r\n                departToUserBool[departId][userIds[i]] = true;\r\n            }\r\n            \r\n        }\r\n    }\r\n\r\n    //If admin wants to delete any user from the department\r\n    //first we will need to find that user \r\n    //and then delete the index \r\n    function deleteUsersFromDepartment(uint departId, uint[] memory userIds) public {\r\n        uint userCont = userIds.length;\r\n        for (uint i = 0; i < userCont; i++) {\r\n            if(departToUserBool[departId][userIds[i]] == true) {\r\n                departToUserBool[departId][userIds[i]] = false;\r\n                uint departUsers = departIdToUserList[departId].length;\r\n                for(uint o = 0; o < departUsers; o++){\r\n                    if (departIdToUserList[departId][o] == userIds[i]){\r\n                        for (uint e = o; e<departUsers-1; e++){\r\n                            departIdToUserList[departId][e] = departIdToUserList[departId][e+1];\r\n                        }\r\n                        departIdToUserList[departId].pop();\r\n                        break;\r\n                    }\r\n                }\r\n            }\r\n        }\r\n    }\r\n\r\n    function getUsersIdsFromDepart(uint departId) public view returns(uint[] memory){\r\n        return departIdToUserList[departId];\r\n        \r\n    }\r\n\r\n    function getUsersFromDepart(uint departId) public view returns(User[] memory){\r\n        uint[] memory idList = departIdToUserList[departId];\r\n        uint cont = idList.length;\r\n        User[] memory usersFromDepart = new User[](cont);\r\n\r\n        for (uint i = 0; i < cont; i++) {\r\n            usersFromDepart[i] = userList[idList[i]];\r\n        }\r\n        return usersFromDepart;\r\n    }\r\n\r\n    mapping(uint => mapping(uint => bool)) departToAssetBool;\r\n    mapping(uint => uint[]) departIdToAssetList;\r\n\r\n    //ASSETS from department\r\n    function insertAssetToDepartment(uint departId, uint[] memory assetsIds) public {\r\n        uint cont = assetsIds.length;\r\n        for (uint i = 0; i < cont; i++) {\r\n            if(departToAssetBool[departId][assetsIds[i]] == true) {\r\n                revert(\"Asset in dep\");\r\n            } else {\r\n                departIdToAssetList[departId].push(assetsIds[i]);\r\n                departToAssetBool[departId][assetsIds[i]] = true;\r\n                Main mainInstance = Main(mainAddr);\r\n                mainInstance.insertAssetToDepartment(assetsIds[i], departId);\r\n            }\r\n            \r\n        }\r\n    }\r\n\r\n    function deleteAssetFromDepartment(uint departId, uint[] memory assetsIds) public {\r\n        uint assetCont = assetsIds.length;\r\n        for (uint i = 0; i < assetCont; i++) {\r\n            if(departToAssetBool[departId][assetsIds[i]] == true) {\r\n                departToAssetBool[departId][assetsIds[i]] = false;\r\n                uint departAssets = departIdToAssetList[departId].length;\r\n                for(uint o = 0; o < departAssets; o++){\r\n                    if (departIdToAssetList[departId][o] == assetsIds[i]){\r\n                        for (uint e = o; e < departAssets-1; e++){\r\n                            departIdToAssetList[departId][e] = departIdToAssetList[departId][e+1];\r\n                        }\r\n                        departIdToAssetList[departId].pop();\r\n                        Main mainInstance = Main(mainAddr);\r\n                        mainInstance.insertAssetToDepartment(assetsIds[i], 0);\r\n                        break;\r\n                    }\r\n                }\r\n            }\r\n        }\r\n    }\r\n\r\n    function getAssetsIdsFromDepart(uint departId) public view returns(uint[] memory){\r\n        return departIdToAssetList[departId];\r\n        \r\n    }\r\n\r\n    function insertNewAssetWithDepartment(uint assetDepart, uint id) public{\r\n        departIdToAssetList[assetDepart].push(id);\r\n        departToAssetBool[assetDepart][id] = true;    \r\n    }\r\n\r\n    //COMMENTS\r\n    struct Comment {\r\n        string description;\r\n        uint userId;\r\n        uint date;\r\n    }\r\n\r\n    Comment[] commentList;\r\n    mapping(uint => uint[]) assetIdToCommentList; \r\n\r\n    function insertComment(string memory description, uint date, uint assetId, uint orgId, address addr) public {\r\n        if(isAdminFromOrg(addr, orgId)) revert(\"is Administrator\");\r\n        if(!isUserFromOrg(addr, orgId)) revert(\"User isn't in org\");\r\n        uint userId = addressToId[addr];\r\n        uint comId = commentList.length;\r\n        commentList.push(Comment(description, userId, date));\r\n        assetIdToCommentList[assetId].push(comId);\r\n    }\r\n\r\n    function getCommentsByAsset(uint assetId) public view returns(Comment[] memory){\r\n        uint[] memory ids = assetIdToCommentList[assetId];\r\n        Comment[] memory comments = new Comment[](ids.length);\r\n        for (uint256 i = 0; i < ids.length; i++) {\r\n            comments[i] = commentList[ids[i]];\r\n        }\r\n        return comments;\r\n    }\r\n\r\n    function getNumberOfCommentsByAsset(uint assetId) public view returns(uint){\r\n        uint[] memory ids = assetIdToCommentList[assetId];\r\n        return ids.length;\r\n    }\r\n\r\n    function getUsersById(uint[] memory usersId) public view returns(User[] memory){\r\n        User[] memory container = new User[](usersId.length);\r\n        for (uint256 i = 0; i < usersId.length; i++) {\r\n            container[i] = userList[usersId[i]];\r\n        }\r\n        return container;\r\n    }\r\n}",
  "sourcePath": "D:\\GIT\\inventory-blockchain\\blockchain\\contracts\\Users.sol",
  "compiler": {
    "name": "solc",
    "version": "0.8.12+commit.f00d7308.Emscripten.clang"
  },
  "schemaVersion": "3.4.6",
  "updatedAt": "2022-05-15T22:14:42.147Z",
  "networkType": "ethereum",
  "devdoc": {
    "kind": "dev",
    "methods": {},
    "version": 1
  },
  "userdoc": {
    "kind": "user",
    "methods": {},
    "version": 1
  }
}