{
  "contractName": "Users",
  "abi": [
    {
      "inputs": [
        {
          "internalType": "address",
          "name": "_mainAddr",
          "type": "address"
        }
      ],
      "stateMutability": "nonpayable",
      "type": "constructor"
    },
    {
      "anonymous": false,
      "inputs": [
        {
          "indexed": false,
          "internalType": "address",
          "name": "addr",
          "type": "address"
        },
        {
          "indexed": false,
          "internalType": "string",
          "name": "name",
          "type": "string"
        },
        {
          "indexed": false,
          "internalType": "string",
          "name": "surname",
          "type": "string"
        },
        {
          "indexed": false,
          "internalType": "uint256",
          "name": "orgId",
          "type": "uint256"
        }
      ],
      "name": "Register",
      "type": "event"
    },
    {
      "inputs": [
        {
          "internalType": "uint256",
          "name": "",
          "type": "uint256"
        },
        {
          "internalType": "uint256",
          "name": "",
          "type": "uint256"
        }
      ],
      "name": "assetToListOfUsers",
      "outputs": [
        {
          "internalType": "uint256",
          "name": "",
          "type": "uint256"
        }
      ],
      "stateMutability": "view",
      "type": "function",
      "constant": true
    },
    {
      "inputs": [],
      "name": "mainAddr",
      "outputs": [
        {
          "internalType": "address",
          "name": "",
          "type": "address"
        }
      ],
      "stateMutability": "view",
      "type": "function",
      "constant": true
    },
    {
      "inputs": [
        {
          "internalType": "uint256",
          "name": "",
          "type": "uint256"
        },
        {
          "internalType": "uint256",
          "name": "",
          "type": "uint256"
        }
      ],
      "name": "userIdToAssetList",
      "outputs": [
        {
          "internalType": "uint256",
          "name": "",
          "type": "uint256"
        }
      ],
      "stateMutability": "view",
      "type": "function",
      "constant": true
    },
    {
      "inputs": [
        {
          "internalType": "address",
          "name": "userAddress",
          "type": "address"
        }
      ],
      "name": "isUser",
      "outputs": [
        {
          "internalType": "bool",
          "name": "isIndeed",
          "type": "bool"
        }
      ],
      "stateMutability": "view",
      "type": "function",
      "constant": true
    },
    {
      "inputs": [
        {
          "internalType": "address",
          "name": "addr",
          "type": "address"
        },
        {
          "internalType": "string",
          "name": "name",
          "type": "string"
        },
        {
          "internalType": "string",
          "name": "surname",
          "type": "string"
        },
        {
          "internalType": "string",
          "name": "email",
          "type": "string"
        },
        {
          "internalType": "uint32",
          "name": "telephone",
          "type": "uint32"
        },
        {
          "internalType": "uint256",
          "name": "orgId",
          "type": "uint256"
        }
      ],
      "name": "insertUser",
      "outputs": [],
      "stateMutability": "nonpayable",
      "type": "function"
    },
    {
      "inputs": [
        {
          "internalType": "uint256",
          "name": "orgId",
          "type": "uint256"
        }
      ],
      "name": "getAllUsersFromOrg",
      "outputs": [
        {
          "components": [
            {
              "internalType": "address",
              "name": "addr",
              "type": "address"
            },
            {
              "internalType": "string",
              "name": "name",
              "type": "string"
            },
            {
              "internalType": "string",
              "name": "surname",
              "type": "string"
            },
            {
              "internalType": "string",
              "name": "email",
              "type": "string"
            },
            {
              "internalType": "uint32",
              "name": "telephone",
              "type": "uint32"
            },
            {
              "internalType": "uint256",
              "name": "orgId",
              "type": "uint256"
            },
            {
              "internalType": "uint256",
              "name": "index",
              "type": "uint256"
            }
          ],
          "internalType": "struct Users.User[]",
          "name": "",
          "type": "tuple[]"
        }
      ],
      "stateMutability": "view",
      "type": "function",
      "constant": true
    },
    {
      "inputs": [
        {
          "internalType": "uint256",
          "name": "orgId",
          "type": "uint256"
        }
      ],
      "name": "getNumUsersFromOrg",
      "outputs": [
        {
          "internalType": "uint256",
          "name": "",
          "type": "uint256"
        }
      ],
      "stateMutability": "view",
      "type": "function",
      "constant": true
    },
    {
      "inputs": [
        {
          "internalType": "uint256",
          "name": "userId",
          "type": "uint256"
        }
      ],
      "name": "getUserData",
      "outputs": [
        {
          "components": [
            {
              "internalType": "address",
              "name": "addr",
              "type": "address"
            },
            {
              "internalType": "string",
              "name": "name",
              "type": "string"
            },
            {
              "internalType": "string",
              "name": "surname",
              "type": "string"
            },
            {
              "internalType": "string",
              "name": "email",
              "type": "string"
            },
            {
              "internalType": "uint32",
              "name": "telephone",
              "type": "uint32"
            },
            {
              "internalType": "uint256",
              "name": "orgId",
              "type": "uint256"
            },
            {
              "internalType": "uint256",
              "name": "index",
              "type": "uint256"
            }
          ],
          "internalType": "struct Users.User",
          "name": "",
          "type": "tuple"
        }
      ],
      "stateMutability": "view",
      "type": "function",
      "constant": true
    },
    {
      "inputs": [
        {
          "internalType": "uint256",
          "name": "assetId",
          "type": "uint256"
        },
        {
          "internalType": "uint256[]",
          "name": "userIds",
          "type": "uint256[]"
        }
      ],
      "name": "insertUsersToAsset",
      "outputs": [],
      "stateMutability": "nonpayable",
      "type": "function"
    },
    {
      "inputs": [
        {
          "internalType": "uint256",
          "name": "userId",
          "type": "uint256"
        }
      ],
      "name": "getUserAssets",
      "outputs": [
        {
          "internalType": "uint256[]",
          "name": "assetIds",
          "type": "uint256[]"
        }
      ],
      "stateMutability": "view",
      "type": "function",
      "constant": true
    },
    {
      "inputs": [
        {
          "internalType": "uint256",
          "name": "assetId",
          "type": "uint256"
        }
      ],
      "name": "getAssetUsers",
      "outputs": [
        {
          "components": [
            {
              "internalType": "address",
              "name": "addr",
              "type": "address"
            },
            {
              "internalType": "string",
              "name": "name",
              "type": "string"
            },
            {
              "internalType": "string",
              "name": "surname",
              "type": "string"
            },
            {
              "internalType": "string",
              "name": "email",
              "type": "string"
            },
            {
              "internalType": "uint32",
              "name": "telephone",
              "type": "uint32"
            },
            {
              "internalType": "uint256",
              "name": "orgId",
              "type": "uint256"
            },
            {
              "internalType": "uint256",
              "name": "index",
              "type": "uint256"
            }
          ],
          "internalType": "struct Users.User[]",
          "name": "",
          "type": "tuple[]"
        }
      ],
      "stateMutability": "view",
      "type": "function",
      "constant": true
    },
    {
      "inputs": [
        {
          "internalType": "string",
          "name": "name",
          "type": "string"
        },
        {
          "internalType": "string",
          "name": "description",
          "type": "string"
        },
        {
          "internalType": "uint32",
          "name": "telephone",
          "type": "uint32"
        },
        {
          "internalType": "uint256",
          "name": "orgId",
          "type": "uint256"
        }
      ],
      "name": "insertDepartment",
      "outputs": [],
      "stateMutability": "nonpayable",
      "type": "function"
    },
    {
      "inputs": [
        {
          "internalType": "uint256",
          "name": "departId",
          "type": "uint256"
        }
      ],
      "name": "getDepartment",
      "outputs": [
        {
          "components": [
            {
              "internalType": "string",
              "name": "name",
              "type": "string"
            },
            {
              "internalType": "string",
              "name": "description",
              "type": "string"
            },
            {
              "internalType": "uint32",
              "name": "telephone",
              "type": "uint32"
            },
            {
              "internalType": "uint256",
              "name": "orgId",
              "type": "uint256"
            },
            {
              "internalType": "uint256",
              "name": "index",
              "type": "uint256"
            }
          ],
          "internalType": "struct Users.Department",
          "name": "",
          "type": "tuple"
        }
      ],
      "stateMutability": "view",
      "type": "function",
      "constant": true
    },
    {
      "inputs": [
        {
          "internalType": "uint256",
          "name": "orgId",
          "type": "uint256"
        }
      ],
      "name": "getAllDepartmentsFromOrg",
      "outputs": [
        {
          "components": [
            {
              "internalType": "string",
              "name": "name",
              "type": "string"
            },
            {
              "internalType": "string",
              "name": "description",
              "type": "string"
            },
            {
              "internalType": "uint32",
              "name": "telephone",
              "type": "uint32"
            },
            {
              "internalType": "uint256",
              "name": "orgId",
              "type": "uint256"
            },
            {
              "internalType": "uint256",
              "name": "index",
              "type": "uint256"
            }
          ],
          "internalType": "struct Users.Department[]",
          "name": "",
          "type": "tuple[]"
        }
      ],
      "stateMutability": "view",
      "type": "function",
      "constant": true
    },
    {
      "inputs": [
        {
          "internalType": "uint256",
          "name": "departId",
          "type": "uint256"
        },
        {
          "internalType": "uint256[]",
          "name": "userIds",
          "type": "uint256[]"
        }
      ],
      "name": "insertUserToDepartment",
      "outputs": [],
      "stateMutability": "nonpayable",
      "type": "function"
    },
    {
      "inputs": [
        {
          "internalType": "uint256",
          "name": "departId",
          "type": "uint256"
        },
        {
          "internalType": "uint256[]",
          "name": "userIds",
          "type": "uint256[]"
        }
      ],
      "name": "deleteUsersFromDepartment",
      "outputs": [],
      "stateMutability": "nonpayable",
      "type": "function"
    },
    {
      "inputs": [
        {
          "internalType": "uint256",
          "name": "departId",
          "type": "uint256"
        }
      ],
      "name": "getUsersIdsFromDepart",
      "outputs": [
        {
          "internalType": "uint256[]",
          "name": "",
          "type": "uint256[]"
        }
      ],
      "stateMutability": "view",
      "type": "function",
      "constant": true
    },
    {
      "inputs": [
        {
          "internalType": "uint256",
          "name": "departId",
          "type": "uint256"
        }
      ],
      "name": "getUsersFromDepart",
      "outputs": [
        {
          "components": [
            {
              "internalType": "address",
              "name": "addr",
              "type": "address"
            },
            {
              "internalType": "string",
              "name": "name",
              "type": "string"
            },
            {
              "internalType": "string",
              "name": "surname",
              "type": "string"
            },
            {
              "internalType": "string",
              "name": "email",
              "type": "string"
            },
            {
              "internalType": "uint32",
              "name": "telephone",
              "type": "uint32"
            },
            {
              "internalType": "uint256",
              "name": "orgId",
              "type": "uint256"
            },
            {
              "internalType": "uint256",
              "name": "index",
              "type": "uint256"
            }
          ],
          "internalType": "struct Users.User[]",
          "name": "",
          "type": "tuple[]"
        }
      ],
      "stateMutability": "view",
      "type": "function",
      "constant": true
    },
    {
      "inputs": [
        {
          "internalType": "uint256",
          "name": "departId",
          "type": "uint256"
        },
        {
          "internalType": "uint256[]",
          "name": "assetsIds",
          "type": "uint256[]"
        }
      ],
      "name": "insertAssetToDepartment",
      "outputs": [],
      "stateMutability": "nonpayable",
      "type": "function"
    },
    {
      "inputs": [
        {
          "internalType": "uint256",
          "name": "departId",
          "type": "uint256"
        },
        {
          "internalType": "uint256[]",
          "name": "assetsIds",
          "type": "uint256[]"
        }
      ],
      "name": "deleteAssetFromDepartment",
      "outputs": [],
      "stateMutability": "nonpayable",
      "type": "function"
    },
    {
      "inputs": [
        {
          "internalType": "uint256",
          "name": "departId",
          "type": "uint256"
        }
      ],
      "name": "getAssetsIdsFromDepart",
      "outputs": [
        {
          "internalType": "uint256[]",
          "name": "",
          "type": "uint256[]"
        }
      ],
      "stateMutability": "view",
      "type": "function",
      "constant": true
    },
    {
      "inputs": [
        {
          "internalType": "string",
          "name": "name",
          "type": "string"
        },
        {
          "internalType": "uint256",
          "name": "organizationId",
          "type": "uint256"
        },
        {
          "internalType": "uint256",
          "name": "adquireDate",
          "type": "uint256"
        },
        {
          "internalType": "uint256",
          "name": "creationDate",
          "type": "uint256"
        },
        {
          "internalType": "uint8",
          "name": "assetType",
          "type": "uint8"
        },
        {
          "internalType": "uint256",
          "name": "assetDepart",
          "type": "uint256"
        },
        {
          "internalType": "string",
          "name": "version",
          "type": "string"
        },
        {
          "internalType": "string",
          "name": "provider",
          "type": "string"
        },
        {
          "internalType": "uint8",
          "name": "stype",
          "type": "uint8"
        }
      ],
      "name": "insertNewSAssetWithDepartment",
      "outputs": [],
      "stateMutability": "nonpayable",
      "type": "function"
    },
    {
      "inputs": [
        {
          "internalType": "string",
          "name": "name",
          "type": "string"
        },
        {
          "internalType": "uint256",
          "name": "organizationId",
          "type": "uint256"
        },
        {
          "internalType": "uint256",
          "name": "adquireDate",
          "type": "uint256"
        },
        {
          "internalType": "uint256",
          "name": "creationDate",
          "type": "uint256"
        },
        {
          "internalType": "uint8",
          "name": "assetType",
          "type": "uint8"
        },
        {
          "internalType": "uint256",
          "name": "assetDepart",
          "type": "uint256"
        },
        {
          "internalType": "string",
          "name": "model",
          "type": "string"
        },
        {
          "internalType": "string",
          "name": "provider",
          "type": "string"
        },
        {
          "internalType": "string",
          "name": "serialNumber",
          "type": "string"
        },
        {
          "internalType": "uint8",
          "name": "htype",
          "type": "uint8"
        }
      ],
      "name": "insertNewHAssetWithDepartment",
      "outputs": [],
      "stateMutability": "nonpayable",
      "type": "function"
    },
    {
      "inputs": [
        {
          "internalType": "string",
          "name": "name",
          "type": "string"
        },
        {
          "internalType": "uint256",
          "name": "organizationId",
          "type": "uint256"
        },
        {
          "internalType": "uint256",
          "name": "adquireDate",
          "type": "uint256"
        },
        {
          "internalType": "uint256",
          "name": "creationDate",
          "type": "uint256"
        },
        {
          "internalType": "uint8",
          "name": "assetType",
          "type": "uint8"
        },
        {
          "internalType": "uint256",
          "name": "assetDepart",
          "type": "uint256"
        },
        {
          "internalType": "string",
          "name": "description",
          "type": "string"
        },
        {
          "internalType": "string",
          "name": "location",
          "type": "string"
        },
        {
          "internalType": "uint8",
          "name": "doctype",
          "type": "uint8"
        }
      ],
      "name": "insertNewDocAssetWithDepartment",
      "outputs": [],
      "stateMutability": "nonpayable",
      "type": "function"
    },
    {
      "inputs": [
        {
          "internalType": "string",
          "name": "name",
          "type": "string"
        },
        {
          "internalType": "uint256",
          "name": "organizationId",
          "type": "uint256"
        },
        {
          "internalType": "uint256",
          "name": "adquireDate",
          "type": "uint256"
        },
        {
          "internalType": "uint256",
          "name": "creationDate",
          "type": "uint256"
        },
        {
          "internalType": "uint8",
          "name": "assetType",
          "type": "uint8"
        },
        {
          "internalType": "uint256",
          "name": "assetDepart",
          "type": "uint256"
        },
        {
          "internalType": "string",
          "name": "location",
          "type": "string"
        },
        {
          "internalType": "bool",
          "name": "local",
          "type": "bool"
        }
      ],
      "name": "insertNewDataAssetWithDepartment",
      "outputs": [],
      "stateMutability": "nonpayable",
      "type": "function"
    },
    {
      "inputs": [
        {
          "internalType": "string",
          "name": "name",
          "type": "string"
        },
        {
          "internalType": "uint256",
          "name": "organizationId",
          "type": "uint256"
        },
        {
          "internalType": "uint256",
          "name": "adquireDate",
          "type": "uint256"
        },
        {
          "internalType": "uint256",
          "name": "creationDate",
          "type": "uint256"
        },
        {
          "internalType": "uint8",
          "name": "assetType",
          "type": "uint8"
        },
        {
          "internalType": "uint256",
          "name": "assetDepart",
          "type": "uint256"
        },
        {
          "internalType": "string",
          "name": "cidrblock",
          "type": "string"
        },
        {
          "internalType": "bool",
          "name": "nat",
          "type": "bool"
        }
      ],
      "name": "insertNewNAssetWithDepartment",
      "outputs": [],
      "stateMutability": "nonpayable",
      "type": "function"
    },
    {
      "inputs": [
        {
          "internalType": "string",
          "name": "name",
          "type": "string"
        },
        {
          "internalType": "uint256",
          "name": "organizationId",
          "type": "uint256"
        },
        {
          "internalType": "uint256",
          "name": "adquireDate",
          "type": "uint256"
        },
        {
          "internalType": "uint256",
          "name": "creationDate",
          "type": "uint256"
        },
        {
          "internalType": "uint8",
          "name": "assetType",
          "type": "uint8"
        },
        {
          "internalType": "uint256",
          "name": "assetDepart",
          "type": "uint256"
        },
        {
          "internalType": "string",
          "name": "url",
          "type": "string"
        },
        {
          "internalType": "string",
          "name": "domain",
          "type": "string"
        }
      ],
      "name": "insertNewCAssetWithDepartment",
      "outputs": [],
      "stateMutability": "nonpayable",
      "type": "function"
    },
    {
      "inputs": [
        {
          "internalType": "string",
          "name": "name",
          "type": "string"
        },
        {
          "internalType": "uint256",
          "name": "organizationId",
          "type": "uint256"
        },
        {
          "internalType": "uint256",
          "name": "adquireDate",
          "type": "uint256"
        },
        {
          "internalType": "uint256",
          "name": "creationDate",
          "type": "uint256"
        },
        {
          "internalType": "uint8",
          "name": "assetType",
          "type": "uint8"
        },
        {
          "internalType": "uint256",
          "name": "assetDepart",
          "type": "uint256"
        },
        {
          "internalType": "string",
          "name": "description",
          "type": "string"
        }
      ],
      "name": "insertNewOAssetWithDepartment",
      "outputs": [],
      "stateMutability": "nonpayable",
      "type": "function"
    }
  ],
  "bytecode": "0x60806040523480156200001157600080fd5b50604051620051e9380380620051e98339818101604052810190620000379190620002d8565b806000806101000a81548173ffffffffffffffffffffffffffffffffffffffff021916908373ffffffffffffffffffffffffffffffffffffffff16021790555060076040518060a001604052806040518060400160405280600181526020017f300000000000000000000000000000000000000000000000000000000000000081525081526020016040518060400160405280600181526020017f30000000000000000000000000000000000000000000000000000000000000008152508152602001600063ffffffff168152602001600081526020016000815250908060018154018082558091505060019003906000526020600020906005020160009091909190915060008201518160000190805190602001906200015a929190620001be565b50602082015181600101908051906020019062000179929190620001be565b5060408201518160020160006101000a81548163ffffffff021916908363ffffffff16021790555060608201518160030155608082015181600401555050506200036f565b828054620001cc9062000339565b90600052602060002090601f016020900481019282620001f057600085556200023c565b82601f106200020b57805160ff19168380011785556200023c565b828001600101855582156200023c579182015b828111156200023b5782518255916020019190600101906200021e565b5b5090506200024b91906200024f565b5090565b5b808211156200026a57600081600090555060010162000250565b5090565b600080fd5b600073ffffffffffffffffffffffffffffffffffffffff82169050919050565b6000620002a08262000273565b9050919050565b620002b28162000293565b8114620002be57600080fd5b50565b600081519050620002d281620002a7565b92915050565b600060208284031215620002f157620002f06200026e565b5b60006200030184828501620002c1565b91505092915050565b7f4e487b7100000000000000000000000000000000000000000000000000000000600052602260045260246000fd5b600060028204905060018216806200035257607f821691505b602082108114156200036957620003686200030a565b5b50919050565b614e6a806200037f6000396000f3fe608060405234801561001057600080fd5b50600436106101c45760003560e01c806373adf71f116100f9578063c416f20511610097578063dd2b6d3a11610071578063dd2b6d3a14610533578063e2a2dd3f14610563578063e8bb900b1461057f578063fbc8ba84146105af576101c4565b8063c416f205146104b7578063d2481341146104e7578063d61490ef14610503576101c4565b806396d55fa9116100d357806396d55fa914610433578063b4fff4201461044f578063b5ce789d1461047f578063c19876421461049b576101c4565b806373adf71f146103df57806377bf592b146103fb5780638f785d4414610417576101c4565b8063405a7abc1161016657806351c90efb1161014057806351c90efb146103475780635ba506ef146103635780636dccbcc5146103935780636ecb141c146103af576101c4565b8063405a7abc146102cb5780634209fff1146102fb57806343b718bc1461032b576101c4565b80631fef580c116101a25780631fef580c1461023357806329bbe269146102635780632c60e4a01461027f5780632ee45f4e1461029b576101c4565b806304f468a7146101c957806313eaf25a146101e75780631658747c14610203575b600080fd5b6101d16105df565b6040516101de9190613513565b60405180910390f35b61020160048036038101906101fc91906136f7565b610603565b005b61021d60048036038101906102189190613801565b610798565b60405161022a9190613961565b60405180910390f35b61024d60048036038101906102489190613801565b610932565b60405161025a9190613a3c565b60405180910390f35b61027d60048036038101906102789190613b26565b610bb4565b005b61029960048036038101906102949190613bda565b610dca565b005b6102b560048036038101906102b09190613801565b61117d565b6040516102c29190613e27565b60405180910390f35b6102e560048036038101906102e09190613801565b611518565b6040516102f29190613e58565b60405180910390f35b61031560048036038101906103109190613e73565b61153d565b6040516103229190613ebb565b60405180910390f35b61034560048036038101906103409190613ed6565b611609565b005b610361600480360381019061035c9190613ff4565b6117a1565b005b61037d60048036038101906103789190613801565b61193c565b60405161038a91906141f2565b60405180910390f35b6103ad60048036038101906103a89190613b26565b6119a7565b005b6103c960048036038101906103c49190613801565b611be8565b6040516103d691906141f2565b60405180910390f35b6103f960048036038101906103f49190613b26565b611c53565b005b61041560048036038101906104109190614240565b611d25565b005b610431600480360381019061042c9190613ed6565b611eba565b005b61044d60048036038101906104489190614240565b612052565b005b61046960048036038101906104649190613801565b6121e7565b60405161047691906141f2565b60405180910390f35b61049960048036038101906104949190613b26565b612252565b005b6104b560048036038101906104b09190613b26565b6123ba565b005b6104d160048036038101906104cc9190613801565b6126aa565b6040516104de919061446d565b60405180910390f35b61050160048036038101906104fc919061448f565b61295d565b005b61051d60048036038101906105189190613801565b612aef565b60405161052a9190613e27565b60405180910390f35b61054d60048036038101906105489190614569565b612e8a565b60405161055a9190613e58565b60405180910390f35b61057d600480360381019061057891906145a9565b612ebb565b005b61059960048036038101906105949190614569565b612fd5565b6040516105a69190613e58565b60405180910390f35b6105c960048036038101906105c49190613801565b613006565b6040516105d69190613e27565b60405180910390f35b60008054906101000a900473ffffffffffffffffffffffffffffffffffffffff1681565b60008060009054906101000a900473ffffffffffffffffffffffffffffffffffffffff16905060008173ffffffffffffffffffffffffffffffffffffffff16633e4e3b556040518163ffffffff1660e01b8152600401602060405180830381865afa158015610676573d6000803e3d6000fd5b505050506040513d601f19601f8201168201806040525081019061069a919061465d565b90508173ffffffffffffffffffffffffffffffffffffffff16636139e9f48b8b8b8b8b8b8b8b6040518963ffffffff1660e01b81526004016106e39897969594939291906146e3565b600060405180830381600087803b1580156106fd57600080fd5b505af1158015610711573d6000803e3d6000fd5b50505050600c60008681526020019081526020016000208190806001815401808255809150506001900390600052602060002001600090919091909150556001600b6000878152602001908152602001600020600083815260200190815260200160002060006101000a81548160ff02191690831515021790555050505050505050505050565b6107a06133a1565b600782815481106107b4576107b3614776565b5b90600052602060002090600502016040518060a00160405290816000820180546107dd906147d4565b80601f0160208091040260200160405190810160405280929190818152602001828054610809906147d4565b80156108565780601f1061082b57610100808354040283529160200191610856565b820191906000526020600020905b81548152906001019060200180831161083957829003601f168201915b5050505050815260200160018201805461086f906147d4565b80601f016020809104026020016040519081016040528092919081815260200182805461089b906147d4565b80156108e85780601f106108bd576101008083540402835291602001916108e8565b820191906000526020600020905b8154815290600101906020018083116108cb57829003601f168201915b505050505081526020016002820160009054906101000a900463ffffffff1663ffffffff1663ffffffff168152602001600382015481526020016004820154815250509050919050565b61093a6133d6565b6001828154811061094e5761094d614776565b5b90600052602060002090600702016040518060e00160405290816000820160009054906101000a900473ffffffffffffffffffffffffffffffffffffffff1673ffffffffffffffffffffffffffffffffffffffff1673ffffffffffffffffffffffffffffffffffffffff1681526020016001820180546109cd906147d4565b80601f01602080910402602001604051908101604052809291908181526020018280546109f9906147d4565b8015610a465780601f10610a1b57610100808354040283529160200191610a46565b820191906000526020600020905b815481529060010190602001808311610a2957829003601f168201915b50505050508152602001600282018054610a5f906147d4565b80601f0160208091040260200160405190810160405280929190818152602001828054610a8b906147d4565b8015610ad85780601f10610aad57610100808354040283529160200191610ad8565b820191906000526020600020905b815481529060010190602001808311610abb57829003601f168201915b50505050508152602001600382018054610af1906147d4565b80601f0160208091040260200160405190810160405280929190818152602001828054610b1d906147d4565b8015610b6a5780601f10610b3f57610100808354040283529160200191610b6a565b820191906000526020600020905b815481529060010190602001808311610b4d57829003601f168201915b505050505081526020016004820160009054906101000a900463ffffffff1663ffffffff1663ffffffff168152602001600582015481526020016006820154815250509050919050565b60008151905060005b81811015610dc45760011515600b60008681526020019081526020016000206000858481518110610bf157610bf0614776565b5b6020026020010151815260200190815260200160002060009054906101000a900460ff1615151415610c58576040517f08c379a0000000000000000000000000000000000000000000000000000000008152600401610c4f90614852565b60405180910390fd5b600c6000858152602001908152602001600020838281518110610c7e57610c7d614776565b5b602002602001015190806001815401808255809150506001900390600052602060002001600090919091909150556001600b60008681526020019081526020016000206000858481518110610cd657610cd5614776565b5b6020026020010151815260200190815260200160002060006101000a81548160ff02191690831515021790555060008060009054906101000a900473ffffffffffffffffffffffffffffffffffffffff1690508073ffffffffffffffffffffffffffffffffffffffff16635583071b858481518110610d5857610d57614776565b5b6020026020010151876040518363ffffffff1660e01b8152600401610d7e929190614872565b600060405180830381600087803b158015610d9857600080fd5b505af1158015610dac573d6000803e3d6000fd5b50505050508080610dbc906148ca565b915050610bbd565b50505050565b60008060009054906101000a900473ffffffffffffffffffffffffffffffffffffffff169050610df98761153d565b15610e39576040517f08c379a0000000000000000000000000000000000000000000000000000000008152600401610e309061495f565b60405180910390fd5b600182610e46919061497f565b8173ffffffffffffffffffffffffffffffffffffffff1663d81066906040518163ffffffff1660e01b8152600401602060405180830381865afa158015610e91573d6000803e3d6000fd5b505050506040513d601f19601f82011682018060405250810190610eb5919061465d565b1015610ef6576040517f08c379a0000000000000000000000000000000000000000000000000000000008152600401610eed90614a21565b60405180910390fd5b6000600180549050905060016040518060e001604052808a73ffffffffffffffffffffffffffffffffffffffff1681526020018981526020018881526020018781526020018663ffffffff16815260200185815260200183815250908060018154018082558091505060019003906000526020600020906007020160009091909190915060008201518160000160006101000a81548173ffffffffffffffffffffffffffffffffffffffff021916908373ffffffffffffffffffffffffffffffffffffffff1602179055506020820151816001019080519060200190610fdd92919061342f565b506040820151816002019080519060200190610ffa92919061342f565b50606082015181600301908051906020019061101792919061342f565b5060808201518160040160006101000a81548163ffffffff021916908363ffffffff16021790555060a0820151816005015560c0820151816006015550506003600084815260200190815260200160002081908060018154018082558091505060019003906000526020600020016000909190919091505580600460008a73ffffffffffffffffffffffffffffffffffffffff1673ffffffffffffffffffffffffffffffffffffffff168152602001908152602001600020819055506002889080600181540180825580915050600190039060005260206000200160009091909190916101000a81548173ffffffffffffffffffffffffffffffffffffffff021916908373ffffffffffffffffffffffffffffffffffffffff1602179055507f85c8fcee8505f10dc8a4f9b889000c6a759cffeafd2e3b519a19c836af2e02bd8888888660405161116b9493929190614a41565b60405180910390a15050505050505050565b60606000600660008481526020019081526020016000208054806020026020016040519081016040528092919081815260200182805480156111de57602002820191906000526020600020905b8154815260200190600101908083116111ca575b5050505050905060008151905060008167ffffffffffffffff8111156112075761120661355d565b5b60405190808252806020026020018201604052801561124057816020015b61122d6133d6565b8152602001906001900390816112255790505b50905060005b8281101561150c57600184828151811061126357611262614776565b5b60200260200101518154811061127c5761127b614776565b5b90600052602060002090600702016040518060e00160405290816000820160009054906101000a900473ffffffffffffffffffffffffffffffffffffffff1673ffffffffffffffffffffffffffffffffffffffff1673ffffffffffffffffffffffffffffffffffffffff1681526020016001820180546112fb906147d4565b80601f0160208091040260200160405190810160405280929190818152602001828054611327906147d4565b80156113745780601f1061134957610100808354040283529160200191611374565b820191906000526020600020905b81548152906001019060200180831161135757829003601f168201915b5050505050815260200160028201805461138d906147d4565b80601f01602080910402602001604051908101604052809291908181526020018280546113b9906147d4565b80156114065780601f106113db57610100808354040283529160200191611406565b820191906000526020600020905b8154815290600101906020018083116113e957829003601f168201915b5050505050815260200160038201805461141f906147d4565b80601f016020809104026020016040519081016040528092919081815260200182805461144b906147d4565b80156114985780601f1061146d57610100808354040283529160200191611498565b820191906000526020600020905b81548152906001019060200180831161147b57829003601f168201915b505050505081526020016004820160009054906101000a900463ffffffff1663ffffffff1663ffffffff168152602001600582015481526020016006820154815250508282815181106114ee576114ed614776565b5b60200260200101819052508080611504906148ca565b915050611246565b50809350505050919050565b6000806003600084815260200190815260200160002080549050905080915050919050565b60008060028054905014156115555760009050611604565b8173ffffffffffffffffffffffffffffffffffffffff166002600460008573ffffffffffffffffffffffffffffffffffffffff1673ffffffffffffffffffffffffffffffffffffffff16815260200190815260200160002054815481106115bf576115be614776565b5b9060005260206000200160009054906101000a900473ffffffffffffffffffffffffffffffffffffffff1673ffffffffffffffffffffffffffffffffffffffff161490505b919050565b60008060009054906101000a900473ffffffffffffffffffffffffffffffffffffffff16905060008173ffffffffffffffffffffffffffffffffffffffff16633e4e3b556040518163ffffffff1660e01b8152600401602060405180830381865afa15801561167c573d6000803e3d6000fd5b505050506040513d601f19601f820116820180604052508101906116a0919061465d565b90508173ffffffffffffffffffffffffffffffffffffffff16632124b4fe8c8c8c8c8c8c8c8c8c6040518a63ffffffff1660e01b81526004016116eb99989796959493929190614a94565b600060405180830381600087803b15801561170557600080fd5b505af1158015611719573d6000803e3d6000fd5b50505050600c60008781526020019081526020016000208190806001815401808255809150506001900390600052602060002001600090919091909150556001600b6000888152602001908152602001600020600083815260200190815260200160002060006101000a81548160ff0219169083151502179055505050505050505050505050565b60008060009054906101000a900473ffffffffffffffffffffffffffffffffffffffff16905060008173ffffffffffffffffffffffffffffffffffffffff16633e4e3b556040518163ffffffff1660e01b8152600401602060405180830381865afa158015611814573d6000803e3d6000fd5b505050506040513d601f19601f82011682018060405250810190611838919061465d565b90508173ffffffffffffffffffffffffffffffffffffffff1663ece901338d8d8d8d8d8d8d8d8d8d6040518b63ffffffff1660e01b81526004016118859a99989796959493929190614b36565b600060405180830381600087803b15801561189f57600080fd5b505af11580156118b3573d6000803e3d6000fd5b50505050600c60008881526020019081526020016000208190806001815401808255809150506001900390600052602060002001600090919091909150556001600b6000898152602001908152602001600020600083815260200190815260200160002060006101000a81548160ff021916908315150217905550505050505050505050505050565b60606005600083815260200190815260200160002080548060200260200160405190810160405280929190818152602001828054801561199b57602002820191906000526020600020905b815481526020019060010190808311611987575b50505050509050919050565b60008151905060005b81811015611be257600115156009600086815260200190815260200160002060008584815181106119e4576119e3614776565b5b6020026020010151815260200190815260200160002060009054906101000a900460ff1615151415611bcf576000600960008681526020019081526020016000206000858481518110611a3a57611a39614776565b5b6020026020010151815260200190815260200160002060006101000a81548160ff0219169083151502179055506000600a600086815260200190815260200160002080549050905060005b81811015611bcc57848381518110611aa057611a9f614776565b5b6020026020010151600a60008881526020019081526020016000208281548110611acd57611acc614776565b5b90600052602060002001541415611bb95760008190505b600183611af19190614bee565b811015611b7a57600a6000888152602001908152602001600020600182611b18919061497f565b81548110611b2957611b28614776565b5b9060005260206000200154600a60008981526020019081526020016000208281548110611b5957611b58614776565b5b90600052602060002001819055508080611b72906148ca565b915050611ae4565b50600a6000878152602001908152602001600020805480611b9e57611b9d614c22565b5b60019003818190600052602060002001600090559055611bcc565b8080611bc4906148ca565b915050611a85565b50505b8080611bda906148ca565b9150506119b0565b50505050565b6060600a6000838152602001908152602001600020805480602002602001604051908101604052809291908181526020018280548015611c4757602002820191906000526020600020905b815481526020019060010190808311611c33575b50505050509050919050565b60008151905060005b81811015611d1f5760056000848381518110611c7b57611c7a614776565b5b6020026020010151815260200190815260200160002084908060018154018082558091505060019003906000526020600020016000909190919091505560066000858152602001908152602001600020838281518110611cde57611cdd614776565b5b602002602001015190806001815401808255809150506001900390600052602060002001600090919091909150558080611d17906148ca565b915050611c5c565b50505050565b60008060009054906101000a900473ffffffffffffffffffffffffffffffffffffffff16905060008173ffffffffffffffffffffffffffffffffffffffff16633e4e3b556040518163ffffffff1660e01b8152600401602060405180830381865afa158015611d98573d6000803e3d6000fd5b505050506040513d601f19601f82011682018060405250810190611dbc919061465d565b90508173ffffffffffffffffffffffffffffffffffffffff16638558b8448b8b8b8b8b8b8b8b6040518963ffffffff1660e01b8152600401611e05989796959493929190614c51565b600060405180830381600087803b158015611e1f57600080fd5b505af1158015611e33573d6000803e3d6000fd5b50505050600c60008681526020019081526020016000208190806001815401808255809150506001900390600052602060002001600090919091909150556001600b6000878152602001908152602001600020600083815260200190815260200160002060006101000a81548160ff02191690831515021790555050505050505050505050565b60008060009054906101000a900473ffffffffffffffffffffffffffffffffffffffff16905060008173ffffffffffffffffffffffffffffffffffffffff16633e4e3b556040518163ffffffff1660e01b8152600401602060405180830381865afa158015611f2d573d6000803e3d6000fd5b505050506040513d601f19601f82011682018060405250810190611f51919061465d565b90508173ffffffffffffffffffffffffffffffffffffffff16630b7338a18c8c8c8c8c8c8c8c8c6040518a63ffffffff1660e01b8152600401611f9c99989796959493929190614a94565b600060405180830381600087803b158015611fb657600080fd5b505af1158015611fca573d6000803e3d6000fd5b50505050600c60008781526020019081526020016000208190806001815401808255809150506001900390600052602060002001600090919091909150556001600b6000888152602001908152602001600020600083815260200190815260200160002060006101000a81548160ff0219169083151502179055505050505050505050505050565b60008060009054906101000a900473ffffffffffffffffffffffffffffffffffffffff16905060008173ffffffffffffffffffffffffffffffffffffffff16633e4e3b556040518163ffffffff1660e01b8152600401602060405180830381865afa1580156120c5573d6000803e3d6000fd5b505050506040513d601f19601f820116820180604052508101906120e9919061465d565b90508173ffffffffffffffffffffffffffffffffffffffff1663a1c6d0d08b8b8b8b8b8b8b8b6040518963ffffffff1660e01b8152600401612132989796959493929190614c51565b600060405180830381600087803b15801561214c57600080fd5b505af1158015612160573d6000803e3d6000fd5b50505050600c60008681526020019081526020016000208190806001815401808255809150506001900390600052602060002001600090919091909150556001600b6000878152602001908152602001600020600083815260200190815260200160002060006101000a81548160ff02191690831515021790555050505050505050505050565b6060600c600083815260200190815260200160002080548060200260200160405190810160405280929190818152602001828054801561224657602002820191906000526020600020905b815481526020019060010190808311612232575b50505050509050919050565b60008151905060005b818110156123b4576001151560096000868152602001908152602001600020600085848151811061228f5761228e614776565b5b6020026020010151815260200190815260200160002060009054906101000a900460ff16151514156122f6576040517f08c379a00000000000000000000000000000000000000000000000000000000081526004016122ed90614d29565b60405180910390fd5b600a600085815260200190815260200160002083828151811061231c5761231b614776565b5b60200260200101519080600181540180825580915050600190039060005260206000200160009091909190915055600160096000868152602001908152602001600020600085848151811061237457612373614776565b5b6020026020010151815260200190815260200160002060006101000a81548160ff02191690831515021790555080806123ac906148ca565b91505061225b565b50505050565b60008151905060005b818110156126a45760011515600b600086815260200190815260200160002060008584815181106123f7576123f6614776565b5b6020026020010151815260200190815260200160002060009054906101000a900460ff1615151415612691576000600b6000868152602001908152602001600020600085848151811061244d5761244c614776565b5b6020026020010151815260200190815260200160002060006101000a81548160ff0219169083151502179055506000600c600086815260200190815260200160002080549050905060005b8181101561268e578483815181106124b3576124b2614776565b5b6020026020010151600c600088815260200190815260200160002082815481106124e0576124df614776565b5b9060005260206000200154141561267b5760008190505b6001836125049190614bee565b81101561258d57600c600088815260200190815260200160002060018261252b919061497f565b8154811061253c5761253b614776565b5b9060005260206000200154600c6000898152602001908152602001600020828154811061256c5761256b614776565b5b90600052602060002001819055508080612585906148ca565b9150506124f7565b50600c60008781526020019081526020016000208054806125b1576125b0614c22565b5b6001900381819060005260206000200160009055905560008060009054906101000a900473ffffffffffffffffffffffffffffffffffffffff1690508073ffffffffffffffffffffffffffffffffffffffff16635583071b87868151811061261c5761261b614776565b5b602002602001015160006040518363ffffffff1660e01b8152600401612643929190614d8e565b600060405180830381600087803b15801561265d57600080fd5b505af1158015612671573d6000803e3d6000fd5b505050505061268e565b8080612686906148ca565b915050612498565b50505b808061269c906148ca565b9150506123c3565b50505050565b606060006008600084815260200190815260200160002080548060200260200160405190810160405280929190818152602001828054801561270b57602002820191906000526020600020905b8154815260200190600101908083116126f7575b5050505050905060008151905060008167ffffffffffffffff8111156127345761273361355d565b5b60405190808252806020026020018201604052801561276d57816020015b61275a6133a1565b8152602001906001900390816127525790505b50905060005b828110156129515760078482815181106127905761278f614776565b5b6020026020010151815481106127a9576127a8614776565b5b90600052602060002090600502016040518060a00160405290816000820180546127d2906147d4565b80601f01602080910402602001604051908101604052809291908181526020018280546127fe906147d4565b801561284b5780601f106128205761010080835404028352916020019161284b565b820191906000526020600020905b81548152906001019060200180831161282e57829003601f168201915b50505050508152602001600182018054612864906147d4565b80601f0160208091040260200160405190810160405280929190818152602001828054612890906147d4565b80156128dd5780601f106128b2576101008083540402835291602001916128dd565b820191906000526020600020905b8154815290600101906020018083116128c057829003601f168201915b505050505081526020016002820160009054906101000a900463ffffffff1663ffffffff1663ffffffff1681526020016003820154815260200160048201548152505082828151811061293357612932614776565b5b60200260200101819052508080612949906148ca565b915050612773565b50809350505050919050565b60008060009054906101000a900473ffffffffffffffffffffffffffffffffffffffff16905060008173ffffffffffffffffffffffffffffffffffffffff16633e4e3b556040518163ffffffff1660e01b8152600401602060405180830381865afa1580156129d0573d6000803e3d6000fd5b505050506040513d601f19601f820116820180604052508101906129f4919061465d565b90508173ffffffffffffffffffffffffffffffffffffffff16632c98cfa88a8a8a8a8a8a8a6040518863ffffffff1660e01b8152600401612a3b9796959493929190614db7565b600060405180830381600087803b158015612a5557600080fd5b505af1158015612a69573d6000803e3d6000fd5b50505050600c60008581526020019081526020016000208190806001815401808255809150506001900390600052602060002001600090919091909150556001600b6000868152602001908152602001600020600083815260200190815260200160002060006101000a81548160ff021916908315150217905550505050505050505050565b60606000600a6000848152602001908152602001600020805480602002602001604051908101604052809291908181526020018280548015612b5057602002820191906000526020600020905b815481526020019060010190808311612b3c575b5050505050905060008151905060008167ffffffffffffffff811115612b7957612b7861355d565b5b604051908082528060200260200182016040528015612bb257816020015b612b9f6133d6565b815260200190600190039081612b975790505b50905060005b82811015612e7e576001848281518110612bd557612bd4614776565b5b602002602001015181548110612bee57612bed614776565b5b90600052602060002090600702016040518060e00160405290816000820160009054906101000a900473ffffffffffffffffffffffffffffffffffffffff1673ffffffffffffffffffffffffffffffffffffffff1673ffffffffffffffffffffffffffffffffffffffff168152602001600182018054612c6d906147d4565b80601f0160208091040260200160405190810160405280929190818152602001828054612c99906147d4565b8015612ce65780601f10612cbb57610100808354040283529160200191612ce6565b820191906000526020600020905b815481529060010190602001808311612cc957829003601f168201915b50505050508152602001600282018054612cff906147d4565b80601f0160208091040260200160405190810160405280929190818152602001828054612d2b906147d4565b8015612d785780601f10612d4d57610100808354040283529160200191612d78565b820191906000526020600020905b815481529060010190602001808311612d5b57829003601f168201915b50505050508152602001600382018054612d91906147d4565b80601f0160208091040260200160405190810160405280929190818152602001828054612dbd906147d4565b8015612e0a5780601f10612ddf57610100808354040283529160200191612e0a565b820191906000526020600020905b815481529060010190602001808311612ded57829003601f168201915b505050505081526020016004820160009054906101000a900463ffffffff1663ffffffff1663ffffffff16815260200160058201548152602001600682015481525050828281518110612e6057612e5f614776565b5b60200260200101819052508080612e76906148ca565b915050612bb8565b50809350505050919050565b60056020528160005260406000208181548110612ea657600080fd5b90600052602060002001600091509150505481565b6000600780549050905060076040518060a001604052808781526020018681526020018563ffffffff1681526020018481526020018381525090806001815401808255809150506001900390600052602060002090600502016000909190919091506000820151816000019080519060200190612f3992919061342f565b506020820151816001019080519060200190612f5692919061342f565b5060408201518160020160006101000a81548163ffffffff021916908363ffffffff16021790555060608201518160030155608082015181600401555050600860008381526020019081526020016000208190806001815401808255809150506001900390600052602060002001600090919091909150555050505050565b60066020528160005260406000208181548110612ff157600080fd5b90600052602060002001600091509150505481565b606060006003600084815260200190815260200160002080548060200260200160405190810160405280929190818152602001828054801561306757602002820191906000526020600020905b815481526020019060010190808311613053575b5050505050905060008151905060008167ffffffffffffffff8111156130905761308f61355d565b5b6040519080825280602002602001820160405280156130c957816020015b6130b66133d6565b8152602001906001900390816130ae5790505b50905060005b828110156133955760018482815181106130ec576130eb614776565b5b60200260200101518154811061310557613104614776565b5b90600052602060002090600702016040518060e00160405290816000820160009054906101000a900473ffffffffffffffffffffffffffffffffffffffff1673ffffffffffffffffffffffffffffffffffffffff1673ffffffffffffffffffffffffffffffffffffffff168152602001600182018054613184906147d4565b80601f01602080910402602001604051908101604052809291908181526020018280546131b0906147d4565b80156131fd5780601f106131d2576101008083540402835291602001916131fd565b820191906000526020600020905b8154815290600101906020018083116131e057829003601f168201915b50505050508152602001600282018054613216906147d4565b80601f0160208091040260200160405190810160405280929190818152602001828054613242906147d4565b801561328f5780601f106132645761010080835404028352916020019161328f565b820191906000526020600020905b81548152906001019060200180831161327257829003601f168201915b505050505081526020016003820180546132a8906147d4565b80601f01602080910402602001604051908101604052809291908181526020018280546132d4906147d4565b80156133215780601f106132f657610100808354040283529160200191613321565b820191906000526020600020905b81548152906001019060200180831161330457829003601f168201915b505050505081526020016004820160009054906101000a900463ffffffff1663ffffffff1663ffffffff1681526020016005820154815260200160068201548152505082828151811061337757613376614776565b5b6020026020010181905250808061338d906148ca565b9150506130cf565b50809350505050919050565b6040518060a001604052806060815260200160608152602001600063ffffffff16815260200160008152602001600081525090565b6040518060e00160405280600073ffffffffffffffffffffffffffffffffffffffff168152602001606081526020016060815260200160608152602001600063ffffffff16815260200160008152602001600081525090565b82805461343b906147d4565b90600052602060002090601f01602090048101928261345d57600085556134a4565b82601f1061347657805160ff19168380011785556134a4565b828001600101855582156134a4579182015b828111156134a3578251825591602001919060010190613488565b5b5090506134b191906134b5565b5090565b5b808211156134ce5760008160009055506001016134b6565b5090565b600073ffffffffffffffffffffffffffffffffffffffff82169050919050565b60006134fd826134d2565b9050919050565b61350d816134f2565b82525050565b60006020820190506135286000830184613504565b92915050565b6000604051905090565b600080fd5b600080fd5b600080fd5b600080fd5b6000601f19601f8301169050919050565b7f4e487b7100000000000000000000000000000000000000000000000000000000600052604160045260246000fd5b6135958261354c565b810181811067ffffffffffffffff821117156135b4576135b361355d565b5b80604052505050565b60006135c761352e565b90506135d3828261358c565b919050565b600067ffffffffffffffff8211156135f3576135f261355d565b5b6135fc8261354c565b9050602081019050919050565b82818337600083830152505050565b600061362b613626846135d8565b6135bd565b90508281526020810184848401111561364757613646613547565b5b613652848285613609565b509392505050565b600082601f83011261366f5761366e613542565b5b813561367f848260208601613618565b91505092915050565b6000819050919050565b61369b81613688565b81146136a657600080fd5b50565b6000813590506136b881613692565b92915050565b600060ff82169050919050565b6136d4816136be565b81146136df57600080fd5b50565b6000813590506136f1816136cb565b92915050565b600080600080600080600080610100898b03121561371857613717613538565b5b600089013567ffffffffffffffff8111156137365761373561353d565b5b6137428b828c0161365a565b98505060206137538b828c016136a9565b97505060406137648b828c016136a9565b96505060606137758b828c016136a9565b95505060806137868b828c016136e2565b94505060a06137978b828c016136a9565b93505060c089013567ffffffffffffffff8111156137b8576137b761353d565b5b6137c48b828c0161365a565b92505060e089013567ffffffffffffffff8111156137e5576137e461353d565b5b6137f18b828c0161365a565b9150509295985092959890939650565b60006020828403121561381757613816613538565b5b6000613825848285016136a9565b91505092915050565b600081519050919050565b600082825260208201905092915050565b60005b8381101561386857808201518184015260208101905061384d565b83811115613877576000848401525b50505050565b60006138888261382e565b6138928185613839565b93506138a281856020860161384a565b6138ab8161354c565b840191505092915050565b600063ffffffff82169050919050565b6138cf816138b6565b82525050565b6138de81613688565b82525050565b600060a0830160008301518482036000860152613901828261387d565b9150506020830151848203602086015261391b828261387d565b915050604083015161393060408601826138c6565b50606083015161394360608601826138d5565b50608083015161395660808601826138d5565b508091505092915050565b6000602082019050818103600083015261397b81846138e4565b905092915050565b61398c816134f2565b82525050565b600060e0830160008301516139aa6000860182613983565b50602083015184820360208601526139c2828261387d565b915050604083015184820360408601526139dc828261387d565b915050606083015184820360608601526139f6828261387d565b9150506080830151613a0b60808601826138c6565b5060a0830151613a1e60a08601826138d5565b5060c0830151613a3160c08601826138d5565b508091505092915050565b60006020820190508181036000830152613a568184613992565b905092915050565b600067ffffffffffffffff821115613a7957613a7861355d565b5b602082029050602081019050919050565b600080fd5b6000613aa2613a9d84613a5e565b6135bd565b90508083825260208201905060208402830185811115613ac557613ac4613a8a565b5b835b81811015613aee5780613ada88826136a9565b845260208401935050602081019050613ac7565b5050509392505050565b600082601f830112613b0d57613b0c613542565b5b8135613b1d848260208601613a8f565b91505092915050565b60008060408385031215613b3d57613b3c613538565b5b6000613b4b858286016136a9565b925050602083013567ffffffffffffffff811115613b6c57613b6b61353d565b5b613b7885828601613af8565b9150509250929050565b613b8b816134f2565b8114613b9657600080fd5b50565b600081359050613ba881613b82565b92915050565b613bb7816138b6565b8114613bc257600080fd5b50565b600081359050613bd481613bae565b92915050565b60008060008060008060c08789031215613bf757613bf6613538565b5b6000613c0589828a01613b99565b965050602087013567ffffffffffffffff811115613c2657613c2561353d565b5b613c3289828a0161365a565b955050604087013567ffffffffffffffff811115613c5357613c5261353d565b5b613c5f89828a0161365a565b945050606087013567ffffffffffffffff811115613c8057613c7f61353d565b5b613c8c89828a0161365a565b9350506080613c9d89828a01613bc5565b92505060a0613cae89828a016136a9565b9150509295509295509295565b600081519050919050565b600082825260208201905092915050565b6000819050602082019050919050565b600060e083016000830151613cff6000860182613983565b5060208301518482036020860152613d17828261387d565b91505060408301518482036040860152613d31828261387d565b91505060608301518482036060860152613d4b828261387d565b9150506080830151613d6060808601826138c6565b5060a0830151613d7360a08601826138d5565b5060c0830151613d8660c08601826138d5565b508091505092915050565b6000613d9d8383613ce7565b905092915050565b6000602082019050919050565b6000613dbd82613cbb565b613dc78185613cc6565b935083602082028501613dd985613cd7565b8060005b85811015613e155784840389528151613df68582613d91565b9450613e0183613da5565b925060208a01995050600181019050613ddd565b50829750879550505050505092915050565b60006020820190508181036000830152613e418184613db2565b905092915050565b613e5281613688565b82525050565b6000602082019050613e6d6000830184613e49565b92915050565b600060208284031215613e8957613e88613538565b5b6000613e9784828501613b99565b91505092915050565b60008115159050919050565b613eb581613ea0565b82525050565b6000602082019050613ed06000830184613eac565b92915050565b60008060008060008060008060006101208a8c031215613ef957613ef8613538565b5b60008a013567ffffffffffffffff811115613f1757613f1661353d565b5b613f238c828d0161365a565b9950506020613f348c828d016136a9565b9850506040613f458c828d016136a9565b9750506060613f568c828d016136a9565b9650506080613f678c828d016136e2565b95505060a0613f788c828d016136a9565b94505060c08a013567ffffffffffffffff811115613f9957613f9861353d565b5b613fa58c828d0161365a565b93505060e08a013567ffffffffffffffff811115613fc657613fc561353d565b5b613fd28c828d0161365a565b925050610100613fe48c828d016136e2565b9150509295985092959850929598565b6000806000806000806000806000806101408b8d03121561401857614017613538565b5b60008b013567ffffffffffffffff8111156140365761403561353d565b5b6140428d828e0161365a565b9a505060206140538d828e016136a9565b99505060406140648d828e016136a9565b98505060606140758d828e016136a9565b97505060806140868d828e016136e2565b96505060a06140978d828e016136a9565b95505060c08b013567ffffffffffffffff8111156140b8576140b761353d565b5b6140c48d828e0161365a565b94505060e08b013567ffffffffffffffff8111156140e5576140e461353d565b5b6140f18d828e0161365a565b9350506101008b013567ffffffffffffffff8111156141135761411261353d565b5b61411f8d828e0161365a565b9250506101206141318d828e016136e2565b9150509295989b9194979a5092959850565b600081519050919050565b600082825260208201905092915050565b6000819050602082019050919050565b600061417b83836138d5565b60208301905092915050565b6000602082019050919050565b600061419f82614143565b6141a9818561414e565b93506141b48361415f565b8060005b838110156141e55781516141cc888261416f565b97506141d783614187565b9250506001810190506141b8565b5085935050505092915050565b6000602082019050818103600083015261420c8184614194565b905092915050565b61421d81613ea0565b811461422857600080fd5b50565b60008135905061423a81614214565b92915050565b600080600080600080600080610100898b03121561426157614260613538565b5b600089013567ffffffffffffffff81111561427f5761427e61353d565b5b61428b8b828c0161365a565b985050602061429c8b828c016136a9565b97505060406142ad8b828c016136a9565b96505060606142be8b828c016136a9565b95505060806142cf8b828c016136e2565b94505060a06142e08b828c016136a9565b93505060c089013567ffffffffffffffff8111156143015761430061353d565b5b61430d8b828c0161365a565b92505060e061431e8b828c0161422b565b9150509295985092959890939650565b600081519050919050565b600082825260208201905092915050565b6000819050602082019050919050565b600060a0830160008301518482036000860152614377828261387d565b91505060208301518482036020860152614391828261387d565b91505060408301516143a660408601826138c6565b5060608301516143b960608601826138d5565b5060808301516143cc60808601826138d5565b508091505092915050565b60006143e3838361435a565b905092915050565b6000602082019050919050565b60006144038261432e565b61440d8185614339565b93508360208202850161441f8561434a565b8060005b8581101561445b578484038952815161443c85826143d7565b9450614447836143eb565b925060208a01995050600181019050614423565b50829750879550505050505092915050565b6000602082019050818103600083015261448781846143f8565b905092915050565b600080600080600080600060e0888a0312156144ae576144ad613538565b5b600088013567ffffffffffffffff8111156144cc576144cb61353d565b5b6144d88a828b0161365a565b97505060206144e98a828b016136a9565b96505060406144fa8a828b016136a9565b955050606061450b8a828b016136a9565b945050608061451c8a828b016136e2565b93505060a061452d8a828b016136a9565b92505060c088013567ffffffffffffffff81111561454e5761454d61353d565b5b61455a8a828b0161365a565b91505092959891949750929550565b600080604083850312156145805761457f613538565b5b600061458e858286016136a9565b925050602061459f858286016136a9565b9150509250929050565b600080600080608085870312156145c3576145c2613538565b5b600085013567ffffffffffffffff8111156145e1576145e061353d565b5b6145ed8782880161365a565b945050602085013567ffffffffffffffff81111561460e5761460d61353d565b5b61461a8782880161365a565b935050604061462b87828801613bc5565b925050606061463c878288016136a9565b91505092959194509250565b60008151905061465781613692565b92915050565b60006020828403121561467357614672613538565b5b600061468184828501614648565b91505092915050565b600082825260208201905092915050565b60006146a68261382e565b6146b0818561468a565b93506146c081856020860161384a565b6146c98161354c565b840191505092915050565b6146dd816136be565b82525050565b60006101008201905081810360008301526146fe818b61469b565b905061470d602083018a613e49565b61471a6040830189613e49565b6147276060830188613e49565b61473460808301876146d4565b61474160a0830186613e49565b81810360c0830152614753818561469b565b905081810360e0830152614767818461469b565b90509998505050505050505050565b7f4e487b7100000000000000000000000000000000000000000000000000000000600052603260045260246000fd5b7f4e487b7100000000000000000000000000000000000000000000000000000000600052602260045260246000fd5b600060028204905060018216806147ec57607f821691505b60208210811415614800576147ff6147a5565b5b50919050565b7f417373657420616c726561647920696e206465706172746d656e740000000000600082015250565b600061483c601b8361468a565b915061484782614806565b602082019050919050565b6000602082019050818103600083015261486b8161482f565b9050919050565b60006040820190506148876000830185613e49565b6148946020830184613e49565b9392505050565b7f4e487b7100000000000000000000000000000000000000000000000000000000600052601160045260246000fd5b60006148d582613688565b91507fffffffffffffffffffffffffffffffffffffffffffffffffffffffffffffffff8214156149085761490761489b565b5b600182019050919050565b7f4164647265737320616c72656164792072656769737465726564000000000000600082015250565b6000614949601a8361468a565b915061495482614913565b602082019050919050565b600060208201905081810360008301526149788161493c565b9050919050565b600061498a82613688565b915061499583613688565b9250827fffffffffffffffffffffffffffffffffffffffffffffffffffffffffffffffff038211156149ca576149c961489b565b5b828201905092915050565b7f4f72674964206e6f7420666f756e640000000000000000000000000000000000600082015250565b6000614a0b600f8361468a565b9150614a16826149d5565b602082019050919050565b60006020820190508181036000830152614a3a816149fe565b9050919050565b6000608082019050614a566000830187613504565b8181036020830152614a68818661469b565b90508181036040830152614a7c818561469b565b9050614a8b6060830184613e49565b95945050505050565b6000610120820190508181036000830152614aaf818c61469b565b9050614abe602083018b613e49565b614acb604083018a613e49565b614ad86060830189613e49565b614ae560808301886146d4565b614af260a0830187613e49565b81810360c0830152614b04818661469b565b905081810360e0830152614b18818561469b565b9050614b286101008301846146d4565b9a9950505050505050505050565b6000610140820190508181036000830152614b51818d61469b565b9050614b60602083018c613e49565b614b6d604083018b613e49565b614b7a606083018a613e49565b614b8760808301896146d4565b614b9460a0830188613e49565b81810360c0830152614ba6818761469b565b905081810360e0830152614bba818661469b565b9050818103610100830152614bcf818561469b565b9050614bdf6101208301846146d4565b9b9a5050505050505050505050565b6000614bf982613688565b9150614c0483613688565b925082821015614c1757614c1661489b565b5b828203905092915050565b7f4e487b7100000000000000000000000000000000000000000000000000000000600052603160045260246000fd5b6000610100820190508181036000830152614c6c818b61469b565b9050614c7b602083018a613e49565b614c886040830189613e49565b614c956060830188613e49565b614ca260808301876146d4565b614caf60a0830186613e49565b81810360c0830152614cc1818561469b565b9050614cd060e0830184613eac565b9998505050505050505050565b7f5573657220616c726561647920696e206465706172746d656e74000000000000600082015250565b6000614d13601a8361468a565b9150614d1e82614cdd565b602082019050919050565b60006020820190508181036000830152614d4281614d06565b9050919050565b6000819050919050565b6000819050919050565b6000614d78614d73614d6e84614d49565b614d53565b613688565b9050919050565b614d8881614d5d565b82525050565b6000604082019050614da36000830185613e49565b614db06020830184614d7f565b9392505050565b600060e0820190508181036000830152614dd1818a61469b565b9050614de06020830189613e49565b614ded6040830188613e49565b614dfa6060830187613e49565b614e0760808301866146d4565b614e1460a0830185613e49565b81810360c0830152614e26818461469b565b90509897505050505050505056fea26469706673582212203fc3c124671f7ac47b4e035dc43acf57450a1bddf0bb108b4394f5b66a9b59c264736f6c634300080c0033",
  "immutableReferences": {},
  "source": "// SPDX-License-Identifier: MIT\r\npragma solidity >=0.7.0 <0.9.10;\r\nimport \"./Main.sol\";\r\n\r\ncontract Users {\r\n\r\n    address public mainAddr;\r\n\r\n    constructor (address _mainAddr){\r\n        mainAddr = _mainAddr;\r\n        departList.push(Department('0','0',0,0,0));\r\n    }\r\n\r\n    event Register(\r\n        address addr, \r\n        string name,\r\n        string surname,\r\n        uint orgId \r\n    );\r\n\r\n    struct User {\r\n        address addr;\r\n        string name;\r\n        string surname;\r\n        string email;\r\n        uint32 telephone;\r\n        uint orgId;\r\n        uint256 index;\r\n    }\r\n\r\n    User[] private userList;\r\n    address[] private users;\r\n    mapping(uint256 => uint256[]) orgIdToUserList;\r\n\r\n\r\n    mapping(address => uint) addressToId;\r\n\r\n\r\n\r\n    function isUser(address userAddress) public view returns (bool isIndeed) {\r\n        if (users.length == 0) return false;\r\n        return (users[addressToId[userAddress]] == userAddress);\r\n    }\r\n\r\n   \r\n\r\n    function insertUser(\r\n        address addr, \r\n        string memory name, \r\n        string memory surname, \r\n        string memory email, \r\n        uint32 telephone,\r\n        uint orgId \r\n    ) public {\r\n        //Instance main contract to see if the id of the org exists\r\n        Main mainInstance = Main(mainAddr);\r\n\r\n        if(isUser(addr)) revert(\"Address already registered\");\r\n        if((mainInstance.orgCount()) < (uint256(orgId)+1)) revert(\"OrgId not found\");\r\n        uint userId = userList.length;\r\n        userList.push(User(addr, name, surname, email, telephone, orgId, userId));\r\n        orgIdToUserList[orgId].push(userId);\r\n        addressToId[addr] = userId;\r\n        users.push(addr);\r\n        emit Register(addr, name, surname, orgId);\r\n    }\r\n\r\n\r\n\r\n    function getAllUsersFromOrg(uint orgId) public view returns(User[] memory){\r\n        uint[] memory idList = orgIdToUserList[orgId];\r\n        uint cont = idList.length;\r\n        User[] memory usersFromOrg = new User[](cont);\r\n\r\n        for (uint i = 0; i < cont; i++) {\r\n            usersFromOrg[i] = userList[idList[i]];\r\n        }\r\n        return usersFromOrg;\r\n    }\r\n\r\n    function getNumUsersFromOrg(uint orgId) public view returns(uint){\r\n        uint usersFromOrg = orgIdToUserList[orgId].length;\r\n        return usersFromOrg;\r\n    }\r\n\r\n\r\n\r\n    function getUserData(uint userId) public view returns(User memory){\r\n        return userList[userId];\r\n    }\r\n\r\n    //RELATION BETWEEN ASSET AND USER\r\n\r\n    mapping(uint => uint[]) public userIdToAssetList;\r\n    mapping(uint => uint[]) public assetToListOfUsers;\r\n\r\n\r\n    function insertUsersToAsset(uint assetId, uint[] memory userIds) public {\r\n        uint cont = userIds.length;\r\n        for (uint i = 0; i < cont; i++) {\r\n            userIdToAssetList[userIds[i]].push(assetId);\r\n            assetToListOfUsers[assetId].push(userIds[i]);\r\n        }\r\n\r\n        \r\n    }\r\n\r\n    function getUserAssets(uint userId) public view returns(uint[] memory assetIds){\r\n        return userIdToAssetList[userId];\r\n    }\r\n\r\n    function getAssetUsers(uint assetId) public view returns(User[] memory){\r\n        uint[] memory list = assetToListOfUsers[assetId];\r\n        uint cont = list.length;\r\n        User[] memory usersOfAsset = new User[](cont);\r\n        for (uint i = 0; i < cont; i++) {\r\n            usersOfAsset[i] = userList[list[i]];\r\n        }\r\n        return usersOfAsset;\r\n    }\r\n\r\n\r\n    //DEPARTMENTS\r\n    \r\n    struct Department {\r\n        string name;\r\n        string description;\r\n        uint32 telephone;\r\n        uint orgId;\r\n        uint256 index;\r\n    }\r\n\r\n    Department[] private departList;\r\n    mapping(uint256 => uint256[]) orgIdToDepartList;\r\n\r\n\r\n    \r\n    mapping(uint => mapping(uint => bool)) departToUserBool;\r\n    mapping(uint => uint[]) departIdToUserList;\r\n\r\n\r\n    function insertDepartment(string memory name,\r\n        string memory description,\r\n        uint32 telephone,\r\n        uint orgId\r\n        ) public {\r\n            uint departId = departList.length;\r\n            departList.push(Department(name, description, telephone, orgId, departId));\r\n            orgIdToDepartList[orgId].push(departId);\r\n    }\r\n\r\n    function getDepartment(uint departId) public view returns(Department memory){\r\n        return departList[departId];\r\n    }\r\n\r\n    function getAllDepartmentsFromOrg(uint orgId) public view returns(Department[] memory){\r\n        uint[] memory idList = orgIdToDepartList[orgId];\r\n        uint cont = idList.length;\r\n        Department[] memory departFromOrg = new Department[](cont);\r\n\r\n        for (uint i = 0; i < cont; i++) {\r\n            departFromOrg[i] = departList[idList[i]];\r\n        }\r\n        return departFromOrg;\r\n    }\r\n\r\n\r\n\r\n    //USERS from department\r\n    function insertUserToDepartment(uint departId, uint[] memory userIds) public {\r\n        uint cont = userIds.length;\r\n        for (uint i = 0; i < cont; i++) {\r\n            if(departToUserBool[departId][userIds[i]] == true) {\r\n                revert(\"User already in department\");\r\n            } else {\r\n                departIdToUserList[departId].push(userIds[i]);\r\n                departToUserBool[departId][userIds[i]] = true;\r\n            }\r\n            \r\n        }\r\n    }\r\n\r\n    //If admin wants to delete any user from the department\r\n    //first we will need to find that user \r\n    //and then delete the index \r\n    function deleteUsersFromDepartment(uint departId, uint[] memory userIds) public {\r\n        uint userCont = userIds.length;\r\n        for (uint i = 0; i < userCont; i++) {\r\n            if(departToUserBool[departId][userIds[i]] == true) {\r\n                departToUserBool[departId][userIds[i]] = false;\r\n                uint departUsers = departIdToUserList[departId].length;\r\n                for(uint o = 0; o < departUsers; o++){\r\n                    if (departIdToUserList[departId][o] == userIds[i]){\r\n                        for (uint e = o; e<departUsers-1; e++){\r\n                            departIdToUserList[departId][e] = departIdToUserList[departId][e+1];\r\n                        }\r\n                        departIdToUserList[departId].pop();\r\n                        break;\r\n                    }\r\n                }\r\n            }\r\n        }\r\n    }\r\n\r\n\r\n    function getUsersIdsFromDepart(uint departId) public view returns(uint[] memory){\r\n        return departIdToUserList[departId];\r\n        \r\n    }\r\n\r\n\r\n\r\n    function getUsersFromDepart(uint departId) public view returns(User[] memory){\r\n        uint[] memory idList = departIdToUserList[departId];\r\n        uint cont = idList.length;\r\n        User[] memory usersFromDepart = new User[](cont);\r\n\r\n        for (uint i = 0; i < cont; i++) {\r\n            usersFromDepart[i] = userList[idList[i]];\r\n        }\r\n        return usersFromDepart;\r\n    }\r\n\r\n    mapping(uint => mapping(uint => bool)) departToAssetBool;\r\n    mapping(uint => uint[]) departIdToAssetList;\r\n\r\n    //ASSETS from department\r\n    function insertAssetToDepartment(uint departId, uint[] memory assetsIds) public {\r\n        uint cont = assetsIds.length;\r\n        for (uint i = 0; i < cont; i++) {\r\n            if(departToAssetBool[departId][assetsIds[i]] == true) {\r\n                revert(\"Asset already in department\");\r\n            } else {\r\n                departIdToAssetList[departId].push(assetsIds[i]);\r\n                departToAssetBool[departId][assetsIds[i]] = true;\r\n                Main mainInstance = Main(mainAddr);\r\n                mainInstance.insertAssetToDepartment(assetsIds[i], departId);\r\n            }\r\n            \r\n        }\r\n    }\r\n\r\n    function deleteAssetFromDepartment(uint departId, uint[] memory assetsIds) public {\r\n        uint assetCont = assetsIds.length;\r\n        for (uint i = 0; i < assetCont; i++) {\r\n            if(departToAssetBool[departId][assetsIds[i]] == true) {\r\n                departToAssetBool[departId][assetsIds[i]] = false;\r\n                uint departAssets = departIdToAssetList[departId].length;\r\n                for(uint o = 0; o < departAssets; o++){\r\n                    if (departIdToAssetList[departId][o] == assetsIds[i]){\r\n                        for (uint e = o; e < departAssets-1; e++){\r\n                            departIdToAssetList[departId][e] = departIdToAssetList[departId][e+1];\r\n                        }\r\n                        departIdToAssetList[departId].pop();\r\n                        Main mainInstance = Main(mainAddr);\r\n                        mainInstance.insertAssetToDepartment(assetsIds[i], 0);\r\n                        break;\r\n                    }\r\n                }\r\n            }\r\n        }\r\n    }\r\n\r\n    function getAssetsIdsFromDepart(uint departId) public view returns(uint[] memory){\r\n        return departIdToAssetList[departId];\r\n        \r\n    }\r\n\r\n\r\n    function insertNewSAssetWithDepartment(string memory name,\r\n        uint256 organizationId,\r\n        uint256 adquireDate,\r\n        uint256 creationDate,\r\n        uint8 assetType,\r\n        uint256 assetDepart,\r\n        string memory version, \r\n        string memory provider, \r\n        uint8 stype) public {\r\n            Main mainInstance = Main(mainAddr);\r\n            uint id = mainInstance.getIdAsset();\r\n            mainInstance.insertNewSoftAsset(name, organizationId, adquireDate, creationDate, assetType, assetDepart, version, provider, stype);\r\n            departIdToAssetList[assetDepart].push(id);\r\n            departToAssetBool[assetDepart][id] = true;\r\n        }\r\n\r\n    \r\n    function insertNewHAssetWithDepartment(string memory name,\r\n        uint256 organizationId,\r\n        uint256 adquireDate,\r\n        uint256 creationDate,\r\n        uint8 assetType,\r\n        uint256 assetDepart,\r\n        string memory model, \r\n        string memory provider, \r\n        string memory serialNumber, \r\n        uint8 htype) public {\r\n            Main mainInstance = Main(mainAddr);\r\n            uint id = mainInstance.getIdAsset();\r\n            mainInstance.insertNewHardAsset(name, organizationId, adquireDate, creationDate, assetType, assetDepart, model, provider, serialNumber, htype);\r\n            departIdToAssetList[assetDepart].push(id);\r\n            departToAssetBool[assetDepart][id] = true;\r\n        }\r\n\r\n    function insertNewDocAssetWithDepartment(string memory name,\r\n        uint256 organizationId,\r\n        uint256 adquireDate,\r\n        uint256 creationDate,\r\n        uint8 assetType,\r\n        uint256 assetDepart,\r\n        string memory description,\r\n        string memory location,\r\n        uint8 doctype) public {\r\n            Main mainInstance = Main(mainAddr);\r\n            uint id = mainInstance.getIdAsset();\r\n            mainInstance.insertNewDocAsset(name, organizationId, adquireDate, creationDate, assetType, assetDepart, description, location, doctype);\r\n            departIdToAssetList[assetDepart].push(id);\r\n            departToAssetBool[assetDepart][id] = true;\r\n        }\r\n\r\n    function insertNewDataAssetWithDepartment(string memory name,\r\n        uint256 organizationId,\r\n        uint256 adquireDate,\r\n        uint256 creationDate,\r\n        uint8 assetType,\r\n        uint256 assetDepart,\r\n        string memory location, \r\n        bool local) public {\r\n            Main mainInstance = Main(mainAddr);\r\n            uint id = mainInstance.getIdAsset();\r\n            mainInstance.insertNewDataAsset(name, organizationId, adquireDate, creationDate, assetType, assetDepart, location, local);\r\n            departIdToAssetList[assetDepart].push(id);\r\n            departToAssetBool[assetDepart][id] = true;\r\n        }\r\n\r\n\r\n    function insertNewNAssetWithDepartment(string memory name,\r\n        uint256 organizationId,\r\n        uint256 adquireDate,\r\n        uint256 creationDate,\r\n        uint8 assetType,\r\n        uint256 assetDepart,\r\n        string memory cidrblock, \r\n        bool nat) public {\r\n            Main mainInstance = Main(mainAddr);\r\n            uint id = mainInstance.getIdAsset();\r\n            mainInstance.insertNewNetworkAsset(name, organizationId, adquireDate, creationDate, assetType, assetDepart, cidrblock, nat);\r\n            departIdToAssetList[assetDepart].push(id);\r\n            departToAssetBool[assetDepart][id] = true;\r\n        }\r\n\r\n\r\n    function insertNewCAssetWithDepartment(string memory name,\r\n        uint256 organizationId,\r\n        uint256 adquireDate,\r\n        uint256 creationDate,\r\n        uint8 assetType,\r\n        uint256 assetDepart,\r\n        string memory url, \r\n        string memory domain) public {\r\n            Main mainInstance = Main(mainAddr);\r\n            uint id = mainInstance.getIdAsset();\r\n            mainInstance.insertNewCloudAsset(name, organizationId, adquireDate, creationDate, assetType, assetDepart, url, domain);\r\n            departIdToAssetList[assetDepart].push(id);\r\n            departToAssetBool[assetDepart][id] = true;\r\n        }\r\n\r\n    function insertNewOAssetWithDepartment(string memory name,\r\n        uint256 organizationId,\r\n        uint256 adquireDate,\r\n        uint256 creationDate,\r\n        uint8 assetType,\r\n        uint256 assetDepart,\r\n        string memory description) public {\r\n            Main mainInstance = Main(mainAddr);\r\n            uint id = mainInstance.getIdAsset();\r\n            mainInstance.insertNewOtherAsset(name, organizationId, adquireDate, creationDate, assetType, assetDepart, description);\r\n            departIdToAssetList[assetDepart].push(id);\r\n            departToAssetBool[assetDepart][id] = true;\r\n        }\r\n\r\n        \r\n\r\n\r\n}",
  "sourcePath": "D:\\GIT\\inventory-blockchain\\blockchain\\contracts\\Users.sol",
  "compiler": {
    "name": "solc",
    "version": "0.8.12+commit.f00d7308.Emscripten.clang"
  },
  "schemaVersion": "3.4.6",
  "updatedAt": "2022-05-07T17:47:00.303Z",
  "networkType": "ethereum",
  "devdoc": {
    "kind": "dev",
    "methods": {},
    "version": 1
  },
  "userdoc": {
    "kind": "user",
    "methods": {},
    "version": 1
  }
}