{
  "contractName": "Users",
  "abi": [
    {
      "inputs": [
        {
          "internalType": "address",
          "name": "_mainAddr",
          "type": "address"
        }
      ],
      "stateMutability": "nonpayable",
      "type": "constructor"
    },
    {
      "anonymous": false,
      "inputs": [
        {
          "indexed": false,
          "internalType": "address",
          "name": "addr",
          "type": "address"
        },
        {
          "indexed": false,
          "internalType": "string",
          "name": "name",
          "type": "string"
        },
        {
          "indexed": false,
          "internalType": "string",
          "name": "surname",
          "type": "string"
        },
        {
          "indexed": false,
          "internalType": "uint256",
          "name": "orgId",
          "type": "uint256"
        }
      ],
      "name": "Register",
      "type": "event"
    },
    {
      "inputs": [
        {
          "internalType": "uint256",
          "name": "",
          "type": "uint256"
        },
        {
          "internalType": "uint256",
          "name": "",
          "type": "uint256"
        }
      ],
      "name": "assetToListOfUsers",
      "outputs": [
        {
          "internalType": "uint256",
          "name": "",
          "type": "uint256"
        }
      ],
      "stateMutability": "view",
      "type": "function",
      "constant": true
    },
    {
      "inputs": [],
      "name": "mainAddr",
      "outputs": [
        {
          "internalType": "address",
          "name": "",
          "type": "address"
        }
      ],
      "stateMutability": "view",
      "type": "function",
      "constant": true
    },
    {
      "inputs": [
        {
          "internalType": "uint256",
          "name": "",
          "type": "uint256"
        },
        {
          "internalType": "uint256",
          "name": "",
          "type": "uint256"
        }
      ],
      "name": "userIdToAssetList",
      "outputs": [
        {
          "internalType": "uint256",
          "name": "",
          "type": "uint256"
        }
      ],
      "stateMutability": "view",
      "type": "function",
      "constant": true
    },
    {
      "inputs": [
        {
          "internalType": "string",
          "name": "name",
          "type": "string"
        },
        {
          "internalType": "string",
          "name": "description",
          "type": "string"
        },
        {
          "internalType": "uint32",
          "name": "telephone",
          "type": "uint32"
        },
        {
          "internalType": "uint256",
          "name": "orgId",
          "type": "uint256"
        }
      ],
      "name": "insertDepartment",
      "outputs": [],
      "stateMutability": "nonpayable",
      "type": "function"
    },
    {
      "inputs": [
        {
          "internalType": "uint256",
          "name": "orgId",
          "type": "uint256"
        }
      ],
      "name": "getDepartFromOrg",
      "outputs": [
        {
          "components": [
            {
              "internalType": "string",
              "name": "name",
              "type": "string"
            },
            {
              "internalType": "string",
              "name": "description",
              "type": "string"
            },
            {
              "internalType": "uint32",
              "name": "telephone",
              "type": "uint32"
            },
            {
              "internalType": "uint256",
              "name": "orgId",
              "type": "uint256"
            },
            {
              "internalType": "uint256",
              "name": "index",
              "type": "uint256"
            }
          ],
          "internalType": "struct Users.Department[]",
          "name": "",
          "type": "tuple[]"
        }
      ],
      "stateMutability": "view",
      "type": "function",
      "constant": true
    },
    {
      "inputs": [
        {
          "internalType": "uint256",
          "name": "departId",
          "type": "uint256"
        },
        {
          "internalType": "uint256[]",
          "name": "userIds",
          "type": "uint256[]"
        }
      ],
      "name": "insertUserToDepartment",
      "outputs": [],
      "stateMutability": "nonpayable",
      "type": "function"
    },
    {
      "inputs": [
        {
          "internalType": "uint256",
          "name": "departId",
          "type": "uint256"
        },
        {
          "internalType": "uint256[]",
          "name": "userIds",
          "type": "uint256[]"
        }
      ],
      "name": "deleteUsersFromDepartment",
      "outputs": [],
      "stateMutability": "nonpayable",
      "type": "function"
    },
    {
      "inputs": [
        {
          "internalType": "uint256",
          "name": "departId",
          "type": "uint256"
        }
      ],
      "name": "getUsersIdsFromDepart",
      "outputs": [
        {
          "internalType": "uint256[]",
          "name": "",
          "type": "uint256[]"
        }
      ],
      "stateMutability": "view",
      "type": "function",
      "constant": true
    },
    {
      "inputs": [
        {
          "internalType": "uint256",
          "name": "departId",
          "type": "uint256"
        }
      ],
      "name": "getUsersFromDepart",
      "outputs": [
        {
          "components": [
            {
              "internalType": "address",
              "name": "addr",
              "type": "address"
            },
            {
              "internalType": "string",
              "name": "name",
              "type": "string"
            },
            {
              "internalType": "string",
              "name": "surname",
              "type": "string"
            },
            {
              "internalType": "string",
              "name": "email",
              "type": "string"
            },
            {
              "internalType": "uint32",
              "name": "telephone",
              "type": "uint32"
            },
            {
              "internalType": "uint256",
              "name": "orgId",
              "type": "uint256"
            },
            {
              "internalType": "uint256",
              "name": "index",
              "type": "uint256"
            }
          ],
          "internalType": "struct Users.User[]",
          "name": "",
          "type": "tuple[]"
        }
      ],
      "stateMutability": "view",
      "type": "function",
      "constant": true
    },
    {
      "inputs": [
        {
          "internalType": "address",
          "name": "userAddress",
          "type": "address"
        }
      ],
      "name": "isUser",
      "outputs": [
        {
          "internalType": "bool",
          "name": "isIndeed",
          "type": "bool"
        }
      ],
      "stateMutability": "view",
      "type": "function",
      "constant": true
    },
    {
      "inputs": [
        {
          "internalType": "address",
          "name": "addr",
          "type": "address"
        },
        {
          "internalType": "string",
          "name": "name",
          "type": "string"
        },
        {
          "internalType": "string",
          "name": "surname",
          "type": "string"
        },
        {
          "internalType": "string",
          "name": "email",
          "type": "string"
        },
        {
          "internalType": "uint32",
          "name": "telephone",
          "type": "uint32"
        },
        {
          "internalType": "uint256",
          "name": "orgId",
          "type": "uint256"
        }
      ],
      "name": "insertUser",
      "outputs": [],
      "stateMutability": "nonpayable",
      "type": "function"
    },
    {
      "inputs": [
        {
          "internalType": "uint256",
          "name": "orgId",
          "type": "uint256"
        }
      ],
      "name": "getAllUsersFromOrg",
      "outputs": [
        {
          "components": [
            {
              "internalType": "address",
              "name": "addr",
              "type": "address"
            },
            {
              "internalType": "string",
              "name": "name",
              "type": "string"
            },
            {
              "internalType": "string",
              "name": "surname",
              "type": "string"
            },
            {
              "internalType": "string",
              "name": "email",
              "type": "string"
            },
            {
              "internalType": "uint32",
              "name": "telephone",
              "type": "uint32"
            },
            {
              "internalType": "uint256",
              "name": "orgId",
              "type": "uint256"
            },
            {
              "internalType": "uint256",
              "name": "index",
              "type": "uint256"
            }
          ],
          "internalType": "struct Users.User[]",
          "name": "",
          "type": "tuple[]"
        }
      ],
      "stateMutability": "view",
      "type": "function",
      "constant": true
    },
    {
      "inputs": [
        {
          "internalType": "uint256",
          "name": "orgId",
          "type": "uint256"
        }
      ],
      "name": "getNumUsersFromOrg",
      "outputs": [
        {
          "internalType": "uint256",
          "name": "",
          "type": "uint256"
        }
      ],
      "stateMutability": "view",
      "type": "function",
      "constant": true
    },
    {
      "inputs": [
        {
          "internalType": "uint256",
          "name": "userId",
          "type": "uint256"
        }
      ],
      "name": "getUserData",
      "outputs": [
        {
          "components": [
            {
              "internalType": "address",
              "name": "addr",
              "type": "address"
            },
            {
              "internalType": "string",
              "name": "name",
              "type": "string"
            },
            {
              "internalType": "string",
              "name": "surname",
              "type": "string"
            },
            {
              "internalType": "string",
              "name": "email",
              "type": "string"
            },
            {
              "internalType": "uint32",
              "name": "telephone",
              "type": "uint32"
            },
            {
              "internalType": "uint256",
              "name": "orgId",
              "type": "uint256"
            },
            {
              "internalType": "uint256",
              "name": "index",
              "type": "uint256"
            }
          ],
          "internalType": "struct Users.User",
          "name": "",
          "type": "tuple"
        }
      ],
      "stateMutability": "view",
      "type": "function",
      "constant": true
    },
    {
      "inputs": [
        {
          "internalType": "uint256",
          "name": "assetId",
          "type": "uint256"
        },
        {
          "internalType": "uint256[]",
          "name": "userIds",
          "type": "uint256[]"
        }
      ],
      "name": "insertUsersToAsset",
      "outputs": [],
      "stateMutability": "nonpayable",
      "type": "function"
    },
    {
      "inputs": [
        {
          "internalType": "uint256",
          "name": "userId",
          "type": "uint256"
        }
      ],
      "name": "getUserAssets",
      "outputs": [
        {
          "internalType": "uint256[]",
          "name": "assetIds",
          "type": "uint256[]"
        }
      ],
      "stateMutability": "view",
      "type": "function",
      "constant": true
    },
    {
      "inputs": [
        {
          "internalType": "uint256",
          "name": "assetId",
          "type": "uint256"
        }
      ],
      "name": "getAssetUsers",
      "outputs": [
        {
          "components": [
            {
              "internalType": "address",
              "name": "addr",
              "type": "address"
            },
            {
              "internalType": "string",
              "name": "name",
              "type": "string"
            },
            {
              "internalType": "string",
              "name": "surname",
              "type": "string"
            },
            {
              "internalType": "string",
              "name": "email",
              "type": "string"
            },
            {
              "internalType": "uint32",
              "name": "telephone",
              "type": "uint32"
            },
            {
              "internalType": "uint256",
              "name": "orgId",
              "type": "uint256"
            },
            {
              "internalType": "uint256",
              "name": "index",
              "type": "uint256"
            }
          ],
          "internalType": "struct Users.User[]",
          "name": "",
          "type": "tuple[]"
        }
      ],
      "stateMutability": "view",
      "type": "function",
      "constant": true
    }
  ],
  "bytecode": "0x60806040523480156200001157600080fd5b506040516200309a3803806200309a8339818101604052810190620000379190620000e8565b806000806101000a81548173ffffffffffffffffffffffffffffffffffffffff021916908373ffffffffffffffffffffffffffffffffffffffff160217905550506200011a565b600080fd5b600073ffffffffffffffffffffffffffffffffffffffff82169050919050565b6000620000b08262000083565b9050919050565b620000c281620000a3565b8114620000ce57600080fd5b50565b600081519050620000e281620000b7565b92915050565b6000602082840312156200010157620001006200007e565b5b60006200011184828501620000d1565b91505092915050565b612f70806200012a6000396000f3fe608060405234801561001057600080fd5b506004361061010b5760003560e01c80636dccbcc5116100a2578063d61490ef11610071578063d61490ef146102ee578063dd2b6d3a1461031e578063e2a2dd3f1461034e578063e8bb900b1461036a578063fbc8ba841461039a5761010b565b80636dccbcc51461026a5780636ecb141c1461028657806373adf71f146102b6578063b5ce789d146102d25761010b565b8063405a7abc116100de578063405a7abc146101aa5780634209fff1146101da5780634fb6f65a1461020a5780635ba506ef1461023a5761010b565b806304f468a7146101105780631fef580c1461012e5780632c60e4a01461015e5780632ee45f4e1461017a575b600080fd5b6101186103ca565b6040516101259190612064565b60405180910390f35b610148600480360381019061014391906120c9565b6103ee565b6040516101559190612276565b60405180910390f35b61017860048036038101906101739190612425565b610670565b005b610194600480360381019061018f91906120c9565b610a23565b6040516101a19190612672565b60405180910390f35b6101c460048036038101906101bf91906120c9565b610dbe565b6040516101d191906126a3565b60405180910390f35b6101f460048036038101906101ef91906126be565b610de3565b6040516102019190612706565b60405180910390f35b610224600480360381019061021f91906120c9565b610eaf565b6040516102319190612860565b60405180910390f35b610254600480360381019061024f91906120c9565b611162565b6040516102619190612931565b60405180910390f35b610284600480360381019061027f9190612a1b565b6111cd565b005b6102a0600480360381019061029b91906120c9565b6113b5565b6040516102ad9190612931565b60405180910390f35b6102d060048036038101906102cb9190612a1b565b611420565b005b6102ec60048036038101906102e79190612a1b565b6114f2565b005b610308600480360381019061030391906120c9565b611640565b6040516103159190612672565b60405180910390f35b61033860048036038101906103339190612a77565b6119db565b60405161034591906126a3565b60405180910390f35b61036860048036038101906103639190612ab7565b611a0c565b005b610384600480360381019061037f9190612a77565b611b26565b60405161039191906126a3565b60405180910390f35b6103b460048036038101906103af91906120c9565b611b57565b6040516103c19190612672565b60405180910390f35b60008054906101000a900473ffffffffffffffffffffffffffffffffffffffff1681565b6103f6611ef2565b6001828154811061040a57610409612b56565b5b90600052602060002090600702016040518060e00160405290816000820160009054906101000a900473ffffffffffffffffffffffffffffffffffffffff1673ffffffffffffffffffffffffffffffffffffffff1673ffffffffffffffffffffffffffffffffffffffff16815260200160018201805461048990612bb4565b80601f01602080910402602001604051908101604052809291908181526020018280546104b590612bb4565b80156105025780601f106104d757610100808354040283529160200191610502565b820191906000526020600020905b8154815290600101906020018083116104e557829003601f168201915b5050505050815260200160028201805461051b90612bb4565b80601f016020809104026020016040519081016040528092919081815260200182805461054790612bb4565b80156105945780601f1061056957610100808354040283529160200191610594565b820191906000526020600020905b81548152906001019060200180831161057757829003601f168201915b505050505081526020016003820180546105ad90612bb4565b80601f01602080910402602001604051908101604052809291908181526020018280546105d990612bb4565b80156106265780601f106105fb57610100808354040283529160200191610626565b820191906000526020600020905b81548152906001019060200180831161060957829003601f168201915b505050505081526020016004820160009054906101000a900463ffffffff1663ffffffff1663ffffffff168152602001600582015481526020016006820154815250509050919050565b60008060009054906101000a900473ffffffffffffffffffffffffffffffffffffffff16905061069f87610de3565b156106df576040517f08c379a00000000000000000000000000000000000000000000000000000000081526004016106d690612c43565b60405180910390fd5b6001826106ec9190612c92565b8173ffffffffffffffffffffffffffffffffffffffff1663d81066906040518163ffffffff1660e01b8152600401602060405180830381865afa158015610737573d6000803e3d6000fd5b505050506040513d601f19601f8201168201806040525081019061075b9190612cfd565b101561079c576040517f08c379a000000000000000000000000000000000000000000000000000000000815260040161079390612d76565b60405180910390fd5b6000600180549050905060016040518060e001604052808a73ffffffffffffffffffffffffffffffffffffffff1681526020018981526020018881526020018781526020018663ffffffff16815260200185815260200183815250908060018154018082558091505060019003906000526020600020906007020160009091909190915060008201518160000160006101000a81548173ffffffffffffffffffffffffffffffffffffffff021916908373ffffffffffffffffffffffffffffffffffffffff1602179055506020820151816001019080519060200190610883929190611f4b565b5060408201518160020190805190602001906108a0929190611f4b565b5060608201518160030190805190602001906108bd929190611f4b565b5060808201518160040160006101000a81548163ffffffff021916908363ffffffff16021790555060a0820151816005015560c0820151816006015550506003600084815260200190815260200160002081908060018154018082558091505060019003906000526020600020016000909190919091505580600460008a73ffffffffffffffffffffffffffffffffffffffff1673ffffffffffffffffffffffffffffffffffffffff168152602001908152602001600020819055506002889080600181540180825580915050600190039060005260206000200160009091909190916101000a81548173ffffffffffffffffffffffffffffffffffffffff021916908373ffffffffffffffffffffffffffffffffffffffff1602179055507f85c8fcee8505f10dc8a4f9b889000c6a759cffeafd2e3b519a19c836af2e02bd88888886604051610a119493929190612dcf565b60405180910390a15050505050505050565b60606000600a6000848152602001908152602001600020805480602002602001604051908101604052809291908181526020018280548015610a8457602002820191906000526020600020905b815481526020019060010190808311610a70575b5050505050905060008151905060008167ffffffffffffffff811115610aad57610aac6122ce565b5b604051908082528060200260200182016040528015610ae657816020015b610ad3611ef2565b815260200190600190039081610acb5790505b50905060005b82811015610db2576001848281518110610b0957610b08612b56565b5b602002602001015181548110610b2257610b21612b56565b5b90600052602060002090600702016040518060e00160405290816000820160009054906101000a900473ffffffffffffffffffffffffffffffffffffffff1673ffffffffffffffffffffffffffffffffffffffff1673ffffffffffffffffffffffffffffffffffffffff168152602001600182018054610ba190612bb4565b80601f0160208091040260200160405190810160405280929190818152602001828054610bcd90612bb4565b8015610c1a5780601f10610bef57610100808354040283529160200191610c1a565b820191906000526020600020905b815481529060010190602001808311610bfd57829003601f168201915b50505050508152602001600282018054610c3390612bb4565b80601f0160208091040260200160405190810160405280929190818152602001828054610c5f90612bb4565b8015610cac5780601f10610c8157610100808354040283529160200191610cac565b820191906000526020600020905b815481529060010190602001808311610c8f57829003601f168201915b50505050508152602001600382018054610cc590612bb4565b80601f0160208091040260200160405190810160405280929190818152602001828054610cf190612bb4565b8015610d3e5780601f10610d1357610100808354040283529160200191610d3e565b820191906000526020600020905b815481529060010190602001808311610d2157829003601f168201915b505050505081526020016004820160009054906101000a900463ffffffff1663ffffffff1663ffffffff16815260200160058201548152602001600682015481525050828281518110610d9457610d93612b56565b5b60200260200101819052508080610daa90612e22565b915050610aec565b50809350505050919050565b6000806003600084815260200190815260200160002080549050905080915050919050565b6000806002805490501415610dfb5760009050610eaa565b8173ffffffffffffffffffffffffffffffffffffffff166002600460008573ffffffffffffffffffffffffffffffffffffffff1673ffffffffffffffffffffffffffffffffffffffff1681526020019081526020016000205481548110610e6557610e64612b56565b5b9060005260206000200160009054906101000a900473ffffffffffffffffffffffffffffffffffffffff1673ffffffffffffffffffffffffffffffffffffffff161490505b919050565b6060600060066000848152602001908152602001600020805480602002602001604051908101604052809291908181526020018280548015610f1057602002820191906000526020600020905b815481526020019060010190808311610efc575b5050505050905060008151905060008167ffffffffffffffff811115610f3957610f386122ce565b5b604051908082528060200260200182016040528015610f7257816020015b610f5f611fd1565b815260200190600190039081610f575790505b50905060005b82811015611156576005848281518110610f9557610f94612b56565b5b602002602001015181548110610fae57610fad612b56565b5b90600052602060002090600502016040518060a0016040529081600082018054610fd790612bb4565b80601f016020809104026020016040519081016040528092919081815260200182805461100390612bb4565b80156110505780601f1061102557610100808354040283529160200191611050565b820191906000526020600020905b81548152906001019060200180831161103357829003601f168201915b5050505050815260200160018201805461106990612bb4565b80601f016020809104026020016040519081016040528092919081815260200182805461109590612bb4565b80156110e25780601f106110b7576101008083540402835291602001916110e2565b820191906000526020600020905b8154815290600101906020018083116110c557829003601f168201915b505050505081526020016002820160009054906101000a900463ffffffff1663ffffffff1663ffffffff1681526020016003820154815260200160048201548152505082828151811061113857611137612b56565b5b6020026020010181905250808061114e90612e22565b915050610f78565b50809350505050919050565b6060600960008381526020019081526020016000208054806020026020016040519081016040528092919081815260200182805480156111c157602002820191906000526020600020905b8154815260200190600101908083116111ad575b50505050509050919050565b60008151905060005b818110156113af57600060076000868152602001908152602001600020600085848151811061120857611207612b56565b5b6020026020010151815260200190815260200160002060006101000a81548160ff02191690831515021790555060006008600086815260200190815260200160002080549050905060005b8181101561139a5784838151811061126e5761126d612b56565b5b602002602001015160086000888152602001908152602001600020828154811061129b5761129a612b56565b5b906000526020600020015414156113875760008190505b6001836112bf9190612e6b565b81101561134857600860008881526020019081526020016000206001826112e69190612c92565b815481106112f7576112f6612b56565b5b906000526020600020015460086000898152602001908152602001600020828154811061132757611326612b56565b5b9060005260206000200181905550808061134090612e22565b9150506112b2565b506008600087815260200190815260200160002080548061136c5761136b612e9f565b5b6001900381819060005260206000200160009055905561139a565b808061139290612e22565b915050611253565b505080806113a790612e22565b9150506111d6565b50505050565b60606008600083815260200190815260200160002080548060200260200160405190810160405280929190818152602001828054801561141457602002820191906000526020600020905b815481526020019060010190808311611400575b50505050509050919050565b60008151905060005b818110156114ec576009600084838151811061144857611447612b56565b5b60200260200101518152602001908152602001600020849080600181540180825580915050600190039060005260206000200160009091909190915055600a60008581526020019081526020016000208382815181106114ab576114aa612b56565b5b6020026020010151908060018154018082558091505060019003906000526020600020016000909190919091505580806114e490612e22565b915050611429565b50505050565b60008151905060005b8181101561163a576001151560076000868152602001908152602001600020600085848151811061152f5761152e612b56565b5b6020026020010151815260200190815260200160002060009054906101000a900460ff1615151415611596576040517f08c379a000000000000000000000000000000000000000000000000000000000815260040161158d90612f1a565b60405180910390fd5b600860008581526020019081526020016000208382815181106115bc576115bb612b56565b5b60200260200101519080600181540180825580915050600190039060005260206000200160009091909190915055600160076000868152602001908152602001600020600083815260200190815260200160002060006101000a81548160ff021916908315150217905550808061163290612e22565b9150506114fb565b50505050565b60606000600860008481526020019081526020016000208054806020026020016040519081016040528092919081815260200182805480156116a157602002820191906000526020600020905b81548152602001906001019080831161168d575b5050505050905060008151905060008167ffffffffffffffff8111156116ca576116c96122ce565b5b60405190808252806020026020018201604052801561170357816020015b6116f0611ef2565b8152602001906001900390816116e85790505b50905060005b828110156119cf57600184828151811061172657611725612b56565b5b60200260200101518154811061173f5761173e612b56565b5b90600052602060002090600702016040518060e00160405290816000820160009054906101000a900473ffffffffffffffffffffffffffffffffffffffff1673ffffffffffffffffffffffffffffffffffffffff1673ffffffffffffffffffffffffffffffffffffffff1681526020016001820180546117be90612bb4565b80601f01602080910402602001604051908101604052809291908181526020018280546117ea90612bb4565b80156118375780601f1061180c57610100808354040283529160200191611837565b820191906000526020600020905b81548152906001019060200180831161181a57829003601f168201915b5050505050815260200160028201805461185090612bb4565b80601f016020809104026020016040519081016040528092919081815260200182805461187c90612bb4565b80156118c95780601f1061189e576101008083540402835291602001916118c9565b820191906000526020600020905b8154815290600101906020018083116118ac57829003601f168201915b505050505081526020016003820180546118e290612bb4565b80601f016020809104026020016040519081016040528092919081815260200182805461190e90612bb4565b801561195b5780601f106119305761010080835404028352916020019161195b565b820191906000526020600020905b81548152906001019060200180831161193e57829003601f168201915b505050505081526020016004820160009054906101000a900463ffffffff1663ffffffff1663ffffffff168152602001600582015481526020016006820154815250508282815181106119b1576119b0612b56565b5b602002602001018190525080806119c790612e22565b915050611709565b50809350505050919050565b600960205281600052604060002081815481106119f757600080fd5b90600052602060002001600091509150505481565b6000600580549050905060056040518060a001604052808781526020018681526020018563ffffffff1681526020018481526020018381525090806001815401808255809150506001900390600052602060002090600502016000909190919091506000820151816000019080519060200190611a8a929190611f4b565b506020820151816001019080519060200190611aa7929190611f4b565b5060408201518160020160006101000a81548163ffffffff021916908363ffffffff16021790555060608201518160030155608082015181600401555050600660008381526020019081526020016000208190806001815401808255809150506001900390600052602060002001600090919091909150555050505050565b600a6020528160005260406000208181548110611b4257600080fd5b90600052602060002001600091509150505481565b6060600060036000848152602001908152602001600020805480602002602001604051908101604052809291908181526020018280548015611bb857602002820191906000526020600020905b815481526020019060010190808311611ba4575b5050505050905060008151905060008167ffffffffffffffff811115611be157611be06122ce565b5b604051908082528060200260200182016040528015611c1a57816020015b611c07611ef2565b815260200190600190039081611bff5790505b50905060005b82811015611ee6576001848281518110611c3d57611c3c612b56565b5b602002602001015181548110611c5657611c55612b56565b5b90600052602060002090600702016040518060e00160405290816000820160009054906101000a900473ffffffffffffffffffffffffffffffffffffffff1673ffffffffffffffffffffffffffffffffffffffff1673ffffffffffffffffffffffffffffffffffffffff168152602001600182018054611cd590612bb4565b80601f0160208091040260200160405190810160405280929190818152602001828054611d0190612bb4565b8015611d4e5780601f10611d2357610100808354040283529160200191611d4e565b820191906000526020600020905b815481529060010190602001808311611d3157829003601f168201915b50505050508152602001600282018054611d6790612bb4565b80601f0160208091040260200160405190810160405280929190818152602001828054611d9390612bb4565b8015611de05780601f10611db557610100808354040283529160200191611de0565b820191906000526020600020905b815481529060010190602001808311611dc357829003601f168201915b50505050508152602001600382018054611df990612bb4565b80601f0160208091040260200160405190810160405280929190818152602001828054611e2590612bb4565b8015611e725780601f10611e4757610100808354040283529160200191611e72565b820191906000526020600020905b815481529060010190602001808311611e5557829003601f168201915b505050505081526020016004820160009054906101000a900463ffffffff1663ffffffff1663ffffffff16815260200160058201548152602001600682015481525050828281518110611ec857611ec7612b56565b5b60200260200101819052508080611ede90612e22565b915050611c20565b50809350505050919050565b6040518060e00160405280600073ffffffffffffffffffffffffffffffffffffffff168152602001606081526020016060815260200160608152602001600063ffffffff16815260200160008152602001600081525090565b828054611f5790612bb4565b90600052602060002090601f016020900481019282611f795760008555611fc0565b82601f10611f9257805160ff1916838001178555611fc0565b82800160010185558215611fc0579182015b82811115611fbf578251825591602001919060010190611fa4565b5b509050611fcd9190612006565b5090565b6040518060a001604052806060815260200160608152602001600063ffffffff16815260200160008152602001600081525090565b5b8082111561201f576000816000905550600101612007565b5090565b600073ffffffffffffffffffffffffffffffffffffffff82169050919050565b600061204e82612023565b9050919050565b61205e81612043565b82525050565b60006020820190506120796000830184612055565b92915050565b6000604051905090565b600080fd5b600080fd5b6000819050919050565b6120a681612093565b81146120b157600080fd5b50565b6000813590506120c38161209d565b92915050565b6000602082840312156120df576120de612089565b5b60006120ed848285016120b4565b91505092915050565b6120ff81612043565b82525050565b600081519050919050565b600082825260208201905092915050565b60005b8381101561213f578082015181840152602081019050612124565b8381111561214e576000848401525b50505050565b6000601f19601f8301169050919050565b600061217082612105565b61217a8185612110565b935061218a818560208601612121565b61219381612154565b840191505092915050565b600063ffffffff82169050919050565b6121b78161219e565b82525050565b6121c681612093565b82525050565b600060e0830160008301516121e460008601826120f6565b50602083015184820360208601526121fc8282612165565b915050604083015184820360408601526122168282612165565b915050606083015184820360608601526122308282612165565b915050608083015161224560808601826121ae565b5060a083015161225860a08601826121bd565b5060c083015161226b60c08601826121bd565b508091505092915050565b6000602082019050818103600083015261229081846121cc565b905092915050565b6122a181612043565b81146122ac57600080fd5b50565b6000813590506122be81612298565b92915050565b600080fd5b600080fd5b7f4e487b7100000000000000000000000000000000000000000000000000000000600052604160045260246000fd5b61230682612154565b810181811067ffffffffffffffff82111715612325576123246122ce565b5b80604052505050565b600061233861207f565b905061234482826122fd565b919050565b600067ffffffffffffffff821115612364576123636122ce565b5b61236d82612154565b9050602081019050919050565b82818337600083830152505050565b600061239c61239784612349565b61232e565b9050828152602081018484840111156123b8576123b76122c9565b5b6123c384828561237a565b509392505050565b600082601f8301126123e0576123df6122c4565b5b81356123f0848260208601612389565b91505092915050565b6124028161219e565b811461240d57600080fd5b50565b60008135905061241f816123f9565b92915050565b60008060008060008060c0878903121561244257612441612089565b5b600061245089828a016122af565b965050602087013567ffffffffffffffff8111156124715761247061208e565b5b61247d89828a016123cb565b955050604087013567ffffffffffffffff81111561249e5761249d61208e565b5b6124aa89828a016123cb565b945050606087013567ffffffffffffffff8111156124cb576124ca61208e565b5b6124d789828a016123cb565b93505060806124e889828a01612410565b92505060a06124f989828a016120b4565b9150509295509295509295565b600081519050919050565b600082825260208201905092915050565b6000819050602082019050919050565b600060e08301600083015161254a60008601826120f6565b50602083015184820360208601526125628282612165565b9150506040830151848203604086015261257c8282612165565b915050606083015184820360608601526125968282612165565b91505060808301516125ab60808601826121ae565b5060a08301516125be60a08601826121bd565b5060c08301516125d160c08601826121bd565b508091505092915050565b60006125e88383612532565b905092915050565b6000602082019050919050565b600061260882612506565b6126128185612511565b93508360208202850161262485612522565b8060005b85811015612660578484038952815161264185826125dc565b945061264c836125f0565b925060208a01995050600181019050612628565b50829750879550505050505092915050565b6000602082019050818103600083015261268c81846125fd565b905092915050565b61269d81612093565b82525050565b60006020820190506126b86000830184612694565b92915050565b6000602082840312156126d4576126d3612089565b5b60006126e2848285016122af565b91505092915050565b60008115159050919050565b612700816126eb565b82525050565b600060208201905061271b60008301846126f7565b92915050565b600081519050919050565b600082825260208201905092915050565b6000819050602082019050919050565b600060a083016000830151848203600086015261276a8282612165565b915050602083015184820360208601526127848282612165565b915050604083015161279960408601826121ae565b5060608301516127ac60608601826121bd565b5060808301516127bf60808601826121bd565b508091505092915050565b60006127d6838361274d565b905092915050565b6000602082019050919050565b60006127f682612721565b612800818561272c565b9350836020820285016128128561273d565b8060005b8581101561284e578484038952815161282f85826127ca565b945061283a836127de565b925060208a01995050600181019050612816565b50829750879550505050505092915050565b6000602082019050818103600083015261287a81846127eb565b905092915050565b600081519050919050565b600082825260208201905092915050565b6000819050602082019050919050565b60006128ba83836121bd565b60208301905092915050565b6000602082019050919050565b60006128de82612882565b6128e8818561288d565b93506128f38361289e565b8060005b8381101561292457815161290b88826128ae565b9750612916836128c6565b9250506001810190506128f7565b5085935050505092915050565b6000602082019050818103600083015261294b81846128d3565b905092915050565b600067ffffffffffffffff82111561296e5761296d6122ce565b5b602082029050602081019050919050565b600080fd5b600061299761299284612953565b61232e565b905080838252602082019050602084028301858111156129ba576129b961297f565b5b835b818110156129e357806129cf88826120b4565b8452602084019350506020810190506129bc565b5050509392505050565b600082601f830112612a0257612a016122c4565b5b8135612a12848260208601612984565b91505092915050565b60008060408385031215612a3257612a31612089565b5b6000612a40858286016120b4565b925050602083013567ffffffffffffffff811115612a6157612a6061208e565b5b612a6d858286016129ed565b9150509250929050565b60008060408385031215612a8e57612a8d612089565b5b6000612a9c858286016120b4565b9250506020612aad858286016120b4565b9150509250929050565b60008060008060808587031215612ad157612ad0612089565b5b600085013567ffffffffffffffff811115612aef57612aee61208e565b5b612afb878288016123cb565b945050602085013567ffffffffffffffff811115612b1c57612b1b61208e565b5b612b28878288016123cb565b9350506040612b3987828801612410565b9250506060612b4a878288016120b4565b91505092959194509250565b7f4e487b7100000000000000000000000000000000000000000000000000000000600052603260045260246000fd5b7f4e487b7100000000000000000000000000000000000000000000000000000000600052602260045260246000fd5b60006002820490506001821680612bcc57607f821691505b60208210811415612be057612bdf612b85565b5b50919050565b600082825260208201905092915050565b7f4164647265737320616c72656164792072656769737465726564000000000000600082015250565b6000612c2d601a83612be6565b9150612c3882612bf7565b602082019050919050565b60006020820190508181036000830152612c5c81612c20565b9050919050565b7f4e487b7100000000000000000000000000000000000000000000000000000000600052601160045260246000fd5b6000612c9d82612093565b9150612ca883612093565b9250827fffffffffffffffffffffffffffffffffffffffffffffffffffffffffffffffff03821115612cdd57612cdc612c63565b5b828201905092915050565b600081519050612cf78161209d565b92915050565b600060208284031215612d1357612d12612089565b5b6000612d2184828501612ce8565b91505092915050565b7f4f72674964206e6f7420666f756e640000000000000000000000000000000000600082015250565b6000612d60600f83612be6565b9150612d6b82612d2a565b602082019050919050565b60006020820190508181036000830152612d8f81612d53565b9050919050565b6000612da182612105565b612dab8185612be6565b9350612dbb818560208601612121565b612dc481612154565b840191505092915050565b6000608082019050612de46000830187612055565b8181036020830152612df68186612d96565b90508181036040830152612e0a8185612d96565b9050612e196060830184612694565b95945050505050565b6000612e2d82612093565b91507fffffffffffffffffffffffffffffffffffffffffffffffffffffffffffffffff821415612e6057612e5f612c63565b5b600182019050919050565b6000612e7682612093565b9150612e8183612093565b925082821015612e9457612e93612c63565b5b828203905092915050565b7f4e487b7100000000000000000000000000000000000000000000000000000000600052603160045260246000fd5b7f7573657220616c726561647920696e206465706172746d656e74000000000000600082015250565b6000612f04601a83612be6565b9150612f0f82612ece565b602082019050919050565b60006020820190508181036000830152612f3381612ef7565b905091905056fea264697066735822122065ac98a0cd2af20473651dc84b9947ea353594ee56d8f7a81e5729f6b918bfd964736f6c634300080c0033",
  "immutableReferences": {},
  "source": "// SPDX-License-Identifier: MIT\r\npragma solidity >=0.7.0 <0.9.10;\r\nimport \"./Main.sol\";\r\n\r\ncontract Users {\r\n\r\n    address public mainAddr;\r\n\r\n    constructor (address _mainAddr){\r\n        mainAddr = _mainAddr;\r\n    }\r\n\r\n    event Register(\r\n        address addr, \r\n        string name,\r\n        string surname,\r\n        uint orgId \r\n    );\r\n\r\n    struct User {\r\n        address addr;\r\n        string name;\r\n        string surname;\r\n        string email;\r\n        uint32 telephone;\r\n        uint orgId;\r\n        uint256 index;\r\n    }\r\n\r\n    User[] private userList;\r\n    address[] private users;\r\n    mapping(uint256 => uint256[]) orgIdToUserList;\r\n\r\n\r\n    mapping(address => uint) addressToId;\r\n\r\n\r\n    struct Department {\r\n        string name;\r\n        string description;\r\n        uint32 telephone;\r\n        uint orgId;\r\n        uint256 index;\r\n    }\r\n\r\n    Department[] private departList;\r\n    mapping(uint256 => uint256[]) orgIdToDepartList;\r\n\r\n\r\n    \r\n    mapping(uint => mapping(uint => bool)) departToUserBool;\r\n    mapping(uint => uint[]) departIdToUserList;\r\n\r\n\r\n    function insertDepartment(string memory name,\r\n        string memory description,\r\n        uint32 telephone,\r\n        uint orgId\r\n        ) public {\r\n            uint departId = departList.length;\r\n            departList.push(Department(name, description, telephone, orgId, departId));\r\n            orgIdToDepartList[orgId].push(departId);\r\n    }\r\n\r\n    function getDepartFromOrg(uint orgId) public view returns(Department[] memory){\r\n        uint[] memory idList = orgIdToDepartList[orgId];\r\n        uint cont = idList.length;\r\n        Department[] memory departFromOrg = new Department[](cont);\r\n\r\n        for (uint i = 0; i < cont; i++) {\r\n            departFromOrg[i] = departList[idList[i]];\r\n        }\r\n        return departFromOrg;\r\n    }\r\n\r\n\r\n\r\n    //USERS from department\r\n    function insertUserToDepartment(uint departId, uint[] memory userIds) public {\r\n        uint cont = userIds.length;\r\n        for (uint i = 0; i < cont; i++) {\r\n            if(departToUserBool[departId][userIds[i]] == true) {\r\n                revert(\"user already in department\");\r\n            } else {\r\n                departIdToUserList[departId].push(userIds[i]);\r\n                departToUserBool[departId][i] = true;\r\n            }\r\n            \r\n        }\r\n    }\r\n\r\n    //If admin wants to delete any user from the department\r\n    //first we will need to find that user \r\n    //and then delete the index \r\n    function deleteUsersFromDepartment(uint departId, uint[] memory userIds) public {\r\n        uint userCont = userIds.length;\r\n        for (uint i = 0; i < userCont; i++) {\r\n            departToUserBool[departId][userIds[i]] = false;\r\n            uint departUsers = departIdToUserList[departId].length;\r\n            for(uint o = 0; o < departUsers; o++){\r\n                if (departIdToUserList[departId][o] == userIds[i]){\r\n                    for (uint e = o; e<departUsers-1; e++){\r\n                        departIdToUserList[departId][e] = departIdToUserList[departId][e+1];\r\n                    }\r\n                    departIdToUserList[departId].pop();\r\n                    break;\r\n                }\r\n            }\r\n        }\r\n    }\r\n\r\n\r\n    function getUsersIdsFromDepart(uint departId) public view returns(uint[] memory){\r\n        return departIdToUserList[departId];\r\n        \r\n    }\r\n\r\n\r\n\r\n    function getUsersFromDepart(uint departId) public view returns(User[] memory){\r\n        uint[] memory idList = departIdToUserList[departId];\r\n        uint cont = idList.length;\r\n        User[] memory usersFromDepart = new User[](cont);\r\n\r\n        for (uint i = 0; i < cont; i++) {\r\n            usersFromDepart[i] = userList[idList[i]];\r\n        }\r\n        return usersFromDepart;\r\n    }\r\n\r\n\r\n\r\n    function isUser(address userAddress) public view returns (bool isIndeed) {\r\n        if (users.length == 0) return false;\r\n        return (users[addressToId[userAddress]] == userAddress);\r\n    }\r\n\r\n   \r\n\r\n    function insertUser(\r\n        address addr, \r\n        string memory name, \r\n        string memory surname, \r\n        string memory email, \r\n        uint32 telephone,\r\n        uint orgId \r\n    ) public {\r\n        //Instance main contract to see if the id of the org exists\r\n        Main mainInstance = Main(mainAddr);\r\n\r\n        if(isUser(addr)) revert(\"Address already registered\");\r\n        if((mainInstance.orgCount()) < (uint256(orgId)+1)) revert(\"OrgId not found\");\r\n        uint userId = userList.length;\r\n        userList.push(User(addr, name, surname, email, telephone, orgId, userId));\r\n        orgIdToUserList[orgId].push(userId);\r\n        addressToId[addr] = userId;\r\n        users.push(addr);\r\n        emit Register(addr, name, surname, orgId);\r\n    }\r\n\r\n\r\n\r\n    function getAllUsersFromOrg(uint orgId) public view returns(User[] memory){\r\n        uint[] memory idList = orgIdToUserList[orgId];\r\n        uint cont = idList.length;\r\n        User[] memory usersFromOrg = new User[](cont);\r\n\r\n        for (uint i = 0; i < cont; i++) {\r\n            usersFromOrg[i] = userList[idList[i]];\r\n        }\r\n        return usersFromOrg;\r\n    }\r\n\r\n    function getNumUsersFromOrg(uint orgId) public view returns(uint){\r\n        uint usersFromOrg = orgIdToUserList[orgId].length;\r\n        return usersFromOrg;\r\n    }\r\n\r\n\r\n\r\n    function getUserData(uint userId) public view returns(User memory){\r\n        return userList[userId];\r\n    }\r\n\r\n    //RELATION BETWEEN ASSET AND USER\r\n\r\n    mapping(uint => uint[]) public userIdToAssetList;\r\n    mapping(uint => uint[]) public assetToListOfUsers;\r\n\r\n\r\n    function insertUsersToAsset(uint assetId, uint[] memory userIds) public {\r\n        uint cont = userIds.length;\r\n        for (uint i = 0; i < cont; i++) {\r\n            userIdToAssetList[userIds[i]].push(assetId);\r\n            assetToListOfUsers[assetId].push(userIds[i]);\r\n        }\r\n\r\n        \r\n    }\r\n\r\n    function getUserAssets(uint userId) public view returns(uint[] memory assetIds){\r\n        return userIdToAssetList[userId];\r\n    }\r\n\r\n    function getAssetUsers(uint assetId) public view returns(User[] memory){\r\n        uint[] memory list = assetToListOfUsers[assetId];\r\n        uint cont = list.length;\r\n        User[] memory usersOfAsset = new User[](cont);\r\n        for (uint i = 0; i < cont; i++) {\r\n            usersOfAsset[i] = userList[list[i]];\r\n        }\r\n        return usersOfAsset;\r\n    }\r\n\r\n\r\n}",
  "sourcePath": "D:\\GIT\\inventory-blockchain\\blockchain\\contracts\\Users.sol",
  "compiler": {
    "name": "solc",
    "version": "0.8.12+commit.f00d7308.Emscripten.clang"
  },
  "schemaVersion": "3.4.6",
  "updatedAt": "2022-05-05T15:59:31.768Z",
  "networkType": "ethereum",
  "devdoc": {
    "kind": "dev",
    "methods": {},
    "version": 1
  },
  "userdoc": {
    "kind": "user",
    "methods": {},
    "version": 1
  }
}