{
  "contractName": "Users",
  "abi": [
    {
      "inputs": [
        {
          "internalType": "address",
          "name": "_mainAddr",
          "type": "address"
        }
      ],
      "stateMutability": "nonpayable",
      "type": "constructor"
    },
    {
      "anonymous": false,
      "inputs": [
        {
          "indexed": false,
          "internalType": "address",
          "name": "addr",
          "type": "address"
        },
        {
          "indexed": false,
          "internalType": "string",
          "name": "name",
          "type": "string"
        },
        {
          "indexed": false,
          "internalType": "string",
          "name": "surname",
          "type": "string"
        },
        {
          "indexed": false,
          "internalType": "uint256",
          "name": "orgId",
          "type": "uint256"
        }
      ],
      "name": "Register",
      "type": "event"
    },
    {
      "inputs": [
        {
          "internalType": "uint256",
          "name": "",
          "type": "uint256"
        },
        {
          "internalType": "uint256",
          "name": "",
          "type": "uint256"
        }
      ],
      "name": "assetToListOfUsers",
      "outputs": [
        {
          "internalType": "uint256",
          "name": "",
          "type": "uint256"
        }
      ],
      "stateMutability": "view",
      "type": "function",
      "constant": true
    },
    {
      "inputs": [],
      "name": "mainAddr",
      "outputs": [
        {
          "internalType": "address",
          "name": "",
          "type": "address"
        }
      ],
      "stateMutability": "view",
      "type": "function",
      "constant": true
    },
    {
      "inputs": [
        {
          "internalType": "uint256",
          "name": "",
          "type": "uint256"
        },
        {
          "internalType": "uint256",
          "name": "",
          "type": "uint256"
        }
      ],
      "name": "userIdToAssetList",
      "outputs": [
        {
          "internalType": "uint256",
          "name": "",
          "type": "uint256"
        }
      ],
      "stateMutability": "view",
      "type": "function",
      "constant": true
    },
    {
      "inputs": [
        {
          "internalType": "address",
          "name": "userAddress",
          "type": "address"
        }
      ],
      "name": "isUser",
      "outputs": [
        {
          "internalType": "bool",
          "name": "isIndeed",
          "type": "bool"
        }
      ],
      "stateMutability": "view",
      "type": "function",
      "constant": true
    },
    {
      "inputs": [
        {
          "internalType": "address",
          "name": "addr",
          "type": "address"
        },
        {
          "internalType": "string",
          "name": "name",
          "type": "string"
        },
        {
          "internalType": "string",
          "name": "surname",
          "type": "string"
        },
        {
          "internalType": "string",
          "name": "email",
          "type": "string"
        },
        {
          "internalType": "uint32",
          "name": "telephone",
          "type": "uint32"
        },
        {
          "internalType": "uint256",
          "name": "orgId",
          "type": "uint256"
        }
      ],
      "name": "insertUser",
      "outputs": [],
      "stateMutability": "nonpayable",
      "type": "function"
    },
    {
      "inputs": [
        {
          "internalType": "uint256",
          "name": "orgId",
          "type": "uint256"
        }
      ],
      "name": "getAllUsersFromOrg",
      "outputs": [
        {
          "components": [
            {
              "internalType": "address",
              "name": "addr",
              "type": "address"
            },
            {
              "internalType": "string",
              "name": "name",
              "type": "string"
            },
            {
              "internalType": "string",
              "name": "surname",
              "type": "string"
            },
            {
              "internalType": "string",
              "name": "email",
              "type": "string"
            },
            {
              "internalType": "uint32",
              "name": "telephone",
              "type": "uint32"
            },
            {
              "internalType": "uint256",
              "name": "orgId",
              "type": "uint256"
            },
            {
              "internalType": "uint256",
              "name": "index",
              "type": "uint256"
            }
          ],
          "internalType": "struct Users.User[]",
          "name": "",
          "type": "tuple[]"
        }
      ],
      "stateMutability": "view",
      "type": "function",
      "constant": true
    },
    {
      "inputs": [
        {
          "internalType": "uint256",
          "name": "orgId",
          "type": "uint256"
        }
      ],
      "name": "getNumUsersFromOrg",
      "outputs": [
        {
          "internalType": "uint256",
          "name": "",
          "type": "uint256"
        }
      ],
      "stateMutability": "view",
      "type": "function",
      "constant": true
    },
    {
      "inputs": [
        {
          "internalType": "uint256",
          "name": "userId",
          "type": "uint256"
        }
      ],
      "name": "getUserData",
      "outputs": [
        {
          "components": [
            {
              "internalType": "address",
              "name": "addr",
              "type": "address"
            },
            {
              "internalType": "string",
              "name": "name",
              "type": "string"
            },
            {
              "internalType": "string",
              "name": "surname",
              "type": "string"
            },
            {
              "internalType": "string",
              "name": "email",
              "type": "string"
            },
            {
              "internalType": "uint32",
              "name": "telephone",
              "type": "uint32"
            },
            {
              "internalType": "uint256",
              "name": "orgId",
              "type": "uint256"
            },
            {
              "internalType": "uint256",
              "name": "index",
              "type": "uint256"
            }
          ],
          "internalType": "struct Users.User",
          "name": "",
          "type": "tuple"
        }
      ],
      "stateMutability": "view",
      "type": "function",
      "constant": true
    },
    {
      "inputs": [
        {
          "internalType": "uint256",
          "name": "assetId",
          "type": "uint256"
        },
        {
          "internalType": "uint256[]",
          "name": "userIds",
          "type": "uint256[]"
        }
      ],
      "name": "insertUsersToAsset",
      "outputs": [],
      "stateMutability": "nonpayable",
      "type": "function"
    },
    {
      "inputs": [
        {
          "internalType": "uint256",
          "name": "userId",
          "type": "uint256"
        }
      ],
      "name": "getUserAssets",
      "outputs": [
        {
          "internalType": "uint256[]",
          "name": "assetIds",
          "type": "uint256[]"
        }
      ],
      "stateMutability": "view",
      "type": "function",
      "constant": true
    },
    {
      "inputs": [
        {
          "internalType": "uint256",
          "name": "assetId",
          "type": "uint256"
        }
      ],
      "name": "getAssetUsers",
      "outputs": [
        {
          "components": [
            {
              "internalType": "address",
              "name": "addr",
              "type": "address"
            },
            {
              "internalType": "string",
              "name": "name",
              "type": "string"
            },
            {
              "internalType": "string",
              "name": "surname",
              "type": "string"
            },
            {
              "internalType": "string",
              "name": "email",
              "type": "string"
            },
            {
              "internalType": "uint32",
              "name": "telephone",
              "type": "uint32"
            },
            {
              "internalType": "uint256",
              "name": "orgId",
              "type": "uint256"
            },
            {
              "internalType": "uint256",
              "name": "index",
              "type": "uint256"
            }
          ],
          "internalType": "struct Users.User[]",
          "name": "",
          "type": "tuple[]"
        }
      ],
      "stateMutability": "view",
      "type": "function",
      "constant": true
    }
  ],
  "bytecode": "0x60806040523480156200001157600080fd5b5060405162002147380380620021478339818101604052810190620000379190620000e8565b806000806101000a81548173ffffffffffffffffffffffffffffffffffffffff021916908373ffffffffffffffffffffffffffffffffffffffff160217905550506200011a565b600080fd5b600073ffffffffffffffffffffffffffffffffffffffff82169050919050565b6000620000b08262000083565b9050919050565b620000c281620000a3565b8114620000ce57600080fd5b50565b600081519050620000e281620000b7565b92915050565b6000602082840312156200010157620001006200007e565b5b60006200011184828501620000d1565b91505092915050565b61201d806200012a6000396000f3fe608060405234801561001057600080fd5b50600436106100a95760003560e01c80634209fff1116100715780634209fff1146101785780635ba506ef146101a857806373adf71f146101d8578063dd2b6d3a146101f4578063e8bb900b14610224578063fbc8ba8414610254576100a9565b806304f468a7146100ae5780631fef580c146100cc5780632c60e4a0146100fc5780632ee45f4e14610118578063405a7abc14610148575b600080fd5b6100b6610284565b6040516100c391906113e0565b60405180910390f35b6100e660048036038101906100e19190611445565b6102a8565b6040516100f391906115f2565b60405180910390f35b610116600480360381019061011191906117a1565b61052a565b005b610132600480360381019061012d9190611445565b6108dd565b60405161013f91906119ee565b60405180910390f35b610162600480360381019061015d9190611445565b610c78565b60405161016f9190611a1f565b60405180910390f35b610192600480360381019061018d9190611a3a565b610c9d565b60405161019f9190611a82565b60405180910390f35b6101c260048036038101906101bd9190611445565b610d69565b6040516101cf9190611b4c565b60405180910390f35b6101f260048036038101906101ed9190611c36565b610dd4565b005b61020e60048036038101906102099190611c92565b610ea6565b60405161021b9190611a1f565b60405180910390f35b61023e60048036038101906102399190611c92565b610ed7565b60405161024b9190611a1f565b60405180910390f35b61026e60048036038101906102699190611445565b610f08565b60405161027b91906119ee565b60405180910390f35b60008054906101000a900473ffffffffffffffffffffffffffffffffffffffff1681565b6102b06112a3565b600182815481106102c4576102c3611cd2565b5b90600052602060002090600702016040518060e00160405290816000820160009054906101000a900473ffffffffffffffffffffffffffffffffffffffff1673ffffffffffffffffffffffffffffffffffffffff1673ffffffffffffffffffffffffffffffffffffffff16815260200160018201805461034390611d30565b80601f016020809104026020016040519081016040528092919081815260200182805461036f90611d30565b80156103bc5780601f10610391576101008083540402835291602001916103bc565b820191906000526020600020905b81548152906001019060200180831161039f57829003601f168201915b505050505081526020016002820180546103d590611d30565b80601f016020809104026020016040519081016040528092919081815260200182805461040190611d30565b801561044e5780601f106104235761010080835404028352916020019161044e565b820191906000526020600020905b81548152906001019060200180831161043157829003601f168201915b5050505050815260200160038201805461046790611d30565b80601f016020809104026020016040519081016040528092919081815260200182805461049390611d30565b80156104e05780601f106104b5576101008083540402835291602001916104e0565b820191906000526020600020905b8154815290600101906020018083116104c357829003601f168201915b505050505081526020016004820160009054906101000a900463ffffffff1663ffffffff1663ffffffff168152602001600582015481526020016006820154815250509050919050565b60008060009054906101000a900473ffffffffffffffffffffffffffffffffffffffff16905061055987610c9d565b15610599576040517f08c379a000000000000000000000000000000000000000000000000000000000815260040161059090611dbf565b60405180910390fd5b6001826105a69190611e0e565b8173ffffffffffffffffffffffffffffffffffffffff1663d81066906040518163ffffffff1660e01b8152600401602060405180830381865afa1580156105f1573d6000803e3d6000fd5b505050506040513d601f19601f820116820180604052508101906106159190611e79565b1015610656576040517f08c379a000000000000000000000000000000000000000000000000000000000815260040161064d90611ef2565b60405180910390fd5b6000600180549050905060016040518060e001604052808a73ffffffffffffffffffffffffffffffffffffffff1681526020018981526020018881526020018781526020018663ffffffff16815260200185815260200183815250908060018154018082558091505060019003906000526020600020906007020160009091909190915060008201518160000160006101000a81548173ffffffffffffffffffffffffffffffffffffffff021916908373ffffffffffffffffffffffffffffffffffffffff160217905550602082015181600101908051906020019061073d9291906112fc565b50604082015181600201908051906020019061075a9291906112fc565b5060608201518160030190805190602001906107779291906112fc565b5060808201518160040160006101000a81548163ffffffff021916908363ffffffff16021790555060a0820151816005015560c0820151816006015550506003600084815260200190815260200160002081908060018154018082558091505060019003906000526020600020016000909190919091505580600460008a73ffffffffffffffffffffffffffffffffffffffff1673ffffffffffffffffffffffffffffffffffffffff168152602001908152602001600020819055506002889080600181540180825580915050600190039060005260206000200160009091909190916101000a81548173ffffffffffffffffffffffffffffffffffffffff021916908373ffffffffffffffffffffffffffffffffffffffff1602179055507f85c8fcee8505f10dc8a4f9b889000c6a759cffeafd2e3b519a19c836af2e02bd888888866040516108cb9493929190611f4b565b60405180910390a15050505050505050565b606060006006600084815260200190815260200160002080548060200260200160405190810160405280929190818152602001828054801561093e57602002820191906000526020600020905b81548152602001906001019080831161092a575b5050505050905060008151905060008167ffffffffffffffff8111156109675761096661164a565b5b6040519080825280602002602001820160405280156109a057816020015b61098d6112a3565b8152602001906001900390816109855790505b50905060005b82811015610c6c5760018482815181106109c3576109c2611cd2565b5b6020026020010151815481106109dc576109db611cd2565b5b90600052602060002090600702016040518060e00160405290816000820160009054906101000a900473ffffffffffffffffffffffffffffffffffffffff1673ffffffffffffffffffffffffffffffffffffffff1673ffffffffffffffffffffffffffffffffffffffff168152602001600182018054610a5b90611d30565b80601f0160208091040260200160405190810160405280929190818152602001828054610a8790611d30565b8015610ad45780601f10610aa957610100808354040283529160200191610ad4565b820191906000526020600020905b815481529060010190602001808311610ab757829003601f168201915b50505050508152602001600282018054610aed90611d30565b80601f0160208091040260200160405190810160405280929190818152602001828054610b1990611d30565b8015610b665780601f10610b3b57610100808354040283529160200191610b66565b820191906000526020600020905b815481529060010190602001808311610b4957829003601f168201915b50505050508152602001600382018054610b7f90611d30565b80601f0160208091040260200160405190810160405280929190818152602001828054610bab90611d30565b8015610bf85780601f10610bcd57610100808354040283529160200191610bf8565b820191906000526020600020905b815481529060010190602001808311610bdb57829003601f168201915b505050505081526020016004820160009054906101000a900463ffffffff1663ffffffff1663ffffffff16815260200160058201548152602001600682015481525050828281518110610c4e57610c4d611cd2565b5b60200260200101819052508080610c6490611f9e565b9150506109a6565b50809350505050919050565b6000806003600084815260200190815260200160002080549050905080915050919050565b6000806002805490501415610cb55760009050610d64565b8173ffffffffffffffffffffffffffffffffffffffff166002600460008573ffffffffffffffffffffffffffffffffffffffff1673ffffffffffffffffffffffffffffffffffffffff1681526020019081526020016000205481548110610d1f57610d1e611cd2565b5b9060005260206000200160009054906101000a900473ffffffffffffffffffffffffffffffffffffffff1673ffffffffffffffffffffffffffffffffffffffff161490505b919050565b606060056000838152602001908152602001600020805480602002602001604051908101604052809291908181526020018280548015610dc857602002820191906000526020600020905b815481526020019060010190808311610db4575b50505050509050919050565b60008151905060005b81811015610ea05760056000848381518110610dfc57610dfb611cd2565b5b6020026020010151815260200190815260200160002084908060018154018082558091505060019003906000526020600020016000909190919091505560066000858152602001908152602001600020838281518110610e5f57610e5e611cd2565b5b602002602001015190806001815401808255809150506001900390600052602060002001600090919091909150558080610e9890611f9e565b915050610ddd565b50505050565b60056020528160005260406000208181548110610ec257600080fd5b90600052602060002001600091509150505481565b60066020528160005260406000208181548110610ef357600080fd5b90600052602060002001600091509150505481565b6060600060036000848152602001908152602001600020805480602002602001604051908101604052809291908181526020018280548015610f6957602002820191906000526020600020905b815481526020019060010190808311610f55575b5050505050905060008151905060008167ffffffffffffffff811115610f9257610f9161164a565b5b604051908082528060200260200182016040528015610fcb57816020015b610fb86112a3565b815260200190600190039081610fb05790505b50905060005b82811015611297576001848281518110610fee57610fed611cd2565b5b60200260200101518154811061100757611006611cd2565b5b90600052602060002090600702016040518060e00160405290816000820160009054906101000a900473ffffffffffffffffffffffffffffffffffffffff1673ffffffffffffffffffffffffffffffffffffffff1673ffffffffffffffffffffffffffffffffffffffff16815260200160018201805461108690611d30565b80601f01602080910402602001604051908101604052809291908181526020018280546110b290611d30565b80156110ff5780601f106110d4576101008083540402835291602001916110ff565b820191906000526020600020905b8154815290600101906020018083116110e257829003601f168201915b5050505050815260200160028201805461111890611d30565b80601f016020809104026020016040519081016040528092919081815260200182805461114490611d30565b80156111915780601f1061116657610100808354040283529160200191611191565b820191906000526020600020905b81548152906001019060200180831161117457829003601f168201915b505050505081526020016003820180546111aa90611d30565b80601f01602080910402602001604051908101604052809291908181526020018280546111d690611d30565b80156112235780601f106111f857610100808354040283529160200191611223565b820191906000526020600020905b81548152906001019060200180831161120657829003601f168201915b505050505081526020016004820160009054906101000a900463ffffffff1663ffffffff1663ffffffff1681526020016005820154815260200160068201548152505082828151811061127957611278611cd2565b5b6020026020010181905250808061128f90611f9e565b915050610fd1565b50809350505050919050565b6040518060e00160405280600073ffffffffffffffffffffffffffffffffffffffff168152602001606081526020016060815260200160608152602001600063ffffffff16815260200160008152602001600081525090565b82805461130890611d30565b90600052602060002090601f01602090048101928261132a5760008555611371565b82601f1061134357805160ff1916838001178555611371565b82800160010185558215611371579182015b82811115611370578251825591602001919060010190611355565b5b50905061137e9190611382565b5090565b5b8082111561139b576000816000905550600101611383565b5090565b600073ffffffffffffffffffffffffffffffffffffffff82169050919050565b60006113ca8261139f565b9050919050565b6113da816113bf565b82525050565b60006020820190506113f560008301846113d1565b92915050565b6000604051905090565b600080fd5b600080fd5b6000819050919050565b6114228161140f565b811461142d57600080fd5b50565b60008135905061143f81611419565b92915050565b60006020828403121561145b5761145a611405565b5b600061146984828501611430565b91505092915050565b61147b816113bf565b82525050565b600081519050919050565b600082825260208201905092915050565b60005b838110156114bb5780820151818401526020810190506114a0565b838111156114ca576000848401525b50505050565b6000601f19601f8301169050919050565b60006114ec82611481565b6114f6818561148c565b935061150681856020860161149d565b61150f816114d0565b840191505092915050565b600063ffffffff82169050919050565b6115338161151a565b82525050565b6115428161140f565b82525050565b600060e0830160008301516115606000860182611472565b506020830151848203602086015261157882826114e1565b9150506040830151848203604086015261159282826114e1565b915050606083015184820360608601526115ac82826114e1565b91505060808301516115c1608086018261152a565b5060a08301516115d460a0860182611539565b5060c08301516115e760c0860182611539565b508091505092915050565b6000602082019050818103600083015261160c8184611548565b905092915050565b61161d816113bf565b811461162857600080fd5b50565b60008135905061163a81611614565b92915050565b600080fd5b600080fd5b7f4e487b7100000000000000000000000000000000000000000000000000000000600052604160045260246000fd5b611682826114d0565b810181811067ffffffffffffffff821117156116a1576116a061164a565b5b80604052505050565b60006116b46113fb565b90506116c08282611679565b919050565b600067ffffffffffffffff8211156116e0576116df61164a565b5b6116e9826114d0565b9050602081019050919050565b82818337600083830152505050565b6000611718611713846116c5565b6116aa565b90508281526020810184848401111561173457611733611645565b5b61173f8482856116f6565b509392505050565b600082601f83011261175c5761175b611640565b5b813561176c848260208601611705565b91505092915050565b61177e8161151a565b811461178957600080fd5b50565b60008135905061179b81611775565b92915050565b60008060008060008060c087890312156117be576117bd611405565b5b60006117cc89828a0161162b565b965050602087013567ffffffffffffffff8111156117ed576117ec61140a565b5b6117f989828a01611747565b955050604087013567ffffffffffffffff81111561181a5761181961140a565b5b61182689828a01611747565b945050606087013567ffffffffffffffff8111156118475761184661140a565b5b61185389828a01611747565b935050608061186489828a0161178c565b92505060a061187589828a01611430565b9150509295509295509295565b600081519050919050565b600082825260208201905092915050565b6000819050602082019050919050565b600060e0830160008301516118c66000860182611472565b50602083015184820360208601526118de82826114e1565b915050604083015184820360408601526118f882826114e1565b9150506060830151848203606086015261191282826114e1565b9150506080830151611927608086018261152a565b5060a083015161193a60a0860182611539565b5060c083015161194d60c0860182611539565b508091505092915050565b600061196483836118ae565b905092915050565b6000602082019050919050565b600061198482611882565b61198e818561188d565b9350836020820285016119a08561189e565b8060005b858110156119dc57848403895281516119bd8582611958565b94506119c88361196c565b925060208a019950506001810190506119a4565b50829750879550505050505092915050565b60006020820190508181036000830152611a088184611979565b905092915050565b611a198161140f565b82525050565b6000602082019050611a346000830184611a10565b92915050565b600060208284031215611a5057611a4f611405565b5b6000611a5e8482850161162b565b91505092915050565b60008115159050919050565b611a7c81611a67565b82525050565b6000602082019050611a976000830184611a73565b92915050565b600081519050919050565b600082825260208201905092915050565b6000819050602082019050919050565b6000611ad58383611539565b60208301905092915050565b6000602082019050919050565b6000611af982611a9d565b611b038185611aa8565b9350611b0e83611ab9565b8060005b83811015611b3f578151611b268882611ac9565b9750611b3183611ae1565b925050600181019050611b12565b5085935050505092915050565b60006020820190508181036000830152611b668184611aee565b905092915050565b600067ffffffffffffffff821115611b8957611b8861164a565b5b602082029050602081019050919050565b600080fd5b6000611bb2611bad84611b6e565b6116aa565b90508083825260208201905060208402830185811115611bd557611bd4611b9a565b5b835b81811015611bfe5780611bea8882611430565b845260208401935050602081019050611bd7565b5050509392505050565b600082601f830112611c1d57611c1c611640565b5b8135611c2d848260208601611b9f565b91505092915050565b60008060408385031215611c4d57611c4c611405565b5b6000611c5b85828601611430565b925050602083013567ffffffffffffffff811115611c7c57611c7b61140a565b5b611c8885828601611c08565b9150509250929050565b60008060408385031215611ca957611ca8611405565b5b6000611cb785828601611430565b9250506020611cc885828601611430565b9150509250929050565b7f4e487b7100000000000000000000000000000000000000000000000000000000600052603260045260246000fd5b7f4e487b7100000000000000000000000000000000000000000000000000000000600052602260045260246000fd5b60006002820490506001821680611d4857607f821691505b60208210811415611d5c57611d5b611d01565b5b50919050565b600082825260208201905092915050565b7f4164647265737320616c72656164792072656769737465726564000000000000600082015250565b6000611da9601a83611d62565b9150611db482611d73565b602082019050919050565b60006020820190508181036000830152611dd881611d9c565b9050919050565b7f4e487b7100000000000000000000000000000000000000000000000000000000600052601160045260246000fd5b6000611e198261140f565b9150611e248361140f565b9250827fffffffffffffffffffffffffffffffffffffffffffffffffffffffffffffffff03821115611e5957611e58611ddf565b5b828201905092915050565b600081519050611e7381611419565b92915050565b600060208284031215611e8f57611e8e611405565b5b6000611e9d84828501611e64565b91505092915050565b7f4f72674964206e6f7420666f756e640000000000000000000000000000000000600082015250565b6000611edc600f83611d62565b9150611ee782611ea6565b602082019050919050565b60006020820190508181036000830152611f0b81611ecf565b9050919050565b6000611f1d82611481565b611f278185611d62565b9350611f3781856020860161149d565b611f40816114d0565b840191505092915050565b6000608082019050611f6060008301876113d1565b8181036020830152611f728186611f12565b90508181036040830152611f868185611f12565b9050611f956060830184611a10565b95945050505050565b6000611fa98261140f565b91507fffffffffffffffffffffffffffffffffffffffffffffffffffffffffffffffff821415611fdc57611fdb611ddf565b5b60018201905091905056fea2646970667358221220d7c630cdfff6bc42d13b4b43cdbaf3297bd14c03a1eccae740683a97d8fb92c364736f6c634300080c0033",
  "immutableReferences": {},
  "source": "// SPDX-License-Identifier: MIT\r\npragma solidity >=0.7.0 <0.9.10;\r\nimport \"./Main.sol\";\r\n\r\ncontract Users {\r\n\r\n    address public mainAddr;\r\n\r\n    constructor (address _mainAddr){\r\n        mainAddr = _mainAddr;\r\n    }\r\n\r\n    event Register(\r\n        address addr, \r\n        string name,\r\n        string surname,\r\n        uint orgId \r\n    );\r\n\r\n    struct User {\r\n        address addr;\r\n        string name;\r\n        string surname;\r\n        string email;\r\n        uint32 telephone;\r\n        uint orgId;\r\n        uint256 index;\r\n    }\r\n\r\n    User[] private userList;\r\n    address[] private users;\r\n    mapping(uint256 => uint256[]) orgIdToUserList;\r\n\r\n\r\n    mapping(address => uint) addressToId;\r\n\r\n\r\n    function isUser(address userAddress) public view returns (bool isIndeed) {\r\n        if (users.length == 0) return false;\r\n        return (users[addressToId[userAddress]] == userAddress);\r\n    }\r\n\r\n   \r\n\r\n    function insertUser(\r\n        address addr, \r\n        string memory name, \r\n        string memory surname, \r\n        string memory email, \r\n        uint32 telephone,\r\n        uint orgId \r\n    ) public {\r\n        //Instance main contract to see if the id of the org exists\r\n        Main mainInstance = Main(mainAddr);\r\n\r\n        if(isUser(addr)) revert(\"Address already registered\");\r\n        if((mainInstance.orgCount()) < (uint256(orgId)+1)) revert(\"OrgId not found\");\r\n        uint userId = userList.length;\r\n        userList.push(User(addr, name, surname, email, telephone, orgId, userId));\r\n        orgIdToUserList[orgId].push(userId);\r\n        addressToId[addr] = userId;\r\n        users.push(addr);\r\n        emit Register(addr, name, surname, orgId);\r\n    }\r\n\r\n\r\n\r\n    function getAllUsersFromOrg(uint orgId) public view returns(User[] memory){\r\n        uint[] memory idList = orgIdToUserList[orgId];\r\n        uint cont = idList.length;\r\n        User[] memory usersFromOrg = new User[](cont);\r\n\r\n        for (uint i = 0; i < cont; i++) {\r\n            usersFromOrg[i] = userList[idList[i]];\r\n        }\r\n        return usersFromOrg;\r\n    }\r\n\r\n    function getNumUsersFromOrg(uint orgId) public view returns(uint){\r\n        uint usersFromOrg = orgIdToUserList[orgId].length;\r\n        return usersFromOrg;\r\n    }\r\n\r\n\r\n\r\n    function getUserData(uint userId) public view returns(User memory){\r\n        return userList[userId];\r\n    }\r\n\r\n    //RELATION BETWEEN ASSET AND USER\r\n\r\n    mapping(uint => uint[]) public userIdToAssetList;\r\n    mapping(uint => uint[]) public assetToListOfUsers;\r\n\r\n\r\n    //TODO INSERT VARIOUS USERS AT THE SAME TIME\r\n    function insertUsersToAsset(uint assetId, uint[] memory userIds) public {\r\n        uint cont = userIds.length;\r\n        for (uint i = 0; i < cont; i++) {\r\n            userIdToAssetList[userIds[i]].push(assetId);\r\n            assetToListOfUsers[assetId].push(userIds[i]);\r\n        }\r\n\r\n        \r\n    }\r\n\r\n    function getUserAssets(uint userId) public view returns(uint[] memory assetIds){\r\n        return userIdToAssetList[userId];\r\n    }\r\n\r\n    function getAssetUsers(uint assetId) public view returns(User[] memory){\r\n        uint[] memory list = assetToListOfUsers[assetId];\r\n        uint cont = list.length;\r\n        User[] memory usersOfAsset = new User[](cont);\r\n        for (uint i = 0; i < cont; i++) {\r\n            usersOfAsset[i] = userList[list[i]];\r\n        }\r\n        return usersOfAsset;\r\n    }\r\n\r\n\r\n}",
  "sourcePath": "D:\\GIT\\inventory-blockchain\\blockchain\\contracts\\Users.sol",
  "compiler": {
    "name": "solc",
    "version": "0.8.12+commit.f00d7308.Emscripten.clang"
  },
  "schemaVersion": "3.4.6",
  "updatedAt": "2022-05-03T18:40:51.961Z",
  "networkType": "ethereum",
  "devdoc": {
    "kind": "dev",
    "methods": {},
    "version": 1
  },
  "userdoc": {
    "kind": "user",
    "methods": {},
    "version": 1
  }
}