{
  "contractName": "Users",
  "abi": [
    {
      "inputs": [
        {
          "internalType": "address",
          "name": "_mainAddr",
          "type": "address"
        }
      ],
      "stateMutability": "nonpayable",
      "type": "constructor"
    },
    {
      "anonymous": false,
      "inputs": [
        {
          "indexed": false,
          "internalType": "address",
          "name": "addr",
          "type": "address"
        },
        {
          "indexed": false,
          "internalType": "string",
          "name": "name",
          "type": "string"
        },
        {
          "indexed": false,
          "internalType": "string",
          "name": "surname",
          "type": "string"
        },
        {
          "indexed": false,
          "internalType": "uint256",
          "name": "orgId",
          "type": "uint256"
        }
      ],
      "name": "Register",
      "type": "event"
    },
    {
      "inputs": [
        {
          "internalType": "uint256",
          "name": "",
          "type": "uint256"
        },
        {
          "internalType": "uint256",
          "name": "",
          "type": "uint256"
        }
      ],
      "name": "assetToListOfUsers",
      "outputs": [
        {
          "internalType": "uint256",
          "name": "",
          "type": "uint256"
        }
      ],
      "stateMutability": "view",
      "type": "function",
      "constant": true
    },
    {
      "inputs": [],
      "name": "mainAddr",
      "outputs": [
        {
          "internalType": "address",
          "name": "",
          "type": "address"
        }
      ],
      "stateMutability": "view",
      "type": "function",
      "constant": true
    },
    {
      "inputs": [
        {
          "internalType": "uint256",
          "name": "",
          "type": "uint256"
        },
        {
          "internalType": "uint256",
          "name": "",
          "type": "uint256"
        }
      ],
      "name": "userIdToAssetList",
      "outputs": [
        {
          "internalType": "uint256",
          "name": "",
          "type": "uint256"
        }
      ],
      "stateMutability": "view",
      "type": "function",
      "constant": true
    },
    {
      "inputs": [
        {
          "internalType": "address",
          "name": "userAddress",
          "type": "address"
        }
      ],
      "name": "isUser",
      "outputs": [
        {
          "internalType": "bool",
          "name": "isIndeed",
          "type": "bool"
        }
      ],
      "stateMutability": "view",
      "type": "function",
      "constant": true
    },
    {
      "inputs": [
        {
          "internalType": "address",
          "name": "addr",
          "type": "address"
        },
        {
          "internalType": "string",
          "name": "name",
          "type": "string"
        },
        {
          "internalType": "string",
          "name": "surname",
          "type": "string"
        },
        {
          "internalType": "string",
          "name": "email",
          "type": "string"
        },
        {
          "internalType": "uint32",
          "name": "telephone",
          "type": "uint32"
        },
        {
          "internalType": "uint256",
          "name": "orgId",
          "type": "uint256"
        }
      ],
      "name": "insertUser",
      "outputs": [],
      "stateMutability": "nonpayable",
      "type": "function"
    },
    {
      "inputs": [
        {
          "internalType": "uint256",
          "name": "orgId",
          "type": "uint256"
        }
      ],
      "name": "getAllUsersFromOrg",
      "outputs": [
        {
          "components": [
            {
              "internalType": "address",
              "name": "addr",
              "type": "address"
            },
            {
              "internalType": "string",
              "name": "name",
              "type": "string"
            },
            {
              "internalType": "string",
              "name": "surname",
              "type": "string"
            },
            {
              "internalType": "string",
              "name": "email",
              "type": "string"
            },
            {
              "internalType": "uint32",
              "name": "telephone",
              "type": "uint32"
            },
            {
              "internalType": "uint256",
              "name": "orgId",
              "type": "uint256"
            },
            {
              "internalType": "uint256",
              "name": "index",
              "type": "uint256"
            }
          ],
          "internalType": "struct Users.User[]",
          "name": "",
          "type": "tuple[]"
        }
      ],
      "stateMutability": "view",
      "type": "function",
      "constant": true
    },
    {
      "inputs": [
        {
          "internalType": "uint256",
          "name": "orgId",
          "type": "uint256"
        }
      ],
      "name": "getNumUsersFromOrg",
      "outputs": [
        {
          "internalType": "uint256",
          "name": "",
          "type": "uint256"
        }
      ],
      "stateMutability": "view",
      "type": "function",
      "constant": true
    },
    {
      "inputs": [
        {
          "internalType": "uint256",
          "name": "userId",
          "type": "uint256"
        }
      ],
      "name": "getUserData",
      "outputs": [
        {
          "components": [
            {
              "internalType": "address",
              "name": "addr",
              "type": "address"
            },
            {
              "internalType": "string",
              "name": "name",
              "type": "string"
            },
            {
              "internalType": "string",
              "name": "surname",
              "type": "string"
            },
            {
              "internalType": "string",
              "name": "email",
              "type": "string"
            },
            {
              "internalType": "uint32",
              "name": "telephone",
              "type": "uint32"
            },
            {
              "internalType": "uint256",
              "name": "orgId",
              "type": "uint256"
            },
            {
              "internalType": "uint256",
              "name": "index",
              "type": "uint256"
            }
          ],
          "internalType": "struct Users.User",
          "name": "",
          "type": "tuple"
        }
      ],
      "stateMutability": "view",
      "type": "function",
      "constant": true
    },
    {
      "inputs": [
        {
          "internalType": "uint256",
          "name": "assetId",
          "type": "uint256"
        },
        {
          "internalType": "uint256[]",
          "name": "userIds",
          "type": "uint256[]"
        }
      ],
      "name": "insertUsersToAsset",
      "outputs": [],
      "stateMutability": "nonpayable",
      "type": "function"
    },
    {
      "inputs": [
        {
          "internalType": "uint256",
          "name": "userId",
          "type": "uint256"
        }
      ],
      "name": "getUserAssets",
      "outputs": [
        {
          "internalType": "uint256[]",
          "name": "assetIds",
          "type": "uint256[]"
        }
      ],
      "stateMutability": "view",
      "type": "function",
      "constant": true
    },
    {
      "inputs": [
        {
          "internalType": "uint256",
          "name": "assetId",
          "type": "uint256"
        }
      ],
      "name": "getAssetUsers",
      "outputs": [
        {
          "components": [
            {
              "internalType": "address",
              "name": "addr",
              "type": "address"
            },
            {
              "internalType": "string",
              "name": "name",
              "type": "string"
            },
            {
              "internalType": "string",
              "name": "surname",
              "type": "string"
            },
            {
              "internalType": "string",
              "name": "email",
              "type": "string"
            },
            {
              "internalType": "uint32",
              "name": "telephone",
              "type": "uint32"
            },
            {
              "internalType": "uint256",
              "name": "orgId",
              "type": "uint256"
            },
            {
              "internalType": "uint256",
              "name": "index",
              "type": "uint256"
            }
          ],
          "internalType": "struct Users.User[]",
          "name": "",
          "type": "tuple[]"
        }
      ],
      "stateMutability": "view",
      "type": "function",
      "constant": true
    },
    {
      "inputs": [
        {
          "internalType": "string",
          "name": "name",
          "type": "string"
        },
        {
          "internalType": "string",
          "name": "description",
          "type": "string"
        },
        {
          "internalType": "uint32",
          "name": "telephone",
          "type": "uint32"
        },
        {
          "internalType": "uint256",
          "name": "orgId",
          "type": "uint256"
        }
      ],
      "name": "insertDepartment",
      "outputs": [],
      "stateMutability": "nonpayable",
      "type": "function"
    },
    {
      "inputs": [
        {
          "internalType": "uint256",
          "name": "departId",
          "type": "uint256"
        }
      ],
      "name": "getDepartment",
      "outputs": [
        {
          "components": [
            {
              "internalType": "string",
              "name": "name",
              "type": "string"
            },
            {
              "internalType": "string",
              "name": "description",
              "type": "string"
            },
            {
              "internalType": "uint32",
              "name": "telephone",
              "type": "uint32"
            },
            {
              "internalType": "uint256",
              "name": "orgId",
              "type": "uint256"
            },
            {
              "internalType": "uint256",
              "name": "index",
              "type": "uint256"
            }
          ],
          "internalType": "struct Users.Department",
          "name": "",
          "type": "tuple"
        }
      ],
      "stateMutability": "view",
      "type": "function",
      "constant": true
    },
    {
      "inputs": [
        {
          "internalType": "uint256",
          "name": "orgId",
          "type": "uint256"
        }
      ],
      "name": "getAllDepartmentsFromOrg",
      "outputs": [
        {
          "components": [
            {
              "internalType": "string",
              "name": "name",
              "type": "string"
            },
            {
              "internalType": "string",
              "name": "description",
              "type": "string"
            },
            {
              "internalType": "uint32",
              "name": "telephone",
              "type": "uint32"
            },
            {
              "internalType": "uint256",
              "name": "orgId",
              "type": "uint256"
            },
            {
              "internalType": "uint256",
              "name": "index",
              "type": "uint256"
            }
          ],
          "internalType": "struct Users.Department[]",
          "name": "",
          "type": "tuple[]"
        }
      ],
      "stateMutability": "view",
      "type": "function",
      "constant": true
    },
    {
      "inputs": [
        {
          "internalType": "uint256",
          "name": "departId",
          "type": "uint256"
        },
        {
          "internalType": "uint256[]",
          "name": "userIds",
          "type": "uint256[]"
        }
      ],
      "name": "insertUserToDepartment",
      "outputs": [],
      "stateMutability": "nonpayable",
      "type": "function"
    },
    {
      "inputs": [
        {
          "internalType": "uint256",
          "name": "departId",
          "type": "uint256"
        },
        {
          "internalType": "uint256[]",
          "name": "userIds",
          "type": "uint256[]"
        }
      ],
      "name": "deleteUsersFromDepartment",
      "outputs": [],
      "stateMutability": "nonpayable",
      "type": "function"
    },
    {
      "inputs": [
        {
          "internalType": "uint256",
          "name": "departId",
          "type": "uint256"
        }
      ],
      "name": "getUsersIdsFromDepart",
      "outputs": [
        {
          "internalType": "uint256[]",
          "name": "",
          "type": "uint256[]"
        }
      ],
      "stateMutability": "view",
      "type": "function",
      "constant": true
    },
    {
      "inputs": [
        {
          "internalType": "uint256",
          "name": "departId",
          "type": "uint256"
        }
      ],
      "name": "getUsersFromDepart",
      "outputs": [
        {
          "components": [
            {
              "internalType": "address",
              "name": "addr",
              "type": "address"
            },
            {
              "internalType": "string",
              "name": "name",
              "type": "string"
            },
            {
              "internalType": "string",
              "name": "surname",
              "type": "string"
            },
            {
              "internalType": "string",
              "name": "email",
              "type": "string"
            },
            {
              "internalType": "uint32",
              "name": "telephone",
              "type": "uint32"
            },
            {
              "internalType": "uint256",
              "name": "orgId",
              "type": "uint256"
            },
            {
              "internalType": "uint256",
              "name": "index",
              "type": "uint256"
            }
          ],
          "internalType": "struct Users.User[]",
          "name": "",
          "type": "tuple[]"
        }
      ],
      "stateMutability": "view",
      "type": "function",
      "constant": true
    }
  ],
  "bytecode": "0x60806040523480156200001157600080fd5b506040516200330e3803806200330e8339818101604052810190620000379190620000e8565b806000806101000a81548173ffffffffffffffffffffffffffffffffffffffff021916908373ffffffffffffffffffffffffffffffffffffffff160217905550506200011a565b600080fd5b600073ffffffffffffffffffffffffffffffffffffffff82169050919050565b6000620000b08262000083565b9050919050565b620000c281620000a3565b8114620000ce57600080fd5b50565b600081519050620000e281620000b7565b92915050565b6000602082840312156200010157620001006200007e565b5b60006200011184828501620000d1565b91505092915050565b6131e4806200012a6000396000f3fe608060405234801561001057600080fd5b50600436106101165760003560e01c80636ecb141c116100a2578063d61490ef11610071578063d61490ef14610329578063dd2b6d3a14610359578063e2a2dd3f14610389578063e8bb900b146103a5578063fbc8ba84146103d557610116565b80636ecb141c1461029157806373adf71f146102c1578063b5ce789d146102dd578063c416f205146102f957610116565b80632ee45f4e116100e95780632ee45f4e146101b5578063405a7abc146101e55780634209fff1146102155780635ba506ef146102455780636dccbcc51461027557610116565b806304f468a71461011b5780631658747c146101395780631fef580c146101695780632c60e4a014610199575b600080fd5b610123610405565b6040516101309190612239565b60405180910390f35b610153600480360381019061014e919061229e565b610429565b604051610160919061240f565b60405180910390f35b610183600480360381019061017e919061229e565b6105c3565b60405161019091906124ea565b60405180910390f35b6101b360048036038101906101ae9190612699565b610845565b005b6101cf60048036038101906101ca919061229e565b610bf8565b6040516101dc91906128e6565b60405180910390f35b6101ff60048036038101906101fa919061229e565b610f93565b60405161020c9190612917565b60405180910390f35b61022f600480360381019061022a9190612932565b610fb8565b60405161023c919061297a565b60405180910390f35b61025f600480360381019061025a919061229e565b611084565b60405161026c9190612a44565b60405180910390f35b61028f600480360381019061028a9190612b2e565b6110ef565b005b6102ab60048036038101906102a6919061229e565b6112d7565b6040516102b89190612a44565b60405180910390f35b6102db60048036038101906102d69190612b2e565b611342565b005b6102f760048036038101906102f29190612b2e565b611414565b005b610313600480360381019061030e919061229e565b611562565b6040516103209190612cc9565b60405180910390f35b610343600480360381019061033e919061229e565b611815565b60405161035091906128e6565b60405180910390f35b610373600480360381019061036e9190612ceb565b611bb0565b6040516103809190612917565b60405180910390f35b6103a3600480360381019061039e9190612d2b565b611be1565b005b6103bf60048036038101906103ba9190612ceb565b611cfb565b6040516103cc9190612917565b60405180910390f35b6103ef60048036038101906103ea919061229e565b611d2c565b6040516103fc91906128e6565b60405180910390f35b60008054906101000a900473ffffffffffffffffffffffffffffffffffffffff1681565b6104316120c7565b6007828154811061044557610444612dca565b5b90600052602060002090600502016040518060a001604052908160008201805461046e90612e28565b80601f016020809104026020016040519081016040528092919081815260200182805461049a90612e28565b80156104e75780601f106104bc576101008083540402835291602001916104e7565b820191906000526020600020905b8154815290600101906020018083116104ca57829003601f168201915b5050505050815260200160018201805461050090612e28565b80601f016020809104026020016040519081016040528092919081815260200182805461052c90612e28565b80156105795780601f1061054e57610100808354040283529160200191610579565b820191906000526020600020905b81548152906001019060200180831161055c57829003601f168201915b505050505081526020016002820160009054906101000a900463ffffffff1663ffffffff1663ffffffff168152602001600382015481526020016004820154815250509050919050565b6105cb6120fc565b600182815481106105df576105de612dca565b5b90600052602060002090600702016040518060e00160405290816000820160009054906101000a900473ffffffffffffffffffffffffffffffffffffffff1673ffffffffffffffffffffffffffffffffffffffff1673ffffffffffffffffffffffffffffffffffffffff16815260200160018201805461065e90612e28565b80601f016020809104026020016040519081016040528092919081815260200182805461068a90612e28565b80156106d75780601f106106ac576101008083540402835291602001916106d7565b820191906000526020600020905b8154815290600101906020018083116106ba57829003601f168201915b505050505081526020016002820180546106f090612e28565b80601f016020809104026020016040519081016040528092919081815260200182805461071c90612e28565b80156107695780601f1061073e57610100808354040283529160200191610769565b820191906000526020600020905b81548152906001019060200180831161074c57829003601f168201915b5050505050815260200160038201805461078290612e28565b80601f01602080910402602001604051908101604052809291908181526020018280546107ae90612e28565b80156107fb5780601f106107d0576101008083540402835291602001916107fb565b820191906000526020600020905b8154815290600101906020018083116107de57829003601f168201915b505050505081526020016004820160009054906101000a900463ffffffff1663ffffffff1663ffffffff168152602001600582015481526020016006820154815250509050919050565b60008060009054906101000a900473ffffffffffffffffffffffffffffffffffffffff16905061087487610fb8565b156108b4576040517f08c379a00000000000000000000000000000000000000000000000000000000081526004016108ab90612eb7565b60405180910390fd5b6001826108c19190612f06565b8173ffffffffffffffffffffffffffffffffffffffff1663d81066906040518163ffffffff1660e01b8152600401602060405180830381865afa15801561090c573d6000803e3d6000fd5b505050506040513d601f19601f820116820180604052508101906109309190612f71565b1015610971576040517f08c379a000000000000000000000000000000000000000000000000000000000815260040161096890612fea565b60405180910390fd5b6000600180549050905060016040518060e001604052808a73ffffffffffffffffffffffffffffffffffffffff1681526020018981526020018881526020018781526020018663ffffffff16815260200185815260200183815250908060018154018082558091505060019003906000526020600020906007020160009091909190915060008201518160000160006101000a81548173ffffffffffffffffffffffffffffffffffffffff021916908373ffffffffffffffffffffffffffffffffffffffff1602179055506020820151816001019080519060200190610a58929190612155565b506040820151816002019080519060200190610a75929190612155565b506060820151816003019080519060200190610a92929190612155565b5060808201518160040160006101000a81548163ffffffff021916908363ffffffff16021790555060a0820151816005015560c0820151816006015550506003600084815260200190815260200160002081908060018154018082558091505060019003906000526020600020016000909190919091505580600460008a73ffffffffffffffffffffffffffffffffffffffff1673ffffffffffffffffffffffffffffffffffffffff168152602001908152602001600020819055506002889080600181540180825580915050600190039060005260206000200160009091909190916101000a81548173ffffffffffffffffffffffffffffffffffffffff021916908373ffffffffffffffffffffffffffffffffffffffff1602179055507f85c8fcee8505f10dc8a4f9b889000c6a759cffeafd2e3b519a19c836af2e02bd88888886604051610be69493929190613043565b60405180910390a15050505050505050565b6060600060066000848152602001908152602001600020805480602002602001604051908101604052809291908181526020018280548015610c5957602002820191906000526020600020905b815481526020019060010190808311610c45575b5050505050905060008151905060008167ffffffffffffffff811115610c8257610c81612542565b5b604051908082528060200260200182016040528015610cbb57816020015b610ca86120fc565b815260200190600190039081610ca05790505b50905060005b82811015610f87576001848281518110610cde57610cdd612dca565b5b602002602001015181548110610cf757610cf6612dca565b5b90600052602060002090600702016040518060e00160405290816000820160009054906101000a900473ffffffffffffffffffffffffffffffffffffffff1673ffffffffffffffffffffffffffffffffffffffff1673ffffffffffffffffffffffffffffffffffffffff168152602001600182018054610d7690612e28565b80601f0160208091040260200160405190810160405280929190818152602001828054610da290612e28565b8015610def5780601f10610dc457610100808354040283529160200191610def565b820191906000526020600020905b815481529060010190602001808311610dd257829003601f168201915b50505050508152602001600282018054610e0890612e28565b80601f0160208091040260200160405190810160405280929190818152602001828054610e3490612e28565b8015610e815780601f10610e5657610100808354040283529160200191610e81565b820191906000526020600020905b815481529060010190602001808311610e6457829003601f168201915b50505050508152602001600382018054610e9a90612e28565b80601f0160208091040260200160405190810160405280929190818152602001828054610ec690612e28565b8015610f135780601f10610ee857610100808354040283529160200191610f13565b820191906000526020600020905b815481529060010190602001808311610ef657829003601f168201915b505050505081526020016004820160009054906101000a900463ffffffff1663ffffffff1663ffffffff16815260200160058201548152602001600682015481525050828281518110610f6957610f68612dca565b5b60200260200101819052508080610f7f90613096565b915050610cc1565b50809350505050919050565b6000806003600084815260200190815260200160002080549050905080915050919050565b6000806002805490501415610fd0576000905061107f565b8173ffffffffffffffffffffffffffffffffffffffff166002600460008573ffffffffffffffffffffffffffffffffffffffff1673ffffffffffffffffffffffffffffffffffffffff168152602001908152602001600020548154811061103a57611039612dca565b5b9060005260206000200160009054906101000a900473ffffffffffffffffffffffffffffffffffffffff1673ffffffffffffffffffffffffffffffffffffffff161490505b919050565b6060600560008381526020019081526020016000208054806020026020016040519081016040528092919081815260200182805480156110e357602002820191906000526020600020905b8154815260200190600101908083116110cf575b50505050509050919050565b60008151905060005b818110156112d157600060096000868152602001908152602001600020600085848151811061112a57611129612dca565b5b6020026020010151815260200190815260200160002060006101000a81548160ff0219169083151502179055506000600a600086815260200190815260200160002080549050905060005b818110156112bc578483815181106111905761118f612dca565b5b6020026020010151600a600088815260200190815260200160002082815481106111bd576111bc612dca565b5b906000526020600020015414156112a95760008190505b6001836111e191906130df565b81101561126a57600a60008881526020019081526020016000206001826112089190612f06565b8154811061121957611218612dca565b5b9060005260206000200154600a6000898152602001908152602001600020828154811061124957611248612dca565b5b9060005260206000200181905550808061126290613096565b9150506111d4565b50600a600087815260200190815260200160002080548061128e5761128d613113565b5b600190038181906000526020600020016000905590556112bc565b80806112b490613096565b915050611175565b505080806112c990613096565b9150506110f8565b50505050565b6060600a600083815260200190815260200160002080548060200260200160405190810160405280929190818152602001828054801561133657602002820191906000526020600020905b815481526020019060010190808311611322575b50505050509050919050565b60008151905060005b8181101561140e576005600084838151811061136a57611369612dca565b5b60200260200101518152602001908152602001600020849080600181540180825580915050600190039060005260206000200160009091909190915055600660008581526020019081526020016000208382815181106113cd576113cc612dca565b5b60200260200101519080600181540180825580915050600190039060005260206000200160009091909190915055808061140690613096565b91505061134b565b50505050565b60008151905060005b8181101561155c576001151560096000868152602001908152602001600020600085848151811061145157611450612dca565b5b6020026020010151815260200190815260200160002060009054906101000a900460ff16151514156114b8576040517f08c379a00000000000000000000000000000000000000000000000000000000081526004016114af9061318e565b60405180910390fd5b600a60008581526020019081526020016000208382815181106114de576114dd612dca565b5b60200260200101519080600181540180825580915050600190039060005260206000200160009091909190915055600160096000868152602001908152602001600020600083815260200190815260200160002060006101000a81548160ff021916908315150217905550808061155490613096565b91505061141d565b50505050565b60606000600860008481526020019081526020016000208054806020026020016040519081016040528092919081815260200182805480156115c357602002820191906000526020600020905b8154815260200190600101908083116115af575b5050505050905060008151905060008167ffffffffffffffff8111156115ec576115eb612542565b5b60405190808252806020026020018201604052801561162557816020015b6116126120c7565b81526020019060019003908161160a5790505b50905060005b8281101561180957600784828151811061164857611647612dca565b5b60200260200101518154811061166157611660612dca565b5b90600052602060002090600502016040518060a001604052908160008201805461168a90612e28565b80601f01602080910402602001604051908101604052809291908181526020018280546116b690612e28565b80156117035780601f106116d857610100808354040283529160200191611703565b820191906000526020600020905b8154815290600101906020018083116116e657829003601f168201915b5050505050815260200160018201805461171c90612e28565b80601f016020809104026020016040519081016040528092919081815260200182805461174890612e28565b80156117955780601f1061176a57610100808354040283529160200191611795565b820191906000526020600020905b81548152906001019060200180831161177857829003601f168201915b505050505081526020016002820160009054906101000a900463ffffffff1663ffffffff1663ffffffff168152602001600382015481526020016004820154815250508282815181106117eb576117ea612dca565b5b6020026020010181905250808061180190613096565b91505061162b565b50809350505050919050565b60606000600a600084815260200190815260200160002080548060200260200160405190810160405280929190818152602001828054801561187657602002820191906000526020600020905b815481526020019060010190808311611862575b5050505050905060008151905060008167ffffffffffffffff81111561189f5761189e612542565b5b6040519080825280602002602001820160405280156118d857816020015b6118c56120fc565b8152602001906001900390816118bd5790505b50905060005b82811015611ba45760018482815181106118fb576118fa612dca565b5b60200260200101518154811061191457611913612dca565b5b90600052602060002090600702016040518060e00160405290816000820160009054906101000a900473ffffffffffffffffffffffffffffffffffffffff1673ffffffffffffffffffffffffffffffffffffffff1673ffffffffffffffffffffffffffffffffffffffff16815260200160018201805461199390612e28565b80601f01602080910402602001604051908101604052809291908181526020018280546119bf90612e28565b8015611a0c5780601f106119e157610100808354040283529160200191611a0c565b820191906000526020600020905b8154815290600101906020018083116119ef57829003601f168201915b50505050508152602001600282018054611a2590612e28565b80601f0160208091040260200160405190810160405280929190818152602001828054611a5190612e28565b8015611a9e5780601f10611a7357610100808354040283529160200191611a9e565b820191906000526020600020905b815481529060010190602001808311611a8157829003601f168201915b50505050508152602001600382018054611ab790612e28565b80601f0160208091040260200160405190810160405280929190818152602001828054611ae390612e28565b8015611b305780601f10611b0557610100808354040283529160200191611b30565b820191906000526020600020905b815481529060010190602001808311611b1357829003601f168201915b505050505081526020016004820160009054906101000a900463ffffffff1663ffffffff1663ffffffff16815260200160058201548152602001600682015481525050828281518110611b8657611b85612dca565b5b60200260200101819052508080611b9c90613096565b9150506118de565b50809350505050919050565b60056020528160005260406000208181548110611bcc57600080fd5b90600052602060002001600091509150505481565b6000600780549050905060076040518060a001604052808781526020018681526020018563ffffffff1681526020018481526020018381525090806001815401808255809150506001900390600052602060002090600502016000909190919091506000820151816000019080519060200190611c5f929190612155565b506020820151816001019080519060200190611c7c929190612155565b5060408201518160020160006101000a81548163ffffffff021916908363ffffffff16021790555060608201518160030155608082015181600401555050600860008381526020019081526020016000208190806001815401808255809150506001900390600052602060002001600090919091909150555050505050565b60066020528160005260406000208181548110611d1757600080fd5b90600052602060002001600091509150505481565b6060600060036000848152602001908152602001600020805480602002602001604051908101604052809291908181526020018280548015611d8d57602002820191906000526020600020905b815481526020019060010190808311611d79575b5050505050905060008151905060008167ffffffffffffffff811115611db657611db5612542565b5b604051908082528060200260200182016040528015611def57816020015b611ddc6120fc565b815260200190600190039081611dd45790505b50905060005b828110156120bb576001848281518110611e1257611e11612dca565b5b602002602001015181548110611e2b57611e2a612dca565b5b90600052602060002090600702016040518060e00160405290816000820160009054906101000a900473ffffffffffffffffffffffffffffffffffffffff1673ffffffffffffffffffffffffffffffffffffffff1673ffffffffffffffffffffffffffffffffffffffff168152602001600182018054611eaa90612e28565b80601f0160208091040260200160405190810160405280929190818152602001828054611ed690612e28565b8015611f235780601f10611ef857610100808354040283529160200191611f23565b820191906000526020600020905b815481529060010190602001808311611f0657829003601f168201915b50505050508152602001600282018054611f3c90612e28565b80601f0160208091040260200160405190810160405280929190818152602001828054611f6890612e28565b8015611fb55780601f10611f8a57610100808354040283529160200191611fb5565b820191906000526020600020905b815481529060010190602001808311611f9857829003601f168201915b50505050508152602001600382018054611fce90612e28565b80601f0160208091040260200160405190810160405280929190818152602001828054611ffa90612e28565b80156120475780601f1061201c57610100808354040283529160200191612047565b820191906000526020600020905b81548152906001019060200180831161202a57829003601f168201915b505050505081526020016004820160009054906101000a900463ffffffff1663ffffffff1663ffffffff1681526020016005820154815260200160068201548152505082828151811061209d5761209c612dca565b5b602002602001018190525080806120b390613096565b915050611df5565b50809350505050919050565b6040518060a001604052806060815260200160608152602001600063ffffffff16815260200160008152602001600081525090565b6040518060e00160405280600073ffffffffffffffffffffffffffffffffffffffff168152602001606081526020016060815260200160608152602001600063ffffffff16815260200160008152602001600081525090565b82805461216190612e28565b90600052602060002090601f01602090048101928261218357600085556121ca565b82601f1061219c57805160ff19168380011785556121ca565b828001600101855582156121ca579182015b828111156121c95782518255916020019190600101906121ae565b5b5090506121d791906121db565b5090565b5b808211156121f45760008160009055506001016121dc565b5090565b600073ffffffffffffffffffffffffffffffffffffffff82169050919050565b6000612223826121f8565b9050919050565b61223381612218565b82525050565b600060208201905061224e600083018461222a565b92915050565b6000604051905090565b600080fd5b600080fd5b6000819050919050565b61227b81612268565b811461228657600080fd5b50565b60008135905061229881612272565b92915050565b6000602082840312156122b4576122b361225e565b5b60006122c284828501612289565b91505092915050565b600081519050919050565b600082825260208201905092915050565b60005b838110156123055780820151818401526020810190506122ea565b83811115612314576000848401525b50505050565b6000601f19601f8301169050919050565b6000612336826122cb565b61234081856122d6565b93506123508185602086016122e7565b6123598161231a565b840191505092915050565b600063ffffffff82169050919050565b61237d81612364565b82525050565b61238c81612268565b82525050565b600060a08301600083015184820360008601526123af828261232b565b915050602083015184820360208601526123c9828261232b565b91505060408301516123de6040860182612374565b5060608301516123f16060860182612383565b5060808301516124046080860182612383565b508091505092915050565b600060208201905081810360008301526124298184612392565b905092915050565b61243a81612218565b82525050565b600060e0830160008301516124586000860182612431565b5060208301518482036020860152612470828261232b565b9150506040830151848203604086015261248a828261232b565b915050606083015184820360608601526124a4828261232b565b91505060808301516124b96080860182612374565b5060a08301516124cc60a0860182612383565b5060c08301516124df60c0860182612383565b508091505092915050565b600060208201905081810360008301526125048184612440565b905092915050565b61251581612218565b811461252057600080fd5b50565b6000813590506125328161250c565b92915050565b600080fd5b600080fd5b7f4e487b7100000000000000000000000000000000000000000000000000000000600052604160045260246000fd5b61257a8261231a565b810181811067ffffffffffffffff8211171561259957612598612542565b5b80604052505050565b60006125ac612254565b90506125b88282612571565b919050565b600067ffffffffffffffff8211156125d8576125d7612542565b5b6125e18261231a565b9050602081019050919050565b82818337600083830152505050565b600061261061260b846125bd565b6125a2565b90508281526020810184848401111561262c5761262b61253d565b5b6126378482856125ee565b509392505050565b600082601f83011261265457612653612538565b5b81356126648482602086016125fd565b91505092915050565b61267681612364565b811461268157600080fd5b50565b6000813590506126938161266d565b92915050565b60008060008060008060c087890312156126b6576126b561225e565b5b60006126c489828a01612523565b965050602087013567ffffffffffffffff8111156126e5576126e4612263565b5b6126f189828a0161263f565b955050604087013567ffffffffffffffff81111561271257612711612263565b5b61271e89828a0161263f565b945050606087013567ffffffffffffffff81111561273f5761273e612263565b5b61274b89828a0161263f565b935050608061275c89828a01612684565b92505060a061276d89828a01612289565b9150509295509295509295565b600081519050919050565b600082825260208201905092915050565b6000819050602082019050919050565b600060e0830160008301516127be6000860182612431565b50602083015184820360208601526127d6828261232b565b915050604083015184820360408601526127f0828261232b565b9150506060830151848203606086015261280a828261232b565b915050608083015161281f6080860182612374565b5060a083015161283260a0860182612383565b5060c083015161284560c0860182612383565b508091505092915050565b600061285c83836127a6565b905092915050565b6000602082019050919050565b600061287c8261277a565b6128868185612785565b93508360208202850161289885612796565b8060005b858110156128d457848403895281516128b58582612850565b94506128c083612864565b925060208a0199505060018101905061289c565b50829750879550505050505092915050565b600060208201905081810360008301526129008184612871565b905092915050565b61291181612268565b82525050565b600060208201905061292c6000830184612908565b92915050565b6000602082840312156129485761294761225e565b5b600061295684828501612523565b91505092915050565b60008115159050919050565b6129748161295f565b82525050565b600060208201905061298f600083018461296b565b92915050565b600081519050919050565b600082825260208201905092915050565b6000819050602082019050919050565b60006129cd8383612383565b60208301905092915050565b6000602082019050919050565b60006129f182612995565b6129fb81856129a0565b9350612a06836129b1565b8060005b83811015612a37578151612a1e88826129c1565b9750612a29836129d9565b925050600181019050612a0a565b5085935050505092915050565b60006020820190508181036000830152612a5e81846129e6565b905092915050565b600067ffffffffffffffff821115612a8157612a80612542565b5b602082029050602081019050919050565b600080fd5b6000612aaa612aa584612a66565b6125a2565b90508083825260208201905060208402830185811115612acd57612acc612a92565b5b835b81811015612af65780612ae28882612289565b845260208401935050602081019050612acf565b5050509392505050565b600082601f830112612b1557612b14612538565b5b8135612b25848260208601612a97565b91505092915050565b60008060408385031215612b4557612b4461225e565b5b6000612b5385828601612289565b925050602083013567ffffffffffffffff811115612b7457612b73612263565b5b612b8085828601612b00565b9150509250929050565b600081519050919050565b600082825260208201905092915050565b6000819050602082019050919050565b600060a0830160008301518482036000860152612bd3828261232b565b91505060208301518482036020860152612bed828261232b565b9150506040830151612c026040860182612374565b506060830151612c156060860182612383565b506080830151612c286080860182612383565b508091505092915050565b6000612c3f8383612bb6565b905092915050565b6000602082019050919050565b6000612c5f82612b8a565b612c698185612b95565b935083602082028501612c7b85612ba6565b8060005b85811015612cb75784840389528151612c988582612c33565b9450612ca383612c47565b925060208a01995050600181019050612c7f565b50829750879550505050505092915050565b60006020820190508181036000830152612ce38184612c54565b905092915050565b60008060408385031215612d0257612d0161225e565b5b6000612d1085828601612289565b9250506020612d2185828601612289565b9150509250929050565b60008060008060808587031215612d4557612d4461225e565b5b600085013567ffffffffffffffff811115612d6357612d62612263565b5b612d6f8782880161263f565b945050602085013567ffffffffffffffff811115612d9057612d8f612263565b5b612d9c8782880161263f565b9350506040612dad87828801612684565b9250506060612dbe87828801612289565b91505092959194509250565b7f4e487b7100000000000000000000000000000000000000000000000000000000600052603260045260246000fd5b7f4e487b7100000000000000000000000000000000000000000000000000000000600052602260045260246000fd5b60006002820490506001821680612e4057607f821691505b60208210811415612e5457612e53612df9565b5b50919050565b600082825260208201905092915050565b7f4164647265737320616c72656164792072656769737465726564000000000000600082015250565b6000612ea1601a83612e5a565b9150612eac82612e6b565b602082019050919050565b60006020820190508181036000830152612ed081612e94565b9050919050565b7f4e487b7100000000000000000000000000000000000000000000000000000000600052601160045260246000fd5b6000612f1182612268565b9150612f1c83612268565b9250827fffffffffffffffffffffffffffffffffffffffffffffffffffffffffffffffff03821115612f5157612f50612ed7565b5b828201905092915050565b600081519050612f6b81612272565b92915050565b600060208284031215612f8757612f8661225e565b5b6000612f9584828501612f5c565b91505092915050565b7f4f72674964206e6f7420666f756e640000000000000000000000000000000000600082015250565b6000612fd4600f83612e5a565b9150612fdf82612f9e565b602082019050919050565b6000602082019050818103600083015261300381612fc7565b9050919050565b6000613015826122cb565b61301f8185612e5a565b935061302f8185602086016122e7565b6130388161231a565b840191505092915050565b6000608082019050613058600083018761222a565b818103602083015261306a818661300a565b9050818103604083015261307e818561300a565b905061308d6060830184612908565b95945050505050565b60006130a182612268565b91507fffffffffffffffffffffffffffffffffffffffffffffffffffffffffffffffff8214156130d4576130d3612ed7565b5b600182019050919050565b60006130ea82612268565b91506130f583612268565b92508282101561310857613107612ed7565b5b828203905092915050565b7f4e487b7100000000000000000000000000000000000000000000000000000000600052603160045260246000fd5b7f7573657220616c726561647920696e206465706172746d656e74000000000000600082015250565b6000613178601a83612e5a565b915061318382613142565b602082019050919050565b600060208201905081810360008301526131a78161316b565b905091905056fea2646970667358221220ee311b693cafdb546341a318e46dff7c54d9245c2dc7680ef3e1f6fedfdad2ba64736f6c634300080c0033",
  "immutableReferences": {},
  "source": "// SPDX-License-Identifier: MIT\r\npragma solidity >=0.7.0 <0.9.10;\r\nimport \"./Main.sol\";\r\n\r\ncontract Users {\r\n\r\n    address public mainAddr;\r\n\r\n    constructor (address _mainAddr){\r\n        mainAddr = _mainAddr;\r\n    }\r\n\r\n    event Register(\r\n        address addr, \r\n        string name,\r\n        string surname,\r\n        uint orgId \r\n    );\r\n\r\n    struct User {\r\n        address addr;\r\n        string name;\r\n        string surname;\r\n        string email;\r\n        uint32 telephone;\r\n        uint orgId;\r\n        uint256 index;\r\n    }\r\n\r\n    User[] private userList;\r\n    address[] private users;\r\n    mapping(uint256 => uint256[]) orgIdToUserList;\r\n\r\n\r\n    mapping(address => uint) addressToId;\r\n\r\n\r\n\r\n    function isUser(address userAddress) public view returns (bool isIndeed) {\r\n        if (users.length == 0) return false;\r\n        return (users[addressToId[userAddress]] == userAddress);\r\n    }\r\n\r\n   \r\n\r\n    function insertUser(\r\n        address addr, \r\n        string memory name, \r\n        string memory surname, \r\n        string memory email, \r\n        uint32 telephone,\r\n        uint orgId \r\n    ) public {\r\n        //Instance main contract to see if the id of the org exists\r\n        Main mainInstance = Main(mainAddr);\r\n\r\n        if(isUser(addr)) revert(\"Address already registered\");\r\n        if((mainInstance.orgCount()) < (uint256(orgId)+1)) revert(\"OrgId not found\");\r\n        uint userId = userList.length;\r\n        userList.push(User(addr, name, surname, email, telephone, orgId, userId));\r\n        orgIdToUserList[orgId].push(userId);\r\n        addressToId[addr] = userId;\r\n        users.push(addr);\r\n        emit Register(addr, name, surname, orgId);\r\n    }\r\n\r\n\r\n\r\n    function getAllUsersFromOrg(uint orgId) public view returns(User[] memory){\r\n        uint[] memory idList = orgIdToUserList[orgId];\r\n        uint cont = idList.length;\r\n        User[] memory usersFromOrg = new User[](cont);\r\n\r\n        for (uint i = 0; i < cont; i++) {\r\n            usersFromOrg[i] = userList[idList[i]];\r\n        }\r\n        return usersFromOrg;\r\n    }\r\n\r\n    function getNumUsersFromOrg(uint orgId) public view returns(uint){\r\n        uint usersFromOrg = orgIdToUserList[orgId].length;\r\n        return usersFromOrg;\r\n    }\r\n\r\n\r\n\r\n    function getUserData(uint userId) public view returns(User memory){\r\n        return userList[userId];\r\n    }\r\n\r\n    //RELATION BETWEEN ASSET AND USER\r\n\r\n    mapping(uint => uint[]) public userIdToAssetList;\r\n    mapping(uint => uint[]) public assetToListOfUsers;\r\n\r\n\r\n    function insertUsersToAsset(uint assetId, uint[] memory userIds) public {\r\n        uint cont = userIds.length;\r\n        for (uint i = 0; i < cont; i++) {\r\n            userIdToAssetList[userIds[i]].push(assetId);\r\n            assetToListOfUsers[assetId].push(userIds[i]);\r\n        }\r\n\r\n        \r\n    }\r\n\r\n    function getUserAssets(uint userId) public view returns(uint[] memory assetIds){\r\n        return userIdToAssetList[userId];\r\n    }\r\n\r\n    function getAssetUsers(uint assetId) public view returns(User[] memory){\r\n        uint[] memory list = assetToListOfUsers[assetId];\r\n        uint cont = list.length;\r\n        User[] memory usersOfAsset = new User[](cont);\r\n        for (uint i = 0; i < cont; i++) {\r\n            usersOfAsset[i] = userList[list[i]];\r\n        }\r\n        return usersOfAsset;\r\n    }\r\n\r\n\r\n    //DEPARTMENTS\r\n    \r\n    struct Department {\r\n        string name;\r\n        string description;\r\n        uint32 telephone;\r\n        uint orgId;\r\n        uint256 index;\r\n    }\r\n\r\n    Department[] private departList;\r\n    mapping(uint256 => uint256[]) orgIdToDepartList;\r\n\r\n\r\n    \r\n    mapping(uint => mapping(uint => bool)) departToUserBool;\r\n    mapping(uint => uint[]) departIdToUserList;\r\n\r\n\r\n    function insertDepartment(string memory name,\r\n        string memory description,\r\n        uint32 telephone,\r\n        uint orgId\r\n        ) public {\r\n            uint departId = departList.length;\r\n            departList.push(Department(name, description, telephone, orgId, departId));\r\n            orgIdToDepartList[orgId].push(departId);\r\n    }\r\n\r\n    function getDepartment(uint departId) public view returns(Department memory){\r\n        return departList[departId];\r\n    }\r\n\r\n    function getAllDepartmentsFromOrg(uint orgId) public view returns(Department[] memory){\r\n        uint[] memory idList = orgIdToDepartList[orgId];\r\n        uint cont = idList.length;\r\n        Department[] memory departFromOrg = new Department[](cont);\r\n\r\n        for (uint i = 0; i < cont; i++) {\r\n            departFromOrg[i] = departList[idList[i]];\r\n        }\r\n        return departFromOrg;\r\n    }\r\n\r\n\r\n\r\n    //USERS from department\r\n    function insertUserToDepartment(uint departId, uint[] memory userIds) public {\r\n        uint cont = userIds.length;\r\n        for (uint i = 0; i < cont; i++) {\r\n            if(departToUserBool[departId][userIds[i]] == true) {\r\n                revert(\"user already in department\");\r\n            } else {\r\n                departIdToUserList[departId].push(userIds[i]);\r\n                departToUserBool[departId][i] = true;\r\n            }\r\n            \r\n        }\r\n    }\r\n\r\n    //If admin wants to delete any user from the department\r\n    //first we will need to find that user \r\n    //and then delete the index \r\n    function deleteUsersFromDepartment(uint departId, uint[] memory userIds) public {\r\n        uint userCont = userIds.length;\r\n        for (uint i = 0; i < userCont; i++) {\r\n            departToUserBool[departId][userIds[i]] = false;\r\n            uint departUsers = departIdToUserList[departId].length;\r\n            for(uint o = 0; o < departUsers; o++){\r\n                if (departIdToUserList[departId][o] == userIds[i]){\r\n                    for (uint e = o; e<departUsers-1; e++){\r\n                        departIdToUserList[departId][e] = departIdToUserList[departId][e+1];\r\n                    }\r\n                    departIdToUserList[departId].pop();\r\n                    break;\r\n                }\r\n            }\r\n        }\r\n    }\r\n\r\n\r\n    function getUsersIdsFromDepart(uint departId) public view returns(uint[] memory){\r\n        return departIdToUserList[departId];\r\n        \r\n    }\r\n\r\n\r\n\r\n    function getUsersFromDepart(uint departId) public view returns(User[] memory){\r\n        uint[] memory idList = departIdToUserList[departId];\r\n        uint cont = idList.length;\r\n        User[] memory usersFromDepart = new User[](cont);\r\n\r\n        for (uint i = 0; i < cont; i++) {\r\n            usersFromDepart[i] = userList[idList[i]];\r\n        }\r\n        return usersFromDepart;\r\n    }\r\n\r\n\r\n\r\n}",
  "sourcePath": "D:\\GIT\\inventory-blockchain\\blockchain\\contracts\\Users.sol",
  "compiler": {
    "name": "solc",
    "version": "0.8.12+commit.f00d7308.Emscripten.clang"
  },
  "schemaVersion": "3.4.6",
  "updatedAt": "2022-05-05T17:31:20.832Z",
  "networkType": "ethereum",
  "devdoc": {
    "kind": "dev",
    "methods": {},
    "version": 1
  },
  "userdoc": {
    "kind": "user",
    "methods": {},
    "version": 1
  }
}