{
  "contractName": "Users",
  "abi": [
    {
      "inputs": [
        {
          "internalType": "address",
          "name": "_mainAddr",
          "type": "address"
        }
      ],
      "stateMutability": "nonpayable",
      "type": "constructor"
    },
    {
      "anonymous": false,
      "inputs": [
        {
          "indexed": false,
          "internalType": "address",
          "name": "addr",
          "type": "address"
        },
        {
          "indexed": false,
          "internalType": "string",
          "name": "name",
          "type": "string"
        },
        {
          "indexed": false,
          "internalType": "string",
          "name": "surname",
          "type": "string"
        },
        {
          "indexed": false,
          "internalType": "uint256",
          "name": "orgId",
          "type": "uint256"
        }
      ],
      "name": "Register",
      "type": "event"
    },
    {
      "inputs": [
        {
          "internalType": "uint256",
          "name": "",
          "type": "uint256"
        },
        {
          "internalType": "uint256",
          "name": "",
          "type": "uint256"
        }
      ],
      "name": "assetToListOfUsers",
      "outputs": [
        {
          "internalType": "uint256",
          "name": "",
          "type": "uint256"
        }
      ],
      "stateMutability": "view",
      "type": "function",
      "constant": true
    },
    {
      "inputs": [],
      "name": "mainAddr",
      "outputs": [
        {
          "internalType": "address",
          "name": "",
          "type": "address"
        }
      ],
      "stateMutability": "view",
      "type": "function",
      "constant": true
    },
    {
      "inputs": [
        {
          "internalType": "uint256",
          "name": "",
          "type": "uint256"
        },
        {
          "internalType": "uint256",
          "name": "",
          "type": "uint256"
        }
      ],
      "name": "userIdToAssetList",
      "outputs": [
        {
          "internalType": "uint256",
          "name": "",
          "type": "uint256"
        }
      ],
      "stateMutability": "view",
      "type": "function",
      "constant": true
    },
    {
      "inputs": [
        {
          "internalType": "address",
          "name": "userAddress",
          "type": "address"
        }
      ],
      "name": "isUser",
      "outputs": [
        {
          "internalType": "bool",
          "name": "isIndeed",
          "type": "bool"
        }
      ],
      "stateMutability": "view",
      "type": "function",
      "constant": true
    },
    {
      "inputs": [
        {
          "internalType": "address",
          "name": "addr",
          "type": "address"
        },
        {
          "internalType": "string",
          "name": "name",
          "type": "string"
        },
        {
          "internalType": "string",
          "name": "surname",
          "type": "string"
        },
        {
          "internalType": "string",
          "name": "email",
          "type": "string"
        },
        {
          "internalType": "uint32",
          "name": "telephone",
          "type": "uint32"
        },
        {
          "internalType": "uint256",
          "name": "orgId",
          "type": "uint256"
        }
      ],
      "name": "insertUser",
      "outputs": [],
      "stateMutability": "nonpayable",
      "type": "function"
    },
    {
      "inputs": [
        {
          "internalType": "uint256",
          "name": "orgId",
          "type": "uint256"
        }
      ],
      "name": "getAllUsersFromOrg",
      "outputs": [
        {
          "components": [
            {
              "internalType": "address",
              "name": "addr",
              "type": "address"
            },
            {
              "internalType": "string",
              "name": "name",
              "type": "string"
            },
            {
              "internalType": "string",
              "name": "surname",
              "type": "string"
            },
            {
              "internalType": "string",
              "name": "email",
              "type": "string"
            },
            {
              "internalType": "uint32",
              "name": "telephone",
              "type": "uint32"
            },
            {
              "internalType": "uint256",
              "name": "orgId",
              "type": "uint256"
            },
            {
              "internalType": "uint256",
              "name": "index",
              "type": "uint256"
            }
          ],
          "internalType": "struct Users.User[]",
          "name": "",
          "type": "tuple[]"
        }
      ],
      "stateMutability": "view",
      "type": "function",
      "constant": true
    },
    {
      "inputs": [
        {
          "internalType": "uint256",
          "name": "orgId",
          "type": "uint256"
        }
      ],
      "name": "getNumUsersFromOrg",
      "outputs": [
        {
          "internalType": "uint256",
          "name": "",
          "type": "uint256"
        }
      ],
      "stateMutability": "view",
      "type": "function",
      "constant": true
    },
    {
      "inputs": [
        {
          "internalType": "uint256",
          "name": "userId",
          "type": "uint256"
        }
      ],
      "name": "getUserData",
      "outputs": [
        {
          "components": [
            {
              "internalType": "address",
              "name": "addr",
              "type": "address"
            },
            {
              "internalType": "string",
              "name": "name",
              "type": "string"
            },
            {
              "internalType": "string",
              "name": "surname",
              "type": "string"
            },
            {
              "internalType": "string",
              "name": "email",
              "type": "string"
            },
            {
              "internalType": "uint32",
              "name": "telephone",
              "type": "uint32"
            },
            {
              "internalType": "uint256",
              "name": "orgId",
              "type": "uint256"
            },
            {
              "internalType": "uint256",
              "name": "index",
              "type": "uint256"
            }
          ],
          "internalType": "struct Users.User",
          "name": "",
          "type": "tuple"
        }
      ],
      "stateMutability": "view",
      "type": "function",
      "constant": true
    },
    {
      "inputs": [
        {
          "internalType": "uint256",
          "name": "assetId",
          "type": "uint256"
        },
        {
          "internalType": "uint256[]",
          "name": "userIds",
          "type": "uint256[]"
        }
      ],
      "name": "insertUsersToAsset",
      "outputs": [],
      "stateMutability": "nonpayable",
      "type": "function"
    },
    {
      "inputs": [
        {
          "internalType": "uint256",
          "name": "userId",
          "type": "uint256"
        }
      ],
      "name": "getUserAssets",
      "outputs": [
        {
          "internalType": "uint256[]",
          "name": "assetIds",
          "type": "uint256[]"
        }
      ],
      "stateMutability": "view",
      "type": "function",
      "constant": true
    },
    {
      "inputs": [
        {
          "internalType": "uint256",
          "name": "assetId",
          "type": "uint256"
        }
      ],
      "name": "getAssetUsers",
      "outputs": [
        {
          "components": [
            {
              "internalType": "address",
              "name": "addr",
              "type": "address"
            },
            {
              "internalType": "string",
              "name": "name",
              "type": "string"
            },
            {
              "internalType": "string",
              "name": "surname",
              "type": "string"
            },
            {
              "internalType": "string",
              "name": "email",
              "type": "string"
            },
            {
              "internalType": "uint32",
              "name": "telephone",
              "type": "uint32"
            },
            {
              "internalType": "uint256",
              "name": "orgId",
              "type": "uint256"
            },
            {
              "internalType": "uint256",
              "name": "index",
              "type": "uint256"
            }
          ],
          "internalType": "struct Users.User[]",
          "name": "",
          "type": "tuple[]"
        }
      ],
      "stateMutability": "view",
      "type": "function",
      "constant": true
    },
    {
      "inputs": [
        {
          "internalType": "address",
          "name": "addr",
          "type": "address"
        },
        {
          "internalType": "uint256",
          "name": "orgId",
          "type": "uint256"
        }
      ],
      "name": "isUserFromOrg",
      "outputs": [
        {
          "internalType": "bool",
          "name": "",
          "type": "bool"
        }
      ],
      "stateMutability": "view",
      "type": "function",
      "constant": true
    },
    {
      "inputs": [
        {
          "internalType": "address",
          "name": "addr",
          "type": "address"
        },
        {
          "internalType": "uint256",
          "name": "departId",
          "type": "uint256"
        }
      ],
      "name": "isUserFromDepart",
      "outputs": [
        {
          "internalType": "bool",
          "name": "",
          "type": "bool"
        }
      ],
      "stateMutability": "view",
      "type": "function",
      "constant": true
    },
    {
      "inputs": [
        {
          "internalType": "address",
          "name": "addr",
          "type": "address"
        },
        {
          "internalType": "uint256",
          "name": "orgId",
          "type": "uint256"
        }
      ],
      "name": "isAdminFromOrg",
      "outputs": [
        {
          "internalType": "bool",
          "name": "",
          "type": "bool"
        }
      ],
      "stateMutability": "view",
      "type": "function",
      "constant": true
    },
    {
      "inputs": [
        {
          "internalType": "string",
          "name": "name",
          "type": "string"
        },
        {
          "internalType": "string",
          "name": "description",
          "type": "string"
        },
        {
          "internalType": "uint32",
          "name": "telephone",
          "type": "uint32"
        },
        {
          "internalType": "uint256",
          "name": "orgId",
          "type": "uint256"
        },
        {
          "internalType": "address",
          "name": "addr",
          "type": "address"
        }
      ],
      "name": "insertDepartment",
      "outputs": [],
      "stateMutability": "nonpayable",
      "type": "function"
    },
    {
      "inputs": [
        {
          "internalType": "uint256",
          "name": "departId",
          "type": "uint256"
        }
      ],
      "name": "getDepartment",
      "outputs": [
        {
          "components": [
            {
              "internalType": "string",
              "name": "name",
              "type": "string"
            },
            {
              "internalType": "string",
              "name": "description",
              "type": "string"
            },
            {
              "internalType": "uint32",
              "name": "telephone",
              "type": "uint32"
            },
            {
              "internalType": "uint256",
              "name": "orgId",
              "type": "uint256"
            },
            {
              "internalType": "uint256",
              "name": "index",
              "type": "uint256"
            }
          ],
          "internalType": "struct Users.Department",
          "name": "",
          "type": "tuple"
        }
      ],
      "stateMutability": "view",
      "type": "function",
      "constant": true
    },
    {
      "inputs": [
        {
          "internalType": "uint256",
          "name": "orgId",
          "type": "uint256"
        }
      ],
      "name": "getAllDepartmentsFromOrg",
      "outputs": [
        {
          "components": [
            {
              "internalType": "string",
              "name": "name",
              "type": "string"
            },
            {
              "internalType": "string",
              "name": "description",
              "type": "string"
            },
            {
              "internalType": "uint32",
              "name": "telephone",
              "type": "uint32"
            },
            {
              "internalType": "uint256",
              "name": "orgId",
              "type": "uint256"
            },
            {
              "internalType": "uint256",
              "name": "index",
              "type": "uint256"
            }
          ],
          "internalType": "struct Users.Department[]",
          "name": "",
          "type": "tuple[]"
        }
      ],
      "stateMutability": "view",
      "type": "function",
      "constant": true
    },
    {
      "inputs": [
        {
          "internalType": "uint256",
          "name": "departId",
          "type": "uint256"
        },
        {
          "internalType": "uint256[]",
          "name": "userIds",
          "type": "uint256[]"
        }
      ],
      "name": "insertUserToDepartment",
      "outputs": [],
      "stateMutability": "nonpayable",
      "type": "function"
    },
    {
      "inputs": [
        {
          "internalType": "uint256",
          "name": "departId",
          "type": "uint256"
        },
        {
          "internalType": "uint256[]",
          "name": "userIds",
          "type": "uint256[]"
        }
      ],
      "name": "deleteUsersFromDepartment",
      "outputs": [],
      "stateMutability": "nonpayable",
      "type": "function"
    },
    {
      "inputs": [
        {
          "internalType": "uint256",
          "name": "departId",
          "type": "uint256"
        }
      ],
      "name": "getUsersIdsFromDepart",
      "outputs": [
        {
          "internalType": "uint256[]",
          "name": "",
          "type": "uint256[]"
        }
      ],
      "stateMutability": "view",
      "type": "function",
      "constant": true
    },
    {
      "inputs": [
        {
          "internalType": "uint256",
          "name": "departId",
          "type": "uint256"
        }
      ],
      "name": "getUsersFromDepart",
      "outputs": [
        {
          "components": [
            {
              "internalType": "address",
              "name": "addr",
              "type": "address"
            },
            {
              "internalType": "string",
              "name": "name",
              "type": "string"
            },
            {
              "internalType": "string",
              "name": "surname",
              "type": "string"
            },
            {
              "internalType": "string",
              "name": "email",
              "type": "string"
            },
            {
              "internalType": "uint32",
              "name": "telephone",
              "type": "uint32"
            },
            {
              "internalType": "uint256",
              "name": "orgId",
              "type": "uint256"
            },
            {
              "internalType": "uint256",
              "name": "index",
              "type": "uint256"
            }
          ],
          "internalType": "struct Users.User[]",
          "name": "",
          "type": "tuple[]"
        }
      ],
      "stateMutability": "view",
      "type": "function",
      "constant": true
    },
    {
      "inputs": [
        {
          "internalType": "uint256",
          "name": "departId",
          "type": "uint256"
        },
        {
          "internalType": "uint256[]",
          "name": "assetsIds",
          "type": "uint256[]"
        }
      ],
      "name": "insertAssetToDepartment",
      "outputs": [],
      "stateMutability": "nonpayable",
      "type": "function"
    },
    {
      "inputs": [
        {
          "internalType": "uint256",
          "name": "departId",
          "type": "uint256"
        },
        {
          "internalType": "uint256[]",
          "name": "assetsIds",
          "type": "uint256[]"
        }
      ],
      "name": "deleteAssetFromDepartment",
      "outputs": [],
      "stateMutability": "nonpayable",
      "type": "function"
    },
    {
      "inputs": [
        {
          "internalType": "uint256",
          "name": "departId",
          "type": "uint256"
        }
      ],
      "name": "getAssetsIdsFromDepart",
      "outputs": [
        {
          "internalType": "uint256[]",
          "name": "",
          "type": "uint256[]"
        }
      ],
      "stateMutability": "view",
      "type": "function",
      "constant": true
    },
    {
      "inputs": [
        {
          "internalType": "string",
          "name": "name",
          "type": "string"
        },
        {
          "internalType": "uint256",
          "name": "organizationId",
          "type": "uint256"
        },
        {
          "internalType": "uint256",
          "name": "adquireDate",
          "type": "uint256"
        },
        {
          "internalType": "uint256",
          "name": "creationDate",
          "type": "uint256"
        },
        {
          "internalType": "uint8",
          "name": "assetType",
          "type": "uint8"
        },
        {
          "internalType": "uint256",
          "name": "assetDepart",
          "type": "uint256"
        },
        {
          "internalType": "string",
          "name": "version",
          "type": "string"
        },
        {
          "internalType": "string",
          "name": "provider",
          "type": "string"
        },
        {
          "internalType": "uint8",
          "name": "stype",
          "type": "uint8"
        },
        {
          "internalType": "address",
          "name": "addr",
          "type": "address"
        }
      ],
      "name": "insertNewSAssetWithDepartment",
      "outputs": [],
      "stateMutability": "nonpayable",
      "type": "function"
    },
    {
      "inputs": [
        {
          "internalType": "string",
          "name": "name",
          "type": "string"
        },
        {
          "internalType": "uint256",
          "name": "organizationId",
          "type": "uint256"
        },
        {
          "internalType": "uint256",
          "name": "adquireDate",
          "type": "uint256"
        },
        {
          "internalType": "uint256",
          "name": "creationDate",
          "type": "uint256"
        },
        {
          "internalType": "uint8",
          "name": "assetType",
          "type": "uint8"
        },
        {
          "internalType": "uint256",
          "name": "assetDepart",
          "type": "uint256"
        },
        {
          "internalType": "string",
          "name": "model",
          "type": "string"
        },
        {
          "internalType": "string",
          "name": "provider",
          "type": "string"
        },
        {
          "internalType": "string",
          "name": "serialNumber",
          "type": "string"
        },
        {
          "internalType": "uint8",
          "name": "htype",
          "type": "uint8"
        },
        {
          "internalType": "address",
          "name": "addr",
          "type": "address"
        }
      ],
      "name": "insertNewHAssetWithDepartment",
      "outputs": [],
      "stateMutability": "nonpayable",
      "type": "function"
    },
    {
      "inputs": [
        {
          "internalType": "string",
          "name": "name",
          "type": "string"
        },
        {
          "internalType": "uint256",
          "name": "organizationId",
          "type": "uint256"
        },
        {
          "internalType": "uint256",
          "name": "adquireDate",
          "type": "uint256"
        },
        {
          "internalType": "uint256",
          "name": "creationDate",
          "type": "uint256"
        },
        {
          "internalType": "uint8",
          "name": "assetType",
          "type": "uint8"
        },
        {
          "internalType": "uint256",
          "name": "assetDepart",
          "type": "uint256"
        },
        {
          "internalType": "string",
          "name": "description",
          "type": "string"
        },
        {
          "internalType": "string",
          "name": "location",
          "type": "string"
        },
        {
          "internalType": "uint8",
          "name": "doctype",
          "type": "uint8"
        },
        {
          "internalType": "address",
          "name": "addr",
          "type": "address"
        }
      ],
      "name": "insertNewDocAssetWithDepartment",
      "outputs": [],
      "stateMutability": "nonpayable",
      "type": "function"
    },
    {
      "inputs": [
        {
          "internalType": "string",
          "name": "name",
          "type": "string"
        },
        {
          "internalType": "uint256",
          "name": "organizationId",
          "type": "uint256"
        },
        {
          "internalType": "uint256",
          "name": "adquireDate",
          "type": "uint256"
        },
        {
          "internalType": "uint256",
          "name": "creationDate",
          "type": "uint256"
        },
        {
          "internalType": "uint8",
          "name": "assetType",
          "type": "uint8"
        },
        {
          "internalType": "uint256",
          "name": "assetDepart",
          "type": "uint256"
        },
        {
          "internalType": "string",
          "name": "location",
          "type": "string"
        },
        {
          "internalType": "bool",
          "name": "local",
          "type": "bool"
        },
        {
          "internalType": "address",
          "name": "addr",
          "type": "address"
        }
      ],
      "name": "insertNewDataAssetWithDepartment",
      "outputs": [],
      "stateMutability": "nonpayable",
      "type": "function"
    },
    {
      "inputs": [
        {
          "internalType": "string",
          "name": "name",
          "type": "string"
        },
        {
          "internalType": "uint256",
          "name": "organizationId",
          "type": "uint256"
        },
        {
          "internalType": "uint256",
          "name": "adquireDate",
          "type": "uint256"
        },
        {
          "internalType": "uint256",
          "name": "creationDate",
          "type": "uint256"
        },
        {
          "internalType": "uint8",
          "name": "assetType",
          "type": "uint8"
        },
        {
          "internalType": "uint256",
          "name": "assetDepart",
          "type": "uint256"
        },
        {
          "internalType": "string",
          "name": "cidrblock",
          "type": "string"
        },
        {
          "internalType": "bool",
          "name": "nat",
          "type": "bool"
        },
        {
          "internalType": "address",
          "name": "addr",
          "type": "address"
        }
      ],
      "name": "insertNewNAssetWithDepartment",
      "outputs": [],
      "stateMutability": "nonpayable",
      "type": "function"
    },
    {
      "inputs": [
        {
          "internalType": "string",
          "name": "name",
          "type": "string"
        },
        {
          "internalType": "uint256",
          "name": "organizationId",
          "type": "uint256"
        },
        {
          "internalType": "uint256",
          "name": "adquireDate",
          "type": "uint256"
        },
        {
          "internalType": "uint256",
          "name": "creationDate",
          "type": "uint256"
        },
        {
          "internalType": "uint8",
          "name": "assetType",
          "type": "uint8"
        },
        {
          "internalType": "uint256",
          "name": "assetDepart",
          "type": "uint256"
        },
        {
          "internalType": "string",
          "name": "url",
          "type": "string"
        },
        {
          "internalType": "string",
          "name": "domain",
          "type": "string"
        },
        {
          "internalType": "address",
          "name": "addr",
          "type": "address"
        }
      ],
      "name": "insertNewCAssetWithDepartment",
      "outputs": [],
      "stateMutability": "nonpayable",
      "type": "function"
    },
    {
      "inputs": [
        {
          "internalType": "string",
          "name": "name",
          "type": "string"
        },
        {
          "internalType": "uint256",
          "name": "organizationId",
          "type": "uint256"
        },
        {
          "internalType": "uint256",
          "name": "adquireDate",
          "type": "uint256"
        },
        {
          "internalType": "uint256",
          "name": "creationDate",
          "type": "uint256"
        },
        {
          "internalType": "uint8",
          "name": "assetType",
          "type": "uint8"
        },
        {
          "internalType": "uint256",
          "name": "assetDepart",
          "type": "uint256"
        },
        {
          "internalType": "string",
          "name": "description",
          "type": "string"
        },
        {
          "internalType": "address",
          "name": "addr",
          "type": "address"
        }
      ],
      "name": "insertNewOAssetWithDepartment",
      "outputs": [],
      "stateMutability": "nonpayable",
      "type": "function"
    },
    {
      "inputs": [
        {
          "internalType": "string",
          "name": "description",
          "type": "string"
        },
        {
          "internalType": "uint256",
          "name": "date",
          "type": "uint256"
        },
        {
          "internalType": "uint256",
          "name": "assetId",
          "type": "uint256"
        },
        {
          "internalType": "uint256",
          "name": "orgId",
          "type": "uint256"
        },
        {
          "internalType": "address",
          "name": "addr",
          "type": "address"
        }
      ],
      "name": "insertComment",
      "outputs": [],
      "stateMutability": "nonpayable",
      "type": "function"
    },
    {
      "inputs": [
        {
          "internalType": "uint256",
          "name": "assetId",
          "type": "uint256"
        }
      ],
      "name": "getCommentsByAsset",
      "outputs": [
        {
          "components": [
            {
              "internalType": "string",
              "name": "description",
              "type": "string"
            },
            {
              "internalType": "uint256",
              "name": "userId",
              "type": "uint256"
            },
            {
              "internalType": "uint256",
              "name": "date",
              "type": "uint256"
            }
          ],
          "internalType": "struct Users.Comment[]",
          "name": "",
          "type": "tuple[]"
        }
      ],
      "stateMutability": "view",
      "type": "function",
      "constant": true
    },
    {
      "inputs": [
        {
          "internalType": "uint256",
          "name": "assetId",
          "type": "uint256"
        }
      ],
      "name": "getNumberOfCommentsByAsset",
      "outputs": [
        {
          "internalType": "uint256",
          "name": "",
          "type": "uint256"
        }
      ],
      "stateMutability": "view",
      "type": "function",
      "constant": true
    },
    {
      "inputs": [
        {
          "internalType": "uint256[]",
          "name": "usersId",
          "type": "uint256[]"
        }
      ],
      "name": "getUsersById",
      "outputs": [
        {
          "components": [
            {
              "internalType": "address",
              "name": "addr",
              "type": "address"
            },
            {
              "internalType": "string",
              "name": "name",
              "type": "string"
            },
            {
              "internalType": "string",
              "name": "surname",
              "type": "string"
            },
            {
              "internalType": "string",
              "name": "email",
              "type": "string"
            },
            {
              "internalType": "uint32",
              "name": "telephone",
              "type": "uint32"
            },
            {
              "internalType": "uint256",
              "name": "orgId",
              "type": "uint256"
            },
            {
              "internalType": "uint256",
              "name": "index",
              "type": "uint256"
            }
          ],
          "internalType": "struct Users.User[]",
          "name": "",
          "type": "tuple[]"
        }
      ],
      "stateMutability": "view",
      "type": "function",
      "constant": true
    }
  ],
  "bytecode": "0x60806040523480156200001157600080fd5b50604051620062b8380380620062b88339818101604052810190620000379190620002d8565b806000806101000a81548173ffffffffffffffffffffffffffffffffffffffff021916908373ffffffffffffffffffffffffffffffffffffffff16021790555060076040518060a001604052806040518060400160405280600181526020017f300000000000000000000000000000000000000000000000000000000000000081525081526020016040518060400160405280600181526020017f30000000000000000000000000000000000000000000000000000000000000008152508152602001600063ffffffff168152602001600081526020016000815250908060018154018082558091505060019003906000526020600020906005020160009091909190915060008201518160000190805190602001906200015a929190620001be565b50602082015181600101908051906020019062000179929190620001be565b5060408201518160020160006101000a81548163ffffffff021916908363ffffffff16021790555060608201518160030155608082015181600401555050506200036f565b828054620001cc9062000339565b90600052602060002090601f016020900481019282620001f057600085556200023c565b82601f106200020b57805160ff19168380011785556200023c565b828001600101855582156200023c579182015b828111156200023b5782518255916020019190600101906200021e565b5b5090506200024b91906200024f565b5090565b5b808211156200026a57600081600090555060010162000250565b5090565b600080fd5b600073ffffffffffffffffffffffffffffffffffffffff82169050919050565b6000620002a08262000273565b9050919050565b620002b28162000293565b8114620002be57600080fd5b50565b600081519050620002d281620002a7565b92915050565b600060208284031215620002f157620002f06200026e565b5b60006200030184828501620002c1565b91505092915050565b7f4e487b7100000000000000000000000000000000000000000000000000000000600052602260045260246000fd5b600060028204905060018216806200035257607f821691505b602082108114156200036957620003686200030a565b5b50919050565b615f39806200037f6000396000f3fe608060405234801561001057600080fd5b50600436106102115760003560e01c80636ecb141c11610125578063c416f205116100ad578063d75c62fd1161007c578063d75c62fd14610678578063db035b87146106a8578063dd2b6d3a146106d8578063e8bb900b14610708578063fbc8ba841461073857610211565b8063c416f205146105b8578063c50d0bc7146105e8578063d05a887014610618578063d61490ef1461064857610211565b8063ae51c471116100f4578063ae51c47114610518578063b4fff42014610534578063b5ce789d14610564578063bfceb1bb14610580578063c19876421461059c57610211565b80636ecb141c1461046c57806373adf71f1461049c5780637673d482146104b85780637ff1f347146104e857610211565b80632c60e4a0116101a85780634d12ae43116101775780634d12ae43146103cc57806351ed0aac146103e85780635ba506ef146104045780636652bad2146104345780636dccbcc51461045057610211565b80632c60e4a0146103205780632ee45f4e1461033c578063405a7abc1461036c5780634209fff11461039c57610211565b80631e9a7980116101e45780631e9a79801461029c5780631fef580c146102b857806325c5a656146102e857806329bbe2691461030457610211565b806304f468a714610216578063121965551461023457806314761d42146102505780631658747c1461026c575b600080fd5b61021e610768565b60405161022b9190614165565b60405180910390f35b61024e60048036038101906102499190614375565b61078c565b005b61026a60048036038101906102659190614463565b610943565b005b61028660048036038101906102819190614596565b610b00565b60405161029391906146f6565b60405180910390f35b6102b660048036038101906102b19190614744565b610c9a565b005b6102d260048036038101906102cd9190614596565b610dd9565b6040516102df91906148b0565b60405180910390f35b61030260048036038101906102fd91906148d2565b61105b565b005b61031e60048036038101906103199190614a31565b6111f8565b005b61033a60048036038101906103359190614a8d565b61140e565b005b61035660048036038101906103519190614596565b61180b565b6040516103639190614cda565b60405180910390f35b61038660048036038101906103819190614596565b611ba6565b6040516103939190614d0b565b60405180910390f35b6103b660048036038101906103b19190614d26565b611bcb565b6040516103c39190614d6e565b60405180910390f35b6103e660048036038101906103e19190614db5565b611c97565b005b61040260048036038101906103fd9190614eb7565b611e51565b005b61041e60048036038101906104199190614596565b612011565b60405161042b91906150ca565b60405180910390f35b61044e60048036038101906104499190614463565b61207c565b005b61046a60048036038101906104659190614a31565b612239565b005b61048660048036038101906104819190614596565b61247a565b60405161049391906150ca565b60405180910390f35b6104b660048036038101906104b19190614a31565b6124e5565b005b6104d260048036038101906104cd9190614596565b6125b7565b6040516104df9190614d0b565b60405180910390f35b61050260048036038101906104fd91906150ec565b612628565b60405161050f9190614d6e565b60405180910390f35b610532600480360381019061052d919061512c565b6126d2565b005b61054e60048036038101906105499190614596565b61288c565b60405161055b91906150ca565b60405180910390f35b61057e60048036038101906105799190614a31565b6128f7565b005b61059a60048036038101906105959190614db5565b612a5f565b005b6105b660048036038101906105b19190614a31565b612c19565b005b6105d260048036038101906105cd9190614596565b612f09565b6040516105df9190615389565b60405180910390f35b61060260048036038101906105fd9190614596565b6131bc565b60405161060f91906154bd565b60405180910390f35b610632600480360381019061062d91906150ec565b6133b2565b60405161063f9190614d6e565b60405180910390f35b610662600480360381019061065d9190614596565b61345d565b60405161066f9190614cda565b60405180910390f35b610692600480360381019061068d91906154df565b6137f8565b60405161069f9190614cda565b60405180910390f35b6106c260048036038101906106bd91906150ec565b613b27565b6040516106cf9190614d6e565b60405180910390f35b6106f260048036038101906106ed9190615528565b613bd5565b6040516106ff9190614d0b565b60405180910390f35b610722600480360381019061071d9190615528565b613c06565b60405161072f9190614d0b565b60405180910390f35b610752600480360381019061074d9190614596565b613c37565b60405161075f9190614cda565b60405180910390f35b60008054906101000a900473ffffffffffffffffffffffffffffffffffffffff1681565b61079681886133b2565b806107a757506107a68188613b27565b5b6107b057600080fd5b60008060009054906101000a900473ffffffffffffffffffffffffffffffffffffffff16905060008173ffffffffffffffffffffffffffffffffffffffff16633e4e3b556040518163ffffffff1660e01b8152600401602060405180830381865afa158015610823573d6000803e3d6000fd5b505050506040513d601f19601f82011682018060405250810190610847919061557d565b90508173ffffffffffffffffffffffffffffffffffffffff16632c98cfa88b8b8b8b8b8b8b6040518863ffffffff1660e01b815260040161088e9796959493929190615603565b600060405180830381600087803b1580156108a857600080fd5b505af11580156108bc573d6000803e3d6000fd5b50505050600c60008681526020019081526020016000208190806001815401808255809150506001900390600052602060002001600090919091909150556001600b6000878152602001908152602001600020600083815260200190815260200160002060006101000a81548160ff02191690831515021790555050505050505050505050565b61094d818a6133b2565b8061095e575061095d818a613b27565b5b61096757600080fd5b60008060009054906101000a900473ffffffffffffffffffffffffffffffffffffffff16905060008173ffffffffffffffffffffffffffffffffffffffff16633e4e3b556040518163ffffffff1660e01b8152600401602060405180830381865afa1580156109da573d6000803e3d6000fd5b505050506040513d601f19601f820116820180604052508101906109fe919061557d565b90508173ffffffffffffffffffffffffffffffffffffffff16630b7338a18d8d8d8d8d8d8d8d8d6040518a63ffffffff1660e01b8152600401610a4999989796959493929190615680565b600060405180830381600087803b158015610a6357600080fd5b505af1158015610a77573d6000803e3d6000fd5b50505050600c60008881526020019081526020016000208190806001815401808255809150506001900390600052602060002001600090919091909150556001600b6000898152602001908152602001600020600083815260200190815260200160002060006101000a81548160ff021916908315150217905550505050505050505050505050565b610b08613fd2565b60078281548110610b1c57610b1b615722565b5b90600052602060002090600502016040518060a0016040529081600082018054610b4590615780565b80601f0160208091040260200160405190810160405280929190818152602001828054610b7190615780565b8015610bbe5780601f10610b9357610100808354040283529160200191610bbe565b820191906000526020600020905b815481529060010190602001808311610ba157829003601f168201915b50505050508152602001600182018054610bd790615780565b80601f0160208091040260200160405190810160405280929190818152602001828054610c0390615780565b8015610c505780601f10610c2557610100808354040283529160200191610c50565b820191906000526020600020905b815481529060010190602001808311610c3357829003601f168201915b505050505081526020016002820160009054906101000a900463ffffffff1663ffffffff1663ffffffff168152602001600382015481526020016004820154815250509050919050565b610ca481836133b2565b80610cb55750610cb48183612628565b5b610cbe57600080fd5b6000600780549050905060076040518060a001604052808881526020018781526020018663ffffffff1681526020018581526020018381525090806001815401808255809150506001900390600052602060002090600502016000909190919091506000820151816000019080519060200190610d3c929190614007565b506020820151816001019080519060200190610d59929190614007565b5060408201518160020160006101000a81548163ffffffff021916908363ffffffff1602179055506060820151816003015560808201518160040155505060086000848152602001908152602001600020819080600181540180825580915050600190039060005260206000200160009091909190915055505050505050565b610de161408d565b60018281548110610df557610df4615722565b5b90600052602060002090600702016040518060e00160405290816000820160009054906101000a900473ffffffffffffffffffffffffffffffffffffffff1673ffffffffffffffffffffffffffffffffffffffff1673ffffffffffffffffffffffffffffffffffffffff168152602001600182018054610e7490615780565b80601f0160208091040260200160405190810160405280929190818152602001828054610ea090615780565b8015610eed5780601f10610ec257610100808354040283529160200191610eed565b820191906000526020600020905b815481529060010190602001808311610ed057829003601f168201915b50505050508152602001600282018054610f0690615780565b80601f0160208091040260200160405190810160405280929190818152602001828054610f3290615780565b8015610f7f5780601f10610f5457610100808354040283529160200191610f7f565b820191906000526020600020905b815481529060010190602001808311610f6257829003601f168201915b50505050508152602001600382018054610f9890615780565b80601f0160208091040260200160405190810160405280929190818152602001828054610fc490615780565b80156110115780601f10610fe657610100808354040283529160200191611011565b820191906000526020600020905b815481529060010190602001808311610ff457829003601f168201915b505050505081526020016004820160009054906101000a900463ffffffff1663ffffffff1663ffffffff168152602001600582015481526020016006820154815250509050919050565b61106581836133b2565b156110a5576040517f08c379a000000000000000000000000000000000000000000000000000000000815260040161109c906157fe565b60405180910390fd5b6110af8183612628565b6110ee576040517f08c379a00000000000000000000000000000000000000000000000000000000081526004016110e59061586a565b60405180910390fd5b6000600460008373ffffffffffffffffffffffffffffffffffffffff1673ffffffffffffffffffffffffffffffffffffffff1681526020019081526020016000205490506000600d805490509050600d6040518060600160405280898152602001848152602001888152509080600181540180825580915050600190039060005260206000209060030201600090919091909150600082015181600001908051906020019061119e929190614007565b5060208201518160010155604082015181600201555050600e600086815260200190815260200160002081908060018154018082558091505060019003906000526020600020016000909190919091505550505050505050565b60008151905060005b818110156114085760011515600b6000868152602001908152602001600020600085848151811061123557611234615722565b5b6020026020010151815260200190815260200160002060009054906101000a900460ff161515141561129c576040517f08c379a0000000000000000000000000000000000000000000000000000000008152600401611293906158d6565b60405180910390fd5b600c60008581526020019081526020016000208382815181106112c2576112c1615722565b5b602002602001015190806001815401808255809150506001900390600052602060002001600090919091909150556001600b6000868152602001908152602001600020600085848151811061131a57611319615722565b5b6020026020010151815260200190815260200160002060006101000a81548160ff02191690831515021790555060008060009054906101000a900473ffffffffffffffffffffffffffffffffffffffff1690508073ffffffffffffffffffffffffffffffffffffffff16635583071b85848151811061139c5761139b615722565b5b6020026020010151876040518363ffffffff1660e01b81526004016113c29291906158f6565b600060405180830381600087803b1580156113dc57600080fd5b505af11580156113f0573d6000803e3d6000fd5b505050505080806114009061594e565b915050611201565b50505050565b60008060009054906101000a900473ffffffffffffffffffffffffffffffffffffffff16905061143e87836133b2565b1561147e576040517f08c379a0000000000000000000000000000000000000000000000000000000008152600401611475906159e3565b60405180910390fd5b61148787611bcb565b156114c7576040517f08c379a00000000000000000000000000000000000000000000000000000000081526004016114be90615a4f565b60405180910390fd5b6001826114d49190615a6f565b8173ffffffffffffffffffffffffffffffffffffffff1663d81066906040518163ffffffff1660e01b8152600401602060405180830381865afa15801561151f573d6000803e3d6000fd5b505050506040513d601f19601f82011682018060405250810190611543919061557d565b1015611584576040517f08c379a000000000000000000000000000000000000000000000000000000000815260040161157b90615b11565b60405180910390fd5b6000600180549050905060016040518060e001604052808a73ffffffffffffffffffffffffffffffffffffffff1681526020018981526020018881526020018781526020018663ffffffff16815260200185815260200183815250908060018154018082558091505060019003906000526020600020906007020160009091909190915060008201518160000160006101000a81548173ffffffffffffffffffffffffffffffffffffffff021916908373ffffffffffffffffffffffffffffffffffffffff160217905550602082015181600101908051906020019061166b929190614007565b506040820151816002019080519060200190611688929190614007565b5060608201518160030190805190602001906116a5929190614007565b5060808201518160040160006101000a81548163ffffffff021916908363ffffffff16021790555060a0820151816005015560c0820151816006015550506003600084815260200190815260200160002081908060018154018082558091505060019003906000526020600020016000909190919091505580600460008a73ffffffffffffffffffffffffffffffffffffffff1673ffffffffffffffffffffffffffffffffffffffff168152602001908152602001600020819055506002889080600181540180825580915050600190039060005260206000200160009091909190916101000a81548173ffffffffffffffffffffffffffffffffffffffff021916908373ffffffffffffffffffffffffffffffffffffffff1602179055507f85c8fcee8505f10dc8a4f9b889000c6a759cffeafd2e3b519a19c836af2e02bd888888866040516117f99493929190615b31565b60405180910390a15050505050505050565b606060006006600084815260200190815260200160002080548060200260200160405190810160405280929190818152602001828054801561186c57602002820191906000526020600020905b815481526020019060010190808311611858575b5050505050905060008151905060008167ffffffffffffffff811115611895576118946141af565b5b6040519080825280602002602001820160405280156118ce57816020015b6118bb61408d565b8152602001906001900390816118b35790505b50905060005b82811015611b9a5760018482815181106118f1576118f0615722565b5b60200260200101518154811061190a57611909615722565b5b90600052602060002090600702016040518060e00160405290816000820160009054906101000a900473ffffffffffffffffffffffffffffffffffffffff1673ffffffffffffffffffffffffffffffffffffffff1673ffffffffffffffffffffffffffffffffffffffff16815260200160018201805461198990615780565b80601f01602080910402602001604051908101604052809291908181526020018280546119b590615780565b8015611a025780601f106119d757610100808354040283529160200191611a02565b820191906000526020600020905b8154815290600101906020018083116119e557829003601f168201915b50505050508152602001600282018054611a1b90615780565b80601f0160208091040260200160405190810160405280929190818152602001828054611a4790615780565b8015611a945780601f10611a6957610100808354040283529160200191611a94565b820191906000526020600020905b815481529060010190602001808311611a7757829003601f168201915b50505050508152602001600382018054611aad90615780565b80601f0160208091040260200160405190810160405280929190818152602001828054611ad990615780565b8015611b265780601f10611afb57610100808354040283529160200191611b26565b820191906000526020600020905b815481529060010190602001808311611b0957829003601f168201915b505050505081526020016004820160009054906101000a900463ffffffff1663ffffffff1663ffffffff16815260200160058201548152602001600682015481525050828281518110611b7c57611b7b615722565b5b60200260200101819052508080611b929061594e565b9150506118d4565b50809350505050919050565b6000806003600084815260200190815260200160002080549050905080915050919050565b6000806002805490501415611be35760009050611c92565b8173ffffffffffffffffffffffffffffffffffffffff166002600460008573ffffffffffffffffffffffffffffffffffffffff1673ffffffffffffffffffffffffffffffffffffffff1681526020019081526020016000205481548110611c4d57611c4c615722565b5b9060005260206000200160009054906101000a900473ffffffffffffffffffffffffffffffffffffffff1673ffffffffffffffffffffffffffffffffffffffff161490505b919050565b611ca181896133b2565b80611cb25750611cb18189613b27565b5b611cbb57600080fd5b60008060009054906101000a900473ffffffffffffffffffffffffffffffffffffffff16905060008173ffffffffffffffffffffffffffffffffffffffff16633e4e3b556040518163ffffffff1660e01b8152600401602060405180830381865afa158015611d2e573d6000803e3d6000fd5b505050506040513d601f19601f82011682018060405250810190611d52919061557d565b90508173ffffffffffffffffffffffffffffffffffffffff1663a1c6d0d08c8c8c8c8c8c8c8c6040518963ffffffff1660e01b8152600401611d9b989796959493929190615b84565b600060405180830381600087803b158015611db557600080fd5b505af1158015611dc9573d6000803e3d6000fd5b50505050600c60008781526020019081526020016000208190806001815401808255809150506001900390600052602060002001600090919091909150556001600b6000888152602001908152602001600020600083815260200190815260200160002060006101000a81548160ff0219169083151502179055505050505050505050505050565b611e5b818b6133b2565b80611e6c5750611e6b818b613b27565b5b611e7557600080fd5b60008060009054906101000a900473ffffffffffffffffffffffffffffffffffffffff16905060008173ffffffffffffffffffffffffffffffffffffffff16633e4e3b556040518163ffffffff1660e01b8152600401602060405180830381865afa158015611ee8573d6000803e3d6000fd5b505050506040513d601f19601f82011682018060405250810190611f0c919061557d565b90508173ffffffffffffffffffffffffffffffffffffffff1663ece901338e8e8e8e8e8e8e8e8e8e6040518b63ffffffff1660e01b8152600401611f599a99989796959493929190615c10565b600060405180830381600087803b158015611f7357600080fd5b505af1158015611f87573d6000803e3d6000fd5b50505050600c60008981526020019081526020016000208190806001815401808255809150506001900390600052602060002001600090919091909150556001600b60008a8152602001908152602001600020600083815260200190815260200160002060006101000a81548160ff02191690831515021790555050505050505050505050505050565b60606005600083815260200190815260200160002080548060200260200160405190810160405280929190818152602001828054801561207057602002820191906000526020600020905b81548152602001906001019080831161205c575b50505050509050919050565b612086818a6133b2565b806120975750612096818a613b27565b5b6120a057600080fd5b60008060009054906101000a900473ffffffffffffffffffffffffffffffffffffffff16905060008173ffffffffffffffffffffffffffffffffffffffff16633e4e3b556040518163ffffffff1660e01b8152600401602060405180830381865afa158015612113573d6000803e3d6000fd5b505050506040513d601f19601f82011682018060405250810190612137919061557d565b90508173ffffffffffffffffffffffffffffffffffffffff16632124b4fe8d8d8d8d8d8d8d8d8d6040518a63ffffffff1660e01b815260040161218299989796959493929190615680565b600060405180830381600087803b15801561219c57600080fd5b505af11580156121b0573d6000803e3d6000fd5b50505050600c60008881526020019081526020016000208190806001815401808255809150506001900390600052602060002001600090919091909150556001600b6000898152602001908152602001600020600083815260200190815260200160002060006101000a81548160ff021916908315150217905550505050505050505050505050565b60008151905060005b81811015612474576001151560096000868152602001908152602001600020600085848151811061227657612275615722565b5b6020026020010151815260200190815260200160002060009054906101000a900460ff16151514156124615760006009600086815260200190815260200160002060008584815181106122cc576122cb615722565b5b6020026020010151815260200190815260200160002060006101000a81548160ff0219169083151502179055506000600a600086815260200190815260200160002080549050905060005b8181101561245e5784838151811061233257612331615722565b5b6020026020010151600a6000888152602001908152602001600020828154811061235f5761235e615722565b5b9060005260206000200154141561244b5760008190505b6001836123839190615cc8565b81101561240c57600a60008881526020019081526020016000206001826123aa9190615a6f565b815481106123bb576123ba615722565b5b9060005260206000200154600a600089815260200190815260200160002082815481106123eb576123ea615722565b5b906000526020600020018190555080806124049061594e565b915050612376565b50600a60008781526020019081526020016000208054806124305761242f615cfc565b5b6001900381819060005260206000200160009055905561245e565b80806124569061594e565b915050612317565b50505b808061246c9061594e565b915050612242565b50505050565b6060600a60008381526020019081526020016000208054806020026020016040519081016040528092919081815260200182805480156124d957602002820191906000526020600020905b8154815260200190600101908083116124c5575b50505050509050919050565b60008151905060005b818110156125b1576005600084838151811061250d5761250c615722565b5b60200260200101518152602001908152602001600020849080600181540180825580915050600190039060005260206000200160009091909190915055600660008581526020019081526020016000208382815181106125705761256f615722565b5b6020026020010151908060018154018082558091505060019003906000526020600020016000909190919091505580806125a99061594e565b9150506124ee565b50505050565b600080600e600084815260200190815260200160002080548060200260200160405190810160405280929190818152602001828054801561261757602002820191906000526020600020905b815481526020019060010190808311612603575b505050505090508051915050919050565b600080600280549050141561264057600090506126cc565b61264983611bcb565b61265657600090506126cc565b6000600460008573ffffffffffffffffffffffffffffffffffffffff1673ffffffffffffffffffffffffffffffffffffffff1681526020019081526020016000205490506000600182815481106126b0576126af615722565b5b9060005260206000209060070201600501549050838114925050505b92915050565b6126dc81896133b2565b806126ed57506126ec8189613b27565b5b6126f657600080fd5b60008060009054906101000a900473ffffffffffffffffffffffffffffffffffffffff16905060008173ffffffffffffffffffffffffffffffffffffffff16633e4e3b556040518163ffffffff1660e01b8152600401602060405180830381865afa158015612769573d6000803e3d6000fd5b505050506040513d601f19601f8201168201806040525081019061278d919061557d565b90508173ffffffffffffffffffffffffffffffffffffffff16636139e9f48c8c8c8c8c8c8c8c6040518963ffffffff1660e01b81526004016127d6989796959493929190615d2b565b600060405180830381600087803b1580156127f057600080fd5b505af1158015612804573d6000803e3d6000fd5b50505050600c60008781526020019081526020016000208190806001815401808255809150506001900390600052602060002001600090919091909150556001600b6000888152602001908152602001600020600083815260200190815260200160002060006101000a81548160ff0219169083151502179055505050505050505050505050565b6060600c60008381526020019081526020016000208054806020026020016040519081016040528092919081815260200182805480156128eb57602002820191906000526020600020905b8154815260200190600101908083116128d7575b50505050509050919050565b60008151905060005b81811015612a59576001151560096000868152602001908152602001600020600085848151811061293457612933615722565b5b6020026020010151815260200190815260200160002060009054906101000a900460ff161515141561299b576040517f08c379a000000000000000000000000000000000000000000000000000000000815260040161299290615e0a565b60405180910390fd5b600a60008581526020019081526020016000208382815181106129c1576129c0615722565b5b602002602001015190806001815401808255809150506001900390600052602060002001600090919091909150556001600960008681526020019081526020016000206000858481518110612a1957612a18615722565b5b6020026020010151815260200190815260200160002060006101000a81548160ff0219169083151502179055508080612a519061594e565b915050612900565b50505050565b612a6981896133b2565b80612a7a5750612a798189613b27565b5b612a8357600080fd5b60008060009054906101000a900473ffffffffffffffffffffffffffffffffffffffff16905060008173ffffffffffffffffffffffffffffffffffffffff16633e4e3b556040518163ffffffff1660e01b8152600401602060405180830381865afa158015612af6573d6000803e3d6000fd5b505050506040513d601f19601f82011682018060405250810190612b1a919061557d565b90508173ffffffffffffffffffffffffffffffffffffffff16638558b8448c8c8c8c8c8c8c8c6040518963ffffffff1660e01b8152600401612b63989796959493929190615b84565b600060405180830381600087803b158015612b7d57600080fd5b505af1158015612b91573d6000803e3d6000fd5b50505050600c60008781526020019081526020016000208190806001815401808255809150506001900390600052602060002001600090919091909150556001600b6000888152602001908152602001600020600083815260200190815260200160002060006101000a81548160ff0219169083151502179055505050505050505050505050565b60008151905060005b81811015612f035760011515600b60008681526020019081526020016000206000858481518110612c5657612c55615722565b5b6020026020010151815260200190815260200160002060009054906101000a900460ff1615151415612ef0576000600b60008681526020019081526020016000206000858481518110612cac57612cab615722565b5b6020026020010151815260200190815260200160002060006101000a81548160ff0219169083151502179055506000600c600086815260200190815260200160002080549050905060005b81811015612eed57848381518110612d1257612d11615722565b5b6020026020010151600c60008881526020019081526020016000208281548110612d3f57612d3e615722565b5b90600052602060002001541415612eda5760008190505b600183612d639190615cc8565b811015612dec57600c6000888152602001908152602001600020600182612d8a9190615a6f565b81548110612d9b57612d9a615722565b5b9060005260206000200154600c60008981526020019081526020016000208281548110612dcb57612dca615722565b5b90600052602060002001819055508080612de49061594e565b915050612d56565b50600c6000878152602001908152602001600020805480612e1057612e0f615cfc565b5b6001900381819060005260206000200160009055905560008060009054906101000a900473ffffffffffffffffffffffffffffffffffffffff1690508073ffffffffffffffffffffffffffffffffffffffff16635583071b878681518110612e7b57612e7a615722565b5b602002602001015160006040518363ffffffff1660e01b8152600401612ea2929190615e6f565b600060405180830381600087803b158015612ebc57600080fd5b505af1158015612ed0573d6000803e3d6000fd5b5050505050612eed565b8080612ee59061594e565b915050612cf7565b50505b8080612efb9061594e565b915050612c22565b50505050565b6060600060086000848152602001908152602001600020805480602002602001604051908101604052809291908181526020018280548015612f6a57602002820191906000526020600020905b815481526020019060010190808311612f56575b5050505050905060008151905060008167ffffffffffffffff811115612f9357612f926141af565b5b604051908082528060200260200182016040528015612fcc57816020015b612fb9613fd2565b815260200190600190039081612fb15790505b50905060005b828110156131b0576007848281518110612fef57612fee615722565b5b60200260200101518154811061300857613007615722565b5b90600052602060002090600502016040518060a001604052908160008201805461303190615780565b80601f016020809104026020016040519081016040528092919081815260200182805461305d90615780565b80156130aa5780601f1061307f576101008083540402835291602001916130aa565b820191906000526020600020905b81548152906001019060200180831161308d57829003601f168201915b505050505081526020016001820180546130c390615780565b80601f01602080910402602001604051908101604052809291908181526020018280546130ef90615780565b801561313c5780601f106131115761010080835404028352916020019161313c565b820191906000526020600020905b81548152906001019060200180831161311f57829003601f168201915b505050505081526020016002820160009054906101000a900463ffffffff1663ffffffff1663ffffffff1681526020016003820154815260200160048201548152505082828151811061319257613191615722565b5b602002602001018190525080806131a89061594e565b915050612fd2565b50809350505050919050565b60606000600e600084815260200190815260200160002080548060200260200160405190810160405280929190818152602001828054801561321d57602002820191906000526020600020905b815481526020019060010190808311613209575b505050505090506000815167ffffffffffffffff811115613241576132406141af565b5b60405190808252806020026020018201604052801561327a57816020015b6132676140e6565b81526020019060019003908161325f5790505b50905060005b82518110156133a757600d83828151811061329e5761329d615722565b5b6020026020010151815481106132b7576132b6615722565b5b90600052602060002090600302016040518060600160405290816000820180546132e090615780565b80601f016020809104026020016040519081016040528092919081815260200182805461330c90615780565b80156133595780601f1061332e57610100808354040283529160200191613359565b820191906000526020600020905b81548152906001019060200180831161333c57829003601f168201915b505050505081526020016001820154815260200160028201548152505082828151811061338957613388615722565b5b6020026020010181905250808061339f9061594e565b915050613280565b508092505050919050565b60008060008054906101000a900473ffffffffffffffffffffffffffffffffffffffff1690508073ffffffffffffffffffffffffffffffffffffffff1663d05a887085856040518363ffffffff1660e01b8152600401613413929190615e98565b602060405180830381865afa158015613430573d6000803e3d6000fd5b505050506040513d601f19601f820116820180604052508101906134549190615ed6565b91505092915050565b60606000600a60008481526020019081526020016000208054806020026020016040519081016040528092919081815260200182805480156134be57602002820191906000526020600020905b8154815260200190600101908083116134aa575b5050505050905060008151905060008167ffffffffffffffff8111156134e7576134e66141af565b5b60405190808252806020026020018201604052801561352057816020015b61350d61408d565b8152602001906001900390816135055790505b50905060005b828110156137ec57600184828151811061354357613542615722565b5b60200260200101518154811061355c5761355b615722565b5b90600052602060002090600702016040518060e00160405290816000820160009054906101000a900473ffffffffffffffffffffffffffffffffffffffff1673ffffffffffffffffffffffffffffffffffffffff1673ffffffffffffffffffffffffffffffffffffffff1681526020016001820180546135db90615780565b80601f016020809104026020016040519081016040528092919081815260200182805461360790615780565b80156136545780601f1061362957610100808354040283529160200191613654565b820191906000526020600020905b81548152906001019060200180831161363757829003601f168201915b5050505050815260200160028201805461366d90615780565b80601f016020809104026020016040519081016040528092919081815260200182805461369990615780565b80156136e65780601f106136bb576101008083540402835291602001916136e6565b820191906000526020600020905b8154815290600101906020018083116136c957829003601f168201915b505050505081526020016003820180546136ff90615780565b80601f016020809104026020016040519081016040528092919081815260200182805461372b90615780565b80156137785780601f1061374d57610100808354040283529160200191613778565b820191906000526020600020905b81548152906001019060200180831161375b57829003601f168201915b505050505081526020016004820160009054906101000a900463ffffffff1663ffffffff1663ffffffff168152602001600582015481526020016006820154815250508282815181106137ce576137cd615722565b5b602002602001018190525080806137e49061594e565b915050613526565b50809350505050919050565b60606000825167ffffffffffffffff811115613817576138166141af565b5b60405190808252806020026020018201604052801561385057816020015b61383d61408d565b8152602001906001900390816138355790505b50905060005b8351811015613b1d57600184828151811061387457613873615722565b5b60200260200101518154811061388d5761388c615722565b5b90600052602060002090600702016040518060e00160405290816000820160009054906101000a900473ffffffffffffffffffffffffffffffffffffffff1673ffffffffffffffffffffffffffffffffffffffff1673ffffffffffffffffffffffffffffffffffffffff16815260200160018201805461390c90615780565b80601f016020809104026020016040519081016040528092919081815260200182805461393890615780565b80156139855780601f1061395a57610100808354040283529160200191613985565b820191906000526020600020905b81548152906001019060200180831161396857829003601f168201915b5050505050815260200160028201805461399e90615780565b80601f01602080910402602001604051908101604052809291908181526020018280546139ca90615780565b8015613a175780601f106139ec57610100808354040283529160200191613a17565b820191906000526020600020905b8154815290600101906020018083116139fa57829003601f168201915b50505050508152602001600382018054613a3090615780565b80601f0160208091040260200160405190810160405280929190818152602001828054613a5c90615780565b8015613aa95780601f10613a7e57610100808354040283529160200191613aa9565b820191906000526020600020905b815481529060010190602001808311613a8c57829003601f168201915b505050505081526020016004820160009054906101000a900463ffffffff1663ffffffff1663ffffffff16815260200160058201548152602001600682015481525050828281518110613aff57613afe615722565b5b60200260200101819052508080613b159061594e565b915050613856565b5080915050919050565b6000806002805490501415613b3f5760009050613bcf565b613b4883611bcb565b613b555760009050613bcf565b6000600460008573ffffffffffffffffffffffffffffffffffffffff1673ffffffffffffffffffffffffffffffffffffffff16815260200190815260200160002054905060096000848152602001908152602001600020600082815260200190815260200160002060009054906101000a900460ff169150505b92915050565b60056020528160005260406000208181548110613bf157600080fd5b90600052602060002001600091509150505481565b60066020528160005260406000208181548110613c2257600080fd5b90600052602060002001600091509150505481565b6060600060036000848152602001908152602001600020805480602002602001604051908101604052809291908181526020018280548015613c9857602002820191906000526020600020905b815481526020019060010190808311613c84575b5050505050905060008151905060008167ffffffffffffffff811115613cc157613cc06141af565b5b604051908082528060200260200182016040528015613cfa57816020015b613ce761408d565b815260200190600190039081613cdf5790505b50905060005b82811015613fc6576001848281518110613d1d57613d1c615722565b5b602002602001015181548110613d3657613d35615722565b5b90600052602060002090600702016040518060e00160405290816000820160009054906101000a900473ffffffffffffffffffffffffffffffffffffffff1673ffffffffffffffffffffffffffffffffffffffff1673ffffffffffffffffffffffffffffffffffffffff168152602001600182018054613db590615780565b80601f0160208091040260200160405190810160405280929190818152602001828054613de190615780565b8015613e2e5780601f10613e0357610100808354040283529160200191613e2e565b820191906000526020600020905b815481529060010190602001808311613e1157829003601f168201915b50505050508152602001600282018054613e4790615780565b80601f0160208091040260200160405190810160405280929190818152602001828054613e7390615780565b8015613ec05780601f10613e9557610100808354040283529160200191613ec0565b820191906000526020600020905b815481529060010190602001808311613ea357829003601f168201915b50505050508152602001600382018054613ed990615780565b80601f0160208091040260200160405190810160405280929190818152602001828054613f0590615780565b8015613f525780601f10613f2757610100808354040283529160200191613f52565b820191906000526020600020905b815481529060010190602001808311613f3557829003601f168201915b505050505081526020016004820160009054906101000a900463ffffffff1663ffffffff1663ffffffff16815260200160058201548152602001600682015481525050828281518110613fa857613fa7615722565b5b60200260200101819052508080613fbe9061594e565b915050613d00565b50809350505050919050565b6040518060a001604052806060815260200160608152602001600063ffffffff16815260200160008152602001600081525090565b82805461401390615780565b90600052602060002090601f016020900481019282614035576000855561407c565b82601f1061404e57805160ff191683800117855561407c565b8280016001018555821561407c579182015b8281111561407b578251825591602001919060010190614060565b5b5090506140899190614107565b5090565b6040518060e00160405280600073ffffffffffffffffffffffffffffffffffffffff168152602001606081526020016060815260200160608152602001600063ffffffff16815260200160008152602001600081525090565b60405180606001604052806060815260200160008152602001600081525090565b5b80821115614120576000816000905550600101614108565b5090565b600073ffffffffffffffffffffffffffffffffffffffff82169050919050565b600061414f82614124565b9050919050565b61415f81614144565b82525050565b600060208201905061417a6000830184614156565b92915050565b6000604051905090565b600080fd5b600080fd5b600080fd5b600080fd5b6000601f19601f8301169050919050565b7f4e487b7100000000000000000000000000000000000000000000000000000000600052604160045260246000fd5b6141e78261419e565b810181811067ffffffffffffffff82111715614206576142056141af565b5b80604052505050565b6000614219614180565b905061422582826141de565b919050565b600067ffffffffffffffff821115614245576142446141af565b5b61424e8261419e565b9050602081019050919050565b82818337600083830152505050565b600061427d6142788461422a565b61420f565b90508281526020810184848401111561429957614298614199565b5b6142a484828561425b565b509392505050565b600082601f8301126142c1576142c0614194565b5b81356142d184826020860161426a565b91505092915050565b6000819050919050565b6142ed816142da565b81146142f857600080fd5b50565b60008135905061430a816142e4565b92915050565b600060ff82169050919050565b61432681614310565b811461433157600080fd5b50565b6000813590506143438161431d565b92915050565b61435281614144565b811461435d57600080fd5b50565b60008135905061436f81614349565b92915050565b600080600080600080600080610100898b0312156143965761439561418a565b5b600089013567ffffffffffffffff8111156143b4576143b361418f565b5b6143c08b828c016142ac565b98505060206143d18b828c016142fb565b97505060406143e28b828c016142fb565b96505060606143f38b828c016142fb565b95505060806144048b828c01614334565b94505060a06144158b828c016142fb565b93505060c089013567ffffffffffffffff8111156144365761443561418f565b5b6144428b828c016142ac565b92505060e06144538b828c01614360565b9150509295985092959890939650565b6000806000806000806000806000806101408b8d0312156144875761448661418a565b5b60008b013567ffffffffffffffff8111156144a5576144a461418f565b5b6144b18d828e016142ac565b9a505060206144c28d828e016142fb565b99505060406144d38d828e016142fb565b98505060606144e48d828e016142fb565b97505060806144f58d828e01614334565b96505060a06145068d828e016142fb565b95505060c08b013567ffffffffffffffff8111156145275761452661418f565b5b6145338d828e016142ac565b94505060e08b013567ffffffffffffffff8111156145545761455361418f565b5b6145608d828e016142ac565b9350506101006145728d828e01614334565b9250506101206145848d828e01614360565b9150509295989b9194979a5092959850565b6000602082840312156145ac576145ab61418a565b5b60006145ba848285016142fb565b91505092915050565b600081519050919050565b600082825260208201905092915050565b60005b838110156145fd5780820151818401526020810190506145e2565b8381111561460c576000848401525b50505050565b600061461d826145c3565b61462781856145ce565b93506146378185602086016145df565b6146408161419e565b840191505092915050565b600063ffffffff82169050919050565b6146648161464b565b82525050565b614673816142da565b82525050565b600060a08301600083015184820360008601526146968282614612565b915050602083015184820360208601526146b08282614612565b91505060408301516146c5604086018261465b565b5060608301516146d8606086018261466a565b5060808301516146eb608086018261466a565b508091505092915050565b600060208201905081810360008301526147108184614679565b905092915050565b6147218161464b565b811461472c57600080fd5b50565b60008135905061473e81614718565b92915050565b600080600080600060a086880312156147605761475f61418a565b5b600086013567ffffffffffffffff81111561477e5761477d61418f565b5b61478a888289016142ac565b955050602086013567ffffffffffffffff8111156147ab576147aa61418f565b5b6147b7888289016142ac565b94505060406147c88882890161472f565b93505060606147d9888289016142fb565b92505060806147ea88828901614360565b9150509295509295909350565b61480081614144565b82525050565b600060e08301600083015161481e60008601826147f7565b50602083015184820360208601526148368282614612565b915050604083015184820360408601526148508282614612565b9150506060830151848203606086015261486a8282614612565b915050608083015161487f608086018261465b565b5060a083015161489260a086018261466a565b5060c08301516148a560c086018261466a565b508091505092915050565b600060208201905081810360008301526148ca8184614806565b905092915050565b600080600080600060a086880312156148ee576148ed61418a565b5b600086013567ffffffffffffffff81111561490c5761490b61418f565b5b614918888289016142ac565b9550506020614929888289016142fb565b945050604061493a888289016142fb565b935050606061494b888289016142fb565b925050608061495c88828901614360565b9150509295509295909350565b600067ffffffffffffffff821115614984576149836141af565b5b602082029050602081019050919050565b600080fd5b60006149ad6149a884614969565b61420f565b905080838252602082019050602084028301858111156149d0576149cf614995565b5b835b818110156149f957806149e588826142fb565b8452602084019350506020810190506149d2565b5050509392505050565b600082601f830112614a1857614a17614194565b5b8135614a2884826020860161499a565b91505092915050565b60008060408385031215614a4857614a4761418a565b5b6000614a56858286016142fb565b925050602083013567ffffffffffffffff811115614a7757614a7661418f565b5b614a8385828601614a03565b9150509250929050565b60008060008060008060c08789031215614aaa57614aa961418a565b5b6000614ab889828a01614360565b965050602087013567ffffffffffffffff811115614ad957614ad861418f565b5b614ae589828a016142ac565b955050604087013567ffffffffffffffff811115614b0657614b0561418f565b5b614b1289828a016142ac565b945050606087013567ffffffffffffffff811115614b3357614b3261418f565b5b614b3f89828a016142ac565b9350506080614b5089828a0161472f565b92505060a0614b6189828a016142fb565b9150509295509295509295565b600081519050919050565b600082825260208201905092915050565b6000819050602082019050919050565b600060e083016000830151614bb260008601826147f7565b5060208301518482036020860152614bca8282614612565b91505060408301518482036040860152614be48282614612565b91505060608301518482036060860152614bfe8282614612565b9150506080830151614c13608086018261465b565b5060a0830151614c2660a086018261466a565b5060c0830151614c3960c086018261466a565b508091505092915050565b6000614c508383614b9a565b905092915050565b6000602082019050919050565b6000614c7082614b6e565b614c7a8185614b79565b935083602082028501614c8c85614b8a565b8060005b85811015614cc85784840389528151614ca98582614c44565b9450614cb483614c58565b925060208a01995050600181019050614c90565b50829750879550505050505092915050565b60006020820190508181036000830152614cf48184614c65565b905092915050565b614d05816142da565b82525050565b6000602082019050614d206000830184614cfc565b92915050565b600060208284031215614d3c57614d3b61418a565b5b6000614d4a84828501614360565b91505092915050565b60008115159050919050565b614d6881614d53565b82525050565b6000602082019050614d836000830184614d5f565b92915050565b614d9281614d53565b8114614d9d57600080fd5b50565b600081359050614daf81614d89565b92915050565b60008060008060008060008060006101208a8c031215614dd857614dd761418a565b5b60008a013567ffffffffffffffff811115614df657614df561418f565b5b614e028c828d016142ac565b9950506020614e138c828d016142fb565b9850506040614e248c828d016142fb565b9750506060614e358c828d016142fb565b9650506080614e468c828d01614334565b95505060a0614e578c828d016142fb565b94505060c08a013567ffffffffffffffff811115614e7857614e7761418f565b5b614e848c828d016142ac565b93505060e0614e958c828d01614da0565b925050610100614ea78c828d01614360565b9150509295985092959850929598565b60008060008060008060008060008060006101608c8e031215614edd57614edc61418a565b5b60008c013567ffffffffffffffff811115614efb57614efa61418f565b5b614f078e828f016142ac565b9b50506020614f188e828f016142fb565b9a50506040614f298e828f016142fb565b9950506060614f3a8e828f016142fb565b9850506080614f4b8e828f01614334565b97505060a0614f5c8e828f016142fb565b96505060c08c013567ffffffffffffffff811115614f7d57614f7c61418f565b5b614f898e828f016142ac565b95505060e08c013567ffffffffffffffff811115614faa57614fa961418f565b5b614fb68e828f016142ac565b9450506101008c013567ffffffffffffffff811115614fd857614fd761418f565b5b614fe48e828f016142ac565b935050610120614ff68e828f01614334565b9250506101406150088e828f01614360565b9150509295989b509295989b9093969950565b600081519050919050565b600082825260208201905092915050565b6000819050602082019050919050565b6000615053838361466a565b60208301905092915050565b6000602082019050919050565b60006150778261501b565b6150818185615026565b935061508c83615037565b8060005b838110156150bd5781516150a48882615047565b97506150af8361505f565b925050600181019050615090565b5085935050505092915050565b600060208201905081810360008301526150e4818461506c565b905092915050565b600080604083850312156151035761510261418a565b5b600061511185828601614360565b9250506020615122858286016142fb565b9150509250929050565b60008060008060008060008060006101208a8c03121561514f5761514e61418a565b5b60008a013567ffffffffffffffff81111561516d5761516c61418f565b5b6151798c828d016142ac565b995050602061518a8c828d016142fb565b985050604061519b8c828d016142fb565b97505060606151ac8c828d016142fb565b96505060806151bd8c828d01614334565b95505060a06151ce8c828d016142fb565b94505060c08a013567ffffffffffffffff8111156151ef576151ee61418f565b5b6151fb8c828d016142ac565b93505060e08a013567ffffffffffffffff81111561521c5761521b61418f565b5b6152288c828d016142ac565b92505061010061523a8c828d01614360565b9150509295985092959850929598565b600081519050919050565b600082825260208201905092915050565b6000819050602082019050919050565b600060a08301600083015184820360008601526152938282614612565b915050602083015184820360208601526152ad8282614612565b91505060408301516152c2604086018261465b565b5060608301516152d5606086018261466a565b5060808301516152e8608086018261466a565b508091505092915050565b60006152ff8383615276565b905092915050565b6000602082019050919050565b600061531f8261524a565b6153298185615255565b93508360208202850161533b85615266565b8060005b85811015615377578484038952815161535885826152f3565b945061536383615307565b925060208a0199505060018101905061533f565b50829750879550505050505092915050565b600060208201905081810360008301526153a38184615314565b905092915050565b600081519050919050565b600082825260208201905092915050565b6000819050602082019050919050565b600060608301600083015184820360008601526153f48282614612565b9150506020830151615409602086018261466a565b50604083015161541c604086018261466a565b508091505092915050565b600061543383836153d7565b905092915050565b6000602082019050919050565b6000615453826153ab565b61545d81856153b6565b93508360208202850161546f856153c7565b8060005b858110156154ab578484038952815161548c8582615427565b94506154978361543b565b925060208a01995050600181019050615473565b50829750879550505050505092915050565b600060208201905081810360008301526154d78184615448565b905092915050565b6000602082840312156154f5576154f461418a565b5b600082013567ffffffffffffffff8111156155135761551261418f565b5b61551f84828501614a03565b91505092915050565b6000806040838503121561553f5761553e61418a565b5b600061554d858286016142fb565b925050602061555e858286016142fb565b9150509250929050565b600081519050615577816142e4565b92915050565b6000602082840312156155935761559261418a565b5b60006155a184828501615568565b91505092915050565b600082825260208201905092915050565b60006155c6826145c3565b6155d081856155aa565b93506155e08185602086016145df565b6155e98161419e565b840191505092915050565b6155fd81614310565b82525050565b600060e082019050818103600083015261561d818a6155bb565b905061562c6020830189614cfc565b6156396040830188614cfc565b6156466060830187614cfc565b61565360808301866155f4565b61566060a0830185614cfc565b81810360c083015261567281846155bb565b905098975050505050505050565b600061012082019050818103600083015261569b818c6155bb565b90506156aa602083018b614cfc565b6156b7604083018a614cfc565b6156c46060830189614cfc565b6156d160808301886155f4565b6156de60a0830187614cfc565b81810360c08301526156f081866155bb565b905081810360e083015261570481856155bb565b90506157146101008301846155f4565b9a9950505050505050505050565b7f4e487b7100000000000000000000000000000000000000000000000000000000600052603260045260246000fd5b7f4e487b7100000000000000000000000000000000000000000000000000000000600052602260045260246000fd5b6000600282049050600182168061579857607f821691505b602082108114156157ac576157ab615751565b5b50919050565b7f69732041646d696e6973747261746f7200000000000000000000000000000000600082015250565b60006157e86010836155aa565b91506157f3826157b2565b602082019050919050565b60006020820190508181036000830152615817816157db565b9050919050565b7f557365722069736e277420696e206f7267000000000000000000000000000000600082015250565b60006158546011836155aa565b915061585f8261581e565b602082019050919050565b6000602082019050818103600083015261588381615847565b9050919050565b7f417373657420696e206465700000000000000000000000000000000000000000600082015250565b60006158c0600c836155aa565b91506158cb8261588a565b602082019050919050565b600060208201905081810360008301526158ef816158b3565b9050919050565b600060408201905061590b6000830185614cfc565b6159186020830184614cfc565b9392505050565b7f4e487b7100000000000000000000000000000000000000000000000000000000600052601160045260246000fd5b6000615959826142da565b91507fffffffffffffffffffffffffffffffffffffffffffffffffffffffffffffffff82141561598c5761598b61591f565b5b600182019050919050565b7f757365722069732061646d696e00000000000000000000000000000000000000600082015250565b60006159cd600d836155aa565b91506159d882615997565b602082019050919050565b600060208201905081810360008301526159fc816159c0565b9050919050565b7f4164647265737320726567697374657265640000000000000000000000000000600082015250565b6000615a396012836155aa565b9150615a4482615a03565b602082019050919050565b60006020820190508181036000830152615a6881615a2c565b9050919050565b6000615a7a826142da565b9150615a85836142da565b9250827fffffffffffffffffffffffffffffffffffffffffffffffffffffffffffffffff03821115615aba57615ab961591f565b5b828201905092915050565b7f4f72674964206e6f7420666f756e640000000000000000000000000000000000600082015250565b6000615afb600f836155aa565b9150615b0682615ac5565b602082019050919050565b60006020820190508181036000830152615b2a81615aee565b9050919050565b6000608082019050615b466000830187614156565b8181036020830152615b5881866155bb565b90508181036040830152615b6c81856155bb565b9050615b7b6060830184614cfc565b95945050505050565b6000610100820190508181036000830152615b9f818b6155bb565b9050615bae602083018a614cfc565b615bbb6040830189614cfc565b615bc86060830188614cfc565b615bd560808301876155f4565b615be260a0830186614cfc565b81810360c0830152615bf481856155bb565b9050615c0360e0830184614d5f565b9998505050505050505050565b6000610140820190508181036000830152615c2b818d6155bb565b9050615c3a602083018c614cfc565b615c47604083018b614cfc565b615c54606083018a614cfc565b615c6160808301896155f4565b615c6e60a0830188614cfc565b81810360c0830152615c8081876155bb565b905081810360e0830152615c9481866155bb565b9050818103610100830152615ca981856155bb565b9050615cb96101208301846155f4565b9b9a5050505050505050505050565b6000615cd3826142da565b9150615cde836142da565b925082821015615cf157615cf061591f565b5b828203905092915050565b7f4e487b7100000000000000000000000000000000000000000000000000000000600052603160045260246000fd5b6000610100820190508181036000830152615d46818b6155bb565b9050615d55602083018a614cfc565b615d626040830189614cfc565b615d6f6060830188614cfc565b615d7c60808301876155f4565b615d8960a0830186614cfc565b81810360c0830152615d9b81856155bb565b905081810360e0830152615daf81846155bb565b90509998505050505050505050565b7f5573657220696e20646570000000000000000000000000000000000000000000600082015250565b6000615df4600b836155aa565b9150615dff82615dbe565b602082019050919050565b60006020820190508181036000830152615e2381615de7565b9050919050565b6000819050919050565b6000819050919050565b6000615e59615e54615e4f84615e2a565b615e34565b6142da565b9050919050565b615e6981615e3e565b82525050565b6000604082019050615e846000830185614cfc565b615e916020830184615e60565b9392505050565b6000604082019050615ead6000830185614156565b615eba6020830184614cfc565b9392505050565b600081519050615ed081614d89565b92915050565b600060208284031215615eec57615eeb61418a565b5b6000615efa84828501615ec1565b9150509291505056fea2646970667358221220b34e0be130a534616fee3004fdeda177918bd8ec7716ea210605e1717a94387964736f6c634300080c0033",
  "immutableReferences": {},
  "source": "// SPDX-License-Identifier: MIT\r\npragma solidity >=0.7.0 <0.9.10;\r\nimport \"./Main.sol\";\r\n\r\ncontract Users {\r\n\r\n    address public mainAddr;\r\n\r\n    constructor (address _mainAddr){\r\n        mainAddr = _mainAddr;\r\n        departList.push(Department('0','0',0,0,0));\r\n    }\r\n\r\n    event Register(\r\n        address addr, \r\n        string name,\r\n        string surname,\r\n        uint orgId \r\n    );\r\n\r\n    struct User {\r\n        address addr;\r\n        string name;\r\n        string surname;\r\n        string email;\r\n        uint32 telephone;\r\n        uint orgId;\r\n        uint256 index;\r\n    }\r\n\r\n    User[] private userList;\r\n    address[] private users;\r\n    mapping(uint256 => uint256[]) orgIdToUserList;\r\n    mapping(address => uint) addressToId;\r\n\r\n    function isUser(address userAddress) public view returns (bool isIndeed) {\r\n        if (users.length == 0) return false;\r\n        return (users[addressToId[userAddress]] == userAddress);\r\n    } \r\n\r\n    function insertUser(\r\n        address addr, \r\n        string memory name, \r\n        string memory surname, \r\n        string memory email, \r\n        uint32 telephone,\r\n        uint orgId \r\n    ) public {\r\n        //Instance main contract to see if the id of the org exists\r\n        Main mainInstance = Main(mainAddr);\r\n        if(isAdminFromOrg(addr, orgId)) revert(\"user is admin\");\r\n        if(isUser(addr)) revert(\"Address registered\");\r\n        if((mainInstance.orgCount()) < (uint256(orgId)+1)) revert(\"OrgId not found\");\r\n        uint userId = userList.length;\r\n        userList.push(User(addr, name, surname, email, telephone, orgId, userId));\r\n        orgIdToUserList[orgId].push(userId);\r\n        addressToId[addr] = userId;\r\n        users.push(addr);\r\n        emit Register(addr, name, surname, orgId);\r\n    }\r\n\r\n\r\n\r\n    function getAllUsersFromOrg(uint orgId) public view returns(User[] memory){\r\n        uint[] memory idList = orgIdToUserList[orgId];\r\n        uint cont = idList.length;\r\n        User[] memory usersFromOrg = new User[](cont);\r\n\r\n        for (uint i = 0; i < cont; i++) {\r\n            usersFromOrg[i] = userList[idList[i]];\r\n        }\r\n        return usersFromOrg;\r\n    }\r\n\r\n    function getNumUsersFromOrg(uint orgId) public view returns(uint){\r\n        uint usersFromOrg = orgIdToUserList[orgId].length;\r\n        return usersFromOrg;\r\n    }\r\n\r\n    function getUserData(uint userId) public view returns(User memory){\r\n        return userList[userId];\r\n    }\r\n\r\n    //RELATION BETWEEN ASSET AND USER\r\n\r\n    mapping(uint => uint[]) public userIdToAssetList;\r\n    mapping(uint => uint[]) public assetToListOfUsers;\r\n\r\n    function insertUsersToAsset(uint assetId, uint[] memory userIds) public {\r\n        uint cont = userIds.length;\r\n        for (uint i = 0; i < cont; i++) {\r\n            userIdToAssetList[userIds[i]].push(assetId);\r\n            assetToListOfUsers[assetId].push(userIds[i]);\r\n        } \r\n    }\r\n\r\n    function getUserAssets(uint userId) public view returns(uint[] memory assetIds){\r\n        return userIdToAssetList[userId];\r\n    }\r\n\r\n    function getAssetUsers(uint assetId) public view returns(User[] memory){\r\n        uint[] memory list = assetToListOfUsers[assetId];\r\n        uint cont = list.length;\r\n        User[] memory usersOfAsset = new User[](cont);\r\n        for (uint i = 0; i < cont; i++) {\r\n            usersOfAsset[i] = userList[list[i]];\r\n        }\r\n        return usersOfAsset;\r\n    }\r\n\r\n    //DEPARTMENTS\r\n    struct Department {\r\n        string name;\r\n        string description;\r\n        uint32 telephone;\r\n        uint orgId;\r\n        uint256 index;\r\n    }\r\n\r\n    Department[] private departList;\r\n    mapping(uint256 => uint256[]) orgIdToDepartList;\r\n    mapping(uint => mapping(uint => bool)) departToUserBool;\r\n    mapping(uint => uint[]) departIdToUserList;\r\n\r\n    function isUserFromOrg(address addr, uint orgId) public view returns(bool){\r\n        if (users.length == 0) return false;\r\n        if (!isUser(addr)) return false;\r\n        uint userId = addressToId[addr];\r\n        uint userOrg = userList[userId].orgId;\r\n        return (userOrg == orgId);\r\n    }\r\n\r\n    function isUserFromDepart(address addr, uint departId) public view returns(bool){\r\n        if (users.length == 0) return false;\r\n        if (!isUser(addr)) return false;\r\n        uint userId = addressToId[addr];\r\n        return (departToUserBool[departId][userId]);\r\n    }\r\n\r\n    function isAdminFromOrg(address addr, uint orgId) public view returns (bool){\r\n        Main mainInstance = Main(mainAddr);\r\n        return mainInstance.isAdminFromOrg(addr, orgId);\r\n    }\r\n\r\n    function insertDepartment(string memory name,\r\n        string memory description,\r\n        uint32 telephone,\r\n        uint orgId,\r\n        address addr\r\n        ) public {\r\n            if(!(isAdminFromOrg(addr, orgId) || isUserFromOrg(addr, orgId))) revert();         \r\n            uint departId = departList.length;\r\n            departList.push(Department(name, description, telephone, orgId, departId));\r\n            orgIdToDepartList[orgId].push(departId);\r\n    }\r\n\r\n    function getDepartment(uint departId) public view returns(Department memory){\r\n        return departList[departId];\r\n    }\r\n\r\n    function getAllDepartmentsFromOrg(uint orgId) public view returns(Department[] memory){\r\n        uint[] memory idList = orgIdToDepartList[orgId];\r\n        uint cont = idList.length;\r\n        Department[] memory departFromOrg = new Department[](cont);\r\n\r\n        for (uint i = 0; i < cont; i++) {\r\n            departFromOrg[i] = departList[idList[i]];\r\n        }\r\n        return departFromOrg;\r\n    }\r\n\r\n    //USERS from department\r\n    function insertUserToDepartment(uint departId, uint[] memory userIds) public {\r\n        //if(!isAdminFromOrg(addr, orgId)) revert(\");\r\n        uint cont = userIds.length;\r\n        for (uint i = 0; i < cont; i++) {\r\n            if(departToUserBool[departId][userIds[i]] == true) {\r\n                revert(\"User in dep\");\r\n            } else {\r\n                departIdToUserList[departId].push(userIds[i]);\r\n                departToUserBool[departId][userIds[i]] = true;\r\n            }\r\n            \r\n        }\r\n    }\r\n\r\n    //If admin wants to delete any user from the department\r\n    //first we will need to find that user \r\n    //and then delete the index \r\n    function deleteUsersFromDepartment(uint departId, uint[] memory userIds) public {\r\n        uint userCont = userIds.length;\r\n        for (uint i = 0; i < userCont; i++) {\r\n            if(departToUserBool[departId][userIds[i]] == true) {\r\n                departToUserBool[departId][userIds[i]] = false;\r\n                uint departUsers = departIdToUserList[departId].length;\r\n                for(uint o = 0; o < departUsers; o++){\r\n                    if (departIdToUserList[departId][o] == userIds[i]){\r\n                        for (uint e = o; e<departUsers-1; e++){\r\n                            departIdToUserList[departId][e] = departIdToUserList[departId][e+1];\r\n                        }\r\n                        departIdToUserList[departId].pop();\r\n                        break;\r\n                    }\r\n                }\r\n            }\r\n        }\r\n    }\r\n\r\n    function getUsersIdsFromDepart(uint departId) public view returns(uint[] memory){\r\n        return departIdToUserList[departId];\r\n        \r\n    }\r\n\r\n    function getUsersFromDepart(uint departId) public view returns(User[] memory){\r\n        uint[] memory idList = departIdToUserList[departId];\r\n        uint cont = idList.length;\r\n        User[] memory usersFromDepart = new User[](cont);\r\n\r\n        for (uint i = 0; i < cont; i++) {\r\n            usersFromDepart[i] = userList[idList[i]];\r\n        }\r\n        return usersFromDepart;\r\n    }\r\n\r\n    mapping(uint => mapping(uint => bool)) departToAssetBool;\r\n    mapping(uint => uint[]) departIdToAssetList;\r\n\r\n    //ASSETS from department\r\n    function insertAssetToDepartment(uint departId, uint[] memory assetsIds) public {\r\n        uint cont = assetsIds.length;\r\n        for (uint i = 0; i < cont; i++) {\r\n            if(departToAssetBool[departId][assetsIds[i]] == true) {\r\n                revert(\"Asset in dep\");\r\n            } else {\r\n                departIdToAssetList[departId].push(assetsIds[i]);\r\n                departToAssetBool[departId][assetsIds[i]] = true;\r\n                Main mainInstance = Main(mainAddr);\r\n                mainInstance.insertAssetToDepartment(assetsIds[i], departId);\r\n            }\r\n            \r\n        }\r\n    }\r\n\r\n    function deleteAssetFromDepartment(uint departId, uint[] memory assetsIds) public {\r\n        uint assetCont = assetsIds.length;\r\n        for (uint i = 0; i < assetCont; i++) {\r\n            if(departToAssetBool[departId][assetsIds[i]] == true) {\r\n                departToAssetBool[departId][assetsIds[i]] = false;\r\n                uint departAssets = departIdToAssetList[departId].length;\r\n                for(uint o = 0; o < departAssets; o++){\r\n                    if (departIdToAssetList[departId][o] == assetsIds[i]){\r\n                        for (uint e = o; e < departAssets-1; e++){\r\n                            departIdToAssetList[departId][e] = departIdToAssetList[departId][e+1];\r\n                        }\r\n                        departIdToAssetList[departId].pop();\r\n                        Main mainInstance = Main(mainAddr);\r\n                        mainInstance.insertAssetToDepartment(assetsIds[i], 0);\r\n                        break;\r\n                    }\r\n                }\r\n            }\r\n        }\r\n    }\r\n\r\n    function getAssetsIdsFromDepart(uint departId) public view returns(uint[] memory){\r\n        return departIdToAssetList[departId];\r\n        \r\n    }\r\n\r\n    function insertNewSAssetWithDepartment(string memory name,\r\n        uint256 organizationId,\r\n        uint256 adquireDate,\r\n        uint256 creationDate,\r\n        uint8 assetType,\r\n        uint256 assetDepart,\r\n        string memory version, \r\n        string memory provider, \r\n        uint8 stype,\r\n        address addr) public {\r\n            if(!(isAdminFromOrg(addr, organizationId) || isUserFromDepart(addr, organizationId))) revert();\r\n            Main mainInstance = Main(mainAddr);\r\n            uint id = mainInstance.getIdAsset();\r\n            mainInstance.insertNewSoftAsset(name, organizationId, adquireDate, creationDate, assetType, assetDepart, version, provider, stype);\r\n            departIdToAssetList[assetDepart].push(id);\r\n            departToAssetBool[assetDepart][id] = true;\r\n        }\r\n \r\n    function insertNewHAssetWithDepartment(string memory name,\r\n        uint256 organizationId,\r\n        uint256 adquireDate,\r\n        uint256 creationDate,\r\n        uint8 assetType,\r\n        uint256 assetDepart,\r\n        string memory model, \r\n        string memory provider, \r\n        string memory serialNumber, \r\n        uint8 htype,\r\n        address addr) public {\r\n            if(!(isAdminFromOrg(addr, organizationId) || isUserFromDepart(addr, organizationId))) revert();\r\n            Main mainInstance = Main(mainAddr);\r\n            uint id = mainInstance.getIdAsset();\r\n            mainInstance.insertNewHardAsset(name, organizationId, adquireDate, creationDate, assetType, assetDepart, model, provider, serialNumber, htype);\r\n            departIdToAssetList[assetDepart].push(id);\r\n            departToAssetBool[assetDepart][id] = true;\r\n        }\r\n\r\n    function insertNewDocAssetWithDepartment(string memory name,\r\n        uint256 organizationId,\r\n        uint256 adquireDate,\r\n        uint256 creationDate,\r\n        uint8 assetType,\r\n        uint256 assetDepart,\r\n        string memory description,\r\n        string memory location,\r\n        uint8 doctype,\r\n        address addr) public {\r\n            if(!(isAdminFromOrg(addr, organizationId) || isUserFromDepart(addr, organizationId))) revert();\r\n            Main mainInstance = Main(mainAddr);\r\n            uint id = mainInstance.getIdAsset();\r\n            mainInstance.insertNewDocAsset(name, organizationId, adquireDate, creationDate, assetType, assetDepart, description, location, doctype);\r\n            departIdToAssetList[assetDepart].push(id);\r\n            departToAssetBool[assetDepart][id] = true;\r\n        }\r\n\r\n    function insertNewDataAssetWithDepartment(string memory name,\r\n        uint256 organizationId,\r\n        uint256 adquireDate,\r\n        uint256 creationDate,\r\n        uint8 assetType,\r\n        uint256 assetDepart,\r\n        string memory location, \r\n        bool local,\r\n        address addr) public {\r\n            if(!(isAdminFromOrg(addr, organizationId) || isUserFromDepart(addr, organizationId))) revert();\r\n            Main mainInstance = Main(mainAddr);\r\n            uint id = mainInstance.getIdAsset();\r\n            mainInstance.insertNewDataAsset(name, organizationId, adquireDate, creationDate, assetType, assetDepart, location, local);\r\n            departIdToAssetList[assetDepart].push(id);\r\n            departToAssetBool[assetDepart][id] = true;\r\n        }\r\n\r\n    function insertNewNAssetWithDepartment(string memory name,\r\n        uint256 organizationId,\r\n        uint256 adquireDate,\r\n        uint256 creationDate,\r\n        uint8 assetType,\r\n        uint256 assetDepart,\r\n        string memory cidrblock, \r\n        bool nat,\r\n        address addr) public {\r\n            if(!(isAdminFromOrg(addr, organizationId) || isUserFromDepart(addr, organizationId))) revert();\r\n            Main mainInstance = Main(mainAddr);\r\n            uint id = mainInstance.getIdAsset();\r\n            mainInstance.insertNewNetworkAsset(name, organizationId, adquireDate, creationDate, assetType, assetDepart, cidrblock, nat);\r\n            departIdToAssetList[assetDepart].push(id);\r\n            departToAssetBool[assetDepart][id] = true;\r\n        }\r\n\r\n    function insertNewCAssetWithDepartment(string memory name,\r\n        uint256 organizationId,\r\n        uint256 adquireDate,\r\n        uint256 creationDate,\r\n        uint8 assetType,\r\n        uint256 assetDepart,\r\n        string memory url, \r\n        string memory domain,\r\n        address addr) public {\r\n            if(!(isAdminFromOrg(addr, organizationId) || isUserFromDepart(addr, organizationId))) revert();\r\n            Main mainInstance = Main(mainAddr);\r\n            uint id = mainInstance.getIdAsset();\r\n            mainInstance.insertNewCloudAsset(name, organizationId, adquireDate, creationDate, assetType, assetDepart, url, domain);\r\n            departIdToAssetList[assetDepart].push(id);\r\n            departToAssetBool[assetDepart][id] = true;\r\n        }\r\n\r\n    function insertNewOAssetWithDepartment(string memory name,\r\n        uint256 organizationId,\r\n        uint256 adquireDate,\r\n        uint256 creationDate,\r\n        uint8 assetType,\r\n        uint256 assetDepart,\r\n        string memory description,\r\n        address addr) public {\r\n            if(!(isAdminFromOrg(addr, organizationId) || isUserFromDepart(addr, organizationId))) revert();\r\n            Main mainInstance = Main(mainAddr);\r\n            uint id = mainInstance.getIdAsset();\r\n            mainInstance.insertNewOtherAsset(name, organizationId, adquireDate, creationDate, assetType, assetDepart, description);\r\n            departIdToAssetList[assetDepart].push(id);\r\n            departToAssetBool[assetDepart][id] = true;\r\n        }\r\n\r\n    //COMMENTS\r\n    struct Comment {\r\n        string description;\r\n        uint userId;\r\n        uint date;\r\n    }\r\n\r\n    Comment[] commentList;\r\n    mapping(uint => uint[]) assetIdToCommentList; \r\n\r\n    function insertComment(string memory description, uint date, uint assetId, uint orgId, address addr) public {\r\n        if(isAdminFromOrg(addr, orgId)) revert(\"is Administrator\");\r\n        if(!isUserFromOrg(addr, orgId)) revert(\"User isn't in org\");\r\n        uint userId = addressToId[addr];\r\n        uint comId = commentList.length;\r\n        commentList.push(Comment(description, userId, date));\r\n        assetIdToCommentList[assetId].push(comId);\r\n    }\r\n\r\n    function getCommentsByAsset(uint assetId) public view returns(Comment[] memory){\r\n        uint[] memory ids = assetIdToCommentList[assetId];\r\n        Comment[] memory comments = new Comment[](ids.length);\r\n        for (uint256 i = 0; i < ids.length; i++) {\r\n            comments[i] = commentList[ids[i]];\r\n        }\r\n        return comments;\r\n    }\r\n\r\n    function getNumberOfCommentsByAsset(uint assetId) public view returns(uint){\r\n        uint[] memory ids = assetIdToCommentList[assetId];\r\n        return ids.length;\r\n    }\r\n\r\n    function getUsersById(uint[] memory usersId) public view returns(User[] memory){\r\n        User[] memory container = new User[](usersId.length);\r\n        for (uint256 i = 0; i < usersId.length; i++) {\r\n            container[i] = userList[usersId[i]];\r\n        }\r\n        return container;\r\n    }\r\n}",
  "sourcePath": "D:\\GIT\\inventory-blockchain\\blockchain\\contracts\\Users.sol",
  "compiler": {
    "name": "solc",
    "version": "0.8.12+commit.f00d7308.Emscripten.clang"
  },
  "schemaVersion": "3.4.6",
  "updatedAt": "2022-05-10T19:55:17.540Z",
  "networkType": "ethereum",
  "devdoc": {
    "kind": "dev",
    "methods": {},
    "version": 1
  },
  "userdoc": {
    "kind": "user",
    "methods": {},
    "version": 1
  }
}