{
  "contractName": "Users",
  "abi": [
    {
      "inputs": [
        {
          "internalType": "address",
          "name": "_mainAddr",
          "type": "address"
        }
      ],
      "stateMutability": "nonpayable",
      "type": "constructor"
    },
    {
      "anonymous": false,
      "inputs": [
        {
          "indexed": false,
          "internalType": "address",
          "name": "addr",
          "type": "address"
        },
        {
          "indexed": false,
          "internalType": "uint256",
          "name": "date",
          "type": "uint256"
        }
      ],
      "name": "NewComment",
      "type": "event"
    },
    {
      "anonymous": false,
      "inputs": [
        {
          "indexed": false,
          "internalType": "address",
          "name": "addr",
          "type": "address"
        },
        {
          "indexed": false,
          "internalType": "string",
          "name": "name",
          "type": "string"
        },
        {
          "indexed": false,
          "internalType": "uint256",
          "name": "telephone",
          "type": "uint256"
        }
      ],
      "name": "NewDepart",
      "type": "event"
    },
    {
      "anonymous": false,
      "inputs": [
        {
          "indexed": false,
          "internalType": "address",
          "name": "addr",
          "type": "address"
        },
        {
          "indexed": false,
          "internalType": "string",
          "name": "name",
          "type": "string"
        },
        {
          "indexed": false,
          "internalType": "string",
          "name": "surname",
          "type": "string"
        },
        {
          "indexed": false,
          "internalType": "uint256",
          "name": "orgId",
          "type": "uint256"
        }
      ],
      "name": "Register",
      "type": "event"
    },
    {
      "inputs": [
        {
          "internalType": "uint256",
          "name": "",
          "type": "uint256"
        },
        {
          "internalType": "uint256",
          "name": "",
          "type": "uint256"
        }
      ],
      "name": "assetToListOfUsers",
      "outputs": [
        {
          "internalType": "uint256",
          "name": "",
          "type": "uint256"
        }
      ],
      "stateMutability": "view",
      "type": "function",
      "constant": true
    },
    {
      "inputs": [],
      "name": "mainAddr",
      "outputs": [
        {
          "internalType": "address",
          "name": "",
          "type": "address"
        }
      ],
      "stateMutability": "view",
      "type": "function",
      "constant": true
    },
    {
      "inputs": [
        {
          "internalType": "uint256",
          "name": "",
          "type": "uint256"
        },
        {
          "internalType": "uint256",
          "name": "",
          "type": "uint256"
        }
      ],
      "name": "userIdToAssetList",
      "outputs": [
        {
          "internalType": "uint256",
          "name": "",
          "type": "uint256"
        }
      ],
      "stateMutability": "view",
      "type": "function",
      "constant": true
    },
    {
      "inputs": [
        {
          "internalType": "address",
          "name": "userAddress",
          "type": "address"
        }
      ],
      "name": "isUser",
      "outputs": [
        {
          "internalType": "bool",
          "name": "isIndeed",
          "type": "bool"
        }
      ],
      "stateMutability": "view",
      "type": "function",
      "constant": true
    },
    {
      "inputs": [
        {
          "internalType": "address",
          "name": "addr",
          "type": "address"
        }
      ],
      "name": "getUserFromAddr",
      "outputs": [
        {
          "components": [
            {
              "internalType": "address",
              "name": "addr",
              "type": "address"
            },
            {
              "internalType": "string",
              "name": "name",
              "type": "string"
            },
            {
              "internalType": "string",
              "name": "surname",
              "type": "string"
            },
            {
              "internalType": "string",
              "name": "email",
              "type": "string"
            },
            {
              "internalType": "uint32",
              "name": "telephone",
              "type": "uint32"
            },
            {
              "internalType": "uint256",
              "name": "orgId",
              "type": "uint256"
            },
            {
              "internalType": "uint256",
              "name": "index",
              "type": "uint256"
            }
          ],
          "internalType": "struct Users.User",
          "name": "",
          "type": "tuple"
        }
      ],
      "stateMutability": "view",
      "type": "function",
      "constant": true
    },
    {
      "inputs": [
        {
          "internalType": "address",
          "name": "addr",
          "type": "address"
        },
        {
          "internalType": "string",
          "name": "name",
          "type": "string"
        },
        {
          "internalType": "string",
          "name": "surname",
          "type": "string"
        },
        {
          "internalType": "string",
          "name": "email",
          "type": "string"
        },
        {
          "internalType": "uint32",
          "name": "telephone",
          "type": "uint32"
        },
        {
          "internalType": "uint256",
          "name": "orgId",
          "type": "uint256"
        }
      ],
      "name": "insertUser",
      "outputs": [],
      "stateMutability": "nonpayable",
      "type": "function"
    },
    {
      "inputs": [
        {
          "internalType": "uint256",
          "name": "orgId",
          "type": "uint256"
        }
      ],
      "name": "getAllUsersFromOrg",
      "outputs": [
        {
          "components": [
            {
              "internalType": "address",
              "name": "addr",
              "type": "address"
            },
            {
              "internalType": "string",
              "name": "name",
              "type": "string"
            },
            {
              "internalType": "string",
              "name": "surname",
              "type": "string"
            },
            {
              "internalType": "string",
              "name": "email",
              "type": "string"
            },
            {
              "internalType": "uint32",
              "name": "telephone",
              "type": "uint32"
            },
            {
              "internalType": "uint256",
              "name": "orgId",
              "type": "uint256"
            },
            {
              "internalType": "uint256",
              "name": "index",
              "type": "uint256"
            }
          ],
          "internalType": "struct Users.User[]",
          "name": "",
          "type": "tuple[]"
        }
      ],
      "stateMutability": "view",
      "type": "function",
      "constant": true
    },
    {
      "inputs": [
        {
          "internalType": "uint256",
          "name": "orgId",
          "type": "uint256"
        }
      ],
      "name": "getNumUsersFromOrg",
      "outputs": [
        {
          "internalType": "uint256",
          "name": "",
          "type": "uint256"
        }
      ],
      "stateMutability": "view",
      "type": "function",
      "constant": true
    },
    {
      "inputs": [
        {
          "internalType": "uint256",
          "name": "userId",
          "type": "uint256"
        }
      ],
      "name": "getUserData",
      "outputs": [
        {
          "components": [
            {
              "internalType": "address",
              "name": "addr",
              "type": "address"
            },
            {
              "internalType": "string",
              "name": "name",
              "type": "string"
            },
            {
              "internalType": "string",
              "name": "surname",
              "type": "string"
            },
            {
              "internalType": "string",
              "name": "email",
              "type": "string"
            },
            {
              "internalType": "uint32",
              "name": "telephone",
              "type": "uint32"
            },
            {
              "internalType": "uint256",
              "name": "orgId",
              "type": "uint256"
            },
            {
              "internalType": "uint256",
              "name": "index",
              "type": "uint256"
            }
          ],
          "internalType": "struct Users.User",
          "name": "",
          "type": "tuple"
        }
      ],
      "stateMutability": "view",
      "type": "function",
      "constant": true
    },
    {
      "inputs": [
        {
          "internalType": "uint256",
          "name": "assetId",
          "type": "uint256"
        },
        {
          "internalType": "uint256[]",
          "name": "userIds",
          "type": "uint256[]"
        }
      ],
      "name": "insertUsersToAsset",
      "outputs": [],
      "stateMutability": "nonpayable",
      "type": "function"
    },
    {
      "inputs": [
        {
          "internalType": "uint256",
          "name": "assetId",
          "type": "uint256"
        },
        {
          "internalType": "uint256[]",
          "name": "userIds",
          "type": "uint256[]"
        }
      ],
      "name": "deleteUsersFromAsset",
      "outputs": [],
      "stateMutability": "nonpayable",
      "type": "function"
    },
    {
      "inputs": [
        {
          "internalType": "uint256",
          "name": "userId",
          "type": "uint256"
        }
      ],
      "name": "getUserAssets",
      "outputs": [
        {
          "internalType": "uint256[]",
          "name": "assetIds",
          "type": "uint256[]"
        }
      ],
      "stateMutability": "view",
      "type": "function",
      "constant": true
    },
    {
      "inputs": [
        {
          "internalType": "uint256",
          "name": "assetId",
          "type": "uint256"
        }
      ],
      "name": "getAssetUsers",
      "outputs": [
        {
          "components": [
            {
              "internalType": "address",
              "name": "addr",
              "type": "address"
            },
            {
              "internalType": "string",
              "name": "name",
              "type": "string"
            },
            {
              "internalType": "string",
              "name": "surname",
              "type": "string"
            },
            {
              "internalType": "string",
              "name": "email",
              "type": "string"
            },
            {
              "internalType": "uint32",
              "name": "telephone",
              "type": "uint32"
            },
            {
              "internalType": "uint256",
              "name": "orgId",
              "type": "uint256"
            },
            {
              "internalType": "uint256",
              "name": "index",
              "type": "uint256"
            }
          ],
          "internalType": "struct Users.User[]",
          "name": "",
          "type": "tuple[]"
        }
      ],
      "stateMutability": "view",
      "type": "function",
      "constant": true
    },
    {
      "inputs": [
        {
          "internalType": "address",
          "name": "addr",
          "type": "address"
        },
        {
          "internalType": "uint256",
          "name": "orgId",
          "type": "uint256"
        }
      ],
      "name": "isUserFromOrg",
      "outputs": [
        {
          "internalType": "bool",
          "name": "",
          "type": "bool"
        }
      ],
      "stateMutability": "view",
      "type": "function",
      "constant": true
    },
    {
      "inputs": [
        {
          "internalType": "address",
          "name": "addr",
          "type": "address"
        },
        {
          "internalType": "uint256",
          "name": "departId",
          "type": "uint256"
        }
      ],
      "name": "isUserFromDepart",
      "outputs": [
        {
          "internalType": "bool",
          "name": "",
          "type": "bool"
        }
      ],
      "stateMutability": "view",
      "type": "function",
      "constant": true
    },
    {
      "inputs": [
        {
          "internalType": "address",
          "name": "addr",
          "type": "address"
        },
        {
          "internalType": "uint256",
          "name": "orgId",
          "type": "uint256"
        }
      ],
      "name": "isAdminFromOrg",
      "outputs": [
        {
          "internalType": "bool",
          "name": "",
          "type": "bool"
        }
      ],
      "stateMutability": "view",
      "type": "function",
      "constant": true
    },
    {
      "inputs": [
        {
          "internalType": "string",
          "name": "name",
          "type": "string"
        },
        {
          "internalType": "string",
          "name": "description",
          "type": "string"
        },
        {
          "internalType": "uint32",
          "name": "telephone",
          "type": "uint32"
        },
        {
          "internalType": "uint256",
          "name": "orgId",
          "type": "uint256"
        },
        {
          "internalType": "address",
          "name": "addr",
          "type": "address"
        }
      ],
      "name": "insertDepartment",
      "outputs": [],
      "stateMutability": "nonpayable",
      "type": "function"
    },
    {
      "inputs": [
        {
          "internalType": "uint256",
          "name": "departId",
          "type": "uint256"
        }
      ],
      "name": "getDepartment",
      "outputs": [
        {
          "components": [
            {
              "internalType": "string",
              "name": "name",
              "type": "string"
            },
            {
              "internalType": "string",
              "name": "description",
              "type": "string"
            },
            {
              "internalType": "uint32",
              "name": "telephone",
              "type": "uint32"
            },
            {
              "internalType": "uint256",
              "name": "orgId",
              "type": "uint256"
            },
            {
              "internalType": "uint256",
              "name": "index",
              "type": "uint256"
            }
          ],
          "internalType": "struct Users.Department",
          "name": "",
          "type": "tuple"
        }
      ],
      "stateMutability": "view",
      "type": "function",
      "constant": true
    },
    {
      "inputs": [
        {
          "internalType": "uint256",
          "name": "orgId",
          "type": "uint256"
        }
      ],
      "name": "getAllDepartmentsFromOrg",
      "outputs": [
        {
          "components": [
            {
              "internalType": "string",
              "name": "name",
              "type": "string"
            },
            {
              "internalType": "string",
              "name": "description",
              "type": "string"
            },
            {
              "internalType": "uint32",
              "name": "telephone",
              "type": "uint32"
            },
            {
              "internalType": "uint256",
              "name": "orgId",
              "type": "uint256"
            },
            {
              "internalType": "uint256",
              "name": "index",
              "type": "uint256"
            }
          ],
          "internalType": "struct Users.Department[]",
          "name": "",
          "type": "tuple[]"
        }
      ],
      "stateMutability": "view",
      "type": "function",
      "constant": true
    },
    {
      "inputs": [
        {
          "internalType": "uint256",
          "name": "departId",
          "type": "uint256"
        },
        {
          "internalType": "uint256[]",
          "name": "userIds",
          "type": "uint256[]"
        }
      ],
      "name": "insertUserToDepartment",
      "outputs": [],
      "stateMutability": "nonpayable",
      "type": "function"
    },
    {
      "inputs": [
        {
          "internalType": "uint256",
          "name": "departId",
          "type": "uint256"
        },
        {
          "internalType": "uint256[]",
          "name": "userIds",
          "type": "uint256[]"
        }
      ],
      "name": "deleteUsersFromDepartment",
      "outputs": [],
      "stateMutability": "nonpayable",
      "type": "function"
    },
    {
      "inputs": [
        {
          "internalType": "uint256",
          "name": "departId",
          "type": "uint256"
        }
      ],
      "name": "getUsersIdsFromDepart",
      "outputs": [
        {
          "internalType": "uint256[]",
          "name": "",
          "type": "uint256[]"
        }
      ],
      "stateMutability": "view",
      "type": "function",
      "constant": true
    },
    {
      "inputs": [
        {
          "internalType": "uint256",
          "name": "departId",
          "type": "uint256"
        }
      ],
      "name": "getUsersFromDepart",
      "outputs": [
        {
          "components": [
            {
              "internalType": "address",
              "name": "addr",
              "type": "address"
            },
            {
              "internalType": "string",
              "name": "name",
              "type": "string"
            },
            {
              "internalType": "string",
              "name": "surname",
              "type": "string"
            },
            {
              "internalType": "string",
              "name": "email",
              "type": "string"
            },
            {
              "internalType": "uint32",
              "name": "telephone",
              "type": "uint32"
            },
            {
              "internalType": "uint256",
              "name": "orgId",
              "type": "uint256"
            },
            {
              "internalType": "uint256",
              "name": "index",
              "type": "uint256"
            }
          ],
          "internalType": "struct Users.User[]",
          "name": "",
          "type": "tuple[]"
        }
      ],
      "stateMutability": "view",
      "type": "function",
      "constant": true
    },
    {
      "inputs": [
        {
          "internalType": "uint256",
          "name": "departId",
          "type": "uint256"
        },
        {
          "internalType": "uint256[]",
          "name": "assetsIds",
          "type": "uint256[]"
        }
      ],
      "name": "insertAssetToDepartment",
      "outputs": [],
      "stateMutability": "nonpayable",
      "type": "function"
    },
    {
      "inputs": [
        {
          "internalType": "uint256",
          "name": "departId",
          "type": "uint256"
        },
        {
          "internalType": "uint256[]",
          "name": "assetsIds",
          "type": "uint256[]"
        }
      ],
      "name": "deleteAssetFromDepartment",
      "outputs": [],
      "stateMutability": "nonpayable",
      "type": "function"
    },
    {
      "inputs": [
        {
          "internalType": "uint256",
          "name": "departId",
          "type": "uint256"
        }
      ],
      "name": "getAssetsIdsFromDepart",
      "outputs": [
        {
          "internalType": "uint256[]",
          "name": "",
          "type": "uint256[]"
        }
      ],
      "stateMutability": "view",
      "type": "function",
      "constant": true
    },
    {
      "inputs": [
        {
          "internalType": "uint256",
          "name": "assetDepart",
          "type": "uint256"
        },
        {
          "internalType": "uint256",
          "name": "id",
          "type": "uint256"
        }
      ],
      "name": "insertNewAssetWithDepartment",
      "outputs": [],
      "stateMutability": "nonpayable",
      "type": "function"
    },
    {
      "inputs": [
        {
          "internalType": "string",
          "name": "description",
          "type": "string"
        },
        {
          "internalType": "uint256",
          "name": "date",
          "type": "uint256"
        },
        {
          "internalType": "uint256",
          "name": "assetId",
          "type": "uint256"
        },
        {
          "internalType": "uint256",
          "name": "orgId",
          "type": "uint256"
        },
        {
          "internalType": "address",
          "name": "addr",
          "type": "address"
        }
      ],
      "name": "insertComment",
      "outputs": [],
      "stateMutability": "nonpayable",
      "type": "function"
    },
    {
      "inputs": [
        {
          "internalType": "uint256",
          "name": "assetId",
          "type": "uint256"
        }
      ],
      "name": "getCommentsByAsset",
      "outputs": [
        {
          "components": [
            {
              "internalType": "string",
              "name": "description",
              "type": "string"
            },
            {
              "internalType": "uint256",
              "name": "userId",
              "type": "uint256"
            },
            {
              "internalType": "uint256",
              "name": "date",
              "type": "uint256"
            }
          ],
          "internalType": "struct Users.Comment[]",
          "name": "",
          "type": "tuple[]"
        }
      ],
      "stateMutability": "view",
      "type": "function",
      "constant": true
    },
    {
      "inputs": [
        {
          "internalType": "uint256",
          "name": "assetId",
          "type": "uint256"
        }
      ],
      "name": "getNumberOfCommentsByAsset",
      "outputs": [
        {
          "internalType": "uint256",
          "name": "",
          "type": "uint256"
        }
      ],
      "stateMutability": "view",
      "type": "function",
      "constant": true
    },
    {
      "inputs": [
        {
          "internalType": "uint256[]",
          "name": "usersId",
          "type": "uint256[]"
        }
      ],
      "name": "getUsersById",
      "outputs": [
        {
          "components": [
            {
              "internalType": "address",
              "name": "addr",
              "type": "address"
            },
            {
              "internalType": "string",
              "name": "name",
              "type": "string"
            },
            {
              "internalType": "string",
              "name": "surname",
              "type": "string"
            },
            {
              "internalType": "string",
              "name": "email",
              "type": "string"
            },
            {
              "internalType": "uint32",
              "name": "telephone",
              "type": "uint32"
            },
            {
              "internalType": "uint256",
              "name": "orgId",
              "type": "uint256"
            },
            {
              "internalType": "uint256",
              "name": "index",
              "type": "uint256"
            }
          ],
          "internalType": "struct Users.User[]",
          "name": "",
          "type": "tuple[]"
        }
      ],
      "stateMutability": "view",
      "type": "function",
      "constant": true
    }
  ],
  "bytecode": "0x60806040523480156200001157600080fd5b50604051620054a0380380620054a08339818101604052810190620000379190620002d8565b806000806101000a81548173ffffffffffffffffffffffffffffffffffffffff021916908373ffffffffffffffffffffffffffffffffffffffff16021790555060076040518060a001604052806040518060400160405280600181526020017f300000000000000000000000000000000000000000000000000000000000000081525081526020016040518060400160405280600181526020017f30000000000000000000000000000000000000000000000000000000000000008152508152602001600063ffffffff168152602001600081526020016000815250908060018154018082558091505060019003906000526020600020906005020160009091909190915060008201518160000190805190602001906200015a929190620001be565b50602082015181600101908051906020019062000179929190620001be565b5060408201518160020160006101000a81548163ffffffff021916908363ffffffff16021790555060608201518160030155608082015181600401555050506200036f565b828054620001cc9062000339565b90600052602060002090601f016020900481019282620001f057600085556200023c565b82601f106200020b57805160ff19168380011785556200023c565b828001600101855582156200023c579182015b828111156200023b5782518255916020019190600101906200021e565b5b5090506200024b91906200024f565b5090565b5b808211156200026a57600081600090555060010162000250565b5090565b600080fd5b600073ffffffffffffffffffffffffffffffffffffffff82169050919050565b6000620002a08262000273565b9050919050565b620002b28162000293565b8114620002be57600080fd5b50565b600081519050620002d281620002a7565b92915050565b600060208284031215620002f157620002f06200026e565b5b60006200030184828501620002c1565b91505092915050565b7f4e487b7100000000000000000000000000000000000000000000000000000000600052602260045260246000fd5b600060028204905060018216806200035257607f821691505b602082108114156200036957620003686200030a565b5b50919050565b615121806200037f6000396000f3fe608060405234801561001057600080fd5b50600436106101e55760003560e01c80636ecb141c1161010f578063c50d0bc7116100a2578063db035b8711610071578063db035b8714610620578063dd2b6d3a14610650578063e8bb900b14610680578063fbc8ba84146106b0576101e5565b8063c50d0bc714610560578063d05a887014610590578063d61490ef146105c0578063d75c62fd146105f0576101e5565b8063b4fff420116100de578063b4fff420146104c8578063b5ce789d146104f8578063c198764214610514578063c416f20514610530576101e5565b80636ecb141c1461041c57806373adf71f1461044c5780637673d482146104685780637ff1f34714610498576101e5565b806329bbe26911610187578063405a7abc11610156578063405a7abc146103705780634209fff1146103a05780635ba506ef146103d05780636dccbcc514610400576101e5565b806329bbe269146102ec5780632c60e4a0146103085780632ee45f4e1461032457806336bc697314610354576101e5565b80631e9a7980116101c35780631e9a7980146102685780631fef580c1461028457806325c5a656146102b457806327c16956146102d0576101e5565b806302d596d8146101ea57806304f468a71461021a5780631658747c14610238575b600080fd5b61020460048036038101906101ff9190613c07565b6106e0565b6040516102119190613dbe565b60405180910390f35b6102226109a7565b60405161022f9190613def565b60405180910390f35b610252600480360381019061024d9190613e36565b6109cb565b60405161025f9190613ee0565b60405180910390f35b610282600480360381019061027d9190614063565b610b65565b005b61029e60048036038101906102999190613e36565b610cdf565b6040516102ab9190613dbe565b60405180910390f35b6102ce60048036038101906102c99190614116565b610f61565b005b6102ea60048036038101906102e59190614275565b611137565b005b61030660048036038101906103019190614275565b611499565b005b610322600480360381019061031d91906142d1565b6116af565b005b61033e60048036038101906103399190613e36565b611aac565b60405161034b919061451e565b60405180910390f35b61036e60048036038101906103699190614540565b611e47565b005b61038a60048036038101906103859190613e36565b611ec2565b604051610397919061458f565b60405180910390f35b6103ba60048036038101906103b59190613c07565b611ee7565b6040516103c791906145c5565b60405180910390f35b6103ea60048036038101906103e59190613e36565b611fb3565b6040516103f7919061468f565b60405180910390f35b61041a60048036038101906104159190614275565b61201e565b005b61043660048036038101906104319190613e36565b61225f565b604051610443919061468f565b60405180910390f35b61046660048036038101906104619190614275565b6122ca565b005b610482600480360381019061047d9190613e36565b61239c565b60405161048f919061458f565b60405180910390f35b6104b260048036038101906104ad91906146b1565b61240d565b6040516104bf91906145c5565b60405180910390f35b6104e260048036038101906104dd9190613e36565b6124b7565b6040516104ef919061468f565b60405180910390f35b610512600480360381019061050d9190614275565b612522565b005b61052e60048036038101906105299190614275565b61268a565b005b61054a60048036038101906105459190613e36565b61297a565b6040516105579190614830565b60405180910390f35b61057a60048036038101906105759190613e36565b612c2d565b6040516105879190614964565b60405180910390f35b6105aa60048036038101906105a591906146b1565b612e23565b6040516105b791906145c5565b60405180910390f35b6105da60048036038101906105d59190613e36565b612ece565b6040516105e7919061451e565b60405180910390f35b61060a60048036038101906106059190614986565b613269565b604051610617919061451e565b60405180910390f35b61063a600480360381019061063591906146b1565b613598565b60405161064791906145c5565b60405180910390f35b61066a60048036038101906106659190614540565b613646565b604051610677919061458f565b60405180910390f35b61069a60048036038101906106959190614540565b613677565b6040516106a7919061458f565b60405180910390f35b6106ca60048036038101906106c59190613e36565b6136a8565b6040516106d7919061451e565b60405180910390f35b6106e8613a43565b6000600460008473ffffffffffffffffffffffffffffffffffffffff1673ffffffffffffffffffffffffffffffffffffffff168152602001908152602001600020549050600181815481106107405761073f6149cf565b5b90600052602060002090600702016040518060e00160405290816000820160009054906101000a900473ffffffffffffffffffffffffffffffffffffffff1673ffffffffffffffffffffffffffffffffffffffff1673ffffffffffffffffffffffffffffffffffffffff1681526020016001820180546107bf90614a2d565b80601f01602080910402602001604051908101604052809291908181526020018280546107eb90614a2d565b80156108385780601f1061080d57610100808354040283529160200191610838565b820191906000526020600020905b81548152906001019060200180831161081b57829003601f168201915b5050505050815260200160028201805461085190614a2d565b80601f016020809104026020016040519081016040528092919081815260200182805461087d90614a2d565b80156108ca5780601f1061089f576101008083540402835291602001916108ca565b820191906000526020600020905b8154815290600101906020018083116108ad57829003601f168201915b505050505081526020016003820180546108e390614a2d565b80601f016020809104026020016040519081016040528092919081815260200182805461090f90614a2d565b801561095c5780601f106109315761010080835404028352916020019161095c565b820191906000526020600020905b81548152906001019060200180831161093f57829003601f168201915b505050505081526020016004820160009054906101000a900463ffffffff1663ffffffff1663ffffffff16815260200160058201548152602001600682015481525050915050919050565b60008054906101000a900473ffffffffffffffffffffffffffffffffffffffff1681565b6109d3613a9c565b600782815481106109e7576109e66149cf565b5b90600052602060002090600502016040518060a0016040529081600082018054610a1090614a2d565b80601f0160208091040260200160405190810160405280929190818152602001828054610a3c90614a2d565b8015610a895780601f10610a5e57610100808354040283529160200191610a89565b820191906000526020600020905b815481529060010190602001808311610a6c57829003601f168201915b50505050508152602001600182018054610aa290614a2d565b80601f0160208091040260200160405190810160405280929190818152602001828054610ace90614a2d565b8015610b1b5780601f10610af057610100808354040283529160200191610b1b565b820191906000526020600020905b815481529060010190602001808311610afe57829003601f168201915b505050505081526020016002820160009054906101000a900463ffffffff1663ffffffff1663ffffffff168152602001600382015481526020016004820154815250509050919050565b610b6f8183612e23565b80610b805750610b7f818361240d565b5b610b8957600080fd5b6000600780549050905060076040518060a001604052808881526020018781526020018663ffffffff1681526020018581526020018381525090806001815401808255809150506001900390600052602060002090600502016000909190919091506000820151816000019080519060200190610c07929190613ad1565b506020820151816001019080519060200190610c24929190613ad1565b5060408201518160020160006101000a81548163ffffffff021916908363ffffffff16021790555060608201518160030155608082015181600401555050600860008481526020019081526020016000208190806001815401808255809150506001900390600052602060002001600090919091909150557f1bcc329d073df3f66f7a4cf5e24ebeeb50779dcc0fa6e40b14f68eb0a8690431828786604051610ccf93929190614ae4565b60405180910390a1505050505050565b610ce7613a43565b60018281548110610cfb57610cfa6149cf565b5b90600052602060002090600702016040518060e00160405290816000820160009054906101000a900473ffffffffffffffffffffffffffffffffffffffff1673ffffffffffffffffffffffffffffffffffffffff1673ffffffffffffffffffffffffffffffffffffffff168152602001600182018054610d7a90614a2d565b80601f0160208091040260200160405190810160405280929190818152602001828054610da690614a2d565b8015610df35780601f10610dc857610100808354040283529160200191610df3565b820191906000526020600020905b815481529060010190602001808311610dd657829003601f168201915b50505050508152602001600282018054610e0c90614a2d565b80601f0160208091040260200160405190810160405280929190818152602001828054610e3890614a2d565b8015610e855780601f10610e5a57610100808354040283529160200191610e85565b820191906000526020600020905b815481529060010190602001808311610e6857829003601f168201915b50505050508152602001600382018054610e9e90614a2d565b80601f0160208091040260200160405190810160405280929190818152602001828054610eca90614a2d565b8015610f175780601f10610eec57610100808354040283529160200191610f17565b820191906000526020600020905b815481529060010190602001808311610efa57829003601f168201915b505050505081526020016004820160009054906101000a900463ffffffff1663ffffffff1663ffffffff168152602001600582015481526020016006820154815250509050919050565b610f6b8183612e23565b15610fab576040517f08c379a0000000000000000000000000000000000000000000000000000000008152600401610fa290614b6e565b60405180910390fd5b610fb5818361240d565b610ff4576040517f08c379a0000000000000000000000000000000000000000000000000000000008152600401610feb90614bda565b60405180910390fd5b6000600460008373ffffffffffffffffffffffffffffffffffffffff1673ffffffffffffffffffffffffffffffffffffffff1681526020019081526020016000205490506000600d805490509050600d604051806060016040528089815260200184815260200188815250908060018154018082558091505060019003906000526020600020906003020160009091909190915060008201518160000190805190602001906110a4929190613ad1565b5060208201518160010155604082015181600201555050600e60008681526020019081526020016000208190806001815401808255809150506001900390600052602060002001600090919091909150557fe0c73e6327da77a783b95dec762e39f5d666eb83885bc50628358dc66de477e68387604051611126929190614bfa565b60405180910390a150505050505050565b60008151905060005b818110156114935760005b828110156112af57600060066000878152602001908152602001600020805490509050848381518110611181576111806149cf565b5b60200260200101516006600088815260200190815260200160002083815481106111ae576111ad6149cf565b5b9060005260206000200154141561129b5760008290505b6001826111d29190614c52565b81101561125b57600660008881526020019081526020016000206001826111f99190614c86565b8154811061120a576112096149cf565b5b906000526020600020015460066000898152602001908152602001600020828154811061123a576112396149cf565b5b9060005260206000200181905550808061125390614cdc565b9150506111c5565b506006600087815260200190815260200160002080548061127f5761127e614d25565b5b60019003818190600052602060002001600090559055506112af565b5080806112a790614cdc565b91505061114b565b5060005b8281101561147f576000600560008685815181106112d4576112d36149cf565b5b602002602001015181526020019081526020016000208054905090508560056000878681518110611308576113076149cf565b5b6020026020010151815260200190815260200160002083815481106113305761132f6149cf565b5b9060005260206000200154141561146b5760008290505b6001826113549190614c52565b8110156114115760056000878681518110611372576113716149cf565b5b602002602001015181526020019081526020016000206001826113959190614c86565b815481106113a6576113a56149cf565b5b9060005260206000200154600560008887815181106113c8576113c76149cf565b5b6020026020010151815260200190815260200160002082815481106113f0576113ef6149cf565b5b9060005260206000200181905550808061140990614cdc565b915050611347565b5060056000868581518110611429576114286149cf565b5b6020026020010151815260200190815260200160002080548061144f5761144e614d25565b5b600190038181906000526020600020016000905590555061147f565b50808061147790614cdc565b9150506112b3565b50808061148b90614cdc565b915050611140565b50505050565b60008151905060005b818110156116a95760011515600b600086815260200190815260200160002060008584815181106114d6576114d56149cf565b5b6020026020010151815260200190815260200160002060009054906101000a900460ff161515141561153d576040517f08c379a000000000000000000000000000000000000000000000000000000000815260040161153490614da0565b60405180910390fd5b600c6000858152602001908152602001600020838281518110611563576115626149cf565b5b602002602001015190806001815401808255809150506001900390600052602060002001600090919091909150556001600b600086815260200190815260200160002060008584815181106115bb576115ba6149cf565b5b6020026020010151815260200190815260200160002060006101000a81548160ff02191690831515021790555060008060009054906101000a900473ffffffffffffffffffffffffffffffffffffffff1690508073ffffffffffffffffffffffffffffffffffffffff16635583071b85848151811061163d5761163c6149cf565b5b6020026020010151876040518363ffffffff1660e01b8152600401611663929190614dc0565b600060405180830381600087803b15801561167d57600080fd5b505af1158015611691573d6000803e3d6000fd5b505050505080806116a190614cdc565b9150506114a2565b50505050565b60008060009054906101000a900473ffffffffffffffffffffffffffffffffffffffff1690506116df8783612e23565b1561171f576040517f08c379a000000000000000000000000000000000000000000000000000000000815260040161171690614e35565b60405180910390fd5b61172887611ee7565b15611768576040517f08c379a000000000000000000000000000000000000000000000000000000000815260040161175f90614ea1565b60405180910390fd5b6001826117759190614c86565b8173ffffffffffffffffffffffffffffffffffffffff1663d81066906040518163ffffffff1660e01b8152600401602060405180830381865afa1580156117c0573d6000803e3d6000fd5b505050506040513d601f19601f820116820180604052508101906117e49190614ed6565b1015611825576040517f08c379a000000000000000000000000000000000000000000000000000000000815260040161181c90614f4f565b60405180910390fd5b6000600180549050905060016040518060e001604052808a73ffffffffffffffffffffffffffffffffffffffff1681526020018981526020018881526020018781526020018663ffffffff16815260200185815260200183815250908060018154018082558091505060019003906000526020600020906007020160009091909190915060008201518160000160006101000a81548173ffffffffffffffffffffffffffffffffffffffff021916908373ffffffffffffffffffffffffffffffffffffffff160217905550602082015181600101908051906020019061190c929190613ad1565b506040820151816002019080519060200190611929929190613ad1565b506060820151816003019080519060200190611946929190613ad1565b5060808201518160040160006101000a81548163ffffffff021916908363ffffffff16021790555060a0820151816005015560c0820151816006015550506003600084815260200190815260200160002081908060018154018082558091505060019003906000526020600020016000909190919091505580600460008a73ffffffffffffffffffffffffffffffffffffffff1673ffffffffffffffffffffffffffffffffffffffff168152602001908152602001600020819055506002889080600181540180825580915050600190039060005260206000200160009091909190916101000a81548173ffffffffffffffffffffffffffffffffffffffff021916908373ffffffffffffffffffffffffffffffffffffffff1602179055507f85c8fcee8505f10dc8a4f9b889000c6a759cffeafd2e3b519a19c836af2e02bd88888886604051611a9a9493929190614f6f565b60405180910390a15050505050505050565b6060600060066000848152602001908152602001600020805480602002602001604051908101604052809291908181526020018280548015611b0d57602002820191906000526020600020905b815481526020019060010190808311611af9575b5050505050905060008151905060008167ffffffffffffffff811115611b3657611b35613f0c565b5b604051908082528060200260200182016040528015611b6f57816020015b611b5c613a43565b815260200190600190039081611b545790505b50905060005b82811015611e3b576001848281518110611b9257611b916149cf565b5b602002602001015181548110611bab57611baa6149cf565b5b90600052602060002090600702016040518060e00160405290816000820160009054906101000a900473ffffffffffffffffffffffffffffffffffffffff1673ffffffffffffffffffffffffffffffffffffffff1673ffffffffffffffffffffffffffffffffffffffff168152602001600182018054611c2a90614a2d565b80601f0160208091040260200160405190810160405280929190818152602001828054611c5690614a2d565b8015611ca35780601f10611c7857610100808354040283529160200191611ca3565b820191906000526020600020905b815481529060010190602001808311611c8657829003601f168201915b50505050508152602001600282018054611cbc90614a2d565b80601f0160208091040260200160405190810160405280929190818152602001828054611ce890614a2d565b8015611d355780601f10611d0a57610100808354040283529160200191611d35565b820191906000526020600020905b815481529060010190602001808311611d1857829003601f168201915b50505050508152602001600382018054611d4e90614a2d565b80601f0160208091040260200160405190810160405280929190818152602001828054611d7a90614a2d565b8015611dc75780601f10611d9c57610100808354040283529160200191611dc7565b820191906000526020600020905b815481529060010190602001808311611daa57829003601f168201915b505050505081526020016004820160009054906101000a900463ffffffff1663ffffffff1663ffffffff16815260200160058201548152602001600682015481525050828281518110611e1d57611e1c6149cf565b5b60200260200101819052508080611e3390614cdc565b915050611b75565b50809350505050919050565b600c60008381526020019081526020016000208190806001815401808255809150506001900390600052602060002001600090919091909150556001600b6000848152602001908152602001600020600083815260200190815260200160002060006101000a81548160ff0219169083151502179055505050565b6000806003600084815260200190815260200160002080549050905080915050919050565b6000806002805490501415611eff5760009050611fae565b8173ffffffffffffffffffffffffffffffffffffffff166002600460008573ffffffffffffffffffffffffffffffffffffffff1673ffffffffffffffffffffffffffffffffffffffff1681526020019081526020016000205481548110611f6957611f686149cf565b5b9060005260206000200160009054906101000a900473ffffffffffffffffffffffffffffffffffffffff1673ffffffffffffffffffffffffffffffffffffffff161490505b919050565b60606005600083815260200190815260200160002080548060200260200160405190810160405280929190818152602001828054801561201257602002820191906000526020600020905b815481526020019060010190808311611ffe575b50505050509050919050565b60008151905060005b81811015612259576001151560096000868152602001908152602001600020600085848151811061205b5761205a6149cf565b5b6020026020010151815260200190815260200160002060009054906101000a900460ff16151514156122465760006009600086815260200190815260200160002060008584815181106120b1576120b06149cf565b5b6020026020010151815260200190815260200160002060006101000a81548160ff0219169083151502179055506000600a600086815260200190815260200160002080549050905060005b8181101561224357848381518110612117576121166149cf565b5b6020026020010151600a60008881526020019081526020016000208281548110612144576121436149cf565b5b906000526020600020015414156122305760008190505b6001836121689190614c52565b8110156121f157600a600088815260200190815260200160002060018261218f9190614c86565b815481106121a05761219f6149cf565b5b9060005260206000200154600a600089815260200190815260200160002082815481106121d0576121cf6149cf565b5b906000526020600020018190555080806121e990614cdc565b91505061215b565b50600a600087815260200190815260200160002080548061221557612214614d25565b5b60019003818190600052602060002001600090559055612243565b808061223b90614cdc565b9150506120fc565b50505b808061225190614cdc565b915050612027565b50505050565b6060600a60008381526020019081526020016000208054806020026020016040519081016040528092919081815260200182805480156122be57602002820191906000526020600020905b8154815260200190600101908083116122aa575b50505050509050919050565b60008151905060005b8181101561239657600560008483815181106122f2576122f16149cf565b5b6020026020010151815260200190815260200160002084908060018154018082558091505060019003906000526020600020016000909190919091505560066000858152602001908152602001600020838281518110612355576123546149cf565b5b60200260200101519080600181540180825580915050600190039060005260206000200160009091909190915055808061238e90614cdc565b9150506122d3565b50505050565b600080600e60008481526020019081526020016000208054806020026020016040519081016040528092919081815260200182805480156123fc57602002820191906000526020600020905b8154815260200190600101908083116123e8575b505050505090508051915050919050565b600080600280549050141561242557600090506124b1565b61242e83611ee7565b61243b57600090506124b1565b6000600460008573ffffffffffffffffffffffffffffffffffffffff1673ffffffffffffffffffffffffffffffffffffffff168152602001908152602001600020549050600060018281548110612495576124946149cf565b5b9060005260206000209060070201600501549050838114925050505b92915050565b6060600c600083815260200190815260200160002080548060200260200160405190810160405280929190818152602001828054801561251657602002820191906000526020600020905b815481526020019060010190808311612502575b50505050509050919050565b60008151905060005b81811015612684576001151560096000868152602001908152602001600020600085848151811061255f5761255e6149cf565b5b6020026020010151815260200190815260200160002060009054906101000a900460ff16151514156125c6576040517f08c379a00000000000000000000000000000000000000000000000000000000081526004016125bd9061500e565b60405180910390fd5b600a60008581526020019081526020016000208382815181106125ec576125eb6149cf565b5b602002602001015190806001815401808255809150506001900390600052602060002001600090919091909150556001600960008681526020019081526020016000206000858481518110612644576126436149cf565b5b6020026020010151815260200190815260200160002060006101000a81548160ff021916908315150217905550808061267c90614cdc565b91505061252b565b50505050565b60008151905060005b818110156129745760011515600b600086815260200190815260200160002060008584815181106126c7576126c66149cf565b5b6020026020010151815260200190815260200160002060009054906101000a900460ff1615151415612961576000600b6000868152602001908152602001600020600085848151811061271d5761271c6149cf565b5b6020026020010151815260200190815260200160002060006101000a81548160ff0219169083151502179055506000600c600086815260200190815260200160002080549050905060005b8181101561295e57848381518110612783576127826149cf565b5b6020026020010151600c600088815260200190815260200160002082815481106127b0576127af6149cf565b5b9060005260206000200154141561294b5760008190505b6001836127d49190614c52565b81101561285d57600c60008881526020019081526020016000206001826127fb9190614c86565b8154811061280c5761280b6149cf565b5b9060005260206000200154600c6000898152602001908152602001600020828154811061283c5761283b6149cf565b5b9060005260206000200181905550808061285590614cdc565b9150506127c7565b50600c600087815260200190815260200160002080548061288157612880614d25565b5b6001900381819060005260206000200160009055905560008060009054906101000a900473ffffffffffffffffffffffffffffffffffffffff1690508073ffffffffffffffffffffffffffffffffffffffff16635583071b8786815181106128ec576128eb6149cf565b5b602002602001015160006040518363ffffffff1660e01b8152600401612913929190615069565b600060405180830381600087803b15801561292d57600080fd5b505af1158015612941573d6000803e3d6000fd5b505050505061295e565b808061295690614cdc565b915050612768565b50505b808061296c90614cdc565b915050612693565b50505050565b60606000600860008481526020019081526020016000208054806020026020016040519081016040528092919081815260200182805480156129db57602002820191906000526020600020905b8154815260200190600101908083116129c7575b5050505050905060008151905060008167ffffffffffffffff811115612a0457612a03613f0c565b5b604051908082528060200260200182016040528015612a3d57816020015b612a2a613a9c565b815260200190600190039081612a225790505b50905060005b82811015612c21576007848281518110612a6057612a5f6149cf565b5b602002602001015181548110612a7957612a786149cf565b5b90600052602060002090600502016040518060a0016040529081600082018054612aa290614a2d565b80601f0160208091040260200160405190810160405280929190818152602001828054612ace90614a2d565b8015612b1b5780601f10612af057610100808354040283529160200191612b1b565b820191906000526020600020905b815481529060010190602001808311612afe57829003601f168201915b50505050508152602001600182018054612b3490614a2d565b80601f0160208091040260200160405190810160405280929190818152602001828054612b6090614a2d565b8015612bad5780601f10612b8257610100808354040283529160200191612bad565b820191906000526020600020905b815481529060010190602001808311612b9057829003601f168201915b505050505081526020016002820160009054906101000a900463ffffffff1663ffffffff1663ffffffff16815260200160038201548152602001600482015481525050828281518110612c0357612c026149cf565b5b60200260200101819052508080612c1990614cdc565b915050612a43565b50809350505050919050565b60606000600e6000848152602001908152602001600020805480602002602001604051908101604052809291908181526020018280548015612c8e57602002820191906000526020600020905b815481526020019060010190808311612c7a575b505050505090506000815167ffffffffffffffff811115612cb257612cb1613f0c565b5b604051908082528060200260200182016040528015612ceb57816020015b612cd8613b57565b815260200190600190039081612cd05790505b50905060005b8251811015612e1857600d838281518110612d0f57612d0e6149cf565b5b602002602001015181548110612d2857612d276149cf565b5b9060005260206000209060030201604051806060016040529081600082018054612d5190614a2d565b80601f0160208091040260200160405190810160405280929190818152602001828054612d7d90614a2d565b8015612dca5780601f10612d9f57610100808354040283529160200191612dca565b820191906000526020600020905b815481529060010190602001808311612dad57829003601f168201915b5050505050815260200160018201548152602001600282015481525050828281518110612dfa57612df96149cf565b5b60200260200101819052508080612e1090614cdc565b915050612cf1565b508092505050919050565b60008060008054906101000a900473ffffffffffffffffffffffffffffffffffffffff1690508073ffffffffffffffffffffffffffffffffffffffff1663d05a887085856040518363ffffffff1660e01b8152600401612e84929190614bfa565b602060405180830381865afa158015612ea1573d6000803e3d6000fd5b505050506040513d601f19601f82011682018060405250810190612ec591906150be565b91505092915050565b60606000600a6000848152602001908152602001600020805480602002602001604051908101604052809291908181526020018280548015612f2f57602002820191906000526020600020905b815481526020019060010190808311612f1b575b5050505050905060008151905060008167ffffffffffffffff811115612f5857612f57613f0c565b5b604051908082528060200260200182016040528015612f9157816020015b612f7e613a43565b815260200190600190039081612f765790505b50905060005b8281101561325d576001848281518110612fb457612fb36149cf565b5b602002602001015181548110612fcd57612fcc6149cf565b5b90600052602060002090600702016040518060e00160405290816000820160009054906101000a900473ffffffffffffffffffffffffffffffffffffffff1673ffffffffffffffffffffffffffffffffffffffff1673ffffffffffffffffffffffffffffffffffffffff16815260200160018201805461304c90614a2d565b80601f016020809104026020016040519081016040528092919081815260200182805461307890614a2d565b80156130c55780601f1061309a576101008083540402835291602001916130c5565b820191906000526020600020905b8154815290600101906020018083116130a857829003601f168201915b505050505081526020016002820180546130de90614a2d565b80601f016020809104026020016040519081016040528092919081815260200182805461310a90614a2d565b80156131575780601f1061312c57610100808354040283529160200191613157565b820191906000526020600020905b81548152906001019060200180831161313a57829003601f168201915b5050505050815260200160038201805461317090614a2d565b80601f016020809104026020016040519081016040528092919081815260200182805461319c90614a2d565b80156131e95780601f106131be576101008083540402835291602001916131e9565b820191906000526020600020905b8154815290600101906020018083116131cc57829003601f168201915b505050505081526020016004820160009054906101000a900463ffffffff1663ffffffff1663ffffffff1681526020016005820154815260200160068201548152505082828151811061323f5761323e6149cf565b5b6020026020010181905250808061325590614cdc565b915050612f97565b50809350505050919050565b60606000825167ffffffffffffffff81111561328857613287613f0c565b5b6040519080825280602002602001820160405280156132c157816020015b6132ae613a43565b8152602001906001900390816132a65790505b50905060005b835181101561358e5760018482815181106132e5576132e46149cf565b5b6020026020010151815481106132fe576132fd6149cf565b5b90600052602060002090600702016040518060e00160405290816000820160009054906101000a900473ffffffffffffffffffffffffffffffffffffffff1673ffffffffffffffffffffffffffffffffffffffff1673ffffffffffffffffffffffffffffffffffffffff16815260200160018201805461337d90614a2d565b80601f01602080910402602001604051908101604052809291908181526020018280546133a990614a2d565b80156133f65780601f106133cb576101008083540402835291602001916133f6565b820191906000526020600020905b8154815290600101906020018083116133d957829003601f168201915b5050505050815260200160028201805461340f90614a2d565b80601f016020809104026020016040519081016040528092919081815260200182805461343b90614a2d565b80156134885780601f1061345d57610100808354040283529160200191613488565b820191906000526020600020905b81548152906001019060200180831161346b57829003601f168201915b505050505081526020016003820180546134a190614a2d565b80601f01602080910402602001604051908101604052809291908181526020018280546134cd90614a2d565b801561351a5780601f106134ef5761010080835404028352916020019161351a565b820191906000526020600020905b8154815290600101906020018083116134fd57829003601f168201915b505050505081526020016004820160009054906101000a900463ffffffff1663ffffffff1663ffffffff168152602001600582015481526020016006820154815250508282815181106135705761356f6149cf565b5b6020026020010181905250808061358690614cdc565b9150506132c7565b5080915050919050565b60008060028054905014156135b05760009050613640565b6135b983611ee7565b6135c65760009050613640565b6000600460008573ffffffffffffffffffffffffffffffffffffffff1673ffffffffffffffffffffffffffffffffffffffff16815260200190815260200160002054905060096000848152602001908152602001600020600082815260200190815260200160002060009054906101000a900460ff169150505b92915050565b6005602052816000526040600020818154811061366257600080fd5b90600052602060002001600091509150505481565b6006602052816000526040600020818154811061369357600080fd5b90600052602060002001600091509150505481565b606060006003600084815260200190815260200160002080548060200260200160405190810160405280929190818152602001828054801561370957602002820191906000526020600020905b8154815260200190600101908083116136f5575b5050505050905060008151905060008167ffffffffffffffff81111561373257613731613f0c565b5b60405190808252806020026020018201604052801561376b57816020015b613758613a43565b8152602001906001900390816137505790505b50905060005b82811015613a3757600184828151811061378e5761378d6149cf565b5b6020026020010151815481106137a7576137a66149cf565b5b90600052602060002090600702016040518060e00160405290816000820160009054906101000a900473ffffffffffffffffffffffffffffffffffffffff1673ffffffffffffffffffffffffffffffffffffffff1673ffffffffffffffffffffffffffffffffffffffff16815260200160018201805461382690614a2d565b80601f016020809104026020016040519081016040528092919081815260200182805461385290614a2d565b801561389f5780601f106138745761010080835404028352916020019161389f565b820191906000526020600020905b81548152906001019060200180831161388257829003601f168201915b505050505081526020016002820180546138b890614a2d565b80601f01602080910402602001604051908101604052809291908181526020018280546138e490614a2d565b80156139315780601f1061390657610100808354040283529160200191613931565b820191906000526020600020905b81548152906001019060200180831161391457829003601f168201915b5050505050815260200160038201805461394a90614a2d565b80601f016020809104026020016040519081016040528092919081815260200182805461397690614a2d565b80156139c35780601f10613998576101008083540402835291602001916139c3565b820191906000526020600020905b8154815290600101906020018083116139a657829003601f168201915b505050505081526020016004820160009054906101000a900463ffffffff1663ffffffff1663ffffffff16815260200160058201548152602001600682015481525050828281518110613a1957613a186149cf565b5b60200260200101819052508080613a2f90614cdc565b915050613771565b50809350505050919050565b6040518060e00160405280600073ffffffffffffffffffffffffffffffffffffffff168152602001606081526020016060815260200160608152602001600063ffffffff16815260200160008152602001600081525090565b6040518060a001604052806060815260200160608152602001600063ffffffff16815260200160008152602001600081525090565b828054613add90614a2d565b90600052602060002090601f016020900481019282613aff5760008555613b46565b82601f10613b1857805160ff1916838001178555613b46565b82800160010185558215613b46579182015b82811115613b45578251825591602001919060010190613b2a565b5b509050613b539190613b78565b5090565b60405180606001604052806060815260200160008152602001600081525090565b5b80821115613b91576000816000905550600101613b79565b5090565b6000604051905090565b600080fd5b600080fd5b600073ffffffffffffffffffffffffffffffffffffffff82169050919050565b6000613bd482613ba9565b9050919050565b613be481613bc9565b8114613bef57600080fd5b50565b600081359050613c0181613bdb565b92915050565b600060208284031215613c1d57613c1c613b9f565b5b6000613c2b84828501613bf2565b91505092915050565b613c3d81613bc9565b82525050565b600081519050919050565b600082825260208201905092915050565b60005b83811015613c7d578082015181840152602081019050613c62565b83811115613c8c576000848401525b50505050565b6000601f19601f8301169050919050565b6000613cae82613c43565b613cb88185613c4e565b9350613cc8818560208601613c5f565b613cd181613c92565b840191505092915050565b600063ffffffff82169050919050565b613cf581613cdc565b82525050565b6000819050919050565b613d0e81613cfb565b82525050565b600060e083016000830151613d2c6000860182613c34565b5060208301518482036020860152613d448282613ca3565b91505060408301518482036040860152613d5e8282613ca3565b91505060608301518482036060860152613d788282613ca3565b9150506080830151613d8d6080860182613cec565b5060a0830151613da060a0860182613d05565b5060c0830151613db360c0860182613d05565b508091505092915050565b60006020820190508181036000830152613dd88184613d14565b905092915050565b613de981613bc9565b82525050565b6000602082019050613e046000830184613de0565b92915050565b613e1381613cfb565b8114613e1e57600080fd5b50565b600081359050613e3081613e0a565b92915050565b600060208284031215613e4c57613e4b613b9f565b5b6000613e5a84828501613e21565b91505092915050565b600060a0830160008301518482036000860152613e808282613ca3565b91505060208301518482036020860152613e9a8282613ca3565b9150506040830151613eaf6040860182613cec565b506060830151613ec26060860182613d05565b506080830151613ed56080860182613d05565b508091505092915050565b60006020820190508181036000830152613efa8184613e63565b905092915050565b600080fd5b600080fd5b7f4e487b7100000000000000000000000000000000000000000000000000000000600052604160045260246000fd5b613f4482613c92565b810181811067ffffffffffffffff82111715613f6357613f62613f0c565b5b80604052505050565b6000613f76613b95565b9050613f828282613f3b565b919050565b600067ffffffffffffffff821115613fa257613fa1613f0c565b5b613fab82613c92565b9050602081019050919050565b82818337600083830152505050565b6000613fda613fd584613f87565b613f6c565b905082815260208101848484011115613ff657613ff5613f07565b5b614001848285613fb8565b509392505050565b600082601f83011261401e5761401d613f02565b5b813561402e848260208601613fc7565b91505092915050565b61404081613cdc565b811461404b57600080fd5b50565b60008135905061405d81614037565b92915050565b600080600080600060a0868803121561407f5761407e613b9f565b5b600086013567ffffffffffffffff81111561409d5761409c613ba4565b5b6140a988828901614009565b955050602086013567ffffffffffffffff8111156140ca576140c9613ba4565b5b6140d688828901614009565b94505060406140e78882890161404e565b93505060606140f888828901613e21565b925050608061410988828901613bf2565b9150509295509295909350565b600080600080600060a0868803121561413257614131613b9f565b5b600086013567ffffffffffffffff8111156141505761414f613ba4565b5b61415c88828901614009565b955050602061416d88828901613e21565b945050604061417e88828901613e21565b935050606061418f88828901613e21565b92505060806141a088828901613bf2565b9150509295509295909350565b600067ffffffffffffffff8211156141c8576141c7613f0c565b5b602082029050602081019050919050565b600080fd5b60006141f16141ec846141ad565b613f6c565b90508083825260208201905060208402830185811115614214576142136141d9565b5b835b8181101561423d57806142298882613e21565b845260208401935050602081019050614216565b5050509392505050565b600082601f83011261425c5761425b613f02565b5b813561426c8482602086016141de565b91505092915050565b6000806040838503121561428c5761428b613b9f565b5b600061429a85828601613e21565b925050602083013567ffffffffffffffff8111156142bb576142ba613ba4565b5b6142c785828601614247565b9150509250929050565b60008060008060008060c087890312156142ee576142ed613b9f565b5b60006142fc89828a01613bf2565b965050602087013567ffffffffffffffff81111561431d5761431c613ba4565b5b61432989828a01614009565b955050604087013567ffffffffffffffff81111561434a57614349613ba4565b5b61435689828a01614009565b945050606087013567ffffffffffffffff81111561437757614376613ba4565b5b61438389828a01614009565b935050608061439489828a0161404e565b92505060a06143a589828a01613e21565b9150509295509295509295565b600081519050919050565b600082825260208201905092915050565b6000819050602082019050919050565b600060e0830160008301516143f66000860182613c34565b506020830151848203602086015261440e8282613ca3565b915050604083015184820360408601526144288282613ca3565b915050606083015184820360608601526144428282613ca3565b91505060808301516144576080860182613cec565b5060a083015161446a60a0860182613d05565b5060c083015161447d60c0860182613d05565b508091505092915050565b600061449483836143de565b905092915050565b6000602082019050919050565b60006144b4826143b2565b6144be81856143bd565b9350836020820285016144d0856143ce565b8060005b8581101561450c57848403895281516144ed8582614488565b94506144f88361449c565b925060208a019950506001810190506144d4565b50829750879550505050505092915050565b6000602082019050818103600083015261453881846144a9565b905092915050565b6000806040838503121561455757614556613b9f565b5b600061456585828601613e21565b925050602061457685828601613e21565b9150509250929050565b61458981613cfb565b82525050565b60006020820190506145a46000830184614580565b92915050565b60008115159050919050565b6145bf816145aa565b82525050565b60006020820190506145da60008301846145b6565b92915050565b600081519050919050565b600082825260208201905092915050565b6000819050602082019050919050565b60006146188383613d05565b60208301905092915050565b6000602082019050919050565b600061463c826145e0565b61464681856145eb565b9350614651836145fc565b8060005b83811015614682578151614669888261460c565b975061467483614624565b925050600181019050614655565b5085935050505092915050565b600060208201905081810360008301526146a98184614631565b905092915050565b600080604083850312156146c8576146c7613b9f565b5b60006146d685828601613bf2565b92505060206146e785828601613e21565b9150509250929050565b600081519050919050565b600082825260208201905092915050565b6000819050602082019050919050565b600060a083016000830151848203600086015261473a8282613ca3565b915050602083015184820360208601526147548282613ca3565b91505060408301516147696040860182613cec565b50606083015161477c6060860182613d05565b50608083015161478f6080860182613d05565b508091505092915050565b60006147a6838361471d565b905092915050565b6000602082019050919050565b60006147c6826146f1565b6147d081856146fc565b9350836020820285016147e28561470d565b8060005b8581101561481e57848403895281516147ff858261479a565b945061480a836147ae565b925060208a019950506001810190506147e6565b50829750879550505050505092915050565b6000602082019050818103600083015261484a81846147bb565b905092915050565b600081519050919050565b600082825260208201905092915050565b6000819050602082019050919050565b6000606083016000830151848203600086015261489b8282613ca3565b91505060208301516148b06020860182613d05565b5060408301516148c36040860182613d05565b508091505092915050565b60006148da838361487e565b905092915050565b6000602082019050919050565b60006148fa82614852565b614904818561485d565b9350836020820285016149168561486e565b8060005b85811015614952578484038952815161493385826148ce565b945061493e836148e2565b925060208a0199505060018101905061491a565b50829750879550505050505092915050565b6000602082019050818103600083015261497e81846148ef565b905092915050565b60006020828403121561499c5761499b613b9f565b5b600082013567ffffffffffffffff8111156149ba576149b9613ba4565b5b6149c684828501614247565b91505092915050565b7f4e487b7100000000000000000000000000000000000000000000000000000000600052603260045260246000fd5b7f4e487b7100000000000000000000000000000000000000000000000000000000600052602260045260246000fd5b60006002820490506001821680614a4557607f821691505b60208210811415614a5957614a586149fe565b5b50919050565b600082825260208201905092915050565b6000614a7b82613c43565b614a858185614a5f565b9350614a95818560208601613c5f565b614a9e81613c92565b840191505092915050565b6000819050919050565b6000614ace614ac9614ac484613cdc565b614aa9565b613cfb565b9050919050565b614ade81614ab3565b82525050565b6000606082019050614af96000830186613de0565b8181036020830152614b0b8185614a70565b9050614b1a6040830184614ad5565b949350505050565b7f69732041646d696e6973747261746f7200000000000000000000000000000000600082015250565b6000614b58601083614a5f565b9150614b6382614b22565b602082019050919050565b60006020820190508181036000830152614b8781614b4b565b9050919050565b7f557365722069736e277420696e206f7267000000000000000000000000000000600082015250565b6000614bc4601183614a5f565b9150614bcf82614b8e565b602082019050919050565b60006020820190508181036000830152614bf381614bb7565b9050919050565b6000604082019050614c0f6000830185613de0565b614c1c6020830184614580565b9392505050565b7f4e487b7100000000000000000000000000000000000000000000000000000000600052601160045260246000fd5b6000614c5d82613cfb565b9150614c6883613cfb565b925082821015614c7b57614c7a614c23565b5b828203905092915050565b6000614c9182613cfb565b9150614c9c83613cfb565b9250827fffffffffffffffffffffffffffffffffffffffffffffffffffffffffffffffff03821115614cd157614cd0614c23565b5b828201905092915050565b6000614ce782613cfb565b91507fffffffffffffffffffffffffffffffffffffffffffffffffffffffffffffffff821415614d1a57614d19614c23565b5b600182019050919050565b7f4e487b7100000000000000000000000000000000000000000000000000000000600052603160045260246000fd5b7f417373657420696e206465700000000000000000000000000000000000000000600082015250565b6000614d8a600c83614a5f565b9150614d9582614d54565b602082019050919050565b60006020820190508181036000830152614db981614d7d565b9050919050565b6000604082019050614dd56000830185614580565b614de26020830184614580565b9392505050565b7f757365722069732061646d696e00000000000000000000000000000000000000600082015250565b6000614e1f600d83614a5f565b9150614e2a82614de9565b602082019050919050565b60006020820190508181036000830152614e4e81614e12565b9050919050565b7f4164647265737320726567697374657265640000000000000000000000000000600082015250565b6000614e8b601283614a5f565b9150614e9682614e55565b602082019050919050565b60006020820190508181036000830152614eba81614e7e565b9050919050565b600081519050614ed081613e0a565b92915050565b600060208284031215614eec57614eeb613b9f565b5b6000614efa84828501614ec1565b91505092915050565b7f4f72674964206e6f7420666f756e640000000000000000000000000000000000600082015250565b6000614f39600f83614a5f565b9150614f4482614f03565b602082019050919050565b60006020820190508181036000830152614f6881614f2c565b9050919050565b6000608082019050614f846000830187613de0565b8181036020830152614f968186614a70565b90508181036040830152614faa8185614a70565b9050614fb96060830184614580565b95945050505050565b7f5573657220696e20646570000000000000000000000000000000000000000000600082015250565b6000614ff8600b83614a5f565b915061500382614fc2565b602082019050919050565b6000602082019050818103600083015261502781614feb565b9050919050565b6000819050919050565b600061505361504e6150498461502e565b614aa9565b613cfb565b9050919050565b61506381615038565b82525050565b600060408201905061507e6000830185614580565b61508b602083018461505a565b9392505050565b61509b816145aa565b81146150a657600080fd5b50565b6000815190506150b881615092565b92915050565b6000602082840312156150d4576150d3613b9f565b5b60006150e2848285016150a9565b9150509291505056fea2646970667358221220ba3c28e109d4ba02c473c48493513dfb62987cb68b5e3cbcb6977901d4db3b9864736f6c634300080c0033",
  "immutableReferences": {},
  "source": "// SPDX-License-Identifier: MIT\r\npragma solidity >=0.7.0 <0.9.10;\r\nimport \"./Main.sol\";\r\n\r\ncontract Users {\r\n\r\n    address public mainAddr;\r\n\r\n    constructor (address _mainAddr){\r\n        mainAddr = _mainAddr;\r\n        departList.push(Department('0','0',0,0,0));\r\n    }\r\n\r\n    event NewDepart(\r\n        address addr,\r\n        string name,\r\n        uint telephone\r\n    );\r\n\r\n    event NewComment(\r\n        address addr,\r\n        uint date\r\n    );\r\n\r\n    event Register(\r\n        address addr, \r\n        string name,\r\n        string surname,\r\n        uint orgId \r\n    );\r\n\r\n    struct User {\r\n        address addr;\r\n        string name;\r\n        string surname;\r\n        string email;\r\n        uint32 telephone;\r\n        uint orgId;\r\n        uint256 index;\r\n    }\r\n\r\n    User[] private userList;\r\n    address[] private users;\r\n    mapping(uint256 => uint256[]) orgIdToUserList;\r\n    mapping(address => uint) addressToId;\r\n\r\n    function isUser(address userAddress) public view returns (bool isIndeed) {\r\n        if (users.length == 0) return false;\r\n        return (users[addressToId[userAddress]] == userAddress);\r\n    } \r\n\r\n    function getUserFromAddr(address addr) public view returns(User memory){\r\n        uint userId = addressToId[addr];\r\n        return userList[userId];\r\n    }\r\n    \r\n    function insertUser(\r\n        address addr, \r\n        string memory name, \r\n        string memory surname, \r\n        string memory email, \r\n        uint32 telephone,\r\n        uint orgId \r\n    ) public {\r\n        //Instance main contract to see if the id of the org exists\r\n        Main mainInstance = Main(mainAddr);\r\n        if(isAdminFromOrg(addr, orgId)) revert(\"user is admin\");\r\n        if(isUser(addr)) revert(\"Address registered\");\r\n        if((mainInstance.orgCount()) < (uint256(orgId)+1)) revert(\"OrgId not found\");\r\n        uint userId = userList.length;\r\n        userList.push(User(addr, name, surname, email, telephone, orgId, userId));\r\n        orgIdToUserList[orgId].push(userId);\r\n        addressToId[addr] = userId;\r\n        users.push(addr);\r\n        emit Register(addr, name, surname, orgId);\r\n    }\r\n\r\n\r\n\r\n    function getAllUsersFromOrg(uint orgId) public view returns(User[] memory){\r\n        uint[] memory idList = orgIdToUserList[orgId];\r\n        uint cont = idList.length;\r\n        User[] memory usersFromOrg = new User[](cont);\r\n\r\n        for (uint i = 0; i < cont; i++) {\r\n            usersFromOrg[i] = userList[idList[i]];\r\n        }\r\n        return usersFromOrg;\r\n    }\r\n\r\n    function getNumUsersFromOrg(uint orgId) public view returns(uint){\r\n        uint usersFromOrg = orgIdToUserList[orgId].length;\r\n        return usersFromOrg;\r\n    }\r\n\r\n    function getUserData(uint userId) public view returns(User memory){\r\n        return userList[userId];\r\n    }\r\n\r\n    //RELATION BETWEEN ASSET AND USER\r\n\r\n    mapping(uint => uint[]) public userIdToAssetList;\r\n    mapping(uint => uint[]) public assetToListOfUsers;\r\n\r\n    function insertUsersToAsset(uint assetId, uint[] memory userIds) public {\r\n        uint cont = userIds.length;\r\n        for (uint i = 0; i < cont; i++) {\r\n            userIdToAssetList[userIds[i]].push(assetId);\r\n            assetToListOfUsers[assetId].push(userIds[i]);\r\n        } \r\n    }\r\n\r\n    function deleteUsersFromAsset(uint assetId, uint[] memory userIds) public {\r\n        uint cont = userIds.length;\r\n        for (uint i = 0; i < cont; i++) {\r\n            for(uint o = 0; o < cont; o++){  \r\n                uint assetUsers = assetToListOfUsers[assetId].length;\r\n                if (assetToListOfUsers[assetId][o] == userIds[i]){\r\n                    for (uint e = o; e < assetUsers-1; e++){\r\n                        assetToListOfUsers[assetId][e] = assetToListOfUsers[assetId][e+1];\r\n                    }\r\n                    assetToListOfUsers[assetId].pop();\r\n                    break;\r\n                }\r\n            } \r\n            for(uint o = 0; o < cont; o++){  \r\n                uint usersAssets = userIdToAssetList[userIds[i]].length;\r\n                if (userIdToAssetList[userIds[i]][o] == assetId){\r\n                    for (uint e = o; e < usersAssets-1; e++){\r\n                        userIdToAssetList[userIds[i]][e] = userIdToAssetList[userIds[i]][e+1];\r\n                    }\r\n                    userIdToAssetList[userIds[i]].pop();\r\n                    break;\r\n                }\r\n            }\r\n        }\r\n    }\r\n\r\n    function getUserAssets(uint userId) public view returns(uint[] memory assetIds){\r\n        return userIdToAssetList[userId];\r\n    }\r\n\r\n    function getAssetUsers(uint assetId) public view returns(User[] memory){\r\n        uint[] memory list = assetToListOfUsers[assetId];\r\n        uint cont = list.length;\r\n        User[] memory usersOfAsset = new User[](cont);\r\n        for (uint i = 0; i < cont; i++) {\r\n            usersOfAsset[i] = userList[list[i]];\r\n        }\r\n        return usersOfAsset;\r\n    }\r\n\r\n    //DEPARTMENTS\r\n    struct Department {\r\n        string name;\r\n        string description;\r\n        uint32 telephone;\r\n        uint orgId;\r\n        uint256 index;\r\n    }\r\n\r\n    Department[] private departList;\r\n    mapping(uint256 => uint256[]) orgIdToDepartList;\r\n    mapping(uint => mapping(uint => bool)) departToUserBool;\r\n    mapping(uint => uint[]) departIdToUserList;\r\n\r\n    function isUserFromOrg(address addr, uint orgId) public view returns(bool){\r\n        if (users.length == 0) return false;\r\n        if (!isUser(addr)) return false;\r\n        uint userId = addressToId[addr];\r\n        uint userOrg = userList[userId].orgId;\r\n        return (userOrg == orgId);\r\n    }\r\n\r\n    function isUserFromDepart(address addr, uint departId) public view returns(bool){\r\n        if (users.length == 0) return false;\r\n        if (!isUser(addr)) return false;\r\n        uint userId = addressToId[addr];\r\n        return (departToUserBool[departId][userId]);\r\n    }\r\n\r\n    function isAdminFromOrg(address addr, uint orgId) public view returns (bool){\r\n        Main mainInstance = Main(mainAddr);\r\n        return mainInstance.isAdminFromOrg(addr, orgId);\r\n    }\r\n\r\n    function insertDepartment(string memory name,\r\n        string memory description,\r\n        uint32 telephone,\r\n        uint orgId,\r\n        address addr\r\n        ) public {\r\n            if(!(isAdminFromOrg(addr, orgId) || isUserFromOrg(addr, orgId))) revert();         \r\n            uint departId = departList.length;\r\n            departList.push(Department(name, description, telephone, orgId, departId));\r\n            orgIdToDepartList[orgId].push(departId);\r\n            emit NewDepart(addr, name, telephone);\r\n    }\r\n\r\n    function getDepartment(uint departId) public view returns(Department memory){\r\n        return departList[departId];\r\n    }\r\n\r\n    function getAllDepartmentsFromOrg(uint orgId) public view returns(Department[] memory){\r\n        uint[] memory idList = orgIdToDepartList[orgId];\r\n        uint cont = idList.length;\r\n        Department[] memory departFromOrg = new Department[](cont);\r\n\r\n        for (uint i = 0; i < cont; i++) {\r\n            departFromOrg[i] = departList[idList[i]];\r\n        }\r\n        return departFromOrg;\r\n    }\r\n\r\n    //USERS from department\r\n    function insertUserToDepartment(uint departId, uint[] memory userIds) public {\r\n        //if(!isAdminFromOrg(addr, orgId)) revert(\");\r\n        uint cont = userIds.length;\r\n        for (uint i = 0; i < cont; i++) {\r\n            if(departToUserBool[departId][userIds[i]] == true) {\r\n                revert(\"User in dep\");\r\n            } else {\r\n                departIdToUserList[departId].push(userIds[i]);\r\n                departToUserBool[departId][userIds[i]] = true;\r\n            }\r\n            \r\n        }\r\n    }\r\n\r\n    //If admin wants to delete any user from the department\r\n    //first we will need to find that user \r\n    //and then delete the index \r\n    function deleteUsersFromDepartment(uint departId, uint[] memory userIds) public {\r\n        uint userCont = userIds.length;\r\n        for (uint i = 0; i < userCont; i++) {\r\n            if(departToUserBool[departId][userIds[i]] == true) {\r\n                departToUserBool[departId][userIds[i]] = false;\r\n                uint departUsers = departIdToUserList[departId].length;\r\n                for(uint o = 0; o < departUsers; o++){\r\n                    if (departIdToUserList[departId][o] == userIds[i]){\r\n                        for (uint e = o; e<departUsers-1; e++){\r\n                            departIdToUserList[departId][e] = departIdToUserList[departId][e+1];\r\n                        }\r\n                        departIdToUserList[departId].pop();\r\n                        break;\r\n                    }\r\n                }\r\n            }\r\n        }\r\n    }\r\n\r\n    function getUsersIdsFromDepart(uint departId) public view returns(uint[] memory){\r\n        return departIdToUserList[departId];\r\n        \r\n    }\r\n\r\n    function getUsersFromDepart(uint departId) public view returns(User[] memory){\r\n        uint[] memory idList = departIdToUserList[departId];\r\n        uint cont = idList.length;\r\n        User[] memory usersFromDepart = new User[](cont);\r\n\r\n        for (uint i = 0; i < cont; i++) {\r\n            usersFromDepart[i] = userList[idList[i]];\r\n        }\r\n        return usersFromDepart;\r\n    }\r\n\r\n    mapping(uint => mapping(uint => bool)) departToAssetBool;\r\n    mapping(uint => uint[]) departIdToAssetList;\r\n\r\n    //ASSETS from department\r\n    function insertAssetToDepartment(uint departId, uint[] memory assetsIds) public {\r\n        uint cont = assetsIds.length;\r\n        for (uint i = 0; i < cont; i++) {\r\n            if(departToAssetBool[departId][assetsIds[i]] == true) {\r\n                revert(\"Asset in dep\");\r\n            } else {\r\n                departIdToAssetList[departId].push(assetsIds[i]);\r\n                departToAssetBool[departId][assetsIds[i]] = true;\r\n                Main mainInstance = Main(mainAddr);\r\n                mainInstance.insertAssetToDepartment(assetsIds[i], departId);\r\n            }\r\n            \r\n        }\r\n    }\r\n\r\n    function deleteAssetFromDepartment(uint departId, uint[] memory assetsIds) public {\r\n        uint assetCont = assetsIds.length;\r\n        for (uint i = 0; i < assetCont; i++) {\r\n            if(departToAssetBool[departId][assetsIds[i]] == true) {\r\n                departToAssetBool[departId][assetsIds[i]] = false;\r\n                uint departAssets = departIdToAssetList[departId].length;\r\n                for(uint o = 0; o < departAssets; o++){\r\n                    if (departIdToAssetList[departId][o] == assetsIds[i]){\r\n                        for (uint e = o; e < departAssets-1; e++){\r\n                            departIdToAssetList[departId][e] = departIdToAssetList[departId][e+1];\r\n                        }\r\n                        departIdToAssetList[departId].pop();\r\n                        Main mainInstance = Main(mainAddr);\r\n                        mainInstance.insertAssetToDepartment(assetsIds[i], 0);\r\n                        break;\r\n                    }\r\n                }\r\n            }\r\n        }\r\n    }\r\n\r\n    function getAssetsIdsFromDepart(uint departId) public view returns(uint[] memory){\r\n        return departIdToAssetList[departId];\r\n        \r\n    }\r\n\r\n    function insertNewAssetWithDepartment(uint assetDepart, uint id) public{\r\n        departIdToAssetList[assetDepart].push(id);\r\n        departToAssetBool[assetDepart][id] = true;    \r\n    }\r\n\r\n    //COMMENTS\r\n    struct Comment {\r\n        string description;\r\n        uint userId;\r\n        uint date;\r\n    }\r\n\r\n    Comment[] commentList;\r\n    mapping(uint => uint[]) assetIdToCommentList; \r\n\r\n    function insertComment(string memory description, uint date, uint assetId, uint orgId, address addr) public {\r\n        if(isAdminFromOrg(addr, orgId)) revert(\"is Administrator\");\r\n        if(!isUserFromOrg(addr, orgId)) revert(\"User isn't in org\");\r\n        uint userId = addressToId[addr];\r\n        uint comId = commentList.length;\r\n        commentList.push(Comment(description, userId, date));\r\n        assetIdToCommentList[assetId].push(comId);\r\n        emit NewComment(addr, date);\r\n    }\r\n\r\n    function getCommentsByAsset(uint assetId) public view returns(Comment[] memory){\r\n        uint[] memory ids = assetIdToCommentList[assetId];\r\n        Comment[] memory comments = new Comment[](ids.length);\r\n        for (uint256 i = 0; i < ids.length; i++) {\r\n            comments[i] = commentList[ids[i]];\r\n        }\r\n        return comments;\r\n    }\r\n\r\n    function getNumberOfCommentsByAsset(uint assetId) public view returns(uint){\r\n        uint[] memory ids = assetIdToCommentList[assetId];\r\n        return ids.length;\r\n    }\r\n\r\n    function getUsersById(uint[] memory usersId) public view returns(User[] memory){\r\n        User[] memory container = new User[](usersId.length);\r\n        for (uint256 i = 0; i < usersId.length; i++) {\r\n            container[i] = userList[usersId[i]];\r\n        }\r\n        return container;\r\n    }\r\n}",
  "sourcePath": "D:\\GIT\\inventory-blockchain\\blockchain\\contracts\\Users.sol",
  "compiler": {
    "name": "solc",
    "version": "0.8.12+commit.f00d7308.Emscripten.clang"
  },
  "schemaVersion": "3.4.6",
  "updatedAt": "2022-06-09T20:12:11.100Z",
  "networkType": "ethereum",
  "devdoc": {
    "kind": "dev",
    "methods": {},
    "version": 1
  },
  "userdoc": {
    "kind": "user",
    "methods": {},
    "version": 1
  }
}