{
  "contractName": "Users",
  "abi": [
    {
      "inputs": [
        {
          "internalType": "uint256",
          "name": "",
          "type": "uint256"
        },
        {
          "internalType": "uint256",
          "name": "",
          "type": "uint256"
        }
      ],
      "name": "assetToListOfUsers",
      "outputs": [
        {
          "internalType": "uint256",
          "name": "",
          "type": "uint256"
        }
      ],
      "stateMutability": "view",
      "type": "function",
      "constant": true
    },
    {
      "inputs": [
        {
          "internalType": "uint256",
          "name": "",
          "type": "uint256"
        },
        {
          "internalType": "uint256",
          "name": "",
          "type": "uint256"
        }
      ],
      "name": "userIdToAssetList",
      "outputs": [
        {
          "internalType": "uint256",
          "name": "",
          "type": "uint256"
        }
      ],
      "stateMutability": "view",
      "type": "function",
      "constant": true
    },
    {
      "inputs": [
        {
          "internalType": "address",
          "name": "addr",
          "type": "address"
        },
        {
          "internalType": "string",
          "name": "name",
          "type": "string"
        },
        {
          "internalType": "string",
          "name": "surname",
          "type": "string"
        },
        {
          "internalType": "string",
          "name": "email",
          "type": "string"
        },
        {
          "internalType": "uint32",
          "name": "telephone",
          "type": "uint32"
        },
        {
          "internalType": "uint256",
          "name": "orgId",
          "type": "uint256"
        }
      ],
      "name": "insertUser",
      "outputs": [],
      "stateMutability": "nonpayable",
      "type": "function"
    },
    {
      "inputs": [
        {
          "internalType": "uint256",
          "name": "orgId",
          "type": "uint256"
        }
      ],
      "name": "getAllUsersFromOrg",
      "outputs": [
        {
          "components": [
            {
              "internalType": "address",
              "name": "addr",
              "type": "address"
            },
            {
              "internalType": "string",
              "name": "name",
              "type": "string"
            },
            {
              "internalType": "string",
              "name": "surname",
              "type": "string"
            },
            {
              "internalType": "string",
              "name": "email",
              "type": "string"
            },
            {
              "internalType": "uint32",
              "name": "telephone",
              "type": "uint32"
            },
            {
              "internalType": "uint256",
              "name": "orgId",
              "type": "uint256"
            },
            {
              "internalType": "uint256",
              "name": "index",
              "type": "uint256"
            }
          ],
          "internalType": "struct Users.User[]",
          "name": "",
          "type": "tuple[]"
        }
      ],
      "stateMutability": "view",
      "type": "function",
      "constant": true
    },
    {
      "inputs": [
        {
          "internalType": "uint256",
          "name": "userId",
          "type": "uint256"
        }
      ],
      "name": "getUserData",
      "outputs": [
        {
          "components": [
            {
              "internalType": "address",
              "name": "addr",
              "type": "address"
            },
            {
              "internalType": "string",
              "name": "name",
              "type": "string"
            },
            {
              "internalType": "string",
              "name": "surname",
              "type": "string"
            },
            {
              "internalType": "string",
              "name": "email",
              "type": "string"
            },
            {
              "internalType": "uint32",
              "name": "telephone",
              "type": "uint32"
            },
            {
              "internalType": "uint256",
              "name": "orgId",
              "type": "uint256"
            },
            {
              "internalType": "uint256",
              "name": "index",
              "type": "uint256"
            }
          ],
          "internalType": "struct Users.User",
          "name": "",
          "type": "tuple"
        }
      ],
      "stateMutability": "view",
      "type": "function",
      "constant": true
    },
    {
      "inputs": [
        {
          "internalType": "uint256",
          "name": "assetId",
          "type": "uint256"
        },
        {
          "internalType": "uint256",
          "name": "userId",
          "type": "uint256"
        }
      ],
      "name": "insertUserToAsset",
      "outputs": [],
      "stateMutability": "nonpayable",
      "type": "function"
    }
  ],
  "bytecode": "0x608060405234801561001057600080fd5b506112e2806100206000396000f3fe608060405234801561001057600080fd5b50600436106100625760003560e01c80631fef580c146100675780632c60e4a0146100975780635c20f29b146100b3578063dd2b6d3a146100cf578063e8bb900b146100ff578063fbc8ba841461012f575b600080fd5b610081600480360381019061007c9190610b3d565b61015f565b60405161008e9190610d1c565b60405180910390f35b6100b160048036038101906100ac9190610ecb565b6103e1565b005b6100cd60048036038101906100c89190610fac565b610582565b005b6100e960048036038101906100e49190610fac565b6105fa565b6040516100f69190610ffb565b60405180910390f35b61011960048036038101906101149190610fac565b61062b565b6040516101269190610ffb565b60405180910390f35b61014960048036038101906101449190610b3d565b61065c565b6040516101569190611182565b60405180910390f35b6101676109f7565b6000828154811061017b5761017a6111a4565b5b90600052602060002090600702016040518060e00160405290816000820160009054906101000a900473ffffffffffffffffffffffffffffffffffffffff1673ffffffffffffffffffffffffffffffffffffffff1673ffffffffffffffffffffffffffffffffffffffff1681526020016001820180546101fa90611202565b80601f016020809104026020016040519081016040528092919081815260200182805461022690611202565b80156102735780601f1061024857610100808354040283529160200191610273565b820191906000526020600020905b81548152906001019060200180831161025657829003601f168201915b5050505050815260200160028201805461028c90611202565b80601f01602080910402602001604051908101604052809291908181526020018280546102b890611202565b80156103055780601f106102da57610100808354040283529160200191610305565b820191906000526020600020905b8154815290600101906020018083116102e857829003601f168201915b5050505050815260200160038201805461031e90611202565b80601f016020809104026020016040519081016040528092919081815260200182805461034a90611202565b80156103975780601f1061036c57610100808354040283529160200191610397565b820191906000526020600020905b81548152906001019060200180831161037a57829003601f168201915b505050505081526020016004820160009054906101000a900463ffffffff1663ffffffff1663ffffffff168152602001600582015481526020016006820154815250509050919050565b60008080549050905060006040518060e001604052808973ffffffffffffffffffffffffffffffffffffffff1681526020018881526020018781526020018681526020018563ffffffff16815260200184815260200183815250908060018154018082558091505060019003906000526020600020906007020160009091909190915060008201518160000160006101000a81548173ffffffffffffffffffffffffffffffffffffffff021916908373ffffffffffffffffffffffffffffffffffffffff16021790555060208201518160010190805190602001906104c7929190610a50565b5060408201518160020190805190602001906104e4929190610a50565b506060820151816003019080519060200190610501929190610a50565b5060808201518160040160006101000a81548163ffffffff021916908363ffffffff16021790555060a0820151816005015560c0820151816006015550506001600083815260200190815260200160002081908060018154018082558091505060019003906000526020600020016000909190919091505550505050505050565b60026000828152602001908152602001600020829080600181540180825580915050600190039060005260206000200160009091909190915055600360008381526020019081526020016000208190806001815401808255809150506001900390600052602060002001600090919091909150555050565b6002602052816000526040600020818154811061061657600080fd5b90600052602060002001600091509150505481565b6003602052816000526040600020818154811061064757600080fd5b90600052602060002001600091509150505481565b60606000600160008481526020019081526020016000208054806020026020016040519081016040528092919081815260200182805480156106bd57602002820191906000526020600020905b8154815260200190600101908083116106a9575b5050505050905060008151905060008167ffffffffffffffff8111156106e6576106e5610d74565b5b60405190808252806020026020018201604052801561071f57816020015b61070c6109f7565b8152602001906001900390816107045790505b50905060005b828110156109eb576000848281518110610742576107416111a4565b5b60200260200101518154811061075b5761075a6111a4565b5b90600052602060002090600702016040518060e00160405290816000820160009054906101000a900473ffffffffffffffffffffffffffffffffffffffff1673ffffffffffffffffffffffffffffffffffffffff1673ffffffffffffffffffffffffffffffffffffffff1681526020016001820180546107da90611202565b80601f016020809104026020016040519081016040528092919081815260200182805461080690611202565b80156108535780601f1061082857610100808354040283529160200191610853565b820191906000526020600020905b81548152906001019060200180831161083657829003601f168201915b5050505050815260200160028201805461086c90611202565b80601f016020809104026020016040519081016040528092919081815260200182805461089890611202565b80156108e55780601f106108ba576101008083540402835291602001916108e5565b820191906000526020600020905b8154815290600101906020018083116108c857829003601f168201915b505050505081526020016003820180546108fe90611202565b80601f016020809104026020016040519081016040528092919081815260200182805461092a90611202565b80156109775780601f1061094c57610100808354040283529160200191610977565b820191906000526020600020905b81548152906001019060200180831161095a57829003601f168201915b505050505081526020016004820160009054906101000a900463ffffffff1663ffffffff1663ffffffff168152602001600582015481526020016006820154815250508282815181106109cd576109cc6111a4565b5b602002602001018190525080806109e390611263565b915050610725565b50809350505050919050565b6040518060e00160405280600073ffffffffffffffffffffffffffffffffffffffff168152602001606081526020016060815260200160608152602001600063ffffffff16815260200160008152602001600081525090565b828054610a5c90611202565b90600052602060002090601f016020900481019282610a7e5760008555610ac5565b82601f10610a9757805160ff1916838001178555610ac5565b82800160010185558215610ac5579182015b82811115610ac4578251825591602001919060010190610aa9565b5b509050610ad29190610ad6565b5090565b5b80821115610aef576000816000905550600101610ad7565b5090565b6000604051905090565b600080fd5b600080fd5b6000819050919050565b610b1a81610b07565b8114610b2557600080fd5b50565b600081359050610b3781610b11565b92915050565b600060208284031215610b5357610b52610afd565b5b6000610b6184828501610b28565b91505092915050565b600073ffffffffffffffffffffffffffffffffffffffff82169050919050565b6000610b9582610b6a565b9050919050565b610ba581610b8a565b82525050565b600081519050919050565b600082825260208201905092915050565b60005b83811015610be5578082015181840152602081019050610bca565b83811115610bf4576000848401525b50505050565b6000601f19601f8301169050919050565b6000610c1682610bab565b610c208185610bb6565b9350610c30818560208601610bc7565b610c3981610bfa565b840191505092915050565b600063ffffffff82169050919050565b610c5d81610c44565b82525050565b610c6c81610b07565b82525050565b600060e083016000830151610c8a6000860182610b9c565b5060208301518482036020860152610ca28282610c0b565b91505060408301518482036040860152610cbc8282610c0b565b91505060608301518482036060860152610cd68282610c0b565b9150506080830151610ceb6080860182610c54565b5060a0830151610cfe60a0860182610c63565b5060c0830151610d1160c0860182610c63565b508091505092915050565b60006020820190508181036000830152610d368184610c72565b905092915050565b610d4781610b8a565b8114610d5257600080fd5b50565b600081359050610d6481610d3e565b92915050565b600080fd5b600080fd5b7f4e487b7100000000000000000000000000000000000000000000000000000000600052604160045260246000fd5b610dac82610bfa565b810181811067ffffffffffffffff82111715610dcb57610dca610d74565b5b80604052505050565b6000610dde610af3565b9050610dea8282610da3565b919050565b600067ffffffffffffffff821115610e0a57610e09610d74565b5b610e1382610bfa565b9050602081019050919050565b82818337600083830152505050565b6000610e42610e3d84610def565b610dd4565b905082815260208101848484011115610e5e57610e5d610d6f565b5b610e69848285610e20565b509392505050565b600082601f830112610e8657610e85610d6a565b5b8135610e96848260208601610e2f565b91505092915050565b610ea881610c44565b8114610eb357600080fd5b50565b600081359050610ec581610e9f565b92915050565b60008060008060008060c08789031215610ee857610ee7610afd565b5b6000610ef689828a01610d55565b965050602087013567ffffffffffffffff811115610f1757610f16610b02565b5b610f2389828a01610e71565b955050604087013567ffffffffffffffff811115610f4457610f43610b02565b5b610f5089828a01610e71565b945050606087013567ffffffffffffffff811115610f7157610f70610b02565b5b610f7d89828a01610e71565b9350506080610f8e89828a01610eb6565b92505060a0610f9f89828a01610b28565b9150509295509295509295565b60008060408385031215610fc357610fc2610afd565b5b6000610fd185828601610b28565b9250506020610fe285828601610b28565b9150509250929050565b610ff581610b07565b82525050565b60006020820190506110106000830184610fec565b92915050565b600081519050919050565b600082825260208201905092915050565b6000819050602082019050919050565b600060e08301600083015161105a6000860182610b9c565b50602083015184820360208601526110728282610c0b565b9150506040830151848203604086015261108c8282610c0b565b915050606083015184820360608601526110a68282610c0b565b91505060808301516110bb6080860182610c54565b5060a08301516110ce60a0860182610c63565b5060c08301516110e160c0860182610c63565b508091505092915050565b60006110f88383611042565b905092915050565b6000602082019050919050565b600061111882611016565b6111228185611021565b93508360208202850161113485611032565b8060005b85811015611170578484038952815161115185826110ec565b945061115c83611100565b925060208a01995050600181019050611138565b50829750879550505050505092915050565b6000602082019050818103600083015261119c818461110d565b905092915050565b7f4e487b7100000000000000000000000000000000000000000000000000000000600052603260045260246000fd5b7f4e487b7100000000000000000000000000000000000000000000000000000000600052602260045260246000fd5b6000600282049050600182168061121a57607f821691505b6020821081141561122e5761122d6111d3565b5b50919050565b7f4e487b7100000000000000000000000000000000000000000000000000000000600052601160045260246000fd5b600061126e82610b07565b91507fffffffffffffffffffffffffffffffffffffffffffffffffffffffffffffffff8214156112a1576112a0611234565b5b60018201905091905056fea26469706673582212209eae7f75813ee58288a53b4fd4373d76edbfc12ffaa8c398a7fc990fd25a18f264736f6c634300080c0033",
  "immutableReferences": {},
  "source": "// SPDX-License-Identifier: MIT\r\npragma solidity >=0.7.0 <0.9.10;\r\n\r\n\r\ncontract Users {\r\n\r\n    struct User {\r\n        address addr;\r\n        string name;\r\n        string surname;\r\n        string email;\r\n        uint32 telephone;\r\n        uint orgId;\r\n        uint256 index;\r\n    }\r\n\r\n    User[] private userList;\r\n    mapping(uint256 => uint256[]) orgIdToUserList;\r\n\r\n\r\n    function insertUser(\r\n        address addr, \r\n        string memory name, \r\n        string memory surname, \r\n        string memory email, \r\n        uint32 telephone,\r\n        uint orgId \r\n    ) public {\r\n        uint userId = userList.length;\r\n        userList.push(User(addr, name, surname, email, telephone, orgId, userId));\r\n        orgIdToUserList[orgId].push(userId);\r\n    }\r\n\r\n\r\n\r\n    function getAllUsersFromOrg(uint orgId) public view returns(User[] memory){\r\n        uint[] memory idList = orgIdToUserList[orgId];\r\n        uint cont = idList.length;\r\n        User[] memory usersFromOrg = new User[](cont);\r\n\r\n        for (uint i = 0; i < cont; i++) {\r\n            usersFromOrg[i] = userList[idList[i]];\r\n        }\r\n        return usersFromOrg;\r\n    }\r\n\r\n\r\n\r\n    function getUserData(uint userId) public view returns(User memory){\r\n        return userList[userId];\r\n    }\r\n\r\n    //RELATION BETWEEN ASSET AND USER\r\n\r\n    mapping(uint => uint[]) public userIdToAssetList;\r\n    mapping(uint => uint[]) public assetToListOfUsers;\r\n\r\n\r\n    //TODO INSERT VARIOUS USERS AT THE SAME TIME\r\n    function insertUserToAsset(uint assetId, uint userId) public {\r\n        userIdToAssetList[userId].push(assetId);\r\n        assetToListOfUsers[assetId].push(userId);\r\n    }\r\n\r\n\r\n}",
  "sourcePath": "D:\\GIT\\inventory-blockchain\\blockchain\\contracts\\Users.sol",
  "compiler": {
    "name": "solc",
    "version": "0.8.12+commit.f00d7308.Emscripten.clang"
  },
  "schemaVersion": "3.4.6",
  "updatedAt": "2022-04-30T23:33:12.310Z",
  "networkType": "ethereum",
  "devdoc": {
    "kind": "dev",
    "methods": {},
    "version": 1
  },
  "userdoc": {
    "kind": "user",
    "methods": {},
    "version": 1
  }
}